{
	"contracts/kaiToken.sol": {
		"KaiToken": {
			"abi": [
				{
					"inputs": [],
					"stateMutability": "nonpayable",
					"type": "constructor"
				},
				{
					"anonymous": false,
					"inputs": [
						{
							"indexed": true,
							"internalType": "address",
							"name": "owner",
							"type": "address"
						},
						{
							"indexed": true,
							"internalType": "address",
							"name": "spender",
							"type": "address"
						},
						{
							"indexed": false,
							"internalType": "uint256",
							"name": "value",
							"type": "uint256"
						}
					],
					"name": "Approval",
					"type": "event"
				},
				{
					"anonymous": false,
					"inputs": [
						{
							"indexed": true,
							"internalType": "address",
							"name": "previousOwner",
							"type": "address"
						},
						{
							"indexed": true,
							"internalType": "address",
							"name": "newOwner",
							"type": "address"
						}
					],
					"name": "OwnershipTransferred",
					"type": "event"
				},
				{
					"anonymous": false,
					"inputs": [
						{
							"indexed": true,
							"internalType": "address",
							"name": "from",
							"type": "address"
						},
						{
							"indexed": true,
							"internalType": "address",
							"name": "to",
							"type": "address"
						},
						{
							"indexed": false,
							"internalType": "uint256",
							"name": "value",
							"type": "uint256"
						}
					],
					"name": "Transfer",
					"type": "event"
				},
				{
					"inputs": [],
					"name": "_name",
					"outputs": [
						{
							"internalType": "string",
							"name": "",
							"type": "string"
						}
					],
					"stateMutability": "view",
					"type": "function"
				},
				{
					"inputs": [],
					"name": "_symbol",
					"outputs": [
						{
							"internalType": "string",
							"name": "",
							"type": "string"
						}
					],
					"stateMutability": "view",
					"type": "function"
				},
				{
					"inputs": [],
					"name": "_totalSupply",
					"outputs": [
						{
							"internalType": "uint256",
							"name": "",
							"type": "uint256"
						}
					],
					"stateMutability": "view",
					"type": "function"
				},
				{
					"inputs": [
						{
							"internalType": "address",
							"name": "owner",
							"type": "address"
						},
						{
							"internalType": "address",
							"name": "spender",
							"type": "address"
						}
					],
					"name": "allowance",
					"outputs": [
						{
							"internalType": "uint256",
							"name": "",
							"type": "uint256"
						}
					],
					"stateMutability": "view",
					"type": "function"
				},
				{
					"inputs": [
						{
							"internalType": "address",
							"name": "spender",
							"type": "address"
						},
						{
							"internalType": "uint256",
							"name": "amount",
							"type": "uint256"
						}
					],
					"name": "approve",
					"outputs": [
						{
							"internalType": "bool",
							"name": "",
							"type": "bool"
						}
					],
					"stateMutability": "nonpayable",
					"type": "function"
				},
				{
					"inputs": [
						{
							"internalType": "address",
							"name": "account",
							"type": "address"
						}
					],
					"name": "balanceOf",
					"outputs": [
						{
							"internalType": "uint256",
							"name": "",
							"type": "uint256"
						}
					],
					"stateMutability": "view",
					"type": "function"
				},
				{
					"inputs": [],
					"name": "decimals",
					"outputs": [
						{
							"internalType": "uint8",
							"name": "",
							"type": "uint8"
						}
					],
					"stateMutability": "view",
					"type": "function"
				},
				{
					"inputs": [
						{
							"internalType": "address",
							"name": "spender",
							"type": "address"
						},
						{
							"internalType": "uint256",
							"name": "subtractedValue",
							"type": "uint256"
						}
					],
					"name": "decreaseAllowance",
					"outputs": [
						{
							"internalType": "bool",
							"name": "",
							"type": "bool"
						}
					],
					"stateMutability": "nonpayable",
					"type": "function"
				},
				{
					"inputs": [
						{
							"internalType": "address",
							"name": "spender",
							"type": "address"
						},
						{
							"internalType": "uint256",
							"name": "addedValue",
							"type": "uint256"
						}
					],
					"name": "increaseAllowance",
					"outputs": [
						{
							"internalType": "bool",
							"name": "",
							"type": "bool"
						}
					],
					"stateMutability": "nonpayable",
					"type": "function"
				},
				{
					"inputs": [
						{
							"internalType": "address",
							"name": "account",
							"type": "address"
						},
						{
							"internalType": "uint256",
							"name": "amount",
							"type": "uint256"
						}
					],
					"name": "mint",
					"outputs": [],
					"stateMutability": "nonpayable",
					"type": "function"
				},
				{
					"inputs": [],
					"name": "name",
					"outputs": [
						{
							"internalType": "string",
							"name": "",
							"type": "string"
						}
					],
					"stateMutability": "view",
					"type": "function"
				},
				{
					"inputs": [],
					"name": "owner",
					"outputs": [
						{
							"internalType": "address",
							"name": "",
							"type": "address"
						}
					],
					"stateMutability": "view",
					"type": "function"
				},
				{
					"inputs": [],
					"name": "rate",
					"outputs": [
						{
							"internalType": "uint256",
							"name": "",
							"type": "uint256"
						}
					],
					"stateMutability": "view",
					"type": "function"
				},
				{
					"inputs": [],
					"name": "renounceOwnership",
					"outputs": [],
					"stateMutability": "nonpayable",
					"type": "function"
				},
				{
					"inputs": [
						{
							"internalType": "uint256",
							"name": "_amount",
							"type": "uint256"
						}
					],
					"name": "sellToken",
					"outputs": [],
					"stateMutability": "payable",
					"type": "function"
				},
				{
					"inputs": [],
					"name": "symbol",
					"outputs": [
						{
							"internalType": "string",
							"name": "",
							"type": "string"
						}
					],
					"stateMutability": "view",
					"type": "function"
				},
				{
					"inputs": [
						{
							"internalType": "address",
							"name": "owner",
							"type": "address"
						},
						{
							"internalType": "address",
							"name": "to",
							"type": "address"
						},
						{
							"internalType": "uint256",
							"name": "amount",
							"type": "uint256"
						}
					],
					"name": "tokentransfer",
					"outputs": [],
					"stateMutability": "nonpayable",
					"type": "function"
				},
				{
					"inputs": [],
					"name": "totalSupply",
					"outputs": [
						{
							"internalType": "uint256",
							"name": "",
							"type": "uint256"
						}
					],
					"stateMutability": "view",
					"type": "function"
				},
				{
					"inputs": [
						{
							"internalType": "address",
							"name": "to",
							"type": "address"
						},
						{
							"internalType": "uint256",
							"name": "amount",
							"type": "uint256"
						}
					],
					"name": "transfer",
					"outputs": [
						{
							"internalType": "bool",
							"name": "",
							"type": "bool"
						}
					],
					"stateMutability": "nonpayable",
					"type": "function"
				},
				{
					"inputs": [
						{
							"internalType": "address",
							"name": "from",
							"type": "address"
						},
						{
							"internalType": "address",
							"name": "to",
							"type": "address"
						},
						{
							"internalType": "uint256",
							"name": "amount",
							"type": "uint256"
						}
					],
					"name": "transferFrom",
					"outputs": [
						{
							"internalType": "bool",
							"name": "",
							"type": "bool"
						}
					],
					"stateMutability": "nonpayable",
					"type": "function"
				},
				{
					"inputs": [
						{
							"internalType": "address",
							"name": "newOwner",
							"type": "address"
						}
					],
					"name": "transferOwnership",
					"outputs": [],
					"stateMutability": "nonpayable",
					"type": "function"
				},
				{
					"stateMutability": "payable",
					"type": "receive"
				}
			],
			"devdoc": {
				"kind": "dev",
				"methods": {
					"allowance(address,address)": {
						"details": "See {IERC20-allowance}."
					},
					"approve(address,uint256)": {
						"details": "See {IERC20-approve}. NOTE: If `amount` is the maximum `uint256`, the allowance is not updated on `transferFrom`. This is semantically equivalent to an infinite approval. Requirements: - `spender` cannot be the zero address."
					},
					"balanceOf(address)": {
						"details": "See {IERC20-balanceOf}."
					},
					"decimals()": {
						"details": "Returns the number of decimals used to get its user representation. For example, if `decimals` equals `2`, a balance of `505` tokens should be displayed to a user as `5.05` (`505 / 10 ** 2`). Tokens usually opt for a value of 18, imitating the relationship between Ether and Wei. This is the value {ERC20} uses, unless this function is overridden; NOTE: This information is only used for _display_ purposes: it in no way affects any of the arithmetic of the contract, including {IERC20-balanceOf} and {IERC20-transfer}."
					},
					"decreaseAllowance(address,uint256)": {
						"details": "Atomically decreases the allowance granted to `spender` by the caller. This is an alternative to {approve} that can be used as a mitigation for problems described in {IERC20-approve}. Emits an {Approval} event indicating the updated allowance. Requirements: - `spender` cannot be the zero address. - `spender` must have allowance for the caller of at least `subtractedValue`."
					},
					"increaseAllowance(address,uint256)": {
						"details": "Atomically increases the allowance granted to `spender` by the caller. This is an alternative to {approve} that can be used as a mitigation for problems described in {IERC20-approve}. Emits an {Approval} event indicating the updated allowance. Requirements: - `spender` cannot be the zero address."
					},
					"name()": {
						"details": "Returns the name of the token."
					},
					"owner()": {
						"details": "Returns the address of the current owner."
					},
					"renounceOwnership()": {
						"details": "Leaves the contract without owner. It will not be possible to call `onlyOwner` functions anymore. Can only be called by the current owner. NOTE: Renouncing ownership will leave the contract without an owner, thereby removing any functionality that is only available to the owner."
					},
					"symbol()": {
						"details": "Returns the symbol of the token, usually a shorter version of the name."
					},
					"totalSupply()": {
						"details": "See {IERC20-totalSupply}."
					},
					"transfer(address,uint256)": {
						"details": "See {IERC20-transfer}. Requirements: - `to` cannot be the zero address. - the caller must have a balance of at least `amount`."
					},
					"transferFrom(address,address,uint256)": {
						"details": "See {IERC20-transferFrom}. Emits an {Approval} event indicating the updated allowance. This is not required by the EIP. See the note at the beginning of {ERC20}. NOTE: Does not update the allowance if the current allowance is the maximum `uint256`. Requirements: - `from` and `to` cannot be the zero address. - `from` must have a balance of at least `amount`. - the caller must have allowance for ``from``'s tokens of at least `amount`."
					},
					"transferOwnership(address)": {
						"details": "Transfers ownership of the contract to a new account (`newOwner`). Can only be called by the current owner."
					}
				},
				"version": 1
			},
			"evm": {
				"assembly": "    /* \"contracts/kaiToken.sol\":397:2009  contract KaiToken is ERC20, Ownable {... */\n  mstore(0x40, 0x80)\n    /* \"contracts/kaiToken.sol\":439:471  string public _name = \"KaiToken\" */\n  mload(0x40)\n  dup1\n  0x40\n  add\n  0x40\n  mstore\n  dup1\n  0x08\n  dup2\n  mstore\n  0x20\n  add\n  0x4b6169546f6b656e000000000000000000000000000000000000000000000000\n  dup2\n  mstore\n  pop\n  0x06\n  swap1\n  dup2\n  tag_1\n  swap2\n  swap1\n  tag_2\n  jump\t// in\ntag_1:\n  pop\n    /* \"contracts/kaiToken.sol\":477:506  string public _symbol = \"KAI\" */\n  mload(0x40)\n  dup1\n  0x40\n  add\n  0x40\n  mstore\n  dup1\n  0x03\n  dup2\n  mstore\n  0x20\n  add\n  0x4b41490000000000000000000000000000000000000000000000000000000000\n  dup2\n  mstore\n  pop\n  0x07\n  swap1\n  dup2\n  tag_3\n  swap2\n  swap1\n  tag_2\n  jump\t// in\ntag_3:\n  pop\n    /* \"contracts/kaiToken.sol\":555:565  decimals() */\n  tag_4\n    /* \"contracts/kaiToken.sol\":555:563  decimals */\n  shl(0x20, tag_5)\n    /* \"contracts/kaiToken.sol\":555:565  decimals() */\n  0x20\n  shr\n  jump\t// in\ntag_4:\n    /* \"contracts/kaiToken.sol\":551:553  10 */\n  0x0a\n    /* \"contracts/kaiToken.sol\":551:565  10**decimals() */\n  tag_6\n  swap2\n  swap1\n  tag_7\n  jump\t// in\ntag_6:\n    /* \"contracts/kaiToken.sol\":542:547  10000 */\n  0x2710\n    /* \"contracts/kaiToken.sol\":542:566  10000 * (10**decimals()) */\n  tag_8\n  swap2\n  swap1\n  tag_9\n  jump\t// in\ntag_8:\n    /* \"contracts/kaiToken.sol\":512:566  uint256 public _totalSupply = 10000 * (10**decimals()) */\n  0x08\n  sstore\n    /* \"contracts/kaiToken.sol\":595:598  100 */\n  0x64\n    /* \"contracts/kaiToken.sol\":573:598  uint256 public rate = 100 */\n  0x09\n  sstore\n    /* \"contracts/kaiToken.sol\":627:839  constructor() ERC20(_name, _symbol){... */\n  callvalue\n  dup1\n  iszero\n  tag_10\n  jumpi\n  0x00\n  dup1\n  revert\ntag_10:\n  pop\n    /* \"contracts/kaiToken.sol\":647:652  _name */\n  0x06\n    /* \"node_modules/openzeppelin-solidity/contracts/token/ERC20/ERC20.sol\":1978:2091  constructor(string memory name_, string memory symbol_) {... */\n  dup1\n  sload\n  tag_13\n  swap1\n  tag_14\n  jump\t// in\ntag_13:\n  dup1\n  0x1f\n  add\n  0x20\n  dup1\n  swap2\n  div\n  mul\n  0x20\n  add\n  mload(0x40)\n  swap1\n  dup2\n  add\n  0x40\n  mstore\n  dup1\n  swap3\n  swap2\n  swap1\n  dup2\n  dup2\n  mstore\n  0x20\n  add\n  dup3\n  dup1\n  sload\n  tag_15\n  swap1\n  tag_14\n  jump\t// in\ntag_15:\n  dup1\n  iszero\n  tag_16\n  jumpi\n  dup1\n  0x1f\n  lt\n  tag_17\n  jumpi\n  0x0100\n  dup1\n  dup4\n  sload\n  div\n  mul\n  dup4\n  mstore\n  swap2\n  0x20\n  add\n  swap2\n  jump(tag_16)\ntag_17:\n  dup3\n  add\n  swap2\n  swap1\n  0x00\n  mstore\n  keccak256(0x00, 0x20)\n  swap1\ntag_18:\n  dup2\n  sload\n  dup2\n  mstore\n  swap1\n  0x01\n  add\n  swap1\n  0x20\n  add\n  dup1\n  dup4\n  gt\n  tag_18\n  jumpi\n  dup3\n  swap1\n  sub\n  0x1f\n  and\n  dup3\n  add\n  swap2\ntag_16:\n  pop\n  pop\n  pop\n  pop\n  pop\n    /* \"contracts/kaiToken.sol\":654:661  _symbol */\n  0x07\n    /* \"node_modules/openzeppelin-solidity/contracts/token/ERC20/ERC20.sol\":1978:2091  constructor(string memory name_, string memory symbol_) {... */\n  dup1\n  sload\n  tag_19\n  swap1\n  tag_14\n  jump\t// in\ntag_19:\n  dup1\n  0x1f\n  add\n  0x20\n  dup1\n  swap2\n  div\n  mul\n  0x20\n  add\n  mload(0x40)\n  swap1\n  dup2\n  add\n  0x40\n  mstore\n  dup1\n  swap3\n  swap2\n  swap1\n  dup2\n  dup2\n  mstore\n  0x20\n  add\n  dup3\n  dup1\n  sload\n  tag_20\n  swap1\n  tag_14\n  jump\t// in\ntag_20:\n  dup1\n  iszero\n  tag_21\n  jumpi\n  dup1\n  0x1f\n  lt\n  tag_22\n  jumpi\n  0x0100\n  dup1\n  dup4\n  sload\n  div\n  mul\n  dup4\n  mstore\n  swap2\n  0x20\n  add\n  swap2\n  jump(tag_21)\ntag_22:\n  dup3\n  add\n  swap2\n  swap1\n  0x00\n  mstore\n  keccak256(0x00, 0x20)\n  swap1\ntag_23:\n  dup2\n  sload\n  dup2\n  mstore\n  swap1\n  0x01\n  add\n  swap1\n  0x20\n  add\n  dup1\n  dup4\n  gt\n  tag_23\n  jumpi\n  dup3\n  swap1\n  sub\n  0x1f\n  and\n  dup3\n  add\n  swap2\ntag_21:\n  pop\n  pop\n  pop\n  pop\n  pop\n    /* \"node_modules/openzeppelin-solidity/contracts/token/ERC20/ERC20.sol\":2052:2057  name_ */\n  dup2\n    /* \"node_modules/openzeppelin-solidity/contracts/token/ERC20/ERC20.sol\":2044:2049  _name */\n  0x03\n    /* \"node_modules/openzeppelin-solidity/contracts/token/ERC20/ERC20.sol\":2044:2057  _name = name_ */\n  swap1\n  dup2\n  tag_26\n  swap2\n  swap1\n  tag_2\n  jump\t// in\ntag_26:\n  pop\n    /* \"node_modules/openzeppelin-solidity/contracts/token/ERC20/ERC20.sol\":2077:2084  symbol_ */\n  dup1\n    /* \"node_modules/openzeppelin-solidity/contracts/token/ERC20/ERC20.sol\":2067:2074  _symbol */\n  0x04\n    /* \"node_modules/openzeppelin-solidity/contracts/token/ERC20/ERC20.sol\":2067:2084  _symbol = symbol_ */\n  swap1\n  dup2\n  tag_27\n  swap2\n  swap1\n  tag_2\n  jump\t// in\ntag_27:\n  pop\n    /* \"node_modules/openzeppelin-solidity/contracts/token/ERC20/ERC20.sol\":1978:2091  constructor(string memory name_, string memory symbol_) {... */\n  pop\n  pop\n    /* \"node_modules/openzeppelin-solidity/contracts/access/Ownable.sol\":921:953  _transferOwnership(_msgSender()) */\n  tag_29\n    /* \"node_modules/openzeppelin-solidity/contracts/access/Ownable.sol\":940:952  _msgSender() */\n  tag_30\n    /* \"node_modules/openzeppelin-solidity/contracts/access/Ownable.sol\":940:950  _msgSender */\n  shl(0x20, tag_31)\n    /* \"node_modules/openzeppelin-solidity/contracts/access/Ownable.sol\":940:952  _msgSender() */\n  0x20\n  shr\n  jump\t// in\ntag_30:\n    /* \"node_modules/openzeppelin-solidity/contracts/access/Ownable.sol\":921:939  _transferOwnership */\n  shl(0x20, tag_32)\n    /* \"node_modules/openzeppelin-solidity/contracts/access/Ownable.sol\":921:953  _transferOwnership(_msgSender()) */\n  0x20\n  shr\n  jump\t// in\ntag_29:\n    /* \"contracts/kaiToken.sol\":726:731  _name */\n  0x06\n    /* \"contracts/kaiToken.sol\":718:723  _name */\n  dup1\n    /* \"contracts/kaiToken.sol\":718:731  _name = _name */\n  dup2\n  tag_34\n  swap2\n  swap1\n  tag_35\n  jump\t// in\ntag_34:\n  pop\n    /* \"contracts/kaiToken.sol\":751:758  _symbol */\n  0x07\n    /* \"contracts/kaiToken.sol\":741:748  _symbol */\n  dup1\n    /* \"contracts/kaiToken.sol\":741:758  _symbol = _symbol */\n  dup2\n  tag_36\n  swap2\n  swap1\n  tag_35\n  jump\t// in\ntag_36:\n  pop\n    /* \"contracts/kaiToken.sol\":805:832  mint(owner(), _totalSupply) */\n  tag_37\n    /* \"contracts/kaiToken.sol\":810:817  owner() */\n  tag_38\n    /* \"contracts/kaiToken.sol\":810:815  owner */\n  shl(0x20, tag_39)\n    /* \"contracts/kaiToken.sol\":810:817  owner() */\n  0x20\n  shr\n  jump\t// in\ntag_38:\n    /* \"contracts/kaiToken.sol\":819:831  _totalSupply */\n  sload(0x08)\n    /* \"contracts/kaiToken.sol\":805:809  mint */\n  shl(0x20, tag_40)\n    /* \"contracts/kaiToken.sol\":805:832  mint(owner(), _totalSupply) */\n  0x20\n  shr\n  jump\t// in\ntag_37:\n    /* \"contracts/kaiToken.sol\":397:2009  contract KaiToken is ERC20, Ownable {... */\n  jump(tag_41)\n    /* \"node_modules/openzeppelin-solidity/contracts/token/ERC20/ERC20.sol\":3093:3184  function decimals() public view virtual override returns (uint8) {... */\ntag_5:\n    /* \"node_modules/openzeppelin-solidity/contracts/token/ERC20/ERC20.sol\":3151:3156  uint8 */\n  0x00\n    /* \"node_modules/openzeppelin-solidity/contracts/token/ERC20/ERC20.sol\":3175:3177  18 */\n  0x12\n    /* \"node_modules/openzeppelin-solidity/contracts/token/ERC20/ERC20.sol\":3168:3177  return 18 */\n  swap1\n  pop\n    /* \"node_modules/openzeppelin-solidity/contracts/token/ERC20/ERC20.sol\":3093:3184  function decimals() public view virtual override returns (uint8) {... */\n  swap1\n  jump\t// out\n    /* \"node_modules/openzeppelin-solidity/contracts/utils/Context.sol\":640:736  function _msgSender() internal view virtual returns (address) {... */\ntag_31:\n    /* \"node_modules/openzeppelin-solidity/contracts/utils/Context.sol\":693:700  address */\n  0x00\n    /* \"node_modules/openzeppelin-solidity/contracts/utils/Context.sol\":719:729  msg.sender */\n  caller\n    /* \"node_modules/openzeppelin-solidity/contracts/utils/Context.sol\":712:729  return msg.sender */\n  swap1\n  pop\n    /* \"node_modules/openzeppelin-solidity/contracts/utils/Context.sol\":640:736  function _msgSender() internal view virtual returns (address) {... */\n  swap1\n  jump\t// out\n    /* \"node_modules/openzeppelin-solidity/contracts/access/Ownable.sol\":2270:2457  function _transferOwnership(address newOwner) internal virtual {... */\ntag_32:\n    /* \"node_modules/openzeppelin-solidity/contracts/access/Ownable.sol\":2343:2359  address oldOwner */\n  0x00\n    /* \"node_modules/openzeppelin-solidity/contracts/access/Ownable.sol\":2362:2368  _owner */\n  0x05\n  0x00\n  swap1\n  sload\n  swap1\n  0x0100\n  exp\n  swap1\n  div\n  0xffffffffffffffffffffffffffffffffffffffff\n  and\n    /* \"node_modules/openzeppelin-solidity/contracts/access/Ownable.sol\":2343:2368  address oldOwner = _owner */\n  swap1\n  pop\n    /* \"node_modules/openzeppelin-solidity/contracts/access/Ownable.sol\":2387:2395  newOwner */\n  dup2\n    /* \"node_modules/openzeppelin-solidity/contracts/access/Ownable.sol\":2378:2384  _owner */\n  0x05\n  0x00\n    /* \"node_modules/openzeppelin-solidity/contracts/access/Ownable.sol\":2378:2395  _owner = newOwner */\n  0x0100\n  exp\n  dup2\n  sload\n  dup2\n  0xffffffffffffffffffffffffffffffffffffffff\n  mul\n  not\n  and\n  swap1\n  dup4\n  0xffffffffffffffffffffffffffffffffffffffff\n  and\n  mul\n  or\n  swap1\n  sstore\n  pop\n    /* \"node_modules/openzeppelin-solidity/contracts/access/Ownable.sol\":2441:2449  newOwner */\n  dup2\n    /* \"node_modules/openzeppelin-solidity/contracts/access/Ownable.sol\":2410:2450  OwnershipTransferred(oldOwner, newOwner) */\n  0xffffffffffffffffffffffffffffffffffffffff\n  and\n    /* \"node_modules/openzeppelin-solidity/contracts/access/Ownable.sol\":2431:2439  oldOwner */\n  dup2\n    /* \"node_modules/openzeppelin-solidity/contracts/access/Ownable.sol\":2410:2450  OwnershipTransferred(oldOwner, newOwner) */\n  0xffffffffffffffffffffffffffffffffffffffff\n  and\n  0x8be0079c531659141344cd1fd0a4f28419497f9722a3daafe3b4186f6b6457e0\n  mload(0x40)\n  mload(0x40)\n  dup1\n  swap2\n  sub\n  swap1\n  log3\n    /* \"node_modules/openzeppelin-solidity/contracts/access/Ownable.sol\":2333:2457  {... */\n  pop\n    /* \"node_modules/openzeppelin-solidity/contracts/access/Ownable.sol\":2270:2457  function _transferOwnership(address newOwner) internal virtual {... */\n  pop\n  jump\t// out\n    /* \"node_modules/openzeppelin-solidity/contracts/access/Ownable.sol\":1036:1121  function owner() public view virtual returns (address) {... */\ntag_39:\n    /* \"node_modules/openzeppelin-solidity/contracts/access/Ownable.sol\":1082:1089  address */\n  0x00\n    /* \"node_modules/openzeppelin-solidity/contracts/access/Ownable.sol\":1108:1114  _owner */\n  0x05\n  0x00\n  swap1\n  sload\n  swap1\n  0x0100\n  exp\n  swap1\n  div\n  0xffffffffffffffffffffffffffffffffffffffff\n  and\n    /* \"node_modules/openzeppelin-solidity/contracts/access/Ownable.sol\":1101:1114  return _owner */\n  swap1\n  pop\n    /* \"node_modules/openzeppelin-solidity/contracts/access/Ownable.sol\":1036:1121  function owner() public view virtual returns (address) {... */\n  swap1\n  jump\t// out\n    /* \"node_modules/openzeppelin-solidity/contracts/token/ERC20/ERC20.sol\":8304:8407  function mint(address account, uint256 amount) public virtual {... */\ntag_40:\n    /* \"node_modules/openzeppelin-solidity/contracts/token/ERC20/ERC20.sol\":8376:8400  _mint( account,  amount) */\n  tag_47\n    /* \"node_modules/openzeppelin-solidity/contracts/token/ERC20/ERC20.sol\":8383:8390  account */\n  dup3\n    /* \"node_modules/openzeppelin-solidity/contracts/token/ERC20/ERC20.sol\":8393:8399  amount */\n  dup3\n    /* \"node_modules/openzeppelin-solidity/contracts/token/ERC20/ERC20.sol\":8376:8381  _mint */\n  shl(0x20, tag_48)\n    /* \"node_modules/openzeppelin-solidity/contracts/token/ERC20/ERC20.sol\":8376:8400  _mint( account,  amount) */\n  0x20\n  shr\n  jump\t// in\ntag_47:\n    /* \"node_modules/openzeppelin-solidity/contracts/token/ERC20/ERC20.sol\":8304:8407  function mint(address account, uint256 amount) public virtual {... */\n  pop\n  pop\n  jump\t// out\n    /* \"node_modules/openzeppelin-solidity/contracts/token/ERC20/ERC20.sol\":8683:9072  function _mint(address account, uint256 amount) internal virtual {... */\ntag_48:\n    /* \"node_modules/openzeppelin-solidity/contracts/token/ERC20/ERC20.sol\":8785:8786  0 */\n  0x00\n    /* \"node_modules/openzeppelin-solidity/contracts/token/ERC20/ERC20.sol\":8766:8787  account != address(0) */\n  0xffffffffffffffffffffffffffffffffffffffff\n  and\n    /* \"node_modules/openzeppelin-solidity/contracts/token/ERC20/ERC20.sol\":8766:8773  account */\n  dup3\n    /* \"node_modules/openzeppelin-solidity/contracts/token/ERC20/ERC20.sol\":8766:8787  account != address(0) */\n  0xffffffffffffffffffffffffffffffffffffffff\n  and\n  sub\n    /* \"node_modules/openzeppelin-solidity/contracts/token/ERC20/ERC20.sol\":8758:8823  require(account != address(0), \"ERC20: mint to the zero address\") */\n  tag_50\n  jumpi\n  mload(0x40)\n  0x08c379a000000000000000000000000000000000000000000000000000000000\n  dup2\n  mstore\n  0x04\n  add\n  tag_51\n  swap1\n  tag_52\n  jump\t// in\ntag_51:\n  mload(0x40)\n  dup1\n  swap2\n  sub\n  swap1\n  revert\ntag_50:\n    /* \"node_modules/openzeppelin-solidity/contracts/token/ERC20/ERC20.sol\":8834:8883  _beforeTokenTransfer(address(0), account, amount) */\n  tag_53\n    /* \"node_modules/openzeppelin-solidity/contracts/token/ERC20/ERC20.sol\":8863:8864  0 */\n  0x00\n    /* \"node_modules/openzeppelin-solidity/contracts/token/ERC20/ERC20.sol\":8867:8874  account */\n  dup4\n    /* \"node_modules/openzeppelin-solidity/contracts/token/ERC20/ERC20.sol\":8876:8882  amount */\n  dup4\n    /* \"node_modules/openzeppelin-solidity/contracts/token/ERC20/ERC20.sol\":8834:8854  _beforeTokenTransfer */\n  shl(0x20, tag_54)\n    /* \"node_modules/openzeppelin-solidity/contracts/token/ERC20/ERC20.sol\":8834:8883  _beforeTokenTransfer(address(0), account, amount) */\n  0x20\n  shr\n  jump\t// in\ntag_53:\n    /* \"node_modules/openzeppelin-solidity/contracts/token/ERC20/ERC20.sol\":8910:8916  amount */\n  dup1\n    /* \"node_modules/openzeppelin-solidity/contracts/token/ERC20/ERC20.sol\":8894:8906  _totalSupply */\n  0x02\n  0x00\n    /* \"node_modules/openzeppelin-solidity/contracts/token/ERC20/ERC20.sol\":8894:8916  _totalSupply += amount */\n  dup3\n  dup3\n  sload\n  tag_55\n  swap2\n  swap1\n  tag_56\n  jump\t// in\ntag_55:\n  swap3\n  pop\n  pop\n  dup2\n  swap1\n  sstore\n  pop\n    /* \"node_modules/openzeppelin-solidity/contracts/token/ERC20/ERC20.sol\":8948:8954  amount */\n  dup1\n    /* \"node_modules/openzeppelin-solidity/contracts/token/ERC20/ERC20.sol\":8926:8935  _balances */\n  0x00\n    /* \"node_modules/openzeppelin-solidity/contracts/token/ERC20/ERC20.sol\":8926:8944  _balances[account] */\n  dup1\n    /* \"node_modules/openzeppelin-solidity/contracts/token/ERC20/ERC20.sol\":8936:8943  account */\n  dup5\n    /* \"node_modules/openzeppelin-solidity/contracts/token/ERC20/ERC20.sol\":8926:8944  _balances[account] */\n  0xffffffffffffffffffffffffffffffffffffffff\n  and\n  0xffffffffffffffffffffffffffffffffffffffff\n  and\n  dup2\n  mstore\n  0x20\n  add\n  swap1\n  dup2\n  mstore\n  0x20\n  add\n  0x00\n  keccak256\n  0x00\n    /* \"node_modules/openzeppelin-solidity/contracts/token/ERC20/ERC20.sol\":8926:8954  _balances[account] += amount */\n  dup3\n  dup3\n  sload\n  tag_57\n  swap2\n  swap1\n  tag_56\n  jump\t// in\ntag_57:\n  swap3\n  pop\n  pop\n  dup2\n  swap1\n  sstore\n  pop\n    /* \"node_modules/openzeppelin-solidity/contracts/token/ERC20/ERC20.sol\":8990:8997  account */\n  dup2\n    /* \"node_modules/openzeppelin-solidity/contracts/token/ERC20/ERC20.sol\":8969:9006  Transfer(address(0), account, amount) */\n  0xffffffffffffffffffffffffffffffffffffffff\n  and\n    /* \"node_modules/openzeppelin-solidity/contracts/token/ERC20/ERC20.sol\":8986:8987  0 */\n  0x00\n    /* \"node_modules/openzeppelin-solidity/contracts/token/ERC20/ERC20.sol\":8969:9006  Transfer(address(0), account, amount) */\n  0xffffffffffffffffffffffffffffffffffffffff\n  and\n  0xddf252ad1be2c89b69c2b068fc378daa952ba7f163c4a11628f55a4df523b3ef\n    /* \"node_modules/openzeppelin-solidity/contracts/token/ERC20/ERC20.sol\":8999:9005  amount */\n  dup4\n    /* \"node_modules/openzeppelin-solidity/contracts/token/ERC20/ERC20.sol\":8969:9006  Transfer(address(0), account, amount) */\n  mload(0x40)\n  tag_58\n  swap2\n  swap1\n  tag_59\n  jump\t// in\ntag_58:\n  mload(0x40)\n  dup1\n  swap2\n  sub\n  swap1\n  log3\n    /* \"node_modules/openzeppelin-solidity/contracts/token/ERC20/ERC20.sol\":9017:9065  _afterTokenTransfer(address(0), account, amount) */\n  tag_60\n    /* \"node_modules/openzeppelin-solidity/contracts/token/ERC20/ERC20.sol\":9045:9046  0 */\n  0x00\n    /* \"node_modules/openzeppelin-solidity/contracts/token/ERC20/ERC20.sol\":9049:9056  account */\n  dup4\n    /* \"node_modules/openzeppelin-solidity/contracts/token/ERC20/ERC20.sol\":9058:9064  amount */\n  dup4\n    /* \"node_modules/openzeppelin-solidity/contracts/token/ERC20/ERC20.sol\":9017:9036  _afterTokenTransfer */\n  shl(0x20, tag_61)\n    /* \"node_modules/openzeppelin-solidity/contracts/token/ERC20/ERC20.sol\":9017:9065  _afterTokenTransfer(address(0), account, amount) */\n  0x20\n  shr\n  jump\t// in\ntag_60:\n    /* \"node_modules/openzeppelin-solidity/contracts/token/ERC20/ERC20.sol\":8683:9072  function _mint(address account, uint256 amount) internal virtual {... */\n  pop\n  pop\n  jump\t// out\n    /* \"node_modules/openzeppelin-solidity/contracts/token/ERC20/ERC20.sol\":12067:12188  function _beforeTokenTransfer(... */\ntag_54:\n  pop\n  pop\n  pop\n  jump\t// out\n    /* \"node_modules/openzeppelin-solidity/contracts/token/ERC20/ERC20.sol\":12776:12896  function _afterTokenTransfer(... */\ntag_61:\n  pop\n  pop\n  pop\n  jump\t// out\n    /* \"#utility.yul\":7:106   */\ntag_64:\n    /* \"#utility.yul\":59:65   */\n  0x00\n    /* \"#utility.yul\":93:98   */\n  dup2\n    /* \"#utility.yul\":87:99   */\n  mload\n    /* \"#utility.yul\":77:99   */\n  swap1\n  pop\n    /* \"#utility.yul\":7:106   */\n  swap2\n  swap1\n  pop\n  jump\t// out\n    /* \"#utility.yul\":112:292   */\ntag_65:\n    /* \"#utility.yul\":160:237   */\n  0x4e487b7100000000000000000000000000000000000000000000000000000000\n    /* \"#utility.yul\":157:158   */\n  0x00\n    /* \"#utility.yul\":150:238   */\n  mstore\n    /* \"#utility.yul\":257:261   */\n  0x41\n    /* \"#utility.yul\":254:255   */\n  0x04\n    /* \"#utility.yul\":247:262   */\n  mstore\n    /* \"#utility.yul\":281:285   */\n  0x24\n    /* \"#utility.yul\":278:279   */\n  0x00\n    /* \"#utility.yul\":271:286   */\n  revert\n    /* \"#utility.yul\":298:478   */\ntag_66:\n    /* \"#utility.yul\":346:423   */\n  0x4e487b7100000000000000000000000000000000000000000000000000000000\n    /* \"#utility.yul\":343:344   */\n  0x00\n    /* \"#utility.yul\":336:424   */\n  mstore\n    /* \"#utility.yul\":443:447   */\n  0x22\n    /* \"#utility.yul\":440:441   */\n  0x04\n    /* \"#utility.yul\":433:448   */\n  mstore\n    /* \"#utility.yul\":467:471   */\n  0x24\n    /* \"#utility.yul\":464:465   */\n  0x00\n    /* \"#utility.yul\":457:472   */\n  revert\n    /* \"#utility.yul\":484:804   */\ntag_14:\n    /* \"#utility.yul\":528:534   */\n  0x00\n    /* \"#utility.yul\":565:566   */\n  0x02\n    /* \"#utility.yul\":559:563   */\n  dup3\n    /* \"#utility.yul\":555:567   */\n  div\n    /* \"#utility.yul\":545:567   */\n  swap1\n  pop\n    /* \"#utility.yul\":612:613   */\n  0x01\n    /* \"#utility.yul\":606:610   */\n  dup3\n    /* \"#utility.yul\":602:614   */\n  and\n    /* \"#utility.yul\":633:651   */\n  dup1\n    /* \"#utility.yul\":623:704   */\n  tag_99\n  jumpi\n    /* \"#utility.yul\":689:693   */\n  0x7f\n    /* \"#utility.yul\":681:687   */\n  dup3\n    /* \"#utility.yul\":677:694   */\n  and\n    /* \"#utility.yul\":667:694   */\n  swap2\n  pop\n    /* \"#utility.yul\":623:704   */\ntag_99:\n    /* \"#utility.yul\":751:753   */\n  0x20\n    /* \"#utility.yul\":743:749   */\n  dup3\n    /* \"#utility.yul\":740:754   */\n  lt\n    /* \"#utility.yul\":720:738   */\n  dup2\n    /* \"#utility.yul\":717:755   */\n  sub\n    /* \"#utility.yul\":714:798   */\n  tag_100\n  jumpi\n    /* \"#utility.yul\":770:788   */\n  tag_101\n  tag_66\n  jump\t// in\ntag_101:\n    /* \"#utility.yul\":714:798   */\ntag_100:\n    /* \"#utility.yul\":535:804   */\n  pop\n    /* \"#utility.yul\":484:804   */\n  swap2\n  swap1\n  pop\n  jump\t// out\n    /* \"#utility.yul\":810:951   */\ntag_67:\n    /* \"#utility.yul\":859:863   */\n  0x00\n    /* \"#utility.yul\":882:885   */\n  dup2\n    /* \"#utility.yul\":874:885   */\n  swap1\n  pop\n    /* \"#utility.yul\":905:908   */\n  dup2\n    /* \"#utility.yul\":902:903   */\n  0x00\n    /* \"#utility.yul\":895:909   */\n  mstore\n    /* \"#utility.yul\":939:943   */\n  0x20\n    /* \"#utility.yul\":936:937   */\n  0x00\n    /* \"#utility.yul\":926:944   */\n  keccak256\n    /* \"#utility.yul\":918:944   */\n  swap1\n  pop\n    /* \"#utility.yul\":810:951   */\n  swap2\n  swap1\n  pop\n  jump\t// out\n    /* \"#utility.yul\":957:1050   */\ntag_68:\n    /* \"#utility.yul\":994:1000   */\n  0x00\n    /* \"#utility.yul\":1041:1043   */\n  0x20\n    /* \"#utility.yul\":1036:1038   */\n  0x1f\n    /* \"#utility.yul\":1029:1034   */\n  dup4\n    /* \"#utility.yul\":1025:1039   */\n  add\n    /* \"#utility.yul\":1021:1044   */\n  div\n    /* \"#utility.yul\":1011:1044   */\n  swap1\n  pop\n    /* \"#utility.yul\":957:1050   */\n  swap2\n  swap1\n  pop\n  jump\t// out\n    /* \"#utility.yul\":1056:1163   */\ntag_69:\n    /* \"#utility.yul\":1100:1108   */\n  0x00\n    /* \"#utility.yul\":1150:1155   */\n  dup3\n    /* \"#utility.yul\":1144:1148   */\n  dup3\n    /* \"#utility.yul\":1140:1156   */\n  shl\n    /* \"#utility.yul\":1119:1156   */\n  swap1\n  pop\n    /* \"#utility.yul\":1056:1163   */\n  swap3\n  swap2\n  pop\n  pop\n  jump\t// out\n    /* \"#utility.yul\":1169:1562   */\ntag_70:\n    /* \"#utility.yul\":1238:1244   */\n  0x00\n    /* \"#utility.yul\":1288:1289   */\n  0x08\n    /* \"#utility.yul\":1276:1286   */\n  dup4\n    /* \"#utility.yul\":1272:1290   */\n  mul\n    /* \"#utility.yul\":1311:1408   */\n  tag_106\n    /* \"#utility.yul\":1341:1407   */\n  0xffffffffffffffffffffffffffffffffffffffffffffffffffffffffffffffff\n    /* \"#utility.yul\":1330:1339   */\n  dup3\n    /* \"#utility.yul\":1311:1408   */\n  tag_69\n  jump\t// in\ntag_106:\n    /* \"#utility.yul\":1429:1468   */\n  tag_107\n    /* \"#utility.yul\":1459:1467   */\n  dup7\n    /* \"#utility.yul\":1448:1457   */\n  dup4\n    /* \"#utility.yul\":1429:1468   */\n  tag_69\n  jump\t// in\ntag_107:\n    /* \"#utility.yul\":1417:1468   */\n  swap6\n  pop\n    /* \"#utility.yul\":1501:1505   */\n  dup1\n    /* \"#utility.yul\":1497:1506   */\n  not\n    /* \"#utility.yul\":1490:1495   */\n  dup5\n    /* \"#utility.yul\":1486:1507   */\n  and\n    /* \"#utility.yul\":1477:1507   */\n  swap4\n  pop\n    /* \"#utility.yul\":1550:1554   */\n  dup1\n    /* \"#utility.yul\":1540:1548   */\n  dup7\n    /* \"#utility.yul\":1536:1555   */\n  and\n    /* \"#utility.yul\":1529:1534   */\n  dup5\n    /* \"#utility.yul\":1526:1556   */\n  or\n    /* \"#utility.yul\":1516:1556   */\n  swap3\n  pop\n    /* \"#utility.yul\":1245:1562   */\n  pop\n  pop\n    /* \"#utility.yul\":1169:1562   */\n  swap4\n  swap3\n  pop\n  pop\n  pop\n  jump\t// out\n    /* \"#utility.yul\":1568:1645   */\ntag_71:\n    /* \"#utility.yul\":1605:1612   */\n  0x00\n    /* \"#utility.yul\":1634:1639   */\n  dup2\n    /* \"#utility.yul\":1623:1639   */\n  swap1\n  pop\n    /* \"#utility.yul\":1568:1645   */\n  swap2\n  swap1\n  pop\n  jump\t// out\n    /* \"#utility.yul\":1651:1711   */\ntag_72:\n    /* \"#utility.yul\":1679:1682   */\n  0x00\n    /* \"#utility.yul\":1700:1705   */\n  dup2\n    /* \"#utility.yul\":1693:1705   */\n  swap1\n  pop\n    /* \"#utility.yul\":1651:1711   */\n  swap2\n  swap1\n  pop\n  jump\t// out\n    /* \"#utility.yul\":1717:1859   */\ntag_73:\n    /* \"#utility.yul\":1767:1776   */\n  0x00\n    /* \"#utility.yul\":1800:1853   */\n  tag_111\n    /* \"#utility.yul\":1818:1852   */\n  tag_112\n    /* \"#utility.yul\":1827:1851   */\n  tag_113\n    /* \"#utility.yul\":1845:1850   */\n  dup5\n    /* \"#utility.yul\":1827:1851   */\n  tag_71\n  jump\t// in\ntag_113:\n    /* \"#utility.yul\":1818:1852   */\n  tag_72\n  jump\t// in\ntag_112:\n    /* \"#utility.yul\":1800:1853   */\n  tag_71\n  jump\t// in\ntag_111:\n    /* \"#utility.yul\":1787:1853   */\n  swap1\n  pop\n    /* \"#utility.yul\":1717:1859   */\n  swap2\n  swap1\n  pop\n  jump\t// out\n    /* \"#utility.yul\":1865:1940   */\ntag_74:\n    /* \"#utility.yul\":1908:1911   */\n  0x00\n    /* \"#utility.yul\":1929:1934   */\n  dup2\n    /* \"#utility.yul\":1922:1934   */\n  swap1\n  pop\n    /* \"#utility.yul\":1865:1940   */\n  swap2\n  swap1\n  pop\n  jump\t// out\n    /* \"#utility.yul\":1946:2215   */\ntag_75:\n    /* \"#utility.yul\":2056:2095   */\n  tag_116\n    /* \"#utility.yul\":2087:2094   */\n  dup4\n    /* \"#utility.yul\":2056:2095   */\n  tag_73\n  jump\t// in\ntag_116:\n    /* \"#utility.yul\":2117:2208   */\n  tag_117\n    /* \"#utility.yul\":2166:2207   */\n  tag_118\n    /* \"#utility.yul\":2190:2206   */\n  dup3\n    /* \"#utility.yul\":2166:2207   */\n  tag_74\n  jump\t// in\ntag_118:\n    /* \"#utility.yul\":2158:2164   */\n  dup5\n    /* \"#utility.yul\":2151:2155   */\n  dup5\n    /* \"#utility.yul\":2145:2156   */\n  sload\n    /* \"#utility.yul\":2117:2208   */\n  tag_70\n  jump\t// in\ntag_117:\n    /* \"#utility.yul\":2111:2115   */\n  dup3\n    /* \"#utility.yul\":2104:2209   */\n  sstore\n    /* \"#utility.yul\":2022:2215   */\n  pop\n    /* \"#utility.yul\":1946:2215   */\n  pop\n  pop\n  pop\n  jump\t// out\n    /* \"#utility.yul\":2221:2294   */\ntag_76:\n    /* \"#utility.yul\":2266:2269   */\n  0x00\n    /* \"#utility.yul\":2221:2294   */\n  swap1\n  jump\t// out\n    /* \"#utility.yul\":2300:2489   */\ntag_77:\n    /* \"#utility.yul\":2377:2409   */\n  tag_121\n  tag_76\n  jump\t// in\ntag_121:\n    /* \"#utility.yul\":2418:2483   */\n  tag_122\n    /* \"#utility.yul\":2476:2482   */\n  dup2\n    /* \"#utility.yul\":2468:2474   */\n  dup5\n    /* \"#utility.yul\":2462:2466   */\n  dup5\n    /* \"#utility.yul\":2418:2483   */\n  tag_75\n  jump\t// in\ntag_122:\n    /* \"#utility.yul\":2353:2489   */\n  pop\n    /* \"#utility.yul\":2300:2489   */\n  pop\n  pop\n  jump\t// out\n    /* \"#utility.yul\":2495:2681   */\ntag_78:\n    /* \"#utility.yul\":2555:2675   */\ntag_124:\n    /* \"#utility.yul\":2572:2575   */\n  dup2\n    /* \"#utility.yul\":2565:2570   */\n  dup2\n    /* \"#utility.yul\":2562:2576   */\n  lt\n    /* \"#utility.yul\":2555:2675   */\n  iszero\n  tag_126\n  jumpi\n    /* \"#utility.yul\":2626:2665   */\n  tag_127\n    /* \"#utility.yul\":2663:2664   */\n  0x00\n    /* \"#utility.yul\":2656:2661   */\n  dup3\n    /* \"#utility.yul\":2626:2665   */\n  tag_77\n  jump\t// in\ntag_127:\n    /* \"#utility.yul\":2599:2600   */\n  0x01\n    /* \"#utility.yul\":2592:2597   */\n  dup2\n    /* \"#utility.yul\":2588:2601   */\n  add\n    /* \"#utility.yul\":2579:2601   */\n  swap1\n  pop\n    /* \"#utility.yul\":2555:2675   */\n  jump(tag_124)\ntag_126:\n    /* \"#utility.yul\":2495:2681   */\n  pop\n  pop\n  jump\t// out\n    /* \"#utility.yul\":2687:3230   */\ntag_79:\n    /* \"#utility.yul\":2788:2790   */\n  0x1f\n    /* \"#utility.yul\":2783:2786   */\n  dup3\n    /* \"#utility.yul\":2780:2791   */\n  gt\n    /* \"#utility.yul\":2777:3223   */\n  iszero\n  tag_129\n  jumpi\n    /* \"#utility.yul\":2822:2860   */\n  tag_130\n    /* \"#utility.yul\":2854:2859   */\n  dup2\n    /* \"#utility.yul\":2822:2860   */\n  tag_67\n  jump\t// in\ntag_130:\n    /* \"#utility.yul\":2906:2935   */\n  tag_131\n    /* \"#utility.yul\":2924:2934   */\n  dup5\n    /* \"#utility.yul\":2906:2935   */\n  tag_68\n  jump\t// in\ntag_131:\n    /* \"#utility.yul\":2896:2904   */\n  dup2\n    /* \"#utility.yul\":2892:2936   */\n  add\n    /* \"#utility.yul\":3089:3091   */\n  0x20\n    /* \"#utility.yul\":3077:3087   */\n  dup6\n    /* \"#utility.yul\":3074:3092   */\n  lt\n    /* \"#utility.yul\":3071:3120   */\n  iszero\n  tag_132\n  jumpi\n    /* \"#utility.yul\":3110:3118   */\n  dup2\n    /* \"#utility.yul\":3095:3118   */\n  swap1\n  pop\n    /* \"#utility.yul\":3071:3120   */\ntag_132:\n    /* \"#utility.yul\":3133:3213   */\n  tag_133\n    /* \"#utility.yul\":3189:3211   */\n  tag_134\n    /* \"#utility.yul\":3207:3210   */\n  dup6\n    /* \"#utility.yul\":3189:3211   */\n  tag_68\n  jump\t// in\ntag_134:\n    /* \"#utility.yul\":3179:3187   */\n  dup4\n    /* \"#utility.yul\":3175:3212   */\n  add\n    /* \"#utility.yul\":3162:3173   */\n  dup3\n    /* \"#utility.yul\":3133:3213   */\n  tag_78\n  jump\t// in\ntag_133:\n    /* \"#utility.yul\":2792:3223   */\n  pop\n  pop\n    /* \"#utility.yul\":2777:3223   */\ntag_129:\n    /* \"#utility.yul\":2687:3230   */\n  pop\n  pop\n  pop\n  jump\t// out\n    /* \"#utility.yul\":3236:3353   */\ntag_80:\n    /* \"#utility.yul\":3290:3298   */\n  0x00\n    /* \"#utility.yul\":3340:3345   */\n  dup3\n    /* \"#utility.yul\":3334:3338   */\n  dup3\n    /* \"#utility.yul\":3330:3346   */\n  shr\n    /* \"#utility.yul\":3309:3346   */\n  swap1\n  pop\n    /* \"#utility.yul\":3236:3353   */\n  swap3\n  swap2\n  pop\n  pop\n  jump\t// out\n    /* \"#utility.yul\":3359:3528   */\ntag_81:\n    /* \"#utility.yul\":3403:3409   */\n  0x00\n    /* \"#utility.yul\":3436:3487   */\n  tag_137\n    /* \"#utility.yul\":3484:3485   */\n  0x00\n    /* \"#utility.yul\":3480:3486   */\n  not\n    /* \"#utility.yul\":3472:3477   */\n  dup5\n    /* \"#utility.yul\":3469:3470   */\n  0x08\n    /* \"#utility.yul\":3465:3478   */\n  mul\n    /* \"#utility.yul\":3436:3487   */\n  tag_80\n  jump\t// in\ntag_137:\n    /* \"#utility.yul\":3432:3488   */\n  not\n    /* \"#utility.yul\":3517:3521   */\n  dup1\n    /* \"#utility.yul\":3511:3515   */\n  dup4\n    /* \"#utility.yul\":3507:3522   */\n  and\n    /* \"#utility.yul\":3497:3522   */\n  swap2\n  pop\n    /* \"#utility.yul\":3410:3528   */\n  pop\n    /* \"#utility.yul\":3359:3528   */\n  swap3\n  swap2\n  pop\n  pop\n  jump\t// out\n    /* \"#utility.yul\":3533:3828   */\ntag_82:\n    /* \"#utility.yul\":3609:3613   */\n  0x00\n    /* \"#utility.yul\":3755:3784   */\n  tag_139\n    /* \"#utility.yul\":3780:3783   */\n  dup4\n    /* \"#utility.yul\":3774:3778   */\n  dup4\n    /* \"#utility.yul\":3755:3784   */\n  tag_81\n  jump\t// in\ntag_139:\n    /* \"#utility.yul\":3747:3784   */\n  swap2\n  pop\n    /* \"#utility.yul\":3817:3820   */\n  dup3\n    /* \"#utility.yul\":3814:3815   */\n  0x02\n    /* \"#utility.yul\":3810:3821   */\n  mul\n    /* \"#utility.yul\":3804:3808   */\n  dup3\n    /* \"#utility.yul\":3801:3822   */\n  or\n    /* \"#utility.yul\":3793:3822   */\n  swap1\n  pop\n    /* \"#utility.yul\":3533:3828   */\n  swap3\n  swap2\n  pop\n  pop\n  jump\t// out\n    /* \"#utility.yul\":3833:5228   */\ntag_2:\n    /* \"#utility.yul\":3950:3987   */\n  tag_141\n    /* \"#utility.yul\":3983:3986   */\n  dup3\n    /* \"#utility.yul\":3950:3987   */\n  tag_64\n  jump\t// in\ntag_141:\n    /* \"#utility.yul\":4052:4070   */\n  0xffffffffffffffff\n    /* \"#utility.yul\":4044:4050   */\n  dup2\n    /* \"#utility.yul\":4041:4071   */\n  gt\n    /* \"#utility.yul\":4038:4094   */\n  iszero\n  tag_142\n  jumpi\n    /* \"#utility.yul\":4074:4092   */\n  tag_143\n  tag_65\n  jump\t// in\ntag_143:\n    /* \"#utility.yul\":4038:4094   */\ntag_142:\n    /* \"#utility.yul\":4118:4156   */\n  tag_144\n    /* \"#utility.yul\":4150:4154   */\n  dup3\n    /* \"#utility.yul\":4144:4155   */\n  sload\n    /* \"#utility.yul\":4118:4156   */\n  tag_14\n  jump\t// in\ntag_144:\n    /* \"#utility.yul\":4203:4270   */\n  tag_145\n    /* \"#utility.yul\":4263:4269   */\n  dup3\n    /* \"#utility.yul\":4255:4261   */\n  dup3\n    /* \"#utility.yul\":4249:4253   */\n  dup6\n    /* \"#utility.yul\":4203:4270   */\n  tag_79\n  jump\t// in\ntag_145:\n    /* \"#utility.yul\":4297:4298   */\n  0x00\n    /* \"#utility.yul\":4321:4325   */\n  0x20\n    /* \"#utility.yul\":4308:4325   */\n  swap1\n  pop\n    /* \"#utility.yul\":4353:4355   */\n  0x1f\n    /* \"#utility.yul\":4345:4351   */\n  dup4\n    /* \"#utility.yul\":4342:4356   */\n  gt\n    /* \"#utility.yul\":4370:4371   */\n  0x01\n    /* \"#utility.yul\":4365:4983   */\n  dup2\n  eq\n  tag_147\n  jumpi\n    /* \"#utility.yul\":5027:5028   */\n  0x00\n    /* \"#utility.yul\":5044:5050   */\n  dup5\n    /* \"#utility.yul\":5041:5118   */\n  iszero\n  tag_148\n  jumpi\n    /* \"#utility.yul\":5093:5102   */\n  dup3\n    /* \"#utility.yul\":5088:5091   */\n  dup8\n    /* \"#utility.yul\":5084:5103   */\n  add\n    /* \"#utility.yul\":5078:5104   */\n  mload\n    /* \"#utility.yul\":5069:5104   */\n  swap1\n  pop\n    /* \"#utility.yul\":5041:5118   */\ntag_148:\n    /* \"#utility.yul\":5144:5211   */\n  tag_149\n    /* \"#utility.yul\":5204:5210   */\n  dup6\n    /* \"#utility.yul\":5197:5202   */\n  dup3\n    /* \"#utility.yul\":5144:5211   */\n  tag_82\n  jump\t// in\ntag_149:\n    /* \"#utility.yul\":5138:5142   */\n  dup7\n    /* \"#utility.yul\":5131:5212   */\n  sstore\n    /* \"#utility.yul\":5000:5222   */\n  pop\n    /* \"#utility.yul\":4335:5222   */\n  jump(tag_146)\n    /* \"#utility.yul\":4365:4983   */\ntag_147:\n    /* \"#utility.yul\":4417:4421   */\n  0x1f\n    /* \"#utility.yul\":4413:4422   */\n  not\n    /* \"#utility.yul\":4405:4411   */\n  dup5\n    /* \"#utility.yul\":4401:4423   */\n  and\n    /* \"#utility.yul\":4451:4488   */\n  tag_150\n    /* \"#utility.yul\":4483:4487   */\n  dup7\n    /* \"#utility.yul\":4451:4488   */\n  tag_67\n  jump\t// in\ntag_150:\n    /* \"#utility.yul\":4510:4511   */\n  0x00\n    /* \"#utility.yul\":4524:4732   */\ntag_151:\n    /* \"#utility.yul\":4538:4545   */\n  dup3\n    /* \"#utility.yul\":4535:4536   */\n  dup2\n    /* \"#utility.yul\":4532:4546   */\n  lt\n    /* \"#utility.yul\":4524:4732   */\n  iszero\n  tag_153\n  jumpi\n    /* \"#utility.yul\":4617:4626   */\n  dup5\n    /* \"#utility.yul\":4612:4615   */\n  dup10\n    /* \"#utility.yul\":4608:4627   */\n  add\n    /* \"#utility.yul\":4602:4628   */\n  mload\n    /* \"#utility.yul\":4594:4600   */\n  dup3\n    /* \"#utility.yul\":4587:4629   */\n  sstore\n    /* \"#utility.yul\":4668:4669   */\n  0x01\n    /* \"#utility.yul\":4660:4666   */\n  dup3\n    /* \"#utility.yul\":4656:4670   */\n  add\n    /* \"#utility.yul\":4646:4670   */\n  swap2\n  pop\n    /* \"#utility.yul\":4715:4717   */\n  0x20\n    /* \"#utility.yul\":4704:4713   */\n  dup6\n    /* \"#utility.yul\":4700:4718   */\n  add\n    /* \"#utility.yul\":4687:4718   */\n  swap5\n  pop\n    /* \"#utility.yul\":4561:4565   */\n  0x20\n    /* \"#utility.yul\":4558:4559   */\n  dup2\n    /* \"#utility.yul\":4554:4566   */\n  add\n    /* \"#utility.yul\":4549:4566   */\n  swap1\n  pop\n    /* \"#utility.yul\":4524:4732   */\n  jump(tag_151)\ntag_153:\n    /* \"#utility.yul\":4760:4766   */\n  dup7\n    /* \"#utility.yul\":4751:4758   */\n  dup4\n    /* \"#utility.yul\":4748:4767   */\n  lt\n    /* \"#utility.yul\":4745:4924   */\n  iszero\n  tag_154\n  jumpi\n    /* \"#utility.yul\":4818:4827   */\n  dup5\n    /* \"#utility.yul\":4813:4816   */\n  dup10\n    /* \"#utility.yul\":4809:4828   */\n  add\n    /* \"#utility.yul\":4803:4829   */\n  mload\n    /* \"#utility.yul\":4861:4909   */\n  tag_155\n    /* \"#utility.yul\":4903:4907   */\n  0x1f\n    /* \"#utility.yul\":4895:4901   */\n  dup10\n    /* \"#utility.yul\":4891:4908   */\n  and\n    /* \"#utility.yul\":4880:4889   */\n  dup3\n    /* \"#utility.yul\":4861:4909   */\n  tag_81\n  jump\t// in\ntag_155:\n    /* \"#utility.yul\":4853:4859   */\n  dup4\n    /* \"#utility.yul\":4846:4910   */\n  sstore\n    /* \"#utility.yul\":4768:4924   */\n  pop\n    /* \"#utility.yul\":4745:4924   */\ntag_154:\n    /* \"#utility.yul\":4970:4971   */\n  0x01\n    /* \"#utility.yul\":4966:4967   */\n  0x02\n    /* \"#utility.yul\":4958:4964   */\n  dup9\n    /* \"#utility.yul\":4954:4968   */\n  mul\n    /* \"#utility.yul\":4950:4972   */\n  add\n    /* \"#utility.yul\":4944:4948   */\n  dup9\n    /* \"#utility.yul\":4937:4973   */\n  sstore\n    /* \"#utility.yul\":4372:4983   */\n  pop\n  pop\n  pop\n    /* \"#utility.yul\":4335:5222   */\ntag_146:\n  pop\n    /* \"#utility.yul\":3925:5228   */\n  pop\n  pop\n  pop\n    /* \"#utility.yul\":3833:5228   */\n  pop\n  pop\n  jump\t// out\n    /* \"#utility.yul\":5234:5414   */\ntag_83:\n    /* \"#utility.yul\":5282:5359   */\n  0x4e487b7100000000000000000000000000000000000000000000000000000000\n    /* \"#utility.yul\":5279:5280   */\n  0x00\n    /* \"#utility.yul\":5272:5360   */\n  mstore\n    /* \"#utility.yul\":5379:5383   */\n  0x11\n    /* \"#utility.yul\":5376:5377   */\n  0x04\n    /* \"#utility.yul\":5369:5384   */\n  mstore\n    /* \"#utility.yul\":5403:5407   */\n  0x24\n    /* \"#utility.yul\":5400:5401   */\n  0x00\n    /* \"#utility.yul\":5393:5408   */\n  revert\n    /* \"#utility.yul\":5420:5522   */\ntag_84:\n    /* \"#utility.yul\":5462:5470   */\n  0x00\n    /* \"#utility.yul\":5509:5514   */\n  dup2\n    /* \"#utility.yul\":5506:5507   */\n  0x01\n    /* \"#utility.yul\":5502:5515   */\n  shr\n    /* \"#utility.yul\":5481:5515   */\n  swap1\n  pop\n    /* \"#utility.yul\":5420:5522   */\n  swap2\n  swap1\n  pop\n  jump\t// out\n    /* \"#utility.yul\":5528:6376   */\ntag_85:\n    /* \"#utility.yul\":5589:5594   */\n  0x00\n    /* \"#utility.yul\":5596:5600   */\n  dup1\n    /* \"#utility.yul\":5620:5626   */\n  dup3\n    /* \"#utility.yul\":5611:5626   */\n  swap2\n  pop\n    /* \"#utility.yul\":5644:5649   */\n  dup4\n    /* \"#utility.yul\":5635:5649   */\n  swap1\n  pop\n    /* \"#utility.yul\":5658:6370   */\ntag_159:\n    /* \"#utility.yul\":5679:5680   */\n  0x01\n    /* \"#utility.yul\":5669:5677   */\n  dup6\n    /* \"#utility.yul\":5666:5681   */\n  gt\n    /* \"#utility.yul\":5658:6370   */\n  iszero\n  tag_161\n  jumpi\n    /* \"#utility.yul\":5774:5778   */\n  dup1\n    /* \"#utility.yul\":5769:5772   */\n  dup7\n    /* \"#utility.yul\":5765:5779   */\n  div\n    /* \"#utility.yul\":5759:5763   */\n  dup2\n    /* \"#utility.yul\":5756:5780   */\n  gt\n    /* \"#utility.yul\":5753:5803   */\n  iszero\n  tag_162\n  jumpi\n    /* \"#utility.yul\":5783:5801   */\n  tag_163\n  tag_83\n  jump\t// in\ntag_163:\n    /* \"#utility.yul\":5753:5803   */\ntag_162:\n    /* \"#utility.yul\":5833:5834   */\n  0x01\n    /* \"#utility.yul\":5823:5831   */\n  dup6\n    /* \"#utility.yul\":5819:5835   */\n  and\n    /* \"#utility.yul\":5816:6267   */\n  iszero\n  tag_164\n  jumpi\n    /* \"#utility.yul\":6248:6252   */\n  dup1\n    /* \"#utility.yul\":6241:6246   */\n  dup3\n    /* \"#utility.yul\":6237:6253   */\n  mul\n    /* \"#utility.yul\":6228:6253   */\n  swap2\n  pop\n    /* \"#utility.yul\":5816:6267   */\ntag_164:\n    /* \"#utility.yul\":6298:6302   */\n  dup1\n    /* \"#utility.yul\":6292:6296   */\n  dup2\n    /* \"#utility.yul\":6288:6303   */\n  mul\n    /* \"#utility.yul\":6280:6303   */\n  swap1\n  pop\n    /* \"#utility.yul\":6328:6360   */\n  tag_165\n    /* \"#utility.yul\":6351:6359   */\n  dup6\n    /* \"#utility.yul\":6328:6360   */\n  tag_84\n  jump\t// in\ntag_165:\n    /* \"#utility.yul\":6316:6360   */\n  swap5\n  pop\n    /* \"#utility.yul\":5658:6370   */\n  jump(tag_159)\ntag_161:\n    /* \"#utility.yul\":5528:6376   */\n  swap5\n  pop\n  swap5\n  swap3\n  pop\n  pop\n  pop\n  jump\t// out\n    /* \"#utility.yul\":6382:7455   */\ntag_86:\n    /* \"#utility.yul\":6436:6441   */\n  0x00\n    /* \"#utility.yul\":6627:6635   */\n  dup3\n    /* \"#utility.yul\":6617:6657   */\n  tag_167\n  jumpi\n    /* \"#utility.yul\":6648:6649   */\n  0x01\n    /* \"#utility.yul\":6639:6649   */\n  swap1\n  pop\n    /* \"#utility.yul\":6650:6655   */\n  jump(tag_166)\n    /* \"#utility.yul\":6617:6657   */\ntag_167:\n    /* \"#utility.yul\":6676:6680   */\n  dup2\n    /* \"#utility.yul\":6666:6702   */\n  tag_168\n  jumpi\n    /* \"#utility.yul\":6693:6694   */\n  0x00\n    /* \"#utility.yul\":6684:6694   */\n  swap1\n  pop\n    /* \"#utility.yul\":6695:6700   */\n  jump(tag_166)\n    /* \"#utility.yul\":6666:6702   */\ntag_168:\n    /* \"#utility.yul\":6762:6766   */\n  dup2\n    /* \"#utility.yul\":6810:6811   */\n  0x01\n    /* \"#utility.yul\":6805:6832   */\n  dup2\n  eq\n  tag_170\n  jumpi\n    /* \"#utility.yul\":6846:6847   */\n  0x02\n    /* \"#utility.yul\":6841:7032   */\n  dup2\n  eq\n  tag_171\n  jumpi\n    /* \"#utility.yul\":6755:7032   */\n  jump(tag_169)\n    /* \"#utility.yul\":6805:6832   */\ntag_170:\n    /* \"#utility.yul\":6823:6824   */\n  0x01\n    /* \"#utility.yul\":6814:6824   */\n  swap2\n  pop\n    /* \"#utility.yul\":6825:6830   */\n  pop\n  jump(tag_166)\n    /* \"#utility.yul\":6841:7032   */\ntag_171:\n    /* \"#utility.yul\":6886:6889   */\n  0xff\n    /* \"#utility.yul\":6876:6884   */\n  dup5\n    /* \"#utility.yul\":6873:6890   */\n  gt\n    /* \"#utility.yul\":6870:6913   */\n  iszero\n  tag_172\n  jumpi\n    /* \"#utility.yul\":6893:6911   */\n  tag_173\n  tag_83\n  jump\t// in\ntag_173:\n    /* \"#utility.yul\":6870:6913   */\ntag_172:\n    /* \"#utility.yul\":6942:6950   */\n  dup4\n    /* \"#utility.yul\":6939:6940   */\n  0x02\n    /* \"#utility.yul\":6935:6951   */\n  exp\n    /* \"#utility.yul\":6926:6951   */\n  swap2\n  pop\n    /* \"#utility.yul\":6977:6980   */\n  dup5\n    /* \"#utility.yul\":6970:6975   */\n  dup3\n    /* \"#utility.yul\":6967:6981   */\n  gt\n    /* \"#utility.yul\":6964:7004   */\n  iszero\n  tag_174\n  jumpi\n    /* \"#utility.yul\":6984:7002   */\n  tag_175\n  tag_83\n  jump\t// in\ntag_175:\n    /* \"#utility.yul\":6964:7004   */\ntag_174:\n    /* \"#utility.yul\":7017:7022   */\n  pop\n  jump(tag_166)\n    /* \"#utility.yul\":6755:7032   */\ntag_169:\n  pop\n    /* \"#utility.yul\":7141:7143   */\n  0x20\n    /* \"#utility.yul\":7131:7139   */\n  dup4\n    /* \"#utility.yul\":7128:7144   */\n  lt\n    /* \"#utility.yul\":7122:7125   */\n  0x0133\n    /* \"#utility.yul\":7116:7120   */\n  dup4\n    /* \"#utility.yul\":7113:7126   */\n  lt\n    /* \"#utility.yul\":7109:7145   */\n  and\n    /* \"#utility.yul\":7091:7093   */\n  0x4e\n    /* \"#utility.yul\":7081:7089   */\n  dup5\n    /* \"#utility.yul\":7078:7094   */\n  lt\n    /* \"#utility.yul\":7073:7075   */\n  0x0b\n    /* \"#utility.yul\":7067:7071   */\n  dup5\n    /* \"#utility.yul\":7064:7076   */\n  lt\n    /* \"#utility.yul\":7060:7095   */\n  and\n    /* \"#utility.yul\":7044:7155   */\n  or\n    /* \"#utility.yul\":7041:7287   */\n  iszero\n  tag_176\n  jumpi\n    /* \"#utility.yul\":7197:7205   */\n  dup3\n    /* \"#utility.yul\":7191:7195   */\n  dup3\n    /* \"#utility.yul\":7187:7206   */\n  exp\n    /* \"#utility.yul\":7178:7206   */\n  swap1\n  pop\n    /* \"#utility.yul\":7232:7235   */\n  dup4\n    /* \"#utility.yul\":7225:7230   */\n  dup2\n    /* \"#utility.yul\":7222:7236   */\n  gt\n    /* \"#utility.yul\":7219:7259   */\n  iszero\n  tag_177\n  jumpi\n    /* \"#utility.yul\":7239:7257   */\n  tag_178\n  tag_83\n  jump\t// in\ntag_178:\n    /* \"#utility.yul\":7219:7259   */\ntag_177:\n    /* \"#utility.yul\":7272:7277   */\n  jump(tag_166)\n    /* \"#utility.yul\":7041:7287   */\ntag_176:\n    /* \"#utility.yul\":7312:7354   */\n  tag_179\n    /* \"#utility.yul\":7350:7353   */\n  dup5\n    /* \"#utility.yul\":7340:7348   */\n  dup5\n    /* \"#utility.yul\":7334:7338   */\n  dup5\n    /* \"#utility.yul\":7331:7332   */\n  0x01\n    /* \"#utility.yul\":7312:7354   */\n  tag_85\n  jump\t// in\ntag_179:\n    /* \"#utility.yul\":7297:7354   */\n  swap3\n  pop\n  swap1\n  pop\n    /* \"#utility.yul\":7386:7390   */\n  dup2\n    /* \"#utility.yul\":7381:7384   */\n  dup5\n    /* \"#utility.yul\":7377:7391   */\n  div\n    /* \"#utility.yul\":7370:7375   */\n  dup2\n    /* \"#utility.yul\":7367:7392   */\n  gt\n    /* \"#utility.yul\":7364:7415   */\n  iszero\n  tag_180\n  jumpi\n    /* \"#utility.yul\":7395:7413   */\n  tag_181\n  tag_83\n  jump\t// in\ntag_181:\n    /* \"#utility.yul\":7364:7415   */\ntag_180:\n    /* \"#utility.yul\":7444:7448   */\n  dup2\n    /* \"#utility.yul\":7437:7442   */\n  dup2\n    /* \"#utility.yul\":7433:7449   */\n  mul\n    /* \"#utility.yul\":7424:7449   */\n  swap1\n  pop\n    /* \"#utility.yul\":6382:7455   */\ntag_166:\n  swap4\n  swap3\n  pop\n  pop\n  pop\n  jump\t// out\n    /* \"#utility.yul\":7461:7547   */\ntag_87:\n    /* \"#utility.yul\":7496:7503   */\n  0x00\n    /* \"#utility.yul\":7536:7540   */\n  0xff\n    /* \"#utility.yul\":7529:7534   */\n  dup3\n    /* \"#utility.yul\":7525:7541   */\n  and\n    /* \"#utility.yul\":7514:7541   */\n  swap1\n  pop\n    /* \"#utility.yul\":7461:7547   */\n  swap2\n  swap1\n  pop\n  jump\t// out\n    /* \"#utility.yul\":7553:7834   */\ntag_7:\n    /* \"#utility.yul\":7611:7616   */\n  0x00\n    /* \"#utility.yul\":7635:7658   */\n  tag_184\n    /* \"#utility.yul\":7653:7657   */\n  dup3\n    /* \"#utility.yul\":7635:7658   */\n  tag_71\n  jump\t// in\ntag_184:\n    /* \"#utility.yul\":7627:7658   */\n  swap2\n  pop\n    /* \"#utility.yul\":7679:7704   */\n  tag_185\n    /* \"#utility.yul\":7695:7703   */\n  dup4\n    /* \"#utility.yul\":7679:7704   */\n  tag_87\n  jump\t// in\ntag_185:\n    /* \"#utility.yul\":7667:7704   */\n  swap3\n  pop\n    /* \"#utility.yul\":7723:7827   */\n  tag_186\n    /* \"#utility.yul\":7760:7826   */\n  0xffffffffffffffffffffffffffffffffffffffffffffffffffffffffffffffff\n    /* \"#utility.yul\":7750:7758   */\n  dup5\n    /* \"#utility.yul\":7744:7748   */\n  dup5\n    /* \"#utility.yul\":7723:7827   */\n  tag_86\n  jump\t// in\ntag_186:\n    /* \"#utility.yul\":7714:7827   */\n  swap1\n  pop\n    /* \"#utility.yul\":7553:7834   */\n  swap3\n  swap2\n  pop\n  pop\n  jump\t// out\n    /* \"#utility.yul\":7840:8250   */\ntag_9:\n    /* \"#utility.yul\":7880:7887   */\n  0x00\n    /* \"#utility.yul\":7903:7923   */\n  tag_188\n    /* \"#utility.yul\":7921:7922   */\n  dup3\n    /* \"#utility.yul\":7903:7923   */\n  tag_71\n  jump\t// in\ntag_188:\n    /* \"#utility.yul\":7898:7923   */\n  swap2\n  pop\n    /* \"#utility.yul\":7937:7957   */\n  tag_189\n    /* \"#utility.yul\":7955:7956   */\n  dup4\n    /* \"#utility.yul\":7937:7957   */\n  tag_71\n  jump\t// in\ntag_189:\n    /* \"#utility.yul\":7932:7957   */\n  swap3\n  pop\n    /* \"#utility.yul\":7992:7993   */\n  dup3\n    /* \"#utility.yul\":7989:7990   */\n  dup3\n    /* \"#utility.yul\":7985:7994   */\n  mul\n    /* \"#utility.yul\":8014:8044   */\n  tag_190\n    /* \"#utility.yul\":8032:8043   */\n  dup2\n    /* \"#utility.yul\":8014:8044   */\n  tag_71\n  jump\t// in\ntag_190:\n    /* \"#utility.yul\":8003:8044   */\n  swap2\n  pop\n    /* \"#utility.yul\":8193:8194   */\n  dup3\n    /* \"#utility.yul\":8184:8191   */\n  dup3\n    /* \"#utility.yul\":8180:8195   */\n  div\n    /* \"#utility.yul\":8177:8178   */\n  dup5\n    /* \"#utility.yul\":8174:8196   */\n  eq\n    /* \"#utility.yul\":8154:8155   */\n  dup4\n    /* \"#utility.yul\":8147:8156   */\n  iszero\n    /* \"#utility.yul\":8127:8210   */\n  or\n    /* \"#utility.yul\":8104:8243   */\n  tag_191\n  jumpi\n    /* \"#utility.yul\":8223:8241   */\n  tag_192\n  tag_83\n  jump\t// in\ntag_192:\n    /* \"#utility.yul\":8104:8243   */\ntag_191:\n    /* \"#utility.yul\":7888:8250   */\n  pop\n    /* \"#utility.yul\":7840:8250   */\n  swap3\n  swap2\n  pop\n  pop\n  jump\t// out\n    /* \"#utility.yul\":8256:8409   */\ntag_88:\n    /* \"#utility.yul\":8309:8315   */\n  0x00\n    /* \"#utility.yul\":8343:8348   */\n  dup2\n    /* \"#utility.yul\":8337:8349   */\n  sload\n    /* \"#utility.yul\":8327:8349   */\n  swap1\n  pop\n    /* \"#utility.yul\":8369:8402   */\n  tag_194\n    /* \"#utility.yul\":8395:8401   */\n  dup2\n    /* \"#utility.yul\":8369:8402   */\n  tag_14\n  jump\t// in\ntag_194:\n    /* \"#utility.yul\":8359:8402   */\n  swap1\n  pop\n    /* \"#utility.yul\":8256:8409   */\n  swap2\n  swap1\n  pop\n  jump\t// out\n    /* \"#utility.yul\":8415:8560   */\ntag_89:\n    /* \"#utility.yul\":8468:8472   */\n  0x00\n    /* \"#utility.yul\":8491:8494   */\n  dup2\n    /* \"#utility.yul\":8483:8494   */\n  swap1\n  pop\n    /* \"#utility.yul\":8514:8517   */\n  dup2\n    /* \"#utility.yul\":8511:8512   */\n  0x00\n    /* \"#utility.yul\":8504:8518   */\n  mstore\n    /* \"#utility.yul\":8548:8552   */\n  0x20\n    /* \"#utility.yul\":8545:8546   */\n  0x00\n    /* \"#utility.yul\":8535:8553   */\n  keccak256\n    /* \"#utility.yul\":8527:8553   */\n  swap1\n  pop\n    /* \"#utility.yul\":8415:8560   */\n  swap2\n  swap1\n  pop\n  jump\t// out\n    /* \"#utility.yul\":8566:10029   */\ntag_35:\n    /* \"#utility.yul\":8681:8684   */\n  dup2\n    /* \"#utility.yul\":8675:8679   */\n  dup2\n    /* \"#utility.yul\":8672:8685   */\n  sub\n    /* \"#utility.yul\":8669:8695   */\n  tag_197\n  jumpi\n    /* \"#utility.yul\":8688:8693   */\n  pop\n  pop\n  jump(tag_196)\n    /* \"#utility.yul\":8669:8695   */\ntag_197:\n    /* \"#utility.yul\":8719:8757   */\n  tag_198\n    /* \"#utility.yul\":8753:8756   */\n  dup3\n    /* \"#utility.yul\":8719:8757   */\n  tag_88\n  jump\t// in\ntag_198:\n    /* \"#utility.yul\":8822:8840   */\n  0xffffffffffffffff\n    /* \"#utility.yul\":8814:8820   */\n  dup2\n    /* \"#utility.yul\":8811:8841   */\n  gt\n    /* \"#utility.yul\":8808:8864   */\n  iszero\n  tag_199\n  jumpi\n    /* \"#utility.yul\":8844:8862   */\n  tag_200\n  tag_65\n  jump\t// in\ntag_200:\n    /* \"#utility.yul\":8808:8864   */\ntag_199:\n    /* \"#utility.yul\":8888:8926   */\n  tag_201\n    /* \"#utility.yul\":8920:8924   */\n  dup3\n    /* \"#utility.yul\":8914:8925   */\n  sload\n    /* \"#utility.yul\":8888:8926   */\n  tag_14\n  jump\t// in\ntag_201:\n    /* \"#utility.yul\":8973:9040   */\n  tag_202\n    /* \"#utility.yul\":9033:9039   */\n  dup3\n    /* \"#utility.yul\":9025:9031   */\n  dup3\n    /* \"#utility.yul\":9019:9023   */\n  dup6\n    /* \"#utility.yul\":8973:9040   */\n  tag_79\n  jump\t// in\ntag_202:\n    /* \"#utility.yul\":9067:9068   */\n  0x00\n    /* \"#utility.yul\":9096:9098   */\n  0x1f\n    /* \"#utility.yul\":9088:9094   */\n  dup4\n    /* \"#utility.yul\":9085:9099   */\n  gt\n    /* \"#utility.yul\":9113:9114   */\n  0x01\n    /* \"#utility.yul\":9108:9784   */\n  dup2\n  eq\n  tag_204\n  jumpi\n    /* \"#utility.yul\":9828:9829   */\n  0x00\n    /* \"#utility.yul\":9845:9851   */\n  dup5\n    /* \"#utility.yul\":9842:9919   */\n  iszero\n  tag_205\n  jumpi\n    /* \"#utility.yul\":9894:9903   */\n  dup3\n    /* \"#utility.yul\":9889:9892   */\n  dup8\n    /* \"#utility.yul\":9885:9904   */\n  add\n    /* \"#utility.yul\":9879:9905   */\n  sload\n    /* \"#utility.yul\":9870:9905   */\n  swap1\n  pop\n    /* \"#utility.yul\":9842:9919   */\ntag_205:\n    /* \"#utility.yul\":9945:10012   */\n  tag_206\n    /* \"#utility.yul\":10005:10011   */\n  dup6\n    /* \"#utility.yul\":9998:10003   */\n  dup3\n    /* \"#utility.yul\":9945:10012   */\n  tag_82\n  jump\t// in\ntag_206:\n    /* \"#utility.yul\":9939:9943   */\n  dup7\n    /* \"#utility.yul\":9932:10013   */\n  sstore\n    /* \"#utility.yul\":9801:10023   */\n  pop\n    /* \"#utility.yul\":9078:10023   */\n  jump(tag_203)\n    /* \"#utility.yul\":9108:9784   */\ntag_204:\n    /* \"#utility.yul\":9160:9164   */\n  0x1f\n    /* \"#utility.yul\":9156:9165   */\n  not\n    /* \"#utility.yul\":9148:9154   */\n  dup5\n    /* \"#utility.yul\":9144:9166   */\n  and\n    /* \"#utility.yul\":9186:9226   */\n  tag_207\n    /* \"#utility.yul\":9222:9225   */\n  dup8\n    /* \"#utility.yul\":9186:9226   */\n  tag_89\n  jump\t// in\ntag_207:\n    /* \"#utility.yul\":9179:9226   */\n  swap7\n  pop\n    /* \"#utility.yul\":9253:9290   */\n  tag_208\n    /* \"#utility.yul\":9285:9289   */\n  dup7\n    /* \"#utility.yul\":9253:9290   */\n  tag_67\n  jump\t// in\ntag_208:\n    /* \"#utility.yul\":9312:9313   */\n  0x00\n    /* \"#utility.yul\":9326:9533   */\ntag_209:\n    /* \"#utility.yul\":9340:9347   */\n  dup3\n    /* \"#utility.yul\":9337:9338   */\n  dup2\n    /* \"#utility.yul\":9334:9348   */\n  lt\n    /* \"#utility.yul\":9326:9533   */\n  iszero\n  tag_211\n  jumpi\n    /* \"#utility.yul\":9419:9428   */\n  dup5\n    /* \"#utility.yul\":9414:9417   */\n  dup10\n    /* \"#utility.yul\":9410:9429   */\n  add\n    /* \"#utility.yul\":9404:9430   */\n  sload\n    /* \"#utility.yul\":9396:9402   */\n  dup3\n    /* \"#utility.yul\":9389:9431   */\n  sstore\n    /* \"#utility.yul\":9470:9471   */\n  0x01\n    /* \"#utility.yul\":9462:9468   */\n  dup3\n    /* \"#utility.yul\":9458:9472   */\n  add\n    /* \"#utility.yul\":9448:9472   */\n  swap2\n  pop\n    /* \"#utility.yul\":9517:9518   */\n  0x01\n    /* \"#utility.yul\":9506:9515   */\n  dup6\n    /* \"#utility.yul\":9502:9519   */\n  add\n    /* \"#utility.yul\":9489:9519   */\n  swap5\n  pop\n    /* \"#utility.yul\":9363:9367   */\n  0x20\n    /* \"#utility.yul\":9360:9361   */\n  dup2\n    /* \"#utility.yul\":9356:9368   */\n  add\n    /* \"#utility.yul\":9351:9368   */\n  swap1\n  pop\n    /* \"#utility.yul\":9326:9533   */\n  jump(tag_209)\ntag_211:\n    /* \"#utility.yul\":9561:9567   */\n  dup7\n    /* \"#utility.yul\":9552:9559   */\n  dup4\n    /* \"#utility.yul\":9549:9568   */\n  lt\n    /* \"#utility.yul\":9546:9725   */\n  iszero\n  tag_212\n  jumpi\n    /* \"#utility.yul\":9619:9628   */\n  dup5\n    /* \"#utility.yul\":9614:9617   */\n  dup10\n    /* \"#utility.yul\":9610:9629   */\n  add\n    /* \"#utility.yul\":9604:9630   */\n  sload\n    /* \"#utility.yul\":9662:9710   */\n  tag_213\n    /* \"#utility.yul\":9704:9708   */\n  0x1f\n    /* \"#utility.yul\":9696:9702   */\n  dup10\n    /* \"#utility.yul\":9692:9709   */\n  and\n    /* \"#utility.yul\":9681:9690   */\n  dup3\n    /* \"#utility.yul\":9662:9710   */\n  tag_81\n  jump\t// in\ntag_213:\n    /* \"#utility.yul\":9654:9660   */\n  dup4\n    /* \"#utility.yul\":9647:9711   */\n  sstore\n    /* \"#utility.yul\":9569:9725   */\n  pop\n    /* \"#utility.yul\":9546:9725   */\ntag_212:\n    /* \"#utility.yul\":9771:9772   */\n  0x01\n    /* \"#utility.yul\":9767:9768   */\n  0x02\n    /* \"#utility.yul\":9759:9765   */\n  dup9\n    /* \"#utility.yul\":9755:9769   */\n  mul\n    /* \"#utility.yul\":9751:9773   */\n  add\n    /* \"#utility.yul\":9745:9749   */\n  dup9\n    /* \"#utility.yul\":9738:9774   */\n  sstore\n    /* \"#utility.yul\":9115:9784   */\n  pop\n  pop\n  pop\n    /* \"#utility.yul\":9078:10023   */\ntag_203:\n  pop\n    /* \"#utility.yul\":8659:10029   */\n  pop\n  pop\n  pop\n    /* \"#utility.yul\":8566:10029   */\n  pop\n  pop\ntag_196:\n  jump\t// out\n    /* \"#utility.yul\":10035:10204   */\ntag_90:\n    /* \"#utility.yul\":10119:10130   */\n  0x00\n    /* \"#utility.yul\":10153:10159   */\n  dup3\n    /* \"#utility.yul\":10148:10151   */\n  dup3\n    /* \"#utility.yul\":10141:10160   */\n  mstore\n    /* \"#utility.yul\":10193:10197   */\n  0x20\n    /* \"#utility.yul\":10188:10191   */\n  dup3\n    /* \"#utility.yul\":10184:10198   */\n  add\n    /* \"#utility.yul\":10169:10198   */\n  swap1\n  pop\n    /* \"#utility.yul\":10035:10204   */\n  swap3\n  swap2\n  pop\n  pop\n  jump\t// out\n    /* \"#utility.yul\":10210:10391   */\ntag_91:\n    /* \"#utility.yul\":10350:10383   */\n  0x45524332303a206d696e7420746f20746865207a65726f206164647265737300\n    /* \"#utility.yul\":10346:10347   */\n  0x00\n    /* \"#utility.yul\":10338:10344   */\n  dup3\n    /* \"#utility.yul\":10334:10348   */\n  add\n    /* \"#utility.yul\":10327:10384   */\n  mstore\n    /* \"#utility.yul\":10210:10391   */\n  pop\n  jump\t// out\n    /* \"#utility.yul\":10397:10763   */\ntag_92:\n    /* \"#utility.yul\":10539:10542   */\n  0x00\n    /* \"#utility.yul\":10560:10627   */\n  tag_217\n    /* \"#utility.yul\":10624:10626   */\n  0x1f\n    /* \"#utility.yul\":10619:10622   */\n  dup4\n    /* \"#utility.yul\":10560:10627   */\n  tag_90\n  jump\t// in\ntag_217:\n    /* \"#utility.yul\":10553:10627   */\n  swap2\n  pop\n    /* \"#utility.yul\":10636:10729   */\n  tag_218\n    /* \"#utility.yul\":10725:10728   */\n  dup3\n    /* \"#utility.yul\":10636:10729   */\n  tag_91\n  jump\t// in\ntag_218:\n    /* \"#utility.yul\":10754:10756   */\n  0x20\n    /* \"#utility.yul\":10749:10752   */\n  dup3\n    /* \"#utility.yul\":10745:10757   */\n  add\n    /* \"#utility.yul\":10738:10757   */\n  swap1\n  pop\n    /* \"#utility.yul\":10397:10763   */\n  swap2\n  swap1\n  pop\n  jump\t// out\n    /* \"#utility.yul\":10769:11188   */\ntag_52:\n    /* \"#utility.yul\":10935:10939   */\n  0x00\n    /* \"#utility.yul\":10973:10975   */\n  0x20\n    /* \"#utility.yul\":10962:10971   */\n  dup3\n    /* \"#utility.yul\":10958:10976   */\n  add\n    /* \"#utility.yul\":10950:10976   */\n  swap1\n  pop\n    /* \"#utility.yul\":11022:11031   */\n  dup2\n    /* \"#utility.yul\":11016:11020   */\n  dup2\n    /* \"#utility.yul\":11012:11032   */\n  sub\n    /* \"#utility.yul\":11008:11009   */\n  0x00\n    /* \"#utility.yul\":10997:11006   */\n  dup4\n    /* \"#utility.yul\":10993:11010   */\n  add\n    /* \"#utility.yul\":10986:11033   */\n  mstore\n    /* \"#utility.yul\":11050:11181   */\n  tag_220\n    /* \"#utility.yul\":11176:11180   */\n  dup2\n    /* \"#utility.yul\":11050:11181   */\n  tag_92\n  jump\t// in\ntag_220:\n    /* \"#utility.yul\":11042:11181   */\n  swap1\n  pop\n    /* \"#utility.yul\":10769:11188   */\n  swap2\n  swap1\n  pop\n  jump\t// out\n    /* \"#utility.yul\":11194:11385   */\ntag_56:\n    /* \"#utility.yul\":11234:11237   */\n  0x00\n    /* \"#utility.yul\":11253:11273   */\n  tag_222\n    /* \"#utility.yul\":11271:11272   */\n  dup3\n    /* \"#utility.yul\":11253:11273   */\n  tag_71\n  jump\t// in\ntag_222:\n    /* \"#utility.yul\":11248:11273   */\n  swap2\n  pop\n    /* \"#utility.yul\":11287:11307   */\n  tag_223\n    /* \"#utility.yul\":11305:11306   */\n  dup4\n    /* \"#utility.yul\":11287:11307   */\n  tag_71\n  jump\t// in\ntag_223:\n    /* \"#utility.yul\":11282:11307   */\n  swap3\n  pop\n    /* \"#utility.yul\":11330:11331   */\n  dup3\n    /* \"#utility.yul\":11327:11328   */\n  dup3\n    /* \"#utility.yul\":11323:11332   */\n  add\n    /* \"#utility.yul\":11316:11332   */\n  swap1\n  pop\n    /* \"#utility.yul\":11351:11354   */\n  dup1\n    /* \"#utility.yul\":11348:11349   */\n  dup3\n    /* \"#utility.yul\":11345:11355   */\n  gt\n    /* \"#utility.yul\":11342:11378   */\n  iszero\n  tag_224\n  jumpi\n    /* \"#utility.yul\":11358:11376   */\n  tag_225\n  tag_83\n  jump\t// in\ntag_225:\n    /* \"#utility.yul\":11342:11378   */\ntag_224:\n    /* \"#utility.yul\":11194:11385   */\n  swap3\n  swap2\n  pop\n  pop\n  jump\t// out\n    /* \"#utility.yul\":11391:11509   */\ntag_93:\n    /* \"#utility.yul\":11478:11502   */\n  tag_227\n    /* \"#utility.yul\":11496:11501   */\n  dup2\n    /* \"#utility.yul\":11478:11502   */\n  tag_71\n  jump\t// in\ntag_227:\n    /* \"#utility.yul\":11473:11476   */\n  dup3\n    /* \"#utility.yul\":11466:11503   */\n  mstore\n    /* \"#utility.yul\":11391:11509   */\n  pop\n  pop\n  jump\t// out\n    /* \"#utility.yul\":11515:11737   */\ntag_59:\n    /* \"#utility.yul\":11608:11612   */\n  0x00\n    /* \"#utility.yul\":11646:11648   */\n  0x20\n    /* \"#utility.yul\":11635:11644   */\n  dup3\n    /* \"#utility.yul\":11631:11649   */\n  add\n    /* \"#utility.yul\":11623:11649   */\n  swap1\n  pop\n    /* \"#utility.yul\":11659:11730   */\n  tag_229\n    /* \"#utility.yul\":11727:11728   */\n  0x00\n    /* \"#utility.yul\":11716:11725   */\n  dup4\n    /* \"#utility.yul\":11712:11729   */\n  add\n    /* \"#utility.yul\":11703:11709   */\n  dup5\n    /* \"#utility.yul\":11659:11730   */\n  tag_93\n  jump\t// in\ntag_229:\n    /* \"#utility.yul\":11515:11737   */\n  swap3\n  swap2\n  pop\n  pop\n  jump\t// out\n    /* \"contracts/kaiToken.sol\":397:2009  contract KaiToken is ERC20, Ownable {... */\ntag_41:\n  dataSize(sub_0)\n  dup1\n  dataOffset(sub_0)\n  0x00\n  codecopy\n  0x00\n  return\nstop\n\nsub_0: assembly {\n        /* \"contracts/kaiToken.sol\":397:2009  contract KaiToken is ERC20, Ownable {... */\n      mstore(0x40, 0x80)\n      jumpi(tag_1, lt(calldatasize, 0x04))\n      shr(0xe0, calldataload(0x00))\n      dup1\n      0x70a08231\n      gt\n      tag_24\n      jumpi\n      dup1\n      0xa9059cbb\n      gt\n      tag_25\n      jumpi\n      dup1\n      0xa9059cbb\n      eq\n      tag_18\n      jumpi\n      dup1\n      0xb09f1266\n      eq\n      tag_19\n      jumpi\n      dup1\n      0xd28d8852\n      eq\n      tag_20\n      jumpi\n      dup1\n      0xdd62ed3e\n      eq\n      tag_21\n      jumpi\n      dup1\n      0xf2fde38b\n      eq\n      tag_22\n      jumpi\n      dup1\n      0xfffc5e89\n      eq\n      tag_23\n      jumpi\n      jump(tag_2)\n    tag_25:\n      dup1\n      0x70a08231\n      eq\n      tag_13\n      jumpi\n      dup1\n      0x715018a6\n      eq\n      tag_14\n      jumpi\n      dup1\n      0x8da5cb5b\n      eq\n      tag_15\n      jumpi\n      dup1\n      0x95d89b41\n      eq\n      tag_16\n      jumpi\n      dup1\n      0xa457c2d7\n      eq\n      tag_17\n      jumpi\n      jump(tag_2)\n    tag_24:\n      dup1\n      0x2c4e722e\n      gt\n      tag_26\n      jumpi\n      dup1\n      0x2c4e722e\n      eq\n      tag_8\n      jumpi\n      dup1\n      0x313ce567\n      eq\n      tag_9\n      jumpi\n      dup1\n      0x39509351\n      eq\n      tag_10\n      jumpi\n      dup1\n      0x3eaaf86b\n      eq\n      tag_11\n      jumpi\n      dup1\n      0x40c10f19\n      eq\n      tag_12\n      jumpi\n      jump(tag_2)\n    tag_26:\n      dup1\n      0x06fdde03\n      eq\n      tag_3\n      jumpi\n      dup1\n      0x095ea7b3\n      eq\n      tag_4\n      jumpi\n      dup1\n      0x18160ddd\n      eq\n      tag_5\n      jumpi\n      dup1\n      0x2397e4d7\n      eq\n      tag_6\n      jumpi\n      dup1\n      0x23b872dd\n      eq\n      tag_7\n      jumpi\n      jump(tag_2)\n    tag_1:\n      jumpi(tag_2, calldatasize)\n        /* \"contracts/kaiToken.sol\":1366:1367  0 */\n      0x00\n        /* \"contracts/kaiToken.sol\":1353:1362  msg.value */\n      callvalue\n        /* \"contracts/kaiToken.sol\":1353:1367  msg.value != 0 */\n      sub\n        /* \"contracts/kaiToken.sol\":1345:1393  require(msg.value != 0, \"Enter a nonzero value\") */\n      tag_29\n      jumpi\n      mload(0x40)\n      0x08c379a000000000000000000000000000000000000000000000000000000000\n      dup2\n      mstore\n      0x04\n      add\n      tag_30\n      swap1\n      tag_31\n      jump\t// in\n    tag_30:\n      mload(0x40)\n      dup1\n      swap2\n      sub\n      swap1\n      revert\n    tag_29:\n        /* \"contracts/kaiToken.sol\":1403:1414  uint amount */\n      0x00\n        /* \"contracts/kaiToken.sol\":1429:1433  rate */\n      sload(0x09)\n        /* \"contracts/kaiToken.sol\":1417:1426  msg.value */\n      callvalue\n        /* \"contracts/kaiToken.sol\":1417:1433  msg.value * rate */\n      tag_32\n      swap2\n      swap1\n      tag_33\n      jump\t// in\n    tag_32:\n        /* \"contracts/kaiToken.sol\":1403:1433  uint amount = msg.value * rate */\n      swap1\n      pop\n        /* \"contracts/kaiToken.sol\":1474:1480  amount */\n      dup1\n        /* \"contracts/kaiToken.sol\":1452:1470  balanceOf(owner()) */\n      tag_34\n        /* \"contracts/kaiToken.sol\":1462:1469  owner() */\n      tag_35\n        /* \"contracts/kaiToken.sol\":1462:1467  owner */\n      tag_36\n        /* \"contracts/kaiToken.sol\":1462:1469  owner() */\n      jump\t// in\n    tag_35:\n        /* \"contracts/kaiToken.sol\":1452:1461  balanceOf */\n      tag_37\n        /* \"contracts/kaiToken.sol\":1452:1470  balanceOf(owner()) */\n      jump\t// in\n    tag_34:\n        /* \"contracts/kaiToken.sol\":1452:1480  balanceOf(owner()) >= amount */\n      lt\n      iszero\n        /* \"contracts/kaiToken.sol\":1444:1512  require(balanceOf(owner()) >= amount, \"owner KaiToken is no amount\") */\n      tag_38\n      jumpi\n      mload(0x40)\n      0x08c379a000000000000000000000000000000000000000000000000000000000\n      dup2\n      mstore\n      0x04\n      add\n      tag_39\n      swap1\n      tag_40\n      jump\t// in\n    tag_39:\n      mload(0x40)\n      dup1\n      swap2\n      sub\n      swap1\n      revert\n    tag_38:\n        /* \"contracts/kaiToken.sol\":1524:1565  tokentransfer(owner(),msg.sender, amount) */\n      tag_41\n        /* \"contracts/kaiToken.sol\":1538:1545  owner() */\n      tag_42\n        /* \"contracts/kaiToken.sol\":1538:1543  owner */\n      tag_36\n        /* \"contracts/kaiToken.sol\":1538:1545  owner() */\n      jump\t// in\n    tag_42:\n        /* \"contracts/kaiToken.sol\":1546:1556  msg.sender */\n      caller\n        /* \"contracts/kaiToken.sol\":1558:1564  amount */\n      dup4\n        /* \"contracts/kaiToken.sol\":1524:1537  tokentransfer */\n      tag_43\n        /* \"contracts/kaiToken.sol\":1524:1565  tokentransfer(owner(),msg.sender, amount) */\n      jump\t// in\n    tag_41:\n        /* \"contracts/kaiToken.sol\":1593:1600  owner() */\n      tag_44\n        /* \"contracts/kaiToken.sol\":1593:1598  owner */\n      tag_36\n        /* \"contracts/kaiToken.sol\":1593:1600  owner() */\n      jump\t// in\n    tag_44:\n        /* \"contracts/kaiToken.sol\":1579:1600  msg.sender == owner() */\n      0xffffffffffffffffffffffffffffffffffffffff\n      and\n        /* \"contracts/kaiToken.sol\":1579:1589  msg.sender */\n      caller\n        /* \"contracts/kaiToken.sol\":1579:1600  msg.sender == owner() */\n      0xffffffffffffffffffffffffffffffffffffffff\n      and\n      sub\n        /* \"contracts/kaiToken.sol\":1576:1647  if(msg.sender == owner()){... */\n      tag_45\n      jumpi\n        /* \"contracts/kaiToken.sol\":1615:1636  _mint(owner(),amount) */\n      tag_46\n        /* \"contracts/kaiToken.sol\":1621:1628  owner() */\n      tag_47\n        /* \"contracts/kaiToken.sol\":1621:1626  owner */\n      tag_36\n        /* \"contracts/kaiToken.sol\":1621:1628  owner() */\n      jump\t// in\n    tag_47:\n        /* \"contracts/kaiToken.sol\":1629:1635  amount */\n      dup3\n        /* \"contracts/kaiToken.sol\":1615:1620  _mint */\n      tag_48\n        /* \"contracts/kaiToken.sol\":1615:1636  _mint(owner(),amount) */\n      jump\t// in\n    tag_46:\n        /* \"contracts/kaiToken.sol\":1576:1647  if(msg.sender == owner()){... */\n    tag_45:\n        /* \"contracts/kaiToken.sol\":1237:1653  {... */\n      stop\n        /* \"contracts/kaiToken.sol\":397:2009  contract KaiToken is ERC20, Ownable {... */\n    tag_2:\n      0x00\n      dup1\n      revert\n        /* \"node_modules/openzeppelin-solidity/contracts/token/ERC20/ERC20.sol\":2156:2254  function name() public view virtual override returns (string memory) {... */\n    tag_3:\n      callvalue\n      dup1\n      iszero\n      tag_49\n      jumpi\n      0x00\n      dup1\n      revert\n    tag_49:\n      pop\n      tag_50\n      tag_51\n      jump\t// in\n    tag_50:\n      mload(0x40)\n      tag_52\n      swap2\n      swap1\n      tag_53\n      jump\t// in\n    tag_52:\n      mload(0x40)\n      dup1\n      swap2\n      sub\n      swap1\n      return\n        /* \"node_modules/openzeppelin-solidity/contracts/token/ERC20/ERC20.sol\":4596:4793  function approve(address spender, uint256 amount) public virtual override returns (bool) {... */\n    tag_4:\n      callvalue\n      dup1\n      iszero\n      tag_54\n      jumpi\n      0x00\n      dup1\n      revert\n    tag_54:\n      pop\n      tag_55\n      0x04\n      dup1\n      calldatasize\n      sub\n      dup2\n      add\n      swap1\n      tag_56\n      swap2\n      swap1\n      tag_57\n      jump\t// in\n    tag_56:\n      tag_58\n      jump\t// in\n    tag_55:\n      mload(0x40)\n      tag_59\n      swap2\n      swap1\n      tag_60\n      jump\t// in\n    tag_59:\n      mload(0x40)\n      dup1\n      swap2\n      sub\n      swap1\n      return\n        /* \"node_modules/openzeppelin-solidity/contracts/token/ERC20/ERC20.sol\":3244:3350  function totalSupply() public view virtual override returns (uint256) {... */\n    tag_5:\n      callvalue\n      dup1\n      iszero\n      tag_61\n      jumpi\n      0x00\n      dup1\n      revert\n    tag_61:\n      pop\n      tag_62\n      tag_63\n      jump\t// in\n    tag_62:\n      mload(0x40)\n      tag_64\n      swap2\n      swap1\n      tag_65\n      jump\t// in\n    tag_64:\n      mload(0x40)\n      dup1\n      swap2\n      sub\n      swap1\n      return\n        /* \"contracts/kaiToken.sol\":1691:2007  function sellToken(uint256 _amount) public payable{... */\n    tag_6:\n      tag_66\n      0x04\n      dup1\n      calldatasize\n      sub\n      dup2\n      add\n      swap1\n      tag_67\n      swap2\n      swap1\n      tag_68\n      jump\t// in\n    tag_67:\n      tag_69\n      jump\t// in\n    tag_66:\n      stop\n        /* \"node_modules/openzeppelin-solidity/contracts/token/ERC20/ERC20.sol\":5355:5641  function transferFrom(... */\n    tag_7:\n      callvalue\n      dup1\n      iszero\n      tag_70\n      jumpi\n      0x00\n      dup1\n      revert\n    tag_70:\n      pop\n      tag_71\n      0x04\n      dup1\n      calldatasize\n      sub\n      dup2\n      add\n      swap1\n      tag_72\n      swap2\n      swap1\n      tag_73\n      jump\t// in\n    tag_72:\n      tag_74\n      jump\t// in\n    tag_71:\n      mload(0x40)\n      tag_75\n      swap2\n      swap1\n      tag_60\n      jump\t// in\n    tag_75:\n      mload(0x40)\n      dup1\n      swap2\n      sub\n      swap1\n      return\n        /* \"contracts/kaiToken.sol\":573:598  uint256 public rate = 100 */\n    tag_8:\n      callvalue\n      dup1\n      iszero\n      tag_76\n      jumpi\n      0x00\n      dup1\n      revert\n    tag_76:\n      pop\n      tag_77\n      tag_78\n      jump\t// in\n    tag_77:\n      mload(0x40)\n      tag_79\n      swap2\n      swap1\n      tag_65\n      jump\t// in\n    tag_79:\n      mload(0x40)\n      dup1\n      swap2\n      sub\n      swap1\n      return\n        /* \"node_modules/openzeppelin-solidity/contracts/token/ERC20/ERC20.sol\":3093:3184  function decimals() public view virtual override returns (uint8) {... */\n    tag_9:\n      callvalue\n      dup1\n      iszero\n      tag_80\n      jumpi\n      0x00\n      dup1\n      revert\n    tag_80:\n      pop\n      tag_81\n      tag_82\n      jump\t// in\n    tag_81:\n      mload(0x40)\n      tag_83\n      swap2\n      swap1\n      tag_84\n      jump\t// in\n    tag_83:\n      mload(0x40)\n      dup1\n      swap2\n      sub\n      swap1\n      return\n        /* \"node_modules/openzeppelin-solidity/contracts/token/ERC20/ERC20.sol\":6036:6270  function increaseAllowance(address spender, uint256 addedValue) public virtual returns (bool) {... */\n    tag_10:\n      callvalue\n      dup1\n      iszero\n      tag_85\n      jumpi\n      0x00\n      dup1\n      revert\n    tag_85:\n      pop\n      tag_86\n      0x04\n      dup1\n      calldatasize\n      sub\n      dup2\n      add\n      swap1\n      tag_87\n      swap2\n      swap1\n      tag_57\n      jump\t// in\n    tag_87:\n      tag_88\n      jump\t// in\n    tag_86:\n      mload(0x40)\n      tag_89\n      swap2\n      swap1\n      tag_60\n      jump\t// in\n    tag_89:\n      mload(0x40)\n      dup1\n      swap2\n      sub\n      swap1\n      return\n        /* \"contracts/kaiToken.sol\":512:566  uint256 public _totalSupply = 10000 * (10**decimals()) */\n    tag_11:\n      callvalue\n      dup1\n      iszero\n      tag_90\n      jumpi\n      0x00\n      dup1\n      revert\n    tag_90:\n      pop\n      tag_91\n      tag_92\n      jump\t// in\n    tag_91:\n      mload(0x40)\n      tag_93\n      swap2\n      swap1\n      tag_65\n      jump\t// in\n    tag_93:\n      mload(0x40)\n      dup1\n      swap2\n      sub\n      swap1\n      return\n        /* \"node_modules/openzeppelin-solidity/contracts/token/ERC20/ERC20.sol\":8304:8407  function mint(address account, uint256 amount) public virtual {... */\n    tag_12:\n      callvalue\n      dup1\n      iszero\n      tag_94\n      jumpi\n      0x00\n      dup1\n      revert\n    tag_94:\n      pop\n      tag_95\n      0x04\n      dup1\n      calldatasize\n      sub\n      dup2\n      add\n      swap1\n      tag_96\n      swap2\n      swap1\n      tag_57\n      jump\t// in\n    tag_96:\n      tag_97\n      jump\t// in\n    tag_95:\n      stop\n        /* \"node_modules/openzeppelin-solidity/contracts/token/ERC20/ERC20.sol\":3408:3533  function balanceOf(address account) public view virtual override returns (uint256) {... */\n    tag_13:\n      callvalue\n      dup1\n      iszero\n      tag_98\n      jumpi\n      0x00\n      dup1\n      revert\n    tag_98:\n      pop\n      tag_99\n      0x04\n      dup1\n      calldatasize\n      sub\n      dup2\n      add\n      swap1\n      tag_100\n      swap2\n      swap1\n      tag_101\n      jump\t// in\n    tag_100:\n      tag_37\n      jump\t// in\n    tag_99:\n      mload(0x40)\n      tag_102\n      swap2\n      swap1\n      tag_65\n      jump\t// in\n    tag_102:\n      mload(0x40)\n      dup1\n      swap2\n      sub\n      swap1\n      return\n        /* \"node_modules/openzeppelin-solidity/contracts/access/Ownable.sol\":1668:1769  function renounceOwnership() public virtual onlyOwner {... */\n    tag_14:\n      callvalue\n      dup1\n      iszero\n      tag_103\n      jumpi\n      0x00\n      dup1\n      revert\n    tag_103:\n      pop\n      tag_104\n      tag_105\n      jump\t// in\n    tag_104:\n      stop\n        /* \"node_modules/openzeppelin-solidity/contracts/access/Ownable.sol\":1036:1121  function owner() public view virtual returns (address) {... */\n    tag_15:\n      callvalue\n      dup1\n      iszero\n      tag_106\n      jumpi\n      0x00\n      dup1\n      revert\n    tag_106:\n      pop\n      tag_107\n      tag_36\n      jump\t// in\n    tag_107:\n      mload(0x40)\n      tag_108\n      swap2\n      swap1\n      tag_109\n      jump\t// in\n    tag_108:\n      mload(0x40)\n      dup1\n      swap2\n      sub\n      swap1\n      return\n        /* \"node_modules/openzeppelin-solidity/contracts/token/ERC20/ERC20.sol\":2367:2469  function symbol() public view virtual override returns (string memory) {... */\n    tag_16:\n      callvalue\n      dup1\n      iszero\n      tag_110\n      jumpi\n      0x00\n      dup1\n      revert\n    tag_110:\n      pop\n      tag_111\n      tag_112\n      jump\t// in\n    tag_111:\n      mload(0x40)\n      tag_113\n      swap2\n      swap1\n      tag_53\n      jump\t// in\n    tag_113:\n      mload(0x40)\n      dup1\n      swap2\n      sub\n      swap1\n      return\n        /* \"node_modules/openzeppelin-solidity/contracts/token/ERC20/ERC20.sol\":6757:7184  function decreaseAllowance(address spender, uint256 subtractedValue) public virtual returns (bool) {... */\n    tag_17:\n      callvalue\n      dup1\n      iszero\n      tag_114\n      jumpi\n      0x00\n      dup1\n      revert\n    tag_114:\n      pop\n      tag_115\n      0x04\n      dup1\n      calldatasize\n      sub\n      dup2\n      add\n      swap1\n      tag_116\n      swap2\n      swap1\n      tag_57\n      jump\t// in\n    tag_116:\n      tag_117\n      jump\t// in\n    tag_115:\n      mload(0x40)\n      tag_118\n      swap2\n      swap1\n      tag_60\n      jump\t// in\n    tag_118:\n      mload(0x40)\n      dup1\n      swap2\n      sub\n      swap1\n      return\n        /* \"node_modules/openzeppelin-solidity/contracts/token/ERC20/ERC20.sol\":3729:3918  function transfer(address to, uint256 amount) public virtual override returns (bool) {... */\n    tag_18:\n      callvalue\n      dup1\n      iszero\n      tag_119\n      jumpi\n      0x00\n      dup1\n      revert\n    tag_119:\n      pop\n      tag_120\n      0x04\n      dup1\n      calldatasize\n      sub\n      dup2\n      add\n      swap1\n      tag_121\n      swap2\n      swap1\n      tag_57\n      jump\t// in\n    tag_121:\n      tag_122\n      jump\t// in\n    tag_120:\n      mload(0x40)\n      tag_123\n      swap2\n      swap1\n      tag_60\n      jump\t// in\n    tag_123:\n      mload(0x40)\n      dup1\n      swap2\n      sub\n      swap1\n      return\n        /* \"contracts/kaiToken.sol\":477:506  string public _symbol = \"KAI\" */\n    tag_19:\n      callvalue\n      dup1\n      iszero\n      tag_124\n      jumpi\n      0x00\n      dup1\n      revert\n    tag_124:\n      pop\n      tag_125\n      tag_126\n      jump\t// in\n    tag_125:\n      mload(0x40)\n      tag_127\n      swap2\n      swap1\n      tag_53\n      jump\t// in\n    tag_127:\n      mload(0x40)\n      dup1\n      swap2\n      sub\n      swap1\n      return\n        /* \"contracts/kaiToken.sol\":439:471  string public _name = \"KaiToken\" */\n    tag_20:\n      callvalue\n      dup1\n      iszero\n      tag_128\n      jumpi\n      0x00\n      dup1\n      revert\n    tag_128:\n      pop\n      tag_129\n      tag_130\n      jump\t// in\n    tag_129:\n      mload(0x40)\n      tag_131\n      swap2\n      swap1\n      tag_53\n      jump\t// in\n    tag_131:\n      mload(0x40)\n      dup1\n      swap2\n      sub\n      swap1\n      return\n        /* \"node_modules/openzeppelin-solidity/contracts/token/ERC20/ERC20.sol\":4139:4288  function allowance(address owner, address spender) public view virtual override returns (uint256) {... */\n    tag_21:\n      callvalue\n      dup1\n      iszero\n      tag_132\n      jumpi\n      0x00\n      dup1\n      revert\n    tag_132:\n      pop\n      tag_133\n      0x04\n      dup1\n      calldatasize\n      sub\n      dup2\n      add\n      swap1\n      tag_134\n      swap2\n      swap1\n      tag_135\n      jump\t// in\n    tag_134:\n      tag_136\n      jump\t// in\n    tag_133:\n      mload(0x40)\n      tag_137\n      swap2\n      swap1\n      tag_65\n      jump\t// in\n    tag_137:\n      mload(0x40)\n      dup1\n      swap2\n      sub\n      swap1\n      return\n        /* \"node_modules/openzeppelin-solidity/contracts/access/Ownable.sol\":1918:2116  function transferOwnership(address newOwner) public virtual onlyOwner {... */\n    tag_22:\n      callvalue\n      dup1\n      iszero\n      tag_138\n      jumpi\n      0x00\n      dup1\n      revert\n    tag_138:\n      pop\n      tag_139\n      0x04\n      dup1\n      calldatasize\n      sub\n      dup2\n      add\n      swap1\n      tag_140\n      swap2\n      swap1\n      tag_101\n      jump\t// in\n    tag_140:\n      tag_141\n      jump\t// in\n    tag_139:\n      stop\n        /* \"node_modules/openzeppelin-solidity/contracts/token/ERC20/ERC20.sol\":3924:4081  function tokentransfer(address owner, address to, uint256 amount) public virtual {... */\n    tag_23:\n      callvalue\n      dup1\n      iszero\n      tag_142\n      jumpi\n      0x00\n      dup1\n      revert\n    tag_142:\n      pop\n      tag_143\n      0x04\n      dup1\n      calldatasize\n      sub\n      dup2\n      add\n      swap1\n      tag_144\n      swap2\n      swap1\n      tag_73\n      jump\t// in\n    tag_144:\n      tag_43\n      jump\t// in\n    tag_143:\n      stop\n        /* \"node_modules/openzeppelin-solidity/contracts/access/Ownable.sol\":1036:1121  function owner() public view virtual returns (address) {... */\n    tag_36:\n        /* \"node_modules/openzeppelin-solidity/contracts/access/Ownable.sol\":1082:1089  address */\n      0x00\n        /* \"node_modules/openzeppelin-solidity/contracts/access/Ownable.sol\":1108:1114  _owner */\n      0x05\n      0x00\n      swap1\n      sload\n      swap1\n      0x0100\n      exp\n      swap1\n      div\n      0xffffffffffffffffffffffffffffffffffffffff\n      and\n        /* \"node_modules/openzeppelin-solidity/contracts/access/Ownable.sol\":1101:1114  return _owner */\n      swap1\n      pop\n        /* \"node_modules/openzeppelin-solidity/contracts/access/Ownable.sol\":1036:1121  function owner() public view virtual returns (address) {... */\n      swap1\n      jump\t// out\n        /* \"node_modules/openzeppelin-solidity/contracts/token/ERC20/ERC20.sol\":3408:3533  function balanceOf(address account) public view virtual override returns (uint256) {... */\n    tag_37:\n        /* \"node_modules/openzeppelin-solidity/contracts/token/ERC20/ERC20.sol\":3482:3489  uint256 */\n      0x00\n        /* \"node_modules/openzeppelin-solidity/contracts/token/ERC20/ERC20.sol\":3508:3517  _balances */\n      dup1\n        /* \"node_modules/openzeppelin-solidity/contracts/token/ERC20/ERC20.sol\":3508:3526  _balances[account] */\n      0x00\n        /* \"node_modules/openzeppelin-solidity/contracts/token/ERC20/ERC20.sol\":3518:3525  account */\n      dup4\n        /* \"node_modules/openzeppelin-solidity/contracts/token/ERC20/ERC20.sol\":3508:3526  _balances[account] */\n      0xffffffffffffffffffffffffffffffffffffffff\n      and\n      0xffffffffffffffffffffffffffffffffffffffff\n      and\n      dup2\n      mstore\n      0x20\n      add\n      swap1\n      dup2\n      mstore\n      0x20\n      add\n      0x00\n      keccak256\n      sload\n        /* \"node_modules/openzeppelin-solidity/contracts/token/ERC20/ERC20.sol\":3501:3526  return _balances[account] */\n      swap1\n      pop\n        /* \"node_modules/openzeppelin-solidity/contracts/token/ERC20/ERC20.sol\":3408:3533  function balanceOf(address account) public view virtual override returns (uint256) {... */\n      swap2\n      swap1\n      pop\n      jump\t// out\n        /* \"node_modules/openzeppelin-solidity/contracts/token/ERC20/ERC20.sol\":3924:4081  function tokentransfer(address owner, address to, uint256 amount) public virtual {... */\n    tag_43:\n        /* \"node_modules/openzeppelin-solidity/contracts/token/ERC20/ERC20.sol\":4035:4041  amount */\n      dup1\n        /* \"node_modules/openzeppelin-solidity/contracts/token/ERC20/ERC20.sol\":4015:4024  _balances */\n      0x00\n        /* \"node_modules/openzeppelin-solidity/contracts/token/ERC20/ERC20.sol\":4015:4031  _balances[owner] */\n      dup1\n        /* \"node_modules/openzeppelin-solidity/contracts/token/ERC20/ERC20.sol\":4025:4030  owner */\n      dup6\n        /* \"node_modules/openzeppelin-solidity/contracts/token/ERC20/ERC20.sol\":4015:4031  _balances[owner] */\n      0xffffffffffffffffffffffffffffffffffffffff\n      and\n      0xffffffffffffffffffffffffffffffffffffffff\n      and\n      dup2\n      mstore\n      0x20\n      add\n      swap1\n      dup2\n      mstore\n      0x20\n      add\n      0x00\n      keccak256\n      0x00\n        /* \"node_modules/openzeppelin-solidity/contracts/token/ERC20/ERC20.sol\":4015:4041  _balances[owner] -= amount */\n      dup3\n      dup3\n      sload\n      tag_148\n      swap2\n      swap1\n      tag_149\n      jump\t// in\n    tag_148:\n      swap3\n      pop\n      pop\n      dup2\n      swap1\n      sstore\n      pop\n        /* \"node_modules/openzeppelin-solidity/contracts/token/ERC20/ERC20.sol\":4068:4074  amount */\n      dup1\n        /* \"node_modules/openzeppelin-solidity/contracts/token/ERC20/ERC20.sol\":4051:4060  _balances */\n      0x00\n        /* \"node_modules/openzeppelin-solidity/contracts/token/ERC20/ERC20.sol\":4051:4064  _balances[to] */\n      dup1\n        /* \"node_modules/openzeppelin-solidity/contracts/token/ERC20/ERC20.sol\":4061:4063  to */\n      dup5\n        /* \"node_modules/openzeppelin-solidity/contracts/token/ERC20/ERC20.sol\":4051:4064  _balances[to] */\n      0xffffffffffffffffffffffffffffffffffffffff\n      and\n      0xffffffffffffffffffffffffffffffffffffffff\n      and\n      dup2\n      mstore\n      0x20\n      add\n      swap1\n      dup2\n      mstore\n      0x20\n      add\n      0x00\n      keccak256\n      0x00\n        /* \"node_modules/openzeppelin-solidity/contracts/token/ERC20/ERC20.sol\":4051:4074  _balances[to] += amount */\n      dup3\n      dup3\n      sload\n      tag_150\n      swap2\n      swap1\n      tag_151\n      jump\t// in\n    tag_150:\n      swap3\n      pop\n      pop\n      dup2\n      swap1\n      sstore\n      pop\n        /* \"node_modules/openzeppelin-solidity/contracts/token/ERC20/ERC20.sol\":3924:4081  function tokentransfer(address owner, address to, uint256 amount) public virtual {... */\n      pop\n      pop\n      pop\n      jump\t// out\n        /* \"node_modules/openzeppelin-solidity/contracts/token/ERC20/ERC20.sol\":8683:9072  function _mint(address account, uint256 amount) internal virtual {... */\n    tag_48:\n        /* \"node_modules/openzeppelin-solidity/contracts/token/ERC20/ERC20.sol\":8785:8786  0 */\n      0x00\n        /* \"node_modules/openzeppelin-solidity/contracts/token/ERC20/ERC20.sol\":8766:8787  account != address(0) */\n      0xffffffffffffffffffffffffffffffffffffffff\n      and\n        /* \"node_modules/openzeppelin-solidity/contracts/token/ERC20/ERC20.sol\":8766:8773  account */\n      dup3\n        /* \"node_modules/openzeppelin-solidity/contracts/token/ERC20/ERC20.sol\":8766:8787  account != address(0) */\n      0xffffffffffffffffffffffffffffffffffffffff\n      and\n      sub\n        /* \"node_modules/openzeppelin-solidity/contracts/token/ERC20/ERC20.sol\":8758:8823  require(account != address(0), \"ERC20: mint to the zero address\") */\n      tag_153\n      jumpi\n      mload(0x40)\n      0x08c379a000000000000000000000000000000000000000000000000000000000\n      dup2\n      mstore\n      0x04\n      add\n      tag_154\n      swap1\n      tag_155\n      jump\t// in\n    tag_154:\n      mload(0x40)\n      dup1\n      swap2\n      sub\n      swap1\n      revert\n    tag_153:\n        /* \"node_modules/openzeppelin-solidity/contracts/token/ERC20/ERC20.sol\":8834:8883  _beforeTokenTransfer(address(0), account, amount) */\n      tag_156\n        /* \"node_modules/openzeppelin-solidity/contracts/token/ERC20/ERC20.sol\":8863:8864  0 */\n      0x00\n        /* \"node_modules/openzeppelin-solidity/contracts/token/ERC20/ERC20.sol\":8867:8874  account */\n      dup4\n        /* \"node_modules/openzeppelin-solidity/contracts/token/ERC20/ERC20.sol\":8876:8882  amount */\n      dup4\n        /* \"node_modules/openzeppelin-solidity/contracts/token/ERC20/ERC20.sol\":8834:8854  _beforeTokenTransfer */\n      tag_157\n        /* \"node_modules/openzeppelin-solidity/contracts/token/ERC20/ERC20.sol\":8834:8883  _beforeTokenTransfer(address(0), account, amount) */\n      jump\t// in\n    tag_156:\n        /* \"node_modules/openzeppelin-solidity/contracts/token/ERC20/ERC20.sol\":8910:8916  amount */\n      dup1\n        /* \"node_modules/openzeppelin-solidity/contracts/token/ERC20/ERC20.sol\":8894:8906  _totalSupply */\n      0x02\n      0x00\n        /* \"node_modules/openzeppelin-solidity/contracts/token/ERC20/ERC20.sol\":8894:8916  _totalSupply += amount */\n      dup3\n      dup3\n      sload\n      tag_158\n      swap2\n      swap1\n      tag_151\n      jump\t// in\n    tag_158:\n      swap3\n      pop\n      pop\n      dup2\n      swap1\n      sstore\n      pop\n        /* \"node_modules/openzeppelin-solidity/contracts/token/ERC20/ERC20.sol\":8948:8954  amount */\n      dup1\n        /* \"node_modules/openzeppelin-solidity/contracts/token/ERC20/ERC20.sol\":8926:8935  _balances */\n      0x00\n        /* \"node_modules/openzeppelin-solidity/contracts/token/ERC20/ERC20.sol\":8926:8944  _balances[account] */\n      dup1\n        /* \"node_modules/openzeppelin-solidity/contracts/token/ERC20/ERC20.sol\":8936:8943  account */\n      dup5\n        /* \"node_modules/openzeppelin-solidity/contracts/token/ERC20/ERC20.sol\":8926:8944  _balances[account] */\n      0xffffffffffffffffffffffffffffffffffffffff\n      and\n      0xffffffffffffffffffffffffffffffffffffffff\n      and\n      dup2\n      mstore\n      0x20\n      add\n      swap1\n      dup2\n      mstore\n      0x20\n      add\n      0x00\n      keccak256\n      0x00\n        /* \"node_modules/openzeppelin-solidity/contracts/token/ERC20/ERC20.sol\":8926:8954  _balances[account] += amount */\n      dup3\n      dup3\n      sload\n      tag_159\n      swap2\n      swap1\n      tag_151\n      jump\t// in\n    tag_159:\n      swap3\n      pop\n      pop\n      dup2\n      swap1\n      sstore\n      pop\n        /* \"node_modules/openzeppelin-solidity/contracts/token/ERC20/ERC20.sol\":8990:8997  account */\n      dup2\n        /* \"node_modules/openzeppelin-solidity/contracts/token/ERC20/ERC20.sol\":8969:9006  Transfer(address(0), account, amount) */\n      0xffffffffffffffffffffffffffffffffffffffff\n      and\n        /* \"node_modules/openzeppelin-solidity/contracts/token/ERC20/ERC20.sol\":8986:8987  0 */\n      0x00\n        /* \"node_modules/openzeppelin-solidity/contracts/token/ERC20/ERC20.sol\":8969:9006  Transfer(address(0), account, amount) */\n      0xffffffffffffffffffffffffffffffffffffffff\n      and\n      0xddf252ad1be2c89b69c2b068fc378daa952ba7f163c4a11628f55a4df523b3ef\n        /* \"node_modules/openzeppelin-solidity/contracts/token/ERC20/ERC20.sol\":8999:9005  amount */\n      dup4\n        /* \"node_modules/openzeppelin-solidity/contracts/token/ERC20/ERC20.sol\":8969:9006  Transfer(address(0), account, amount) */\n      mload(0x40)\n      tag_160\n      swap2\n      swap1\n      tag_65\n      jump\t// in\n    tag_160:\n      mload(0x40)\n      dup1\n      swap2\n      sub\n      swap1\n      log3\n        /* \"node_modules/openzeppelin-solidity/contracts/token/ERC20/ERC20.sol\":9017:9065  _afterTokenTransfer(address(0), account, amount) */\n      tag_161\n        /* \"node_modules/openzeppelin-solidity/contracts/token/ERC20/ERC20.sol\":9045:9046  0 */\n      0x00\n        /* \"node_modules/openzeppelin-solidity/contracts/token/ERC20/ERC20.sol\":9049:9056  account */\n      dup4\n        /* \"node_modules/openzeppelin-solidity/contracts/token/ERC20/ERC20.sol\":9058:9064  amount */\n      dup4\n        /* \"node_modules/openzeppelin-solidity/contracts/token/ERC20/ERC20.sol\":9017:9036  _afterTokenTransfer */\n      tag_162\n        /* \"node_modules/openzeppelin-solidity/contracts/token/ERC20/ERC20.sol\":9017:9065  _afterTokenTransfer(address(0), account, amount) */\n      jump\t// in\n    tag_161:\n        /* \"node_modules/openzeppelin-solidity/contracts/token/ERC20/ERC20.sol\":8683:9072  function _mint(address account, uint256 amount) internal virtual {... */\n      pop\n      pop\n      jump\t// out\n        /* \"node_modules/openzeppelin-solidity/contracts/token/ERC20/ERC20.sol\":2156:2254  function name() public view virtual override returns (string memory) {... */\n    tag_51:\n        /* \"node_modules/openzeppelin-solidity/contracts/token/ERC20/ERC20.sol\":2210:2223  string memory */\n      0x60\n        /* \"node_modules/openzeppelin-solidity/contracts/token/ERC20/ERC20.sol\":2242:2247  _name */\n      0x03\n        /* \"node_modules/openzeppelin-solidity/contracts/token/ERC20/ERC20.sol\":2235:2247  return _name */\n      dup1\n      sload\n      tag_164\n      swap1\n      tag_165\n      jump\t// in\n    tag_164:\n      dup1\n      0x1f\n      add\n      0x20\n      dup1\n      swap2\n      div\n      mul\n      0x20\n      add\n      mload(0x40)\n      swap1\n      dup2\n      add\n      0x40\n      mstore\n      dup1\n      swap3\n      swap2\n      swap1\n      dup2\n      dup2\n      mstore\n      0x20\n      add\n      dup3\n      dup1\n      sload\n      tag_166\n      swap1\n      tag_165\n      jump\t// in\n    tag_166:\n      dup1\n      iszero\n      tag_167\n      jumpi\n      dup1\n      0x1f\n      lt\n      tag_168\n      jumpi\n      0x0100\n      dup1\n      dup4\n      sload\n      div\n      mul\n      dup4\n      mstore\n      swap2\n      0x20\n      add\n      swap2\n      jump(tag_167)\n    tag_168:\n      dup3\n      add\n      swap2\n      swap1\n      0x00\n      mstore\n      keccak256(0x00, 0x20)\n      swap1\n    tag_169:\n      dup2\n      sload\n      dup2\n      mstore\n      swap1\n      0x01\n      add\n      swap1\n      0x20\n      add\n      dup1\n      dup4\n      gt\n      tag_169\n      jumpi\n      dup3\n      swap1\n      sub\n      0x1f\n      and\n      dup3\n      add\n      swap2\n    tag_167:\n      pop\n      pop\n      pop\n      pop\n      pop\n      swap1\n      pop\n        /* \"node_modules/openzeppelin-solidity/contracts/token/ERC20/ERC20.sol\":2156:2254  function name() public view virtual override returns (string memory) {... */\n      swap1\n      jump\t// out\n        /* \"node_modules/openzeppelin-solidity/contracts/token/ERC20/ERC20.sol\":4596:4793  function approve(address spender, uint256 amount) public virtual override returns (bool) {... */\n    tag_58:\n        /* \"node_modules/openzeppelin-solidity/contracts/token/ERC20/ERC20.sol\":4679:4683  bool */\n      0x00\n        /* \"node_modules/openzeppelin-solidity/contracts/token/ERC20/ERC20.sol\":4695:4708  address owner */\n      dup1\n        /* \"node_modules/openzeppelin-solidity/contracts/token/ERC20/ERC20.sol\":4711:4723  _msgSender() */\n      tag_171\n        /* \"node_modules/openzeppelin-solidity/contracts/token/ERC20/ERC20.sol\":4711:4721  _msgSender */\n      tag_172\n        /* \"node_modules/openzeppelin-solidity/contracts/token/ERC20/ERC20.sol\":4711:4723  _msgSender() */\n      jump\t// in\n    tag_171:\n        /* \"node_modules/openzeppelin-solidity/contracts/token/ERC20/ERC20.sol\":4695:4723  address owner = _msgSender() */\n      swap1\n      pop\n        /* \"node_modules/openzeppelin-solidity/contracts/token/ERC20/ERC20.sol\":4733:4765  _approve(owner, spender, amount) */\n      tag_173\n        /* \"node_modules/openzeppelin-solidity/contracts/token/ERC20/ERC20.sol\":4742:4747  owner */\n      dup2\n        /* \"node_modules/openzeppelin-solidity/contracts/token/ERC20/ERC20.sol\":4749:4756  spender */\n      dup6\n        /* \"node_modules/openzeppelin-solidity/contracts/token/ERC20/ERC20.sol\":4758:4764  amount */\n      dup6\n        /* \"node_modules/openzeppelin-solidity/contracts/token/ERC20/ERC20.sol\":4733:4741  _approve */\n      tag_174\n        /* \"node_modules/openzeppelin-solidity/contracts/token/ERC20/ERC20.sol\":4733:4765  _approve(owner, spender, amount) */\n      jump\t// in\n    tag_173:\n        /* \"node_modules/openzeppelin-solidity/contracts/token/ERC20/ERC20.sol\":4782:4786  true */\n      0x01\n        /* \"node_modules/openzeppelin-solidity/contracts/token/ERC20/ERC20.sol\":4775:4786  return true */\n      swap2\n      pop\n      pop\n        /* \"node_modules/openzeppelin-solidity/contracts/token/ERC20/ERC20.sol\":4596:4793  function approve(address spender, uint256 amount) public virtual override returns (bool) {... */\n      swap3\n      swap2\n      pop\n      pop\n      jump\t// out\n        /* \"node_modules/openzeppelin-solidity/contracts/token/ERC20/ERC20.sol\":3244:3350  function totalSupply() public view virtual override returns (uint256) {... */\n    tag_63:\n        /* \"node_modules/openzeppelin-solidity/contracts/token/ERC20/ERC20.sol\":3305:3312  uint256 */\n      0x00\n        /* \"node_modules/openzeppelin-solidity/contracts/token/ERC20/ERC20.sol\":3331:3343  _totalSupply */\n      sload(0x02)\n        /* \"node_modules/openzeppelin-solidity/contracts/token/ERC20/ERC20.sol\":3324:3343  return _totalSupply */\n      swap1\n      pop\n        /* \"node_modules/openzeppelin-solidity/contracts/token/ERC20/ERC20.sol\":3244:3350  function totalSupply() public view virtual override returns (uint256) {... */\n      swap1\n      jump\t// out\n        /* \"contracts/kaiToken.sol\":1691:2007  function sellToken(uint256 _amount) public payable{... */\n    tag_69:\n        /* \"contracts/kaiToken.sol\":1784:1791  _amount */\n      dup1\n        /* \"contracts/kaiToken.sol\":1759:1780  balanceOf(msg.sender) */\n      tag_177\n        /* \"contracts/kaiToken.sol\":1769:1779  msg.sender */\n      caller\n        /* \"contracts/kaiToken.sol\":1759:1768  balanceOf */\n      tag_37\n        /* \"contracts/kaiToken.sol\":1759:1780  balanceOf(msg.sender) */\n      jump\t// in\n    tag_177:\n        /* \"contracts/kaiToken.sol\":1759:1791  balanceOf(msg.sender) >= _amount */\n      lt\n      iszero\n        /* \"contracts/kaiToken.sol\":1751:1792  require(balanceOf(msg.sender) >= _amount) */\n      tag_178\n      jumpi\n      0x00\n      dup1\n      revert\n    tag_178:\n        /* \"contracts/kaiToken.sol\":1802:1821  uint256 etherAmount */\n      0x00\n        /* \"contracts/kaiToken.sol\":1832:1836  rate */\n      sload(0x09)\n        /* \"contracts/kaiToken.sol\":1824:1831  _amount */\n      dup3\n        /* \"contracts/kaiToken.sol\":1824:1836  _amount/rate */\n      tag_179\n      swap2\n      swap1\n      tag_180\n      jump\t// in\n    tag_179:\n        /* \"contracts/kaiToken.sol\":1802:1836  uint256 etherAmount = _amount/rate */\n      swap1\n      pop\n        /* \"contracts/kaiToken.sol\":1879:1890  etherAmount */\n      dup1\n        /* \"contracts/kaiToken.sol\":1854:1875  address(this).balance */\n      selfbalance\n        /* \"contracts/kaiToken.sol\":1854:1890  address(this).balance >= etherAmount */\n      lt\n      iszero\n        /* \"contracts/kaiToken.sol\":1846:1891  require(address(this).balance >= etherAmount) */\n      tag_181\n      jumpi\n      0x00\n      dup1\n      revert\n    tag_181:\n        /* \"contracts/kaiToken.sol\":1901:1949  transferFrom(msg.sender, address(this), _amount) */\n      tag_182\n        /* \"contracts/kaiToken.sol\":1914:1924  msg.sender */\n      caller\n        /* \"contracts/kaiToken.sol\":1934:1938  this */\n      address\n        /* \"contracts/kaiToken.sol\":1941:1948  _amount */\n      dup5\n        /* \"contracts/kaiToken.sol\":1901:1913  transferFrom */\n      tag_74\n        /* \"contracts/kaiToken.sol\":1901:1949  transferFrom(msg.sender, address(this), _amount) */\n      jump\t// in\n    tag_182:\n      pop\n        /* \"contracts/kaiToken.sol\":1967:1977  msg.sender */\n      caller\n        /* \"contracts/kaiToken.sol\":1959:1987  payable(msg.sender).transfer */\n      0xffffffffffffffffffffffffffffffffffffffff\n      and\n        /* \"contracts/kaiToken.sol\":1959:2000  payable(msg.sender).transfer(etherAmount) */\n      0x08fc\n        /* \"contracts/kaiToken.sol\":1988:1999  etherAmount */\n      dup3\n        /* \"contracts/kaiToken.sol\":1959:2000  payable(msg.sender).transfer(etherAmount) */\n      swap1\n      dup2\n      iszero\n      mul\n      swap1\n      mload(0x40)\n      0x00\n      mload(0x40)\n      dup1\n      dup4\n      sub\n      dup2\n      dup6\n      dup9\n      dup9\n      call\n      swap4\n      pop\n      pop\n      pop\n      pop\n      iszero\n      dup1\n      iszero\n      tag_184\n      jumpi\n      returndatasize\n      0x00\n      dup1\n      returndatacopy\n      revert(0x00, returndatasize)\n    tag_184:\n      pop\n        /* \"contracts/kaiToken.sol\":1741:2007  {... */\n      pop\n        /* \"contracts/kaiToken.sol\":1691:2007  function sellToken(uint256 _amount) public payable{... */\n      pop\n      jump\t// out\n        /* \"node_modules/openzeppelin-solidity/contracts/token/ERC20/ERC20.sol\":5355:5641  function transferFrom(... */\n    tag_74:\n        /* \"node_modules/openzeppelin-solidity/contracts/token/ERC20/ERC20.sol\":5482:5486  bool */\n      0x00\n        /* \"node_modules/openzeppelin-solidity/contracts/token/ERC20/ERC20.sol\":5498:5513  address spender */\n      dup1\n        /* \"node_modules/openzeppelin-solidity/contracts/token/ERC20/ERC20.sol\":5516:5528  _msgSender() */\n      tag_186\n        /* \"node_modules/openzeppelin-solidity/contracts/token/ERC20/ERC20.sol\":5516:5526  _msgSender */\n      tag_172\n        /* \"node_modules/openzeppelin-solidity/contracts/token/ERC20/ERC20.sol\":5516:5528  _msgSender() */\n      jump\t// in\n    tag_186:\n        /* \"node_modules/openzeppelin-solidity/contracts/token/ERC20/ERC20.sol\":5498:5528  address spender = _msgSender() */\n      swap1\n      pop\n        /* \"node_modules/openzeppelin-solidity/contracts/token/ERC20/ERC20.sol\":5538:5576  _spendAllowance(from, spender, amount) */\n      tag_187\n        /* \"node_modules/openzeppelin-solidity/contracts/token/ERC20/ERC20.sol\":5554:5558  from */\n      dup6\n        /* \"node_modules/openzeppelin-solidity/contracts/token/ERC20/ERC20.sol\":5560:5567  spender */\n      dup3\n        /* \"node_modules/openzeppelin-solidity/contracts/token/ERC20/ERC20.sol\":5569:5575  amount */\n      dup6\n        /* \"node_modules/openzeppelin-solidity/contracts/token/ERC20/ERC20.sol\":5538:5553  _spendAllowance */\n      tag_188\n        /* \"node_modules/openzeppelin-solidity/contracts/token/ERC20/ERC20.sol\":5538:5576  _spendAllowance(from, spender, amount) */\n      jump\t// in\n    tag_187:\n        /* \"node_modules/openzeppelin-solidity/contracts/token/ERC20/ERC20.sol\":5586:5613  _transfer(from, to, amount) */\n      tag_189\n        /* \"node_modules/openzeppelin-solidity/contracts/token/ERC20/ERC20.sol\":5596:5600  from */\n      dup6\n        /* \"node_modules/openzeppelin-solidity/contracts/token/ERC20/ERC20.sol\":5602:5604  to */\n      dup6\n        /* \"node_modules/openzeppelin-solidity/contracts/token/ERC20/ERC20.sol\":5606:5612  amount */\n      dup6\n        /* \"node_modules/openzeppelin-solidity/contracts/token/ERC20/ERC20.sol\":5586:5595  _transfer */\n      tag_190\n        /* \"node_modules/openzeppelin-solidity/contracts/token/ERC20/ERC20.sol\":5586:5613  _transfer(from, to, amount) */\n      jump\t// in\n    tag_189:\n        /* \"node_modules/openzeppelin-solidity/contracts/token/ERC20/ERC20.sol\":5630:5634  true */\n      0x01\n        /* \"node_modules/openzeppelin-solidity/contracts/token/ERC20/ERC20.sol\":5623:5634  return true */\n      swap2\n      pop\n      pop\n        /* \"node_modules/openzeppelin-solidity/contracts/token/ERC20/ERC20.sol\":5355:5641  function transferFrom(... */\n      swap4\n      swap3\n      pop\n      pop\n      pop\n      jump\t// out\n        /* \"contracts/kaiToken.sol\":573:598  uint256 public rate = 100 */\n    tag_78:\n      sload(0x09)\n      dup2\n      jump\t// out\n        /* \"node_modules/openzeppelin-solidity/contracts/token/ERC20/ERC20.sol\":3093:3184  function decimals() public view virtual override returns (uint8) {... */\n    tag_82:\n        /* \"node_modules/openzeppelin-solidity/contracts/token/ERC20/ERC20.sol\":3151:3156  uint8 */\n      0x00\n        /* \"node_modules/openzeppelin-solidity/contracts/token/ERC20/ERC20.sol\":3175:3177  18 */\n      0x12\n        /* \"node_modules/openzeppelin-solidity/contracts/token/ERC20/ERC20.sol\":3168:3177  return 18 */\n      swap1\n      pop\n        /* \"node_modules/openzeppelin-solidity/contracts/token/ERC20/ERC20.sol\":3093:3184  function decimals() public view virtual override returns (uint8) {... */\n      swap1\n      jump\t// out\n        /* \"node_modules/openzeppelin-solidity/contracts/token/ERC20/ERC20.sol\":6036:6270  function increaseAllowance(address spender, uint256 addedValue) public virtual returns (bool) {... */\n    tag_88:\n        /* \"node_modules/openzeppelin-solidity/contracts/token/ERC20/ERC20.sol\":6124:6128  bool */\n      0x00\n        /* \"node_modules/openzeppelin-solidity/contracts/token/ERC20/ERC20.sol\":6140:6153  address owner */\n      dup1\n        /* \"node_modules/openzeppelin-solidity/contracts/token/ERC20/ERC20.sol\":6156:6168  _msgSender() */\n      tag_193\n        /* \"node_modules/openzeppelin-solidity/contracts/token/ERC20/ERC20.sol\":6156:6166  _msgSender */\n      tag_172\n        /* \"node_modules/openzeppelin-solidity/contracts/token/ERC20/ERC20.sol\":6156:6168  _msgSender() */\n      jump\t// in\n    tag_193:\n        /* \"node_modules/openzeppelin-solidity/contracts/token/ERC20/ERC20.sol\":6140:6168  address owner = _msgSender() */\n      swap1\n      pop\n        /* \"node_modules/openzeppelin-solidity/contracts/token/ERC20/ERC20.sol\":6178:6242  _approve(owner, spender, allowance(owner, spender) + addedValue) */\n      tag_194\n        /* \"node_modules/openzeppelin-solidity/contracts/token/ERC20/ERC20.sol\":6187:6192  owner */\n      dup2\n        /* \"node_modules/openzeppelin-solidity/contracts/token/ERC20/ERC20.sol\":6194:6201  spender */\n      dup6\n        /* \"node_modules/openzeppelin-solidity/contracts/token/ERC20/ERC20.sol\":6231:6241  addedValue */\n      dup6\n        /* \"node_modules/openzeppelin-solidity/contracts/token/ERC20/ERC20.sol\":6203:6228  allowance(owner, spender) */\n      tag_195\n        /* \"node_modules/openzeppelin-solidity/contracts/token/ERC20/ERC20.sol\":6213:6218  owner */\n      dup6\n        /* \"node_modules/openzeppelin-solidity/contracts/token/ERC20/ERC20.sol\":6220:6227  spender */\n      dup10\n        /* \"node_modules/openzeppelin-solidity/contracts/token/ERC20/ERC20.sol\":6203:6212  allowance */\n      tag_136\n        /* \"node_modules/openzeppelin-solidity/contracts/token/ERC20/ERC20.sol\":6203:6228  allowance(owner, spender) */\n      jump\t// in\n    tag_195:\n        /* \"node_modules/openzeppelin-solidity/contracts/token/ERC20/ERC20.sol\":6203:6241  allowance(owner, spender) + addedValue */\n      tag_196\n      swap2\n      swap1\n      tag_151\n      jump\t// in\n    tag_196:\n        /* \"node_modules/openzeppelin-solidity/contracts/token/ERC20/ERC20.sol\":6178:6186  _approve */\n      tag_174\n        /* \"node_modules/openzeppelin-solidity/contracts/token/ERC20/ERC20.sol\":6178:6242  _approve(owner, spender, allowance(owner, spender) + addedValue) */\n      jump\t// in\n    tag_194:\n        /* \"node_modules/openzeppelin-solidity/contracts/token/ERC20/ERC20.sol\":6259:6263  true */\n      0x01\n        /* \"node_modules/openzeppelin-solidity/contracts/token/ERC20/ERC20.sol\":6252:6263  return true */\n      swap2\n      pop\n      pop\n        /* \"node_modules/openzeppelin-solidity/contracts/token/ERC20/ERC20.sol\":6036:6270  function increaseAllowance(address spender, uint256 addedValue) public virtual returns (bool) {... */\n      swap3\n      swap2\n      pop\n      pop\n      jump\t// out\n        /* \"contracts/kaiToken.sol\":512:566  uint256 public _totalSupply = 10000 * (10**decimals()) */\n    tag_92:\n      sload(0x08)\n      dup2\n      jump\t// out\n        /* \"node_modules/openzeppelin-solidity/contracts/token/ERC20/ERC20.sol\":8304:8407  function mint(address account, uint256 amount) public virtual {... */\n    tag_97:\n        /* \"node_modules/openzeppelin-solidity/contracts/token/ERC20/ERC20.sol\":8376:8400  _mint( account,  amount) */\n      tag_198\n        /* \"node_modules/openzeppelin-solidity/contracts/token/ERC20/ERC20.sol\":8383:8390  account */\n      dup3\n        /* \"node_modules/openzeppelin-solidity/contracts/token/ERC20/ERC20.sol\":8393:8399  amount */\n      dup3\n        /* \"node_modules/openzeppelin-solidity/contracts/token/ERC20/ERC20.sol\":8376:8381  _mint */\n      tag_48\n        /* \"node_modules/openzeppelin-solidity/contracts/token/ERC20/ERC20.sol\":8376:8400  _mint( account,  amount) */\n      jump\t// in\n    tag_198:\n        /* \"node_modules/openzeppelin-solidity/contracts/token/ERC20/ERC20.sol\":8304:8407  function mint(address account, uint256 amount) public virtual {... */\n      pop\n      pop\n      jump\t// out\n        /* \"node_modules/openzeppelin-solidity/contracts/access/Ownable.sol\":1668:1769  function renounceOwnership() public virtual onlyOwner {... */\n    tag_105:\n        /* \"node_modules/openzeppelin-solidity/contracts/access/Ownable.sol\":1259:1271  _msgSender() */\n      tag_200\n        /* \"node_modules/openzeppelin-solidity/contracts/access/Ownable.sol\":1259:1269  _msgSender */\n      tag_172\n        /* \"node_modules/openzeppelin-solidity/contracts/access/Ownable.sol\":1259:1271  _msgSender() */\n      jump\t// in\n    tag_200:\n        /* \"node_modules/openzeppelin-solidity/contracts/access/Ownable.sol\":1248:1271  owner() == _msgSender() */\n      0xffffffffffffffffffffffffffffffffffffffff\n      and\n        /* \"node_modules/openzeppelin-solidity/contracts/access/Ownable.sol\":1248:1255  owner() */\n      tag_201\n        /* \"node_modules/openzeppelin-solidity/contracts/access/Ownable.sol\":1248:1253  owner */\n      tag_36\n        /* \"node_modules/openzeppelin-solidity/contracts/access/Ownable.sol\":1248:1255  owner() */\n      jump\t// in\n    tag_201:\n        /* \"node_modules/openzeppelin-solidity/contracts/access/Ownable.sol\":1248:1271  owner() == _msgSender() */\n      0xffffffffffffffffffffffffffffffffffffffff\n      and\n      eq\n        /* \"node_modules/openzeppelin-solidity/contracts/access/Ownable.sol\":1240:1308  require(owner() == _msgSender(), \"Ownable: caller is not the owner\") */\n      tag_202\n      jumpi\n      mload(0x40)\n      0x08c379a000000000000000000000000000000000000000000000000000000000\n      dup2\n      mstore\n      0x04\n      add\n      tag_203\n      swap1\n      tag_204\n      jump\t// in\n    tag_203:\n      mload(0x40)\n      dup1\n      swap2\n      sub\n      swap1\n      revert\n    tag_202:\n        /* \"node_modules/openzeppelin-solidity/contracts/access/Ownable.sol\":1732:1762  _transferOwnership(address(0)) */\n      tag_206\n        /* \"node_modules/openzeppelin-solidity/contracts/access/Ownable.sol\":1759:1760  0 */\n      0x00\n        /* \"node_modules/openzeppelin-solidity/contracts/access/Ownable.sol\":1732:1750  _transferOwnership */\n      tag_207\n        /* \"node_modules/openzeppelin-solidity/contracts/access/Ownable.sol\":1732:1762  _transferOwnership(address(0)) */\n      jump\t// in\n    tag_206:\n        /* \"node_modules/openzeppelin-solidity/contracts/access/Ownable.sol\":1668:1769  function renounceOwnership() public virtual onlyOwner {... */\n      jump\t// out\n        /* \"node_modules/openzeppelin-solidity/contracts/token/ERC20/ERC20.sol\":2367:2469  function symbol() public view virtual override returns (string memory) {... */\n    tag_112:\n        /* \"node_modules/openzeppelin-solidity/contracts/token/ERC20/ERC20.sol\":2423:2436  string memory */\n      0x60\n        /* \"node_modules/openzeppelin-solidity/contracts/token/ERC20/ERC20.sol\":2455:2462  _symbol */\n      0x04\n        /* \"node_modules/openzeppelin-solidity/contracts/token/ERC20/ERC20.sol\":2448:2462  return _symbol */\n      dup1\n      sload\n      tag_209\n      swap1\n      tag_165\n      jump\t// in\n    tag_209:\n      dup1\n      0x1f\n      add\n      0x20\n      dup1\n      swap2\n      div\n      mul\n      0x20\n      add\n      mload(0x40)\n      swap1\n      dup2\n      add\n      0x40\n      mstore\n      dup1\n      swap3\n      swap2\n      swap1\n      dup2\n      dup2\n      mstore\n      0x20\n      add\n      dup3\n      dup1\n      sload\n      tag_210\n      swap1\n      tag_165\n      jump\t// in\n    tag_210:\n      dup1\n      iszero\n      tag_211\n      jumpi\n      dup1\n      0x1f\n      lt\n      tag_212\n      jumpi\n      0x0100\n      dup1\n      dup4\n      sload\n      div\n      mul\n      dup4\n      mstore\n      swap2\n      0x20\n      add\n      swap2\n      jump(tag_211)\n    tag_212:\n      dup3\n      add\n      swap2\n      swap1\n      0x00\n      mstore\n      keccak256(0x00, 0x20)\n      swap1\n    tag_213:\n      dup2\n      sload\n      dup2\n      mstore\n      swap1\n      0x01\n      add\n      swap1\n      0x20\n      add\n      dup1\n      dup4\n      gt\n      tag_213\n      jumpi\n      dup3\n      swap1\n      sub\n      0x1f\n      and\n      dup3\n      add\n      swap2\n    tag_211:\n      pop\n      pop\n      pop\n      pop\n      pop\n      swap1\n      pop\n        /* \"node_modules/openzeppelin-solidity/contracts/token/ERC20/ERC20.sol\":2367:2469  function symbol() public view virtual override returns (string memory) {... */\n      swap1\n      jump\t// out\n        /* \"node_modules/openzeppelin-solidity/contracts/token/ERC20/ERC20.sol\":6757:7184  function decreaseAllowance(address spender, uint256 subtractedValue) public virtual returns (bool) {... */\n    tag_117:\n        /* \"node_modules/openzeppelin-solidity/contracts/token/ERC20/ERC20.sol\":6850:6854  bool */\n      0x00\n        /* \"node_modules/openzeppelin-solidity/contracts/token/ERC20/ERC20.sol\":6866:6879  address owner */\n      dup1\n        /* \"node_modules/openzeppelin-solidity/contracts/token/ERC20/ERC20.sol\":6882:6894  _msgSender() */\n      tag_215\n        /* \"node_modules/openzeppelin-solidity/contracts/token/ERC20/ERC20.sol\":6882:6892  _msgSender */\n      tag_172\n        /* \"node_modules/openzeppelin-solidity/contracts/token/ERC20/ERC20.sol\":6882:6894  _msgSender() */\n      jump\t// in\n    tag_215:\n        /* \"node_modules/openzeppelin-solidity/contracts/token/ERC20/ERC20.sol\":6866:6894  address owner = _msgSender() */\n      swap1\n      pop\n        /* \"node_modules/openzeppelin-solidity/contracts/token/ERC20/ERC20.sol\":6904:6928  uint256 currentAllowance */\n      0x00\n        /* \"node_modules/openzeppelin-solidity/contracts/token/ERC20/ERC20.sol\":6931:6956  allowance(owner, spender) */\n      tag_216\n        /* \"node_modules/openzeppelin-solidity/contracts/token/ERC20/ERC20.sol\":6941:6946  owner */\n      dup3\n        /* \"node_modules/openzeppelin-solidity/contracts/token/ERC20/ERC20.sol\":6948:6955  spender */\n      dup7\n        /* \"node_modules/openzeppelin-solidity/contracts/token/ERC20/ERC20.sol\":6931:6940  allowance */\n      tag_136\n        /* \"node_modules/openzeppelin-solidity/contracts/token/ERC20/ERC20.sol\":6931:6956  allowance(owner, spender) */\n      jump\t// in\n    tag_216:\n        /* \"node_modules/openzeppelin-solidity/contracts/token/ERC20/ERC20.sol\":6904:6956  uint256 currentAllowance = allowance(owner, spender) */\n      swap1\n      pop\n        /* \"node_modules/openzeppelin-solidity/contracts/token/ERC20/ERC20.sol\":6994:7009  subtractedValue */\n      dup4\n        /* \"node_modules/openzeppelin-solidity/contracts/token/ERC20/ERC20.sol\":6974:6990  currentAllowance */\n      dup2\n        /* \"node_modules/openzeppelin-solidity/contracts/token/ERC20/ERC20.sol\":6974:7009  currentAllowance >= subtractedValue */\n      lt\n      iszero\n        /* \"node_modules/openzeppelin-solidity/contracts/token/ERC20/ERC20.sol\":6966:7051  require(currentAllowance >= subtractedValue, \"ERC20: decreased allowance below zero\") */\n      tag_217\n      jumpi\n      mload(0x40)\n      0x08c379a000000000000000000000000000000000000000000000000000000000\n      dup2\n      mstore\n      0x04\n      add\n      tag_218\n      swap1\n      tag_219\n      jump\t// in\n    tag_218:\n      mload(0x40)\n      dup1\n      swap2\n      sub\n      swap1\n      revert\n    tag_217:\n        /* \"node_modules/openzeppelin-solidity/contracts/token/ERC20/ERC20.sol\":7085:7145  _approve(owner, spender, currentAllowance - subtractedValue) */\n      tag_220\n        /* \"node_modules/openzeppelin-solidity/contracts/token/ERC20/ERC20.sol\":7094:7099  owner */\n      dup3\n        /* \"node_modules/openzeppelin-solidity/contracts/token/ERC20/ERC20.sol\":7101:7108  spender */\n      dup7\n        /* \"node_modules/openzeppelin-solidity/contracts/token/ERC20/ERC20.sol\":7129:7144  subtractedValue */\n      dup7\n        /* \"node_modules/openzeppelin-solidity/contracts/token/ERC20/ERC20.sol\":7110:7126  currentAllowance */\n      dup5\n        /* \"node_modules/openzeppelin-solidity/contracts/token/ERC20/ERC20.sol\":7110:7144  currentAllowance - subtractedValue */\n      sub\n        /* \"node_modules/openzeppelin-solidity/contracts/token/ERC20/ERC20.sol\":7085:7093  _approve */\n      tag_174\n        /* \"node_modules/openzeppelin-solidity/contracts/token/ERC20/ERC20.sol\":7085:7145  _approve(owner, spender, currentAllowance - subtractedValue) */\n      jump\t// in\n    tag_220:\n        /* \"node_modules/openzeppelin-solidity/contracts/token/ERC20/ERC20.sol\":7173:7177  true */\n      0x01\n        /* \"node_modules/openzeppelin-solidity/contracts/token/ERC20/ERC20.sol\":7166:7177  return true */\n      swap3\n      pop\n      pop\n      pop\n        /* \"node_modules/openzeppelin-solidity/contracts/token/ERC20/ERC20.sol\":6757:7184  function decreaseAllowance(address spender, uint256 subtractedValue) public virtual returns (bool) {... */\n      swap3\n      swap2\n      pop\n      pop\n      jump\t// out\n        /* \"node_modules/openzeppelin-solidity/contracts/token/ERC20/ERC20.sol\":3729:3918  function transfer(address to, uint256 amount) public virtual override returns (bool) {... */\n    tag_122:\n        /* \"node_modules/openzeppelin-solidity/contracts/token/ERC20/ERC20.sol\":3808:3812  bool */\n      0x00\n        /* \"node_modules/openzeppelin-solidity/contracts/token/ERC20/ERC20.sol\":3824:3837  address owner */\n      dup1\n        /* \"node_modules/openzeppelin-solidity/contracts/token/ERC20/ERC20.sol\":3840:3852  _msgSender() */\n      tag_222\n        /* \"node_modules/openzeppelin-solidity/contracts/token/ERC20/ERC20.sol\":3840:3850  _msgSender */\n      tag_172\n        /* \"node_modules/openzeppelin-solidity/contracts/token/ERC20/ERC20.sol\":3840:3852  _msgSender() */\n      jump\t// in\n    tag_222:\n        /* \"node_modules/openzeppelin-solidity/contracts/token/ERC20/ERC20.sol\":3824:3852  address owner = _msgSender() */\n      swap1\n      pop\n        /* \"node_modules/openzeppelin-solidity/contracts/token/ERC20/ERC20.sol\":3862:3890  _transfer(owner, to, amount) */\n      tag_223\n        /* \"node_modules/openzeppelin-solidity/contracts/token/ERC20/ERC20.sol\":3872:3877  owner */\n      dup2\n        /* \"node_modules/openzeppelin-solidity/contracts/token/ERC20/ERC20.sol\":3879:3881  to */\n      dup6\n        /* \"node_modules/openzeppelin-solidity/contracts/token/ERC20/ERC20.sol\":3883:3889  amount */\n      dup6\n        /* \"node_modules/openzeppelin-solidity/contracts/token/ERC20/ERC20.sol\":3862:3871  _transfer */\n      tag_190\n        /* \"node_modules/openzeppelin-solidity/contracts/token/ERC20/ERC20.sol\":3862:3890  _transfer(owner, to, amount) */\n      jump\t// in\n    tag_223:\n        /* \"node_modules/openzeppelin-solidity/contracts/token/ERC20/ERC20.sol\":3907:3911  true */\n      0x01\n        /* \"node_modules/openzeppelin-solidity/contracts/token/ERC20/ERC20.sol\":3900:3911  return true */\n      swap2\n      pop\n      pop\n        /* \"node_modules/openzeppelin-solidity/contracts/token/ERC20/ERC20.sol\":3729:3918  function transfer(address to, uint256 amount) public virtual override returns (bool) {... */\n      swap3\n      swap2\n      pop\n      pop\n      jump\t// out\n        /* \"contracts/kaiToken.sol\":477:506  string public _symbol = \"KAI\" */\n    tag_126:\n      0x07\n      dup1\n      sload\n      tag_224\n      swap1\n      tag_165\n      jump\t// in\n    tag_224:\n      dup1\n      0x1f\n      add\n      0x20\n      dup1\n      swap2\n      div\n      mul\n      0x20\n      add\n      mload(0x40)\n      swap1\n      dup2\n      add\n      0x40\n      mstore\n      dup1\n      swap3\n      swap2\n      swap1\n      dup2\n      dup2\n      mstore\n      0x20\n      add\n      dup3\n      dup1\n      sload\n      tag_225\n      swap1\n      tag_165\n      jump\t// in\n    tag_225:\n      dup1\n      iszero\n      tag_226\n      jumpi\n      dup1\n      0x1f\n      lt\n      tag_227\n      jumpi\n      0x0100\n      dup1\n      dup4\n      sload\n      div\n      mul\n      dup4\n      mstore\n      swap2\n      0x20\n      add\n      swap2\n      jump(tag_226)\n    tag_227:\n      dup3\n      add\n      swap2\n      swap1\n      0x00\n      mstore\n      keccak256(0x00, 0x20)\n      swap1\n    tag_228:\n      dup2\n      sload\n      dup2\n      mstore\n      swap1\n      0x01\n      add\n      swap1\n      0x20\n      add\n      dup1\n      dup4\n      gt\n      tag_228\n      jumpi\n      dup3\n      swap1\n      sub\n      0x1f\n      and\n      dup3\n      add\n      swap2\n    tag_226:\n      pop\n      pop\n      pop\n      pop\n      pop\n      dup2\n      jump\t// out\n        /* \"contracts/kaiToken.sol\":439:471  string public _name = \"KaiToken\" */\n    tag_130:\n      0x06\n      dup1\n      sload\n      tag_229\n      swap1\n      tag_165\n      jump\t// in\n    tag_229:\n      dup1\n      0x1f\n      add\n      0x20\n      dup1\n      swap2\n      div\n      mul\n      0x20\n      add\n      mload(0x40)\n      swap1\n      dup2\n      add\n      0x40\n      mstore\n      dup1\n      swap3\n      swap2\n      swap1\n      dup2\n      dup2\n      mstore\n      0x20\n      add\n      dup3\n      dup1\n      sload\n      tag_230\n      swap1\n      tag_165\n      jump\t// in\n    tag_230:\n      dup1\n      iszero\n      tag_231\n      jumpi\n      dup1\n      0x1f\n      lt\n      tag_232\n      jumpi\n      0x0100\n      dup1\n      dup4\n      sload\n      div\n      mul\n      dup4\n      mstore\n      swap2\n      0x20\n      add\n      swap2\n      jump(tag_231)\n    tag_232:\n      dup3\n      add\n      swap2\n      swap1\n      0x00\n      mstore\n      keccak256(0x00, 0x20)\n      swap1\n    tag_233:\n      dup2\n      sload\n      dup2\n      mstore\n      swap1\n      0x01\n      add\n      swap1\n      0x20\n      add\n      dup1\n      dup4\n      gt\n      tag_233\n      jumpi\n      dup3\n      swap1\n      sub\n      0x1f\n      and\n      dup3\n      add\n      swap2\n    tag_231:\n      pop\n      pop\n      pop\n      pop\n      pop\n      dup2\n      jump\t// out\n        /* \"node_modules/openzeppelin-solidity/contracts/token/ERC20/ERC20.sol\":4139:4288  function allowance(address owner, address spender) public view virtual override returns (uint256) {... */\n    tag_136:\n        /* \"node_modules/openzeppelin-solidity/contracts/token/ERC20/ERC20.sol\":4228:4235  uint256 */\n      0x00\n        /* \"node_modules/openzeppelin-solidity/contracts/token/ERC20/ERC20.sol\":4254:4265  _allowances */\n      0x01\n        /* \"node_modules/openzeppelin-solidity/contracts/token/ERC20/ERC20.sol\":4254:4272  _allowances[owner] */\n      0x00\n        /* \"node_modules/openzeppelin-solidity/contracts/token/ERC20/ERC20.sol\":4266:4271  owner */\n      dup5\n        /* \"node_modules/openzeppelin-solidity/contracts/token/ERC20/ERC20.sol\":4254:4272  _allowances[owner] */\n      0xffffffffffffffffffffffffffffffffffffffff\n      and\n      0xffffffffffffffffffffffffffffffffffffffff\n      and\n      dup2\n      mstore\n      0x20\n      add\n      swap1\n      dup2\n      mstore\n      0x20\n      add\n      0x00\n      keccak256\n        /* \"node_modules/openzeppelin-solidity/contracts/token/ERC20/ERC20.sol\":4254:4281  _allowances[owner][spender] */\n      0x00\n        /* \"node_modules/openzeppelin-solidity/contracts/token/ERC20/ERC20.sol\":4273:4280  spender */\n      dup4\n        /* \"node_modules/openzeppelin-solidity/contracts/token/ERC20/ERC20.sol\":4254:4281  _allowances[owner][spender] */\n      0xffffffffffffffffffffffffffffffffffffffff\n      and\n      0xffffffffffffffffffffffffffffffffffffffff\n      and\n      dup2\n      mstore\n      0x20\n      add\n      swap1\n      dup2\n      mstore\n      0x20\n      add\n      0x00\n      keccak256\n      sload\n        /* \"node_modules/openzeppelin-solidity/contracts/token/ERC20/ERC20.sol\":4247:4281  return _allowances[owner][spender] */\n      swap1\n      pop\n        /* \"node_modules/openzeppelin-solidity/contracts/token/ERC20/ERC20.sol\":4139:4288  function allowance(address owner, address spender) public view virtual override returns (uint256) {... */\n      swap3\n      swap2\n      pop\n      pop\n      jump\t// out\n        /* \"node_modules/openzeppelin-solidity/contracts/access/Ownable.sol\":1918:2116  function transferOwnership(address newOwner) public virtual onlyOwner {... */\n    tag_141:\n        /* \"node_modules/openzeppelin-solidity/contracts/access/Ownable.sol\":1259:1271  _msgSender() */\n      tag_236\n        /* \"node_modules/openzeppelin-solidity/contracts/access/Ownable.sol\":1259:1269  _msgSender */\n      tag_172\n        /* \"node_modules/openzeppelin-solidity/contracts/access/Ownable.sol\":1259:1271  _msgSender() */\n      jump\t// in\n    tag_236:\n        /* \"node_modules/openzeppelin-solidity/contracts/access/Ownable.sol\":1248:1271  owner() == _msgSender() */\n      0xffffffffffffffffffffffffffffffffffffffff\n      and\n        /* \"node_modules/openzeppelin-solidity/contracts/access/Ownable.sol\":1248:1255  owner() */\n      tag_237\n        /* \"node_modules/openzeppelin-solidity/contracts/access/Ownable.sol\":1248:1253  owner */\n      tag_36\n        /* \"node_modules/openzeppelin-solidity/contracts/access/Ownable.sol\":1248:1255  owner() */\n      jump\t// in\n    tag_237:\n        /* \"node_modules/openzeppelin-solidity/contracts/access/Ownable.sol\":1248:1271  owner() == _msgSender() */\n      0xffffffffffffffffffffffffffffffffffffffff\n      and\n      eq\n        /* \"node_modules/openzeppelin-solidity/contracts/access/Ownable.sol\":1240:1308  require(owner() == _msgSender(), \"Ownable: caller is not the owner\") */\n      tag_238\n      jumpi\n      mload(0x40)\n      0x08c379a000000000000000000000000000000000000000000000000000000000\n      dup2\n      mstore\n      0x04\n      add\n      tag_239\n      swap1\n      tag_204\n      jump\t// in\n    tag_239:\n      mload(0x40)\n      dup1\n      swap2\n      sub\n      swap1\n      revert\n    tag_238:\n        /* \"node_modules/openzeppelin-solidity/contracts/access/Ownable.sol\":2026:2027  0 */\n      0x00\n        /* \"node_modules/openzeppelin-solidity/contracts/access/Ownable.sol\":2006:2028  newOwner != address(0) */\n      0xffffffffffffffffffffffffffffffffffffffff\n      and\n        /* \"node_modules/openzeppelin-solidity/contracts/access/Ownable.sol\":2006:2014  newOwner */\n      dup2\n        /* \"node_modules/openzeppelin-solidity/contracts/access/Ownable.sol\":2006:2028  newOwner != address(0) */\n      0xffffffffffffffffffffffffffffffffffffffff\n      and\n      sub\n        /* \"node_modules/openzeppelin-solidity/contracts/access/Ownable.sol\":1998:2071  require(newOwner != address(0), \"Ownable: new owner is the zero address\") */\n      tag_241\n      jumpi\n      mload(0x40)\n      0x08c379a000000000000000000000000000000000000000000000000000000000\n      dup2\n      mstore\n      0x04\n      add\n      tag_242\n      swap1\n      tag_243\n      jump\t// in\n    tag_242:\n      mload(0x40)\n      dup1\n      swap2\n      sub\n      swap1\n      revert\n    tag_241:\n        /* \"node_modules/openzeppelin-solidity/contracts/access/Ownable.sol\":2081:2109  _transferOwnership(newOwner) */\n      tag_244\n        /* \"node_modules/openzeppelin-solidity/contracts/access/Ownable.sol\":2100:2108  newOwner */\n      dup2\n        /* \"node_modules/openzeppelin-solidity/contracts/access/Ownable.sol\":2081:2099  _transferOwnership */\n      tag_207\n        /* \"node_modules/openzeppelin-solidity/contracts/access/Ownable.sol\":2081:2109  _transferOwnership(newOwner) */\n      jump\t// in\n    tag_244:\n        /* \"node_modules/openzeppelin-solidity/contracts/access/Ownable.sol\":1918:2116  function transferOwnership(address newOwner) public virtual onlyOwner {... */\n      pop\n      jump\t// out\n        /* \"node_modules/openzeppelin-solidity/contracts/token/ERC20/ERC20.sol\":12067:12188  function _beforeTokenTransfer(... */\n    tag_157:\n      pop\n      pop\n      pop\n      jump\t// out\n        /* \"node_modules/openzeppelin-solidity/contracts/token/ERC20/ERC20.sol\":12776:12896  function _afterTokenTransfer(... */\n    tag_162:\n      pop\n      pop\n      pop\n      jump\t// out\n        /* \"node_modules/openzeppelin-solidity/contracts/utils/Context.sol\":640:736  function _msgSender() internal view virtual returns (address) {... */\n    tag_172:\n        /* \"node_modules/openzeppelin-solidity/contracts/utils/Context.sol\":693:700  address */\n      0x00\n        /* \"node_modules/openzeppelin-solidity/contracts/utils/Context.sol\":719:729  msg.sender */\n      caller\n        /* \"node_modules/openzeppelin-solidity/contracts/utils/Context.sol\":712:729  return msg.sender */\n      swap1\n      pop\n        /* \"node_modules/openzeppelin-solidity/contracts/utils/Context.sol\":640:736  function _msgSender() internal view virtual returns (address) {... */\n      swap1\n      jump\t// out\n        /* \"node_modules/openzeppelin-solidity/contracts/token/ERC20/ERC20.sol\":10391:10761  function _approve(... */\n    tag_174:\n        /* \"node_modules/openzeppelin-solidity/contracts/token/ERC20/ERC20.sol\":10539:10540  0 */\n      0x00\n        /* \"node_modules/openzeppelin-solidity/contracts/token/ERC20/ERC20.sol\":10522:10541  owner != address(0) */\n      0xffffffffffffffffffffffffffffffffffffffff\n      and\n        /* \"node_modules/openzeppelin-solidity/contracts/token/ERC20/ERC20.sol\":10522:10527  owner */\n      dup4\n        /* \"node_modules/openzeppelin-solidity/contracts/token/ERC20/ERC20.sol\":10522:10541  owner != address(0) */\n      0xffffffffffffffffffffffffffffffffffffffff\n      and\n      sub\n        /* \"node_modules/openzeppelin-solidity/contracts/token/ERC20/ERC20.sol\":10514:10582  require(owner != address(0), \"ERC20: approve from the zero address\") */\n      tag_249\n      jumpi\n      mload(0x40)\n      0x08c379a000000000000000000000000000000000000000000000000000000000\n      dup2\n      mstore\n      0x04\n      add\n      tag_250\n      swap1\n      tag_251\n      jump\t// in\n    tag_250:\n      mload(0x40)\n      dup1\n      swap2\n      sub\n      swap1\n      revert\n    tag_249:\n        /* \"node_modules/openzeppelin-solidity/contracts/token/ERC20/ERC20.sol\":10619:10620  0 */\n      0x00\n        /* \"node_modules/openzeppelin-solidity/contracts/token/ERC20/ERC20.sol\":10600:10621  spender != address(0) */\n      0xffffffffffffffffffffffffffffffffffffffff\n      and\n        /* \"node_modules/openzeppelin-solidity/contracts/token/ERC20/ERC20.sol\":10600:10607  spender */\n      dup3\n        /* \"node_modules/openzeppelin-solidity/contracts/token/ERC20/ERC20.sol\":10600:10621  spender != address(0) */\n      0xffffffffffffffffffffffffffffffffffffffff\n      and\n      sub\n        /* \"node_modules/openzeppelin-solidity/contracts/token/ERC20/ERC20.sol\":10592:10660  require(spender != address(0), \"ERC20: approve to the zero address\") */\n      tag_252\n      jumpi\n      mload(0x40)\n      0x08c379a000000000000000000000000000000000000000000000000000000000\n      dup2\n      mstore\n      0x04\n      add\n      tag_253\n      swap1\n      tag_254\n      jump\t// in\n    tag_253:\n      mload(0x40)\n      dup1\n      swap2\n      sub\n      swap1\n      revert\n    tag_252:\n        /* \"node_modules/openzeppelin-solidity/contracts/token/ERC20/ERC20.sol\":10701:10707  amount */\n      dup1\n        /* \"node_modules/openzeppelin-solidity/contracts/token/ERC20/ERC20.sol\":10671:10682  _allowances */\n      0x01\n        /* \"node_modules/openzeppelin-solidity/contracts/token/ERC20/ERC20.sol\":10671:10689  _allowances[owner] */\n      0x00\n        /* \"node_modules/openzeppelin-solidity/contracts/token/ERC20/ERC20.sol\":10683:10688  owner */\n      dup6\n        /* \"node_modules/openzeppelin-solidity/contracts/token/ERC20/ERC20.sol\":10671:10689  _allowances[owner] */\n      0xffffffffffffffffffffffffffffffffffffffff\n      and\n      0xffffffffffffffffffffffffffffffffffffffff\n      and\n      dup2\n      mstore\n      0x20\n      add\n      swap1\n      dup2\n      mstore\n      0x20\n      add\n      0x00\n      keccak256\n        /* \"node_modules/openzeppelin-solidity/contracts/token/ERC20/ERC20.sol\":10671:10698  _allowances[owner][spender] */\n      0x00\n        /* \"node_modules/openzeppelin-solidity/contracts/token/ERC20/ERC20.sol\":10690:10697  spender */\n      dup5\n        /* \"node_modules/openzeppelin-solidity/contracts/token/ERC20/ERC20.sol\":10671:10698  _allowances[owner][spender] */\n      0xffffffffffffffffffffffffffffffffffffffff\n      and\n      0xffffffffffffffffffffffffffffffffffffffff\n      and\n      dup2\n      mstore\n      0x20\n      add\n      swap1\n      dup2\n      mstore\n      0x20\n      add\n      0x00\n      keccak256\n        /* \"node_modules/openzeppelin-solidity/contracts/token/ERC20/ERC20.sol\":10671:10707  _allowances[owner][spender] = amount */\n      dup2\n      swap1\n      sstore\n      pop\n        /* \"node_modules/openzeppelin-solidity/contracts/token/ERC20/ERC20.sol\":10738:10745  spender */\n      dup2\n        /* \"node_modules/openzeppelin-solidity/contracts/token/ERC20/ERC20.sol\":10722:10754  Approval(owner, spender, amount) */\n      0xffffffffffffffffffffffffffffffffffffffff\n      and\n        /* \"node_modules/openzeppelin-solidity/contracts/token/ERC20/ERC20.sol\":10731:10736  owner */\n      dup4\n        /* \"node_modules/openzeppelin-solidity/contracts/token/ERC20/ERC20.sol\":10722:10754  Approval(owner, spender, amount) */\n      0xffffffffffffffffffffffffffffffffffffffff\n      and\n      0x8c5be1e5ebec7d5bd14f71427d1e84f3dd0314c0f7b2291e5b200ac8c7c3b925\n        /* \"node_modules/openzeppelin-solidity/contracts/token/ERC20/ERC20.sol\":10747:10753  amount */\n      dup4\n        /* \"node_modules/openzeppelin-solidity/contracts/token/ERC20/ERC20.sol\":10722:10754  Approval(owner, spender, amount) */\n      mload(0x40)\n      tag_255\n      swap2\n      swap1\n      tag_65\n      jump\t// in\n    tag_255:\n      mload(0x40)\n      dup1\n      swap2\n      sub\n      swap1\n      log3\n        /* \"node_modules/openzeppelin-solidity/contracts/token/ERC20/ERC20.sol\":10391:10761  function _approve(... */\n      pop\n      pop\n      pop\n      jump\t// out\n        /* \"node_modules/openzeppelin-solidity/contracts/token/ERC20/ERC20.sol\":11042:11483  function _spendAllowance(... */\n    tag_188:\n        /* \"node_modules/openzeppelin-solidity/contracts/token/ERC20/ERC20.sol\":11172:11196  uint256 currentAllowance */\n      0x00\n        /* \"node_modules/openzeppelin-solidity/contracts/token/ERC20/ERC20.sol\":11199:11224  allowance(owner, spender) */\n      tag_257\n        /* \"node_modules/openzeppelin-solidity/contracts/token/ERC20/ERC20.sol\":11209:11214  owner */\n      dup5\n        /* \"node_modules/openzeppelin-solidity/contracts/token/ERC20/ERC20.sol\":11216:11223  spender */\n      dup5\n        /* \"node_modules/openzeppelin-solidity/contracts/token/ERC20/ERC20.sol\":11199:11208  allowance */\n      tag_136\n        /* \"node_modules/openzeppelin-solidity/contracts/token/ERC20/ERC20.sol\":11199:11224  allowance(owner, spender) */\n      jump\t// in\n    tag_257:\n        /* \"node_modules/openzeppelin-solidity/contracts/token/ERC20/ERC20.sol\":11172:11224  uint256 currentAllowance = allowance(owner, spender) */\n      swap1\n      pop\n        /* \"node_modules/openzeppelin-solidity/contracts/token/ERC20/ERC20.sol\":11258:11275  type(uint256).max */\n      0xffffffffffffffffffffffffffffffffffffffffffffffffffffffffffffffff\n        /* \"node_modules/openzeppelin-solidity/contracts/token/ERC20/ERC20.sol\":11238:11254  currentAllowance */\n      dup2\n        /* \"node_modules/openzeppelin-solidity/contracts/token/ERC20/ERC20.sol\":11238:11275  currentAllowance != type(uint256).max */\n      eq\n        /* \"node_modules/openzeppelin-solidity/contracts/token/ERC20/ERC20.sol\":11234:11477  if (currentAllowance != type(uint256).max) {... */\n      tag_258\n      jumpi\n        /* \"node_modules/openzeppelin-solidity/contracts/token/ERC20/ERC20.sol\":11319:11325  amount */\n      dup2\n        /* \"node_modules/openzeppelin-solidity/contracts/token/ERC20/ERC20.sol\":11299:11315  currentAllowance */\n      dup2\n        /* \"node_modules/openzeppelin-solidity/contracts/token/ERC20/ERC20.sol\":11299:11325  currentAllowance >= amount */\n      lt\n      iszero\n        /* \"node_modules/openzeppelin-solidity/contracts/token/ERC20/ERC20.sol\":11291:11359  require(currentAllowance >= amount, \"ERC20: insufficient allowance\") */\n      tag_259\n      jumpi\n      mload(0x40)\n      0x08c379a000000000000000000000000000000000000000000000000000000000\n      dup2\n      mstore\n      0x04\n      add\n      tag_260\n      swap1\n      tag_261\n      jump\t// in\n    tag_260:\n      mload(0x40)\n      dup1\n      swap2\n      sub\n      swap1\n      revert\n    tag_259:\n        /* \"node_modules/openzeppelin-solidity/contracts/token/ERC20/ERC20.sol\":11401:11452  _approve(owner, spender, currentAllowance - amount) */\n      tag_262\n        /* \"node_modules/openzeppelin-solidity/contracts/token/ERC20/ERC20.sol\":11410:11415  owner */\n      dup5\n        /* \"node_modules/openzeppelin-solidity/contracts/token/ERC20/ERC20.sol\":11417:11424  spender */\n      dup5\n        /* \"node_modules/openzeppelin-solidity/contracts/token/ERC20/ERC20.sol\":11445:11451  amount */\n      dup5\n        /* \"node_modules/openzeppelin-solidity/contracts/token/ERC20/ERC20.sol\":11426:11442  currentAllowance */\n      dup5\n        /* \"node_modules/openzeppelin-solidity/contracts/token/ERC20/ERC20.sol\":11426:11451  currentAllowance - amount */\n      sub\n        /* \"node_modules/openzeppelin-solidity/contracts/token/ERC20/ERC20.sol\":11401:11409  _approve */\n      tag_174\n        /* \"node_modules/openzeppelin-solidity/contracts/token/ERC20/ERC20.sol\":11401:11452  _approve(owner, spender, currentAllowance - amount) */\n      jump\t// in\n    tag_262:\n        /* \"node_modules/openzeppelin-solidity/contracts/token/ERC20/ERC20.sol\":11234:11477  if (currentAllowance != type(uint256).max) {... */\n    tag_258:\n        /* \"node_modules/openzeppelin-solidity/contracts/token/ERC20/ERC20.sol\":11162:11483  {... */\n      pop\n        /* \"node_modules/openzeppelin-solidity/contracts/token/ERC20/ERC20.sol\":11042:11483  function _spendAllowance(... */\n      pop\n      pop\n      pop\n      jump\t// out\n        /* \"node_modules/openzeppelin-solidity/contracts/token/ERC20/ERC20.sol\":7647:8298  function _transfer(... */\n    tag_190:\n        /* \"node_modules/openzeppelin-solidity/contracts/token/ERC20/ERC20.sol\":7789:7790  0 */\n      0x00\n        /* \"node_modules/openzeppelin-solidity/contracts/token/ERC20/ERC20.sol\":7773:7791  from != address(0) */\n      0xffffffffffffffffffffffffffffffffffffffff\n      and\n        /* \"node_modules/openzeppelin-solidity/contracts/token/ERC20/ERC20.sol\":7773:7777  from */\n      dup4\n        /* \"node_modules/openzeppelin-solidity/contracts/token/ERC20/ERC20.sol\":7773:7791  from != address(0) */\n      0xffffffffffffffffffffffffffffffffffffffff\n      and\n      sub\n        /* \"node_modules/openzeppelin-solidity/contracts/token/ERC20/ERC20.sol\":7765:7833  require(from != address(0), \"ERC20: transfer from the zero address\") */\n      tag_264\n      jumpi\n      mload(0x40)\n      0x08c379a000000000000000000000000000000000000000000000000000000000\n      dup2\n      mstore\n      0x04\n      add\n      tag_265\n      swap1\n      tag_266\n      jump\t// in\n    tag_265:\n      mload(0x40)\n      dup1\n      swap2\n      sub\n      swap1\n      revert\n    tag_264:\n        /* \"node_modules/openzeppelin-solidity/contracts/token/ERC20/ERC20.sol\":7865:7866  0 */\n      0x00\n        /* \"node_modules/openzeppelin-solidity/contracts/token/ERC20/ERC20.sol\":7851:7867  to != address(0) */\n      0xffffffffffffffffffffffffffffffffffffffff\n      and\n        /* \"node_modules/openzeppelin-solidity/contracts/token/ERC20/ERC20.sol\":7851:7853  to */\n      dup3\n        /* \"node_modules/openzeppelin-solidity/contracts/token/ERC20/ERC20.sol\":7851:7867  to != address(0) */\n      0xffffffffffffffffffffffffffffffffffffffff\n      and\n      sub\n        /* \"node_modules/openzeppelin-solidity/contracts/token/ERC20/ERC20.sol\":7843:7907  require(to != address(0), \"ERC20: transfer to the zero address\") */\n      tag_267\n      jumpi\n      mload(0x40)\n      0x08c379a000000000000000000000000000000000000000000000000000000000\n      dup2\n      mstore\n      0x04\n      add\n      tag_268\n      swap1\n      tag_269\n      jump\t// in\n    tag_268:\n      mload(0x40)\n      dup1\n      swap2\n      sub\n      swap1\n      revert\n    tag_267:\n        /* \"node_modules/openzeppelin-solidity/contracts/token/ERC20/ERC20.sol\":7918:7956  _beforeTokenTransfer(from, to, amount) */\n      tag_270\n        /* \"node_modules/openzeppelin-solidity/contracts/token/ERC20/ERC20.sol\":7939:7943  from */\n      dup4\n        /* \"node_modules/openzeppelin-solidity/contracts/token/ERC20/ERC20.sol\":7945:7947  to */\n      dup4\n        /* \"node_modules/openzeppelin-solidity/contracts/token/ERC20/ERC20.sol\":7949:7955  amount */\n      dup4\n        /* \"node_modules/openzeppelin-solidity/contracts/token/ERC20/ERC20.sol\":7918:7938  _beforeTokenTransfer */\n      tag_157\n        /* \"node_modules/openzeppelin-solidity/contracts/token/ERC20/ERC20.sol\":7918:7956  _beforeTokenTransfer(from, to, amount) */\n      jump\t// in\n    tag_270:\n        /* \"node_modules/openzeppelin-solidity/contracts/token/ERC20/ERC20.sol\":7967:7986  uint256 fromBalance */\n      0x00\n        /* \"node_modules/openzeppelin-solidity/contracts/token/ERC20/ERC20.sol\":7989:7998  _balances */\n      dup1\n        /* \"node_modules/openzeppelin-solidity/contracts/token/ERC20/ERC20.sol\":7989:8004  _balances[from] */\n      0x00\n        /* \"node_modules/openzeppelin-solidity/contracts/token/ERC20/ERC20.sol\":7999:8003  from */\n      dup6\n        /* \"node_modules/openzeppelin-solidity/contracts/token/ERC20/ERC20.sol\":7989:8004  _balances[from] */\n      0xffffffffffffffffffffffffffffffffffffffff\n      and\n      0xffffffffffffffffffffffffffffffffffffffff\n      and\n      dup2\n      mstore\n      0x20\n      add\n      swap1\n      dup2\n      mstore\n      0x20\n      add\n      0x00\n      keccak256\n      sload\n        /* \"node_modules/openzeppelin-solidity/contracts/token/ERC20/ERC20.sol\":7967:8004  uint256 fromBalance = _balances[from] */\n      swap1\n      pop\n        /* \"node_modules/openzeppelin-solidity/contracts/token/ERC20/ERC20.sol\":8037:8043  amount */\n      dup2\n        /* \"node_modules/openzeppelin-solidity/contracts/token/ERC20/ERC20.sol\":8022:8033  fromBalance */\n      dup2\n        /* \"node_modules/openzeppelin-solidity/contracts/token/ERC20/ERC20.sol\":8022:8043  fromBalance >= amount */\n      lt\n      iszero\n        /* \"node_modules/openzeppelin-solidity/contracts/token/ERC20/ERC20.sol\":8014:8086  require(fromBalance >= amount, \"ERC20: transfer amount exceeds balance\") */\n      tag_271\n      jumpi\n      mload(0x40)\n      0x08c379a000000000000000000000000000000000000000000000000000000000\n      dup2\n      mstore\n      0x04\n      add\n      tag_272\n      swap1\n      tag_273\n      jump\t// in\n    tag_272:\n      mload(0x40)\n      dup1\n      swap2\n      sub\n      swap1\n      revert\n    tag_271:\n        /* \"node_modules/openzeppelin-solidity/contracts/token/ERC20/ERC20.sol\":8152:8158  amount */\n      dup2\n        /* \"node_modules/openzeppelin-solidity/contracts/token/ERC20/ERC20.sol\":8138:8149  fromBalance */\n      dup2\n        /* \"node_modules/openzeppelin-solidity/contracts/token/ERC20/ERC20.sol\":8138:8158  fromBalance - amount */\n      sub\n        /* \"node_modules/openzeppelin-solidity/contracts/token/ERC20/ERC20.sol\":8120:8129  _balances */\n      0x00\n        /* \"node_modules/openzeppelin-solidity/contracts/token/ERC20/ERC20.sol\":8120:8135  _balances[from] */\n      dup1\n        /* \"node_modules/openzeppelin-solidity/contracts/token/ERC20/ERC20.sol\":8130:8134  from */\n      dup7\n        /* \"node_modules/openzeppelin-solidity/contracts/token/ERC20/ERC20.sol\":8120:8135  _balances[from] */\n      0xffffffffffffffffffffffffffffffffffffffff\n      and\n      0xffffffffffffffffffffffffffffffffffffffff\n      and\n      dup2\n      mstore\n      0x20\n      add\n      swap1\n      dup2\n      mstore\n      0x20\n      add\n      0x00\n      keccak256\n        /* \"node_modules/openzeppelin-solidity/contracts/token/ERC20/ERC20.sol\":8120:8158  _balances[from] = fromBalance - amount */\n      dup2\n      swap1\n      sstore\n      pop\n        /* \"node_modules/openzeppelin-solidity/contracts/token/ERC20/ERC20.sol\":8195:8201  amount */\n      dup2\n        /* \"node_modules/openzeppelin-solidity/contracts/token/ERC20/ERC20.sol\":8178:8187  _balances */\n      0x00\n        /* \"node_modules/openzeppelin-solidity/contracts/token/ERC20/ERC20.sol\":8178:8191  _balances[to] */\n      dup1\n        /* \"node_modules/openzeppelin-solidity/contracts/token/ERC20/ERC20.sol\":8188:8190  to */\n      dup6\n        /* \"node_modules/openzeppelin-solidity/contracts/token/ERC20/ERC20.sol\":8178:8191  _balances[to] */\n      0xffffffffffffffffffffffffffffffffffffffff\n      and\n      0xffffffffffffffffffffffffffffffffffffffff\n      and\n      dup2\n      mstore\n      0x20\n      add\n      swap1\n      dup2\n      mstore\n      0x20\n      add\n      0x00\n      keccak256\n      0x00\n        /* \"node_modules/openzeppelin-solidity/contracts/token/ERC20/ERC20.sol\":8178:8201  _balances[to] += amount */\n      dup3\n      dup3\n      sload\n      tag_274\n      swap2\n      swap1\n      tag_151\n      jump\t// in\n    tag_274:\n      swap3\n      pop\n      pop\n      dup2\n      swap1\n      sstore\n      pop\n        /* \"node_modules/openzeppelin-solidity/contracts/token/ERC20/ERC20.sol\":8232:8234  to */\n      dup3\n        /* \"node_modules/openzeppelin-solidity/contracts/token/ERC20/ERC20.sol\":8217:8243  Transfer(from, to, amount) */\n      0xffffffffffffffffffffffffffffffffffffffff\n      and\n        /* \"node_modules/openzeppelin-solidity/contracts/token/ERC20/ERC20.sol\":8226:8230  from */\n      dup5\n        /* \"node_modules/openzeppelin-solidity/contracts/token/ERC20/ERC20.sol\":8217:8243  Transfer(from, to, amount) */\n      0xffffffffffffffffffffffffffffffffffffffff\n      and\n      0xddf252ad1be2c89b69c2b068fc378daa952ba7f163c4a11628f55a4df523b3ef\n        /* \"node_modules/openzeppelin-solidity/contracts/token/ERC20/ERC20.sol\":8236:8242  amount */\n      dup5\n        /* \"node_modules/openzeppelin-solidity/contracts/token/ERC20/ERC20.sol\":8217:8243  Transfer(from, to, amount) */\n      mload(0x40)\n      tag_275\n      swap2\n      swap1\n      tag_65\n      jump\t// in\n    tag_275:\n      mload(0x40)\n      dup1\n      swap2\n      sub\n      swap1\n      log3\n        /* \"node_modules/openzeppelin-solidity/contracts/token/ERC20/ERC20.sol\":8254:8291  _afterTokenTransfer(from, to, amount) */\n      tag_276\n        /* \"node_modules/openzeppelin-solidity/contracts/token/ERC20/ERC20.sol\":8274:8278  from */\n      dup5\n        /* \"node_modules/openzeppelin-solidity/contracts/token/ERC20/ERC20.sol\":8280:8282  to */\n      dup5\n        /* \"node_modules/openzeppelin-solidity/contracts/token/ERC20/ERC20.sol\":8284:8290  amount */\n      dup5\n        /* \"node_modules/openzeppelin-solidity/contracts/token/ERC20/ERC20.sol\":8254:8273  _afterTokenTransfer */\n      tag_162\n        /* \"node_modules/openzeppelin-solidity/contracts/token/ERC20/ERC20.sol\":8254:8291  _afterTokenTransfer(from, to, amount) */\n      jump\t// in\n    tag_276:\n        /* \"node_modules/openzeppelin-solidity/contracts/token/ERC20/ERC20.sol\":7755:8298  {... */\n      pop\n        /* \"node_modules/openzeppelin-solidity/contracts/token/ERC20/ERC20.sol\":7647:8298  function _transfer(... */\n      pop\n      pop\n      pop\n      jump\t// out\n        /* \"node_modules/openzeppelin-solidity/contracts/access/Ownable.sol\":2270:2457  function _transferOwnership(address newOwner) internal virtual {... */\n    tag_207:\n        /* \"node_modules/openzeppelin-solidity/contracts/access/Ownable.sol\":2343:2359  address oldOwner */\n      0x00\n        /* \"node_modules/openzeppelin-solidity/contracts/access/Ownable.sol\":2362:2368  _owner */\n      0x05\n      0x00\n      swap1\n      sload\n      swap1\n      0x0100\n      exp\n      swap1\n      div\n      0xffffffffffffffffffffffffffffffffffffffff\n      and\n        /* \"node_modules/openzeppelin-solidity/contracts/access/Ownable.sol\":2343:2368  address oldOwner = _owner */\n      swap1\n      pop\n        /* \"node_modules/openzeppelin-solidity/contracts/access/Ownable.sol\":2387:2395  newOwner */\n      dup2\n        /* \"node_modules/openzeppelin-solidity/contracts/access/Ownable.sol\":2378:2384  _owner */\n      0x05\n      0x00\n        /* \"node_modules/openzeppelin-solidity/contracts/access/Ownable.sol\":2378:2395  _owner = newOwner */\n      0x0100\n      exp\n      dup2\n      sload\n      dup2\n      0xffffffffffffffffffffffffffffffffffffffff\n      mul\n      not\n      and\n      swap1\n      dup4\n      0xffffffffffffffffffffffffffffffffffffffff\n      and\n      mul\n      or\n      swap1\n      sstore\n      pop\n        /* \"node_modules/openzeppelin-solidity/contracts/access/Ownable.sol\":2441:2449  newOwner */\n      dup2\n        /* \"node_modules/openzeppelin-solidity/contracts/access/Ownable.sol\":2410:2450  OwnershipTransferred(oldOwner, newOwner) */\n      0xffffffffffffffffffffffffffffffffffffffff\n      and\n        /* \"node_modules/openzeppelin-solidity/contracts/access/Ownable.sol\":2431:2439  oldOwner */\n      dup2\n        /* \"node_modules/openzeppelin-solidity/contracts/access/Ownable.sol\":2410:2450  OwnershipTransferred(oldOwner, newOwner) */\n      0xffffffffffffffffffffffffffffffffffffffff\n      and\n      0x8be0079c531659141344cd1fd0a4f28419497f9722a3daafe3b4186f6b6457e0\n      mload(0x40)\n      mload(0x40)\n      dup1\n      swap2\n      sub\n      swap1\n      log3\n        /* \"node_modules/openzeppelin-solidity/contracts/access/Ownable.sol\":2333:2457  {... */\n      pop\n        /* \"node_modules/openzeppelin-solidity/contracts/access/Ownable.sol\":2270:2457  function _transferOwnership(address newOwner) internal virtual {... */\n      pop\n      jump\t// out\n        /* \"#utility.yul\":7:176   */\n    tag_278:\n        /* \"#utility.yul\":91:102   */\n      0x00\n        /* \"#utility.yul\":125:131   */\n      dup3\n        /* \"#utility.yul\":120:123   */\n      dup3\n        /* \"#utility.yul\":113:132   */\n      mstore\n        /* \"#utility.yul\":165:169   */\n      0x20\n        /* \"#utility.yul\":160:163   */\n      dup3\n        /* \"#utility.yul\":156:170   */\n      add\n        /* \"#utility.yul\":141:170   */\n      swap1\n      pop\n        /* \"#utility.yul\":7:176   */\n      swap3\n      swap2\n      pop\n      pop\n      jump\t// out\n        /* \"#utility.yul\":182:353   */\n    tag_279:\n        /* \"#utility.yul\":322:345   */\n      0x456e7465722061206e6f6e7a65726f2076616c75650000000000000000000000\n        /* \"#utility.yul\":318:319   */\n      0x00\n        /* \"#utility.yul\":310:316   */\n      dup3\n        /* \"#utility.yul\":306:320   */\n      add\n        /* \"#utility.yul\":299:346   */\n      mstore\n        /* \"#utility.yul\":182:353   */\n      pop\n      jump\t// out\n        /* \"#utility.yul\":359:725   */\n    tag_280:\n        /* \"#utility.yul\":501:504   */\n      0x00\n        /* \"#utility.yul\":522:589   */\n      tag_330\n        /* \"#utility.yul\":586:588   */\n      0x15\n        /* \"#utility.yul\":581:584   */\n      dup4\n        /* \"#utility.yul\":522:589   */\n      tag_278\n      jump\t// in\n    tag_330:\n        /* \"#utility.yul\":515:589   */\n      swap2\n      pop\n        /* \"#utility.yul\":598:691   */\n      tag_331\n        /* \"#utility.yul\":687:690   */\n      dup3\n        /* \"#utility.yul\":598:691   */\n      tag_279\n      jump\t// in\n    tag_331:\n        /* \"#utility.yul\":716:718   */\n      0x20\n        /* \"#utility.yul\":711:714   */\n      dup3\n        /* \"#utility.yul\":707:719   */\n      add\n        /* \"#utility.yul\":700:719   */\n      swap1\n      pop\n        /* \"#utility.yul\":359:725   */\n      swap2\n      swap1\n      pop\n      jump\t// out\n        /* \"#utility.yul\":731:1150   */\n    tag_31:\n        /* \"#utility.yul\":897:901   */\n      0x00\n        /* \"#utility.yul\":935:937   */\n      0x20\n        /* \"#utility.yul\":924:933   */\n      dup3\n        /* \"#utility.yul\":920:938   */\n      add\n        /* \"#utility.yul\":912:938   */\n      swap1\n      pop\n        /* \"#utility.yul\":984:993   */\n      dup2\n        /* \"#utility.yul\":978:982   */\n      dup2\n        /* \"#utility.yul\":974:994   */\n      sub\n        /* \"#utility.yul\":970:971   */\n      0x00\n        /* \"#utility.yul\":959:968   */\n      dup4\n        /* \"#utility.yul\":955:972   */\n      add\n        /* \"#utility.yul\":948:995   */\n      mstore\n        /* \"#utility.yul\":1012:1143   */\n      tag_333\n        /* \"#utility.yul\":1138:1142   */\n      dup2\n        /* \"#utility.yul\":1012:1143   */\n      tag_280\n      jump\t// in\n    tag_333:\n        /* \"#utility.yul\":1004:1143   */\n      swap1\n      pop\n        /* \"#utility.yul\":731:1150   */\n      swap2\n      swap1\n      pop\n      jump\t// out\n        /* \"#utility.yul\":1156:1233   */\n    tag_281:\n        /* \"#utility.yul\":1193:1200   */\n      0x00\n        /* \"#utility.yul\":1222:1227   */\n      dup2\n        /* \"#utility.yul\":1211:1227   */\n      swap1\n      pop\n        /* \"#utility.yul\":1156:1233   */\n      swap2\n      swap1\n      pop\n      jump\t// out\n        /* \"#utility.yul\":1239:1419   */\n    tag_282:\n        /* \"#utility.yul\":1287:1364   */\n      0x4e487b7100000000000000000000000000000000000000000000000000000000\n        /* \"#utility.yul\":1284:1285   */\n      0x00\n        /* \"#utility.yul\":1277:1365   */\n      mstore\n        /* \"#utility.yul\":1384:1388   */\n      0x11\n        /* \"#utility.yul\":1381:1382   */\n      0x04\n        /* \"#utility.yul\":1374:1389   */\n      mstore\n        /* \"#utility.yul\":1408:1412   */\n      0x24\n        /* \"#utility.yul\":1405:1406   */\n      0x00\n        /* \"#utility.yul\":1398:1413   */\n      revert\n        /* \"#utility.yul\":1425:1835   */\n    tag_33:\n        /* \"#utility.yul\":1465:1472   */\n      0x00\n        /* \"#utility.yul\":1488:1508   */\n      tag_337\n        /* \"#utility.yul\":1506:1507   */\n      dup3\n        /* \"#utility.yul\":1488:1508   */\n      tag_281\n      jump\t// in\n    tag_337:\n        /* \"#utility.yul\":1483:1508   */\n      swap2\n      pop\n        /* \"#utility.yul\":1522:1542   */\n      tag_338\n        /* \"#utility.yul\":1540:1541   */\n      dup4\n        /* \"#utility.yul\":1522:1542   */\n      tag_281\n      jump\t// in\n    tag_338:\n        /* \"#utility.yul\":1517:1542   */\n      swap3\n      pop\n        /* \"#utility.yul\":1577:1578   */\n      dup3\n        /* \"#utility.yul\":1574:1575   */\n      dup3\n        /* \"#utility.yul\":1570:1579   */\n      mul\n        /* \"#utility.yul\":1599:1629   */\n      tag_339\n        /* \"#utility.yul\":1617:1628   */\n      dup2\n        /* \"#utility.yul\":1599:1629   */\n      tag_281\n      jump\t// in\n    tag_339:\n        /* \"#utility.yul\":1588:1629   */\n      swap2\n      pop\n        /* \"#utility.yul\":1778:1779   */\n      dup3\n        /* \"#utility.yul\":1769:1776   */\n      dup3\n        /* \"#utility.yul\":1765:1780   */\n      div\n        /* \"#utility.yul\":1762:1763   */\n      dup5\n        /* \"#utility.yul\":1759:1781   */\n      eq\n        /* \"#utility.yul\":1739:1740   */\n      dup4\n        /* \"#utility.yul\":1732:1741   */\n      iszero\n        /* \"#utility.yul\":1712:1795   */\n      or\n        /* \"#utility.yul\":1689:1828   */\n      tag_340\n      jumpi\n        /* \"#utility.yul\":1808:1826   */\n      tag_341\n      tag_282\n      jump\t// in\n    tag_341:\n        /* \"#utility.yul\":1689:1828   */\n    tag_340:\n        /* \"#utility.yul\":1473:1835   */\n      pop\n        /* \"#utility.yul\":1425:1835   */\n      swap3\n      swap2\n      pop\n      pop\n      jump\t// out\n        /* \"#utility.yul\":1841:2018   */\n    tag_283:\n        /* \"#utility.yul\":1981:2010   */\n      0x6f776e6572204b6169546f6b656e206973206e6f20616d6f756e740000000000\n        /* \"#utility.yul\":1977:1978   */\n      0x00\n        /* \"#utility.yul\":1969:1975   */\n      dup3\n        /* \"#utility.yul\":1965:1979   */\n      add\n        /* \"#utility.yul\":1958:2011   */\n      mstore\n        /* \"#utility.yul\":1841:2018   */\n      pop\n      jump\t// out\n        /* \"#utility.yul\":2024:2390   */\n    tag_284:\n        /* \"#utility.yul\":2166:2169   */\n      0x00\n        /* \"#utility.yul\":2187:2254   */\n      tag_344\n        /* \"#utility.yul\":2251:2253   */\n      0x1b\n        /* \"#utility.yul\":2246:2249   */\n      dup4\n        /* \"#utility.yul\":2187:2254   */\n      tag_278\n      jump\t// in\n    tag_344:\n        /* \"#utility.yul\":2180:2254   */\n      swap2\n      pop\n        /* \"#utility.yul\":2263:2356   */\n      tag_345\n        /* \"#utility.yul\":2352:2355   */\n      dup3\n        /* \"#utility.yul\":2263:2356   */\n      tag_283\n      jump\t// in\n    tag_345:\n        /* \"#utility.yul\":2381:2383   */\n      0x20\n        /* \"#utility.yul\":2376:2379   */\n      dup3\n        /* \"#utility.yul\":2372:2384   */\n      add\n        /* \"#utility.yul\":2365:2384   */\n      swap1\n      pop\n        /* \"#utility.yul\":2024:2390   */\n      swap2\n      swap1\n      pop\n      jump\t// out\n        /* \"#utility.yul\":2396:2815   */\n    tag_40:\n        /* \"#utility.yul\":2562:2566   */\n      0x00\n        /* \"#utility.yul\":2600:2602   */\n      0x20\n        /* \"#utility.yul\":2589:2598   */\n      dup3\n        /* \"#utility.yul\":2585:2603   */\n      add\n        /* \"#utility.yul\":2577:2603   */\n      swap1\n      pop\n        /* \"#utility.yul\":2649:2658   */\n      dup2\n        /* \"#utility.yul\":2643:2647   */\n      dup2\n        /* \"#utility.yul\":2639:2659   */\n      sub\n        /* \"#utility.yul\":2635:2636   */\n      0x00\n        /* \"#utility.yul\":2624:2633   */\n      dup4\n        /* \"#utility.yul\":2620:2637   */\n      add\n        /* \"#utility.yul\":2613:2660   */\n      mstore\n        /* \"#utility.yul\":2677:2808   */\n      tag_347\n        /* \"#utility.yul\":2803:2807   */\n      dup2\n        /* \"#utility.yul\":2677:2808   */\n      tag_284\n      jump\t// in\n    tag_347:\n        /* \"#utility.yul\":2669:2808   */\n      swap1\n      pop\n        /* \"#utility.yul\":2396:2815   */\n      swap2\n      swap1\n      pop\n      jump\t// out\n        /* \"#utility.yul\":2821:2920   */\n    tag_285:\n        /* \"#utility.yul\":2873:2879   */\n      0x00\n        /* \"#utility.yul\":2907:2912   */\n      dup2\n        /* \"#utility.yul\":2901:2913   */\n      mload\n        /* \"#utility.yul\":2891:2913   */\n      swap1\n      pop\n        /* \"#utility.yul\":2821:2920   */\n      swap2\n      swap1\n      pop\n      jump\t// out\n        /* \"#utility.yul\":2926:3172   */\n    tag_286:\n        /* \"#utility.yul\":3007:3008   */\n      0x00\n        /* \"#utility.yul\":3017:3130   */\n    tag_350:\n        /* \"#utility.yul\":3031:3037   */\n      dup4\n        /* \"#utility.yul\":3028:3029   */\n      dup2\n        /* \"#utility.yul\":3025:3038   */\n      lt\n        /* \"#utility.yul\":3017:3130   */\n      iszero\n      tag_352\n      jumpi\n        /* \"#utility.yul\":3116:3117   */\n      dup1\n        /* \"#utility.yul\":3111:3114   */\n      dup3\n        /* \"#utility.yul\":3107:3118   */\n      add\n        /* \"#utility.yul\":3101:3119   */\n      mload\n        /* \"#utility.yul\":3097:3098   */\n      dup2\n        /* \"#utility.yul\":3092:3095   */\n      dup5\n        /* \"#utility.yul\":3088:3099   */\n      add\n        /* \"#utility.yul\":3081:3120   */\n      mstore\n        /* \"#utility.yul\":3053:3055   */\n      0x20\n        /* \"#utility.yul\":3050:3051   */\n      dup2\n        /* \"#utility.yul\":3046:3056   */\n      add\n        /* \"#utility.yul\":3041:3056   */\n      swap1\n      pop\n        /* \"#utility.yul\":3017:3130   */\n      jump(tag_350)\n    tag_352:\n        /* \"#utility.yul\":3164:3165   */\n      0x00\n        /* \"#utility.yul\":3155:3161   */\n      dup5\n        /* \"#utility.yul\":3150:3153   */\n      dup5\n        /* \"#utility.yul\":3146:3162   */\n      add\n        /* \"#utility.yul\":3139:3166   */\n      mstore\n        /* \"#utility.yul\":2988:3172   */\n      pop\n        /* \"#utility.yul\":2926:3172   */\n      pop\n      pop\n      pop\n      jump\t// out\n        /* \"#utility.yul\":3178:3280   */\n    tag_287:\n        /* \"#utility.yul\":3219:3225   */\n      0x00\n        /* \"#utility.yul\":3270:3272   */\n      0x1f\n        /* \"#utility.yul\":3266:3273   */\n      not\n        /* \"#utility.yul\":3261:3263   */\n      0x1f\n        /* \"#utility.yul\":3254:3259   */\n      dup4\n        /* \"#utility.yul\":3250:3264   */\n      add\n        /* \"#utility.yul\":3246:3274   */\n      and\n        /* \"#utility.yul\":3236:3274   */\n      swap1\n      pop\n        /* \"#utility.yul\":3178:3280   */\n      swap2\n      swap1\n      pop\n      jump\t// out\n        /* \"#utility.yul\":3286:3663   */\n    tag_288:\n        /* \"#utility.yul\":3374:3377   */\n      0x00\n        /* \"#utility.yul\":3402:3441   */\n      tag_355\n        /* \"#utility.yul\":3435:3440   */\n      dup3\n        /* \"#utility.yul\":3402:3441   */\n      tag_285\n      jump\t// in\n    tag_355:\n        /* \"#utility.yul\":3457:3528   */\n      tag_356\n        /* \"#utility.yul\":3521:3527   */\n      dup2\n        /* \"#utility.yul\":3516:3519   */\n      dup6\n        /* \"#utility.yul\":3457:3528   */\n      tag_278\n      jump\t// in\n    tag_356:\n        /* \"#utility.yul\":3450:3528   */\n      swap4\n      pop\n        /* \"#utility.yul\":3537:3602   */\n      tag_357\n        /* \"#utility.yul\":3595:3601   */\n      dup2\n        /* \"#utility.yul\":3590:3593   */\n      dup6\n        /* \"#utility.yul\":3583:3587   */\n      0x20\n        /* \"#utility.yul\":3576:3581   */\n      dup7\n        /* \"#utility.yul\":3572:3588   */\n      add\n        /* \"#utility.yul\":3537:3602   */\n      tag_286\n      jump\t// in\n    tag_357:\n        /* \"#utility.yul\":3627:3656   */\n      tag_358\n        /* \"#utility.yul\":3649:3655   */\n      dup2\n        /* \"#utility.yul\":3627:3656   */\n      tag_287\n      jump\t// in\n    tag_358:\n        /* \"#utility.yul\":3622:3625   */\n      dup5\n        /* \"#utility.yul\":3618:3657   */\n      add\n        /* \"#utility.yul\":3611:3657   */\n      swap2\n      pop\n        /* \"#utility.yul\":3378:3663   */\n      pop\n        /* \"#utility.yul\":3286:3663   */\n      swap3\n      swap2\n      pop\n      pop\n      jump\t// out\n        /* \"#utility.yul\":3669:3982   */\n    tag_53:\n        /* \"#utility.yul\":3782:3786   */\n      0x00\n        /* \"#utility.yul\":3820:3822   */\n      0x20\n        /* \"#utility.yul\":3809:3818   */\n      dup3\n        /* \"#utility.yul\":3805:3823   */\n      add\n        /* \"#utility.yul\":3797:3823   */\n      swap1\n      pop\n        /* \"#utility.yul\":3869:3878   */\n      dup2\n        /* \"#utility.yul\":3863:3867   */\n      dup2\n        /* \"#utility.yul\":3859:3879   */\n      sub\n        /* \"#utility.yul\":3855:3856   */\n      0x00\n        /* \"#utility.yul\":3844:3853   */\n      dup4\n        /* \"#utility.yul\":3840:3857   */\n      add\n        /* \"#utility.yul\":3833:3880   */\n      mstore\n        /* \"#utility.yul\":3897:3975   */\n      tag_360\n        /* \"#utility.yul\":3970:3974   */\n      dup2\n        /* \"#utility.yul\":3961:3967   */\n      dup5\n        /* \"#utility.yul\":3897:3975   */\n      tag_288\n      jump\t// in\n    tag_360:\n        /* \"#utility.yul\":3889:3975   */\n      swap1\n      pop\n        /* \"#utility.yul\":3669:3982   */\n      swap3\n      swap2\n      pop\n      pop\n      jump\t// out\n        /* \"#utility.yul\":4069:4186   */\n    tag_290:\n        /* \"#utility.yul\":4178:4179   */\n      0x00\n        /* \"#utility.yul\":4175:4176   */\n      dup1\n        /* \"#utility.yul\":4168:4180   */\n      revert\n        /* \"#utility.yul\":4315:4441   */\n    tag_292:\n        /* \"#utility.yul\":4352:4359   */\n      0x00\n        /* \"#utility.yul\":4392:4434   */\n      0xffffffffffffffffffffffffffffffffffffffff\n        /* \"#utility.yul\":4385:4390   */\n      dup3\n        /* \"#utility.yul\":4381:4435   */\n      and\n        /* \"#utility.yul\":4370:4435   */\n      swap1\n      pop\n        /* \"#utility.yul\":4315:4441   */\n      swap2\n      swap1\n      pop\n      jump\t// out\n        /* \"#utility.yul\":4447:4543   */\n    tag_293:\n        /* \"#utility.yul\":4484:4491   */\n      0x00\n        /* \"#utility.yul\":4513:4537   */\n      tag_366\n        /* \"#utility.yul\":4531:4536   */\n      dup3\n        /* \"#utility.yul\":4513:4537   */\n      tag_292\n      jump\t// in\n    tag_366:\n        /* \"#utility.yul\":4502:4537   */\n      swap1\n      pop\n        /* \"#utility.yul\":4447:4543   */\n      swap2\n      swap1\n      pop\n      jump\t// out\n        /* \"#utility.yul\":4549:4671   */\n    tag_294:\n        /* \"#utility.yul\":4622:4646   */\n      tag_368\n        /* \"#utility.yul\":4640:4645   */\n      dup2\n        /* \"#utility.yul\":4622:4646   */\n      tag_293\n      jump\t// in\n    tag_368:\n        /* \"#utility.yul\":4615:4620   */\n      dup2\n        /* \"#utility.yul\":4612:4647   */\n      eq\n        /* \"#utility.yul\":4602:4665   */\n      tag_369\n      jumpi\n        /* \"#utility.yul\":4661:4662   */\n      0x00\n        /* \"#utility.yul\":4658:4659   */\n      dup1\n        /* \"#utility.yul\":4651:4663   */\n      revert\n        /* \"#utility.yul\":4602:4665   */\n    tag_369:\n        /* \"#utility.yul\":4549:4671   */\n      pop\n      jump\t// out\n        /* \"#utility.yul\":4677:4816   */\n    tag_295:\n        /* \"#utility.yul\":4723:4728   */\n      0x00\n        /* \"#utility.yul\":4761:4767   */\n      dup2\n        /* \"#utility.yul\":4748:4768   */\n      calldataload\n        /* \"#utility.yul\":4739:4768   */\n      swap1\n      pop\n        /* \"#utility.yul\":4777:4810   */\n      tag_371\n        /* \"#utility.yul\":4804:4809   */\n      dup2\n        /* \"#utility.yul\":4777:4810   */\n      tag_294\n      jump\t// in\n    tag_371:\n        /* \"#utility.yul\":4677:4816   */\n      swap3\n      swap2\n      pop\n      pop\n      jump\t// out\n        /* \"#utility.yul\":4822:4944   */\n    tag_296:\n        /* \"#utility.yul\":4895:4919   */\n      tag_373\n        /* \"#utility.yul\":4913:4918   */\n      dup2\n        /* \"#utility.yul\":4895:4919   */\n      tag_281\n      jump\t// in\n    tag_373:\n        /* \"#utility.yul\":4888:4893   */\n      dup2\n        /* \"#utility.yul\":4885:4920   */\n      eq\n        /* \"#utility.yul\":4875:4938   */\n      tag_374\n      jumpi\n        /* \"#utility.yul\":4934:4935   */\n      0x00\n        /* \"#utility.yul\":4931:4932   */\n      dup1\n        /* \"#utility.yul\":4924:4936   */\n      revert\n        /* \"#utility.yul\":4875:4938   */\n    tag_374:\n        /* \"#utility.yul\":4822:4944   */\n      pop\n      jump\t// out\n        /* \"#utility.yul\":4950:5089   */\n    tag_297:\n        /* \"#utility.yul\":4996:5001   */\n      0x00\n        /* \"#utility.yul\":5034:5040   */\n      dup2\n        /* \"#utility.yul\":5021:5041   */\n      calldataload\n        /* \"#utility.yul\":5012:5041   */\n      swap1\n      pop\n        /* \"#utility.yul\":5050:5083   */\n      tag_376\n        /* \"#utility.yul\":5077:5082   */\n      dup2\n        /* \"#utility.yul\":5050:5083   */\n      tag_296\n      jump\t// in\n    tag_376:\n        /* \"#utility.yul\":4950:5089   */\n      swap3\n      swap2\n      pop\n      pop\n      jump\t// out\n        /* \"#utility.yul\":5095:5569   */\n    tag_57:\n        /* \"#utility.yul\":5163:5169   */\n      0x00\n        /* \"#utility.yul\":5171:5177   */\n      dup1\n        /* \"#utility.yul\":5220:5222   */\n      0x40\n        /* \"#utility.yul\":5208:5217   */\n      dup4\n        /* \"#utility.yul\":5199:5206   */\n      dup6\n        /* \"#utility.yul\":5195:5218   */\n      sub\n        /* \"#utility.yul\":5191:5223   */\n      slt\n        /* \"#utility.yul\":5188:5307   */\n      iszero\n      tag_378\n      jumpi\n        /* \"#utility.yul\":5226:5305   */\n      tag_379\n      tag_290\n      jump\t// in\n    tag_379:\n        /* \"#utility.yul\":5188:5307   */\n    tag_378:\n        /* \"#utility.yul\":5346:5347   */\n      0x00\n        /* \"#utility.yul\":5371:5424   */\n      tag_380\n        /* \"#utility.yul\":5416:5423   */\n      dup6\n        /* \"#utility.yul\":5407:5413   */\n      dup3\n        /* \"#utility.yul\":5396:5405   */\n      dup7\n        /* \"#utility.yul\":5392:5414   */\n      add\n        /* \"#utility.yul\":5371:5424   */\n      tag_295\n      jump\t// in\n    tag_380:\n        /* \"#utility.yul\":5361:5424   */\n      swap3\n      pop\n        /* \"#utility.yul\":5317:5434   */\n      pop\n        /* \"#utility.yul\":5473:5475   */\n      0x20\n        /* \"#utility.yul\":5499:5552   */\n      tag_381\n        /* \"#utility.yul\":5544:5551   */\n      dup6\n        /* \"#utility.yul\":5535:5541   */\n      dup3\n        /* \"#utility.yul\":5524:5533   */\n      dup7\n        /* \"#utility.yul\":5520:5542   */\n      add\n        /* \"#utility.yul\":5499:5552   */\n      tag_297\n      jump\t// in\n    tag_381:\n        /* \"#utility.yul\":5489:5552   */\n      swap2\n      pop\n        /* \"#utility.yul\":5444:5562   */\n      pop\n        /* \"#utility.yul\":5095:5569   */\n      swap3\n      pop\n      swap3\n      swap1\n      pop\n      jump\t// out\n        /* \"#utility.yul\":5575:5665   */\n    tag_298:\n        /* \"#utility.yul\":5609:5616   */\n      0x00\n        /* \"#utility.yul\":5652:5657   */\n      dup2\n        /* \"#utility.yul\":5645:5658   */\n      iszero\n        /* \"#utility.yul\":5638:5659   */\n      iszero\n        /* \"#utility.yul\":5627:5659   */\n      swap1\n      pop\n        /* \"#utility.yul\":5575:5665   */\n      swap2\n      swap1\n      pop\n      jump\t// out\n        /* \"#utility.yul\":5671:5780   */\n    tag_299:\n        /* \"#utility.yul\":5752:5773   */\n      tag_384\n        /* \"#utility.yul\":5767:5772   */\n      dup2\n        /* \"#utility.yul\":5752:5773   */\n      tag_298\n      jump\t// in\n    tag_384:\n        /* \"#utility.yul\":5747:5750   */\n      dup3\n        /* \"#utility.yul\":5740:5774   */\n      mstore\n        /* \"#utility.yul\":5671:5780   */\n      pop\n      pop\n      jump\t// out\n        /* \"#utility.yul\":5786:5996   */\n    tag_60:\n        /* \"#utility.yul\":5873:5877   */\n      0x00\n        /* \"#utility.yul\":5911:5913   */\n      0x20\n        /* \"#utility.yul\":5900:5909   */\n      dup3\n        /* \"#utility.yul\":5896:5914   */\n      add\n        /* \"#utility.yul\":5888:5914   */\n      swap1\n      pop\n        /* \"#utility.yul\":5924:5989   */\n      tag_386\n        /* \"#utility.yul\":5986:5987   */\n      0x00\n        /* \"#utility.yul\":5975:5984   */\n      dup4\n        /* \"#utility.yul\":5971:5988   */\n      add\n        /* \"#utility.yul\":5962:5968   */\n      dup5\n        /* \"#utility.yul\":5924:5989   */\n      tag_299\n      jump\t// in\n    tag_386:\n        /* \"#utility.yul\":5786:5996   */\n      swap3\n      swap2\n      pop\n      pop\n      jump\t// out\n        /* \"#utility.yul\":6002:6120   */\n    tag_300:\n        /* \"#utility.yul\":6089:6113   */\n      tag_388\n        /* \"#utility.yul\":6107:6112   */\n      dup2\n        /* \"#utility.yul\":6089:6113   */\n      tag_281\n      jump\t// in\n    tag_388:\n        /* \"#utility.yul\":6084:6087   */\n      dup3\n        /* \"#utility.yul\":6077:6114   */\n      mstore\n        /* \"#utility.yul\":6002:6120   */\n      pop\n      pop\n      jump\t// out\n        /* \"#utility.yul\":6126:6348   */\n    tag_65:\n        /* \"#utility.yul\":6219:6223   */\n      0x00\n        /* \"#utility.yul\":6257:6259   */\n      0x20\n        /* \"#utility.yul\":6246:6255   */\n      dup3\n        /* \"#utility.yul\":6242:6260   */\n      add\n        /* \"#utility.yul\":6234:6260   */\n      swap1\n      pop\n        /* \"#utility.yul\":6270:6341   */\n      tag_390\n        /* \"#utility.yul\":6338:6339   */\n      0x00\n        /* \"#utility.yul\":6327:6336   */\n      dup4\n        /* \"#utility.yul\":6323:6340   */\n      add\n        /* \"#utility.yul\":6314:6320   */\n      dup5\n        /* \"#utility.yul\":6270:6341   */\n      tag_300\n      jump\t// in\n    tag_390:\n        /* \"#utility.yul\":6126:6348   */\n      swap3\n      swap2\n      pop\n      pop\n      jump\t// out\n        /* \"#utility.yul\":6354:6683   */\n    tag_68:\n        /* \"#utility.yul\":6413:6419   */\n      0x00\n        /* \"#utility.yul\":6462:6464   */\n      0x20\n        /* \"#utility.yul\":6450:6459   */\n      dup3\n        /* \"#utility.yul\":6441:6448   */\n      dup5\n        /* \"#utility.yul\":6437:6460   */\n      sub\n        /* \"#utility.yul\":6433:6465   */\n      slt\n        /* \"#utility.yul\":6430:6549   */\n      iszero\n      tag_392\n      jumpi\n        /* \"#utility.yul\":6468:6547   */\n      tag_393\n      tag_290\n      jump\t// in\n    tag_393:\n        /* \"#utility.yul\":6430:6549   */\n    tag_392:\n        /* \"#utility.yul\":6588:6589   */\n      0x00\n        /* \"#utility.yul\":6613:6666   */\n      tag_394\n        /* \"#utility.yul\":6658:6665   */\n      dup5\n        /* \"#utility.yul\":6649:6655   */\n      dup3\n        /* \"#utility.yul\":6638:6647   */\n      dup6\n        /* \"#utility.yul\":6634:6656   */\n      add\n        /* \"#utility.yul\":6613:6666   */\n      tag_297\n      jump\t// in\n    tag_394:\n        /* \"#utility.yul\":6603:6666   */\n      swap2\n      pop\n        /* \"#utility.yul\":6559:6676   */\n      pop\n        /* \"#utility.yul\":6354:6683   */\n      swap3\n      swap2\n      pop\n      pop\n      jump\t// out\n        /* \"#utility.yul\":6689:7308   */\n    tag_73:\n        /* \"#utility.yul\":6766:6772   */\n      0x00\n        /* \"#utility.yul\":6774:6780   */\n      dup1\n        /* \"#utility.yul\":6782:6788   */\n      0x00\n        /* \"#utility.yul\":6831:6833   */\n      0x60\n        /* \"#utility.yul\":6819:6828   */\n      dup5\n        /* \"#utility.yul\":6810:6817   */\n      dup7\n        /* \"#utility.yul\":6806:6829   */\n      sub\n        /* \"#utility.yul\":6802:6834   */\n      slt\n        /* \"#utility.yul\":6799:6918   */\n      iszero\n      tag_396\n      jumpi\n        /* \"#utility.yul\":6837:6916   */\n      tag_397\n      tag_290\n      jump\t// in\n    tag_397:\n        /* \"#utility.yul\":6799:6918   */\n    tag_396:\n        /* \"#utility.yul\":6957:6958   */\n      0x00\n        /* \"#utility.yul\":6982:7035   */\n      tag_398\n        /* \"#utility.yul\":7027:7034   */\n      dup7\n        /* \"#utility.yul\":7018:7024   */\n      dup3\n        /* \"#utility.yul\":7007:7016   */\n      dup8\n        /* \"#utility.yul\":7003:7025   */\n      add\n        /* \"#utility.yul\":6982:7035   */\n      tag_295\n      jump\t// in\n    tag_398:\n        /* \"#utility.yul\":6972:7035   */\n      swap4\n      pop\n        /* \"#utility.yul\":6928:7045   */\n      pop\n        /* \"#utility.yul\":7084:7086   */\n      0x20\n        /* \"#utility.yul\":7110:7163   */\n      tag_399\n        /* \"#utility.yul\":7155:7162   */\n      dup7\n        /* \"#utility.yul\":7146:7152   */\n      dup3\n        /* \"#utility.yul\":7135:7144   */\n      dup8\n        /* \"#utility.yul\":7131:7153   */\n      add\n        /* \"#utility.yul\":7110:7163   */\n      tag_295\n      jump\t// in\n    tag_399:\n        /* \"#utility.yul\":7100:7163   */\n      swap3\n      pop\n        /* \"#utility.yul\":7055:7173   */\n      pop\n        /* \"#utility.yul\":7212:7214   */\n      0x40\n        /* \"#utility.yul\":7238:7291   */\n      tag_400\n        /* \"#utility.yul\":7283:7290   */\n      dup7\n        /* \"#utility.yul\":7274:7280   */\n      dup3\n        /* \"#utility.yul\":7263:7272   */\n      dup8\n        /* \"#utility.yul\":7259:7281   */\n      add\n        /* \"#utility.yul\":7238:7291   */\n      tag_297\n      jump\t// in\n    tag_400:\n        /* \"#utility.yul\":7228:7291   */\n      swap2\n      pop\n        /* \"#utility.yul\":7183:7301   */\n      pop\n        /* \"#utility.yul\":6689:7308   */\n      swap3\n      pop\n      swap3\n      pop\n      swap3\n      jump\t// out\n        /* \"#utility.yul\":7314:7400   */\n    tag_301:\n        /* \"#utility.yul\":7349:7356   */\n      0x00\n        /* \"#utility.yul\":7389:7393   */\n      0xff\n        /* \"#utility.yul\":7382:7387   */\n      dup3\n        /* \"#utility.yul\":7378:7394   */\n      and\n        /* \"#utility.yul\":7367:7394   */\n      swap1\n      pop\n        /* \"#utility.yul\":7314:7400   */\n      swap2\n      swap1\n      pop\n      jump\t// out\n        /* \"#utility.yul\":7406:7518   */\n    tag_302:\n        /* \"#utility.yul\":7489:7511   */\n      tag_403\n        /* \"#utility.yul\":7505:7510   */\n      dup2\n        /* \"#utility.yul\":7489:7511   */\n      tag_301\n      jump\t// in\n    tag_403:\n        /* \"#utility.yul\":7484:7487   */\n      dup3\n        /* \"#utility.yul\":7477:7512   */\n      mstore\n        /* \"#utility.yul\":7406:7518   */\n      pop\n      pop\n      jump\t// out\n        /* \"#utility.yul\":7524:7738   */\n    tag_84:\n        /* \"#utility.yul\":7613:7617   */\n      0x00\n        /* \"#utility.yul\":7651:7653   */\n      0x20\n        /* \"#utility.yul\":7640:7649   */\n      dup3\n        /* \"#utility.yul\":7636:7654   */\n      add\n        /* \"#utility.yul\":7628:7654   */\n      swap1\n      pop\n        /* \"#utility.yul\":7664:7731   */\n      tag_405\n        /* \"#utility.yul\":7728:7729   */\n      0x00\n        /* \"#utility.yul\":7717:7726   */\n      dup4\n        /* \"#utility.yul\":7713:7730   */\n      add\n        /* \"#utility.yul\":7704:7710   */\n      dup5\n        /* \"#utility.yul\":7664:7731   */\n      tag_302\n      jump\t// in\n    tag_405:\n        /* \"#utility.yul\":7524:7738   */\n      swap3\n      swap2\n      pop\n      pop\n      jump\t// out\n        /* \"#utility.yul\":7744:8073   */\n    tag_101:\n        /* \"#utility.yul\":7803:7809   */\n      0x00\n        /* \"#utility.yul\":7852:7854   */\n      0x20\n        /* \"#utility.yul\":7840:7849   */\n      dup3\n        /* \"#utility.yul\":7831:7838   */\n      dup5\n        /* \"#utility.yul\":7827:7850   */\n      sub\n        /* \"#utility.yul\":7823:7855   */\n      slt\n        /* \"#utility.yul\":7820:7939   */\n      iszero\n      tag_407\n      jumpi\n        /* \"#utility.yul\":7858:7937   */\n      tag_408\n      tag_290\n      jump\t// in\n    tag_408:\n        /* \"#utility.yul\":7820:7939   */\n    tag_407:\n        /* \"#utility.yul\":7978:7979   */\n      0x00\n        /* \"#utility.yul\":8003:8056   */\n      tag_409\n        /* \"#utility.yul\":8048:8055   */\n      dup5\n        /* \"#utility.yul\":8039:8045   */\n      dup3\n        /* \"#utility.yul\":8028:8037   */\n      dup6\n        /* \"#utility.yul\":8024:8046   */\n      add\n        /* \"#utility.yul\":8003:8056   */\n      tag_295\n      jump\t// in\n    tag_409:\n        /* \"#utility.yul\":7993:8056   */\n      swap2\n      pop\n        /* \"#utility.yul\":7949:8066   */\n      pop\n        /* \"#utility.yul\":7744:8073   */\n      swap3\n      swap2\n      pop\n      pop\n      jump\t// out\n        /* \"#utility.yul\":8079:8197   */\n    tag_303:\n        /* \"#utility.yul\":8166:8190   */\n      tag_411\n        /* \"#utility.yul\":8184:8189   */\n      dup2\n        /* \"#utility.yul\":8166:8190   */\n      tag_293\n      jump\t// in\n    tag_411:\n        /* \"#utility.yul\":8161:8164   */\n      dup3\n        /* \"#utility.yul\":8154:8191   */\n      mstore\n        /* \"#utility.yul\":8079:8197   */\n      pop\n      pop\n      jump\t// out\n        /* \"#utility.yul\":8203:8425   */\n    tag_109:\n        /* \"#utility.yul\":8296:8300   */\n      0x00\n        /* \"#utility.yul\":8334:8336   */\n      0x20\n        /* \"#utility.yul\":8323:8332   */\n      dup3\n        /* \"#utility.yul\":8319:8337   */\n      add\n        /* \"#utility.yul\":8311:8337   */\n      swap1\n      pop\n        /* \"#utility.yul\":8347:8418   */\n      tag_413\n        /* \"#utility.yul\":8415:8416   */\n      0x00\n        /* \"#utility.yul\":8404:8413   */\n      dup4\n        /* \"#utility.yul\":8400:8417   */\n      add\n        /* \"#utility.yul\":8391:8397   */\n      dup5\n        /* \"#utility.yul\":8347:8418   */\n      tag_303\n      jump\t// in\n    tag_413:\n        /* \"#utility.yul\":8203:8425   */\n      swap3\n      swap2\n      pop\n      pop\n      jump\t// out\n        /* \"#utility.yul\":8431:8905   */\n    tag_135:\n        /* \"#utility.yul\":8499:8505   */\n      0x00\n        /* \"#utility.yul\":8507:8513   */\n      dup1\n        /* \"#utility.yul\":8556:8558   */\n      0x40\n        /* \"#utility.yul\":8544:8553   */\n      dup4\n        /* \"#utility.yul\":8535:8542   */\n      dup6\n        /* \"#utility.yul\":8531:8554   */\n      sub\n        /* \"#utility.yul\":8527:8559   */\n      slt\n        /* \"#utility.yul\":8524:8643   */\n      iszero\n      tag_415\n      jumpi\n        /* \"#utility.yul\":8562:8641   */\n      tag_416\n      tag_290\n      jump\t// in\n    tag_416:\n        /* \"#utility.yul\":8524:8643   */\n    tag_415:\n        /* \"#utility.yul\":8682:8683   */\n      0x00\n        /* \"#utility.yul\":8707:8760   */\n      tag_417\n        /* \"#utility.yul\":8752:8759   */\n      dup6\n        /* \"#utility.yul\":8743:8749   */\n      dup3\n        /* \"#utility.yul\":8732:8741   */\n      dup7\n        /* \"#utility.yul\":8728:8750   */\n      add\n        /* \"#utility.yul\":8707:8760   */\n      tag_295\n      jump\t// in\n    tag_417:\n        /* \"#utility.yul\":8697:8760   */\n      swap3\n      pop\n        /* \"#utility.yul\":8653:8770   */\n      pop\n        /* \"#utility.yul\":8809:8811   */\n      0x20\n        /* \"#utility.yul\":8835:8888   */\n      tag_418\n        /* \"#utility.yul\":8880:8887   */\n      dup6\n        /* \"#utility.yul\":8871:8877   */\n      dup3\n        /* \"#utility.yul\":8860:8869   */\n      dup7\n        /* \"#utility.yul\":8856:8878   */\n      add\n        /* \"#utility.yul\":8835:8888   */\n      tag_295\n      jump\t// in\n    tag_418:\n        /* \"#utility.yul\":8825:8888   */\n      swap2\n      pop\n        /* \"#utility.yul\":8780:8898   */\n      pop\n        /* \"#utility.yul\":8431:8905   */\n      swap3\n      pop\n      swap3\n      swap1\n      pop\n      jump\t// out\n        /* \"#utility.yul\":8911:9105   */\n    tag_149:\n        /* \"#utility.yul\":8951:8955   */\n      0x00\n        /* \"#utility.yul\":8971:8991   */\n      tag_420\n        /* \"#utility.yul\":8989:8990   */\n      dup3\n        /* \"#utility.yul\":8971:8991   */\n      tag_281\n      jump\t// in\n    tag_420:\n        /* \"#utility.yul\":8966:8991   */\n      swap2\n      pop\n        /* \"#utility.yul\":9005:9025   */\n      tag_421\n        /* \"#utility.yul\":9023:9024   */\n      dup4\n        /* \"#utility.yul\":9005:9025   */\n      tag_281\n      jump\t// in\n    tag_421:\n        /* \"#utility.yul\":9000:9025   */\n      swap3\n      pop\n        /* \"#utility.yul\":9049:9050   */\n      dup3\n        /* \"#utility.yul\":9046:9047   */\n      dup3\n        /* \"#utility.yul\":9042:9051   */\n      sub\n        /* \"#utility.yul\":9034:9051   */\n      swap1\n      pop\n        /* \"#utility.yul\":9073:9074   */\n      dup2\n        /* \"#utility.yul\":9067:9071   */\n      dup2\n        /* \"#utility.yul\":9064:9075   */\n      gt\n        /* \"#utility.yul\":9061:9098   */\n      iszero\n      tag_422\n      jumpi\n        /* \"#utility.yul\":9078:9096   */\n      tag_423\n      tag_282\n      jump\t// in\n    tag_423:\n        /* \"#utility.yul\":9061:9098   */\n    tag_422:\n        /* \"#utility.yul\":8911:9105   */\n      swap3\n      swap2\n      pop\n      pop\n      jump\t// out\n        /* \"#utility.yul\":9111:9302   */\n    tag_151:\n        /* \"#utility.yul\":9151:9154   */\n      0x00\n        /* \"#utility.yul\":9170:9190   */\n      tag_425\n        /* \"#utility.yul\":9188:9189   */\n      dup3\n        /* \"#utility.yul\":9170:9190   */\n      tag_281\n      jump\t// in\n    tag_425:\n        /* \"#utility.yul\":9165:9190   */\n      swap2\n      pop\n        /* \"#utility.yul\":9204:9224   */\n      tag_426\n        /* \"#utility.yul\":9222:9223   */\n      dup4\n        /* \"#utility.yul\":9204:9224   */\n      tag_281\n      jump\t// in\n    tag_426:\n        /* \"#utility.yul\":9199:9224   */\n      swap3\n      pop\n        /* \"#utility.yul\":9247:9248   */\n      dup3\n        /* \"#utility.yul\":9244:9245   */\n      dup3\n        /* \"#utility.yul\":9240:9249   */\n      add\n        /* \"#utility.yul\":9233:9249   */\n      swap1\n      pop\n        /* \"#utility.yul\":9268:9271   */\n      dup1\n        /* \"#utility.yul\":9265:9266   */\n      dup3\n        /* \"#utility.yul\":9262:9272   */\n      gt\n        /* \"#utility.yul\":9259:9295   */\n      iszero\n      tag_427\n      jumpi\n        /* \"#utility.yul\":9275:9293   */\n      tag_428\n      tag_282\n      jump\t// in\n    tag_428:\n        /* \"#utility.yul\":9259:9295   */\n    tag_427:\n        /* \"#utility.yul\":9111:9302   */\n      swap3\n      swap2\n      pop\n      pop\n      jump\t// out\n        /* \"#utility.yul\":9308:9489   */\n    tag_304:\n        /* \"#utility.yul\":9448:9481   */\n      0x45524332303a206d696e7420746f20746865207a65726f206164647265737300\n        /* \"#utility.yul\":9444:9445   */\n      0x00\n        /* \"#utility.yul\":9436:9442   */\n      dup3\n        /* \"#utility.yul\":9432:9446   */\n      add\n        /* \"#utility.yul\":9425:9482   */\n      mstore\n        /* \"#utility.yul\":9308:9489   */\n      pop\n      jump\t// out\n        /* \"#utility.yul\":9495:9861   */\n    tag_305:\n        /* \"#utility.yul\":9637:9640   */\n      0x00\n        /* \"#utility.yul\":9658:9725   */\n      tag_431\n        /* \"#utility.yul\":9722:9724   */\n      0x1f\n        /* \"#utility.yul\":9717:9720   */\n      dup4\n        /* \"#utility.yul\":9658:9725   */\n      tag_278\n      jump\t// in\n    tag_431:\n        /* \"#utility.yul\":9651:9725   */\n      swap2\n      pop\n        /* \"#utility.yul\":9734:9827   */\n      tag_432\n        /* \"#utility.yul\":9823:9826   */\n      dup3\n        /* \"#utility.yul\":9734:9827   */\n      tag_304\n      jump\t// in\n    tag_432:\n        /* \"#utility.yul\":9852:9854   */\n      0x20\n        /* \"#utility.yul\":9847:9850   */\n      dup3\n        /* \"#utility.yul\":9843:9855   */\n      add\n        /* \"#utility.yul\":9836:9855   */\n      swap1\n      pop\n        /* \"#utility.yul\":9495:9861   */\n      swap2\n      swap1\n      pop\n      jump\t// out\n        /* \"#utility.yul\":9867:10286   */\n    tag_155:\n        /* \"#utility.yul\":10033:10037   */\n      0x00\n        /* \"#utility.yul\":10071:10073   */\n      0x20\n        /* \"#utility.yul\":10060:10069   */\n      dup3\n        /* \"#utility.yul\":10056:10074   */\n      add\n        /* \"#utility.yul\":10048:10074   */\n      swap1\n      pop\n        /* \"#utility.yul\":10120:10129   */\n      dup2\n        /* \"#utility.yul\":10114:10118   */\n      dup2\n        /* \"#utility.yul\":10110:10130   */\n      sub\n        /* \"#utility.yul\":10106:10107   */\n      0x00\n        /* \"#utility.yul\":10095:10104   */\n      dup4\n        /* \"#utility.yul\":10091:10108   */\n      add\n        /* \"#utility.yul\":10084:10131   */\n      mstore\n        /* \"#utility.yul\":10148:10279   */\n      tag_434\n        /* \"#utility.yul\":10274:10278   */\n      dup2\n        /* \"#utility.yul\":10148:10279   */\n      tag_305\n      jump\t// in\n    tag_434:\n        /* \"#utility.yul\":10140:10279   */\n      swap1\n      pop\n        /* \"#utility.yul\":9867:10286   */\n      swap2\n      swap1\n      pop\n      jump\t// out\n        /* \"#utility.yul\":10292:10472   */\n    tag_306:\n        /* \"#utility.yul\":10340:10417   */\n      0x4e487b7100000000000000000000000000000000000000000000000000000000\n        /* \"#utility.yul\":10337:10338   */\n      0x00\n        /* \"#utility.yul\":10330:10418   */\n      mstore\n        /* \"#utility.yul\":10437:10441   */\n      0x22\n        /* \"#utility.yul\":10434:10435   */\n      0x04\n        /* \"#utility.yul\":10427:10442   */\n      mstore\n        /* \"#utility.yul\":10461:10465   */\n      0x24\n        /* \"#utility.yul\":10458:10459   */\n      0x00\n        /* \"#utility.yul\":10451:10466   */\n      revert\n        /* \"#utility.yul\":10478:10798   */\n    tag_165:\n        /* \"#utility.yul\":10522:10528   */\n      0x00\n        /* \"#utility.yul\":10559:10560   */\n      0x02\n        /* \"#utility.yul\":10553:10557   */\n      dup3\n        /* \"#utility.yul\":10549:10561   */\n      div\n        /* \"#utility.yul\":10539:10561   */\n      swap1\n      pop\n        /* \"#utility.yul\":10606:10607   */\n      0x01\n        /* \"#utility.yul\":10600:10604   */\n      dup3\n        /* \"#utility.yul\":10596:10608   */\n      and\n        /* \"#utility.yul\":10627:10645   */\n      dup1\n        /* \"#utility.yul\":10617:10698   */\n      tag_437\n      jumpi\n        /* \"#utility.yul\":10683:10687   */\n      0x7f\n        /* \"#utility.yul\":10675:10681   */\n      dup3\n        /* \"#utility.yul\":10671:10688   */\n      and\n        /* \"#utility.yul\":10661:10688   */\n      swap2\n      pop\n        /* \"#utility.yul\":10617:10698   */\n    tag_437:\n        /* \"#utility.yul\":10745:10747   */\n      0x20\n        /* \"#utility.yul\":10737:10743   */\n      dup3\n        /* \"#utility.yul\":10734:10748   */\n      lt\n        /* \"#utility.yul\":10714:10732   */\n      dup2\n        /* \"#utility.yul\":10711:10749   */\n      sub\n        /* \"#utility.yul\":10708:10792   */\n      tag_438\n      jumpi\n        /* \"#utility.yul\":10764:10782   */\n      tag_439\n      tag_306\n      jump\t// in\n    tag_439:\n        /* \"#utility.yul\":10708:10792   */\n    tag_438:\n        /* \"#utility.yul\":10529:10798   */\n      pop\n        /* \"#utility.yul\":10478:10798   */\n      swap2\n      swap1\n      pop\n      jump\t// out\n        /* \"#utility.yul\":10804:10984   */\n    tag_307:\n        /* \"#utility.yul\":10852:10929   */\n      0x4e487b7100000000000000000000000000000000000000000000000000000000\n        /* \"#utility.yul\":10849:10850   */\n      0x00\n        /* \"#utility.yul\":10842:10930   */\n      mstore\n        /* \"#utility.yul\":10949:10953   */\n      0x12\n        /* \"#utility.yul\":10946:10947   */\n      0x04\n        /* \"#utility.yul\":10939:10954   */\n      mstore\n        /* \"#utility.yul\":10973:10977   */\n      0x24\n        /* \"#utility.yul\":10970:10971   */\n      0x00\n        /* \"#utility.yul\":10963:10978   */\n      revert\n        /* \"#utility.yul\":10990:11175   */\n    tag_180:\n        /* \"#utility.yul\":11030:11031   */\n      0x00\n        /* \"#utility.yul\":11047:11067   */\n      tag_442\n        /* \"#utility.yul\":11065:11066   */\n      dup3\n        /* \"#utility.yul\":11047:11067   */\n      tag_281\n      jump\t// in\n    tag_442:\n        /* \"#utility.yul\":11042:11067   */\n      swap2\n      pop\n        /* \"#utility.yul\":11081:11101   */\n      tag_443\n        /* \"#utility.yul\":11099:11100   */\n      dup4\n        /* \"#utility.yul\":11081:11101   */\n      tag_281\n      jump\t// in\n    tag_443:\n        /* \"#utility.yul\":11076:11101   */\n      swap3\n      pop\n        /* \"#utility.yul\":11120:11121   */\n      dup3\n        /* \"#utility.yul\":11110:11145   */\n      tag_444\n      jumpi\n        /* \"#utility.yul\":11125:11143   */\n      tag_445\n      tag_307\n      jump\t// in\n    tag_445:\n        /* \"#utility.yul\":11110:11145   */\n    tag_444:\n        /* \"#utility.yul\":11167:11168   */\n      dup3\n        /* \"#utility.yul\":11164:11165   */\n      dup3\n        /* \"#utility.yul\":11160:11169   */\n      div\n        /* \"#utility.yul\":11155:11169   */\n      swap1\n      pop\n        /* \"#utility.yul\":10990:11175   */\n      swap3\n      swap2\n      pop\n      pop\n      jump\t// out\n        /* \"#utility.yul\":11181:11363   */\n    tag_308:\n        /* \"#utility.yul\":11321:11355   */\n      0x4f776e61626c653a2063616c6c6572206973206e6f7420746865206f776e6572\n        /* \"#utility.yul\":11317:11318   */\n      0x00\n        /* \"#utility.yul\":11309:11315   */\n      dup3\n        /* \"#utility.yul\":11305:11319   */\n      add\n        /* \"#utility.yul\":11298:11356   */\n      mstore\n        /* \"#utility.yul\":11181:11363   */\n      pop\n      jump\t// out\n        /* \"#utility.yul\":11369:11735   */\n    tag_309:\n        /* \"#utility.yul\":11511:11514   */\n      0x00\n        /* \"#utility.yul\":11532:11599   */\n      tag_448\n        /* \"#utility.yul\":11596:11598   */\n      0x20\n        /* \"#utility.yul\":11591:11594   */\n      dup4\n        /* \"#utility.yul\":11532:11599   */\n      tag_278\n      jump\t// in\n    tag_448:\n        /* \"#utility.yul\":11525:11599   */\n      swap2\n      pop\n        /* \"#utility.yul\":11608:11701   */\n      tag_449\n        /* \"#utility.yul\":11697:11700   */\n      dup3\n        /* \"#utility.yul\":11608:11701   */\n      tag_308\n      jump\t// in\n    tag_449:\n        /* \"#utility.yul\":11726:11728   */\n      0x20\n        /* \"#utility.yul\":11721:11724   */\n      dup3\n        /* \"#utility.yul\":11717:11729   */\n      add\n        /* \"#utility.yul\":11710:11729   */\n      swap1\n      pop\n        /* \"#utility.yul\":11369:11735   */\n      swap2\n      swap1\n      pop\n      jump\t// out\n        /* \"#utility.yul\":11741:12160   */\n    tag_204:\n        /* \"#utility.yul\":11907:11911   */\n      0x00\n        /* \"#utility.yul\":11945:11947   */\n      0x20\n        /* \"#utility.yul\":11934:11943   */\n      dup3\n        /* \"#utility.yul\":11930:11948   */\n      add\n        /* \"#utility.yul\":11922:11948   */\n      swap1\n      pop\n        /* \"#utility.yul\":11994:12003   */\n      dup2\n        /* \"#utility.yul\":11988:11992   */\n      dup2\n        /* \"#utility.yul\":11984:12004   */\n      sub\n        /* \"#utility.yul\":11980:11981   */\n      0x00\n        /* \"#utility.yul\":11969:11978   */\n      dup4\n        /* \"#utility.yul\":11965:11982   */\n      add\n        /* \"#utility.yul\":11958:12005   */\n      mstore\n        /* \"#utility.yul\":12022:12153   */\n      tag_451\n        /* \"#utility.yul\":12148:12152   */\n      dup2\n        /* \"#utility.yul\":12022:12153   */\n      tag_309\n      jump\t// in\n    tag_451:\n        /* \"#utility.yul\":12014:12153   */\n      swap1\n      pop\n        /* \"#utility.yul\":11741:12160   */\n      swap2\n      swap1\n      pop\n      jump\t// out\n        /* \"#utility.yul\":12166:12390   */\n    tag_310:\n        /* \"#utility.yul\":12306:12340   */\n      0x45524332303a2064656372656173656420616c6c6f77616e63652062656c6f77\n        /* \"#utility.yul\":12302:12303   */\n      0x00\n        /* \"#utility.yul\":12294:12300   */\n      dup3\n        /* \"#utility.yul\":12290:12304   */\n      add\n        /* \"#utility.yul\":12283:12341   */\n      mstore\n        /* \"#utility.yul\":12375:12382   */\n      0x207a65726f000000000000000000000000000000000000000000000000000000\n        /* \"#utility.yul\":12370:12372   */\n      0x20\n        /* \"#utility.yul\":12362:12368   */\n      dup3\n        /* \"#utility.yul\":12358:12373   */\n      add\n        /* \"#utility.yul\":12351:12383   */\n      mstore\n        /* \"#utility.yul\":12166:12390   */\n      pop\n      jump\t// out\n        /* \"#utility.yul\":12396:12762   */\n    tag_311:\n        /* \"#utility.yul\":12538:12541   */\n      0x00\n        /* \"#utility.yul\":12559:12626   */\n      tag_454\n        /* \"#utility.yul\":12623:12625   */\n      0x25\n        /* \"#utility.yul\":12618:12621   */\n      dup4\n        /* \"#utility.yul\":12559:12626   */\n      tag_278\n      jump\t// in\n    tag_454:\n        /* \"#utility.yul\":12552:12626   */\n      swap2\n      pop\n        /* \"#utility.yul\":12635:12728   */\n      tag_455\n        /* \"#utility.yul\":12724:12727   */\n      dup3\n        /* \"#utility.yul\":12635:12728   */\n      tag_310\n      jump\t// in\n    tag_455:\n        /* \"#utility.yul\":12753:12755   */\n      0x40\n        /* \"#utility.yul\":12748:12751   */\n      dup3\n        /* \"#utility.yul\":12744:12756   */\n      add\n        /* \"#utility.yul\":12737:12756   */\n      swap1\n      pop\n        /* \"#utility.yul\":12396:12762   */\n      swap2\n      swap1\n      pop\n      jump\t// out\n        /* \"#utility.yul\":12768:13187   */\n    tag_219:\n        /* \"#utility.yul\":12934:12938   */\n      0x00\n        /* \"#utility.yul\":12972:12974   */\n      0x20\n        /* \"#utility.yul\":12961:12970   */\n      dup3\n        /* \"#utility.yul\":12957:12975   */\n      add\n        /* \"#utility.yul\":12949:12975   */\n      swap1\n      pop\n        /* \"#utility.yul\":13021:13030   */\n      dup2\n        /* \"#utility.yul\":13015:13019   */\n      dup2\n        /* \"#utility.yul\":13011:13031   */\n      sub\n        /* \"#utility.yul\":13007:13008   */\n      0x00\n        /* \"#utility.yul\":12996:13005   */\n      dup4\n        /* \"#utility.yul\":12992:13009   */\n      add\n        /* \"#utility.yul\":12985:13032   */\n      mstore\n        /* \"#utility.yul\":13049:13180   */\n      tag_457\n        /* \"#utility.yul\":13175:13179   */\n      dup2\n        /* \"#utility.yul\":13049:13180   */\n      tag_311\n      jump\t// in\n    tag_457:\n        /* \"#utility.yul\":13041:13180   */\n      swap1\n      pop\n        /* \"#utility.yul\":12768:13187   */\n      swap2\n      swap1\n      pop\n      jump\t// out\n        /* \"#utility.yul\":13193:13418   */\n    tag_312:\n        /* \"#utility.yul\":13333:13367   */\n      0x4f776e61626c653a206e6577206f776e657220697320746865207a65726f2061\n        /* \"#utility.yul\":13329:13330   */\n      0x00\n        /* \"#utility.yul\":13321:13327   */\n      dup3\n        /* \"#utility.yul\":13317:13331   */\n      add\n        /* \"#utility.yul\":13310:13368   */\n      mstore\n        /* \"#utility.yul\":13402:13410   */\n      0x6464726573730000000000000000000000000000000000000000000000000000\n        /* \"#utility.yul\":13397:13399   */\n      0x20\n        /* \"#utility.yul\":13389:13395   */\n      dup3\n        /* \"#utility.yul\":13385:13400   */\n      add\n        /* \"#utility.yul\":13378:13411   */\n      mstore\n        /* \"#utility.yul\":13193:13418   */\n      pop\n      jump\t// out\n        /* \"#utility.yul\":13424:13790   */\n    tag_313:\n        /* \"#utility.yul\":13566:13569   */\n      0x00\n        /* \"#utility.yul\":13587:13654   */\n      tag_460\n        /* \"#utility.yul\":13651:13653   */\n      0x26\n        /* \"#utility.yul\":13646:13649   */\n      dup4\n        /* \"#utility.yul\":13587:13654   */\n      tag_278\n      jump\t// in\n    tag_460:\n        /* \"#utility.yul\":13580:13654   */\n      swap2\n      pop\n        /* \"#utility.yul\":13663:13756   */\n      tag_461\n        /* \"#utility.yul\":13752:13755   */\n      dup3\n        /* \"#utility.yul\":13663:13756   */\n      tag_312\n      jump\t// in\n    tag_461:\n        /* \"#utility.yul\":13781:13783   */\n      0x40\n        /* \"#utility.yul\":13776:13779   */\n      dup3\n        /* \"#utility.yul\":13772:13784   */\n      add\n        /* \"#utility.yul\":13765:13784   */\n      swap1\n      pop\n        /* \"#utility.yul\":13424:13790   */\n      swap2\n      swap1\n      pop\n      jump\t// out\n        /* \"#utility.yul\":13796:14215   */\n    tag_243:\n        /* \"#utility.yul\":13962:13966   */\n      0x00\n        /* \"#utility.yul\":14000:14002   */\n      0x20\n        /* \"#utility.yul\":13989:13998   */\n      dup3\n        /* \"#utility.yul\":13985:14003   */\n      add\n        /* \"#utility.yul\":13977:14003   */\n      swap1\n      pop\n        /* \"#utility.yul\":14049:14058   */\n      dup2\n        /* \"#utility.yul\":14043:14047   */\n      dup2\n        /* \"#utility.yul\":14039:14059   */\n      sub\n        /* \"#utility.yul\":14035:14036   */\n      0x00\n        /* \"#utility.yul\":14024:14033   */\n      dup4\n        /* \"#utility.yul\":14020:14037   */\n      add\n        /* \"#utility.yul\":14013:14060   */\n      mstore\n        /* \"#utility.yul\":14077:14208   */\n      tag_463\n        /* \"#utility.yul\":14203:14207   */\n      dup2\n        /* \"#utility.yul\":14077:14208   */\n      tag_313\n      jump\t// in\n    tag_463:\n        /* \"#utility.yul\":14069:14208   */\n      swap1\n      pop\n        /* \"#utility.yul\":13796:14215   */\n      swap2\n      swap1\n      pop\n      jump\t// out\n        /* \"#utility.yul\":14221:14444   */\n    tag_314:\n        /* \"#utility.yul\":14361:14395   */\n      0x45524332303a20617070726f76652066726f6d20746865207a65726f20616464\n        /* \"#utility.yul\":14357:14358   */\n      0x00\n        /* \"#utility.yul\":14349:14355   */\n      dup3\n        /* \"#utility.yul\":14345:14359   */\n      add\n        /* \"#utility.yul\":14338:14396   */\n      mstore\n        /* \"#utility.yul\":14430:14436   */\n      0x7265737300000000000000000000000000000000000000000000000000000000\n        /* \"#utility.yul\":14425:14427   */\n      0x20\n        /* \"#utility.yul\":14417:14423   */\n      dup3\n        /* \"#utility.yul\":14413:14428   */\n      add\n        /* \"#utility.yul\":14406:14437   */\n      mstore\n        /* \"#utility.yul\":14221:14444   */\n      pop\n      jump\t// out\n        /* \"#utility.yul\":14450:14816   */\n    tag_315:\n        /* \"#utility.yul\":14592:14595   */\n      0x00\n        /* \"#utility.yul\":14613:14680   */\n      tag_466\n        /* \"#utility.yul\":14677:14679   */\n      0x24\n        /* \"#utility.yul\":14672:14675   */\n      dup4\n        /* \"#utility.yul\":14613:14680   */\n      tag_278\n      jump\t// in\n    tag_466:\n        /* \"#utility.yul\":14606:14680   */\n      swap2\n      pop\n        /* \"#utility.yul\":14689:14782   */\n      tag_467\n        /* \"#utility.yul\":14778:14781   */\n      dup3\n        /* \"#utility.yul\":14689:14782   */\n      tag_314\n      jump\t// in\n    tag_467:\n        /* \"#utility.yul\":14807:14809   */\n      0x40\n        /* \"#utility.yul\":14802:14805   */\n      dup3\n        /* \"#utility.yul\":14798:14810   */\n      add\n        /* \"#utility.yul\":14791:14810   */\n      swap1\n      pop\n        /* \"#utility.yul\":14450:14816   */\n      swap2\n      swap1\n      pop\n      jump\t// out\n        /* \"#utility.yul\":14822:15241   */\n    tag_251:\n        /* \"#utility.yul\":14988:14992   */\n      0x00\n        /* \"#utility.yul\":15026:15028   */\n      0x20\n        /* \"#utility.yul\":15015:15024   */\n      dup3\n        /* \"#utility.yul\":15011:15029   */\n      add\n        /* \"#utility.yul\":15003:15029   */\n      swap1\n      pop\n        /* \"#utility.yul\":15075:15084   */\n      dup2\n        /* \"#utility.yul\":15069:15073   */\n      dup2\n        /* \"#utility.yul\":15065:15085   */\n      sub\n        /* \"#utility.yul\":15061:15062   */\n      0x00\n        /* \"#utility.yul\":15050:15059   */\n      dup4\n        /* \"#utility.yul\":15046:15063   */\n      add\n        /* \"#utility.yul\":15039:15086   */\n      mstore\n        /* \"#utility.yul\":15103:15234   */\n      tag_469\n        /* \"#utility.yul\":15229:15233   */\n      dup2\n        /* \"#utility.yul\":15103:15234   */\n      tag_315\n      jump\t// in\n    tag_469:\n        /* \"#utility.yul\":15095:15234   */\n      swap1\n      pop\n        /* \"#utility.yul\":14822:15241   */\n      swap2\n      swap1\n      pop\n      jump\t// out\n        /* \"#utility.yul\":15247:15468   */\n    tag_316:\n        /* \"#utility.yul\":15387:15421   */\n      0x45524332303a20617070726f766520746f20746865207a65726f206164647265\n        /* \"#utility.yul\":15383:15384   */\n      0x00\n        /* \"#utility.yul\":15375:15381   */\n      dup3\n        /* \"#utility.yul\":15371:15385   */\n      add\n        /* \"#utility.yul\":15364:15422   */\n      mstore\n        /* \"#utility.yul\":15456:15460   */\n      0x7373000000000000000000000000000000000000000000000000000000000000\n        /* \"#utility.yul\":15451:15453   */\n      0x20\n        /* \"#utility.yul\":15443:15449   */\n      dup3\n        /* \"#utility.yul\":15439:15454   */\n      add\n        /* \"#utility.yul\":15432:15461   */\n      mstore\n        /* \"#utility.yul\":15247:15468   */\n      pop\n      jump\t// out\n        /* \"#utility.yul\":15474:15840   */\n    tag_317:\n        /* \"#utility.yul\":15616:15619   */\n      0x00\n        /* \"#utility.yul\":15637:15704   */\n      tag_472\n        /* \"#utility.yul\":15701:15703   */\n      0x22\n        /* \"#utility.yul\":15696:15699   */\n      dup4\n        /* \"#utility.yul\":15637:15704   */\n      tag_278\n      jump\t// in\n    tag_472:\n        /* \"#utility.yul\":15630:15704   */\n      swap2\n      pop\n        /* \"#utility.yul\":15713:15806   */\n      tag_473\n        /* \"#utility.yul\":15802:15805   */\n      dup3\n        /* \"#utility.yul\":15713:15806   */\n      tag_316\n      jump\t// in\n    tag_473:\n        /* \"#utility.yul\":15831:15833   */\n      0x40\n        /* \"#utility.yul\":15826:15829   */\n      dup3\n        /* \"#utility.yul\":15822:15834   */\n      add\n        /* \"#utility.yul\":15815:15834   */\n      swap1\n      pop\n        /* \"#utility.yul\":15474:15840   */\n      swap2\n      swap1\n      pop\n      jump\t// out\n        /* \"#utility.yul\":15846:16265   */\n    tag_254:\n        /* \"#utility.yul\":16012:16016   */\n      0x00\n        /* \"#utility.yul\":16050:16052   */\n      0x20\n        /* \"#utility.yul\":16039:16048   */\n      dup3\n        /* \"#utility.yul\":16035:16053   */\n      add\n        /* \"#utility.yul\":16027:16053   */\n      swap1\n      pop\n        /* \"#utility.yul\":16099:16108   */\n      dup2\n        /* \"#utility.yul\":16093:16097   */\n      dup2\n        /* \"#utility.yul\":16089:16109   */\n      sub\n        /* \"#utility.yul\":16085:16086   */\n      0x00\n        /* \"#utility.yul\":16074:16083   */\n      dup4\n        /* \"#utility.yul\":16070:16087   */\n      add\n        /* \"#utility.yul\":16063:16110   */\n      mstore\n        /* \"#utility.yul\":16127:16258   */\n      tag_475\n        /* \"#utility.yul\":16253:16257   */\n      dup2\n        /* \"#utility.yul\":16127:16258   */\n      tag_317\n      jump\t// in\n    tag_475:\n        /* \"#utility.yul\":16119:16258   */\n      swap1\n      pop\n        /* \"#utility.yul\":15846:16265   */\n      swap2\n      swap1\n      pop\n      jump\t// out\n        /* \"#utility.yul\":16271:16450   */\n    tag_318:\n        /* \"#utility.yul\":16411:16442   */\n      0x45524332303a20696e73756666696369656e7420616c6c6f77616e6365000000\n        /* \"#utility.yul\":16407:16408   */\n      0x00\n        /* \"#utility.yul\":16399:16405   */\n      dup3\n        /* \"#utility.yul\":16395:16409   */\n      add\n        /* \"#utility.yul\":16388:16443   */\n      mstore\n        /* \"#utility.yul\":16271:16450   */\n      pop\n      jump\t// out\n        /* \"#utility.yul\":16456:16822   */\n    tag_319:\n        /* \"#utility.yul\":16598:16601   */\n      0x00\n        /* \"#utility.yul\":16619:16686   */\n      tag_478\n        /* \"#utility.yul\":16683:16685   */\n      0x1d\n        /* \"#utility.yul\":16678:16681   */\n      dup4\n        /* \"#utility.yul\":16619:16686   */\n      tag_278\n      jump\t// in\n    tag_478:\n        /* \"#utility.yul\":16612:16686   */\n      swap2\n      pop\n        /* \"#utility.yul\":16695:16788   */\n      tag_479\n        /* \"#utility.yul\":16784:16787   */\n      dup3\n        /* \"#utility.yul\":16695:16788   */\n      tag_318\n      jump\t// in\n    tag_479:\n        /* \"#utility.yul\":16813:16815   */\n      0x20\n        /* \"#utility.yul\":16808:16811   */\n      dup3\n        /* \"#utility.yul\":16804:16816   */\n      add\n        /* \"#utility.yul\":16797:16816   */\n      swap1\n      pop\n        /* \"#utility.yul\":16456:16822   */\n      swap2\n      swap1\n      pop\n      jump\t// out\n        /* \"#utility.yul\":16828:17247   */\n    tag_261:\n        /* \"#utility.yul\":16994:16998   */\n      0x00\n        /* \"#utility.yul\":17032:17034   */\n      0x20\n        /* \"#utility.yul\":17021:17030   */\n      dup3\n        /* \"#utility.yul\":17017:17035   */\n      add\n        /* \"#utility.yul\":17009:17035   */\n      swap1\n      pop\n        /* \"#utility.yul\":17081:17090   */\n      dup2\n        /* \"#utility.yul\":17075:17079   */\n      dup2\n        /* \"#utility.yul\":17071:17091   */\n      sub\n        /* \"#utility.yul\":17067:17068   */\n      0x00\n        /* \"#utility.yul\":17056:17065   */\n      dup4\n        /* \"#utility.yul\":17052:17069   */\n      add\n        /* \"#utility.yul\":17045:17092   */\n      mstore\n        /* \"#utility.yul\":17109:17240   */\n      tag_481\n        /* \"#utility.yul\":17235:17239   */\n      dup2\n        /* \"#utility.yul\":17109:17240   */\n      tag_319\n      jump\t// in\n    tag_481:\n        /* \"#utility.yul\":17101:17240   */\n      swap1\n      pop\n        /* \"#utility.yul\":16828:17247   */\n      swap2\n      swap1\n      pop\n      jump\t// out\n        /* \"#utility.yul\":17253:17477   */\n    tag_320:\n        /* \"#utility.yul\":17393:17427   */\n      0x45524332303a207472616e736665722066726f6d20746865207a65726f206164\n        /* \"#utility.yul\":17389:17390   */\n      0x00\n        /* \"#utility.yul\":17381:17387   */\n      dup3\n        /* \"#utility.yul\":17377:17391   */\n      add\n        /* \"#utility.yul\":17370:17428   */\n      mstore\n        /* \"#utility.yul\":17462:17469   */\n      0x6472657373000000000000000000000000000000000000000000000000000000\n        /* \"#utility.yul\":17457:17459   */\n      0x20\n        /* \"#utility.yul\":17449:17455   */\n      dup3\n        /* \"#utility.yul\":17445:17460   */\n      add\n        /* \"#utility.yul\":17438:17470   */\n      mstore\n        /* \"#utility.yul\":17253:17477   */\n      pop\n      jump\t// out\n        /* \"#utility.yul\":17483:17849   */\n    tag_321:\n        /* \"#utility.yul\":17625:17628   */\n      0x00\n        /* \"#utility.yul\":17646:17713   */\n      tag_484\n        /* \"#utility.yul\":17710:17712   */\n      0x25\n        /* \"#utility.yul\":17705:17708   */\n      dup4\n        /* \"#utility.yul\":17646:17713   */\n      tag_278\n      jump\t// in\n    tag_484:\n        /* \"#utility.yul\":17639:17713   */\n      swap2\n      pop\n        /* \"#utility.yul\":17722:17815   */\n      tag_485\n        /* \"#utility.yul\":17811:17814   */\n      dup3\n        /* \"#utility.yul\":17722:17815   */\n      tag_320\n      jump\t// in\n    tag_485:\n        /* \"#utility.yul\":17840:17842   */\n      0x40\n        /* \"#utility.yul\":17835:17838   */\n      dup3\n        /* \"#utility.yul\":17831:17843   */\n      add\n        /* \"#utility.yul\":17824:17843   */\n      swap1\n      pop\n        /* \"#utility.yul\":17483:17849   */\n      swap2\n      swap1\n      pop\n      jump\t// out\n        /* \"#utility.yul\":17855:18274   */\n    tag_266:\n        /* \"#utility.yul\":18021:18025   */\n      0x00\n        /* \"#utility.yul\":18059:18061   */\n      0x20\n        /* \"#utility.yul\":18048:18057   */\n      dup3\n        /* \"#utility.yul\":18044:18062   */\n      add\n        /* \"#utility.yul\":18036:18062   */\n      swap1\n      pop\n        /* \"#utility.yul\":18108:18117   */\n      dup2\n        /* \"#utility.yul\":18102:18106   */\n      dup2\n        /* \"#utility.yul\":18098:18118   */\n      sub\n        /* \"#utility.yul\":18094:18095   */\n      0x00\n        /* \"#utility.yul\":18083:18092   */\n      dup4\n        /* \"#utility.yul\":18079:18096   */\n      add\n        /* \"#utility.yul\":18072:18119   */\n      mstore\n        /* \"#utility.yul\":18136:18267   */\n      tag_487\n        /* \"#utility.yul\":18262:18266   */\n      dup2\n        /* \"#utility.yul\":18136:18267   */\n      tag_321\n      jump\t// in\n    tag_487:\n        /* \"#utility.yul\":18128:18267   */\n      swap1\n      pop\n        /* \"#utility.yul\":17855:18274   */\n      swap2\n      swap1\n      pop\n      jump\t// out\n        /* \"#utility.yul\":18280:18502   */\n    tag_322:\n        /* \"#utility.yul\":18420:18454   */\n      0x45524332303a207472616e7366657220746f20746865207a65726f2061646472\n        /* \"#utility.yul\":18416:18417   */\n      0x00\n        /* \"#utility.yul\":18408:18414   */\n      dup3\n        /* \"#utility.yul\":18404:18418   */\n      add\n        /* \"#utility.yul\":18397:18455   */\n      mstore\n        /* \"#utility.yul\":18489:18494   */\n      0x6573730000000000000000000000000000000000000000000000000000000000\n        /* \"#utility.yul\":18484:18486   */\n      0x20\n        /* \"#utility.yul\":18476:18482   */\n      dup3\n        /* \"#utility.yul\":18472:18487   */\n      add\n        /* \"#utility.yul\":18465:18495   */\n      mstore\n        /* \"#utility.yul\":18280:18502   */\n      pop\n      jump\t// out\n        /* \"#utility.yul\":18508:18874   */\n    tag_323:\n        /* \"#utility.yul\":18650:18653   */\n      0x00\n        /* \"#utility.yul\":18671:18738   */\n      tag_490\n        /* \"#utility.yul\":18735:18737   */\n      0x23\n        /* \"#utility.yul\":18730:18733   */\n      dup4\n        /* \"#utility.yul\":18671:18738   */\n      tag_278\n      jump\t// in\n    tag_490:\n        /* \"#utility.yul\":18664:18738   */\n      swap2\n      pop\n        /* \"#utility.yul\":18747:18840   */\n      tag_491\n        /* \"#utility.yul\":18836:18839   */\n      dup3\n        /* \"#utility.yul\":18747:18840   */\n      tag_322\n      jump\t// in\n    tag_491:\n        /* \"#utility.yul\":18865:18867   */\n      0x40\n        /* \"#utility.yul\":18860:18863   */\n      dup3\n        /* \"#utility.yul\":18856:18868   */\n      add\n        /* \"#utility.yul\":18849:18868   */\n      swap1\n      pop\n        /* \"#utility.yul\":18508:18874   */\n      swap2\n      swap1\n      pop\n      jump\t// out\n        /* \"#utility.yul\":18880:19299   */\n    tag_269:\n        /* \"#utility.yul\":19046:19050   */\n      0x00\n        /* \"#utility.yul\":19084:19086   */\n      0x20\n        /* \"#utility.yul\":19073:19082   */\n      dup3\n        /* \"#utility.yul\":19069:19087   */\n      add\n        /* \"#utility.yul\":19061:19087   */\n      swap1\n      pop\n        /* \"#utility.yul\":19133:19142   */\n      dup2\n        /* \"#utility.yul\":19127:19131   */\n      dup2\n        /* \"#utility.yul\":19123:19143   */\n      sub\n        /* \"#utility.yul\":19119:19120   */\n      0x00\n        /* \"#utility.yul\":19108:19117   */\n      dup4\n        /* \"#utility.yul\":19104:19121   */\n      add\n        /* \"#utility.yul\":19097:19144   */\n      mstore\n        /* \"#utility.yul\":19161:19292   */\n      tag_493\n        /* \"#utility.yul\":19287:19291   */\n      dup2\n        /* \"#utility.yul\":19161:19292   */\n      tag_323\n      jump\t// in\n    tag_493:\n        /* \"#utility.yul\":19153:19292   */\n      swap1\n      pop\n        /* \"#utility.yul\":18880:19299   */\n      swap2\n      swap1\n      pop\n      jump\t// out\n        /* \"#utility.yul\":19305:19530   */\n    tag_324:\n        /* \"#utility.yul\":19445:19479   */\n      0x45524332303a207472616e7366657220616d6f756e7420657863656564732062\n        /* \"#utility.yul\":19441:19442   */\n      0x00\n        /* \"#utility.yul\":19433:19439   */\n      dup3\n        /* \"#utility.yul\":19429:19443   */\n      add\n        /* \"#utility.yul\":19422:19480   */\n      mstore\n        /* \"#utility.yul\":19514:19522   */\n      0x616c616e63650000000000000000000000000000000000000000000000000000\n        /* \"#utility.yul\":19509:19511   */\n      0x20\n        /* \"#utility.yul\":19501:19507   */\n      dup3\n        /* \"#utility.yul\":19497:19512   */\n      add\n        /* \"#utility.yul\":19490:19523   */\n      mstore\n        /* \"#utility.yul\":19305:19530   */\n      pop\n      jump\t// out\n        /* \"#utility.yul\":19536:19902   */\n    tag_325:\n        /* \"#utility.yul\":19678:19681   */\n      0x00\n        /* \"#utility.yul\":19699:19766   */\n      tag_496\n        /* \"#utility.yul\":19763:19765   */\n      0x26\n        /* \"#utility.yul\":19758:19761   */\n      dup4\n        /* \"#utility.yul\":19699:19766   */\n      tag_278\n      jump\t// in\n    tag_496:\n        /* \"#utility.yul\":19692:19766   */\n      swap2\n      pop\n        /* \"#utility.yul\":19775:19868   */\n      tag_497\n        /* \"#utility.yul\":19864:19867   */\n      dup3\n        /* \"#utility.yul\":19775:19868   */\n      tag_324\n      jump\t// in\n    tag_497:\n        /* \"#utility.yul\":19893:19895   */\n      0x40\n        /* \"#utility.yul\":19888:19891   */\n      dup3\n        /* \"#utility.yul\":19884:19896   */\n      add\n        /* \"#utility.yul\":19877:19896   */\n      swap1\n      pop\n        /* \"#utility.yul\":19536:19902   */\n      swap2\n      swap1\n      pop\n      jump\t// out\n        /* \"#utility.yul\":19908:20327   */\n    tag_273:\n        /* \"#utility.yul\":20074:20078   */\n      0x00\n        /* \"#utility.yul\":20112:20114   */\n      0x20\n        /* \"#utility.yul\":20101:20110   */\n      dup3\n        /* \"#utility.yul\":20097:20115   */\n      add\n        /* \"#utility.yul\":20089:20115   */\n      swap1\n      pop\n        /* \"#utility.yul\":20161:20170   */\n      dup2\n        /* \"#utility.yul\":20155:20159   */\n      dup2\n        /* \"#utility.yul\":20151:20171   */\n      sub\n        /* \"#utility.yul\":20147:20148   */\n      0x00\n        /* \"#utility.yul\":20136:20145   */\n      dup4\n        /* \"#utility.yul\":20132:20149   */\n      add\n        /* \"#utility.yul\":20125:20172   */\n      mstore\n        /* \"#utility.yul\":20189:20320   */\n      tag_499\n        /* \"#utility.yul\":20315:20319   */\n      dup2\n        /* \"#utility.yul\":20189:20320   */\n      tag_325\n      jump\t// in\n    tag_499:\n        /* \"#utility.yul\":20181:20320   */\n      swap1\n      pop\n        /* \"#utility.yul\":19908:20327   */\n      swap2\n      swap1\n      pop\n      jump\t// out\n\n    auxdata: 0xa26469706673582212205127a6567a97c8f5f488c460acf4be204e62d9d0c09cedd5347647a3276d6ead64736f6c63430008110033\n}\n",
				"bytecode": {
					"linkReferences": {},
					"object": "60806040526040518060400160405280600881526020017f4b6169546f6b656e000000000000000000000000000000000000000000000000815250600690816200004a91906200079f565b506040518060400160405280600381526020017f4b41490000000000000000000000000000000000000000000000000000000000815250600790816200009191906200079f565b50620000a26200028c60201b60201c565b600a620000b0919062000a16565b612710620000bf919062000a67565b6008556064600955348015620000d457600080fd5b5060068054620000e4906200058e565b80601f016020809104026020016040519081016040528092919081815260200182805462000112906200058e565b8015620001635780601f10620001375761010080835404028352916020019162000163565b820191906000526020600020905b8154815290600101906020018083116200014557829003601f168201915b50505050506007805462000177906200058e565b80601f0160208091040260200160405190810160405280929190818152602001828054620001a5906200058e565b8015620001f65780601f10620001ca57610100808354040283529160200191620001f6565b820191906000526020600020905b815481529060010190602001808311620001d857829003601f168201915b505050505081600390816200020c91906200079f565b5080600490816200021e91906200079f565b50505062000241620002356200029560201b60201c565b6200029d60201b60201c565b6006808162000251919062000adf565b506007808162000262919062000adf565b5062000286620002776200036360201b60201c565b6008546200038d60201b60201c565b62000ccc565b60006012905090565b600033905090565b6000600560009054906101000a900473ffffffffffffffffffffffffffffffffffffffff16905081600560006101000a81548173ffffffffffffffffffffffffffffffffffffffff021916908373ffffffffffffffffffffffffffffffffffffffff1602179055508173ffffffffffffffffffffffffffffffffffffffff168173ffffffffffffffffffffffffffffffffffffffff167f8be0079c531659141344cd1fd0a4f28419497f9722a3daafe3b4186f6b6457e060405160405180910390a35050565b6000600560009054906101000a900473ffffffffffffffffffffffffffffffffffffffff16905090565b6200039f8282620003a360201b60201c565b5050565b600073ffffffffffffffffffffffffffffffffffffffff168273ffffffffffffffffffffffffffffffffffffffff160362000415576040517f08c379a00000000000000000000000000000000000000000000000000000000081526004016200040c9062000c41565b60405180910390fd5b62000429600083836200051b60201b60201c565b80600260008282546200043d919062000c63565b92505081905550806000808473ffffffffffffffffffffffffffffffffffffffff1673ffffffffffffffffffffffffffffffffffffffff168152602001908152602001600020600082825462000494919062000c63565b925050819055508173ffffffffffffffffffffffffffffffffffffffff16600073ffffffffffffffffffffffffffffffffffffffff167fddf252ad1be2c89b69c2b068fc378daa952ba7f163c4a11628f55a4df523b3ef83604051620004fb919062000caf565b60405180910390a362000517600083836200052060201b60201c565b5050565b505050565b505050565b600081519050919050565b7f4e487b7100000000000000000000000000000000000000000000000000000000600052604160045260246000fd5b7f4e487b7100000000000000000000000000000000000000000000000000000000600052602260045260246000fd5b60006002820490506001821680620005a757607f821691505b602082108103620005bd57620005bc6200055f565b5b50919050565b60008190508160005260206000209050919050565b60006020601f8301049050919050565b600082821b905092915050565b600060088302620006277fffffffffffffffffffffffffffffffffffffffffffffffffffffffffffffffff82620005e8565b620006338683620005e8565b95508019841693508086168417925050509392505050565b6000819050919050565b6000819050919050565b6000620006806200067a62000674846200064b565b62000655565b6200064b565b9050919050565b6000819050919050565b6200069c836200065f565b620006b4620006ab8262000687565b848454620005f5565b825550505050565b600090565b620006cb620006bc565b620006d881848462000691565b505050565b5b818110156200070057620006f4600082620006c1565b600181019050620006de565b5050565b601f8211156200074f576200071981620005c3565b6200072484620005d8565b8101602085101562000734578190505b6200074c6200074385620005d8565b830182620006dd565b50505b505050565b600082821c905092915050565b6000620007746000198460080262000754565b1980831691505092915050565b60006200078f838362000761565b9150826002028217905092915050565b620007aa8262000525565b67ffffffffffffffff811115620007c657620007c562000530565b5b620007d282546200058e565b620007df82828562000704565b600060209050601f83116001811462000817576000841562000802578287015190505b6200080e858262000781565b8655506200087e565b601f1984166200082786620005c3565b60005b8281101562000851578489015182556001820191506020850194506020810190506200082a565b868310156200087157848901516200086d601f89168262000761565b8355505b6001600288020188555050505b505050505050565b7f4e487b7100000000000000000000000000000000000000000000000000000000600052601160045260246000fd5b60008160011c9050919050565b6000808291508390505b60018511156200091457808604811115620008ec57620008eb62000886565b5b6001851615620008fc5780820291505b80810290506200090c85620008b5565b9450620008cc565b94509492505050565b6000826200092f576001905062000a02565b816200093f576000905062000a02565b8160018114620009585760028114620009635762000999565b600191505062000a02565b60ff84111562000978576200097762000886565b5b8360020a91508482111562000992576200099162000886565b5b5062000a02565b5060208310610133831016604e8410600b8410161715620009d35782820a905083811115620009cd57620009cc62000886565b5b62000a02565b620009e28484846001620008c2565b92509050818404811115620009fc57620009fb62000886565b5b81810290505b9392505050565b600060ff82169050919050565b600062000a23826200064b565b915062000a308362000a09565b925062000a5f7fffffffffffffffffffffffffffffffffffffffffffffffffffffffffffffffff84846200091d565b905092915050565b600062000a74826200064b565b915062000a81836200064b565b925082820262000a91816200064b565b9150828204841483151762000aab5762000aaa62000886565b5b5092915050565b60008154905062000ac3816200058e565b9050919050565b60008190508160005260206000209050919050565b81810362000aef57505062000bde565b62000afa8262000ab2565b67ffffffffffffffff81111562000b165762000b1562000530565b5b62000b2282546200058e565b62000b2f82828562000704565b6000601f83116001811462000b63576000841562000b4e578287015490505b62000b5a858262000781565b86555062000bd7565b601f19841662000b738762000aca565b965062000b8086620005c3565b60005b8281101562000baa5784890154825560018201915060018501945060208101905062000b83565b8683101562000bca578489015462000bc6601f89168262000761565b8355505b6001600288020188555050505b5050505050505b565b600082825260208201905092915050565b7f45524332303a206d696e7420746f20746865207a65726f206164647265737300600082015250565b600062000c29601f8362000be0565b915062000c368262000bf1565b602082019050919050565b6000602082019050818103600083015262000c5c8162000c1a565b9050919050565b600062000c70826200064b565b915062000c7d836200064b565b925082820190508082111562000c985762000c9762000886565b5b92915050565b62000ca9816200064b565b82525050565b600060208201905062000cc6600083018462000c9e565b92915050565b611f8a8062000cdc6000396000f3fe60806040526004361061012e5760003560e01c806370a08231116100ab578063a9059cbb1161006f578063a9059cbb146104f9578063b09f126614610536578063d28d885214610561578063dd62ed3e1461058c578063f2fde38b146105c9578063fffc5e89146105f25761023a565b806370a0823114610412578063715018a61461044f5780638da5cb5b1461046657806395d89b4114610491578063a457c2d7146104bc5761023a565b80632c4e722e116100f25780632c4e722e1461032b578063313ce5671461035657806339509351146103815780633eaaf86b146103be57806340c10f19146103e95761023a565b806306fdde031461023f578063095ea7b31461026a57806318160ddd146102a75780632397e4d7146102d257806323b872dd146102ee5761023a565b3661023a5760003403610176576040517f08c379a000000000000000000000000000000000000000000000000000000000815260040161016d906114c5565b60405180910390fd5b600060095434610186919061151e565b90508061019961019461061b565b610645565b10156101da576040517f08c379a00000000000000000000000000000000000000000000000000000000081526004016101d1906115ac565b60405180910390fd5b6101ec6101e561061b565b338361068d565b6101f461061b565b73ffffffffffffffffffffffffffffffffffffffff163373ffffffffffffffffffffffffffffffffffffffff16036102385761023761023161061b565b8261073c565b5b005b600080fd5b34801561024b57600080fd5b5061025461089b565b604051610261919061164b565b60405180910390f35b34801561027657600080fd5b50610291600480360381019061028c91906116fc565b61092d565b60405161029e9190611757565b60405180910390f35b3480156102b357600080fd5b506102bc610950565b6040516102c99190611781565b60405180910390f35b6102ec60048036038101906102e7919061179c565b61095a565b005b3480156102fa57600080fd5b50610315600480360381019061031091906117c9565b6109e5565b6040516103229190611757565b60405180910390f35b34801561033757600080fd5b50610340610a14565b60405161034d9190611781565b60405180910390f35b34801561036257600080fd5b5061036b610a1a565b6040516103789190611838565b60405180910390f35b34801561038d57600080fd5b506103a860048036038101906103a391906116fc565b610a23565b6040516103b59190611757565b60405180910390f35b3480156103ca57600080fd5b506103d3610a5a565b6040516103e09190611781565b60405180910390f35b3480156103f557600080fd5b50610410600480360381019061040b91906116fc565b610a60565b005b34801561041e57600080fd5b5061043960048036038101906104349190611853565b610645565b6040516104469190611781565b60405180910390f35b34801561045b57600080fd5b50610464610a6e565b005b34801561047257600080fd5b5061047b61061b565b604051610488919061188f565b60405180910390f35b34801561049d57600080fd5b506104a6610af6565b6040516104b3919061164b565b60405180910390f35b3480156104c857600080fd5b506104e360048036038101906104de91906116fc565b610b88565b6040516104f09190611757565b60405180910390f35b34801561050557600080fd5b50610520600480360381019061051b91906116fc565b610bff565b60405161052d9190611757565b60405180910390f35b34801561054257600080fd5b5061054b610c22565b604051610558919061164b565b60405180910390f35b34801561056d57600080fd5b50610576610cb0565b604051610583919061164b565b60405180910390f35b34801561059857600080fd5b506105b360048036038101906105ae91906118aa565b610d3e565b6040516105c09190611781565b60405180910390f35b3480156105d557600080fd5b506105f060048036038101906105eb9190611853565b610dc5565b005b3480156105fe57600080fd5b50610619600480360381019061061491906117c9565b61068d565b005b6000600560009054906101000a900473ffffffffffffffffffffffffffffffffffffffff16905090565b60008060008373ffffffffffffffffffffffffffffffffffffffff1673ffffffffffffffffffffffffffffffffffffffff168152602001908152602001600020549050919050565b806000808573ffffffffffffffffffffffffffffffffffffffff1673ffffffffffffffffffffffffffffffffffffffff16815260200190815260200160002060008282546106db91906118ea565b92505081905550806000808473ffffffffffffffffffffffffffffffffffffffff1673ffffffffffffffffffffffffffffffffffffffff1681526020019081526020016000206000828254610730919061191e565b92505081905550505050565b600073ffffffffffffffffffffffffffffffffffffffff168273ffffffffffffffffffffffffffffffffffffffff16036107ab576040517f08c379a00000000000000000000000000000000000000000000000000000000081526004016107a29061199e565b60405180910390fd5b6107b760008383610ebc565b80600260008282546107c9919061191e565b92505081905550806000808473ffffffffffffffffffffffffffffffffffffffff1673ffffffffffffffffffffffffffffffffffffffff168152602001908152602001600020600082825461081e919061191e565b925050819055508173ffffffffffffffffffffffffffffffffffffffff16600073ffffffffffffffffffffffffffffffffffffffff167fddf252ad1be2c89b69c2b068fc378daa952ba7f163c4a11628f55a4df523b3ef836040516108839190611781565b60405180910390a361089760008383610ec1565b5050565b6060600380546108aa906119ed565b80601f01602080910402602001604051908101604052809291908181526020018280546108d6906119ed565b80156109235780601f106108f857610100808354040283529160200191610923565b820191906000526020600020905b81548152906001019060200180831161090657829003601f168201915b5050505050905090565b600080610938610ec6565b9050610945818585610ece565b600191505092915050565b6000600254905090565b8061096433610645565b101561096f57600080fd5b60006009548261097f9190611a4d565b90508047101561098e57600080fd5b6109993330846109e5565b503373ffffffffffffffffffffffffffffffffffffffff166108fc829081150290604051600060405180830381858888f193505050501580156109e0573d6000803e3d6000fd5b505050565b6000806109f0610ec6565b90506109fd858285611097565b610a08858585611123565b60019150509392505050565b60095481565b60006012905090565b600080610a2e610ec6565b9050610a4f818585610a408589610d3e565b610a4a919061191e565b610ece565b600191505092915050565b60085481565b610a6a828261073c565b5050565b610a76610ec6565b73ffffffffffffffffffffffffffffffffffffffff16610a9461061b565b73ffffffffffffffffffffffffffffffffffffffff1614610aea576040517f08c379a0000000000000000000000000000000000000000000000000000000008152600401610ae190611aca565b60405180910390fd5b610af460006113a2565b565b606060048054610b05906119ed565b80601f0160208091040260200160405190810160405280929190818152602001828054610b31906119ed565b8015610b7e5780601f10610b5357610100808354040283529160200191610b7e565b820191906000526020600020905b815481529060010190602001808311610b6157829003601f168201915b5050505050905090565b600080610b93610ec6565b90506000610ba18286610d3e565b905083811015610be6576040517f08c379a0000000000000000000000000000000000000000000000000000000008152600401610bdd90611b5c565b60405180910390fd5b610bf38286868403610ece565b60019250505092915050565b600080610c0a610ec6565b9050610c17818585611123565b600191505092915050565b60078054610c2f906119ed565b80601f0160208091040260200160405190810160405280929190818152602001828054610c5b906119ed565b8015610ca85780601f10610c7d57610100808354040283529160200191610ca8565b820191906000526020600020905b815481529060010190602001808311610c8b57829003601f168201915b505050505081565b60068054610cbd906119ed565b80601f0160208091040260200160405190810160405280929190818152602001828054610ce9906119ed565b8015610d365780601f10610d0b57610100808354040283529160200191610d36565b820191906000526020600020905b815481529060010190602001808311610d1957829003601f168201915b505050505081565b6000600160008473ffffffffffffffffffffffffffffffffffffffff1673ffffffffffffffffffffffffffffffffffffffff16815260200190815260200160002060008373ffffffffffffffffffffffffffffffffffffffff1673ffffffffffffffffffffffffffffffffffffffff16815260200190815260200160002054905092915050565b610dcd610ec6565b73ffffffffffffffffffffffffffffffffffffffff16610deb61061b565b73ffffffffffffffffffffffffffffffffffffffff1614610e41576040517f08c379a0000000000000000000000000000000000000000000000000000000008152600401610e3890611aca565b60405180910390fd5b600073ffffffffffffffffffffffffffffffffffffffff168173ffffffffffffffffffffffffffffffffffffffff1603610eb0576040517f08c379a0000000000000000000000000000000000000000000000000000000008152600401610ea790611bee565b60405180910390fd5b610eb9816113a2565b50565b505050565b505050565b600033905090565b600073ffffffffffffffffffffffffffffffffffffffff168373ffffffffffffffffffffffffffffffffffffffff1603610f3d576040517f08c379a0000000000000000000000000000000000000000000000000000000008152600401610f3490611c80565b60405180910390fd5b600073ffffffffffffffffffffffffffffffffffffffff168273ffffffffffffffffffffffffffffffffffffffff1603610fac576040517f08c379a0000000000000000000000000000000000000000000000000000000008152600401610fa390611d12565b60405180910390fd5b80600160008573ffffffffffffffffffffffffffffffffffffffff1673ffffffffffffffffffffffffffffffffffffffff16815260200190815260200160002060008473ffffffffffffffffffffffffffffffffffffffff1673ffffffffffffffffffffffffffffffffffffffff168152602001908152602001600020819055508173ffffffffffffffffffffffffffffffffffffffff168373ffffffffffffffffffffffffffffffffffffffff167f8c5be1e5ebec7d5bd14f71427d1e84f3dd0314c0f7b2291e5b200ac8c7c3b9258360405161108a9190611781565b60405180910390a3505050565b60006110a38484610d3e565b90507fffffffffffffffffffffffffffffffffffffffffffffffffffffffffffffffff811461111d578181101561110f576040517f08c379a000000000000000000000000000000000000000000000000000000000815260040161110690611d7e565b60405180910390fd5b61111c8484848403610ece565b5b50505050565b600073ffffffffffffffffffffffffffffffffffffffff168373ffffffffffffffffffffffffffffffffffffffff1603611192576040517f08c379a000000000000000000000000000000000000000000000000000000000815260040161118990611e10565b60405180910390fd5b600073ffffffffffffffffffffffffffffffffffffffff168273ffffffffffffffffffffffffffffffffffffffff1603611201576040517f08c379a00000000000000000000000000000000000000000000000000000000081526004016111f890611ea2565b60405180910390fd5b61120c838383610ebc565b60008060008573ffffffffffffffffffffffffffffffffffffffff1673ffffffffffffffffffffffffffffffffffffffff16815260200190815260200160002054905081811015611292576040517f08c379a000000000000000000000000000000000000000000000000000000000815260040161128990611f34565b60405180910390fd5b8181036000808673ffffffffffffffffffffffffffffffffffffffff1673ffffffffffffffffffffffffffffffffffffffff16815260200190815260200160002081905550816000808573ffffffffffffffffffffffffffffffffffffffff1673ffffffffffffffffffffffffffffffffffffffff1681526020019081526020016000206000828254611325919061191e565b925050819055508273ffffffffffffffffffffffffffffffffffffffff168473ffffffffffffffffffffffffffffffffffffffff167fddf252ad1be2c89b69c2b068fc378daa952ba7f163c4a11628f55a4df523b3ef846040516113899190611781565b60405180910390a361139c848484610ec1565b50505050565b6000600560009054906101000a900473ffffffffffffffffffffffffffffffffffffffff16905081600560006101000a81548173ffffffffffffffffffffffffffffffffffffffff021916908373ffffffffffffffffffffffffffffffffffffffff1602179055508173ffffffffffffffffffffffffffffffffffffffff168173ffffffffffffffffffffffffffffffffffffffff167f8be0079c531659141344cd1fd0a4f28419497f9722a3daafe3b4186f6b6457e060405160405180910390a35050565b600082825260208201905092915050565b7f456e7465722061206e6f6e7a65726f2076616c75650000000000000000000000600082015250565b60006114af601583611468565b91506114ba82611479565b602082019050919050565b600060208201905081810360008301526114de816114a2565b9050919050565b6000819050919050565b7f4e487b7100000000000000000000000000000000000000000000000000000000600052601160045260246000fd5b6000611529826114e5565b9150611534836114e5565b9250828202611542816114e5565b91508282048414831517611559576115586114ef565b5b5092915050565b7f6f776e6572204b6169546f6b656e206973206e6f20616d6f756e740000000000600082015250565b6000611596601b83611468565b91506115a182611560565b602082019050919050565b600060208201905081810360008301526115c581611589565b9050919050565b600081519050919050565b60005b838110156115f55780820151818401526020810190506115da565b60008484015250505050565b6000601f19601f8301169050919050565b600061161d826115cc565b6116278185611468565b93506116378185602086016115d7565b61164081611601565b840191505092915050565b600060208201905081810360008301526116658184611612565b905092915050565b600080fd5b600073ffffffffffffffffffffffffffffffffffffffff82169050919050565b600061169d82611672565b9050919050565b6116ad81611692565b81146116b857600080fd5b50565b6000813590506116ca816116a4565b92915050565b6116d9816114e5565b81146116e457600080fd5b50565b6000813590506116f6816116d0565b92915050565b600080604083850312156117135761171261166d565b5b6000611721858286016116bb565b9250506020611732858286016116e7565b9150509250929050565b60008115159050919050565b6117518161173c565b82525050565b600060208201905061176c6000830184611748565b92915050565b61177b816114e5565b82525050565b60006020820190506117966000830184611772565b92915050565b6000602082840312156117b2576117b161166d565b5b60006117c0848285016116e7565b91505092915050565b6000806000606084860312156117e2576117e161166d565b5b60006117f0868287016116bb565b9350506020611801868287016116bb565b9250506040611812868287016116e7565b9150509250925092565b600060ff82169050919050565b6118328161181c565b82525050565b600060208201905061184d6000830184611829565b92915050565b6000602082840312156118695761186861166d565b5b6000611877848285016116bb565b91505092915050565b61188981611692565b82525050565b60006020820190506118a46000830184611880565b92915050565b600080604083850312156118c1576118c061166d565b5b60006118cf858286016116bb565b92505060206118e0858286016116bb565b9150509250929050565b60006118f5826114e5565b9150611900836114e5565b9250828203905081811115611918576119176114ef565b5b92915050565b6000611929826114e5565b9150611934836114e5565b925082820190508082111561194c5761194b6114ef565b5b92915050565b7f45524332303a206d696e7420746f20746865207a65726f206164647265737300600082015250565b6000611988601f83611468565b915061199382611952565b602082019050919050565b600060208201905081810360008301526119b78161197b565b9050919050565b7f4e487b7100000000000000000000000000000000000000000000000000000000600052602260045260246000fd5b60006002820490506001821680611a0557607f821691505b602082108103611a1857611a176119be565b5b50919050565b7f4e487b7100000000000000000000000000000000000000000000000000000000600052601260045260246000fd5b6000611a58826114e5565b9150611a63836114e5565b925082611a7357611a72611a1e565b5b828204905092915050565b7f4f776e61626c653a2063616c6c6572206973206e6f7420746865206f776e6572600082015250565b6000611ab4602083611468565b9150611abf82611a7e565b602082019050919050565b60006020820190508181036000830152611ae381611aa7565b9050919050565b7f45524332303a2064656372656173656420616c6c6f77616e63652062656c6f7760008201527f207a65726f000000000000000000000000000000000000000000000000000000602082015250565b6000611b46602583611468565b9150611b5182611aea565b604082019050919050565b60006020820190508181036000830152611b7581611b39565b9050919050565b7f4f776e61626c653a206e6577206f776e657220697320746865207a65726f206160008201527f6464726573730000000000000000000000000000000000000000000000000000602082015250565b6000611bd8602683611468565b9150611be382611b7c565b604082019050919050565b60006020820190508181036000830152611c0781611bcb565b9050919050565b7f45524332303a20617070726f76652066726f6d20746865207a65726f2061646460008201527f7265737300000000000000000000000000000000000000000000000000000000602082015250565b6000611c6a602483611468565b9150611c7582611c0e565b604082019050919050565b60006020820190508181036000830152611c9981611c5d565b9050919050565b7f45524332303a20617070726f766520746f20746865207a65726f20616464726560008201527f7373000000000000000000000000000000000000000000000000000000000000602082015250565b6000611cfc602283611468565b9150611d0782611ca0565b604082019050919050565b60006020820190508181036000830152611d2b81611cef565b9050919050565b7f45524332303a20696e73756666696369656e7420616c6c6f77616e6365000000600082015250565b6000611d68601d83611468565b9150611d7382611d32565b602082019050919050565b60006020820190508181036000830152611d9781611d5b565b9050919050565b7f45524332303a207472616e736665722066726f6d20746865207a65726f20616460008201527f6472657373000000000000000000000000000000000000000000000000000000602082015250565b6000611dfa602583611468565b9150611e0582611d9e565b604082019050919050565b60006020820190508181036000830152611e2981611ded565b9050919050565b7f45524332303a207472616e7366657220746f20746865207a65726f206164647260008201527f6573730000000000000000000000000000000000000000000000000000000000602082015250565b6000611e8c602383611468565b9150611e9782611e30565b604082019050919050565b60006020820190508181036000830152611ebb81611e7f565b9050919050565b7f45524332303a207472616e7366657220616d6f756e742065786365656473206260008201527f616c616e63650000000000000000000000000000000000000000000000000000602082015250565b6000611f1e602683611468565b9150611f2982611ec2565b604082019050919050565b60006020820190508181036000830152611f4d81611f11565b905091905056fea26469706673582212205127a6567a97c8f5f488c460acf4be204e62d9d0c09cedd5347647a3276d6ead64736f6c63430008110033",
					"opcodes": "PUSH1 0x80 PUSH1 0x40 MSTORE PUSH1 0x40 MLOAD DUP1 PUSH1 0x40 ADD PUSH1 0x40 MSTORE DUP1 PUSH1 0x8 DUP2 MSTORE PUSH1 0x20 ADD PUSH32 0x4B6169546F6B656E000000000000000000000000000000000000000000000000 DUP2 MSTORE POP PUSH1 0x6 SWAP1 DUP2 PUSH3 0x4A SWAP2 SWAP1 PUSH3 0x79F JUMP JUMPDEST POP PUSH1 0x40 MLOAD DUP1 PUSH1 0x40 ADD PUSH1 0x40 MSTORE DUP1 PUSH1 0x3 DUP2 MSTORE PUSH1 0x20 ADD PUSH32 0x4B41490000000000000000000000000000000000000000000000000000000000 DUP2 MSTORE POP PUSH1 0x7 SWAP1 DUP2 PUSH3 0x91 SWAP2 SWAP1 PUSH3 0x79F JUMP JUMPDEST POP PUSH3 0xA2 PUSH3 0x28C PUSH1 0x20 SHL PUSH1 0x20 SHR JUMP JUMPDEST PUSH1 0xA PUSH3 0xB0 SWAP2 SWAP1 PUSH3 0xA16 JUMP JUMPDEST PUSH2 0x2710 PUSH3 0xBF SWAP2 SWAP1 PUSH3 0xA67 JUMP JUMPDEST PUSH1 0x8 SSTORE PUSH1 0x64 PUSH1 0x9 SSTORE CALLVALUE DUP1 ISZERO PUSH3 0xD4 JUMPI PUSH1 0x0 DUP1 REVERT JUMPDEST POP PUSH1 0x6 DUP1 SLOAD PUSH3 0xE4 SWAP1 PUSH3 0x58E JUMP JUMPDEST DUP1 PUSH1 0x1F ADD PUSH1 0x20 DUP1 SWAP2 DIV MUL PUSH1 0x20 ADD PUSH1 0x40 MLOAD SWAP1 DUP2 ADD PUSH1 0x40 MSTORE DUP1 SWAP3 SWAP2 SWAP1 DUP2 DUP2 MSTORE PUSH1 0x20 ADD DUP3 DUP1 SLOAD PUSH3 0x112 SWAP1 PUSH3 0x58E JUMP JUMPDEST DUP1 ISZERO PUSH3 0x163 JUMPI DUP1 PUSH1 0x1F LT PUSH3 0x137 JUMPI PUSH2 0x100 DUP1 DUP4 SLOAD DIV MUL DUP4 MSTORE SWAP2 PUSH1 0x20 ADD SWAP2 PUSH3 0x163 JUMP JUMPDEST DUP3 ADD SWAP2 SWAP1 PUSH1 0x0 MSTORE PUSH1 0x20 PUSH1 0x0 KECCAK256 SWAP1 JUMPDEST DUP2 SLOAD DUP2 MSTORE SWAP1 PUSH1 0x1 ADD SWAP1 PUSH1 0x20 ADD DUP1 DUP4 GT PUSH3 0x145 JUMPI DUP3 SWAP1 SUB PUSH1 0x1F AND DUP3 ADD SWAP2 JUMPDEST POP POP POP POP POP PUSH1 0x7 DUP1 SLOAD PUSH3 0x177 SWAP1 PUSH3 0x58E JUMP JUMPDEST DUP1 PUSH1 0x1F ADD PUSH1 0x20 DUP1 SWAP2 DIV MUL PUSH1 0x20 ADD PUSH1 0x40 MLOAD SWAP1 DUP2 ADD PUSH1 0x40 MSTORE DUP1 SWAP3 SWAP2 SWAP1 DUP2 DUP2 MSTORE PUSH1 0x20 ADD DUP3 DUP1 SLOAD PUSH3 0x1A5 SWAP1 PUSH3 0x58E JUMP JUMPDEST DUP1 ISZERO PUSH3 0x1F6 JUMPI DUP1 PUSH1 0x1F LT PUSH3 0x1CA JUMPI PUSH2 0x100 DUP1 DUP4 SLOAD DIV MUL DUP4 MSTORE SWAP2 PUSH1 0x20 ADD SWAP2 PUSH3 0x1F6 JUMP JUMPDEST DUP3 ADD SWAP2 SWAP1 PUSH1 0x0 MSTORE PUSH1 0x20 PUSH1 0x0 KECCAK256 SWAP1 JUMPDEST DUP2 SLOAD DUP2 MSTORE SWAP1 PUSH1 0x1 ADD SWAP1 PUSH1 0x20 ADD DUP1 DUP4 GT PUSH3 0x1D8 JUMPI DUP3 SWAP1 SUB PUSH1 0x1F AND DUP3 ADD SWAP2 JUMPDEST POP POP POP POP POP DUP2 PUSH1 0x3 SWAP1 DUP2 PUSH3 0x20C SWAP2 SWAP1 PUSH3 0x79F JUMP JUMPDEST POP DUP1 PUSH1 0x4 SWAP1 DUP2 PUSH3 0x21E SWAP2 SWAP1 PUSH3 0x79F JUMP JUMPDEST POP POP POP PUSH3 0x241 PUSH3 0x235 PUSH3 0x295 PUSH1 0x20 SHL PUSH1 0x20 SHR JUMP JUMPDEST PUSH3 0x29D PUSH1 0x20 SHL PUSH1 0x20 SHR JUMP JUMPDEST PUSH1 0x6 DUP1 DUP2 PUSH3 0x251 SWAP2 SWAP1 PUSH3 0xADF JUMP JUMPDEST POP PUSH1 0x7 DUP1 DUP2 PUSH3 0x262 SWAP2 SWAP1 PUSH3 0xADF JUMP JUMPDEST POP PUSH3 0x286 PUSH3 0x277 PUSH3 0x363 PUSH1 0x20 SHL PUSH1 0x20 SHR JUMP JUMPDEST PUSH1 0x8 SLOAD PUSH3 0x38D PUSH1 0x20 SHL PUSH1 0x20 SHR JUMP JUMPDEST PUSH3 0xCCC JUMP JUMPDEST PUSH1 0x0 PUSH1 0x12 SWAP1 POP SWAP1 JUMP JUMPDEST PUSH1 0x0 CALLER SWAP1 POP SWAP1 JUMP JUMPDEST PUSH1 0x0 PUSH1 0x5 PUSH1 0x0 SWAP1 SLOAD SWAP1 PUSH2 0x100 EXP SWAP1 DIV PUSH20 0xFFFFFFFFFFFFFFFFFFFFFFFFFFFFFFFFFFFFFFFF AND SWAP1 POP DUP2 PUSH1 0x5 PUSH1 0x0 PUSH2 0x100 EXP DUP2 SLOAD DUP2 PUSH20 0xFFFFFFFFFFFFFFFFFFFFFFFFFFFFFFFFFFFFFFFF MUL NOT AND SWAP1 DUP4 PUSH20 0xFFFFFFFFFFFFFFFFFFFFFFFFFFFFFFFFFFFFFFFF AND MUL OR SWAP1 SSTORE POP DUP2 PUSH20 0xFFFFFFFFFFFFFFFFFFFFFFFFFFFFFFFFFFFFFFFF AND DUP2 PUSH20 0xFFFFFFFFFFFFFFFFFFFFFFFFFFFFFFFFFFFFFFFF AND PUSH32 0x8BE0079C531659141344CD1FD0A4F28419497F9722A3DAAFE3B4186F6B6457E0 PUSH1 0x40 MLOAD PUSH1 0x40 MLOAD DUP1 SWAP2 SUB SWAP1 LOG3 POP POP JUMP JUMPDEST PUSH1 0x0 PUSH1 0x5 PUSH1 0x0 SWAP1 SLOAD SWAP1 PUSH2 0x100 EXP SWAP1 DIV PUSH20 0xFFFFFFFFFFFFFFFFFFFFFFFFFFFFFFFFFFFFFFFF AND SWAP1 POP SWAP1 JUMP JUMPDEST PUSH3 0x39F DUP3 DUP3 PUSH3 0x3A3 PUSH1 0x20 SHL PUSH1 0x20 SHR JUMP JUMPDEST POP POP JUMP JUMPDEST PUSH1 0x0 PUSH20 0xFFFFFFFFFFFFFFFFFFFFFFFFFFFFFFFFFFFFFFFF AND DUP3 PUSH20 0xFFFFFFFFFFFFFFFFFFFFFFFFFFFFFFFFFFFFFFFF AND SUB PUSH3 0x415 JUMPI PUSH1 0x40 MLOAD PUSH32 0x8C379A000000000000000000000000000000000000000000000000000000000 DUP2 MSTORE PUSH1 0x4 ADD PUSH3 0x40C SWAP1 PUSH3 0xC41 JUMP JUMPDEST PUSH1 0x40 MLOAD DUP1 SWAP2 SUB SWAP1 REVERT JUMPDEST PUSH3 0x429 PUSH1 0x0 DUP4 DUP4 PUSH3 0x51B PUSH1 0x20 SHL PUSH1 0x20 SHR JUMP JUMPDEST DUP1 PUSH1 0x2 PUSH1 0x0 DUP3 DUP3 SLOAD PUSH3 0x43D SWAP2 SWAP1 PUSH3 0xC63 JUMP JUMPDEST SWAP3 POP POP DUP2 SWAP1 SSTORE POP DUP1 PUSH1 0x0 DUP1 DUP5 PUSH20 0xFFFFFFFFFFFFFFFFFFFFFFFFFFFFFFFFFFFFFFFF AND PUSH20 0xFFFFFFFFFFFFFFFFFFFFFFFFFFFFFFFFFFFFFFFF AND DUP2 MSTORE PUSH1 0x20 ADD SWAP1 DUP2 MSTORE PUSH1 0x20 ADD PUSH1 0x0 KECCAK256 PUSH1 0x0 DUP3 DUP3 SLOAD PUSH3 0x494 SWAP2 SWAP1 PUSH3 0xC63 JUMP JUMPDEST SWAP3 POP POP DUP2 SWAP1 SSTORE POP DUP2 PUSH20 0xFFFFFFFFFFFFFFFFFFFFFFFFFFFFFFFFFFFFFFFF AND PUSH1 0x0 PUSH20 0xFFFFFFFFFFFFFFFFFFFFFFFFFFFFFFFFFFFFFFFF AND PUSH32 0xDDF252AD1BE2C89B69C2B068FC378DAA952BA7F163C4A11628F55A4DF523B3EF DUP4 PUSH1 0x40 MLOAD PUSH3 0x4FB SWAP2 SWAP1 PUSH3 0xCAF JUMP JUMPDEST PUSH1 0x40 MLOAD DUP1 SWAP2 SUB SWAP1 LOG3 PUSH3 0x517 PUSH1 0x0 DUP4 DUP4 PUSH3 0x520 PUSH1 0x20 SHL PUSH1 0x20 SHR JUMP JUMPDEST POP POP JUMP JUMPDEST POP POP POP JUMP JUMPDEST POP POP POP JUMP JUMPDEST PUSH1 0x0 DUP2 MLOAD SWAP1 POP SWAP2 SWAP1 POP JUMP JUMPDEST PUSH32 0x4E487B7100000000000000000000000000000000000000000000000000000000 PUSH1 0x0 MSTORE PUSH1 0x41 PUSH1 0x4 MSTORE PUSH1 0x24 PUSH1 0x0 REVERT JUMPDEST PUSH32 0x4E487B7100000000000000000000000000000000000000000000000000000000 PUSH1 0x0 MSTORE PUSH1 0x22 PUSH1 0x4 MSTORE PUSH1 0x24 PUSH1 0x0 REVERT JUMPDEST PUSH1 0x0 PUSH1 0x2 DUP3 DIV SWAP1 POP PUSH1 0x1 DUP3 AND DUP1 PUSH3 0x5A7 JUMPI PUSH1 0x7F DUP3 AND SWAP2 POP JUMPDEST PUSH1 0x20 DUP3 LT DUP2 SUB PUSH3 0x5BD JUMPI PUSH3 0x5BC PUSH3 0x55F JUMP JUMPDEST JUMPDEST POP SWAP2 SWAP1 POP JUMP JUMPDEST PUSH1 0x0 DUP2 SWAP1 POP DUP2 PUSH1 0x0 MSTORE PUSH1 0x20 PUSH1 0x0 KECCAK256 SWAP1 POP SWAP2 SWAP1 POP JUMP JUMPDEST PUSH1 0x0 PUSH1 0x20 PUSH1 0x1F DUP4 ADD DIV SWAP1 POP SWAP2 SWAP1 POP JUMP JUMPDEST PUSH1 0x0 DUP3 DUP3 SHL SWAP1 POP SWAP3 SWAP2 POP POP JUMP JUMPDEST PUSH1 0x0 PUSH1 0x8 DUP4 MUL PUSH3 0x627 PUSH32 0xFFFFFFFFFFFFFFFFFFFFFFFFFFFFFFFFFFFFFFFFFFFFFFFFFFFFFFFFFFFFFFFF DUP3 PUSH3 0x5E8 JUMP JUMPDEST PUSH3 0x633 DUP7 DUP4 PUSH3 0x5E8 JUMP JUMPDEST SWAP6 POP DUP1 NOT DUP5 AND SWAP4 POP DUP1 DUP7 AND DUP5 OR SWAP3 POP POP POP SWAP4 SWAP3 POP POP POP JUMP JUMPDEST PUSH1 0x0 DUP2 SWAP1 POP SWAP2 SWAP1 POP JUMP JUMPDEST PUSH1 0x0 DUP2 SWAP1 POP SWAP2 SWAP1 POP JUMP JUMPDEST PUSH1 0x0 PUSH3 0x680 PUSH3 0x67A PUSH3 0x674 DUP5 PUSH3 0x64B JUMP JUMPDEST PUSH3 0x655 JUMP JUMPDEST PUSH3 0x64B JUMP JUMPDEST SWAP1 POP SWAP2 SWAP1 POP JUMP JUMPDEST PUSH1 0x0 DUP2 SWAP1 POP SWAP2 SWAP1 POP JUMP JUMPDEST PUSH3 0x69C DUP4 PUSH3 0x65F JUMP JUMPDEST PUSH3 0x6B4 PUSH3 0x6AB DUP3 PUSH3 0x687 JUMP JUMPDEST DUP5 DUP5 SLOAD PUSH3 0x5F5 JUMP JUMPDEST DUP3 SSTORE POP POP POP POP JUMP JUMPDEST PUSH1 0x0 SWAP1 JUMP JUMPDEST PUSH3 0x6CB PUSH3 0x6BC JUMP JUMPDEST PUSH3 0x6D8 DUP2 DUP5 DUP5 PUSH3 0x691 JUMP JUMPDEST POP POP POP JUMP JUMPDEST JUMPDEST DUP2 DUP2 LT ISZERO PUSH3 0x700 JUMPI PUSH3 0x6F4 PUSH1 0x0 DUP3 PUSH3 0x6C1 JUMP JUMPDEST PUSH1 0x1 DUP2 ADD SWAP1 POP PUSH3 0x6DE JUMP JUMPDEST POP POP JUMP JUMPDEST PUSH1 0x1F DUP3 GT ISZERO PUSH3 0x74F JUMPI PUSH3 0x719 DUP2 PUSH3 0x5C3 JUMP JUMPDEST PUSH3 0x724 DUP5 PUSH3 0x5D8 JUMP JUMPDEST DUP2 ADD PUSH1 0x20 DUP6 LT ISZERO PUSH3 0x734 JUMPI DUP2 SWAP1 POP JUMPDEST PUSH3 0x74C PUSH3 0x743 DUP6 PUSH3 0x5D8 JUMP JUMPDEST DUP4 ADD DUP3 PUSH3 0x6DD JUMP JUMPDEST POP POP JUMPDEST POP POP POP JUMP JUMPDEST PUSH1 0x0 DUP3 DUP3 SHR SWAP1 POP SWAP3 SWAP2 POP POP JUMP JUMPDEST PUSH1 0x0 PUSH3 0x774 PUSH1 0x0 NOT DUP5 PUSH1 0x8 MUL PUSH3 0x754 JUMP JUMPDEST NOT DUP1 DUP4 AND SWAP2 POP POP SWAP3 SWAP2 POP POP JUMP JUMPDEST PUSH1 0x0 PUSH3 0x78F DUP4 DUP4 PUSH3 0x761 JUMP JUMPDEST SWAP2 POP DUP3 PUSH1 0x2 MUL DUP3 OR SWAP1 POP SWAP3 SWAP2 POP POP JUMP JUMPDEST PUSH3 0x7AA DUP3 PUSH3 0x525 JUMP JUMPDEST PUSH8 0xFFFFFFFFFFFFFFFF DUP2 GT ISZERO PUSH3 0x7C6 JUMPI PUSH3 0x7C5 PUSH3 0x530 JUMP JUMPDEST JUMPDEST PUSH3 0x7D2 DUP3 SLOAD PUSH3 0x58E JUMP JUMPDEST PUSH3 0x7DF DUP3 DUP3 DUP6 PUSH3 0x704 JUMP JUMPDEST PUSH1 0x0 PUSH1 0x20 SWAP1 POP PUSH1 0x1F DUP4 GT PUSH1 0x1 DUP2 EQ PUSH3 0x817 JUMPI PUSH1 0x0 DUP5 ISZERO PUSH3 0x802 JUMPI DUP3 DUP8 ADD MLOAD SWAP1 POP JUMPDEST PUSH3 0x80E DUP6 DUP3 PUSH3 0x781 JUMP JUMPDEST DUP7 SSTORE POP PUSH3 0x87E JUMP JUMPDEST PUSH1 0x1F NOT DUP5 AND PUSH3 0x827 DUP7 PUSH3 0x5C3 JUMP JUMPDEST PUSH1 0x0 JUMPDEST DUP3 DUP2 LT ISZERO PUSH3 0x851 JUMPI DUP5 DUP10 ADD MLOAD DUP3 SSTORE PUSH1 0x1 DUP3 ADD SWAP2 POP PUSH1 0x20 DUP6 ADD SWAP5 POP PUSH1 0x20 DUP2 ADD SWAP1 POP PUSH3 0x82A JUMP JUMPDEST DUP7 DUP4 LT ISZERO PUSH3 0x871 JUMPI DUP5 DUP10 ADD MLOAD PUSH3 0x86D PUSH1 0x1F DUP10 AND DUP3 PUSH3 0x761 JUMP JUMPDEST DUP4 SSTORE POP JUMPDEST PUSH1 0x1 PUSH1 0x2 DUP9 MUL ADD DUP9 SSTORE POP POP POP JUMPDEST POP POP POP POP POP POP JUMP JUMPDEST PUSH32 0x4E487B7100000000000000000000000000000000000000000000000000000000 PUSH1 0x0 MSTORE PUSH1 0x11 PUSH1 0x4 MSTORE PUSH1 0x24 PUSH1 0x0 REVERT JUMPDEST PUSH1 0x0 DUP2 PUSH1 0x1 SHR SWAP1 POP SWAP2 SWAP1 POP JUMP JUMPDEST PUSH1 0x0 DUP1 DUP3 SWAP2 POP DUP4 SWAP1 POP JUMPDEST PUSH1 0x1 DUP6 GT ISZERO PUSH3 0x914 JUMPI DUP1 DUP7 DIV DUP2 GT ISZERO PUSH3 0x8EC JUMPI PUSH3 0x8EB PUSH3 0x886 JUMP JUMPDEST JUMPDEST PUSH1 0x1 DUP6 AND ISZERO PUSH3 0x8FC JUMPI DUP1 DUP3 MUL SWAP2 POP JUMPDEST DUP1 DUP2 MUL SWAP1 POP PUSH3 0x90C DUP6 PUSH3 0x8B5 JUMP JUMPDEST SWAP5 POP PUSH3 0x8CC JUMP JUMPDEST SWAP5 POP SWAP5 SWAP3 POP POP POP JUMP JUMPDEST PUSH1 0x0 DUP3 PUSH3 0x92F JUMPI PUSH1 0x1 SWAP1 POP PUSH3 0xA02 JUMP JUMPDEST DUP2 PUSH3 0x93F JUMPI PUSH1 0x0 SWAP1 POP PUSH3 0xA02 JUMP JUMPDEST DUP2 PUSH1 0x1 DUP2 EQ PUSH3 0x958 JUMPI PUSH1 0x2 DUP2 EQ PUSH3 0x963 JUMPI PUSH3 0x999 JUMP JUMPDEST PUSH1 0x1 SWAP2 POP POP PUSH3 0xA02 JUMP JUMPDEST PUSH1 0xFF DUP5 GT ISZERO PUSH3 0x978 JUMPI PUSH3 0x977 PUSH3 0x886 JUMP JUMPDEST JUMPDEST DUP4 PUSH1 0x2 EXP SWAP2 POP DUP5 DUP3 GT ISZERO PUSH3 0x992 JUMPI PUSH3 0x991 PUSH3 0x886 JUMP JUMPDEST JUMPDEST POP PUSH3 0xA02 JUMP JUMPDEST POP PUSH1 0x20 DUP4 LT PUSH2 0x133 DUP4 LT AND PUSH1 0x4E DUP5 LT PUSH1 0xB DUP5 LT AND OR ISZERO PUSH3 0x9D3 JUMPI DUP3 DUP3 EXP SWAP1 POP DUP4 DUP2 GT ISZERO PUSH3 0x9CD JUMPI PUSH3 0x9CC PUSH3 0x886 JUMP JUMPDEST JUMPDEST PUSH3 0xA02 JUMP JUMPDEST PUSH3 0x9E2 DUP5 DUP5 DUP5 PUSH1 0x1 PUSH3 0x8C2 JUMP JUMPDEST SWAP3 POP SWAP1 POP DUP2 DUP5 DIV DUP2 GT ISZERO PUSH3 0x9FC JUMPI PUSH3 0x9FB PUSH3 0x886 JUMP JUMPDEST JUMPDEST DUP2 DUP2 MUL SWAP1 POP JUMPDEST SWAP4 SWAP3 POP POP POP JUMP JUMPDEST PUSH1 0x0 PUSH1 0xFF DUP3 AND SWAP1 POP SWAP2 SWAP1 POP JUMP JUMPDEST PUSH1 0x0 PUSH3 0xA23 DUP3 PUSH3 0x64B JUMP JUMPDEST SWAP2 POP PUSH3 0xA30 DUP4 PUSH3 0xA09 JUMP JUMPDEST SWAP3 POP PUSH3 0xA5F PUSH32 0xFFFFFFFFFFFFFFFFFFFFFFFFFFFFFFFFFFFFFFFFFFFFFFFFFFFFFFFFFFFFFFFF DUP5 DUP5 PUSH3 0x91D JUMP JUMPDEST SWAP1 POP SWAP3 SWAP2 POP POP JUMP JUMPDEST PUSH1 0x0 PUSH3 0xA74 DUP3 PUSH3 0x64B JUMP JUMPDEST SWAP2 POP PUSH3 0xA81 DUP4 PUSH3 0x64B JUMP JUMPDEST SWAP3 POP DUP3 DUP3 MUL PUSH3 0xA91 DUP2 PUSH3 0x64B JUMP JUMPDEST SWAP2 POP DUP3 DUP3 DIV DUP5 EQ DUP4 ISZERO OR PUSH3 0xAAB JUMPI PUSH3 0xAAA PUSH3 0x886 JUMP JUMPDEST JUMPDEST POP SWAP3 SWAP2 POP POP JUMP JUMPDEST PUSH1 0x0 DUP2 SLOAD SWAP1 POP PUSH3 0xAC3 DUP2 PUSH3 0x58E JUMP JUMPDEST SWAP1 POP SWAP2 SWAP1 POP JUMP JUMPDEST PUSH1 0x0 DUP2 SWAP1 POP DUP2 PUSH1 0x0 MSTORE PUSH1 0x20 PUSH1 0x0 KECCAK256 SWAP1 POP SWAP2 SWAP1 POP JUMP JUMPDEST DUP2 DUP2 SUB PUSH3 0xAEF JUMPI POP POP PUSH3 0xBDE JUMP JUMPDEST PUSH3 0xAFA DUP3 PUSH3 0xAB2 JUMP JUMPDEST PUSH8 0xFFFFFFFFFFFFFFFF DUP2 GT ISZERO PUSH3 0xB16 JUMPI PUSH3 0xB15 PUSH3 0x530 JUMP JUMPDEST JUMPDEST PUSH3 0xB22 DUP3 SLOAD PUSH3 0x58E JUMP JUMPDEST PUSH3 0xB2F DUP3 DUP3 DUP6 PUSH3 0x704 JUMP JUMPDEST PUSH1 0x0 PUSH1 0x1F DUP4 GT PUSH1 0x1 DUP2 EQ PUSH3 0xB63 JUMPI PUSH1 0x0 DUP5 ISZERO PUSH3 0xB4E JUMPI DUP3 DUP8 ADD SLOAD SWAP1 POP JUMPDEST PUSH3 0xB5A DUP6 DUP3 PUSH3 0x781 JUMP JUMPDEST DUP7 SSTORE POP PUSH3 0xBD7 JUMP JUMPDEST PUSH1 0x1F NOT DUP5 AND PUSH3 0xB73 DUP8 PUSH3 0xACA JUMP JUMPDEST SWAP7 POP PUSH3 0xB80 DUP7 PUSH3 0x5C3 JUMP JUMPDEST PUSH1 0x0 JUMPDEST DUP3 DUP2 LT ISZERO PUSH3 0xBAA JUMPI DUP5 DUP10 ADD SLOAD DUP3 SSTORE PUSH1 0x1 DUP3 ADD SWAP2 POP PUSH1 0x1 DUP6 ADD SWAP5 POP PUSH1 0x20 DUP2 ADD SWAP1 POP PUSH3 0xB83 JUMP JUMPDEST DUP7 DUP4 LT ISZERO PUSH3 0xBCA JUMPI DUP5 DUP10 ADD SLOAD PUSH3 0xBC6 PUSH1 0x1F DUP10 AND DUP3 PUSH3 0x761 JUMP JUMPDEST DUP4 SSTORE POP JUMPDEST PUSH1 0x1 PUSH1 0x2 DUP9 MUL ADD DUP9 SSTORE POP POP POP JUMPDEST POP POP POP POP POP POP JUMPDEST JUMP JUMPDEST PUSH1 0x0 DUP3 DUP3 MSTORE PUSH1 0x20 DUP3 ADD SWAP1 POP SWAP3 SWAP2 POP POP JUMP JUMPDEST PUSH32 0x45524332303A206D696E7420746F20746865207A65726F206164647265737300 PUSH1 0x0 DUP3 ADD MSTORE POP JUMP JUMPDEST PUSH1 0x0 PUSH3 0xC29 PUSH1 0x1F DUP4 PUSH3 0xBE0 JUMP JUMPDEST SWAP2 POP PUSH3 0xC36 DUP3 PUSH3 0xBF1 JUMP JUMPDEST PUSH1 0x20 DUP3 ADD SWAP1 POP SWAP2 SWAP1 POP JUMP JUMPDEST PUSH1 0x0 PUSH1 0x20 DUP3 ADD SWAP1 POP DUP2 DUP2 SUB PUSH1 0x0 DUP4 ADD MSTORE PUSH3 0xC5C DUP2 PUSH3 0xC1A JUMP JUMPDEST SWAP1 POP SWAP2 SWAP1 POP JUMP JUMPDEST PUSH1 0x0 PUSH3 0xC70 DUP3 PUSH3 0x64B JUMP JUMPDEST SWAP2 POP PUSH3 0xC7D DUP4 PUSH3 0x64B JUMP JUMPDEST SWAP3 POP DUP3 DUP3 ADD SWAP1 POP DUP1 DUP3 GT ISZERO PUSH3 0xC98 JUMPI PUSH3 0xC97 PUSH3 0x886 JUMP JUMPDEST JUMPDEST SWAP3 SWAP2 POP POP JUMP JUMPDEST PUSH3 0xCA9 DUP2 PUSH3 0x64B JUMP JUMPDEST DUP3 MSTORE POP POP JUMP JUMPDEST PUSH1 0x0 PUSH1 0x20 DUP3 ADD SWAP1 POP PUSH3 0xCC6 PUSH1 0x0 DUP4 ADD DUP5 PUSH3 0xC9E JUMP JUMPDEST SWAP3 SWAP2 POP POP JUMP JUMPDEST PUSH2 0x1F8A DUP1 PUSH3 0xCDC PUSH1 0x0 CODECOPY PUSH1 0x0 RETURN INVALID PUSH1 0x80 PUSH1 0x40 MSTORE PUSH1 0x4 CALLDATASIZE LT PUSH2 0x12E JUMPI PUSH1 0x0 CALLDATALOAD PUSH1 0xE0 SHR DUP1 PUSH4 0x70A08231 GT PUSH2 0xAB JUMPI DUP1 PUSH4 0xA9059CBB GT PUSH2 0x6F JUMPI DUP1 PUSH4 0xA9059CBB EQ PUSH2 0x4F9 JUMPI DUP1 PUSH4 0xB09F1266 EQ PUSH2 0x536 JUMPI DUP1 PUSH4 0xD28D8852 EQ PUSH2 0x561 JUMPI DUP1 PUSH4 0xDD62ED3E EQ PUSH2 0x58C JUMPI DUP1 PUSH4 0xF2FDE38B EQ PUSH2 0x5C9 JUMPI DUP1 PUSH4 0xFFFC5E89 EQ PUSH2 0x5F2 JUMPI PUSH2 0x23A JUMP JUMPDEST DUP1 PUSH4 0x70A08231 EQ PUSH2 0x412 JUMPI DUP1 PUSH4 0x715018A6 EQ PUSH2 0x44F JUMPI DUP1 PUSH4 0x8DA5CB5B EQ PUSH2 0x466 JUMPI DUP1 PUSH4 0x95D89B41 EQ PUSH2 0x491 JUMPI DUP1 PUSH4 0xA457C2D7 EQ PUSH2 0x4BC JUMPI PUSH2 0x23A JUMP JUMPDEST DUP1 PUSH4 0x2C4E722E GT PUSH2 0xF2 JUMPI DUP1 PUSH4 0x2C4E722E EQ PUSH2 0x32B JUMPI DUP1 PUSH4 0x313CE567 EQ PUSH2 0x356 JUMPI DUP1 PUSH4 0x39509351 EQ PUSH2 0x381 JUMPI DUP1 PUSH4 0x3EAAF86B EQ PUSH2 0x3BE JUMPI DUP1 PUSH4 0x40C10F19 EQ PUSH2 0x3E9 JUMPI PUSH2 0x23A JUMP JUMPDEST DUP1 PUSH4 0x6FDDE03 EQ PUSH2 0x23F JUMPI DUP1 PUSH4 0x95EA7B3 EQ PUSH2 0x26A JUMPI DUP1 PUSH4 0x18160DDD EQ PUSH2 0x2A7 JUMPI DUP1 PUSH4 0x2397E4D7 EQ PUSH2 0x2D2 JUMPI DUP1 PUSH4 0x23B872DD EQ PUSH2 0x2EE JUMPI PUSH2 0x23A JUMP JUMPDEST CALLDATASIZE PUSH2 0x23A JUMPI PUSH1 0x0 CALLVALUE SUB PUSH2 0x176 JUMPI PUSH1 0x40 MLOAD PUSH32 0x8C379A000000000000000000000000000000000000000000000000000000000 DUP2 MSTORE PUSH1 0x4 ADD PUSH2 0x16D SWAP1 PUSH2 0x14C5 JUMP JUMPDEST PUSH1 0x40 MLOAD DUP1 SWAP2 SUB SWAP1 REVERT JUMPDEST PUSH1 0x0 PUSH1 0x9 SLOAD CALLVALUE PUSH2 0x186 SWAP2 SWAP1 PUSH2 0x151E JUMP JUMPDEST SWAP1 POP DUP1 PUSH2 0x199 PUSH2 0x194 PUSH2 0x61B JUMP JUMPDEST PUSH2 0x645 JUMP JUMPDEST LT ISZERO PUSH2 0x1DA JUMPI PUSH1 0x40 MLOAD PUSH32 0x8C379A000000000000000000000000000000000000000000000000000000000 DUP2 MSTORE PUSH1 0x4 ADD PUSH2 0x1D1 SWAP1 PUSH2 0x15AC JUMP JUMPDEST PUSH1 0x40 MLOAD DUP1 SWAP2 SUB SWAP1 REVERT JUMPDEST PUSH2 0x1EC PUSH2 0x1E5 PUSH2 0x61B JUMP JUMPDEST CALLER DUP4 PUSH2 0x68D JUMP JUMPDEST PUSH2 0x1F4 PUSH2 0x61B JUMP JUMPDEST PUSH20 0xFFFFFFFFFFFFFFFFFFFFFFFFFFFFFFFFFFFFFFFF AND CALLER PUSH20 0xFFFFFFFFFFFFFFFFFFFFFFFFFFFFFFFFFFFFFFFF AND SUB PUSH2 0x238 JUMPI PUSH2 0x237 PUSH2 0x231 PUSH2 0x61B JUMP JUMPDEST DUP3 PUSH2 0x73C JUMP JUMPDEST JUMPDEST STOP JUMPDEST PUSH1 0x0 DUP1 REVERT JUMPDEST CALLVALUE DUP1 ISZERO PUSH2 0x24B JUMPI PUSH1 0x0 DUP1 REVERT JUMPDEST POP PUSH2 0x254 PUSH2 0x89B JUMP JUMPDEST PUSH1 0x40 MLOAD PUSH2 0x261 SWAP2 SWAP1 PUSH2 0x164B JUMP JUMPDEST PUSH1 0x40 MLOAD DUP1 SWAP2 SUB SWAP1 RETURN JUMPDEST CALLVALUE DUP1 ISZERO PUSH2 0x276 JUMPI PUSH1 0x0 DUP1 REVERT JUMPDEST POP PUSH2 0x291 PUSH1 0x4 DUP1 CALLDATASIZE SUB DUP2 ADD SWAP1 PUSH2 0x28C SWAP2 SWAP1 PUSH2 0x16FC JUMP JUMPDEST PUSH2 0x92D JUMP JUMPDEST PUSH1 0x40 MLOAD PUSH2 0x29E SWAP2 SWAP1 PUSH2 0x1757 JUMP JUMPDEST PUSH1 0x40 MLOAD DUP1 SWAP2 SUB SWAP1 RETURN JUMPDEST CALLVALUE DUP1 ISZERO PUSH2 0x2B3 JUMPI PUSH1 0x0 DUP1 REVERT JUMPDEST POP PUSH2 0x2BC PUSH2 0x950 JUMP JUMPDEST PUSH1 0x40 MLOAD PUSH2 0x2C9 SWAP2 SWAP1 PUSH2 0x1781 JUMP JUMPDEST PUSH1 0x40 MLOAD DUP1 SWAP2 SUB SWAP1 RETURN JUMPDEST PUSH2 0x2EC PUSH1 0x4 DUP1 CALLDATASIZE SUB DUP2 ADD SWAP1 PUSH2 0x2E7 SWAP2 SWAP1 PUSH2 0x179C JUMP JUMPDEST PUSH2 0x95A JUMP JUMPDEST STOP JUMPDEST CALLVALUE DUP1 ISZERO PUSH2 0x2FA JUMPI PUSH1 0x0 DUP1 REVERT JUMPDEST POP PUSH2 0x315 PUSH1 0x4 DUP1 CALLDATASIZE SUB DUP2 ADD SWAP1 PUSH2 0x310 SWAP2 SWAP1 PUSH2 0x17C9 JUMP JUMPDEST PUSH2 0x9E5 JUMP JUMPDEST PUSH1 0x40 MLOAD PUSH2 0x322 SWAP2 SWAP1 PUSH2 0x1757 JUMP JUMPDEST PUSH1 0x40 MLOAD DUP1 SWAP2 SUB SWAP1 RETURN JUMPDEST CALLVALUE DUP1 ISZERO PUSH2 0x337 JUMPI PUSH1 0x0 DUP1 REVERT JUMPDEST POP PUSH2 0x340 PUSH2 0xA14 JUMP JUMPDEST PUSH1 0x40 MLOAD PUSH2 0x34D SWAP2 SWAP1 PUSH2 0x1781 JUMP JUMPDEST PUSH1 0x40 MLOAD DUP1 SWAP2 SUB SWAP1 RETURN JUMPDEST CALLVALUE DUP1 ISZERO PUSH2 0x362 JUMPI PUSH1 0x0 DUP1 REVERT JUMPDEST POP PUSH2 0x36B PUSH2 0xA1A JUMP JUMPDEST PUSH1 0x40 MLOAD PUSH2 0x378 SWAP2 SWAP1 PUSH2 0x1838 JUMP JUMPDEST PUSH1 0x40 MLOAD DUP1 SWAP2 SUB SWAP1 RETURN JUMPDEST CALLVALUE DUP1 ISZERO PUSH2 0x38D JUMPI PUSH1 0x0 DUP1 REVERT JUMPDEST POP PUSH2 0x3A8 PUSH1 0x4 DUP1 CALLDATASIZE SUB DUP2 ADD SWAP1 PUSH2 0x3A3 SWAP2 SWAP1 PUSH2 0x16FC JUMP JUMPDEST PUSH2 0xA23 JUMP JUMPDEST PUSH1 0x40 MLOAD PUSH2 0x3B5 SWAP2 SWAP1 PUSH2 0x1757 JUMP JUMPDEST PUSH1 0x40 MLOAD DUP1 SWAP2 SUB SWAP1 RETURN JUMPDEST CALLVALUE DUP1 ISZERO PUSH2 0x3CA JUMPI PUSH1 0x0 DUP1 REVERT JUMPDEST POP PUSH2 0x3D3 PUSH2 0xA5A JUMP JUMPDEST PUSH1 0x40 MLOAD PUSH2 0x3E0 SWAP2 SWAP1 PUSH2 0x1781 JUMP JUMPDEST PUSH1 0x40 MLOAD DUP1 SWAP2 SUB SWAP1 RETURN JUMPDEST CALLVALUE DUP1 ISZERO PUSH2 0x3F5 JUMPI PUSH1 0x0 DUP1 REVERT JUMPDEST POP PUSH2 0x410 PUSH1 0x4 DUP1 CALLDATASIZE SUB DUP2 ADD SWAP1 PUSH2 0x40B SWAP2 SWAP1 PUSH2 0x16FC JUMP JUMPDEST PUSH2 0xA60 JUMP JUMPDEST STOP JUMPDEST CALLVALUE DUP1 ISZERO PUSH2 0x41E JUMPI PUSH1 0x0 DUP1 REVERT JUMPDEST POP PUSH2 0x439 PUSH1 0x4 DUP1 CALLDATASIZE SUB DUP2 ADD SWAP1 PUSH2 0x434 SWAP2 SWAP1 PUSH2 0x1853 JUMP JUMPDEST PUSH2 0x645 JUMP JUMPDEST PUSH1 0x40 MLOAD PUSH2 0x446 SWAP2 SWAP1 PUSH2 0x1781 JUMP JUMPDEST PUSH1 0x40 MLOAD DUP1 SWAP2 SUB SWAP1 RETURN JUMPDEST CALLVALUE DUP1 ISZERO PUSH2 0x45B JUMPI PUSH1 0x0 DUP1 REVERT JUMPDEST POP PUSH2 0x464 PUSH2 0xA6E JUMP JUMPDEST STOP JUMPDEST CALLVALUE DUP1 ISZERO PUSH2 0x472 JUMPI PUSH1 0x0 DUP1 REVERT JUMPDEST POP PUSH2 0x47B PUSH2 0x61B JUMP JUMPDEST PUSH1 0x40 MLOAD PUSH2 0x488 SWAP2 SWAP1 PUSH2 0x188F JUMP JUMPDEST PUSH1 0x40 MLOAD DUP1 SWAP2 SUB SWAP1 RETURN JUMPDEST CALLVALUE DUP1 ISZERO PUSH2 0x49D JUMPI PUSH1 0x0 DUP1 REVERT JUMPDEST POP PUSH2 0x4A6 PUSH2 0xAF6 JUMP JUMPDEST PUSH1 0x40 MLOAD PUSH2 0x4B3 SWAP2 SWAP1 PUSH2 0x164B JUMP JUMPDEST PUSH1 0x40 MLOAD DUP1 SWAP2 SUB SWAP1 RETURN JUMPDEST CALLVALUE DUP1 ISZERO PUSH2 0x4C8 JUMPI PUSH1 0x0 DUP1 REVERT JUMPDEST POP PUSH2 0x4E3 PUSH1 0x4 DUP1 CALLDATASIZE SUB DUP2 ADD SWAP1 PUSH2 0x4DE SWAP2 SWAP1 PUSH2 0x16FC JUMP JUMPDEST PUSH2 0xB88 JUMP JUMPDEST PUSH1 0x40 MLOAD PUSH2 0x4F0 SWAP2 SWAP1 PUSH2 0x1757 JUMP JUMPDEST PUSH1 0x40 MLOAD DUP1 SWAP2 SUB SWAP1 RETURN JUMPDEST CALLVALUE DUP1 ISZERO PUSH2 0x505 JUMPI PUSH1 0x0 DUP1 REVERT JUMPDEST POP PUSH2 0x520 PUSH1 0x4 DUP1 CALLDATASIZE SUB DUP2 ADD SWAP1 PUSH2 0x51B SWAP2 SWAP1 PUSH2 0x16FC JUMP JUMPDEST PUSH2 0xBFF JUMP JUMPDEST PUSH1 0x40 MLOAD PUSH2 0x52D SWAP2 SWAP1 PUSH2 0x1757 JUMP JUMPDEST PUSH1 0x40 MLOAD DUP1 SWAP2 SUB SWAP1 RETURN JUMPDEST CALLVALUE DUP1 ISZERO PUSH2 0x542 JUMPI PUSH1 0x0 DUP1 REVERT JUMPDEST POP PUSH2 0x54B PUSH2 0xC22 JUMP JUMPDEST PUSH1 0x40 MLOAD PUSH2 0x558 SWAP2 SWAP1 PUSH2 0x164B JUMP JUMPDEST PUSH1 0x40 MLOAD DUP1 SWAP2 SUB SWAP1 RETURN JUMPDEST CALLVALUE DUP1 ISZERO PUSH2 0x56D JUMPI PUSH1 0x0 DUP1 REVERT JUMPDEST POP PUSH2 0x576 PUSH2 0xCB0 JUMP JUMPDEST PUSH1 0x40 MLOAD PUSH2 0x583 SWAP2 SWAP1 PUSH2 0x164B JUMP JUMPDEST PUSH1 0x40 MLOAD DUP1 SWAP2 SUB SWAP1 RETURN JUMPDEST CALLVALUE DUP1 ISZERO PUSH2 0x598 JUMPI PUSH1 0x0 DUP1 REVERT JUMPDEST POP PUSH2 0x5B3 PUSH1 0x4 DUP1 CALLDATASIZE SUB DUP2 ADD SWAP1 PUSH2 0x5AE SWAP2 SWAP1 PUSH2 0x18AA JUMP JUMPDEST PUSH2 0xD3E JUMP JUMPDEST PUSH1 0x40 MLOAD PUSH2 0x5C0 SWAP2 SWAP1 PUSH2 0x1781 JUMP JUMPDEST PUSH1 0x40 MLOAD DUP1 SWAP2 SUB SWAP1 RETURN JUMPDEST CALLVALUE DUP1 ISZERO PUSH2 0x5D5 JUMPI PUSH1 0x0 DUP1 REVERT JUMPDEST POP PUSH2 0x5F0 PUSH1 0x4 DUP1 CALLDATASIZE SUB DUP2 ADD SWAP1 PUSH2 0x5EB SWAP2 SWAP1 PUSH2 0x1853 JUMP JUMPDEST PUSH2 0xDC5 JUMP JUMPDEST STOP JUMPDEST CALLVALUE DUP1 ISZERO PUSH2 0x5FE JUMPI PUSH1 0x0 DUP1 REVERT JUMPDEST POP PUSH2 0x619 PUSH1 0x4 DUP1 CALLDATASIZE SUB DUP2 ADD SWAP1 PUSH2 0x614 SWAP2 SWAP1 PUSH2 0x17C9 JUMP JUMPDEST PUSH2 0x68D JUMP JUMPDEST STOP JUMPDEST PUSH1 0x0 PUSH1 0x5 PUSH1 0x0 SWAP1 SLOAD SWAP1 PUSH2 0x100 EXP SWAP1 DIV PUSH20 0xFFFFFFFFFFFFFFFFFFFFFFFFFFFFFFFFFFFFFFFF AND SWAP1 POP SWAP1 JUMP JUMPDEST PUSH1 0x0 DUP1 PUSH1 0x0 DUP4 PUSH20 0xFFFFFFFFFFFFFFFFFFFFFFFFFFFFFFFFFFFFFFFF AND PUSH20 0xFFFFFFFFFFFFFFFFFFFFFFFFFFFFFFFFFFFFFFFF AND DUP2 MSTORE PUSH1 0x20 ADD SWAP1 DUP2 MSTORE PUSH1 0x20 ADD PUSH1 0x0 KECCAK256 SLOAD SWAP1 POP SWAP2 SWAP1 POP JUMP JUMPDEST DUP1 PUSH1 0x0 DUP1 DUP6 PUSH20 0xFFFFFFFFFFFFFFFFFFFFFFFFFFFFFFFFFFFFFFFF AND PUSH20 0xFFFFFFFFFFFFFFFFFFFFFFFFFFFFFFFFFFFFFFFF AND DUP2 MSTORE PUSH1 0x20 ADD SWAP1 DUP2 MSTORE PUSH1 0x20 ADD PUSH1 0x0 KECCAK256 PUSH1 0x0 DUP3 DUP3 SLOAD PUSH2 0x6DB SWAP2 SWAP1 PUSH2 0x18EA JUMP JUMPDEST SWAP3 POP POP DUP2 SWAP1 SSTORE POP DUP1 PUSH1 0x0 DUP1 DUP5 PUSH20 0xFFFFFFFFFFFFFFFFFFFFFFFFFFFFFFFFFFFFFFFF AND PUSH20 0xFFFFFFFFFFFFFFFFFFFFFFFFFFFFFFFFFFFFFFFF AND DUP2 MSTORE PUSH1 0x20 ADD SWAP1 DUP2 MSTORE PUSH1 0x20 ADD PUSH1 0x0 KECCAK256 PUSH1 0x0 DUP3 DUP3 SLOAD PUSH2 0x730 SWAP2 SWAP1 PUSH2 0x191E JUMP JUMPDEST SWAP3 POP POP DUP2 SWAP1 SSTORE POP POP POP POP JUMP JUMPDEST PUSH1 0x0 PUSH20 0xFFFFFFFFFFFFFFFFFFFFFFFFFFFFFFFFFFFFFFFF AND DUP3 PUSH20 0xFFFFFFFFFFFFFFFFFFFFFFFFFFFFFFFFFFFFFFFF AND SUB PUSH2 0x7AB JUMPI PUSH1 0x40 MLOAD PUSH32 0x8C379A000000000000000000000000000000000000000000000000000000000 DUP2 MSTORE PUSH1 0x4 ADD PUSH2 0x7A2 SWAP1 PUSH2 0x199E JUMP JUMPDEST PUSH1 0x40 MLOAD DUP1 SWAP2 SUB SWAP1 REVERT JUMPDEST PUSH2 0x7B7 PUSH1 0x0 DUP4 DUP4 PUSH2 0xEBC JUMP JUMPDEST DUP1 PUSH1 0x2 PUSH1 0x0 DUP3 DUP3 SLOAD PUSH2 0x7C9 SWAP2 SWAP1 PUSH2 0x191E JUMP JUMPDEST SWAP3 POP POP DUP2 SWAP1 SSTORE POP DUP1 PUSH1 0x0 DUP1 DUP5 PUSH20 0xFFFFFFFFFFFFFFFFFFFFFFFFFFFFFFFFFFFFFFFF AND PUSH20 0xFFFFFFFFFFFFFFFFFFFFFFFFFFFFFFFFFFFFFFFF AND DUP2 MSTORE PUSH1 0x20 ADD SWAP1 DUP2 MSTORE PUSH1 0x20 ADD PUSH1 0x0 KECCAK256 PUSH1 0x0 DUP3 DUP3 SLOAD PUSH2 0x81E SWAP2 SWAP1 PUSH2 0x191E JUMP JUMPDEST SWAP3 POP POP DUP2 SWAP1 SSTORE POP DUP2 PUSH20 0xFFFFFFFFFFFFFFFFFFFFFFFFFFFFFFFFFFFFFFFF AND PUSH1 0x0 PUSH20 0xFFFFFFFFFFFFFFFFFFFFFFFFFFFFFFFFFFFFFFFF AND PUSH32 0xDDF252AD1BE2C89B69C2B068FC378DAA952BA7F163C4A11628F55A4DF523B3EF DUP4 PUSH1 0x40 MLOAD PUSH2 0x883 SWAP2 SWAP1 PUSH2 0x1781 JUMP JUMPDEST PUSH1 0x40 MLOAD DUP1 SWAP2 SUB SWAP1 LOG3 PUSH2 0x897 PUSH1 0x0 DUP4 DUP4 PUSH2 0xEC1 JUMP JUMPDEST POP POP JUMP JUMPDEST PUSH1 0x60 PUSH1 0x3 DUP1 SLOAD PUSH2 0x8AA SWAP1 PUSH2 0x19ED JUMP JUMPDEST DUP1 PUSH1 0x1F ADD PUSH1 0x20 DUP1 SWAP2 DIV MUL PUSH1 0x20 ADD PUSH1 0x40 MLOAD SWAP1 DUP2 ADD PUSH1 0x40 MSTORE DUP1 SWAP3 SWAP2 SWAP1 DUP2 DUP2 MSTORE PUSH1 0x20 ADD DUP3 DUP1 SLOAD PUSH2 0x8D6 SWAP1 PUSH2 0x19ED JUMP JUMPDEST DUP1 ISZERO PUSH2 0x923 JUMPI DUP1 PUSH1 0x1F LT PUSH2 0x8F8 JUMPI PUSH2 0x100 DUP1 DUP4 SLOAD DIV MUL DUP4 MSTORE SWAP2 PUSH1 0x20 ADD SWAP2 PUSH2 0x923 JUMP JUMPDEST DUP3 ADD SWAP2 SWAP1 PUSH1 0x0 MSTORE PUSH1 0x20 PUSH1 0x0 KECCAK256 SWAP1 JUMPDEST DUP2 SLOAD DUP2 MSTORE SWAP1 PUSH1 0x1 ADD SWAP1 PUSH1 0x20 ADD DUP1 DUP4 GT PUSH2 0x906 JUMPI DUP3 SWAP1 SUB PUSH1 0x1F AND DUP3 ADD SWAP2 JUMPDEST POP POP POP POP POP SWAP1 POP SWAP1 JUMP JUMPDEST PUSH1 0x0 DUP1 PUSH2 0x938 PUSH2 0xEC6 JUMP JUMPDEST SWAP1 POP PUSH2 0x945 DUP2 DUP6 DUP6 PUSH2 0xECE JUMP JUMPDEST PUSH1 0x1 SWAP2 POP POP SWAP3 SWAP2 POP POP JUMP JUMPDEST PUSH1 0x0 PUSH1 0x2 SLOAD SWAP1 POP SWAP1 JUMP JUMPDEST DUP1 PUSH2 0x964 CALLER PUSH2 0x645 JUMP JUMPDEST LT ISZERO PUSH2 0x96F JUMPI PUSH1 0x0 DUP1 REVERT JUMPDEST PUSH1 0x0 PUSH1 0x9 SLOAD DUP3 PUSH2 0x97F SWAP2 SWAP1 PUSH2 0x1A4D JUMP JUMPDEST SWAP1 POP DUP1 SELFBALANCE LT ISZERO PUSH2 0x98E JUMPI PUSH1 0x0 DUP1 REVERT JUMPDEST PUSH2 0x999 CALLER ADDRESS DUP5 PUSH2 0x9E5 JUMP JUMPDEST POP CALLER PUSH20 0xFFFFFFFFFFFFFFFFFFFFFFFFFFFFFFFFFFFFFFFF AND PUSH2 0x8FC DUP3 SWAP1 DUP2 ISZERO MUL SWAP1 PUSH1 0x40 MLOAD PUSH1 0x0 PUSH1 0x40 MLOAD DUP1 DUP4 SUB DUP2 DUP6 DUP9 DUP9 CALL SWAP4 POP POP POP POP ISZERO DUP1 ISZERO PUSH2 0x9E0 JUMPI RETURNDATASIZE PUSH1 0x0 DUP1 RETURNDATACOPY RETURNDATASIZE PUSH1 0x0 REVERT JUMPDEST POP POP POP JUMP JUMPDEST PUSH1 0x0 DUP1 PUSH2 0x9F0 PUSH2 0xEC6 JUMP JUMPDEST SWAP1 POP PUSH2 0x9FD DUP6 DUP3 DUP6 PUSH2 0x1097 JUMP JUMPDEST PUSH2 0xA08 DUP6 DUP6 DUP6 PUSH2 0x1123 JUMP JUMPDEST PUSH1 0x1 SWAP2 POP POP SWAP4 SWAP3 POP POP POP JUMP JUMPDEST PUSH1 0x9 SLOAD DUP2 JUMP JUMPDEST PUSH1 0x0 PUSH1 0x12 SWAP1 POP SWAP1 JUMP JUMPDEST PUSH1 0x0 DUP1 PUSH2 0xA2E PUSH2 0xEC6 JUMP JUMPDEST SWAP1 POP PUSH2 0xA4F DUP2 DUP6 DUP6 PUSH2 0xA40 DUP6 DUP10 PUSH2 0xD3E JUMP JUMPDEST PUSH2 0xA4A SWAP2 SWAP1 PUSH2 0x191E JUMP JUMPDEST PUSH2 0xECE JUMP JUMPDEST PUSH1 0x1 SWAP2 POP POP SWAP3 SWAP2 POP POP JUMP JUMPDEST PUSH1 0x8 SLOAD DUP2 JUMP JUMPDEST PUSH2 0xA6A DUP3 DUP3 PUSH2 0x73C JUMP JUMPDEST POP POP JUMP JUMPDEST PUSH2 0xA76 PUSH2 0xEC6 JUMP JUMPDEST PUSH20 0xFFFFFFFFFFFFFFFFFFFFFFFFFFFFFFFFFFFFFFFF AND PUSH2 0xA94 PUSH2 0x61B JUMP JUMPDEST PUSH20 0xFFFFFFFFFFFFFFFFFFFFFFFFFFFFFFFFFFFFFFFF AND EQ PUSH2 0xAEA JUMPI PUSH1 0x40 MLOAD PUSH32 0x8C379A000000000000000000000000000000000000000000000000000000000 DUP2 MSTORE PUSH1 0x4 ADD PUSH2 0xAE1 SWAP1 PUSH2 0x1ACA JUMP JUMPDEST PUSH1 0x40 MLOAD DUP1 SWAP2 SUB SWAP1 REVERT JUMPDEST PUSH2 0xAF4 PUSH1 0x0 PUSH2 0x13A2 JUMP JUMPDEST JUMP JUMPDEST PUSH1 0x60 PUSH1 0x4 DUP1 SLOAD PUSH2 0xB05 SWAP1 PUSH2 0x19ED JUMP JUMPDEST DUP1 PUSH1 0x1F ADD PUSH1 0x20 DUP1 SWAP2 DIV MUL PUSH1 0x20 ADD PUSH1 0x40 MLOAD SWAP1 DUP2 ADD PUSH1 0x40 MSTORE DUP1 SWAP3 SWAP2 SWAP1 DUP2 DUP2 MSTORE PUSH1 0x20 ADD DUP3 DUP1 SLOAD PUSH2 0xB31 SWAP1 PUSH2 0x19ED JUMP JUMPDEST DUP1 ISZERO PUSH2 0xB7E JUMPI DUP1 PUSH1 0x1F LT PUSH2 0xB53 JUMPI PUSH2 0x100 DUP1 DUP4 SLOAD DIV MUL DUP4 MSTORE SWAP2 PUSH1 0x20 ADD SWAP2 PUSH2 0xB7E JUMP JUMPDEST DUP3 ADD SWAP2 SWAP1 PUSH1 0x0 MSTORE PUSH1 0x20 PUSH1 0x0 KECCAK256 SWAP1 JUMPDEST DUP2 SLOAD DUP2 MSTORE SWAP1 PUSH1 0x1 ADD SWAP1 PUSH1 0x20 ADD DUP1 DUP4 GT PUSH2 0xB61 JUMPI DUP3 SWAP1 SUB PUSH1 0x1F AND DUP3 ADD SWAP2 JUMPDEST POP POP POP POP POP SWAP1 POP SWAP1 JUMP JUMPDEST PUSH1 0x0 DUP1 PUSH2 0xB93 PUSH2 0xEC6 JUMP JUMPDEST SWAP1 POP PUSH1 0x0 PUSH2 0xBA1 DUP3 DUP7 PUSH2 0xD3E JUMP JUMPDEST SWAP1 POP DUP4 DUP2 LT ISZERO PUSH2 0xBE6 JUMPI PUSH1 0x40 MLOAD PUSH32 0x8C379A000000000000000000000000000000000000000000000000000000000 DUP2 MSTORE PUSH1 0x4 ADD PUSH2 0xBDD SWAP1 PUSH2 0x1B5C JUMP JUMPDEST PUSH1 0x40 MLOAD DUP1 SWAP2 SUB SWAP1 REVERT JUMPDEST PUSH2 0xBF3 DUP3 DUP7 DUP7 DUP5 SUB PUSH2 0xECE JUMP JUMPDEST PUSH1 0x1 SWAP3 POP POP POP SWAP3 SWAP2 POP POP JUMP JUMPDEST PUSH1 0x0 DUP1 PUSH2 0xC0A PUSH2 0xEC6 JUMP JUMPDEST SWAP1 POP PUSH2 0xC17 DUP2 DUP6 DUP6 PUSH2 0x1123 JUMP JUMPDEST PUSH1 0x1 SWAP2 POP POP SWAP3 SWAP2 POP POP JUMP JUMPDEST PUSH1 0x7 DUP1 SLOAD PUSH2 0xC2F SWAP1 PUSH2 0x19ED JUMP JUMPDEST DUP1 PUSH1 0x1F ADD PUSH1 0x20 DUP1 SWAP2 DIV MUL PUSH1 0x20 ADD PUSH1 0x40 MLOAD SWAP1 DUP2 ADD PUSH1 0x40 MSTORE DUP1 SWAP3 SWAP2 SWAP1 DUP2 DUP2 MSTORE PUSH1 0x20 ADD DUP3 DUP1 SLOAD PUSH2 0xC5B SWAP1 PUSH2 0x19ED JUMP JUMPDEST DUP1 ISZERO PUSH2 0xCA8 JUMPI DUP1 PUSH1 0x1F LT PUSH2 0xC7D JUMPI PUSH2 0x100 DUP1 DUP4 SLOAD DIV MUL DUP4 MSTORE SWAP2 PUSH1 0x20 ADD SWAP2 PUSH2 0xCA8 JUMP JUMPDEST DUP3 ADD SWAP2 SWAP1 PUSH1 0x0 MSTORE PUSH1 0x20 PUSH1 0x0 KECCAK256 SWAP1 JUMPDEST DUP2 SLOAD DUP2 MSTORE SWAP1 PUSH1 0x1 ADD SWAP1 PUSH1 0x20 ADD DUP1 DUP4 GT PUSH2 0xC8B JUMPI DUP3 SWAP1 SUB PUSH1 0x1F AND DUP3 ADD SWAP2 JUMPDEST POP POP POP POP POP DUP2 JUMP JUMPDEST PUSH1 0x6 DUP1 SLOAD PUSH2 0xCBD SWAP1 PUSH2 0x19ED JUMP JUMPDEST DUP1 PUSH1 0x1F ADD PUSH1 0x20 DUP1 SWAP2 DIV MUL PUSH1 0x20 ADD PUSH1 0x40 MLOAD SWAP1 DUP2 ADD PUSH1 0x40 MSTORE DUP1 SWAP3 SWAP2 SWAP1 DUP2 DUP2 MSTORE PUSH1 0x20 ADD DUP3 DUP1 SLOAD PUSH2 0xCE9 SWAP1 PUSH2 0x19ED JUMP JUMPDEST DUP1 ISZERO PUSH2 0xD36 JUMPI DUP1 PUSH1 0x1F LT PUSH2 0xD0B JUMPI PUSH2 0x100 DUP1 DUP4 SLOAD DIV MUL DUP4 MSTORE SWAP2 PUSH1 0x20 ADD SWAP2 PUSH2 0xD36 JUMP JUMPDEST DUP3 ADD SWAP2 SWAP1 PUSH1 0x0 MSTORE PUSH1 0x20 PUSH1 0x0 KECCAK256 SWAP1 JUMPDEST DUP2 SLOAD DUP2 MSTORE SWAP1 PUSH1 0x1 ADD SWAP1 PUSH1 0x20 ADD DUP1 DUP4 GT PUSH2 0xD19 JUMPI DUP3 SWAP1 SUB PUSH1 0x1F AND DUP3 ADD SWAP2 JUMPDEST POP POP POP POP POP DUP2 JUMP JUMPDEST PUSH1 0x0 PUSH1 0x1 PUSH1 0x0 DUP5 PUSH20 0xFFFFFFFFFFFFFFFFFFFFFFFFFFFFFFFFFFFFFFFF AND PUSH20 0xFFFFFFFFFFFFFFFFFFFFFFFFFFFFFFFFFFFFFFFF AND DUP2 MSTORE PUSH1 0x20 ADD SWAP1 DUP2 MSTORE PUSH1 0x20 ADD PUSH1 0x0 KECCAK256 PUSH1 0x0 DUP4 PUSH20 0xFFFFFFFFFFFFFFFFFFFFFFFFFFFFFFFFFFFFFFFF AND PUSH20 0xFFFFFFFFFFFFFFFFFFFFFFFFFFFFFFFFFFFFFFFF AND DUP2 MSTORE PUSH1 0x20 ADD SWAP1 DUP2 MSTORE PUSH1 0x20 ADD PUSH1 0x0 KECCAK256 SLOAD SWAP1 POP SWAP3 SWAP2 POP POP JUMP JUMPDEST PUSH2 0xDCD PUSH2 0xEC6 JUMP JUMPDEST PUSH20 0xFFFFFFFFFFFFFFFFFFFFFFFFFFFFFFFFFFFFFFFF AND PUSH2 0xDEB PUSH2 0x61B JUMP JUMPDEST PUSH20 0xFFFFFFFFFFFFFFFFFFFFFFFFFFFFFFFFFFFFFFFF AND EQ PUSH2 0xE41 JUMPI PUSH1 0x40 MLOAD PUSH32 0x8C379A000000000000000000000000000000000000000000000000000000000 DUP2 MSTORE PUSH1 0x4 ADD PUSH2 0xE38 SWAP1 PUSH2 0x1ACA JUMP JUMPDEST PUSH1 0x40 MLOAD DUP1 SWAP2 SUB SWAP1 REVERT JUMPDEST PUSH1 0x0 PUSH20 0xFFFFFFFFFFFFFFFFFFFFFFFFFFFFFFFFFFFFFFFF AND DUP2 PUSH20 0xFFFFFFFFFFFFFFFFFFFFFFFFFFFFFFFFFFFFFFFF AND SUB PUSH2 0xEB0 JUMPI PUSH1 0x40 MLOAD PUSH32 0x8C379A000000000000000000000000000000000000000000000000000000000 DUP2 MSTORE PUSH1 0x4 ADD PUSH2 0xEA7 SWAP1 PUSH2 0x1BEE JUMP JUMPDEST PUSH1 0x40 MLOAD DUP1 SWAP2 SUB SWAP1 REVERT JUMPDEST PUSH2 0xEB9 DUP2 PUSH2 0x13A2 JUMP JUMPDEST POP JUMP JUMPDEST POP POP POP JUMP JUMPDEST POP POP POP JUMP JUMPDEST PUSH1 0x0 CALLER SWAP1 POP SWAP1 JUMP JUMPDEST PUSH1 0x0 PUSH20 0xFFFFFFFFFFFFFFFFFFFFFFFFFFFFFFFFFFFFFFFF AND DUP4 PUSH20 0xFFFFFFFFFFFFFFFFFFFFFFFFFFFFFFFFFFFFFFFF AND SUB PUSH2 0xF3D JUMPI PUSH1 0x40 MLOAD PUSH32 0x8C379A000000000000000000000000000000000000000000000000000000000 DUP2 MSTORE PUSH1 0x4 ADD PUSH2 0xF34 SWAP1 PUSH2 0x1C80 JUMP JUMPDEST PUSH1 0x40 MLOAD DUP1 SWAP2 SUB SWAP1 REVERT JUMPDEST PUSH1 0x0 PUSH20 0xFFFFFFFFFFFFFFFFFFFFFFFFFFFFFFFFFFFFFFFF AND DUP3 PUSH20 0xFFFFFFFFFFFFFFFFFFFFFFFFFFFFFFFFFFFFFFFF AND SUB PUSH2 0xFAC JUMPI PUSH1 0x40 MLOAD PUSH32 0x8C379A000000000000000000000000000000000000000000000000000000000 DUP2 MSTORE PUSH1 0x4 ADD PUSH2 0xFA3 SWAP1 PUSH2 0x1D12 JUMP JUMPDEST PUSH1 0x40 MLOAD DUP1 SWAP2 SUB SWAP1 REVERT JUMPDEST DUP1 PUSH1 0x1 PUSH1 0x0 DUP6 PUSH20 0xFFFFFFFFFFFFFFFFFFFFFFFFFFFFFFFFFFFFFFFF AND PUSH20 0xFFFFFFFFFFFFFFFFFFFFFFFFFFFFFFFFFFFFFFFF AND DUP2 MSTORE PUSH1 0x20 ADD SWAP1 DUP2 MSTORE PUSH1 0x20 ADD PUSH1 0x0 KECCAK256 PUSH1 0x0 DUP5 PUSH20 0xFFFFFFFFFFFFFFFFFFFFFFFFFFFFFFFFFFFFFFFF AND PUSH20 0xFFFFFFFFFFFFFFFFFFFFFFFFFFFFFFFFFFFFFFFF AND DUP2 MSTORE PUSH1 0x20 ADD SWAP1 DUP2 MSTORE PUSH1 0x20 ADD PUSH1 0x0 KECCAK256 DUP2 SWAP1 SSTORE POP DUP2 PUSH20 0xFFFFFFFFFFFFFFFFFFFFFFFFFFFFFFFFFFFFFFFF AND DUP4 PUSH20 0xFFFFFFFFFFFFFFFFFFFFFFFFFFFFFFFFFFFFFFFF AND PUSH32 0x8C5BE1E5EBEC7D5BD14F71427D1E84F3DD0314C0F7B2291E5B200AC8C7C3B925 DUP4 PUSH1 0x40 MLOAD PUSH2 0x108A SWAP2 SWAP1 PUSH2 0x1781 JUMP JUMPDEST PUSH1 0x40 MLOAD DUP1 SWAP2 SUB SWAP1 LOG3 POP POP POP JUMP JUMPDEST PUSH1 0x0 PUSH2 0x10A3 DUP5 DUP5 PUSH2 0xD3E JUMP JUMPDEST SWAP1 POP PUSH32 0xFFFFFFFFFFFFFFFFFFFFFFFFFFFFFFFFFFFFFFFFFFFFFFFFFFFFFFFFFFFFFFFF DUP2 EQ PUSH2 0x111D JUMPI DUP2 DUP2 LT ISZERO PUSH2 0x110F JUMPI PUSH1 0x40 MLOAD PUSH32 0x8C379A000000000000000000000000000000000000000000000000000000000 DUP2 MSTORE PUSH1 0x4 ADD PUSH2 0x1106 SWAP1 PUSH2 0x1D7E JUMP JUMPDEST PUSH1 0x40 MLOAD DUP1 SWAP2 SUB SWAP1 REVERT JUMPDEST PUSH2 0x111C DUP5 DUP5 DUP5 DUP5 SUB PUSH2 0xECE JUMP JUMPDEST JUMPDEST POP POP POP POP JUMP JUMPDEST PUSH1 0x0 PUSH20 0xFFFFFFFFFFFFFFFFFFFFFFFFFFFFFFFFFFFFFFFF AND DUP4 PUSH20 0xFFFFFFFFFFFFFFFFFFFFFFFFFFFFFFFFFFFFFFFF AND SUB PUSH2 0x1192 JUMPI PUSH1 0x40 MLOAD PUSH32 0x8C379A000000000000000000000000000000000000000000000000000000000 DUP2 MSTORE PUSH1 0x4 ADD PUSH2 0x1189 SWAP1 PUSH2 0x1E10 JUMP JUMPDEST PUSH1 0x40 MLOAD DUP1 SWAP2 SUB SWAP1 REVERT JUMPDEST PUSH1 0x0 PUSH20 0xFFFFFFFFFFFFFFFFFFFFFFFFFFFFFFFFFFFFFFFF AND DUP3 PUSH20 0xFFFFFFFFFFFFFFFFFFFFFFFFFFFFFFFFFFFFFFFF AND SUB PUSH2 0x1201 JUMPI PUSH1 0x40 MLOAD PUSH32 0x8C379A000000000000000000000000000000000000000000000000000000000 DUP2 MSTORE PUSH1 0x4 ADD PUSH2 0x11F8 SWAP1 PUSH2 0x1EA2 JUMP JUMPDEST PUSH1 0x40 MLOAD DUP1 SWAP2 SUB SWAP1 REVERT JUMPDEST PUSH2 0x120C DUP4 DUP4 DUP4 PUSH2 0xEBC JUMP JUMPDEST PUSH1 0x0 DUP1 PUSH1 0x0 DUP6 PUSH20 0xFFFFFFFFFFFFFFFFFFFFFFFFFFFFFFFFFFFFFFFF AND PUSH20 0xFFFFFFFFFFFFFFFFFFFFFFFFFFFFFFFFFFFFFFFF AND DUP2 MSTORE PUSH1 0x20 ADD SWAP1 DUP2 MSTORE PUSH1 0x20 ADD PUSH1 0x0 KECCAK256 SLOAD SWAP1 POP DUP2 DUP2 LT ISZERO PUSH2 0x1292 JUMPI PUSH1 0x40 MLOAD PUSH32 0x8C379A000000000000000000000000000000000000000000000000000000000 DUP2 MSTORE PUSH1 0x4 ADD PUSH2 0x1289 SWAP1 PUSH2 0x1F34 JUMP JUMPDEST PUSH1 0x40 MLOAD DUP1 SWAP2 SUB SWAP1 REVERT JUMPDEST DUP2 DUP2 SUB PUSH1 0x0 DUP1 DUP7 PUSH20 0xFFFFFFFFFFFFFFFFFFFFFFFFFFFFFFFFFFFFFFFF AND PUSH20 0xFFFFFFFFFFFFFFFFFFFFFFFFFFFFFFFFFFFFFFFF AND DUP2 MSTORE PUSH1 0x20 ADD SWAP1 DUP2 MSTORE PUSH1 0x20 ADD PUSH1 0x0 KECCAK256 DUP2 SWAP1 SSTORE POP DUP2 PUSH1 0x0 DUP1 DUP6 PUSH20 0xFFFFFFFFFFFFFFFFFFFFFFFFFFFFFFFFFFFFFFFF AND PUSH20 0xFFFFFFFFFFFFFFFFFFFFFFFFFFFFFFFFFFFFFFFF AND DUP2 MSTORE PUSH1 0x20 ADD SWAP1 DUP2 MSTORE PUSH1 0x20 ADD PUSH1 0x0 KECCAK256 PUSH1 0x0 DUP3 DUP3 SLOAD PUSH2 0x1325 SWAP2 SWAP1 PUSH2 0x191E JUMP JUMPDEST SWAP3 POP POP DUP2 SWAP1 SSTORE POP DUP3 PUSH20 0xFFFFFFFFFFFFFFFFFFFFFFFFFFFFFFFFFFFFFFFF AND DUP5 PUSH20 0xFFFFFFFFFFFFFFFFFFFFFFFFFFFFFFFFFFFFFFFF AND PUSH32 0xDDF252AD1BE2C89B69C2B068FC378DAA952BA7F163C4A11628F55A4DF523B3EF DUP5 PUSH1 0x40 MLOAD PUSH2 0x1389 SWAP2 SWAP1 PUSH2 0x1781 JUMP JUMPDEST PUSH1 0x40 MLOAD DUP1 SWAP2 SUB SWAP1 LOG3 PUSH2 0x139C DUP5 DUP5 DUP5 PUSH2 0xEC1 JUMP JUMPDEST POP POP POP POP JUMP JUMPDEST PUSH1 0x0 PUSH1 0x5 PUSH1 0x0 SWAP1 SLOAD SWAP1 PUSH2 0x100 EXP SWAP1 DIV PUSH20 0xFFFFFFFFFFFFFFFFFFFFFFFFFFFFFFFFFFFFFFFF AND SWAP1 POP DUP2 PUSH1 0x5 PUSH1 0x0 PUSH2 0x100 EXP DUP2 SLOAD DUP2 PUSH20 0xFFFFFFFFFFFFFFFFFFFFFFFFFFFFFFFFFFFFFFFF MUL NOT AND SWAP1 DUP4 PUSH20 0xFFFFFFFFFFFFFFFFFFFFFFFFFFFFFFFFFFFFFFFF AND MUL OR SWAP1 SSTORE POP DUP2 PUSH20 0xFFFFFFFFFFFFFFFFFFFFFFFFFFFFFFFFFFFFFFFF AND DUP2 PUSH20 0xFFFFFFFFFFFFFFFFFFFFFFFFFFFFFFFFFFFFFFFF AND PUSH32 0x8BE0079C531659141344CD1FD0A4F28419497F9722A3DAAFE3B4186F6B6457E0 PUSH1 0x40 MLOAD PUSH1 0x40 MLOAD DUP1 SWAP2 SUB SWAP1 LOG3 POP POP JUMP JUMPDEST PUSH1 0x0 DUP3 DUP3 MSTORE PUSH1 0x20 DUP3 ADD SWAP1 POP SWAP3 SWAP2 POP POP JUMP JUMPDEST PUSH32 0x456E7465722061206E6F6E7A65726F2076616C75650000000000000000000000 PUSH1 0x0 DUP3 ADD MSTORE POP JUMP JUMPDEST PUSH1 0x0 PUSH2 0x14AF PUSH1 0x15 DUP4 PUSH2 0x1468 JUMP JUMPDEST SWAP2 POP PUSH2 0x14BA DUP3 PUSH2 0x1479 JUMP JUMPDEST PUSH1 0x20 DUP3 ADD SWAP1 POP SWAP2 SWAP1 POP JUMP JUMPDEST PUSH1 0x0 PUSH1 0x20 DUP3 ADD SWAP1 POP DUP2 DUP2 SUB PUSH1 0x0 DUP4 ADD MSTORE PUSH2 0x14DE DUP2 PUSH2 0x14A2 JUMP JUMPDEST SWAP1 POP SWAP2 SWAP1 POP JUMP JUMPDEST PUSH1 0x0 DUP2 SWAP1 POP SWAP2 SWAP1 POP JUMP JUMPDEST PUSH32 0x4E487B7100000000000000000000000000000000000000000000000000000000 PUSH1 0x0 MSTORE PUSH1 0x11 PUSH1 0x4 MSTORE PUSH1 0x24 PUSH1 0x0 REVERT JUMPDEST PUSH1 0x0 PUSH2 0x1529 DUP3 PUSH2 0x14E5 JUMP JUMPDEST SWAP2 POP PUSH2 0x1534 DUP4 PUSH2 0x14E5 JUMP JUMPDEST SWAP3 POP DUP3 DUP3 MUL PUSH2 0x1542 DUP2 PUSH2 0x14E5 JUMP JUMPDEST SWAP2 POP DUP3 DUP3 DIV DUP5 EQ DUP4 ISZERO OR PUSH2 0x1559 JUMPI PUSH2 0x1558 PUSH2 0x14EF JUMP JUMPDEST JUMPDEST POP SWAP3 SWAP2 POP POP JUMP JUMPDEST PUSH32 0x6F776E6572204B6169546F6B656E206973206E6F20616D6F756E740000000000 PUSH1 0x0 DUP3 ADD MSTORE POP JUMP JUMPDEST PUSH1 0x0 PUSH2 0x1596 PUSH1 0x1B DUP4 PUSH2 0x1468 JUMP JUMPDEST SWAP2 POP PUSH2 0x15A1 DUP3 PUSH2 0x1560 JUMP JUMPDEST PUSH1 0x20 DUP3 ADD SWAP1 POP SWAP2 SWAP1 POP JUMP JUMPDEST PUSH1 0x0 PUSH1 0x20 DUP3 ADD SWAP1 POP DUP2 DUP2 SUB PUSH1 0x0 DUP4 ADD MSTORE PUSH2 0x15C5 DUP2 PUSH2 0x1589 JUMP JUMPDEST SWAP1 POP SWAP2 SWAP1 POP JUMP JUMPDEST PUSH1 0x0 DUP2 MLOAD SWAP1 POP SWAP2 SWAP1 POP JUMP JUMPDEST PUSH1 0x0 JUMPDEST DUP4 DUP2 LT ISZERO PUSH2 0x15F5 JUMPI DUP1 DUP3 ADD MLOAD DUP2 DUP5 ADD MSTORE PUSH1 0x20 DUP2 ADD SWAP1 POP PUSH2 0x15DA JUMP JUMPDEST PUSH1 0x0 DUP5 DUP5 ADD MSTORE POP POP POP POP JUMP JUMPDEST PUSH1 0x0 PUSH1 0x1F NOT PUSH1 0x1F DUP4 ADD AND SWAP1 POP SWAP2 SWAP1 POP JUMP JUMPDEST PUSH1 0x0 PUSH2 0x161D DUP3 PUSH2 0x15CC JUMP JUMPDEST PUSH2 0x1627 DUP2 DUP6 PUSH2 0x1468 JUMP JUMPDEST SWAP4 POP PUSH2 0x1637 DUP2 DUP6 PUSH1 0x20 DUP7 ADD PUSH2 0x15D7 JUMP JUMPDEST PUSH2 0x1640 DUP2 PUSH2 0x1601 JUMP JUMPDEST DUP5 ADD SWAP2 POP POP SWAP3 SWAP2 POP POP JUMP JUMPDEST PUSH1 0x0 PUSH1 0x20 DUP3 ADD SWAP1 POP DUP2 DUP2 SUB PUSH1 0x0 DUP4 ADD MSTORE PUSH2 0x1665 DUP2 DUP5 PUSH2 0x1612 JUMP JUMPDEST SWAP1 POP SWAP3 SWAP2 POP POP JUMP JUMPDEST PUSH1 0x0 DUP1 REVERT JUMPDEST PUSH1 0x0 PUSH20 0xFFFFFFFFFFFFFFFFFFFFFFFFFFFFFFFFFFFFFFFF DUP3 AND SWAP1 POP SWAP2 SWAP1 POP JUMP JUMPDEST PUSH1 0x0 PUSH2 0x169D DUP3 PUSH2 0x1672 JUMP JUMPDEST SWAP1 POP SWAP2 SWAP1 POP JUMP JUMPDEST PUSH2 0x16AD DUP2 PUSH2 0x1692 JUMP JUMPDEST DUP2 EQ PUSH2 0x16B8 JUMPI PUSH1 0x0 DUP1 REVERT JUMPDEST POP JUMP JUMPDEST PUSH1 0x0 DUP2 CALLDATALOAD SWAP1 POP PUSH2 0x16CA DUP2 PUSH2 0x16A4 JUMP JUMPDEST SWAP3 SWAP2 POP POP JUMP JUMPDEST PUSH2 0x16D9 DUP2 PUSH2 0x14E5 JUMP JUMPDEST DUP2 EQ PUSH2 0x16E4 JUMPI PUSH1 0x0 DUP1 REVERT JUMPDEST POP JUMP JUMPDEST PUSH1 0x0 DUP2 CALLDATALOAD SWAP1 POP PUSH2 0x16F6 DUP2 PUSH2 0x16D0 JUMP JUMPDEST SWAP3 SWAP2 POP POP JUMP JUMPDEST PUSH1 0x0 DUP1 PUSH1 0x40 DUP4 DUP6 SUB SLT ISZERO PUSH2 0x1713 JUMPI PUSH2 0x1712 PUSH2 0x166D JUMP JUMPDEST JUMPDEST PUSH1 0x0 PUSH2 0x1721 DUP6 DUP3 DUP7 ADD PUSH2 0x16BB JUMP JUMPDEST SWAP3 POP POP PUSH1 0x20 PUSH2 0x1732 DUP6 DUP3 DUP7 ADD PUSH2 0x16E7 JUMP JUMPDEST SWAP2 POP POP SWAP3 POP SWAP3 SWAP1 POP JUMP JUMPDEST PUSH1 0x0 DUP2 ISZERO ISZERO SWAP1 POP SWAP2 SWAP1 POP JUMP JUMPDEST PUSH2 0x1751 DUP2 PUSH2 0x173C JUMP JUMPDEST DUP3 MSTORE POP POP JUMP JUMPDEST PUSH1 0x0 PUSH1 0x20 DUP3 ADD SWAP1 POP PUSH2 0x176C PUSH1 0x0 DUP4 ADD DUP5 PUSH2 0x1748 JUMP JUMPDEST SWAP3 SWAP2 POP POP JUMP JUMPDEST PUSH2 0x177B DUP2 PUSH2 0x14E5 JUMP JUMPDEST DUP3 MSTORE POP POP JUMP JUMPDEST PUSH1 0x0 PUSH1 0x20 DUP3 ADD SWAP1 POP PUSH2 0x1796 PUSH1 0x0 DUP4 ADD DUP5 PUSH2 0x1772 JUMP JUMPDEST SWAP3 SWAP2 POP POP JUMP JUMPDEST PUSH1 0x0 PUSH1 0x20 DUP3 DUP5 SUB SLT ISZERO PUSH2 0x17B2 JUMPI PUSH2 0x17B1 PUSH2 0x166D JUMP JUMPDEST JUMPDEST PUSH1 0x0 PUSH2 0x17C0 DUP5 DUP3 DUP6 ADD PUSH2 0x16E7 JUMP JUMPDEST SWAP2 POP POP SWAP3 SWAP2 POP POP JUMP JUMPDEST PUSH1 0x0 DUP1 PUSH1 0x0 PUSH1 0x60 DUP5 DUP7 SUB SLT ISZERO PUSH2 0x17E2 JUMPI PUSH2 0x17E1 PUSH2 0x166D JUMP JUMPDEST JUMPDEST PUSH1 0x0 PUSH2 0x17F0 DUP7 DUP3 DUP8 ADD PUSH2 0x16BB JUMP JUMPDEST SWAP4 POP POP PUSH1 0x20 PUSH2 0x1801 DUP7 DUP3 DUP8 ADD PUSH2 0x16BB JUMP JUMPDEST SWAP3 POP POP PUSH1 0x40 PUSH2 0x1812 DUP7 DUP3 DUP8 ADD PUSH2 0x16E7 JUMP JUMPDEST SWAP2 POP POP SWAP3 POP SWAP3 POP SWAP3 JUMP JUMPDEST PUSH1 0x0 PUSH1 0xFF DUP3 AND SWAP1 POP SWAP2 SWAP1 POP JUMP JUMPDEST PUSH2 0x1832 DUP2 PUSH2 0x181C JUMP JUMPDEST DUP3 MSTORE POP POP JUMP JUMPDEST PUSH1 0x0 PUSH1 0x20 DUP3 ADD SWAP1 POP PUSH2 0x184D PUSH1 0x0 DUP4 ADD DUP5 PUSH2 0x1829 JUMP JUMPDEST SWAP3 SWAP2 POP POP JUMP JUMPDEST PUSH1 0x0 PUSH1 0x20 DUP3 DUP5 SUB SLT ISZERO PUSH2 0x1869 JUMPI PUSH2 0x1868 PUSH2 0x166D JUMP JUMPDEST JUMPDEST PUSH1 0x0 PUSH2 0x1877 DUP5 DUP3 DUP6 ADD PUSH2 0x16BB JUMP JUMPDEST SWAP2 POP POP SWAP3 SWAP2 POP POP JUMP JUMPDEST PUSH2 0x1889 DUP2 PUSH2 0x1692 JUMP JUMPDEST DUP3 MSTORE POP POP JUMP JUMPDEST PUSH1 0x0 PUSH1 0x20 DUP3 ADD SWAP1 POP PUSH2 0x18A4 PUSH1 0x0 DUP4 ADD DUP5 PUSH2 0x1880 JUMP JUMPDEST SWAP3 SWAP2 POP POP JUMP JUMPDEST PUSH1 0x0 DUP1 PUSH1 0x40 DUP4 DUP6 SUB SLT ISZERO PUSH2 0x18C1 JUMPI PUSH2 0x18C0 PUSH2 0x166D JUMP JUMPDEST JUMPDEST PUSH1 0x0 PUSH2 0x18CF DUP6 DUP3 DUP7 ADD PUSH2 0x16BB JUMP JUMPDEST SWAP3 POP POP PUSH1 0x20 PUSH2 0x18E0 DUP6 DUP3 DUP7 ADD PUSH2 0x16BB JUMP JUMPDEST SWAP2 POP POP SWAP3 POP SWAP3 SWAP1 POP JUMP JUMPDEST PUSH1 0x0 PUSH2 0x18F5 DUP3 PUSH2 0x14E5 JUMP JUMPDEST SWAP2 POP PUSH2 0x1900 DUP4 PUSH2 0x14E5 JUMP JUMPDEST SWAP3 POP DUP3 DUP3 SUB SWAP1 POP DUP2 DUP2 GT ISZERO PUSH2 0x1918 JUMPI PUSH2 0x1917 PUSH2 0x14EF JUMP JUMPDEST JUMPDEST SWAP3 SWAP2 POP POP JUMP JUMPDEST PUSH1 0x0 PUSH2 0x1929 DUP3 PUSH2 0x14E5 JUMP JUMPDEST SWAP2 POP PUSH2 0x1934 DUP4 PUSH2 0x14E5 JUMP JUMPDEST SWAP3 POP DUP3 DUP3 ADD SWAP1 POP DUP1 DUP3 GT ISZERO PUSH2 0x194C JUMPI PUSH2 0x194B PUSH2 0x14EF JUMP JUMPDEST JUMPDEST SWAP3 SWAP2 POP POP JUMP JUMPDEST PUSH32 0x45524332303A206D696E7420746F20746865207A65726F206164647265737300 PUSH1 0x0 DUP3 ADD MSTORE POP JUMP JUMPDEST PUSH1 0x0 PUSH2 0x1988 PUSH1 0x1F DUP4 PUSH2 0x1468 JUMP JUMPDEST SWAP2 POP PUSH2 0x1993 DUP3 PUSH2 0x1952 JUMP JUMPDEST PUSH1 0x20 DUP3 ADD SWAP1 POP SWAP2 SWAP1 POP JUMP JUMPDEST PUSH1 0x0 PUSH1 0x20 DUP3 ADD SWAP1 POP DUP2 DUP2 SUB PUSH1 0x0 DUP4 ADD MSTORE PUSH2 0x19B7 DUP2 PUSH2 0x197B JUMP JUMPDEST SWAP1 POP SWAP2 SWAP1 POP JUMP JUMPDEST PUSH32 0x4E487B7100000000000000000000000000000000000000000000000000000000 PUSH1 0x0 MSTORE PUSH1 0x22 PUSH1 0x4 MSTORE PUSH1 0x24 PUSH1 0x0 REVERT JUMPDEST PUSH1 0x0 PUSH1 0x2 DUP3 DIV SWAP1 POP PUSH1 0x1 DUP3 AND DUP1 PUSH2 0x1A05 JUMPI PUSH1 0x7F DUP3 AND SWAP2 POP JUMPDEST PUSH1 0x20 DUP3 LT DUP2 SUB PUSH2 0x1A18 JUMPI PUSH2 0x1A17 PUSH2 0x19BE JUMP JUMPDEST JUMPDEST POP SWAP2 SWAP1 POP JUMP JUMPDEST PUSH32 0x4E487B7100000000000000000000000000000000000000000000000000000000 PUSH1 0x0 MSTORE PUSH1 0x12 PUSH1 0x4 MSTORE PUSH1 0x24 PUSH1 0x0 REVERT JUMPDEST PUSH1 0x0 PUSH2 0x1A58 DUP3 PUSH2 0x14E5 JUMP JUMPDEST SWAP2 POP PUSH2 0x1A63 DUP4 PUSH2 0x14E5 JUMP JUMPDEST SWAP3 POP DUP3 PUSH2 0x1A73 JUMPI PUSH2 0x1A72 PUSH2 0x1A1E JUMP JUMPDEST JUMPDEST DUP3 DUP3 DIV SWAP1 POP SWAP3 SWAP2 POP POP JUMP JUMPDEST PUSH32 0x4F776E61626C653A2063616C6C6572206973206E6F7420746865206F776E6572 PUSH1 0x0 DUP3 ADD MSTORE POP JUMP JUMPDEST PUSH1 0x0 PUSH2 0x1AB4 PUSH1 0x20 DUP4 PUSH2 0x1468 JUMP JUMPDEST SWAP2 POP PUSH2 0x1ABF DUP3 PUSH2 0x1A7E JUMP JUMPDEST PUSH1 0x20 DUP3 ADD SWAP1 POP SWAP2 SWAP1 POP JUMP JUMPDEST PUSH1 0x0 PUSH1 0x20 DUP3 ADD SWAP1 POP DUP2 DUP2 SUB PUSH1 0x0 DUP4 ADD MSTORE PUSH2 0x1AE3 DUP2 PUSH2 0x1AA7 JUMP JUMPDEST SWAP1 POP SWAP2 SWAP1 POP JUMP JUMPDEST PUSH32 0x45524332303A2064656372656173656420616C6C6F77616E63652062656C6F77 PUSH1 0x0 DUP3 ADD MSTORE PUSH32 0x207A65726F000000000000000000000000000000000000000000000000000000 PUSH1 0x20 DUP3 ADD MSTORE POP JUMP JUMPDEST PUSH1 0x0 PUSH2 0x1B46 PUSH1 0x25 DUP4 PUSH2 0x1468 JUMP JUMPDEST SWAP2 POP PUSH2 0x1B51 DUP3 PUSH2 0x1AEA JUMP JUMPDEST PUSH1 0x40 DUP3 ADD SWAP1 POP SWAP2 SWAP1 POP JUMP JUMPDEST PUSH1 0x0 PUSH1 0x20 DUP3 ADD SWAP1 POP DUP2 DUP2 SUB PUSH1 0x0 DUP4 ADD MSTORE PUSH2 0x1B75 DUP2 PUSH2 0x1B39 JUMP JUMPDEST SWAP1 POP SWAP2 SWAP1 POP JUMP JUMPDEST PUSH32 0x4F776E61626C653A206E6577206F776E657220697320746865207A65726F2061 PUSH1 0x0 DUP3 ADD MSTORE PUSH32 0x6464726573730000000000000000000000000000000000000000000000000000 PUSH1 0x20 DUP3 ADD MSTORE POP JUMP JUMPDEST PUSH1 0x0 PUSH2 0x1BD8 PUSH1 0x26 DUP4 PUSH2 0x1468 JUMP JUMPDEST SWAP2 POP PUSH2 0x1BE3 DUP3 PUSH2 0x1B7C JUMP JUMPDEST PUSH1 0x40 DUP3 ADD SWAP1 POP SWAP2 SWAP1 POP JUMP JUMPDEST PUSH1 0x0 PUSH1 0x20 DUP3 ADD SWAP1 POP DUP2 DUP2 SUB PUSH1 0x0 DUP4 ADD MSTORE PUSH2 0x1C07 DUP2 PUSH2 0x1BCB JUMP JUMPDEST SWAP1 POP SWAP2 SWAP1 POP JUMP JUMPDEST PUSH32 0x45524332303A20617070726F76652066726F6D20746865207A65726F20616464 PUSH1 0x0 DUP3 ADD MSTORE PUSH32 0x7265737300000000000000000000000000000000000000000000000000000000 PUSH1 0x20 DUP3 ADD MSTORE POP JUMP JUMPDEST PUSH1 0x0 PUSH2 0x1C6A PUSH1 0x24 DUP4 PUSH2 0x1468 JUMP JUMPDEST SWAP2 POP PUSH2 0x1C75 DUP3 PUSH2 0x1C0E JUMP JUMPDEST PUSH1 0x40 DUP3 ADD SWAP1 POP SWAP2 SWAP1 POP JUMP JUMPDEST PUSH1 0x0 PUSH1 0x20 DUP3 ADD SWAP1 POP DUP2 DUP2 SUB PUSH1 0x0 DUP4 ADD MSTORE PUSH2 0x1C99 DUP2 PUSH2 0x1C5D JUMP JUMPDEST SWAP1 POP SWAP2 SWAP1 POP JUMP JUMPDEST PUSH32 0x45524332303A20617070726F766520746F20746865207A65726F206164647265 PUSH1 0x0 DUP3 ADD MSTORE PUSH32 0x7373000000000000000000000000000000000000000000000000000000000000 PUSH1 0x20 DUP3 ADD MSTORE POP JUMP JUMPDEST PUSH1 0x0 PUSH2 0x1CFC PUSH1 0x22 DUP4 PUSH2 0x1468 JUMP JUMPDEST SWAP2 POP PUSH2 0x1D07 DUP3 PUSH2 0x1CA0 JUMP JUMPDEST PUSH1 0x40 DUP3 ADD SWAP1 POP SWAP2 SWAP1 POP JUMP JUMPDEST PUSH1 0x0 PUSH1 0x20 DUP3 ADD SWAP1 POP DUP2 DUP2 SUB PUSH1 0x0 DUP4 ADD MSTORE PUSH2 0x1D2B DUP2 PUSH2 0x1CEF JUMP JUMPDEST SWAP1 POP SWAP2 SWAP1 POP JUMP JUMPDEST PUSH32 0x45524332303A20696E73756666696369656E7420616C6C6F77616E6365000000 PUSH1 0x0 DUP3 ADD MSTORE POP JUMP JUMPDEST PUSH1 0x0 PUSH2 0x1D68 PUSH1 0x1D DUP4 PUSH2 0x1468 JUMP JUMPDEST SWAP2 POP PUSH2 0x1D73 DUP3 PUSH2 0x1D32 JUMP JUMPDEST PUSH1 0x20 DUP3 ADD SWAP1 POP SWAP2 SWAP1 POP JUMP JUMPDEST PUSH1 0x0 PUSH1 0x20 DUP3 ADD SWAP1 POP DUP2 DUP2 SUB PUSH1 0x0 DUP4 ADD MSTORE PUSH2 0x1D97 DUP2 PUSH2 0x1D5B JUMP JUMPDEST SWAP1 POP SWAP2 SWAP1 POP JUMP JUMPDEST PUSH32 0x45524332303A207472616E736665722066726F6D20746865207A65726F206164 PUSH1 0x0 DUP3 ADD MSTORE PUSH32 0x6472657373000000000000000000000000000000000000000000000000000000 PUSH1 0x20 DUP3 ADD MSTORE POP JUMP JUMPDEST PUSH1 0x0 PUSH2 0x1DFA PUSH1 0x25 DUP4 PUSH2 0x1468 JUMP JUMPDEST SWAP2 POP PUSH2 0x1E05 DUP3 PUSH2 0x1D9E JUMP JUMPDEST PUSH1 0x40 DUP3 ADD SWAP1 POP SWAP2 SWAP1 POP JUMP JUMPDEST PUSH1 0x0 PUSH1 0x20 DUP3 ADD SWAP1 POP DUP2 DUP2 SUB PUSH1 0x0 DUP4 ADD MSTORE PUSH2 0x1E29 DUP2 PUSH2 0x1DED JUMP JUMPDEST SWAP1 POP SWAP2 SWAP1 POP JUMP JUMPDEST PUSH32 0x45524332303A207472616E7366657220746F20746865207A65726F2061646472 PUSH1 0x0 DUP3 ADD MSTORE PUSH32 0x6573730000000000000000000000000000000000000000000000000000000000 PUSH1 0x20 DUP3 ADD MSTORE POP JUMP JUMPDEST PUSH1 0x0 PUSH2 0x1E8C PUSH1 0x23 DUP4 PUSH2 0x1468 JUMP JUMPDEST SWAP2 POP PUSH2 0x1E97 DUP3 PUSH2 0x1E30 JUMP JUMPDEST PUSH1 0x40 DUP3 ADD SWAP1 POP SWAP2 SWAP1 POP JUMP JUMPDEST PUSH1 0x0 PUSH1 0x20 DUP3 ADD SWAP1 POP DUP2 DUP2 SUB PUSH1 0x0 DUP4 ADD MSTORE PUSH2 0x1EBB DUP2 PUSH2 0x1E7F JUMP JUMPDEST SWAP1 POP SWAP2 SWAP1 POP JUMP JUMPDEST PUSH32 0x45524332303A207472616E7366657220616D6F756E7420657863656564732062 PUSH1 0x0 DUP3 ADD MSTORE PUSH32 0x616C616E63650000000000000000000000000000000000000000000000000000 PUSH1 0x20 DUP3 ADD MSTORE POP JUMP JUMPDEST PUSH1 0x0 PUSH2 0x1F1E PUSH1 0x26 DUP4 PUSH2 0x1468 JUMP JUMPDEST SWAP2 POP PUSH2 0x1F29 DUP3 PUSH2 0x1EC2 JUMP JUMPDEST PUSH1 0x40 DUP3 ADD SWAP1 POP SWAP2 SWAP1 POP JUMP JUMPDEST PUSH1 0x0 PUSH1 0x20 DUP3 ADD SWAP1 POP DUP2 DUP2 SUB PUSH1 0x0 DUP4 ADD MSTORE PUSH2 0x1F4D DUP2 PUSH2 0x1F11 JUMP JUMPDEST SWAP1 POP SWAP2 SWAP1 POP JUMP INVALID LOG2 PUSH5 0x6970667358 0x22 SLT KECCAK256 MLOAD 0x27 0xA6 JUMP PUSH27 0x97C8F5F488C460ACF4BE204E62D9D0C09CEDD5347647A3276D6EAD PUSH5 0x736F6C6343 STOP ADDMOD GT STOP CALLER "
				},
				"gasEstimates": {
					"creation": {
						"codeDepositCost": "1614800",
						"executionCost": "infinite",
						"totalCost": "infinite"
					},
					"external": {
						"_name()": "infinite",
						"_symbol()": "infinite",
						"_totalSupply()": "2518",
						"allowance(address,address)": "infinite",
						"approve(address,uint256)": "infinite",
						"balanceOf(address)": "2864",
						"decimals()": "388",
						"decreaseAllowance(address,uint256)": "infinite",
						"increaseAllowance(address,uint256)": "infinite",
						"mint(address,uint256)": "infinite",
						"name()": "infinite",
						"owner()": "2589",
						"rate()": "2452",
						"renounceOwnership()": "30419",
						"sellToken(uint256)": "infinite",
						"symbol()": "infinite",
						"tokentransfer(address,address,uint256)": "infinite",
						"totalSupply()": "2505",
						"transfer(address,uint256)": "infinite",
						"transferFrom(address,address,uint256)": "infinite",
						"transferOwnership(address)": "30830"
					}
				},
				"methodIdentifiers": {
					"_name()": "d28d8852",
					"_symbol()": "b09f1266",
					"_totalSupply()": "3eaaf86b",
					"allowance(address,address)": "dd62ed3e",
					"approve(address,uint256)": "095ea7b3",
					"balanceOf(address)": "70a08231",
					"decimals()": "313ce567",
					"decreaseAllowance(address,uint256)": "a457c2d7",
					"increaseAllowance(address,uint256)": "39509351",
					"mint(address,uint256)": "40c10f19",
					"name()": "06fdde03",
					"owner()": "8da5cb5b",
					"rate()": "2c4e722e",
					"renounceOwnership()": "715018a6",
					"sellToken(uint256)": "2397e4d7",
					"symbol()": "95d89b41",
					"tokentransfer(address,address,uint256)": "fffc5e89",
					"totalSupply()": "18160ddd",
					"transfer(address,uint256)": "a9059cbb",
					"transferFrom(address,address,uint256)": "23b872dd",
					"transferOwnership(address)": "f2fde38b"
				}
			},
			"storageLayout": {
				"storage": [
					{
						"astId": 269,
						"contract": "contracts/kaiToken.sol:KaiToken",
						"label": "_balances",
						"offset": 0,
						"slot": "0",
						"type": "t_mapping(t_address,t_uint256)"
					},
					{
						"astId": 275,
						"contract": "contracts/kaiToken.sol:KaiToken",
						"label": "_allowances",
						"offset": 0,
						"slot": "1",
						"type": "t_mapping(t_address,t_mapping(t_address,t_uint256))"
					},
					{
						"astId": 277,
						"contract": "contracts/kaiToken.sol:KaiToken",
						"label": "_totalSupply",
						"offset": 0,
						"slot": "2",
						"type": "t_uint256"
					},
					{
						"astId": 279,
						"contract": "contracts/kaiToken.sol:KaiToken",
						"label": "_name",
						"offset": 0,
						"slot": "3",
						"type": "t_string_storage"
					},
					{
						"astId": 281,
						"contract": "contracts/kaiToken.sol:KaiToken",
						"label": "_symbol",
						"offset": 0,
						"slot": "4",
						"type": "t_string_storage"
					},
					{
						"astId": 156,
						"contract": "contracts/kaiToken.sol:KaiToken",
						"label": "_owner",
						"offset": 0,
						"slot": "5",
						"type": "t_address"
					},
					{
						"astId": 10,
						"contract": "contracts/kaiToken.sol:KaiToken",
						"label": "_name",
						"offset": 0,
						"slot": "6",
						"type": "t_string_storage"
					},
					{
						"astId": 13,
						"contract": "contracts/kaiToken.sol:KaiToken",
						"label": "_symbol",
						"offset": 0,
						"slot": "7",
						"type": "t_string_storage"
					},
					{
						"astId": 22,
						"contract": "contracts/kaiToken.sol:KaiToken",
						"label": "_totalSupply",
						"offset": 0,
						"slot": "8",
						"type": "t_uint256"
					},
					{
						"astId": 25,
						"contract": "contracts/kaiToken.sol:KaiToken",
						"label": "rate",
						"offset": 0,
						"slot": "9",
						"type": "t_uint256"
					}
				],
				"types": {
					"t_address": {
						"encoding": "inplace",
						"label": "address",
						"numberOfBytes": "20"
					},
					"t_mapping(t_address,t_mapping(t_address,t_uint256))": {
						"encoding": "mapping",
						"key": "t_address",
						"label": "mapping(address => mapping(address => uint256))",
						"numberOfBytes": "32",
						"value": "t_mapping(t_address,t_uint256)"
					},
					"t_mapping(t_address,t_uint256)": {
						"encoding": "mapping",
						"key": "t_address",
						"label": "mapping(address => uint256)",
						"numberOfBytes": "32",
						"value": "t_uint256"
					},
					"t_string_storage": {
						"encoding": "bytes",
						"label": "string",
						"numberOfBytes": "32"
					},
					"t_uint256": {
						"encoding": "inplace",
						"label": "uint256",
						"numberOfBytes": "32"
					}
				}
			},
			"userdoc": {
				"kind": "user",
				"methods": {},
				"version": 1
			}
		}
	}
}