{
	"node_modules/openzeppelin-solidity/contracts/token/ERC20/ERC20.sol": {
		"ERC20": {
			"abi": [
				{
					"inputs": [
						{
							"internalType": "string",
							"name": "name_",
							"type": "string"
						},
						{
							"internalType": "string",
							"name": "symbol_",
							"type": "string"
						}
					],
					"stateMutability": "nonpayable",
					"type": "constructor"
				},
				{
					"anonymous": false,
					"inputs": [
						{
							"indexed": true,
							"internalType": "address",
							"name": "owner",
							"type": "address"
						},
						{
							"indexed": true,
							"internalType": "address",
							"name": "spender",
							"type": "address"
						},
						{
							"indexed": false,
							"internalType": "uint256",
							"name": "value",
							"type": "uint256"
						}
					],
					"name": "Approval",
					"type": "event"
				},
				{
					"anonymous": false,
					"inputs": [
						{
							"indexed": true,
							"internalType": "address",
							"name": "from",
							"type": "address"
						},
						{
							"indexed": true,
							"internalType": "address",
							"name": "to",
							"type": "address"
						},
						{
							"indexed": false,
							"internalType": "uint256",
							"name": "value",
							"type": "uint256"
						}
					],
					"name": "Transfer",
					"type": "event"
				},
				{
					"inputs": [
						{
							"internalType": "address",
							"name": "owner",
							"type": "address"
						},
						{
							"internalType": "address",
							"name": "spender",
							"type": "address"
						}
					],
					"name": "allowance",
					"outputs": [
						{
							"internalType": "uint256",
							"name": "",
							"type": "uint256"
						}
					],
					"stateMutability": "view",
					"type": "function"
				},
				{
					"inputs": [
						{
							"internalType": "address",
							"name": "spender",
							"type": "address"
						},
						{
							"internalType": "uint256",
							"name": "amount",
							"type": "uint256"
						}
					],
					"name": "approve",
					"outputs": [
						{
							"internalType": "bool",
							"name": "",
							"type": "bool"
						}
					],
					"stateMutability": "nonpayable",
					"type": "function"
				},
				{
					"inputs": [
						{
							"internalType": "address",
							"name": "account",
							"type": "address"
						}
					],
					"name": "balanceOf",
					"outputs": [
						{
							"internalType": "uint256",
							"name": "",
							"type": "uint256"
						}
					],
					"stateMutability": "view",
					"type": "function"
				},
				{
					"inputs": [],
					"name": "decimals",
					"outputs": [
						{
							"internalType": "uint8",
							"name": "",
							"type": "uint8"
						}
					],
					"stateMutability": "view",
					"type": "function"
				},
				{
					"inputs": [
						{
							"internalType": "address",
							"name": "spender",
							"type": "address"
						},
						{
							"internalType": "uint256",
							"name": "subtractedValue",
							"type": "uint256"
						}
					],
					"name": "decreaseAllowance",
					"outputs": [
						{
							"internalType": "bool",
							"name": "",
							"type": "bool"
						}
					],
					"stateMutability": "nonpayable",
					"type": "function"
				},
				{
					"inputs": [
						{
							"internalType": "address",
							"name": "spender",
							"type": "address"
						},
						{
							"internalType": "uint256",
							"name": "addedValue",
							"type": "uint256"
						}
					],
					"name": "increaseAllowance",
					"outputs": [
						{
							"internalType": "bool",
							"name": "",
							"type": "bool"
						}
					],
					"stateMutability": "nonpayable",
					"type": "function"
				},
				{
					"inputs": [
						{
							"internalType": "address",
							"name": "account",
							"type": "address"
						},
						{
							"internalType": "uint256",
							"name": "amount",
							"type": "uint256"
						}
					],
					"name": "mint",
					"outputs": [],
					"stateMutability": "nonpayable",
					"type": "function"
				},
				{
					"inputs": [],
					"name": "name",
					"outputs": [
						{
							"internalType": "string",
							"name": "",
							"type": "string"
						}
					],
					"stateMutability": "view",
					"type": "function"
				},
				{
					"inputs": [],
					"name": "symbol",
					"outputs": [
						{
							"internalType": "string",
							"name": "",
							"type": "string"
						}
					],
					"stateMutability": "view",
					"type": "function"
				},
				{
					"inputs": [
						{
							"internalType": "address",
							"name": "owner",
							"type": "address"
						},
						{
							"internalType": "address",
							"name": "to",
							"type": "address"
						},
						{
							"internalType": "uint256",
							"name": "amount",
							"type": "uint256"
						}
					],
					"name": "tokentransfer",
					"outputs": [],
					"stateMutability": "nonpayable",
					"type": "function"
				},
				{
					"inputs": [],
					"name": "totalSupply",
					"outputs": [
						{
							"internalType": "uint256",
							"name": "",
							"type": "uint256"
						}
					],
					"stateMutability": "view",
					"type": "function"
				},
				{
					"inputs": [
						{
							"internalType": "address",
							"name": "to",
							"type": "address"
						},
						{
							"internalType": "uint256",
							"name": "amount",
							"type": "uint256"
						}
					],
					"name": "transfer",
					"outputs": [
						{
							"internalType": "bool",
							"name": "",
							"type": "bool"
						}
					],
					"stateMutability": "nonpayable",
					"type": "function"
				},
				{
					"inputs": [
						{
							"internalType": "address",
							"name": "from",
							"type": "address"
						},
						{
							"internalType": "address",
							"name": "to",
							"type": "address"
						},
						{
							"internalType": "uint256",
							"name": "amount",
							"type": "uint256"
						}
					],
					"name": "transferFrom",
					"outputs": [
						{
							"internalType": "bool",
							"name": "",
							"type": "bool"
						}
					],
					"stateMutability": "nonpayable",
					"type": "function"
				}
			],
			"devdoc": {
				"details": "Implementation of the {IERC20} interface. This implementation is agnostic to the way tokens are created. This means that a supply mechanism has to be added in a derived contract using {_mint}. For a generic mechanism see {ERC20PresetMinterPauser}. TIP: For a detailed writeup see our guide https://forum.zeppelin.solutions/t/how-to-implement-erc20-supply-mechanisms/226[How to implement supply mechanisms]. We have followed general OpenZeppelin Contracts guidelines: functions revert instead returning `false` on failure. This behavior is nonetheless conventional and does not conflict with the expectations of ERC20 applications. Additionally, an {Approval} event is emitted on calls to {transferFrom}. This allows applications to reconstruct the allowance for all accounts just by listening to said events. Other implementations of the EIP may not emit these events, as it isn't required by the specification. Finally, the non-standard {decreaseAllowance} and {increaseAllowance} functions have been added to mitigate the well-known issues around setting allowances. See {IERC20-approve}.",
				"kind": "dev",
				"methods": {
					"allowance(address,address)": {
						"details": "See {IERC20-allowance}."
					},
					"approve(address,uint256)": {
						"details": "See {IERC20-approve}. NOTE: If `amount` is the maximum `uint256`, the allowance is not updated on `transferFrom`. This is semantically equivalent to an infinite approval. Requirements: - `spender` cannot be the zero address."
					},
					"balanceOf(address)": {
						"details": "See {IERC20-balanceOf}."
					},
					"constructor": {
						"details": "Sets the values for {name} and {symbol}. The default value of {decimals} is 18. To select a different value for {decimals} you should overload it. All two of these values are immutable: they can only be set once during construction."
					},
					"decimals()": {
						"details": "Returns the number of decimals used to get its user representation. For example, if `decimals` equals `2`, a balance of `505` tokens should be displayed to a user as `5.05` (`505 / 10 ** 2`). Tokens usually opt for a value of 18, imitating the relationship between Ether and Wei. This is the value {ERC20} uses, unless this function is overridden; NOTE: This information is only used for _display_ purposes: it in no way affects any of the arithmetic of the contract, including {IERC20-balanceOf} and {IERC20-transfer}."
					},
					"decreaseAllowance(address,uint256)": {
						"details": "Atomically decreases the allowance granted to `spender` by the caller. This is an alternative to {approve} that can be used as a mitigation for problems described in {IERC20-approve}. Emits an {Approval} event indicating the updated allowance. Requirements: - `spender` cannot be the zero address. - `spender` must have allowance for the caller of at least `subtractedValue`."
					},
					"increaseAllowance(address,uint256)": {
						"details": "Atomically increases the allowance granted to `spender` by the caller. This is an alternative to {approve} that can be used as a mitigation for problems described in {IERC20-approve}. Emits an {Approval} event indicating the updated allowance. Requirements: - `spender` cannot be the zero address."
					},
					"name()": {
						"details": "Returns the name of the token."
					},
					"symbol()": {
						"details": "Returns the symbol of the token, usually a shorter version of the name."
					},
					"totalSupply()": {
						"details": "See {IERC20-totalSupply}."
					},
					"transfer(address,uint256)": {
						"details": "See {IERC20-transfer}. Requirements: - `to` cannot be the zero address. - the caller must have a balance of at least `amount`."
					},
					"transferFrom(address,address,uint256)": {
						"details": "See {IERC20-transferFrom}. Emits an {Approval} event indicating the updated allowance. This is not required by the EIP. See the note at the beginning of {ERC20}. NOTE: Does not update the allowance if the current allowance is the maximum `uint256`. Requirements: - `from` and `to` cannot be the zero address. - `from` must have a balance of at least `amount`. - the caller must have allowance for ``from``'s tokens of at least `amount`."
					}
				},
				"version": 1
			},
			"evm": {
				"assembly": "    /* \"node_modules/openzeppelin-solidity/contracts/token/ERC20/ERC20.sol\":1403:12898  contract ERC20 is Context, IERC20, IERC20Metadata {... */\n  mstore(0x40, 0x80)\n    /* \"node_modules/openzeppelin-solidity/contracts/token/ERC20/ERC20.sol\":1978:2091  constructor(string memory name_, string memory symbol_) {... */\n  callvalue\n  dup1\n  iszero\n  tag_1\n  jumpi\n  0x00\n  dup1\n  revert\ntag_1:\n  pop\n  mload(0x40)\n  sub(codesize, bytecodeSize)\n  dup1\n  bytecodeSize\n  dup4\n  codecopy\n  dup2\n  dup2\n  add\n  0x40\n  mstore\n  dup2\n  add\n  swap1\n  tag_2\n  swap2\n  swap1\n  tag_3\n  jump\t// in\ntag_2:\n    /* \"node_modules/openzeppelin-solidity/contracts/token/ERC20/ERC20.sol\":2052:2057  name_ */\n  dup2\n    /* \"node_modules/openzeppelin-solidity/contracts/token/ERC20/ERC20.sol\":2044:2049  _name */\n  0x03\n    /* \"node_modules/openzeppelin-solidity/contracts/token/ERC20/ERC20.sol\":2044:2057  _name = name_ */\n  swap1\n  dup2\n  tag_6\n  swap2\n  swap1\n  tag_7\n  jump\t// in\ntag_6:\n  pop\n    /* \"node_modules/openzeppelin-solidity/contracts/token/ERC20/ERC20.sol\":2077:2084  symbol_ */\n  dup1\n    /* \"node_modules/openzeppelin-solidity/contracts/token/ERC20/ERC20.sol\":2067:2074  _symbol */\n  0x04\n    /* \"node_modules/openzeppelin-solidity/contracts/token/ERC20/ERC20.sol\":2067:2084  _symbol = symbol_ */\n  swap1\n  dup2\n  tag_8\n  swap2\n  swap1\n  tag_7\n  jump\t// in\ntag_8:\n  pop\n    /* \"node_modules/openzeppelin-solidity/contracts/token/ERC20/ERC20.sol\":1978:2091  constructor(string memory name_, string memory symbol_) {... */\n  pop\n  pop\n    /* \"node_modules/openzeppelin-solidity/contracts/token/ERC20/ERC20.sol\":1403:12898  contract ERC20 is Context, IERC20, IERC20Metadata {... */\n  jump(tag_9)\n    /* \"#utility.yul\":7:82   */\ntag_10:\n    /* \"#utility.yul\":40:46   */\n  0x00\n    /* \"#utility.yul\":73:75   */\n  0x40\n    /* \"#utility.yul\":67:76   */\n  mload\n    /* \"#utility.yul\":57:76   */\n  swap1\n  pop\n    /* \"#utility.yul\":7:82   */\n  swap1\n  jump\t// out\n    /* \"#utility.yul\":88:205   */\ntag_11:\n    /* \"#utility.yul\":197:198   */\n  0x00\n    /* \"#utility.yul\":194:195   */\n  dup1\n    /* \"#utility.yul\":187:199   */\n  revert\n    /* \"#utility.yul\":211:328   */\ntag_12:\n    /* \"#utility.yul\":320:321   */\n  0x00\n    /* \"#utility.yul\":317:318   */\n  dup1\n    /* \"#utility.yul\":310:322   */\n  revert\n    /* \"#utility.yul\":334:451   */\ntag_13:\n    /* \"#utility.yul\":443:444   */\n  0x00\n    /* \"#utility.yul\":440:441   */\n  dup1\n    /* \"#utility.yul\":433:445   */\n  revert\n    /* \"#utility.yul\":457:574   */\ntag_14:\n    /* \"#utility.yul\":566:567   */\n  0x00\n    /* \"#utility.yul\":563:564   */\n  dup1\n    /* \"#utility.yul\":556:568   */\n  revert\n    /* \"#utility.yul\":580:682   */\ntag_15:\n    /* \"#utility.yul\":621:627   */\n  0x00\n    /* \"#utility.yul\":672:674   */\n  0x1f\n    /* \"#utility.yul\":668:675   */\n  not\n    /* \"#utility.yul\":663:665   */\n  0x1f\n    /* \"#utility.yul\":656:661   */\n  dup4\n    /* \"#utility.yul\":652:666   */\n  add\n    /* \"#utility.yul\":648:676   */\n  and\n    /* \"#utility.yul\":638:676   */\n  swap1\n  pop\n    /* \"#utility.yul\":580:682   */\n  swap2\n  swap1\n  pop\n  jump\t// out\n    /* \"#utility.yul\":688:868   */\ntag_16:\n    /* \"#utility.yul\":736:813   */\n  0x4e487b7100000000000000000000000000000000000000000000000000000000\n    /* \"#utility.yul\":733:734   */\n  0x00\n    /* \"#utility.yul\":726:814   */\n  mstore\n    /* \"#utility.yul\":833:837   */\n  0x41\n    /* \"#utility.yul\":830:831   */\n  0x04\n    /* \"#utility.yul\":823:838   */\n  mstore\n    /* \"#utility.yul\":857:861   */\n  0x24\n    /* \"#utility.yul\":854:855   */\n  0x00\n    /* \"#utility.yul\":847:862   */\n  revert\n    /* \"#utility.yul\":874:1155   */\ntag_17:\n    /* \"#utility.yul\":957:984   */\n  tag_51\n    /* \"#utility.yul\":979:983   */\n  dup3\n    /* \"#utility.yul\":957:984   */\n  tag_15\n  jump\t// in\ntag_51:\n    /* \"#utility.yul\":949:955   */\n  dup2\n    /* \"#utility.yul\":945:985   */\n  add\n    /* \"#utility.yul\":1087:1093   */\n  dup2\n    /* \"#utility.yul\":1075:1085   */\n  dup2\n    /* \"#utility.yul\":1072:1094   */\n  lt\n    /* \"#utility.yul\":1051:1069   */\n  0xffffffffffffffff\n    /* \"#utility.yul\":1039:1049   */\n  dup3\n    /* \"#utility.yul\":1036:1070   */\n  gt\n    /* \"#utility.yul\":1033:1095   */\n  or\n    /* \"#utility.yul\":1030:1118   */\n  iszero\n  tag_52\n  jumpi\n    /* \"#utility.yul\":1098:1116   */\n  tag_53\n  tag_16\n  jump\t// in\ntag_53:\n    /* \"#utility.yul\":1030:1118   */\ntag_52:\n    /* \"#utility.yul\":1138:1148   */\n  dup1\n    /* \"#utility.yul\":1134:1136   */\n  0x40\n    /* \"#utility.yul\":1127:1149   */\n  mstore\n    /* \"#utility.yul\":917:1155   */\n  pop\n    /* \"#utility.yul\":874:1155   */\n  pop\n  pop\n  jump\t// out\n    /* \"#utility.yul\":1161:1290   */\ntag_18:\n    /* \"#utility.yul\":1195:1201   */\n  0x00\n    /* \"#utility.yul\":1222:1242   */\n  tag_55\n  tag_10\n  jump\t// in\ntag_55:\n    /* \"#utility.yul\":1212:1242   */\n  swap1\n  pop\n    /* \"#utility.yul\":1251:1284   */\n  tag_56\n    /* \"#utility.yul\":1279:1283   */\n  dup3\n    /* \"#utility.yul\":1271:1277   */\n  dup3\n    /* \"#utility.yul\":1251:1284   */\n  tag_17\n  jump\t// in\ntag_56:\n    /* \"#utility.yul\":1161:1290   */\n  swap2\n  swap1\n  pop\n  jump\t// out\n    /* \"#utility.yul\":1296:1604   */\ntag_19:\n    /* \"#utility.yul\":1358:1362   */\n  0x00\n    /* \"#utility.yul\":1448:1466   */\n  0xffffffffffffffff\n    /* \"#utility.yul\":1440:1446   */\n  dup3\n    /* \"#utility.yul\":1437:1467   */\n  gt\n    /* \"#utility.yul\":1434:1490   */\n  iszero\n  tag_58\n  jumpi\n    /* \"#utility.yul\":1470:1488   */\n  tag_59\n  tag_16\n  jump\t// in\ntag_59:\n    /* \"#utility.yul\":1434:1490   */\ntag_58:\n    /* \"#utility.yul\":1508:1537   */\n  tag_60\n    /* \"#utility.yul\":1530:1536   */\n  dup3\n    /* \"#utility.yul\":1508:1537   */\n  tag_15\n  jump\t// in\ntag_60:\n    /* \"#utility.yul\":1500:1537   */\n  swap1\n  pop\n    /* \"#utility.yul\":1592:1596   */\n  0x20\n    /* \"#utility.yul\":1586:1590   */\n  dup2\n    /* \"#utility.yul\":1582:1597   */\n  add\n    /* \"#utility.yul\":1574:1597   */\n  swap1\n  pop\n    /* \"#utility.yul\":1296:1604   */\n  swap2\n  swap1\n  pop\n  jump\t// out\n    /* \"#utility.yul\":1610:1856   */\ntag_20:\n    /* \"#utility.yul\":1691:1692   */\n  0x00\n    /* \"#utility.yul\":1701:1814   */\ntag_62:\n    /* \"#utility.yul\":1715:1721   */\n  dup4\n    /* \"#utility.yul\":1712:1713   */\n  dup2\n    /* \"#utility.yul\":1709:1722   */\n  lt\n    /* \"#utility.yul\":1701:1814   */\n  iszero\n  tag_64\n  jumpi\n    /* \"#utility.yul\":1800:1801   */\n  dup1\n    /* \"#utility.yul\":1795:1798   */\n  dup3\n    /* \"#utility.yul\":1791:1802   */\n  add\n    /* \"#utility.yul\":1785:1803   */\n  mload\n    /* \"#utility.yul\":1781:1782   */\n  dup2\n    /* \"#utility.yul\":1776:1779   */\n  dup5\n    /* \"#utility.yul\":1772:1783   */\n  add\n    /* \"#utility.yul\":1765:1804   */\n  mstore\n    /* \"#utility.yul\":1737:1739   */\n  0x20\n    /* \"#utility.yul\":1734:1735   */\n  dup2\n    /* \"#utility.yul\":1730:1740   */\n  add\n    /* \"#utility.yul\":1725:1740   */\n  swap1\n  pop\n    /* \"#utility.yul\":1701:1814   */\n  jump(tag_62)\ntag_64:\n    /* \"#utility.yul\":1848:1849   */\n  0x00\n    /* \"#utility.yul\":1839:1845   */\n  dup5\n    /* \"#utility.yul\":1834:1837   */\n  dup5\n    /* \"#utility.yul\":1830:1846   */\n  add\n    /* \"#utility.yul\":1823:1850   */\n  mstore\n    /* \"#utility.yul\":1672:1856   */\n  pop\n    /* \"#utility.yul\":1610:1856   */\n  pop\n  pop\n  pop\n  jump\t// out\n    /* \"#utility.yul\":1862:2296   */\ntag_21:\n    /* \"#utility.yul\":1951:1956   */\n  0x00\n    /* \"#utility.yul\":1976:2042   */\n  tag_66\n    /* \"#utility.yul\":1992:2041   */\n  tag_67\n    /* \"#utility.yul\":2034:2040   */\n  dup5\n    /* \"#utility.yul\":1992:2041   */\n  tag_19\n  jump\t// in\ntag_67:\n    /* \"#utility.yul\":1976:2042   */\n  tag_18\n  jump\t// in\ntag_66:\n    /* \"#utility.yul\":1967:2042   */\n  swap1\n  pop\n    /* \"#utility.yul\":2065:2071   */\n  dup3\n    /* \"#utility.yul\":2058:2063   */\n  dup2\n    /* \"#utility.yul\":2051:2072   */\n  mstore\n    /* \"#utility.yul\":2103:2107   */\n  0x20\n    /* \"#utility.yul\":2096:2101   */\n  dup2\n    /* \"#utility.yul\":2092:2108   */\n  add\n    /* \"#utility.yul\":2141:2144   */\n  dup5\n    /* \"#utility.yul\":2132:2138   */\n  dup5\n    /* \"#utility.yul\":2127:2130   */\n  dup5\n    /* \"#utility.yul\":2123:2139   */\n  add\n    /* \"#utility.yul\":2120:2145   */\n  gt\n    /* \"#utility.yul\":2117:2229   */\n  iszero\n  tag_68\n  jumpi\n    /* \"#utility.yul\":2148:2227   */\n  tag_69\n  tag_14\n  jump\t// in\ntag_69:\n    /* \"#utility.yul\":2117:2229   */\ntag_68:\n    /* \"#utility.yul\":2238:2290   */\n  tag_70\n    /* \"#utility.yul\":2283:2289   */\n  dup5\n    /* \"#utility.yul\":2278:2281   */\n  dup3\n    /* \"#utility.yul\":2273:2276   */\n  dup6\n    /* \"#utility.yul\":2238:2290   */\n  tag_20\n  jump\t// in\ntag_70:\n    /* \"#utility.yul\":1957:2296   */\n  pop\n    /* \"#utility.yul\":1862:2296   */\n  swap4\n  swap3\n  pop\n  pop\n  pop\n  jump\t// out\n    /* \"#utility.yul\":2316:2671   */\ntag_22:\n    /* \"#utility.yul\":2383:2388   */\n  0x00\n    /* \"#utility.yul\":2432:2435   */\n  dup3\n    /* \"#utility.yul\":2425:2429   */\n  0x1f\n    /* \"#utility.yul\":2417:2423   */\n  dup4\n    /* \"#utility.yul\":2413:2430   */\n  add\n    /* \"#utility.yul\":2409:2436   */\n  slt\n    /* \"#utility.yul\":2399:2521   */\n  tag_72\n  jumpi\n    /* \"#utility.yul\":2440:2519   */\n  tag_73\n  tag_13\n  jump\t// in\ntag_73:\n    /* \"#utility.yul\":2399:2521   */\ntag_72:\n    /* \"#utility.yul\":2550:2556   */\n  dup2\n    /* \"#utility.yul\":2544:2557   */\n  mload\n    /* \"#utility.yul\":2575:2665   */\n  tag_74\n    /* \"#utility.yul\":2661:2664   */\n  dup5\n    /* \"#utility.yul\":2653:2659   */\n  dup3\n    /* \"#utility.yul\":2646:2650   */\n  0x20\n    /* \"#utility.yul\":2638:2644   */\n  dup7\n    /* \"#utility.yul\":2634:2651   */\n  add\n    /* \"#utility.yul\":2575:2665   */\n  tag_21\n  jump\t// in\ntag_74:\n    /* \"#utility.yul\":2566:2665   */\n  swap2\n  pop\n    /* \"#utility.yul\":2389:2671   */\n  pop\n    /* \"#utility.yul\":2316:2671   */\n  swap3\n  swap2\n  pop\n  pop\n  jump\t// out\n    /* \"#utility.yul\":2677:3530   */\ntag_3:\n    /* \"#utility.yul\":2776:2782   */\n  0x00\n    /* \"#utility.yul\":2784:2790   */\n  dup1\n    /* \"#utility.yul\":2833:2835   */\n  0x40\n    /* \"#utility.yul\":2821:2830   */\n  dup4\n    /* \"#utility.yul\":2812:2819   */\n  dup6\n    /* \"#utility.yul\":2808:2831   */\n  sub\n    /* \"#utility.yul\":2804:2836   */\n  slt\n    /* \"#utility.yul\":2801:2920   */\n  iszero\n  tag_76\n  jumpi\n    /* \"#utility.yul\":2839:2918   */\n  tag_77\n  tag_11\n  jump\t// in\ntag_77:\n    /* \"#utility.yul\":2801:2920   */\ntag_76:\n    /* \"#utility.yul\":2980:2981   */\n  0x00\n    /* \"#utility.yul\":2969:2978   */\n  dup4\n    /* \"#utility.yul\":2965:2982   */\n  add\n    /* \"#utility.yul\":2959:2983   */\n  mload\n    /* \"#utility.yul\":3010:3028   */\n  0xffffffffffffffff\n    /* \"#utility.yul\":3002:3008   */\n  dup2\n    /* \"#utility.yul\":2999:3029   */\n  gt\n    /* \"#utility.yul\":2996:3113   */\n  iszero\n  tag_78\n  jumpi\n    /* \"#utility.yul\":3032:3111   */\n  tag_79\n  tag_12\n  jump\t// in\ntag_79:\n    /* \"#utility.yul\":2996:3113   */\ntag_78:\n    /* \"#utility.yul\":3137:3211   */\n  tag_80\n    /* \"#utility.yul\":3203:3210   */\n  dup6\n    /* \"#utility.yul\":3194:3200   */\n  dup3\n    /* \"#utility.yul\":3183:3192   */\n  dup7\n    /* \"#utility.yul\":3179:3201   */\n  add\n    /* \"#utility.yul\":3137:3211   */\n  tag_22\n  jump\t// in\ntag_80:\n    /* \"#utility.yul\":3127:3211   */\n  swap3\n  pop\n    /* \"#utility.yul\":2930:3221   */\n  pop\n    /* \"#utility.yul\":3281:3283   */\n  0x20\n    /* \"#utility.yul\":3270:3279   */\n  dup4\n    /* \"#utility.yul\":3266:3284   */\n  add\n    /* \"#utility.yul\":3260:3285   */\n  mload\n    /* \"#utility.yul\":3312:3330   */\n  0xffffffffffffffff\n    /* \"#utility.yul\":3304:3310   */\n  dup2\n    /* \"#utility.yul\":3301:3331   */\n  gt\n    /* \"#utility.yul\":3298:3415   */\n  iszero\n  tag_81\n  jumpi\n    /* \"#utility.yul\":3334:3413   */\n  tag_82\n  tag_12\n  jump\t// in\ntag_82:\n    /* \"#utility.yul\":3298:3415   */\ntag_81:\n    /* \"#utility.yul\":3439:3513   */\n  tag_83\n    /* \"#utility.yul\":3505:3512   */\n  dup6\n    /* \"#utility.yul\":3496:3502   */\n  dup3\n    /* \"#utility.yul\":3485:3494   */\n  dup7\n    /* \"#utility.yul\":3481:3503   */\n  add\n    /* \"#utility.yul\":3439:3513   */\n  tag_22\n  jump\t// in\ntag_83:\n    /* \"#utility.yul\":3429:3513   */\n  swap2\n  pop\n    /* \"#utility.yul\":3231:3523   */\n  pop\n    /* \"#utility.yul\":2677:3530   */\n  swap3\n  pop\n  swap3\n  swap1\n  pop\n  jump\t// out\n    /* \"#utility.yul\":3536:3635   */\ntag_23:\n    /* \"#utility.yul\":3588:3594   */\n  0x00\n    /* \"#utility.yul\":3622:3627   */\n  dup2\n    /* \"#utility.yul\":3616:3628   */\n  mload\n    /* \"#utility.yul\":3606:3628   */\n  swap1\n  pop\n    /* \"#utility.yul\":3536:3635   */\n  swap2\n  swap1\n  pop\n  jump\t// out\n    /* \"#utility.yul\":3641:3821   */\ntag_24:\n    /* \"#utility.yul\":3689:3766   */\n  0x4e487b7100000000000000000000000000000000000000000000000000000000\n    /* \"#utility.yul\":3686:3687   */\n  0x00\n    /* \"#utility.yul\":3679:3767   */\n  mstore\n    /* \"#utility.yul\":3786:3790   */\n  0x22\n    /* \"#utility.yul\":3783:3784   */\n  0x04\n    /* \"#utility.yul\":3776:3791   */\n  mstore\n    /* \"#utility.yul\":3810:3814   */\n  0x24\n    /* \"#utility.yul\":3807:3808   */\n  0x00\n    /* \"#utility.yul\":3800:3815   */\n  revert\n    /* \"#utility.yul\":3827:4147   */\ntag_25:\n    /* \"#utility.yul\":3871:3877   */\n  0x00\n    /* \"#utility.yul\":3908:3909   */\n  0x02\n    /* \"#utility.yul\":3902:3906   */\n  dup3\n    /* \"#utility.yul\":3898:3910   */\n  div\n    /* \"#utility.yul\":3888:3910   */\n  swap1\n  pop\n    /* \"#utility.yul\":3955:3956   */\n  0x01\n    /* \"#utility.yul\":3949:3953   */\n  dup3\n    /* \"#utility.yul\":3945:3957   */\n  and\n    /* \"#utility.yul\":3976:3994   */\n  dup1\n    /* \"#utility.yul\":3966:4047   */\n  tag_87\n  jumpi\n    /* \"#utility.yul\":4032:4036   */\n  0x7f\n    /* \"#utility.yul\":4024:4030   */\n  dup3\n    /* \"#utility.yul\":4020:4037   */\n  and\n    /* \"#utility.yul\":4010:4037   */\n  swap2\n  pop\n    /* \"#utility.yul\":3966:4047   */\ntag_87:\n    /* \"#utility.yul\":4094:4096   */\n  0x20\n    /* \"#utility.yul\":4086:4092   */\n  dup3\n    /* \"#utility.yul\":4083:4097   */\n  lt\n    /* \"#utility.yul\":4063:4081   */\n  dup2\n    /* \"#utility.yul\":4060:4098   */\n  sub\n    /* \"#utility.yul\":4057:4141   */\n  tag_88\n  jumpi\n    /* \"#utility.yul\":4113:4131   */\n  tag_89\n  tag_24\n  jump\t// in\ntag_89:\n    /* \"#utility.yul\":4057:4141   */\ntag_88:\n    /* \"#utility.yul\":3878:4147   */\n  pop\n    /* \"#utility.yul\":3827:4147   */\n  swap2\n  swap1\n  pop\n  jump\t// out\n    /* \"#utility.yul\":4153:4294   */\ntag_26:\n    /* \"#utility.yul\":4202:4206   */\n  0x00\n    /* \"#utility.yul\":4225:4228   */\n  dup2\n    /* \"#utility.yul\":4217:4228   */\n  swap1\n  pop\n    /* \"#utility.yul\":4248:4251   */\n  dup2\n    /* \"#utility.yul\":4245:4246   */\n  0x00\n    /* \"#utility.yul\":4238:4252   */\n  mstore\n    /* \"#utility.yul\":4282:4286   */\n  0x20\n    /* \"#utility.yul\":4279:4280   */\n  0x00\n    /* \"#utility.yul\":4269:4287   */\n  keccak256\n    /* \"#utility.yul\":4261:4287   */\n  swap1\n  pop\n    /* \"#utility.yul\":4153:4294   */\n  swap2\n  swap1\n  pop\n  jump\t// out\n    /* \"#utility.yul\":4300:4393   */\ntag_27:\n    /* \"#utility.yul\":4337:4343   */\n  0x00\n    /* \"#utility.yul\":4384:4386   */\n  0x20\n    /* \"#utility.yul\":4379:4381   */\n  0x1f\n    /* \"#utility.yul\":4372:4377   */\n  dup4\n    /* \"#utility.yul\":4368:4382   */\n  add\n    /* \"#utility.yul\":4364:4387   */\n  div\n    /* \"#utility.yul\":4354:4387   */\n  swap1\n  pop\n    /* \"#utility.yul\":4300:4393   */\n  swap2\n  swap1\n  pop\n  jump\t// out\n    /* \"#utility.yul\":4399:4506   */\ntag_28:\n    /* \"#utility.yul\":4443:4451   */\n  0x00\n    /* \"#utility.yul\":4493:4498   */\n  dup3\n    /* \"#utility.yul\":4487:4491   */\n  dup3\n    /* \"#utility.yul\":4483:4499   */\n  shl\n    /* \"#utility.yul\":4462:4499   */\n  swap1\n  pop\n    /* \"#utility.yul\":4399:4506   */\n  swap3\n  swap2\n  pop\n  pop\n  jump\t// out\n    /* \"#utility.yul\":4512:4905   */\ntag_29:\n    /* \"#utility.yul\":4581:4587   */\n  0x00\n    /* \"#utility.yul\":4631:4632   */\n  0x08\n    /* \"#utility.yul\":4619:4629   */\n  dup4\n    /* \"#utility.yul\":4615:4633   */\n  mul\n    /* \"#utility.yul\":4654:4751   */\n  tag_94\n    /* \"#utility.yul\":4684:4750   */\n  0xffffffffffffffffffffffffffffffffffffffffffffffffffffffffffffffff\n    /* \"#utility.yul\":4673:4682   */\n  dup3\n    /* \"#utility.yul\":4654:4751   */\n  tag_28\n  jump\t// in\ntag_94:\n    /* \"#utility.yul\":4772:4811   */\n  tag_95\n    /* \"#utility.yul\":4802:4810   */\n  dup7\n    /* \"#utility.yul\":4791:4800   */\n  dup4\n    /* \"#utility.yul\":4772:4811   */\n  tag_28\n  jump\t// in\ntag_95:\n    /* \"#utility.yul\":4760:4811   */\n  swap6\n  pop\n    /* \"#utility.yul\":4844:4848   */\n  dup1\n    /* \"#utility.yul\":4840:4849   */\n  not\n    /* \"#utility.yul\":4833:4838   */\n  dup5\n    /* \"#utility.yul\":4829:4850   */\n  and\n    /* \"#utility.yul\":4820:4850   */\n  swap4\n  pop\n    /* \"#utility.yul\":4893:4897   */\n  dup1\n    /* \"#utility.yul\":4883:4891   */\n  dup7\n    /* \"#utility.yul\":4879:4898   */\n  and\n    /* \"#utility.yul\":4872:4877   */\n  dup5\n    /* \"#utility.yul\":4869:4899   */\n  or\n    /* \"#utility.yul\":4859:4899   */\n  swap3\n  pop\n    /* \"#utility.yul\":4588:4905   */\n  pop\n  pop\n    /* \"#utility.yul\":4512:4905   */\n  swap4\n  swap3\n  pop\n  pop\n  pop\n  jump\t// out\n    /* \"#utility.yul\":4911:4988   */\ntag_30:\n    /* \"#utility.yul\":4948:4955   */\n  0x00\n    /* \"#utility.yul\":4977:4982   */\n  dup2\n    /* \"#utility.yul\":4966:4982   */\n  swap1\n  pop\n    /* \"#utility.yul\":4911:4988   */\n  swap2\n  swap1\n  pop\n  jump\t// out\n    /* \"#utility.yul\":4994:5054   */\ntag_31:\n    /* \"#utility.yul\":5022:5025   */\n  0x00\n    /* \"#utility.yul\":5043:5048   */\n  dup2\n    /* \"#utility.yul\":5036:5048   */\n  swap1\n  pop\n    /* \"#utility.yul\":4994:5054   */\n  swap2\n  swap1\n  pop\n  jump\t// out\n    /* \"#utility.yul\":5060:5202   */\ntag_32:\n    /* \"#utility.yul\":5110:5119   */\n  0x00\n    /* \"#utility.yul\":5143:5196   */\n  tag_99\n    /* \"#utility.yul\":5161:5195   */\n  tag_100\n    /* \"#utility.yul\":5170:5194   */\n  tag_101\n    /* \"#utility.yul\":5188:5193   */\n  dup5\n    /* \"#utility.yul\":5170:5194   */\n  tag_30\n  jump\t// in\ntag_101:\n    /* \"#utility.yul\":5161:5195   */\n  tag_31\n  jump\t// in\ntag_100:\n    /* \"#utility.yul\":5143:5196   */\n  tag_30\n  jump\t// in\ntag_99:\n    /* \"#utility.yul\":5130:5196   */\n  swap1\n  pop\n    /* \"#utility.yul\":5060:5202   */\n  swap2\n  swap1\n  pop\n  jump\t// out\n    /* \"#utility.yul\":5208:5283   */\ntag_33:\n    /* \"#utility.yul\":5251:5254   */\n  0x00\n    /* \"#utility.yul\":5272:5277   */\n  dup2\n    /* \"#utility.yul\":5265:5277   */\n  swap1\n  pop\n    /* \"#utility.yul\":5208:5283   */\n  swap2\n  swap1\n  pop\n  jump\t// out\n    /* \"#utility.yul\":5289:5558   */\ntag_34:\n    /* \"#utility.yul\":5399:5438   */\n  tag_104\n    /* \"#utility.yul\":5430:5437   */\n  dup4\n    /* \"#utility.yul\":5399:5438   */\n  tag_32\n  jump\t// in\ntag_104:\n    /* \"#utility.yul\":5460:5551   */\n  tag_105\n    /* \"#utility.yul\":5509:5550   */\n  tag_106\n    /* \"#utility.yul\":5533:5549   */\n  dup3\n    /* \"#utility.yul\":5509:5550   */\n  tag_33\n  jump\t// in\ntag_106:\n    /* \"#utility.yul\":5501:5507   */\n  dup5\n    /* \"#utility.yul\":5494:5498   */\n  dup5\n    /* \"#utility.yul\":5488:5499   */\n  sload\n    /* \"#utility.yul\":5460:5551   */\n  tag_29\n  jump\t// in\ntag_105:\n    /* \"#utility.yul\":5454:5458   */\n  dup3\n    /* \"#utility.yul\":5447:5552   */\n  sstore\n    /* \"#utility.yul\":5365:5558   */\n  pop\n    /* \"#utility.yul\":5289:5558   */\n  pop\n  pop\n  pop\n  jump\t// out\n    /* \"#utility.yul\":5564:5637   */\ntag_35:\n    /* \"#utility.yul\":5609:5612   */\n  0x00\n    /* \"#utility.yul\":5564:5637   */\n  swap1\n  jump\t// out\n    /* \"#utility.yul\":5643:5832   */\ntag_36:\n    /* \"#utility.yul\":5720:5752   */\n  tag_109\n  tag_35\n  jump\t// in\ntag_109:\n    /* \"#utility.yul\":5761:5826   */\n  tag_110\n    /* \"#utility.yul\":5819:5825   */\n  dup2\n    /* \"#utility.yul\":5811:5817   */\n  dup5\n    /* \"#utility.yul\":5805:5809   */\n  dup5\n    /* \"#utility.yul\":5761:5826   */\n  tag_34\n  jump\t// in\ntag_110:\n    /* \"#utility.yul\":5696:5832   */\n  pop\n    /* \"#utility.yul\":5643:5832   */\n  pop\n  pop\n  jump\t// out\n    /* \"#utility.yul\":5838:6024   */\ntag_37:\n    /* \"#utility.yul\":5898:6018   */\ntag_112:\n    /* \"#utility.yul\":5915:5918   */\n  dup2\n    /* \"#utility.yul\":5908:5913   */\n  dup2\n    /* \"#utility.yul\":5905:5919   */\n  lt\n    /* \"#utility.yul\":5898:6018   */\n  iszero\n  tag_114\n  jumpi\n    /* \"#utility.yul\":5969:6008   */\n  tag_115\n    /* \"#utility.yul\":6006:6007   */\n  0x00\n    /* \"#utility.yul\":5999:6004   */\n  dup3\n    /* \"#utility.yul\":5969:6008   */\n  tag_36\n  jump\t// in\ntag_115:\n    /* \"#utility.yul\":5942:5943   */\n  0x01\n    /* \"#utility.yul\":5935:5940   */\n  dup2\n    /* \"#utility.yul\":5931:5944   */\n  add\n    /* \"#utility.yul\":5922:5944   */\n  swap1\n  pop\n    /* \"#utility.yul\":5898:6018   */\n  jump(tag_112)\ntag_114:\n    /* \"#utility.yul\":5838:6024   */\n  pop\n  pop\n  jump\t// out\n    /* \"#utility.yul\":6030:6573   */\ntag_38:\n    /* \"#utility.yul\":6131:6133   */\n  0x1f\n    /* \"#utility.yul\":6126:6129   */\n  dup3\n    /* \"#utility.yul\":6123:6134   */\n  gt\n    /* \"#utility.yul\":6120:6566   */\n  iszero\n  tag_117\n  jumpi\n    /* \"#utility.yul\":6165:6203   */\n  tag_118\n    /* \"#utility.yul\":6197:6202   */\n  dup2\n    /* \"#utility.yul\":6165:6203   */\n  tag_26\n  jump\t// in\ntag_118:\n    /* \"#utility.yul\":6249:6278   */\n  tag_119\n    /* \"#utility.yul\":6267:6277   */\n  dup5\n    /* \"#utility.yul\":6249:6278   */\n  tag_27\n  jump\t// in\ntag_119:\n    /* \"#utility.yul\":6239:6247   */\n  dup2\n    /* \"#utility.yul\":6235:6279   */\n  add\n    /* \"#utility.yul\":6432:6434   */\n  0x20\n    /* \"#utility.yul\":6420:6430   */\n  dup6\n    /* \"#utility.yul\":6417:6435   */\n  lt\n    /* \"#utility.yul\":6414:6463   */\n  iszero\n  tag_120\n  jumpi\n    /* \"#utility.yul\":6453:6461   */\n  dup2\n    /* \"#utility.yul\":6438:6461   */\n  swap1\n  pop\n    /* \"#utility.yul\":6414:6463   */\ntag_120:\n    /* \"#utility.yul\":6476:6556   */\n  tag_121\n    /* \"#utility.yul\":6532:6554   */\n  tag_122\n    /* \"#utility.yul\":6550:6553   */\n  dup6\n    /* \"#utility.yul\":6532:6554   */\n  tag_27\n  jump\t// in\ntag_122:\n    /* \"#utility.yul\":6522:6530   */\n  dup4\n    /* \"#utility.yul\":6518:6555   */\n  add\n    /* \"#utility.yul\":6505:6516   */\n  dup3\n    /* \"#utility.yul\":6476:6556   */\n  tag_37\n  jump\t// in\ntag_121:\n    /* \"#utility.yul\":6135:6566   */\n  pop\n  pop\n    /* \"#utility.yul\":6120:6566   */\ntag_117:\n    /* \"#utility.yul\":6030:6573   */\n  pop\n  pop\n  pop\n  jump\t// out\n    /* \"#utility.yul\":6579:6696   */\ntag_39:\n    /* \"#utility.yul\":6633:6641   */\n  0x00\n    /* \"#utility.yul\":6683:6688   */\n  dup3\n    /* \"#utility.yul\":6677:6681   */\n  dup3\n    /* \"#utility.yul\":6673:6689   */\n  shr\n    /* \"#utility.yul\":6652:6689   */\n  swap1\n  pop\n    /* \"#utility.yul\":6579:6696   */\n  swap3\n  swap2\n  pop\n  pop\n  jump\t// out\n    /* \"#utility.yul\":6702:6871   */\ntag_40:\n    /* \"#utility.yul\":6746:6752   */\n  0x00\n    /* \"#utility.yul\":6779:6830   */\n  tag_125\n    /* \"#utility.yul\":6827:6828   */\n  0x00\n    /* \"#utility.yul\":6823:6829   */\n  not\n    /* \"#utility.yul\":6815:6820   */\n  dup5\n    /* \"#utility.yul\":6812:6813   */\n  0x08\n    /* \"#utility.yul\":6808:6821   */\n  mul\n    /* \"#utility.yul\":6779:6830   */\n  tag_39\n  jump\t// in\ntag_125:\n    /* \"#utility.yul\":6775:6831   */\n  not\n    /* \"#utility.yul\":6860:6864   */\n  dup1\n    /* \"#utility.yul\":6854:6858   */\n  dup4\n    /* \"#utility.yul\":6850:6865   */\n  and\n    /* \"#utility.yul\":6840:6865   */\n  swap2\n  pop\n    /* \"#utility.yul\":6753:6871   */\n  pop\n    /* \"#utility.yul\":6702:6871   */\n  swap3\n  swap2\n  pop\n  pop\n  jump\t// out\n    /* \"#utility.yul\":6876:7171   */\ntag_41:\n    /* \"#utility.yul\":6952:6956   */\n  0x00\n    /* \"#utility.yul\":7098:7127   */\n  tag_127\n    /* \"#utility.yul\":7123:7126   */\n  dup4\n    /* \"#utility.yul\":7117:7121   */\n  dup4\n    /* \"#utility.yul\":7098:7127   */\n  tag_40\n  jump\t// in\ntag_127:\n    /* \"#utility.yul\":7090:7127   */\n  swap2\n  pop\n    /* \"#utility.yul\":7160:7163   */\n  dup3\n    /* \"#utility.yul\":7157:7158   */\n  0x02\n    /* \"#utility.yul\":7153:7164   */\n  mul\n    /* \"#utility.yul\":7147:7151   */\n  dup3\n    /* \"#utility.yul\":7144:7165   */\n  or\n    /* \"#utility.yul\":7136:7165   */\n  swap1\n  pop\n    /* \"#utility.yul\":6876:7171   */\n  swap3\n  swap2\n  pop\n  pop\n  jump\t// out\n    /* \"#utility.yul\":7176:8571   */\ntag_7:\n    /* \"#utility.yul\":7293:7330   */\n  tag_129\n    /* \"#utility.yul\":7326:7329   */\n  dup3\n    /* \"#utility.yul\":7293:7330   */\n  tag_23\n  jump\t// in\ntag_129:\n    /* \"#utility.yul\":7395:7413   */\n  0xffffffffffffffff\n    /* \"#utility.yul\":7387:7393   */\n  dup2\n    /* \"#utility.yul\":7384:7414   */\n  gt\n    /* \"#utility.yul\":7381:7437   */\n  iszero\n  tag_130\n  jumpi\n    /* \"#utility.yul\":7417:7435   */\n  tag_131\n  tag_16\n  jump\t// in\ntag_131:\n    /* \"#utility.yul\":7381:7437   */\ntag_130:\n    /* \"#utility.yul\":7461:7499   */\n  tag_132\n    /* \"#utility.yul\":7493:7497   */\n  dup3\n    /* \"#utility.yul\":7487:7498   */\n  sload\n    /* \"#utility.yul\":7461:7499   */\n  tag_25\n  jump\t// in\ntag_132:\n    /* \"#utility.yul\":7546:7613   */\n  tag_133\n    /* \"#utility.yul\":7606:7612   */\n  dup3\n    /* \"#utility.yul\":7598:7604   */\n  dup3\n    /* \"#utility.yul\":7592:7596   */\n  dup6\n    /* \"#utility.yul\":7546:7613   */\n  tag_38\n  jump\t// in\ntag_133:\n    /* \"#utility.yul\":7640:7641   */\n  0x00\n    /* \"#utility.yul\":7664:7668   */\n  0x20\n    /* \"#utility.yul\":7651:7668   */\n  swap1\n  pop\n    /* \"#utility.yul\":7696:7698   */\n  0x1f\n    /* \"#utility.yul\":7688:7694   */\n  dup4\n    /* \"#utility.yul\":7685:7699   */\n  gt\n    /* \"#utility.yul\":7713:7714   */\n  0x01\n    /* \"#utility.yul\":7708:8326   */\n  dup2\n  eq\n  tag_135\n  jumpi\n    /* \"#utility.yul\":8370:8371   */\n  0x00\n    /* \"#utility.yul\":8387:8393   */\n  dup5\n    /* \"#utility.yul\":8384:8461   */\n  iszero\n  tag_136\n  jumpi\n    /* \"#utility.yul\":8436:8445   */\n  dup3\n    /* \"#utility.yul\":8431:8434   */\n  dup8\n    /* \"#utility.yul\":8427:8446   */\n  add\n    /* \"#utility.yul\":8421:8447   */\n  mload\n    /* \"#utility.yul\":8412:8447   */\n  swap1\n  pop\n    /* \"#utility.yul\":8384:8461   */\ntag_136:\n    /* \"#utility.yul\":8487:8554   */\n  tag_137\n    /* \"#utility.yul\":8547:8553   */\n  dup6\n    /* \"#utility.yul\":8540:8545   */\n  dup3\n    /* \"#utility.yul\":8487:8554   */\n  tag_41\n  jump\t// in\ntag_137:\n    /* \"#utility.yul\":8481:8485   */\n  dup7\n    /* \"#utility.yul\":8474:8555   */\n  sstore\n    /* \"#utility.yul\":8343:8565   */\n  pop\n    /* \"#utility.yul\":7678:8565   */\n  jump(tag_134)\n    /* \"#utility.yul\":7708:8326   */\ntag_135:\n    /* \"#utility.yul\":7760:7764   */\n  0x1f\n    /* \"#utility.yul\":7756:7765   */\n  not\n    /* \"#utility.yul\":7748:7754   */\n  dup5\n    /* \"#utility.yul\":7744:7766   */\n  and\n    /* \"#utility.yul\":7794:7831   */\n  tag_138\n    /* \"#utility.yul\":7826:7830   */\n  dup7\n    /* \"#utility.yul\":7794:7831   */\n  tag_26\n  jump\t// in\ntag_138:\n    /* \"#utility.yul\":7853:7854   */\n  0x00\n    /* \"#utility.yul\":7867:8075   */\ntag_139:\n    /* \"#utility.yul\":7881:7888   */\n  dup3\n    /* \"#utility.yul\":7878:7879   */\n  dup2\n    /* \"#utility.yul\":7875:7889   */\n  lt\n    /* \"#utility.yul\":7867:8075   */\n  iszero\n  tag_141\n  jumpi\n    /* \"#utility.yul\":7960:7969   */\n  dup5\n    /* \"#utility.yul\":7955:7958   */\n  dup10\n    /* \"#utility.yul\":7951:7970   */\n  add\n    /* \"#utility.yul\":7945:7971   */\n  mload\n    /* \"#utility.yul\":7937:7943   */\n  dup3\n    /* \"#utility.yul\":7930:7972   */\n  sstore\n    /* \"#utility.yul\":8011:8012   */\n  0x01\n    /* \"#utility.yul\":8003:8009   */\n  dup3\n    /* \"#utility.yul\":7999:8013   */\n  add\n    /* \"#utility.yul\":7989:8013   */\n  swap2\n  pop\n    /* \"#utility.yul\":8058:8060   */\n  0x20\n    /* \"#utility.yul\":8047:8056   */\n  dup6\n    /* \"#utility.yul\":8043:8061   */\n  add\n    /* \"#utility.yul\":8030:8061   */\n  swap5\n  pop\n    /* \"#utility.yul\":7904:7908   */\n  0x20\n    /* \"#utility.yul\":7901:7902   */\n  dup2\n    /* \"#utility.yul\":7897:7909   */\n  add\n    /* \"#utility.yul\":7892:7909   */\n  swap1\n  pop\n    /* \"#utility.yul\":7867:8075   */\n  jump(tag_139)\ntag_141:\n    /* \"#utility.yul\":8103:8109   */\n  dup7\n    /* \"#utility.yul\":8094:8101   */\n  dup4\n    /* \"#utility.yul\":8091:8110   */\n  lt\n    /* \"#utility.yul\":8088:8267   */\n  iszero\n  tag_142\n  jumpi\n    /* \"#utility.yul\":8161:8170   */\n  dup5\n    /* \"#utility.yul\":8156:8159   */\n  dup10\n    /* \"#utility.yul\":8152:8171   */\n  add\n    /* \"#utility.yul\":8146:8172   */\n  mload\n    /* \"#utility.yul\":8204:8252   */\n  tag_143\n    /* \"#utility.yul\":8246:8250   */\n  0x1f\n    /* \"#utility.yul\":8238:8244   */\n  dup10\n    /* \"#utility.yul\":8234:8251   */\n  and\n    /* \"#utility.yul\":8223:8232   */\n  dup3\n    /* \"#utility.yul\":8204:8252   */\n  tag_40\n  jump\t// in\ntag_143:\n    /* \"#utility.yul\":8196:8202   */\n  dup4\n    /* \"#utility.yul\":8189:8253   */\n  sstore\n    /* \"#utility.yul\":8111:8267   */\n  pop\n    /* \"#utility.yul\":8088:8267   */\ntag_142:\n    /* \"#utility.yul\":8313:8314   */\n  0x01\n    /* \"#utility.yul\":8309:8310   */\n  0x02\n    /* \"#utility.yul\":8301:8307   */\n  dup9\n    /* \"#utility.yul\":8297:8311   */\n  mul\n    /* \"#utility.yul\":8293:8315   */\n  add\n    /* \"#utility.yul\":8287:8291   */\n  dup9\n    /* \"#utility.yul\":8280:8316   */\n  sstore\n    /* \"#utility.yul\":7715:8326   */\n  pop\n  pop\n  pop\n    /* \"#utility.yul\":7678:8565   */\ntag_134:\n  pop\n    /* \"#utility.yul\":7268:8571   */\n  pop\n  pop\n  pop\n    /* \"#utility.yul\":7176:8571   */\n  pop\n  pop\n  jump\t// out\n    /* \"node_modules/openzeppelin-solidity/contracts/token/ERC20/ERC20.sol\":1403:12898  contract ERC20 is Context, IERC20, IERC20Metadata {... */\ntag_9:\n  dataSize(sub_0)\n  dup1\n  dataOffset(sub_0)\n  0x00\n  codecopy\n  0x00\n  return\nstop\n\nsub_0: assembly {\n        /* \"node_modules/openzeppelin-solidity/contracts/token/ERC20/ERC20.sol\":1403:12898  contract ERC20 is Context, IERC20, IERC20Metadata {... */\n      mstore(0x40, 0x80)\n      callvalue\n      dup1\n      iszero\n      tag_1\n      jumpi\n      0x00\n      dup1\n      revert\n    tag_1:\n      pop\n      jumpi(tag_2, lt(calldatasize, 0x04))\n      shr(0xe0, calldataload(0x00))\n      dup1\n      0x40c10f19\n      gt\n      tag_16\n      jumpi\n      dup1\n      0xa457c2d7\n      gt\n      tag_17\n      jumpi\n      dup1\n      0xa457c2d7\n      eq\n      tag_12\n      jumpi\n      dup1\n      0xa9059cbb\n      eq\n      tag_13\n      jumpi\n      dup1\n      0xdd62ed3e\n      eq\n      tag_14\n      jumpi\n      dup1\n      0xfffc5e89\n      eq\n      tag_15\n      jumpi\n      jump(tag_2)\n    tag_17:\n      dup1\n      0x40c10f19\n      eq\n      tag_9\n      jumpi\n      dup1\n      0x70a08231\n      eq\n      tag_10\n      jumpi\n      dup1\n      0x95d89b41\n      eq\n      tag_11\n      jumpi\n      jump(tag_2)\n    tag_16:\n      dup1\n      0x06fdde03\n      eq\n      tag_3\n      jumpi\n      dup1\n      0x095ea7b3\n      eq\n      tag_4\n      jumpi\n      dup1\n      0x18160ddd\n      eq\n      tag_5\n      jumpi\n      dup1\n      0x23b872dd\n      eq\n      tag_6\n      jumpi\n      dup1\n      0x313ce567\n      eq\n      tag_7\n      jumpi\n      dup1\n      0x39509351\n      eq\n      tag_8\n      jumpi\n    tag_2:\n      0x00\n      dup1\n      revert\n        /* \"node_modules/openzeppelin-solidity/contracts/token/ERC20/ERC20.sol\":2156:2254  function name() public view virtual override returns (string memory) {... */\n    tag_3:\n      tag_18\n      tag_19\n      jump\t// in\n    tag_18:\n      mload(0x40)\n      tag_20\n      swap2\n      swap1\n      tag_21\n      jump\t// in\n    tag_20:\n      mload(0x40)\n      dup1\n      swap2\n      sub\n      swap1\n      return\n        /* \"node_modules/openzeppelin-solidity/contracts/token/ERC20/ERC20.sol\":4596:4793  function approve(address spender, uint256 amount) public virtual override returns (bool) {... */\n    tag_4:\n      tag_22\n      0x04\n      dup1\n      calldatasize\n      sub\n      dup2\n      add\n      swap1\n      tag_23\n      swap2\n      swap1\n      tag_24\n      jump\t// in\n    tag_23:\n      tag_25\n      jump\t// in\n    tag_22:\n      mload(0x40)\n      tag_26\n      swap2\n      swap1\n      tag_27\n      jump\t// in\n    tag_26:\n      mload(0x40)\n      dup1\n      swap2\n      sub\n      swap1\n      return\n        /* \"node_modules/openzeppelin-solidity/contracts/token/ERC20/ERC20.sol\":3244:3350  function totalSupply() public view virtual override returns (uint256) {... */\n    tag_5:\n      tag_28\n      tag_29\n      jump\t// in\n    tag_28:\n      mload(0x40)\n      tag_30\n      swap2\n      swap1\n      tag_31\n      jump\t// in\n    tag_30:\n      mload(0x40)\n      dup1\n      swap2\n      sub\n      swap1\n      return\n        /* \"node_modules/openzeppelin-solidity/contracts/token/ERC20/ERC20.sol\":5355:5641  function transferFrom(... */\n    tag_6:\n      tag_32\n      0x04\n      dup1\n      calldatasize\n      sub\n      dup2\n      add\n      swap1\n      tag_33\n      swap2\n      swap1\n      tag_34\n      jump\t// in\n    tag_33:\n      tag_35\n      jump\t// in\n    tag_32:\n      mload(0x40)\n      tag_36\n      swap2\n      swap1\n      tag_27\n      jump\t// in\n    tag_36:\n      mload(0x40)\n      dup1\n      swap2\n      sub\n      swap1\n      return\n        /* \"node_modules/openzeppelin-solidity/contracts/token/ERC20/ERC20.sol\":3093:3184  function decimals() public view virtual override returns (uint8) {... */\n    tag_7:\n      tag_37\n      tag_38\n      jump\t// in\n    tag_37:\n      mload(0x40)\n      tag_39\n      swap2\n      swap1\n      tag_40\n      jump\t// in\n    tag_39:\n      mload(0x40)\n      dup1\n      swap2\n      sub\n      swap1\n      return\n        /* \"node_modules/openzeppelin-solidity/contracts/token/ERC20/ERC20.sol\":6036:6270  function increaseAllowance(address spender, uint256 addedValue) public virtual returns (bool) {... */\n    tag_8:\n      tag_41\n      0x04\n      dup1\n      calldatasize\n      sub\n      dup2\n      add\n      swap1\n      tag_42\n      swap2\n      swap1\n      tag_24\n      jump\t// in\n    tag_42:\n      tag_43\n      jump\t// in\n    tag_41:\n      mload(0x40)\n      tag_44\n      swap2\n      swap1\n      tag_27\n      jump\t// in\n    tag_44:\n      mload(0x40)\n      dup1\n      swap2\n      sub\n      swap1\n      return\n        /* \"node_modules/openzeppelin-solidity/contracts/token/ERC20/ERC20.sol\":8304:8407  function mint(address account, uint256 amount) public virtual {... */\n    tag_9:\n      tag_45\n      0x04\n      dup1\n      calldatasize\n      sub\n      dup2\n      add\n      swap1\n      tag_46\n      swap2\n      swap1\n      tag_24\n      jump\t// in\n    tag_46:\n      tag_47\n      jump\t// in\n    tag_45:\n      stop\n        /* \"node_modules/openzeppelin-solidity/contracts/token/ERC20/ERC20.sol\":3408:3533  function balanceOf(address account) public view virtual override returns (uint256) {... */\n    tag_10:\n      tag_48\n      0x04\n      dup1\n      calldatasize\n      sub\n      dup2\n      add\n      swap1\n      tag_49\n      swap2\n      swap1\n      tag_50\n      jump\t// in\n    tag_49:\n      tag_51\n      jump\t// in\n    tag_48:\n      mload(0x40)\n      tag_52\n      swap2\n      swap1\n      tag_31\n      jump\t// in\n    tag_52:\n      mload(0x40)\n      dup1\n      swap2\n      sub\n      swap1\n      return\n        /* \"node_modules/openzeppelin-solidity/contracts/token/ERC20/ERC20.sol\":2367:2469  function symbol() public view virtual override returns (string memory) {... */\n    tag_11:\n      tag_53\n      tag_54\n      jump\t// in\n    tag_53:\n      mload(0x40)\n      tag_55\n      swap2\n      swap1\n      tag_21\n      jump\t// in\n    tag_55:\n      mload(0x40)\n      dup1\n      swap2\n      sub\n      swap1\n      return\n        /* \"node_modules/openzeppelin-solidity/contracts/token/ERC20/ERC20.sol\":6757:7184  function decreaseAllowance(address spender, uint256 subtractedValue) public virtual returns (bool) {... */\n    tag_12:\n      tag_56\n      0x04\n      dup1\n      calldatasize\n      sub\n      dup2\n      add\n      swap1\n      tag_57\n      swap2\n      swap1\n      tag_24\n      jump\t// in\n    tag_57:\n      tag_58\n      jump\t// in\n    tag_56:\n      mload(0x40)\n      tag_59\n      swap2\n      swap1\n      tag_27\n      jump\t// in\n    tag_59:\n      mload(0x40)\n      dup1\n      swap2\n      sub\n      swap1\n      return\n        /* \"node_modules/openzeppelin-solidity/contracts/token/ERC20/ERC20.sol\":3729:3918  function transfer(address to, uint256 amount) public virtual override returns (bool) {... */\n    tag_13:\n      tag_60\n      0x04\n      dup1\n      calldatasize\n      sub\n      dup2\n      add\n      swap1\n      tag_61\n      swap2\n      swap1\n      tag_24\n      jump\t// in\n    tag_61:\n      tag_62\n      jump\t// in\n    tag_60:\n      mload(0x40)\n      tag_63\n      swap2\n      swap1\n      tag_27\n      jump\t// in\n    tag_63:\n      mload(0x40)\n      dup1\n      swap2\n      sub\n      swap1\n      return\n        /* \"node_modules/openzeppelin-solidity/contracts/token/ERC20/ERC20.sol\":4139:4288  function allowance(address owner, address spender) public view virtual override returns (uint256) {... */\n    tag_14:\n      tag_64\n      0x04\n      dup1\n      calldatasize\n      sub\n      dup2\n      add\n      swap1\n      tag_65\n      swap2\n      swap1\n      tag_66\n      jump\t// in\n    tag_65:\n      tag_67\n      jump\t// in\n    tag_64:\n      mload(0x40)\n      tag_68\n      swap2\n      swap1\n      tag_31\n      jump\t// in\n    tag_68:\n      mload(0x40)\n      dup1\n      swap2\n      sub\n      swap1\n      return\n        /* \"node_modules/openzeppelin-solidity/contracts/token/ERC20/ERC20.sol\":3924:4081  function tokentransfer(address owner, address to, uint256 amount) public virtual {... */\n    tag_15:\n      tag_69\n      0x04\n      dup1\n      calldatasize\n      sub\n      dup2\n      add\n      swap1\n      tag_70\n      swap2\n      swap1\n      tag_34\n      jump\t// in\n    tag_70:\n      tag_71\n      jump\t// in\n    tag_69:\n      stop\n        /* \"node_modules/openzeppelin-solidity/contracts/token/ERC20/ERC20.sol\":2156:2254  function name() public view virtual override returns (string memory) {... */\n    tag_19:\n        /* \"node_modules/openzeppelin-solidity/contracts/token/ERC20/ERC20.sol\":2210:2223  string memory */\n      0x60\n        /* \"node_modules/openzeppelin-solidity/contracts/token/ERC20/ERC20.sol\":2242:2247  _name */\n      0x03\n        /* \"node_modules/openzeppelin-solidity/contracts/token/ERC20/ERC20.sol\":2235:2247  return _name */\n      dup1\n      sload\n      tag_73\n      swap1\n      tag_74\n      jump\t// in\n    tag_73:\n      dup1\n      0x1f\n      add\n      0x20\n      dup1\n      swap2\n      div\n      mul\n      0x20\n      add\n      mload(0x40)\n      swap1\n      dup2\n      add\n      0x40\n      mstore\n      dup1\n      swap3\n      swap2\n      swap1\n      dup2\n      dup2\n      mstore\n      0x20\n      add\n      dup3\n      dup1\n      sload\n      tag_75\n      swap1\n      tag_74\n      jump\t// in\n    tag_75:\n      dup1\n      iszero\n      tag_76\n      jumpi\n      dup1\n      0x1f\n      lt\n      tag_77\n      jumpi\n      0x0100\n      dup1\n      dup4\n      sload\n      div\n      mul\n      dup4\n      mstore\n      swap2\n      0x20\n      add\n      swap2\n      jump(tag_76)\n    tag_77:\n      dup3\n      add\n      swap2\n      swap1\n      0x00\n      mstore\n      keccak256(0x00, 0x20)\n      swap1\n    tag_78:\n      dup2\n      sload\n      dup2\n      mstore\n      swap1\n      0x01\n      add\n      swap1\n      0x20\n      add\n      dup1\n      dup4\n      gt\n      tag_78\n      jumpi\n      dup3\n      swap1\n      sub\n      0x1f\n      and\n      dup3\n      add\n      swap2\n    tag_76:\n      pop\n      pop\n      pop\n      pop\n      pop\n      swap1\n      pop\n        /* \"node_modules/openzeppelin-solidity/contracts/token/ERC20/ERC20.sol\":2156:2254  function name() public view virtual override returns (string memory) {... */\n      swap1\n      jump\t// out\n        /* \"node_modules/openzeppelin-solidity/contracts/token/ERC20/ERC20.sol\":4596:4793  function approve(address spender, uint256 amount) public virtual override returns (bool) {... */\n    tag_25:\n        /* \"node_modules/openzeppelin-solidity/contracts/token/ERC20/ERC20.sol\":4679:4683  bool */\n      0x00\n        /* \"node_modules/openzeppelin-solidity/contracts/token/ERC20/ERC20.sol\":4695:4708  address owner */\n      dup1\n        /* \"node_modules/openzeppelin-solidity/contracts/token/ERC20/ERC20.sol\":4711:4723  _msgSender() */\n      tag_80\n        /* \"node_modules/openzeppelin-solidity/contracts/token/ERC20/ERC20.sol\":4711:4721  _msgSender */\n      tag_81\n        /* \"node_modules/openzeppelin-solidity/contracts/token/ERC20/ERC20.sol\":4711:4723  _msgSender() */\n      jump\t// in\n    tag_80:\n        /* \"node_modules/openzeppelin-solidity/contracts/token/ERC20/ERC20.sol\":4695:4723  address owner = _msgSender() */\n      swap1\n      pop\n        /* \"node_modules/openzeppelin-solidity/contracts/token/ERC20/ERC20.sol\":4733:4765  _approve(owner, spender, amount) */\n      tag_82\n        /* \"node_modules/openzeppelin-solidity/contracts/token/ERC20/ERC20.sol\":4742:4747  owner */\n      dup2\n        /* \"node_modules/openzeppelin-solidity/contracts/token/ERC20/ERC20.sol\":4749:4756  spender */\n      dup6\n        /* \"node_modules/openzeppelin-solidity/contracts/token/ERC20/ERC20.sol\":4758:4764  amount */\n      dup6\n        /* \"node_modules/openzeppelin-solidity/contracts/token/ERC20/ERC20.sol\":4733:4741  _approve */\n      tag_83\n        /* \"node_modules/openzeppelin-solidity/contracts/token/ERC20/ERC20.sol\":4733:4765  _approve(owner, spender, amount) */\n      jump\t// in\n    tag_82:\n        /* \"node_modules/openzeppelin-solidity/contracts/token/ERC20/ERC20.sol\":4782:4786  true */\n      0x01\n        /* \"node_modules/openzeppelin-solidity/contracts/token/ERC20/ERC20.sol\":4775:4786  return true */\n      swap2\n      pop\n      pop\n        /* \"node_modules/openzeppelin-solidity/contracts/token/ERC20/ERC20.sol\":4596:4793  function approve(address spender, uint256 amount) public virtual override returns (bool) {... */\n      swap3\n      swap2\n      pop\n      pop\n      jump\t// out\n        /* \"node_modules/openzeppelin-solidity/contracts/token/ERC20/ERC20.sol\":3244:3350  function totalSupply() public view virtual override returns (uint256) {... */\n    tag_29:\n        /* \"node_modules/openzeppelin-solidity/contracts/token/ERC20/ERC20.sol\":3305:3312  uint256 */\n      0x00\n        /* \"node_modules/openzeppelin-solidity/contracts/token/ERC20/ERC20.sol\":3331:3343  _totalSupply */\n      sload(0x02)\n        /* \"node_modules/openzeppelin-solidity/contracts/token/ERC20/ERC20.sol\":3324:3343  return _totalSupply */\n      swap1\n      pop\n        /* \"node_modules/openzeppelin-solidity/contracts/token/ERC20/ERC20.sol\":3244:3350  function totalSupply() public view virtual override returns (uint256) {... */\n      swap1\n      jump\t// out\n        /* \"node_modules/openzeppelin-solidity/contracts/token/ERC20/ERC20.sol\":5355:5641  function transferFrom(... */\n    tag_35:\n        /* \"node_modules/openzeppelin-solidity/contracts/token/ERC20/ERC20.sol\":5482:5486  bool */\n      0x00\n        /* \"node_modules/openzeppelin-solidity/contracts/token/ERC20/ERC20.sol\":5498:5513  address spender */\n      dup1\n        /* \"node_modules/openzeppelin-solidity/contracts/token/ERC20/ERC20.sol\":5516:5528  _msgSender() */\n      tag_86\n        /* \"node_modules/openzeppelin-solidity/contracts/token/ERC20/ERC20.sol\":5516:5526  _msgSender */\n      tag_81\n        /* \"node_modules/openzeppelin-solidity/contracts/token/ERC20/ERC20.sol\":5516:5528  _msgSender() */\n      jump\t// in\n    tag_86:\n        /* \"node_modules/openzeppelin-solidity/contracts/token/ERC20/ERC20.sol\":5498:5528  address spender = _msgSender() */\n      swap1\n      pop\n        /* \"node_modules/openzeppelin-solidity/contracts/token/ERC20/ERC20.sol\":5538:5576  _spendAllowance(from, spender, amount) */\n      tag_87\n        /* \"node_modules/openzeppelin-solidity/contracts/token/ERC20/ERC20.sol\":5554:5558  from */\n      dup6\n        /* \"node_modules/openzeppelin-solidity/contracts/token/ERC20/ERC20.sol\":5560:5567  spender */\n      dup3\n        /* \"node_modules/openzeppelin-solidity/contracts/token/ERC20/ERC20.sol\":5569:5575  amount */\n      dup6\n        /* \"node_modules/openzeppelin-solidity/contracts/token/ERC20/ERC20.sol\":5538:5553  _spendAllowance */\n      tag_88\n        /* \"node_modules/openzeppelin-solidity/contracts/token/ERC20/ERC20.sol\":5538:5576  _spendAllowance(from, spender, amount) */\n      jump\t// in\n    tag_87:\n        /* \"node_modules/openzeppelin-solidity/contracts/token/ERC20/ERC20.sol\":5586:5613  _transfer(from, to, amount) */\n      tag_89\n        /* \"node_modules/openzeppelin-solidity/contracts/token/ERC20/ERC20.sol\":5596:5600  from */\n      dup6\n        /* \"node_modules/openzeppelin-solidity/contracts/token/ERC20/ERC20.sol\":5602:5604  to */\n      dup6\n        /* \"node_modules/openzeppelin-solidity/contracts/token/ERC20/ERC20.sol\":5606:5612  amount */\n      dup6\n        /* \"node_modules/openzeppelin-solidity/contracts/token/ERC20/ERC20.sol\":5586:5595  _transfer */\n      tag_90\n        /* \"node_modules/openzeppelin-solidity/contracts/token/ERC20/ERC20.sol\":5586:5613  _transfer(from, to, amount) */\n      jump\t// in\n    tag_89:\n        /* \"node_modules/openzeppelin-solidity/contracts/token/ERC20/ERC20.sol\":5630:5634  true */\n      0x01\n        /* \"node_modules/openzeppelin-solidity/contracts/token/ERC20/ERC20.sol\":5623:5634  return true */\n      swap2\n      pop\n      pop\n        /* \"node_modules/openzeppelin-solidity/contracts/token/ERC20/ERC20.sol\":5355:5641  function transferFrom(... */\n      swap4\n      swap3\n      pop\n      pop\n      pop\n      jump\t// out\n        /* \"node_modules/openzeppelin-solidity/contracts/token/ERC20/ERC20.sol\":3093:3184  function decimals() public view virtual override returns (uint8) {... */\n    tag_38:\n        /* \"node_modules/openzeppelin-solidity/contracts/token/ERC20/ERC20.sol\":3151:3156  uint8 */\n      0x00\n        /* \"node_modules/openzeppelin-solidity/contracts/token/ERC20/ERC20.sol\":3175:3177  18 */\n      0x12\n        /* \"node_modules/openzeppelin-solidity/contracts/token/ERC20/ERC20.sol\":3168:3177  return 18 */\n      swap1\n      pop\n        /* \"node_modules/openzeppelin-solidity/contracts/token/ERC20/ERC20.sol\":3093:3184  function decimals() public view virtual override returns (uint8) {... */\n      swap1\n      jump\t// out\n        /* \"node_modules/openzeppelin-solidity/contracts/token/ERC20/ERC20.sol\":6036:6270  function increaseAllowance(address spender, uint256 addedValue) public virtual returns (bool) {... */\n    tag_43:\n        /* \"node_modules/openzeppelin-solidity/contracts/token/ERC20/ERC20.sol\":6124:6128  bool */\n      0x00\n        /* \"node_modules/openzeppelin-solidity/contracts/token/ERC20/ERC20.sol\":6140:6153  address owner */\n      dup1\n        /* \"node_modules/openzeppelin-solidity/contracts/token/ERC20/ERC20.sol\":6156:6168  _msgSender() */\n      tag_93\n        /* \"node_modules/openzeppelin-solidity/contracts/token/ERC20/ERC20.sol\":6156:6166  _msgSender */\n      tag_81\n        /* \"node_modules/openzeppelin-solidity/contracts/token/ERC20/ERC20.sol\":6156:6168  _msgSender() */\n      jump\t// in\n    tag_93:\n        /* \"node_modules/openzeppelin-solidity/contracts/token/ERC20/ERC20.sol\":6140:6168  address owner = _msgSender() */\n      swap1\n      pop\n        /* \"node_modules/openzeppelin-solidity/contracts/token/ERC20/ERC20.sol\":6178:6242  _approve(owner, spender, allowance(owner, spender) + addedValue) */\n      tag_94\n        /* \"node_modules/openzeppelin-solidity/contracts/token/ERC20/ERC20.sol\":6187:6192  owner */\n      dup2\n        /* \"node_modules/openzeppelin-solidity/contracts/token/ERC20/ERC20.sol\":6194:6201  spender */\n      dup6\n        /* \"node_modules/openzeppelin-solidity/contracts/token/ERC20/ERC20.sol\":6231:6241  addedValue */\n      dup6\n        /* \"node_modules/openzeppelin-solidity/contracts/token/ERC20/ERC20.sol\":6203:6228  allowance(owner, spender) */\n      tag_95\n        /* \"node_modules/openzeppelin-solidity/contracts/token/ERC20/ERC20.sol\":6213:6218  owner */\n      dup6\n        /* \"node_modules/openzeppelin-solidity/contracts/token/ERC20/ERC20.sol\":6220:6227  spender */\n      dup10\n        /* \"node_modules/openzeppelin-solidity/contracts/token/ERC20/ERC20.sol\":6203:6212  allowance */\n      tag_67\n        /* \"node_modules/openzeppelin-solidity/contracts/token/ERC20/ERC20.sol\":6203:6228  allowance(owner, spender) */\n      jump\t// in\n    tag_95:\n        /* \"node_modules/openzeppelin-solidity/contracts/token/ERC20/ERC20.sol\":6203:6241  allowance(owner, spender) + addedValue */\n      tag_96\n      swap2\n      swap1\n      tag_97\n      jump\t// in\n    tag_96:\n        /* \"node_modules/openzeppelin-solidity/contracts/token/ERC20/ERC20.sol\":6178:6186  _approve */\n      tag_83\n        /* \"node_modules/openzeppelin-solidity/contracts/token/ERC20/ERC20.sol\":6178:6242  _approve(owner, spender, allowance(owner, spender) + addedValue) */\n      jump\t// in\n    tag_94:\n        /* \"node_modules/openzeppelin-solidity/contracts/token/ERC20/ERC20.sol\":6259:6263  true */\n      0x01\n        /* \"node_modules/openzeppelin-solidity/contracts/token/ERC20/ERC20.sol\":6252:6263  return true */\n      swap2\n      pop\n      pop\n        /* \"node_modules/openzeppelin-solidity/contracts/token/ERC20/ERC20.sol\":6036:6270  function increaseAllowance(address spender, uint256 addedValue) public virtual returns (bool) {... */\n      swap3\n      swap2\n      pop\n      pop\n      jump\t// out\n        /* \"node_modules/openzeppelin-solidity/contracts/token/ERC20/ERC20.sol\":8304:8407  function mint(address account, uint256 amount) public virtual {... */\n    tag_47:\n        /* \"node_modules/openzeppelin-solidity/contracts/token/ERC20/ERC20.sol\":8376:8400  _mint( account,  amount) */\n      tag_99\n        /* \"node_modules/openzeppelin-solidity/contracts/token/ERC20/ERC20.sol\":8383:8390  account */\n      dup3\n        /* \"node_modules/openzeppelin-solidity/contracts/token/ERC20/ERC20.sol\":8393:8399  amount */\n      dup3\n        /* \"node_modules/openzeppelin-solidity/contracts/token/ERC20/ERC20.sol\":8376:8381  _mint */\n      tag_100\n        /* \"node_modules/openzeppelin-solidity/contracts/token/ERC20/ERC20.sol\":8376:8400  _mint( account,  amount) */\n      jump\t// in\n    tag_99:\n        /* \"node_modules/openzeppelin-solidity/contracts/token/ERC20/ERC20.sol\":8304:8407  function mint(address account, uint256 amount) public virtual {... */\n      pop\n      pop\n      jump\t// out\n        /* \"node_modules/openzeppelin-solidity/contracts/token/ERC20/ERC20.sol\":3408:3533  function balanceOf(address account) public view virtual override returns (uint256) {... */\n    tag_51:\n        /* \"node_modules/openzeppelin-solidity/contracts/token/ERC20/ERC20.sol\":3482:3489  uint256 */\n      0x00\n        /* \"node_modules/openzeppelin-solidity/contracts/token/ERC20/ERC20.sol\":3508:3517  _balances */\n      dup1\n        /* \"node_modules/openzeppelin-solidity/contracts/token/ERC20/ERC20.sol\":3508:3526  _balances[account] */\n      0x00\n        /* \"node_modules/openzeppelin-solidity/contracts/token/ERC20/ERC20.sol\":3518:3525  account */\n      dup4\n        /* \"node_modules/openzeppelin-solidity/contracts/token/ERC20/ERC20.sol\":3508:3526  _balances[account] */\n      0xffffffffffffffffffffffffffffffffffffffff\n      and\n      0xffffffffffffffffffffffffffffffffffffffff\n      and\n      dup2\n      mstore\n      0x20\n      add\n      swap1\n      dup2\n      mstore\n      0x20\n      add\n      0x00\n      keccak256\n      sload\n        /* \"node_modules/openzeppelin-solidity/contracts/token/ERC20/ERC20.sol\":3501:3526  return _balances[account] */\n      swap1\n      pop\n        /* \"node_modules/openzeppelin-solidity/contracts/token/ERC20/ERC20.sol\":3408:3533  function balanceOf(address account) public view virtual override returns (uint256) {... */\n      swap2\n      swap1\n      pop\n      jump\t// out\n        /* \"node_modules/openzeppelin-solidity/contracts/token/ERC20/ERC20.sol\":2367:2469  function symbol() public view virtual override returns (string memory) {... */\n    tag_54:\n        /* \"node_modules/openzeppelin-solidity/contracts/token/ERC20/ERC20.sol\":2423:2436  string memory */\n      0x60\n        /* \"node_modules/openzeppelin-solidity/contracts/token/ERC20/ERC20.sol\":2455:2462  _symbol */\n      0x04\n        /* \"node_modules/openzeppelin-solidity/contracts/token/ERC20/ERC20.sol\":2448:2462  return _symbol */\n      dup1\n      sload\n      tag_103\n      swap1\n      tag_74\n      jump\t// in\n    tag_103:\n      dup1\n      0x1f\n      add\n      0x20\n      dup1\n      swap2\n      div\n      mul\n      0x20\n      add\n      mload(0x40)\n      swap1\n      dup2\n      add\n      0x40\n      mstore\n      dup1\n      swap3\n      swap2\n      swap1\n      dup2\n      dup2\n      mstore\n      0x20\n      add\n      dup3\n      dup1\n      sload\n      tag_104\n      swap1\n      tag_74\n      jump\t// in\n    tag_104:\n      dup1\n      iszero\n      tag_105\n      jumpi\n      dup1\n      0x1f\n      lt\n      tag_106\n      jumpi\n      0x0100\n      dup1\n      dup4\n      sload\n      div\n      mul\n      dup4\n      mstore\n      swap2\n      0x20\n      add\n      swap2\n      jump(tag_105)\n    tag_106:\n      dup3\n      add\n      swap2\n      swap1\n      0x00\n      mstore\n      keccak256(0x00, 0x20)\n      swap1\n    tag_107:\n      dup2\n      sload\n      dup2\n      mstore\n      swap1\n      0x01\n      add\n      swap1\n      0x20\n      add\n      dup1\n      dup4\n      gt\n      tag_107\n      jumpi\n      dup3\n      swap1\n      sub\n      0x1f\n      and\n      dup3\n      add\n      swap2\n    tag_105:\n      pop\n      pop\n      pop\n      pop\n      pop\n      swap1\n      pop\n        /* \"node_modules/openzeppelin-solidity/contracts/token/ERC20/ERC20.sol\":2367:2469  function symbol() public view virtual override returns (string memory) {... */\n      swap1\n      jump\t// out\n        /* \"node_modules/openzeppelin-solidity/contracts/token/ERC20/ERC20.sol\":6757:7184  function decreaseAllowance(address spender, uint256 subtractedValue) public virtual returns (bool) {... */\n    tag_58:\n        /* \"node_modules/openzeppelin-solidity/contracts/token/ERC20/ERC20.sol\":6850:6854  bool */\n      0x00\n        /* \"node_modules/openzeppelin-solidity/contracts/token/ERC20/ERC20.sol\":6866:6879  address owner */\n      dup1\n        /* \"node_modules/openzeppelin-solidity/contracts/token/ERC20/ERC20.sol\":6882:6894  _msgSender() */\n      tag_109\n        /* \"node_modules/openzeppelin-solidity/contracts/token/ERC20/ERC20.sol\":6882:6892  _msgSender */\n      tag_81\n        /* \"node_modules/openzeppelin-solidity/contracts/token/ERC20/ERC20.sol\":6882:6894  _msgSender() */\n      jump\t// in\n    tag_109:\n        /* \"node_modules/openzeppelin-solidity/contracts/token/ERC20/ERC20.sol\":6866:6894  address owner = _msgSender() */\n      swap1\n      pop\n        /* \"node_modules/openzeppelin-solidity/contracts/token/ERC20/ERC20.sol\":6904:6928  uint256 currentAllowance */\n      0x00\n        /* \"node_modules/openzeppelin-solidity/contracts/token/ERC20/ERC20.sol\":6931:6956  allowance(owner, spender) */\n      tag_110\n        /* \"node_modules/openzeppelin-solidity/contracts/token/ERC20/ERC20.sol\":6941:6946  owner */\n      dup3\n        /* \"node_modules/openzeppelin-solidity/contracts/token/ERC20/ERC20.sol\":6948:6955  spender */\n      dup7\n        /* \"node_modules/openzeppelin-solidity/contracts/token/ERC20/ERC20.sol\":6931:6940  allowance */\n      tag_67\n        /* \"node_modules/openzeppelin-solidity/contracts/token/ERC20/ERC20.sol\":6931:6956  allowance(owner, spender) */\n      jump\t// in\n    tag_110:\n        /* \"node_modules/openzeppelin-solidity/contracts/token/ERC20/ERC20.sol\":6904:6956  uint256 currentAllowance = allowance(owner, spender) */\n      swap1\n      pop\n        /* \"node_modules/openzeppelin-solidity/contracts/token/ERC20/ERC20.sol\":6994:7009  subtractedValue */\n      dup4\n        /* \"node_modules/openzeppelin-solidity/contracts/token/ERC20/ERC20.sol\":6974:6990  currentAllowance */\n      dup2\n        /* \"node_modules/openzeppelin-solidity/contracts/token/ERC20/ERC20.sol\":6974:7009  currentAllowance >= subtractedValue */\n      lt\n      iszero\n        /* \"node_modules/openzeppelin-solidity/contracts/token/ERC20/ERC20.sol\":6966:7051  require(currentAllowance >= subtractedValue, \"ERC20: decreased allowance below zero\") */\n      tag_111\n      jumpi\n      mload(0x40)\n      0x08c379a000000000000000000000000000000000000000000000000000000000\n      dup2\n      mstore\n      0x04\n      add\n      tag_112\n      swap1\n      tag_113\n      jump\t// in\n    tag_112:\n      mload(0x40)\n      dup1\n      swap2\n      sub\n      swap1\n      revert\n    tag_111:\n        /* \"node_modules/openzeppelin-solidity/contracts/token/ERC20/ERC20.sol\":7085:7145  _approve(owner, spender, currentAllowance - subtractedValue) */\n      tag_114\n        /* \"node_modules/openzeppelin-solidity/contracts/token/ERC20/ERC20.sol\":7094:7099  owner */\n      dup3\n        /* \"node_modules/openzeppelin-solidity/contracts/token/ERC20/ERC20.sol\":7101:7108  spender */\n      dup7\n        /* \"node_modules/openzeppelin-solidity/contracts/token/ERC20/ERC20.sol\":7129:7144  subtractedValue */\n      dup7\n        /* \"node_modules/openzeppelin-solidity/contracts/token/ERC20/ERC20.sol\":7110:7126  currentAllowance */\n      dup5\n        /* \"node_modules/openzeppelin-solidity/contracts/token/ERC20/ERC20.sol\":7110:7144  currentAllowance - subtractedValue */\n      sub\n        /* \"node_modules/openzeppelin-solidity/contracts/token/ERC20/ERC20.sol\":7085:7093  _approve */\n      tag_83\n        /* \"node_modules/openzeppelin-solidity/contracts/token/ERC20/ERC20.sol\":7085:7145  _approve(owner, spender, currentAllowance - subtractedValue) */\n      jump\t// in\n    tag_114:\n        /* \"node_modules/openzeppelin-solidity/contracts/token/ERC20/ERC20.sol\":7173:7177  true */\n      0x01\n        /* \"node_modules/openzeppelin-solidity/contracts/token/ERC20/ERC20.sol\":7166:7177  return true */\n      swap3\n      pop\n      pop\n      pop\n        /* \"node_modules/openzeppelin-solidity/contracts/token/ERC20/ERC20.sol\":6757:7184  function decreaseAllowance(address spender, uint256 subtractedValue) public virtual returns (bool) {... */\n      swap3\n      swap2\n      pop\n      pop\n      jump\t// out\n        /* \"node_modules/openzeppelin-solidity/contracts/token/ERC20/ERC20.sol\":3729:3918  function transfer(address to, uint256 amount) public virtual override returns (bool) {... */\n    tag_62:\n        /* \"node_modules/openzeppelin-solidity/contracts/token/ERC20/ERC20.sol\":3808:3812  bool */\n      0x00\n        /* \"node_modules/openzeppelin-solidity/contracts/token/ERC20/ERC20.sol\":3824:3837  address owner */\n      dup1\n        /* \"node_modules/openzeppelin-solidity/contracts/token/ERC20/ERC20.sol\":3840:3852  _msgSender() */\n      tag_116\n        /* \"node_modules/openzeppelin-solidity/contracts/token/ERC20/ERC20.sol\":3840:3850  _msgSender */\n      tag_81\n        /* \"node_modules/openzeppelin-solidity/contracts/token/ERC20/ERC20.sol\":3840:3852  _msgSender() */\n      jump\t// in\n    tag_116:\n        /* \"node_modules/openzeppelin-solidity/contracts/token/ERC20/ERC20.sol\":3824:3852  address owner = _msgSender() */\n      swap1\n      pop\n        /* \"node_modules/openzeppelin-solidity/contracts/token/ERC20/ERC20.sol\":3862:3890  _transfer(owner, to, amount) */\n      tag_117\n        /* \"node_modules/openzeppelin-solidity/contracts/token/ERC20/ERC20.sol\":3872:3877  owner */\n      dup2\n        /* \"node_modules/openzeppelin-solidity/contracts/token/ERC20/ERC20.sol\":3879:3881  to */\n      dup6\n        /* \"node_modules/openzeppelin-solidity/contracts/token/ERC20/ERC20.sol\":3883:3889  amount */\n      dup6\n        /* \"node_modules/openzeppelin-solidity/contracts/token/ERC20/ERC20.sol\":3862:3871  _transfer */\n      tag_90\n        /* \"node_modules/openzeppelin-solidity/contracts/token/ERC20/ERC20.sol\":3862:3890  _transfer(owner, to, amount) */\n      jump\t// in\n    tag_117:\n        /* \"node_modules/openzeppelin-solidity/contracts/token/ERC20/ERC20.sol\":3907:3911  true */\n      0x01\n        /* \"node_modules/openzeppelin-solidity/contracts/token/ERC20/ERC20.sol\":3900:3911  return true */\n      swap2\n      pop\n      pop\n        /* \"node_modules/openzeppelin-solidity/contracts/token/ERC20/ERC20.sol\":3729:3918  function transfer(address to, uint256 amount) public virtual override returns (bool) {... */\n      swap3\n      swap2\n      pop\n      pop\n      jump\t// out\n        /* \"node_modules/openzeppelin-solidity/contracts/token/ERC20/ERC20.sol\":4139:4288  function allowance(address owner, address spender) public view virtual override returns (uint256) {... */\n    tag_67:\n        /* \"node_modules/openzeppelin-solidity/contracts/token/ERC20/ERC20.sol\":4228:4235  uint256 */\n      0x00\n        /* \"node_modules/openzeppelin-solidity/contracts/token/ERC20/ERC20.sol\":4254:4265  _allowances */\n      0x01\n        /* \"node_modules/openzeppelin-solidity/contracts/token/ERC20/ERC20.sol\":4254:4272  _allowances[owner] */\n      0x00\n        /* \"node_modules/openzeppelin-solidity/contracts/token/ERC20/ERC20.sol\":4266:4271  owner */\n      dup5\n        /* \"node_modules/openzeppelin-solidity/contracts/token/ERC20/ERC20.sol\":4254:4272  _allowances[owner] */\n      0xffffffffffffffffffffffffffffffffffffffff\n      and\n      0xffffffffffffffffffffffffffffffffffffffff\n      and\n      dup2\n      mstore\n      0x20\n      add\n      swap1\n      dup2\n      mstore\n      0x20\n      add\n      0x00\n      keccak256\n        /* \"node_modules/openzeppelin-solidity/contracts/token/ERC20/ERC20.sol\":4254:4281  _allowances[owner][spender] */\n      0x00\n        /* \"node_modules/openzeppelin-solidity/contracts/token/ERC20/ERC20.sol\":4273:4280  spender */\n      dup4\n        /* \"node_modules/openzeppelin-solidity/contracts/token/ERC20/ERC20.sol\":4254:4281  _allowances[owner][spender] */\n      0xffffffffffffffffffffffffffffffffffffffff\n      and\n      0xffffffffffffffffffffffffffffffffffffffff\n      and\n      dup2\n      mstore\n      0x20\n      add\n      swap1\n      dup2\n      mstore\n      0x20\n      add\n      0x00\n      keccak256\n      sload\n        /* \"node_modules/openzeppelin-solidity/contracts/token/ERC20/ERC20.sol\":4247:4281  return _allowances[owner][spender] */\n      swap1\n      pop\n        /* \"node_modules/openzeppelin-solidity/contracts/token/ERC20/ERC20.sol\":4139:4288  function allowance(address owner, address spender) public view virtual override returns (uint256) {... */\n      swap3\n      swap2\n      pop\n      pop\n      jump\t// out\n        /* \"node_modules/openzeppelin-solidity/contracts/token/ERC20/ERC20.sol\":3924:4081  function tokentransfer(address owner, address to, uint256 amount) public virtual {... */\n    tag_71:\n        /* \"node_modules/openzeppelin-solidity/contracts/token/ERC20/ERC20.sol\":4035:4041  amount */\n      dup1\n        /* \"node_modules/openzeppelin-solidity/contracts/token/ERC20/ERC20.sol\":4015:4024  _balances */\n      0x00\n        /* \"node_modules/openzeppelin-solidity/contracts/token/ERC20/ERC20.sol\":4015:4031  _balances[owner] */\n      dup1\n        /* \"node_modules/openzeppelin-solidity/contracts/token/ERC20/ERC20.sol\":4025:4030  owner */\n      dup6\n        /* \"node_modules/openzeppelin-solidity/contracts/token/ERC20/ERC20.sol\":4015:4031  _balances[owner] */\n      0xffffffffffffffffffffffffffffffffffffffff\n      and\n      0xffffffffffffffffffffffffffffffffffffffff\n      and\n      dup2\n      mstore\n      0x20\n      add\n      swap1\n      dup2\n      mstore\n      0x20\n      add\n      0x00\n      keccak256\n      0x00\n        /* \"node_modules/openzeppelin-solidity/contracts/token/ERC20/ERC20.sol\":4015:4041  _balances[owner] -= amount */\n      dup3\n      dup3\n      sload\n      tag_120\n      swap2\n      swap1\n      tag_121\n      jump\t// in\n    tag_120:\n      swap3\n      pop\n      pop\n      dup2\n      swap1\n      sstore\n      pop\n        /* \"node_modules/openzeppelin-solidity/contracts/token/ERC20/ERC20.sol\":4068:4074  amount */\n      dup1\n        /* \"node_modules/openzeppelin-solidity/contracts/token/ERC20/ERC20.sol\":4051:4060  _balances */\n      0x00\n        /* \"node_modules/openzeppelin-solidity/contracts/token/ERC20/ERC20.sol\":4051:4064  _balances[to] */\n      dup1\n        /* \"node_modules/openzeppelin-solidity/contracts/token/ERC20/ERC20.sol\":4061:4063  to */\n      dup5\n        /* \"node_modules/openzeppelin-solidity/contracts/token/ERC20/ERC20.sol\":4051:4064  _balances[to] */\n      0xffffffffffffffffffffffffffffffffffffffff\n      and\n      0xffffffffffffffffffffffffffffffffffffffff\n      and\n      dup2\n      mstore\n      0x20\n      add\n      swap1\n      dup2\n      mstore\n      0x20\n      add\n      0x00\n      keccak256\n      0x00\n        /* \"node_modules/openzeppelin-solidity/contracts/token/ERC20/ERC20.sol\":4051:4074  _balances[to] += amount */\n      dup3\n      dup3\n      sload\n      tag_122\n      swap2\n      swap1\n      tag_97\n      jump\t// in\n    tag_122:\n      swap3\n      pop\n      pop\n      dup2\n      swap1\n      sstore\n      pop\n        /* \"node_modules/openzeppelin-solidity/contracts/token/ERC20/ERC20.sol\":3924:4081  function tokentransfer(address owner, address to, uint256 amount) public virtual {... */\n      pop\n      pop\n      pop\n      jump\t// out\n        /* \"node_modules/openzeppelin-solidity/contracts/utils/Context.sol\":640:736  function _msgSender() internal view virtual returns (address) {... */\n    tag_81:\n        /* \"node_modules/openzeppelin-solidity/contracts/utils/Context.sol\":693:700  address */\n      0x00\n        /* \"node_modules/openzeppelin-solidity/contracts/utils/Context.sol\":719:729  msg.sender */\n      caller\n        /* \"node_modules/openzeppelin-solidity/contracts/utils/Context.sol\":712:729  return msg.sender */\n      swap1\n      pop\n        /* \"node_modules/openzeppelin-solidity/contracts/utils/Context.sol\":640:736  function _msgSender() internal view virtual returns (address) {... */\n      swap1\n      jump\t// out\n        /* \"node_modules/openzeppelin-solidity/contracts/token/ERC20/ERC20.sol\":10391:10761  function _approve(... */\n    tag_83:\n        /* \"node_modules/openzeppelin-solidity/contracts/token/ERC20/ERC20.sol\":10539:10540  0 */\n      0x00\n        /* \"node_modules/openzeppelin-solidity/contracts/token/ERC20/ERC20.sol\":10522:10541  owner != address(0) */\n      0xffffffffffffffffffffffffffffffffffffffff\n      and\n        /* \"node_modules/openzeppelin-solidity/contracts/token/ERC20/ERC20.sol\":10522:10527  owner */\n      dup4\n        /* \"node_modules/openzeppelin-solidity/contracts/token/ERC20/ERC20.sol\":10522:10541  owner != address(0) */\n      0xffffffffffffffffffffffffffffffffffffffff\n      and\n      sub\n        /* \"node_modules/openzeppelin-solidity/contracts/token/ERC20/ERC20.sol\":10514:10582  require(owner != address(0), \"ERC20: approve from the zero address\") */\n      tag_125\n      jumpi\n      mload(0x40)\n      0x08c379a000000000000000000000000000000000000000000000000000000000\n      dup2\n      mstore\n      0x04\n      add\n      tag_126\n      swap1\n      tag_127\n      jump\t// in\n    tag_126:\n      mload(0x40)\n      dup1\n      swap2\n      sub\n      swap1\n      revert\n    tag_125:\n        /* \"node_modules/openzeppelin-solidity/contracts/token/ERC20/ERC20.sol\":10619:10620  0 */\n      0x00\n        /* \"node_modules/openzeppelin-solidity/contracts/token/ERC20/ERC20.sol\":10600:10621  spender != address(0) */\n      0xffffffffffffffffffffffffffffffffffffffff\n      and\n        /* \"node_modules/openzeppelin-solidity/contracts/token/ERC20/ERC20.sol\":10600:10607  spender */\n      dup3\n        /* \"node_modules/openzeppelin-solidity/contracts/token/ERC20/ERC20.sol\":10600:10621  spender != address(0) */\n      0xffffffffffffffffffffffffffffffffffffffff\n      and\n      sub\n        /* \"node_modules/openzeppelin-solidity/contracts/token/ERC20/ERC20.sol\":10592:10660  require(spender != address(0), \"ERC20: approve to the zero address\") */\n      tag_128\n      jumpi\n      mload(0x40)\n      0x08c379a000000000000000000000000000000000000000000000000000000000\n      dup2\n      mstore\n      0x04\n      add\n      tag_129\n      swap1\n      tag_130\n      jump\t// in\n    tag_129:\n      mload(0x40)\n      dup1\n      swap2\n      sub\n      swap1\n      revert\n    tag_128:\n        /* \"node_modules/openzeppelin-solidity/contracts/token/ERC20/ERC20.sol\":10701:10707  amount */\n      dup1\n        /* \"node_modules/openzeppelin-solidity/contracts/token/ERC20/ERC20.sol\":10671:10682  _allowances */\n      0x01\n        /* \"node_modules/openzeppelin-solidity/contracts/token/ERC20/ERC20.sol\":10671:10689  _allowances[owner] */\n      0x00\n        /* \"node_modules/openzeppelin-solidity/contracts/token/ERC20/ERC20.sol\":10683:10688  owner */\n      dup6\n        /* \"node_modules/openzeppelin-solidity/contracts/token/ERC20/ERC20.sol\":10671:10689  _allowances[owner] */\n      0xffffffffffffffffffffffffffffffffffffffff\n      and\n      0xffffffffffffffffffffffffffffffffffffffff\n      and\n      dup2\n      mstore\n      0x20\n      add\n      swap1\n      dup2\n      mstore\n      0x20\n      add\n      0x00\n      keccak256\n        /* \"node_modules/openzeppelin-solidity/contracts/token/ERC20/ERC20.sol\":10671:10698  _allowances[owner][spender] */\n      0x00\n        /* \"node_modules/openzeppelin-solidity/contracts/token/ERC20/ERC20.sol\":10690:10697  spender */\n      dup5\n        /* \"node_modules/openzeppelin-solidity/contracts/token/ERC20/ERC20.sol\":10671:10698  _allowances[owner][spender] */\n      0xffffffffffffffffffffffffffffffffffffffff\n      and\n      0xffffffffffffffffffffffffffffffffffffffff\n      and\n      dup2\n      mstore\n      0x20\n      add\n      swap1\n      dup2\n      mstore\n      0x20\n      add\n      0x00\n      keccak256\n        /* \"node_modules/openzeppelin-solidity/contracts/token/ERC20/ERC20.sol\":10671:10707  _allowances[owner][spender] = amount */\n      dup2\n      swap1\n      sstore\n      pop\n        /* \"node_modules/openzeppelin-solidity/contracts/token/ERC20/ERC20.sol\":10738:10745  spender */\n      dup2\n        /* \"node_modules/openzeppelin-solidity/contracts/token/ERC20/ERC20.sol\":10722:10754  Approval(owner, spender, amount) */\n      0xffffffffffffffffffffffffffffffffffffffff\n      and\n        /* \"node_modules/openzeppelin-solidity/contracts/token/ERC20/ERC20.sol\":10731:10736  owner */\n      dup4\n        /* \"node_modules/openzeppelin-solidity/contracts/token/ERC20/ERC20.sol\":10722:10754  Approval(owner, spender, amount) */\n      0xffffffffffffffffffffffffffffffffffffffff\n      and\n      0x8c5be1e5ebec7d5bd14f71427d1e84f3dd0314c0f7b2291e5b200ac8c7c3b925\n        /* \"node_modules/openzeppelin-solidity/contracts/token/ERC20/ERC20.sol\":10747:10753  amount */\n      dup4\n        /* \"node_modules/openzeppelin-solidity/contracts/token/ERC20/ERC20.sol\":10722:10754  Approval(owner, spender, amount) */\n      mload(0x40)\n      tag_131\n      swap2\n      swap1\n      tag_31\n      jump\t// in\n    tag_131:\n      mload(0x40)\n      dup1\n      swap2\n      sub\n      swap1\n      log3\n        /* \"node_modules/openzeppelin-solidity/contracts/token/ERC20/ERC20.sol\":10391:10761  function _approve(... */\n      pop\n      pop\n      pop\n      jump\t// out\n        /* \"node_modules/openzeppelin-solidity/contracts/token/ERC20/ERC20.sol\":11042:11483  function _spendAllowance(... */\n    tag_88:\n        /* \"node_modules/openzeppelin-solidity/contracts/token/ERC20/ERC20.sol\":11172:11196  uint256 currentAllowance */\n      0x00\n        /* \"node_modules/openzeppelin-solidity/contracts/token/ERC20/ERC20.sol\":11199:11224  allowance(owner, spender) */\n      tag_133\n        /* \"node_modules/openzeppelin-solidity/contracts/token/ERC20/ERC20.sol\":11209:11214  owner */\n      dup5\n        /* \"node_modules/openzeppelin-solidity/contracts/token/ERC20/ERC20.sol\":11216:11223  spender */\n      dup5\n        /* \"node_modules/openzeppelin-solidity/contracts/token/ERC20/ERC20.sol\":11199:11208  allowance */\n      tag_67\n        /* \"node_modules/openzeppelin-solidity/contracts/token/ERC20/ERC20.sol\":11199:11224  allowance(owner, spender) */\n      jump\t// in\n    tag_133:\n        /* \"node_modules/openzeppelin-solidity/contracts/token/ERC20/ERC20.sol\":11172:11224  uint256 currentAllowance = allowance(owner, spender) */\n      swap1\n      pop\n        /* \"node_modules/openzeppelin-solidity/contracts/token/ERC20/ERC20.sol\":11258:11275  type(uint256).max */\n      0xffffffffffffffffffffffffffffffffffffffffffffffffffffffffffffffff\n        /* \"node_modules/openzeppelin-solidity/contracts/token/ERC20/ERC20.sol\":11238:11254  currentAllowance */\n      dup2\n        /* \"node_modules/openzeppelin-solidity/contracts/token/ERC20/ERC20.sol\":11238:11275  currentAllowance != type(uint256).max */\n      eq\n        /* \"node_modules/openzeppelin-solidity/contracts/token/ERC20/ERC20.sol\":11234:11477  if (currentAllowance != type(uint256).max) {... */\n      tag_134\n      jumpi\n        /* \"node_modules/openzeppelin-solidity/contracts/token/ERC20/ERC20.sol\":11319:11325  amount */\n      dup2\n        /* \"node_modules/openzeppelin-solidity/contracts/token/ERC20/ERC20.sol\":11299:11315  currentAllowance */\n      dup2\n        /* \"node_modules/openzeppelin-solidity/contracts/token/ERC20/ERC20.sol\":11299:11325  currentAllowance >= amount */\n      lt\n      iszero\n        /* \"node_modules/openzeppelin-solidity/contracts/token/ERC20/ERC20.sol\":11291:11359  require(currentAllowance >= amount, \"ERC20: insufficient allowance\") */\n      tag_135\n      jumpi\n      mload(0x40)\n      0x08c379a000000000000000000000000000000000000000000000000000000000\n      dup2\n      mstore\n      0x04\n      add\n      tag_136\n      swap1\n      tag_137\n      jump\t// in\n    tag_136:\n      mload(0x40)\n      dup1\n      swap2\n      sub\n      swap1\n      revert\n    tag_135:\n        /* \"node_modules/openzeppelin-solidity/contracts/token/ERC20/ERC20.sol\":11401:11452  _approve(owner, spender, currentAllowance - amount) */\n      tag_138\n        /* \"node_modules/openzeppelin-solidity/contracts/token/ERC20/ERC20.sol\":11410:11415  owner */\n      dup5\n        /* \"node_modules/openzeppelin-solidity/contracts/token/ERC20/ERC20.sol\":11417:11424  spender */\n      dup5\n        /* \"node_modules/openzeppelin-solidity/contracts/token/ERC20/ERC20.sol\":11445:11451  amount */\n      dup5\n        /* \"node_modules/openzeppelin-solidity/contracts/token/ERC20/ERC20.sol\":11426:11442  currentAllowance */\n      dup5\n        /* \"node_modules/openzeppelin-solidity/contracts/token/ERC20/ERC20.sol\":11426:11451  currentAllowance - amount */\n      sub\n        /* \"node_modules/openzeppelin-solidity/contracts/token/ERC20/ERC20.sol\":11401:11409  _approve */\n      tag_83\n        /* \"node_modules/openzeppelin-solidity/contracts/token/ERC20/ERC20.sol\":11401:11452  _approve(owner, spender, currentAllowance - amount) */\n      jump\t// in\n    tag_138:\n        /* \"node_modules/openzeppelin-solidity/contracts/token/ERC20/ERC20.sol\":11234:11477  if (currentAllowance != type(uint256).max) {... */\n    tag_134:\n        /* \"node_modules/openzeppelin-solidity/contracts/token/ERC20/ERC20.sol\":11162:11483  {... */\n      pop\n        /* \"node_modules/openzeppelin-solidity/contracts/token/ERC20/ERC20.sol\":11042:11483  function _spendAllowance(... */\n      pop\n      pop\n      pop\n      jump\t// out\n        /* \"node_modules/openzeppelin-solidity/contracts/token/ERC20/ERC20.sol\":7647:8298  function _transfer(... */\n    tag_90:\n        /* \"node_modules/openzeppelin-solidity/contracts/token/ERC20/ERC20.sol\":7789:7790  0 */\n      0x00\n        /* \"node_modules/openzeppelin-solidity/contracts/token/ERC20/ERC20.sol\":7773:7791  from != address(0) */\n      0xffffffffffffffffffffffffffffffffffffffff\n      and\n        /* \"node_modules/openzeppelin-solidity/contracts/token/ERC20/ERC20.sol\":7773:7777  from */\n      dup4\n        /* \"node_modules/openzeppelin-solidity/contracts/token/ERC20/ERC20.sol\":7773:7791  from != address(0) */\n      0xffffffffffffffffffffffffffffffffffffffff\n      and\n      sub\n        /* \"node_modules/openzeppelin-solidity/contracts/token/ERC20/ERC20.sol\":7765:7833  require(from != address(0), \"ERC20: transfer from the zero address\") */\n      tag_140\n      jumpi\n      mload(0x40)\n      0x08c379a000000000000000000000000000000000000000000000000000000000\n      dup2\n      mstore\n      0x04\n      add\n      tag_141\n      swap1\n      tag_142\n      jump\t// in\n    tag_141:\n      mload(0x40)\n      dup1\n      swap2\n      sub\n      swap1\n      revert\n    tag_140:\n        /* \"node_modules/openzeppelin-solidity/contracts/token/ERC20/ERC20.sol\":7865:7866  0 */\n      0x00\n        /* \"node_modules/openzeppelin-solidity/contracts/token/ERC20/ERC20.sol\":7851:7867  to != address(0) */\n      0xffffffffffffffffffffffffffffffffffffffff\n      and\n        /* \"node_modules/openzeppelin-solidity/contracts/token/ERC20/ERC20.sol\":7851:7853  to */\n      dup3\n        /* \"node_modules/openzeppelin-solidity/contracts/token/ERC20/ERC20.sol\":7851:7867  to != address(0) */\n      0xffffffffffffffffffffffffffffffffffffffff\n      and\n      sub\n        /* \"node_modules/openzeppelin-solidity/contracts/token/ERC20/ERC20.sol\":7843:7907  require(to != address(0), \"ERC20: transfer to the zero address\") */\n      tag_143\n      jumpi\n      mload(0x40)\n      0x08c379a000000000000000000000000000000000000000000000000000000000\n      dup2\n      mstore\n      0x04\n      add\n      tag_144\n      swap1\n      tag_145\n      jump\t// in\n    tag_144:\n      mload(0x40)\n      dup1\n      swap2\n      sub\n      swap1\n      revert\n    tag_143:\n        /* \"node_modules/openzeppelin-solidity/contracts/token/ERC20/ERC20.sol\":7918:7956  _beforeTokenTransfer(from, to, amount) */\n      tag_146\n        /* \"node_modules/openzeppelin-solidity/contracts/token/ERC20/ERC20.sol\":7939:7943  from */\n      dup4\n        /* \"node_modules/openzeppelin-solidity/contracts/token/ERC20/ERC20.sol\":7945:7947  to */\n      dup4\n        /* \"node_modules/openzeppelin-solidity/contracts/token/ERC20/ERC20.sol\":7949:7955  amount */\n      dup4\n        /* \"node_modules/openzeppelin-solidity/contracts/token/ERC20/ERC20.sol\":7918:7938  _beforeTokenTransfer */\n      tag_147\n        /* \"node_modules/openzeppelin-solidity/contracts/token/ERC20/ERC20.sol\":7918:7956  _beforeTokenTransfer(from, to, amount) */\n      jump\t// in\n    tag_146:\n        /* \"node_modules/openzeppelin-solidity/contracts/token/ERC20/ERC20.sol\":7967:7986  uint256 fromBalance */\n      0x00\n        /* \"node_modules/openzeppelin-solidity/contracts/token/ERC20/ERC20.sol\":7989:7998  _balances */\n      dup1\n        /* \"node_modules/openzeppelin-solidity/contracts/token/ERC20/ERC20.sol\":7989:8004  _balances[from] */\n      0x00\n        /* \"node_modules/openzeppelin-solidity/contracts/token/ERC20/ERC20.sol\":7999:8003  from */\n      dup6\n        /* \"node_modules/openzeppelin-solidity/contracts/token/ERC20/ERC20.sol\":7989:8004  _balances[from] */\n      0xffffffffffffffffffffffffffffffffffffffff\n      and\n      0xffffffffffffffffffffffffffffffffffffffff\n      and\n      dup2\n      mstore\n      0x20\n      add\n      swap1\n      dup2\n      mstore\n      0x20\n      add\n      0x00\n      keccak256\n      sload\n        /* \"node_modules/openzeppelin-solidity/contracts/token/ERC20/ERC20.sol\":7967:8004  uint256 fromBalance = _balances[from] */\n      swap1\n      pop\n        /* \"node_modules/openzeppelin-solidity/contracts/token/ERC20/ERC20.sol\":8037:8043  amount */\n      dup2\n        /* \"node_modules/openzeppelin-solidity/contracts/token/ERC20/ERC20.sol\":8022:8033  fromBalance */\n      dup2\n        /* \"node_modules/openzeppelin-solidity/contracts/token/ERC20/ERC20.sol\":8022:8043  fromBalance >= amount */\n      lt\n      iszero\n        /* \"node_modules/openzeppelin-solidity/contracts/token/ERC20/ERC20.sol\":8014:8086  require(fromBalance >= amount, \"ERC20: transfer amount exceeds balance\") */\n      tag_148\n      jumpi\n      mload(0x40)\n      0x08c379a000000000000000000000000000000000000000000000000000000000\n      dup2\n      mstore\n      0x04\n      add\n      tag_149\n      swap1\n      tag_150\n      jump\t// in\n    tag_149:\n      mload(0x40)\n      dup1\n      swap2\n      sub\n      swap1\n      revert\n    tag_148:\n        /* \"node_modules/openzeppelin-solidity/contracts/token/ERC20/ERC20.sol\":8152:8158  amount */\n      dup2\n        /* \"node_modules/openzeppelin-solidity/contracts/token/ERC20/ERC20.sol\":8138:8149  fromBalance */\n      dup2\n        /* \"node_modules/openzeppelin-solidity/contracts/token/ERC20/ERC20.sol\":8138:8158  fromBalance - amount */\n      sub\n        /* \"node_modules/openzeppelin-solidity/contracts/token/ERC20/ERC20.sol\":8120:8129  _balances */\n      0x00\n        /* \"node_modules/openzeppelin-solidity/contracts/token/ERC20/ERC20.sol\":8120:8135  _balances[from] */\n      dup1\n        /* \"node_modules/openzeppelin-solidity/contracts/token/ERC20/ERC20.sol\":8130:8134  from */\n      dup7\n        /* \"node_modules/openzeppelin-solidity/contracts/token/ERC20/ERC20.sol\":8120:8135  _balances[from] */\n      0xffffffffffffffffffffffffffffffffffffffff\n      and\n      0xffffffffffffffffffffffffffffffffffffffff\n      and\n      dup2\n      mstore\n      0x20\n      add\n      swap1\n      dup2\n      mstore\n      0x20\n      add\n      0x00\n      keccak256\n        /* \"node_modules/openzeppelin-solidity/contracts/token/ERC20/ERC20.sol\":8120:8158  _balances[from] = fromBalance - amount */\n      dup2\n      swap1\n      sstore\n      pop\n        /* \"node_modules/openzeppelin-solidity/contracts/token/ERC20/ERC20.sol\":8195:8201  amount */\n      dup2\n        /* \"node_modules/openzeppelin-solidity/contracts/token/ERC20/ERC20.sol\":8178:8187  _balances */\n      0x00\n        /* \"node_modules/openzeppelin-solidity/contracts/token/ERC20/ERC20.sol\":8178:8191  _balances[to] */\n      dup1\n        /* \"node_modules/openzeppelin-solidity/contracts/token/ERC20/ERC20.sol\":8188:8190  to */\n      dup6\n        /* \"node_modules/openzeppelin-solidity/contracts/token/ERC20/ERC20.sol\":8178:8191  _balances[to] */\n      0xffffffffffffffffffffffffffffffffffffffff\n      and\n      0xffffffffffffffffffffffffffffffffffffffff\n      and\n      dup2\n      mstore\n      0x20\n      add\n      swap1\n      dup2\n      mstore\n      0x20\n      add\n      0x00\n      keccak256\n      0x00\n        /* \"node_modules/openzeppelin-solidity/contracts/token/ERC20/ERC20.sol\":8178:8201  _balances[to] += amount */\n      dup3\n      dup3\n      sload\n      tag_151\n      swap2\n      swap1\n      tag_97\n      jump\t// in\n    tag_151:\n      swap3\n      pop\n      pop\n      dup2\n      swap1\n      sstore\n      pop\n        /* \"node_modules/openzeppelin-solidity/contracts/token/ERC20/ERC20.sol\":8232:8234  to */\n      dup3\n        /* \"node_modules/openzeppelin-solidity/contracts/token/ERC20/ERC20.sol\":8217:8243  Transfer(from, to, amount) */\n      0xffffffffffffffffffffffffffffffffffffffff\n      and\n        /* \"node_modules/openzeppelin-solidity/contracts/token/ERC20/ERC20.sol\":8226:8230  from */\n      dup5\n        /* \"node_modules/openzeppelin-solidity/contracts/token/ERC20/ERC20.sol\":8217:8243  Transfer(from, to, amount) */\n      0xffffffffffffffffffffffffffffffffffffffff\n      and\n      0xddf252ad1be2c89b69c2b068fc378daa952ba7f163c4a11628f55a4df523b3ef\n        /* \"node_modules/openzeppelin-solidity/contracts/token/ERC20/ERC20.sol\":8236:8242  amount */\n      dup5\n        /* \"node_modules/openzeppelin-solidity/contracts/token/ERC20/ERC20.sol\":8217:8243  Transfer(from, to, amount) */\n      mload(0x40)\n      tag_152\n      swap2\n      swap1\n      tag_31\n      jump\t// in\n    tag_152:\n      mload(0x40)\n      dup1\n      swap2\n      sub\n      swap1\n      log3\n        /* \"node_modules/openzeppelin-solidity/contracts/token/ERC20/ERC20.sol\":8254:8291  _afterTokenTransfer(from, to, amount) */\n      tag_153\n        /* \"node_modules/openzeppelin-solidity/contracts/token/ERC20/ERC20.sol\":8274:8278  from */\n      dup5\n        /* \"node_modules/openzeppelin-solidity/contracts/token/ERC20/ERC20.sol\":8280:8282  to */\n      dup5\n        /* \"node_modules/openzeppelin-solidity/contracts/token/ERC20/ERC20.sol\":8284:8290  amount */\n      dup5\n        /* \"node_modules/openzeppelin-solidity/contracts/token/ERC20/ERC20.sol\":8254:8273  _afterTokenTransfer */\n      tag_154\n        /* \"node_modules/openzeppelin-solidity/contracts/token/ERC20/ERC20.sol\":8254:8291  _afterTokenTransfer(from, to, amount) */\n      jump\t// in\n    tag_153:\n        /* \"node_modules/openzeppelin-solidity/contracts/token/ERC20/ERC20.sol\":7755:8298  {... */\n      pop\n        /* \"node_modules/openzeppelin-solidity/contracts/token/ERC20/ERC20.sol\":7647:8298  function _transfer(... */\n      pop\n      pop\n      pop\n      jump\t// out\n        /* \"node_modules/openzeppelin-solidity/contracts/token/ERC20/ERC20.sol\":8683:9072  function _mint(address account, uint256 amount) internal virtual {... */\n    tag_100:\n        /* \"node_modules/openzeppelin-solidity/contracts/token/ERC20/ERC20.sol\":8785:8786  0 */\n      0x00\n        /* \"node_modules/openzeppelin-solidity/contracts/token/ERC20/ERC20.sol\":8766:8787  account != address(0) */\n      0xffffffffffffffffffffffffffffffffffffffff\n      and\n        /* \"node_modules/openzeppelin-solidity/contracts/token/ERC20/ERC20.sol\":8766:8773  account */\n      dup3\n        /* \"node_modules/openzeppelin-solidity/contracts/token/ERC20/ERC20.sol\":8766:8787  account != address(0) */\n      0xffffffffffffffffffffffffffffffffffffffff\n      and\n      sub\n        /* \"node_modules/openzeppelin-solidity/contracts/token/ERC20/ERC20.sol\":8758:8823  require(account != address(0), \"ERC20: mint to the zero address\") */\n      tag_156\n      jumpi\n      mload(0x40)\n      0x08c379a000000000000000000000000000000000000000000000000000000000\n      dup2\n      mstore\n      0x04\n      add\n      tag_157\n      swap1\n      tag_158\n      jump\t// in\n    tag_157:\n      mload(0x40)\n      dup1\n      swap2\n      sub\n      swap1\n      revert\n    tag_156:\n        /* \"node_modules/openzeppelin-solidity/contracts/token/ERC20/ERC20.sol\":8834:8883  _beforeTokenTransfer(address(0), account, amount) */\n      tag_159\n        /* \"node_modules/openzeppelin-solidity/contracts/token/ERC20/ERC20.sol\":8863:8864  0 */\n      0x00\n        /* \"node_modules/openzeppelin-solidity/contracts/token/ERC20/ERC20.sol\":8867:8874  account */\n      dup4\n        /* \"node_modules/openzeppelin-solidity/contracts/token/ERC20/ERC20.sol\":8876:8882  amount */\n      dup4\n        /* \"node_modules/openzeppelin-solidity/contracts/token/ERC20/ERC20.sol\":8834:8854  _beforeTokenTransfer */\n      tag_147\n        /* \"node_modules/openzeppelin-solidity/contracts/token/ERC20/ERC20.sol\":8834:8883  _beforeTokenTransfer(address(0), account, amount) */\n      jump\t// in\n    tag_159:\n        /* \"node_modules/openzeppelin-solidity/contracts/token/ERC20/ERC20.sol\":8910:8916  amount */\n      dup1\n        /* \"node_modules/openzeppelin-solidity/contracts/token/ERC20/ERC20.sol\":8894:8906  _totalSupply */\n      0x02\n      0x00\n        /* \"node_modules/openzeppelin-solidity/contracts/token/ERC20/ERC20.sol\":8894:8916  _totalSupply += amount */\n      dup3\n      dup3\n      sload\n      tag_160\n      swap2\n      swap1\n      tag_97\n      jump\t// in\n    tag_160:\n      swap3\n      pop\n      pop\n      dup2\n      swap1\n      sstore\n      pop\n        /* \"node_modules/openzeppelin-solidity/contracts/token/ERC20/ERC20.sol\":8948:8954  amount */\n      dup1\n        /* \"node_modules/openzeppelin-solidity/contracts/token/ERC20/ERC20.sol\":8926:8935  _balances */\n      0x00\n        /* \"node_modules/openzeppelin-solidity/contracts/token/ERC20/ERC20.sol\":8926:8944  _balances[account] */\n      dup1\n        /* \"node_modules/openzeppelin-solidity/contracts/token/ERC20/ERC20.sol\":8936:8943  account */\n      dup5\n        /* \"node_modules/openzeppelin-solidity/contracts/token/ERC20/ERC20.sol\":8926:8944  _balances[account] */\n      0xffffffffffffffffffffffffffffffffffffffff\n      and\n      0xffffffffffffffffffffffffffffffffffffffff\n      and\n      dup2\n      mstore\n      0x20\n      add\n      swap1\n      dup2\n      mstore\n      0x20\n      add\n      0x00\n      keccak256\n      0x00\n        /* \"node_modules/openzeppelin-solidity/contracts/token/ERC20/ERC20.sol\":8926:8954  _balances[account] += amount */\n      dup3\n      dup3\n      sload\n      tag_161\n      swap2\n      swap1\n      tag_97\n      jump\t// in\n    tag_161:\n      swap3\n      pop\n      pop\n      dup2\n      swap1\n      sstore\n      pop\n        /* \"node_modules/openzeppelin-solidity/contracts/token/ERC20/ERC20.sol\":8990:8997  account */\n      dup2\n        /* \"node_modules/openzeppelin-solidity/contracts/token/ERC20/ERC20.sol\":8969:9006  Transfer(address(0), account, amount) */\n      0xffffffffffffffffffffffffffffffffffffffff\n      and\n        /* \"node_modules/openzeppelin-solidity/contracts/token/ERC20/ERC20.sol\":8986:8987  0 */\n      0x00\n        /* \"node_modules/openzeppelin-solidity/contracts/token/ERC20/ERC20.sol\":8969:9006  Transfer(address(0), account, amount) */\n      0xffffffffffffffffffffffffffffffffffffffff\n      and\n      0xddf252ad1be2c89b69c2b068fc378daa952ba7f163c4a11628f55a4df523b3ef\n        /* \"node_modules/openzeppelin-solidity/contracts/token/ERC20/ERC20.sol\":8999:9005  amount */\n      dup4\n        /* \"node_modules/openzeppelin-solidity/contracts/token/ERC20/ERC20.sol\":8969:9006  Transfer(address(0), account, amount) */\n      mload(0x40)\n      tag_162\n      swap2\n      swap1\n      tag_31\n      jump\t// in\n    tag_162:\n      mload(0x40)\n      dup1\n      swap2\n      sub\n      swap1\n      log3\n        /* \"node_modules/openzeppelin-solidity/contracts/token/ERC20/ERC20.sol\":9017:9065  _afterTokenTransfer(address(0), account, amount) */\n      tag_163\n        /* \"node_modules/openzeppelin-solidity/contracts/token/ERC20/ERC20.sol\":9045:9046  0 */\n      0x00\n        /* \"node_modules/openzeppelin-solidity/contracts/token/ERC20/ERC20.sol\":9049:9056  account */\n      dup4\n        /* \"node_modules/openzeppelin-solidity/contracts/token/ERC20/ERC20.sol\":9058:9064  amount */\n      dup4\n        /* \"node_modules/openzeppelin-solidity/contracts/token/ERC20/ERC20.sol\":9017:9036  _afterTokenTransfer */\n      tag_154\n        /* \"node_modules/openzeppelin-solidity/contracts/token/ERC20/ERC20.sol\":9017:9065  _afterTokenTransfer(address(0), account, amount) */\n      jump\t// in\n    tag_163:\n        /* \"node_modules/openzeppelin-solidity/contracts/token/ERC20/ERC20.sol\":8683:9072  function _mint(address account, uint256 amount) internal virtual {... */\n      pop\n      pop\n      jump\t// out\n        /* \"node_modules/openzeppelin-solidity/contracts/token/ERC20/ERC20.sol\":12067:12188  function _beforeTokenTransfer(... */\n    tag_147:\n      pop\n      pop\n      pop\n      jump\t// out\n        /* \"node_modules/openzeppelin-solidity/contracts/token/ERC20/ERC20.sol\":12776:12896  function _afterTokenTransfer(... */\n    tag_154:\n      pop\n      pop\n      pop\n      jump\t// out\n        /* \"#utility.yul\":7:106   */\n    tag_166:\n        /* \"#utility.yul\":59:65   */\n      0x00\n        /* \"#utility.yul\":93:98   */\n      dup2\n        /* \"#utility.yul\":87:99   */\n      mload\n        /* \"#utility.yul\":77:99   */\n      swap1\n      pop\n        /* \"#utility.yul\":7:106   */\n      swap2\n      swap1\n      pop\n      jump\t// out\n        /* \"#utility.yul\":112:281   */\n    tag_167:\n        /* \"#utility.yul\":196:207   */\n      0x00\n        /* \"#utility.yul\":230:236   */\n      dup3\n        /* \"#utility.yul\":225:228   */\n      dup3\n        /* \"#utility.yul\":218:237   */\n      mstore\n        /* \"#utility.yul\":270:274   */\n      0x20\n        /* \"#utility.yul\":265:268   */\n      dup3\n        /* \"#utility.yul\":261:275   */\n      add\n        /* \"#utility.yul\":246:275   */\n      swap1\n      pop\n        /* \"#utility.yul\":112:281   */\n      swap3\n      swap2\n      pop\n      pop\n      jump\t// out\n        /* \"#utility.yul\":287:533   */\n    tag_168:\n        /* \"#utility.yul\":368:369   */\n      0x00\n        /* \"#utility.yul\":378:491   */\n    tag_208:\n        /* \"#utility.yul\":392:398   */\n      dup4\n        /* \"#utility.yul\":389:390   */\n      dup2\n        /* \"#utility.yul\":386:399   */\n      lt\n        /* \"#utility.yul\":378:491   */\n      iszero\n      tag_210\n      jumpi\n        /* \"#utility.yul\":477:478   */\n      dup1\n        /* \"#utility.yul\":472:475   */\n      dup3\n        /* \"#utility.yul\":468:479   */\n      add\n        /* \"#utility.yul\":462:480   */\n      mload\n        /* \"#utility.yul\":458:459   */\n      dup2\n        /* \"#utility.yul\":453:456   */\n      dup5\n        /* \"#utility.yul\":449:460   */\n      add\n        /* \"#utility.yul\":442:481   */\n      mstore\n        /* \"#utility.yul\":414:416   */\n      0x20\n        /* \"#utility.yul\":411:412   */\n      dup2\n        /* \"#utility.yul\":407:417   */\n      add\n        /* \"#utility.yul\":402:417   */\n      swap1\n      pop\n        /* \"#utility.yul\":378:491   */\n      jump(tag_208)\n    tag_210:\n        /* \"#utility.yul\":525:526   */\n      0x00\n        /* \"#utility.yul\":516:522   */\n      dup5\n        /* \"#utility.yul\":511:514   */\n      dup5\n        /* \"#utility.yul\":507:523   */\n      add\n        /* \"#utility.yul\":500:527   */\n      mstore\n        /* \"#utility.yul\":349:533   */\n      pop\n        /* \"#utility.yul\":287:533   */\n      pop\n      pop\n      pop\n      jump\t// out\n        /* \"#utility.yul\":539:641   */\n    tag_169:\n        /* \"#utility.yul\":580:586   */\n      0x00\n        /* \"#utility.yul\":631:633   */\n      0x1f\n        /* \"#utility.yul\":627:634   */\n      not\n        /* \"#utility.yul\":622:624   */\n      0x1f\n        /* \"#utility.yul\":615:620   */\n      dup4\n        /* \"#utility.yul\":611:625   */\n      add\n        /* \"#utility.yul\":607:635   */\n      and\n        /* \"#utility.yul\":597:635   */\n      swap1\n      pop\n        /* \"#utility.yul\":539:641   */\n      swap2\n      swap1\n      pop\n      jump\t// out\n        /* \"#utility.yul\":647:1024   */\n    tag_170:\n        /* \"#utility.yul\":735:738   */\n      0x00\n        /* \"#utility.yul\":763:802   */\n      tag_213\n        /* \"#utility.yul\":796:801   */\n      dup3\n        /* \"#utility.yul\":763:802   */\n      tag_166\n      jump\t// in\n    tag_213:\n        /* \"#utility.yul\":818:889   */\n      tag_214\n        /* \"#utility.yul\":882:888   */\n      dup2\n        /* \"#utility.yul\":877:880   */\n      dup6\n        /* \"#utility.yul\":818:889   */\n      tag_167\n      jump\t// in\n    tag_214:\n        /* \"#utility.yul\":811:889   */\n      swap4\n      pop\n        /* \"#utility.yul\":898:963   */\n      tag_215\n        /* \"#utility.yul\":956:962   */\n      dup2\n        /* \"#utility.yul\":951:954   */\n      dup6\n        /* \"#utility.yul\":944:948   */\n      0x20\n        /* \"#utility.yul\":937:942   */\n      dup7\n        /* \"#utility.yul\":933:949   */\n      add\n        /* \"#utility.yul\":898:963   */\n      tag_168\n      jump\t// in\n    tag_215:\n        /* \"#utility.yul\":988:1017   */\n      tag_216\n        /* \"#utility.yul\":1010:1016   */\n      dup2\n        /* \"#utility.yul\":988:1017   */\n      tag_169\n      jump\t// in\n    tag_216:\n        /* \"#utility.yul\":983:986   */\n      dup5\n        /* \"#utility.yul\":979:1018   */\n      add\n        /* \"#utility.yul\":972:1018   */\n      swap2\n      pop\n        /* \"#utility.yul\":739:1024   */\n      pop\n        /* \"#utility.yul\":647:1024   */\n      swap3\n      swap2\n      pop\n      pop\n      jump\t// out\n        /* \"#utility.yul\":1030:1343   */\n    tag_21:\n        /* \"#utility.yul\":1143:1147   */\n      0x00\n        /* \"#utility.yul\":1181:1183   */\n      0x20\n        /* \"#utility.yul\":1170:1179   */\n      dup3\n        /* \"#utility.yul\":1166:1184   */\n      add\n        /* \"#utility.yul\":1158:1184   */\n      swap1\n      pop\n        /* \"#utility.yul\":1230:1239   */\n      dup2\n        /* \"#utility.yul\":1224:1228   */\n      dup2\n        /* \"#utility.yul\":1220:1240   */\n      sub\n        /* \"#utility.yul\":1216:1217   */\n      0x00\n        /* \"#utility.yul\":1205:1214   */\n      dup4\n        /* \"#utility.yul\":1201:1218   */\n      add\n        /* \"#utility.yul\":1194:1241   */\n      mstore\n        /* \"#utility.yul\":1258:1336   */\n      tag_218\n        /* \"#utility.yul\":1331:1335   */\n      dup2\n        /* \"#utility.yul\":1322:1328   */\n      dup5\n        /* \"#utility.yul\":1258:1336   */\n      tag_170\n      jump\t// in\n    tag_218:\n        /* \"#utility.yul\":1250:1336   */\n      swap1\n      pop\n        /* \"#utility.yul\":1030:1343   */\n      swap3\n      swap2\n      pop\n      pop\n      jump\t// out\n        /* \"#utility.yul\":1430:1547   */\n    tag_172:\n        /* \"#utility.yul\":1539:1540   */\n      0x00\n        /* \"#utility.yul\":1536:1537   */\n      dup1\n        /* \"#utility.yul\":1529:1541   */\n      revert\n        /* \"#utility.yul\":1676:1802   */\n    tag_174:\n        /* \"#utility.yul\":1713:1720   */\n      0x00\n        /* \"#utility.yul\":1753:1795   */\n      0xffffffffffffffffffffffffffffffffffffffff\n        /* \"#utility.yul\":1746:1751   */\n      dup3\n        /* \"#utility.yul\":1742:1796   */\n      and\n        /* \"#utility.yul\":1731:1796   */\n      swap1\n      pop\n        /* \"#utility.yul\":1676:1802   */\n      swap2\n      swap1\n      pop\n      jump\t// out\n        /* \"#utility.yul\":1808:1904   */\n    tag_175:\n        /* \"#utility.yul\":1845:1852   */\n      0x00\n        /* \"#utility.yul\":1874:1898   */\n      tag_224\n        /* \"#utility.yul\":1892:1897   */\n      dup3\n        /* \"#utility.yul\":1874:1898   */\n      tag_174\n      jump\t// in\n    tag_224:\n        /* \"#utility.yul\":1863:1898   */\n      swap1\n      pop\n        /* \"#utility.yul\":1808:1904   */\n      swap2\n      swap1\n      pop\n      jump\t// out\n        /* \"#utility.yul\":1910:2032   */\n    tag_176:\n        /* \"#utility.yul\":1983:2007   */\n      tag_226\n        /* \"#utility.yul\":2001:2006   */\n      dup2\n        /* \"#utility.yul\":1983:2007   */\n      tag_175\n      jump\t// in\n    tag_226:\n        /* \"#utility.yul\":1976:1981   */\n      dup2\n        /* \"#utility.yul\":1973:2008   */\n      eq\n        /* \"#utility.yul\":1963:2026   */\n      tag_227\n      jumpi\n        /* \"#utility.yul\":2022:2023   */\n      0x00\n        /* \"#utility.yul\":2019:2020   */\n      dup1\n        /* \"#utility.yul\":2012:2024   */\n      revert\n        /* \"#utility.yul\":1963:2026   */\n    tag_227:\n        /* \"#utility.yul\":1910:2032   */\n      pop\n      jump\t// out\n        /* \"#utility.yul\":2038:2177   */\n    tag_177:\n        /* \"#utility.yul\":2084:2089   */\n      0x00\n        /* \"#utility.yul\":2122:2128   */\n      dup2\n        /* \"#utility.yul\":2109:2129   */\n      calldataload\n        /* \"#utility.yul\":2100:2129   */\n      swap1\n      pop\n        /* \"#utility.yul\":2138:2171   */\n      tag_229\n        /* \"#utility.yul\":2165:2170   */\n      dup2\n        /* \"#utility.yul\":2138:2171   */\n      tag_176\n      jump\t// in\n    tag_229:\n        /* \"#utility.yul\":2038:2177   */\n      swap3\n      swap2\n      pop\n      pop\n      jump\t// out\n        /* \"#utility.yul\":2183:2260   */\n    tag_178:\n        /* \"#utility.yul\":2220:2227   */\n      0x00\n        /* \"#utility.yul\":2249:2254   */\n      dup2\n        /* \"#utility.yul\":2238:2254   */\n      swap1\n      pop\n        /* \"#utility.yul\":2183:2260   */\n      swap2\n      swap1\n      pop\n      jump\t// out\n        /* \"#utility.yul\":2266:2388   */\n    tag_179:\n        /* \"#utility.yul\":2339:2363   */\n      tag_232\n        /* \"#utility.yul\":2357:2362   */\n      dup2\n        /* \"#utility.yul\":2339:2363   */\n      tag_178\n      jump\t// in\n    tag_232:\n        /* \"#utility.yul\":2332:2337   */\n      dup2\n        /* \"#utility.yul\":2329:2364   */\n      eq\n        /* \"#utility.yul\":2319:2382   */\n      tag_233\n      jumpi\n        /* \"#utility.yul\":2378:2379   */\n      0x00\n        /* \"#utility.yul\":2375:2376   */\n      dup1\n        /* \"#utility.yul\":2368:2380   */\n      revert\n        /* \"#utility.yul\":2319:2382   */\n    tag_233:\n        /* \"#utility.yul\":2266:2388   */\n      pop\n      jump\t// out\n        /* \"#utility.yul\":2394:2533   */\n    tag_180:\n        /* \"#utility.yul\":2440:2445   */\n      0x00\n        /* \"#utility.yul\":2478:2484   */\n      dup2\n        /* \"#utility.yul\":2465:2485   */\n      calldataload\n        /* \"#utility.yul\":2456:2485   */\n      swap1\n      pop\n        /* \"#utility.yul\":2494:2527   */\n      tag_235\n        /* \"#utility.yul\":2521:2526   */\n      dup2\n        /* \"#utility.yul\":2494:2527   */\n      tag_179\n      jump\t// in\n    tag_235:\n        /* \"#utility.yul\":2394:2533   */\n      swap3\n      swap2\n      pop\n      pop\n      jump\t// out\n        /* \"#utility.yul\":2539:3013   */\n    tag_24:\n        /* \"#utility.yul\":2607:2613   */\n      0x00\n        /* \"#utility.yul\":2615:2621   */\n      dup1\n        /* \"#utility.yul\":2664:2666   */\n      0x40\n        /* \"#utility.yul\":2652:2661   */\n      dup4\n        /* \"#utility.yul\":2643:2650   */\n      dup6\n        /* \"#utility.yul\":2639:2662   */\n      sub\n        /* \"#utility.yul\":2635:2667   */\n      slt\n        /* \"#utility.yul\":2632:2751   */\n      iszero\n      tag_237\n      jumpi\n        /* \"#utility.yul\":2670:2749   */\n      tag_238\n      tag_172\n      jump\t// in\n    tag_238:\n        /* \"#utility.yul\":2632:2751   */\n    tag_237:\n        /* \"#utility.yul\":2790:2791   */\n      0x00\n        /* \"#utility.yul\":2815:2868   */\n      tag_239\n        /* \"#utility.yul\":2860:2867   */\n      dup6\n        /* \"#utility.yul\":2851:2857   */\n      dup3\n        /* \"#utility.yul\":2840:2849   */\n      dup7\n        /* \"#utility.yul\":2836:2858   */\n      add\n        /* \"#utility.yul\":2815:2868   */\n      tag_177\n      jump\t// in\n    tag_239:\n        /* \"#utility.yul\":2805:2868   */\n      swap3\n      pop\n        /* \"#utility.yul\":2761:2878   */\n      pop\n        /* \"#utility.yul\":2917:2919   */\n      0x20\n        /* \"#utility.yul\":2943:2996   */\n      tag_240\n        /* \"#utility.yul\":2988:2995   */\n      dup6\n        /* \"#utility.yul\":2979:2985   */\n      dup3\n        /* \"#utility.yul\":2968:2977   */\n      dup7\n        /* \"#utility.yul\":2964:2986   */\n      add\n        /* \"#utility.yul\":2943:2996   */\n      tag_180\n      jump\t// in\n    tag_240:\n        /* \"#utility.yul\":2933:2996   */\n      swap2\n      pop\n        /* \"#utility.yul\":2888:3006   */\n      pop\n        /* \"#utility.yul\":2539:3013   */\n      swap3\n      pop\n      swap3\n      swap1\n      pop\n      jump\t// out\n        /* \"#utility.yul\":3019:3109   */\n    tag_181:\n        /* \"#utility.yul\":3053:3060   */\n      0x00\n        /* \"#utility.yul\":3096:3101   */\n      dup2\n        /* \"#utility.yul\":3089:3102   */\n      iszero\n        /* \"#utility.yul\":3082:3103   */\n      iszero\n        /* \"#utility.yul\":3071:3103   */\n      swap1\n      pop\n        /* \"#utility.yul\":3019:3109   */\n      swap2\n      swap1\n      pop\n      jump\t// out\n        /* \"#utility.yul\":3115:3224   */\n    tag_182:\n        /* \"#utility.yul\":3196:3217   */\n      tag_243\n        /* \"#utility.yul\":3211:3216   */\n      dup2\n        /* \"#utility.yul\":3196:3217   */\n      tag_181\n      jump\t// in\n    tag_243:\n        /* \"#utility.yul\":3191:3194   */\n      dup3\n        /* \"#utility.yul\":3184:3218   */\n      mstore\n        /* \"#utility.yul\":3115:3224   */\n      pop\n      pop\n      jump\t// out\n        /* \"#utility.yul\":3230:3440   */\n    tag_27:\n        /* \"#utility.yul\":3317:3321   */\n      0x00\n        /* \"#utility.yul\":3355:3357   */\n      0x20\n        /* \"#utility.yul\":3344:3353   */\n      dup3\n        /* \"#utility.yul\":3340:3358   */\n      add\n        /* \"#utility.yul\":3332:3358   */\n      swap1\n      pop\n        /* \"#utility.yul\":3368:3433   */\n      tag_245\n        /* \"#utility.yul\":3430:3431   */\n      0x00\n        /* \"#utility.yul\":3419:3428   */\n      dup4\n        /* \"#utility.yul\":3415:3432   */\n      add\n        /* \"#utility.yul\":3406:3412   */\n      dup5\n        /* \"#utility.yul\":3368:3433   */\n      tag_182\n      jump\t// in\n    tag_245:\n        /* \"#utility.yul\":3230:3440   */\n      swap3\n      swap2\n      pop\n      pop\n      jump\t// out\n        /* \"#utility.yul\":3446:3564   */\n    tag_183:\n        /* \"#utility.yul\":3533:3557   */\n      tag_247\n        /* \"#utility.yul\":3551:3556   */\n      dup2\n        /* \"#utility.yul\":3533:3557   */\n      tag_178\n      jump\t// in\n    tag_247:\n        /* \"#utility.yul\":3528:3531   */\n      dup3\n        /* \"#utility.yul\":3521:3558   */\n      mstore\n        /* \"#utility.yul\":3446:3564   */\n      pop\n      pop\n      jump\t// out\n        /* \"#utility.yul\":3570:3792   */\n    tag_31:\n        /* \"#utility.yul\":3663:3667   */\n      0x00\n        /* \"#utility.yul\":3701:3703   */\n      0x20\n        /* \"#utility.yul\":3690:3699   */\n      dup3\n        /* \"#utility.yul\":3686:3704   */\n      add\n        /* \"#utility.yul\":3678:3704   */\n      swap1\n      pop\n        /* \"#utility.yul\":3714:3785   */\n      tag_249\n        /* \"#utility.yul\":3782:3783   */\n      0x00\n        /* \"#utility.yul\":3771:3780   */\n      dup4\n        /* \"#utility.yul\":3767:3784   */\n      add\n        /* \"#utility.yul\":3758:3764   */\n      dup5\n        /* \"#utility.yul\":3714:3785   */\n      tag_183\n      jump\t// in\n    tag_249:\n        /* \"#utility.yul\":3570:3792   */\n      swap3\n      swap2\n      pop\n      pop\n      jump\t// out\n        /* \"#utility.yul\":3798:4417   */\n    tag_34:\n        /* \"#utility.yul\":3875:3881   */\n      0x00\n        /* \"#utility.yul\":3883:3889   */\n      dup1\n        /* \"#utility.yul\":3891:3897   */\n      0x00\n        /* \"#utility.yul\":3940:3942   */\n      0x60\n        /* \"#utility.yul\":3928:3937   */\n      dup5\n        /* \"#utility.yul\":3919:3926   */\n      dup7\n        /* \"#utility.yul\":3915:3938   */\n      sub\n        /* \"#utility.yul\":3911:3943   */\n      slt\n        /* \"#utility.yul\":3908:4027   */\n      iszero\n      tag_251\n      jumpi\n        /* \"#utility.yul\":3946:4025   */\n      tag_252\n      tag_172\n      jump\t// in\n    tag_252:\n        /* \"#utility.yul\":3908:4027   */\n    tag_251:\n        /* \"#utility.yul\":4066:4067   */\n      0x00\n        /* \"#utility.yul\":4091:4144   */\n      tag_253\n        /* \"#utility.yul\":4136:4143   */\n      dup7\n        /* \"#utility.yul\":4127:4133   */\n      dup3\n        /* \"#utility.yul\":4116:4125   */\n      dup8\n        /* \"#utility.yul\":4112:4134   */\n      add\n        /* \"#utility.yul\":4091:4144   */\n      tag_177\n      jump\t// in\n    tag_253:\n        /* \"#utility.yul\":4081:4144   */\n      swap4\n      pop\n        /* \"#utility.yul\":4037:4154   */\n      pop\n        /* \"#utility.yul\":4193:4195   */\n      0x20\n        /* \"#utility.yul\":4219:4272   */\n      tag_254\n        /* \"#utility.yul\":4264:4271   */\n      dup7\n        /* \"#utility.yul\":4255:4261   */\n      dup3\n        /* \"#utility.yul\":4244:4253   */\n      dup8\n        /* \"#utility.yul\":4240:4262   */\n      add\n        /* \"#utility.yul\":4219:4272   */\n      tag_177\n      jump\t// in\n    tag_254:\n        /* \"#utility.yul\":4209:4272   */\n      swap3\n      pop\n        /* \"#utility.yul\":4164:4282   */\n      pop\n        /* \"#utility.yul\":4321:4323   */\n      0x40\n        /* \"#utility.yul\":4347:4400   */\n      tag_255\n        /* \"#utility.yul\":4392:4399   */\n      dup7\n        /* \"#utility.yul\":4383:4389   */\n      dup3\n        /* \"#utility.yul\":4372:4381   */\n      dup8\n        /* \"#utility.yul\":4368:4390   */\n      add\n        /* \"#utility.yul\":4347:4400   */\n      tag_180\n      jump\t// in\n    tag_255:\n        /* \"#utility.yul\":4337:4400   */\n      swap2\n      pop\n        /* \"#utility.yul\":4292:4410   */\n      pop\n        /* \"#utility.yul\":3798:4417   */\n      swap3\n      pop\n      swap3\n      pop\n      swap3\n      jump\t// out\n        /* \"#utility.yul\":4423:4509   */\n    tag_184:\n        /* \"#utility.yul\":4458:4465   */\n      0x00\n        /* \"#utility.yul\":4498:4502   */\n      0xff\n        /* \"#utility.yul\":4491:4496   */\n      dup3\n        /* \"#utility.yul\":4487:4503   */\n      and\n        /* \"#utility.yul\":4476:4503   */\n      swap1\n      pop\n        /* \"#utility.yul\":4423:4509   */\n      swap2\n      swap1\n      pop\n      jump\t// out\n        /* \"#utility.yul\":4515:4627   */\n    tag_185:\n        /* \"#utility.yul\":4598:4620   */\n      tag_258\n        /* \"#utility.yul\":4614:4619   */\n      dup2\n        /* \"#utility.yul\":4598:4620   */\n      tag_184\n      jump\t// in\n    tag_258:\n        /* \"#utility.yul\":4593:4596   */\n      dup3\n        /* \"#utility.yul\":4586:4621   */\n      mstore\n        /* \"#utility.yul\":4515:4627   */\n      pop\n      pop\n      jump\t// out\n        /* \"#utility.yul\":4633:4847   */\n    tag_40:\n        /* \"#utility.yul\":4722:4726   */\n      0x00\n        /* \"#utility.yul\":4760:4762   */\n      0x20\n        /* \"#utility.yul\":4749:4758   */\n      dup3\n        /* \"#utility.yul\":4745:4763   */\n      add\n        /* \"#utility.yul\":4737:4763   */\n      swap1\n      pop\n        /* \"#utility.yul\":4773:4840   */\n      tag_260\n        /* \"#utility.yul\":4837:4838   */\n      0x00\n        /* \"#utility.yul\":4826:4835   */\n      dup4\n        /* \"#utility.yul\":4822:4839   */\n      add\n        /* \"#utility.yul\":4813:4819   */\n      dup5\n        /* \"#utility.yul\":4773:4840   */\n      tag_185\n      jump\t// in\n    tag_260:\n        /* \"#utility.yul\":4633:4847   */\n      swap3\n      swap2\n      pop\n      pop\n      jump\t// out\n        /* \"#utility.yul\":4853:5182   */\n    tag_50:\n        /* \"#utility.yul\":4912:4918   */\n      0x00\n        /* \"#utility.yul\":4961:4963   */\n      0x20\n        /* \"#utility.yul\":4949:4958   */\n      dup3\n        /* \"#utility.yul\":4940:4947   */\n      dup5\n        /* \"#utility.yul\":4936:4959   */\n      sub\n        /* \"#utility.yul\":4932:4964   */\n      slt\n        /* \"#utility.yul\":4929:5048   */\n      iszero\n      tag_262\n      jumpi\n        /* \"#utility.yul\":4967:5046   */\n      tag_263\n      tag_172\n      jump\t// in\n    tag_263:\n        /* \"#utility.yul\":4929:5048   */\n    tag_262:\n        /* \"#utility.yul\":5087:5088   */\n      0x00\n        /* \"#utility.yul\":5112:5165   */\n      tag_264\n        /* \"#utility.yul\":5157:5164   */\n      dup5\n        /* \"#utility.yul\":5148:5154   */\n      dup3\n        /* \"#utility.yul\":5137:5146   */\n      dup6\n        /* \"#utility.yul\":5133:5155   */\n      add\n        /* \"#utility.yul\":5112:5165   */\n      tag_177\n      jump\t// in\n    tag_264:\n        /* \"#utility.yul\":5102:5165   */\n      swap2\n      pop\n        /* \"#utility.yul\":5058:5175   */\n      pop\n        /* \"#utility.yul\":4853:5182   */\n      swap3\n      swap2\n      pop\n      pop\n      jump\t// out\n        /* \"#utility.yul\":5188:5662   */\n    tag_66:\n        /* \"#utility.yul\":5256:5262   */\n      0x00\n        /* \"#utility.yul\":5264:5270   */\n      dup1\n        /* \"#utility.yul\":5313:5315   */\n      0x40\n        /* \"#utility.yul\":5301:5310   */\n      dup4\n        /* \"#utility.yul\":5292:5299   */\n      dup6\n        /* \"#utility.yul\":5288:5311   */\n      sub\n        /* \"#utility.yul\":5284:5316   */\n      slt\n        /* \"#utility.yul\":5281:5400   */\n      iszero\n      tag_266\n      jumpi\n        /* \"#utility.yul\":5319:5398   */\n      tag_267\n      tag_172\n      jump\t// in\n    tag_267:\n        /* \"#utility.yul\":5281:5400   */\n    tag_266:\n        /* \"#utility.yul\":5439:5440   */\n      0x00\n        /* \"#utility.yul\":5464:5517   */\n      tag_268\n        /* \"#utility.yul\":5509:5516   */\n      dup6\n        /* \"#utility.yul\":5500:5506   */\n      dup3\n        /* \"#utility.yul\":5489:5498   */\n      dup7\n        /* \"#utility.yul\":5485:5507   */\n      add\n        /* \"#utility.yul\":5464:5517   */\n      tag_177\n      jump\t// in\n    tag_268:\n        /* \"#utility.yul\":5454:5517   */\n      swap3\n      pop\n        /* \"#utility.yul\":5410:5527   */\n      pop\n        /* \"#utility.yul\":5566:5568   */\n      0x20\n        /* \"#utility.yul\":5592:5645   */\n      tag_269\n        /* \"#utility.yul\":5637:5644   */\n      dup6\n        /* \"#utility.yul\":5628:5634   */\n      dup3\n        /* \"#utility.yul\":5617:5626   */\n      dup7\n        /* \"#utility.yul\":5613:5635   */\n      add\n        /* \"#utility.yul\":5592:5645   */\n      tag_177\n      jump\t// in\n    tag_269:\n        /* \"#utility.yul\":5582:5645   */\n      swap2\n      pop\n        /* \"#utility.yul\":5537:5655   */\n      pop\n        /* \"#utility.yul\":5188:5662   */\n      swap3\n      pop\n      swap3\n      swap1\n      pop\n      jump\t// out\n        /* \"#utility.yul\":5668:5848   */\n    tag_186:\n        /* \"#utility.yul\":5716:5793   */\n      0x4e487b7100000000000000000000000000000000000000000000000000000000\n        /* \"#utility.yul\":5713:5714   */\n      0x00\n        /* \"#utility.yul\":5706:5794   */\n      mstore\n        /* \"#utility.yul\":5813:5817   */\n      0x22\n        /* \"#utility.yul\":5810:5811   */\n      0x04\n        /* \"#utility.yul\":5803:5818   */\n      mstore\n        /* \"#utility.yul\":5837:5841   */\n      0x24\n        /* \"#utility.yul\":5834:5835   */\n      0x00\n        /* \"#utility.yul\":5827:5842   */\n      revert\n        /* \"#utility.yul\":5854:6174   */\n    tag_74:\n        /* \"#utility.yul\":5898:5904   */\n      0x00\n        /* \"#utility.yul\":5935:5936   */\n      0x02\n        /* \"#utility.yul\":5929:5933   */\n      dup3\n        /* \"#utility.yul\":5925:5937   */\n      div\n        /* \"#utility.yul\":5915:5937   */\n      swap1\n      pop\n        /* \"#utility.yul\":5982:5983   */\n      0x01\n        /* \"#utility.yul\":5976:5980   */\n      dup3\n        /* \"#utility.yul\":5972:5984   */\n      and\n        /* \"#utility.yul\":6003:6021   */\n      dup1\n        /* \"#utility.yul\":5993:6074   */\n      tag_272\n      jumpi\n        /* \"#utility.yul\":6059:6063   */\n      0x7f\n        /* \"#utility.yul\":6051:6057   */\n      dup3\n        /* \"#utility.yul\":6047:6064   */\n      and\n        /* \"#utility.yul\":6037:6064   */\n      swap2\n      pop\n        /* \"#utility.yul\":5993:6074   */\n    tag_272:\n        /* \"#utility.yul\":6121:6123   */\n      0x20\n        /* \"#utility.yul\":6113:6119   */\n      dup3\n        /* \"#utility.yul\":6110:6124   */\n      lt\n        /* \"#utility.yul\":6090:6108   */\n      dup2\n        /* \"#utility.yul\":6087:6125   */\n      sub\n        /* \"#utility.yul\":6084:6168   */\n      tag_273\n      jumpi\n        /* \"#utility.yul\":6140:6158   */\n      tag_274\n      tag_186\n      jump\t// in\n    tag_274:\n        /* \"#utility.yul\":6084:6168   */\n    tag_273:\n        /* \"#utility.yul\":5905:6174   */\n      pop\n        /* \"#utility.yul\":5854:6174   */\n      swap2\n      swap1\n      pop\n      jump\t// out\n        /* \"#utility.yul\":6180:6360   */\n    tag_187:\n        /* \"#utility.yul\":6228:6305   */\n      0x4e487b7100000000000000000000000000000000000000000000000000000000\n        /* \"#utility.yul\":6225:6226   */\n      0x00\n        /* \"#utility.yul\":6218:6306   */\n      mstore\n        /* \"#utility.yul\":6325:6329   */\n      0x11\n        /* \"#utility.yul\":6322:6323   */\n      0x04\n        /* \"#utility.yul\":6315:6330   */\n      mstore\n        /* \"#utility.yul\":6349:6353   */\n      0x24\n        /* \"#utility.yul\":6346:6347   */\n      0x00\n        /* \"#utility.yul\":6339:6354   */\n      revert\n        /* \"#utility.yul\":6366:6557   */\n    tag_97:\n        /* \"#utility.yul\":6406:6409   */\n      0x00\n        /* \"#utility.yul\":6425:6445   */\n      tag_277\n        /* \"#utility.yul\":6443:6444   */\n      dup3\n        /* \"#utility.yul\":6425:6445   */\n      tag_178\n      jump\t// in\n    tag_277:\n        /* \"#utility.yul\":6420:6445   */\n      swap2\n      pop\n        /* \"#utility.yul\":6459:6479   */\n      tag_278\n        /* \"#utility.yul\":6477:6478   */\n      dup4\n        /* \"#utility.yul\":6459:6479   */\n      tag_178\n      jump\t// in\n    tag_278:\n        /* \"#utility.yul\":6454:6479   */\n      swap3\n      pop\n        /* \"#utility.yul\":6502:6503   */\n      dup3\n        /* \"#utility.yul\":6499:6500   */\n      dup3\n        /* \"#utility.yul\":6495:6504   */\n      add\n        /* \"#utility.yul\":6488:6504   */\n      swap1\n      pop\n        /* \"#utility.yul\":6523:6526   */\n      dup1\n        /* \"#utility.yul\":6520:6521   */\n      dup3\n        /* \"#utility.yul\":6517:6527   */\n      gt\n        /* \"#utility.yul\":6514:6550   */\n      iszero\n      tag_279\n      jumpi\n        /* \"#utility.yul\":6530:6548   */\n      tag_280\n      tag_187\n      jump\t// in\n    tag_280:\n        /* \"#utility.yul\":6514:6550   */\n    tag_279:\n        /* \"#utility.yul\":6366:6557   */\n      swap3\n      swap2\n      pop\n      pop\n      jump\t// out\n        /* \"#utility.yul\":6563:6787   */\n    tag_188:\n        /* \"#utility.yul\":6703:6737   */\n      0x45524332303a2064656372656173656420616c6c6f77616e63652062656c6f77\n        /* \"#utility.yul\":6699:6700   */\n      0x00\n        /* \"#utility.yul\":6691:6697   */\n      dup3\n        /* \"#utility.yul\":6687:6701   */\n      add\n        /* \"#utility.yul\":6680:6738   */\n      mstore\n        /* \"#utility.yul\":6772:6779   */\n      0x207a65726f000000000000000000000000000000000000000000000000000000\n        /* \"#utility.yul\":6767:6769   */\n      0x20\n        /* \"#utility.yul\":6759:6765   */\n      dup3\n        /* \"#utility.yul\":6755:6770   */\n      add\n        /* \"#utility.yul\":6748:6780   */\n      mstore\n        /* \"#utility.yul\":6563:6787   */\n      pop\n      jump\t// out\n        /* \"#utility.yul\":6793:7159   */\n    tag_189:\n        /* \"#utility.yul\":6935:6938   */\n      0x00\n        /* \"#utility.yul\":6956:7023   */\n      tag_283\n        /* \"#utility.yul\":7020:7022   */\n      0x25\n        /* \"#utility.yul\":7015:7018   */\n      dup4\n        /* \"#utility.yul\":6956:7023   */\n      tag_167\n      jump\t// in\n    tag_283:\n        /* \"#utility.yul\":6949:7023   */\n      swap2\n      pop\n        /* \"#utility.yul\":7032:7125   */\n      tag_284\n        /* \"#utility.yul\":7121:7124   */\n      dup3\n        /* \"#utility.yul\":7032:7125   */\n      tag_188\n      jump\t// in\n    tag_284:\n        /* \"#utility.yul\":7150:7152   */\n      0x40\n        /* \"#utility.yul\":7145:7148   */\n      dup3\n        /* \"#utility.yul\":7141:7153   */\n      add\n        /* \"#utility.yul\":7134:7153   */\n      swap1\n      pop\n        /* \"#utility.yul\":6793:7159   */\n      swap2\n      swap1\n      pop\n      jump\t// out\n        /* \"#utility.yul\":7165:7584   */\n    tag_113:\n        /* \"#utility.yul\":7331:7335   */\n      0x00\n        /* \"#utility.yul\":7369:7371   */\n      0x20\n        /* \"#utility.yul\":7358:7367   */\n      dup3\n        /* \"#utility.yul\":7354:7372   */\n      add\n        /* \"#utility.yul\":7346:7372   */\n      swap1\n      pop\n        /* \"#utility.yul\":7418:7427   */\n      dup2\n        /* \"#utility.yul\":7412:7416   */\n      dup2\n        /* \"#utility.yul\":7408:7428   */\n      sub\n        /* \"#utility.yul\":7404:7405   */\n      0x00\n        /* \"#utility.yul\":7393:7402   */\n      dup4\n        /* \"#utility.yul\":7389:7406   */\n      add\n        /* \"#utility.yul\":7382:7429   */\n      mstore\n        /* \"#utility.yul\":7446:7577   */\n      tag_286\n        /* \"#utility.yul\":7572:7576   */\n      dup2\n        /* \"#utility.yul\":7446:7577   */\n      tag_189\n      jump\t// in\n    tag_286:\n        /* \"#utility.yul\":7438:7577   */\n      swap1\n      pop\n        /* \"#utility.yul\":7165:7584   */\n      swap2\n      swap1\n      pop\n      jump\t// out\n        /* \"#utility.yul\":7590:7784   */\n    tag_121:\n        /* \"#utility.yul\":7630:7634   */\n      0x00\n        /* \"#utility.yul\":7650:7670   */\n      tag_288\n        /* \"#utility.yul\":7668:7669   */\n      dup3\n        /* \"#utility.yul\":7650:7670   */\n      tag_178\n      jump\t// in\n    tag_288:\n        /* \"#utility.yul\":7645:7670   */\n      swap2\n      pop\n        /* \"#utility.yul\":7684:7704   */\n      tag_289\n        /* \"#utility.yul\":7702:7703   */\n      dup4\n        /* \"#utility.yul\":7684:7704   */\n      tag_178\n      jump\t// in\n    tag_289:\n        /* \"#utility.yul\":7679:7704   */\n      swap3\n      pop\n        /* \"#utility.yul\":7728:7729   */\n      dup3\n        /* \"#utility.yul\":7725:7726   */\n      dup3\n        /* \"#utility.yul\":7721:7730   */\n      sub\n        /* \"#utility.yul\":7713:7730   */\n      swap1\n      pop\n        /* \"#utility.yul\":7752:7753   */\n      dup2\n        /* \"#utility.yul\":7746:7750   */\n      dup2\n        /* \"#utility.yul\":7743:7754   */\n      gt\n        /* \"#utility.yul\":7740:7777   */\n      iszero\n      tag_290\n      jumpi\n        /* \"#utility.yul\":7757:7775   */\n      tag_291\n      tag_187\n      jump\t// in\n    tag_291:\n        /* \"#utility.yul\":7740:7777   */\n    tag_290:\n        /* \"#utility.yul\":7590:7784   */\n      swap3\n      swap2\n      pop\n      pop\n      jump\t// out\n        /* \"#utility.yul\":7790:8013   */\n    tag_190:\n        /* \"#utility.yul\":7930:7964   */\n      0x45524332303a20617070726f76652066726f6d20746865207a65726f20616464\n        /* \"#utility.yul\":7926:7927   */\n      0x00\n        /* \"#utility.yul\":7918:7924   */\n      dup3\n        /* \"#utility.yul\":7914:7928   */\n      add\n        /* \"#utility.yul\":7907:7965   */\n      mstore\n        /* \"#utility.yul\":7999:8005   */\n      0x7265737300000000000000000000000000000000000000000000000000000000\n        /* \"#utility.yul\":7994:7996   */\n      0x20\n        /* \"#utility.yul\":7986:7992   */\n      dup3\n        /* \"#utility.yul\":7982:7997   */\n      add\n        /* \"#utility.yul\":7975:8006   */\n      mstore\n        /* \"#utility.yul\":7790:8013   */\n      pop\n      jump\t// out\n        /* \"#utility.yul\":8019:8385   */\n    tag_191:\n        /* \"#utility.yul\":8161:8164   */\n      0x00\n        /* \"#utility.yul\":8182:8249   */\n      tag_294\n        /* \"#utility.yul\":8246:8248   */\n      0x24\n        /* \"#utility.yul\":8241:8244   */\n      dup4\n        /* \"#utility.yul\":8182:8249   */\n      tag_167\n      jump\t// in\n    tag_294:\n        /* \"#utility.yul\":8175:8249   */\n      swap2\n      pop\n        /* \"#utility.yul\":8258:8351   */\n      tag_295\n        /* \"#utility.yul\":8347:8350   */\n      dup3\n        /* \"#utility.yul\":8258:8351   */\n      tag_190\n      jump\t// in\n    tag_295:\n        /* \"#utility.yul\":8376:8378   */\n      0x40\n        /* \"#utility.yul\":8371:8374   */\n      dup3\n        /* \"#utility.yul\":8367:8379   */\n      add\n        /* \"#utility.yul\":8360:8379   */\n      swap1\n      pop\n        /* \"#utility.yul\":8019:8385   */\n      swap2\n      swap1\n      pop\n      jump\t// out\n        /* \"#utility.yul\":8391:8810   */\n    tag_127:\n        /* \"#utility.yul\":8557:8561   */\n      0x00\n        /* \"#utility.yul\":8595:8597   */\n      0x20\n        /* \"#utility.yul\":8584:8593   */\n      dup3\n        /* \"#utility.yul\":8580:8598   */\n      add\n        /* \"#utility.yul\":8572:8598   */\n      swap1\n      pop\n        /* \"#utility.yul\":8644:8653   */\n      dup2\n        /* \"#utility.yul\":8638:8642   */\n      dup2\n        /* \"#utility.yul\":8634:8654   */\n      sub\n        /* \"#utility.yul\":8630:8631   */\n      0x00\n        /* \"#utility.yul\":8619:8628   */\n      dup4\n        /* \"#utility.yul\":8615:8632   */\n      add\n        /* \"#utility.yul\":8608:8655   */\n      mstore\n        /* \"#utility.yul\":8672:8803   */\n      tag_297\n        /* \"#utility.yul\":8798:8802   */\n      dup2\n        /* \"#utility.yul\":8672:8803   */\n      tag_191\n      jump\t// in\n    tag_297:\n        /* \"#utility.yul\":8664:8803   */\n      swap1\n      pop\n        /* \"#utility.yul\":8391:8810   */\n      swap2\n      swap1\n      pop\n      jump\t// out\n        /* \"#utility.yul\":8816:9037   */\n    tag_192:\n        /* \"#utility.yul\":8956:8990   */\n      0x45524332303a20617070726f766520746f20746865207a65726f206164647265\n        /* \"#utility.yul\":8952:8953   */\n      0x00\n        /* \"#utility.yul\":8944:8950   */\n      dup3\n        /* \"#utility.yul\":8940:8954   */\n      add\n        /* \"#utility.yul\":8933:8991   */\n      mstore\n        /* \"#utility.yul\":9025:9029   */\n      0x7373000000000000000000000000000000000000000000000000000000000000\n        /* \"#utility.yul\":9020:9022   */\n      0x20\n        /* \"#utility.yul\":9012:9018   */\n      dup3\n        /* \"#utility.yul\":9008:9023   */\n      add\n        /* \"#utility.yul\":9001:9030   */\n      mstore\n        /* \"#utility.yul\":8816:9037   */\n      pop\n      jump\t// out\n        /* \"#utility.yul\":9043:9409   */\n    tag_193:\n        /* \"#utility.yul\":9185:9188   */\n      0x00\n        /* \"#utility.yul\":9206:9273   */\n      tag_300\n        /* \"#utility.yul\":9270:9272   */\n      0x22\n        /* \"#utility.yul\":9265:9268   */\n      dup4\n        /* \"#utility.yul\":9206:9273   */\n      tag_167\n      jump\t// in\n    tag_300:\n        /* \"#utility.yul\":9199:9273   */\n      swap2\n      pop\n        /* \"#utility.yul\":9282:9375   */\n      tag_301\n        /* \"#utility.yul\":9371:9374   */\n      dup3\n        /* \"#utility.yul\":9282:9375   */\n      tag_192\n      jump\t// in\n    tag_301:\n        /* \"#utility.yul\":9400:9402   */\n      0x40\n        /* \"#utility.yul\":9395:9398   */\n      dup3\n        /* \"#utility.yul\":9391:9403   */\n      add\n        /* \"#utility.yul\":9384:9403   */\n      swap1\n      pop\n        /* \"#utility.yul\":9043:9409   */\n      swap2\n      swap1\n      pop\n      jump\t// out\n        /* \"#utility.yul\":9415:9834   */\n    tag_130:\n        /* \"#utility.yul\":9581:9585   */\n      0x00\n        /* \"#utility.yul\":9619:9621   */\n      0x20\n        /* \"#utility.yul\":9608:9617   */\n      dup3\n        /* \"#utility.yul\":9604:9622   */\n      add\n        /* \"#utility.yul\":9596:9622   */\n      swap1\n      pop\n        /* \"#utility.yul\":9668:9677   */\n      dup2\n        /* \"#utility.yul\":9662:9666   */\n      dup2\n        /* \"#utility.yul\":9658:9678   */\n      sub\n        /* \"#utility.yul\":9654:9655   */\n      0x00\n        /* \"#utility.yul\":9643:9652   */\n      dup4\n        /* \"#utility.yul\":9639:9656   */\n      add\n        /* \"#utility.yul\":9632:9679   */\n      mstore\n        /* \"#utility.yul\":9696:9827   */\n      tag_303\n        /* \"#utility.yul\":9822:9826   */\n      dup2\n        /* \"#utility.yul\":9696:9827   */\n      tag_193\n      jump\t// in\n    tag_303:\n        /* \"#utility.yul\":9688:9827   */\n      swap1\n      pop\n        /* \"#utility.yul\":9415:9834   */\n      swap2\n      swap1\n      pop\n      jump\t// out\n        /* \"#utility.yul\":9840:10019   */\n    tag_194:\n        /* \"#utility.yul\":9980:10011   */\n      0x45524332303a20696e73756666696369656e7420616c6c6f77616e6365000000\n        /* \"#utility.yul\":9976:9977   */\n      0x00\n        /* \"#utility.yul\":9968:9974   */\n      dup3\n        /* \"#utility.yul\":9964:9978   */\n      add\n        /* \"#utility.yul\":9957:10012   */\n      mstore\n        /* \"#utility.yul\":9840:10019   */\n      pop\n      jump\t// out\n        /* \"#utility.yul\":10025:10391   */\n    tag_195:\n        /* \"#utility.yul\":10167:10170   */\n      0x00\n        /* \"#utility.yul\":10188:10255   */\n      tag_306\n        /* \"#utility.yul\":10252:10254   */\n      0x1d\n        /* \"#utility.yul\":10247:10250   */\n      dup4\n        /* \"#utility.yul\":10188:10255   */\n      tag_167\n      jump\t// in\n    tag_306:\n        /* \"#utility.yul\":10181:10255   */\n      swap2\n      pop\n        /* \"#utility.yul\":10264:10357   */\n      tag_307\n        /* \"#utility.yul\":10353:10356   */\n      dup3\n        /* \"#utility.yul\":10264:10357   */\n      tag_194\n      jump\t// in\n    tag_307:\n        /* \"#utility.yul\":10382:10384   */\n      0x20\n        /* \"#utility.yul\":10377:10380   */\n      dup3\n        /* \"#utility.yul\":10373:10385   */\n      add\n        /* \"#utility.yul\":10366:10385   */\n      swap1\n      pop\n        /* \"#utility.yul\":10025:10391   */\n      swap2\n      swap1\n      pop\n      jump\t// out\n        /* \"#utility.yul\":10397:10816   */\n    tag_137:\n        /* \"#utility.yul\":10563:10567   */\n      0x00\n        /* \"#utility.yul\":10601:10603   */\n      0x20\n        /* \"#utility.yul\":10590:10599   */\n      dup3\n        /* \"#utility.yul\":10586:10604   */\n      add\n        /* \"#utility.yul\":10578:10604   */\n      swap1\n      pop\n        /* \"#utility.yul\":10650:10659   */\n      dup2\n        /* \"#utility.yul\":10644:10648   */\n      dup2\n        /* \"#utility.yul\":10640:10660   */\n      sub\n        /* \"#utility.yul\":10636:10637   */\n      0x00\n        /* \"#utility.yul\":10625:10634   */\n      dup4\n        /* \"#utility.yul\":10621:10638   */\n      add\n        /* \"#utility.yul\":10614:10661   */\n      mstore\n        /* \"#utility.yul\":10678:10809   */\n      tag_309\n        /* \"#utility.yul\":10804:10808   */\n      dup2\n        /* \"#utility.yul\":10678:10809   */\n      tag_195\n      jump\t// in\n    tag_309:\n        /* \"#utility.yul\":10670:10809   */\n      swap1\n      pop\n        /* \"#utility.yul\":10397:10816   */\n      swap2\n      swap1\n      pop\n      jump\t// out\n        /* \"#utility.yul\":10822:11046   */\n    tag_196:\n        /* \"#utility.yul\":10962:10996   */\n      0x45524332303a207472616e736665722066726f6d20746865207a65726f206164\n        /* \"#utility.yul\":10958:10959   */\n      0x00\n        /* \"#utility.yul\":10950:10956   */\n      dup3\n        /* \"#utility.yul\":10946:10960   */\n      add\n        /* \"#utility.yul\":10939:10997   */\n      mstore\n        /* \"#utility.yul\":11031:11038   */\n      0x6472657373000000000000000000000000000000000000000000000000000000\n        /* \"#utility.yul\":11026:11028   */\n      0x20\n        /* \"#utility.yul\":11018:11024   */\n      dup3\n        /* \"#utility.yul\":11014:11029   */\n      add\n        /* \"#utility.yul\":11007:11039   */\n      mstore\n        /* \"#utility.yul\":10822:11046   */\n      pop\n      jump\t// out\n        /* \"#utility.yul\":11052:11418   */\n    tag_197:\n        /* \"#utility.yul\":11194:11197   */\n      0x00\n        /* \"#utility.yul\":11215:11282   */\n      tag_312\n        /* \"#utility.yul\":11279:11281   */\n      0x25\n        /* \"#utility.yul\":11274:11277   */\n      dup4\n        /* \"#utility.yul\":11215:11282   */\n      tag_167\n      jump\t// in\n    tag_312:\n        /* \"#utility.yul\":11208:11282   */\n      swap2\n      pop\n        /* \"#utility.yul\":11291:11384   */\n      tag_313\n        /* \"#utility.yul\":11380:11383   */\n      dup3\n        /* \"#utility.yul\":11291:11384   */\n      tag_196\n      jump\t// in\n    tag_313:\n        /* \"#utility.yul\":11409:11411   */\n      0x40\n        /* \"#utility.yul\":11404:11407   */\n      dup3\n        /* \"#utility.yul\":11400:11412   */\n      add\n        /* \"#utility.yul\":11393:11412   */\n      swap1\n      pop\n        /* \"#utility.yul\":11052:11418   */\n      swap2\n      swap1\n      pop\n      jump\t// out\n        /* \"#utility.yul\":11424:11843   */\n    tag_142:\n        /* \"#utility.yul\":11590:11594   */\n      0x00\n        /* \"#utility.yul\":11628:11630   */\n      0x20\n        /* \"#utility.yul\":11617:11626   */\n      dup3\n        /* \"#utility.yul\":11613:11631   */\n      add\n        /* \"#utility.yul\":11605:11631   */\n      swap1\n      pop\n        /* \"#utility.yul\":11677:11686   */\n      dup2\n        /* \"#utility.yul\":11671:11675   */\n      dup2\n        /* \"#utility.yul\":11667:11687   */\n      sub\n        /* \"#utility.yul\":11663:11664   */\n      0x00\n        /* \"#utility.yul\":11652:11661   */\n      dup4\n        /* \"#utility.yul\":11648:11665   */\n      add\n        /* \"#utility.yul\":11641:11688   */\n      mstore\n        /* \"#utility.yul\":11705:11836   */\n      tag_315\n        /* \"#utility.yul\":11831:11835   */\n      dup2\n        /* \"#utility.yul\":11705:11836   */\n      tag_197\n      jump\t// in\n    tag_315:\n        /* \"#utility.yul\":11697:11836   */\n      swap1\n      pop\n        /* \"#utility.yul\":11424:11843   */\n      swap2\n      swap1\n      pop\n      jump\t// out\n        /* \"#utility.yul\":11849:12071   */\n    tag_198:\n        /* \"#utility.yul\":11989:12023   */\n      0x45524332303a207472616e7366657220746f20746865207a65726f2061646472\n        /* \"#utility.yul\":11985:11986   */\n      0x00\n        /* \"#utility.yul\":11977:11983   */\n      dup3\n        /* \"#utility.yul\":11973:11987   */\n      add\n        /* \"#utility.yul\":11966:12024   */\n      mstore\n        /* \"#utility.yul\":12058:12063   */\n      0x6573730000000000000000000000000000000000000000000000000000000000\n        /* \"#utility.yul\":12053:12055   */\n      0x20\n        /* \"#utility.yul\":12045:12051   */\n      dup3\n        /* \"#utility.yul\":12041:12056   */\n      add\n        /* \"#utility.yul\":12034:12064   */\n      mstore\n        /* \"#utility.yul\":11849:12071   */\n      pop\n      jump\t// out\n        /* \"#utility.yul\":12077:12443   */\n    tag_199:\n        /* \"#utility.yul\":12219:12222   */\n      0x00\n        /* \"#utility.yul\":12240:12307   */\n      tag_318\n        /* \"#utility.yul\":12304:12306   */\n      0x23\n        /* \"#utility.yul\":12299:12302   */\n      dup4\n        /* \"#utility.yul\":12240:12307   */\n      tag_167\n      jump\t// in\n    tag_318:\n        /* \"#utility.yul\":12233:12307   */\n      swap2\n      pop\n        /* \"#utility.yul\":12316:12409   */\n      tag_319\n        /* \"#utility.yul\":12405:12408   */\n      dup3\n        /* \"#utility.yul\":12316:12409   */\n      tag_198\n      jump\t// in\n    tag_319:\n        /* \"#utility.yul\":12434:12436   */\n      0x40\n        /* \"#utility.yul\":12429:12432   */\n      dup3\n        /* \"#utility.yul\":12425:12437   */\n      add\n        /* \"#utility.yul\":12418:12437   */\n      swap1\n      pop\n        /* \"#utility.yul\":12077:12443   */\n      swap2\n      swap1\n      pop\n      jump\t// out\n        /* \"#utility.yul\":12449:12868   */\n    tag_145:\n        /* \"#utility.yul\":12615:12619   */\n      0x00\n        /* \"#utility.yul\":12653:12655   */\n      0x20\n        /* \"#utility.yul\":12642:12651   */\n      dup3\n        /* \"#utility.yul\":12638:12656   */\n      add\n        /* \"#utility.yul\":12630:12656   */\n      swap1\n      pop\n        /* \"#utility.yul\":12702:12711   */\n      dup2\n        /* \"#utility.yul\":12696:12700   */\n      dup2\n        /* \"#utility.yul\":12692:12712   */\n      sub\n        /* \"#utility.yul\":12688:12689   */\n      0x00\n        /* \"#utility.yul\":12677:12686   */\n      dup4\n        /* \"#utility.yul\":12673:12690   */\n      add\n        /* \"#utility.yul\":12666:12713   */\n      mstore\n        /* \"#utility.yul\":12730:12861   */\n      tag_321\n        /* \"#utility.yul\":12856:12860   */\n      dup2\n        /* \"#utility.yul\":12730:12861   */\n      tag_199\n      jump\t// in\n    tag_321:\n        /* \"#utility.yul\":12722:12861   */\n      swap1\n      pop\n        /* \"#utility.yul\":12449:12868   */\n      swap2\n      swap1\n      pop\n      jump\t// out\n        /* \"#utility.yul\":12874:13099   */\n    tag_200:\n        /* \"#utility.yul\":13014:13048   */\n      0x45524332303a207472616e7366657220616d6f756e7420657863656564732062\n        /* \"#utility.yul\":13010:13011   */\n      0x00\n        /* \"#utility.yul\":13002:13008   */\n      dup3\n        /* \"#utility.yul\":12998:13012   */\n      add\n        /* \"#utility.yul\":12991:13049   */\n      mstore\n        /* \"#utility.yul\":13083:13091   */\n      0x616c616e63650000000000000000000000000000000000000000000000000000\n        /* \"#utility.yul\":13078:13080   */\n      0x20\n        /* \"#utility.yul\":13070:13076   */\n      dup3\n        /* \"#utility.yul\":13066:13081   */\n      add\n        /* \"#utility.yul\":13059:13092   */\n      mstore\n        /* \"#utility.yul\":12874:13099   */\n      pop\n      jump\t// out\n        /* \"#utility.yul\":13105:13471   */\n    tag_201:\n        /* \"#utility.yul\":13247:13250   */\n      0x00\n        /* \"#utility.yul\":13268:13335   */\n      tag_324\n        /* \"#utility.yul\":13332:13334   */\n      0x26\n        /* \"#utility.yul\":13327:13330   */\n      dup4\n        /* \"#utility.yul\":13268:13335   */\n      tag_167\n      jump\t// in\n    tag_324:\n        /* \"#utility.yul\":13261:13335   */\n      swap2\n      pop\n        /* \"#utility.yul\":13344:13437   */\n      tag_325\n        /* \"#utility.yul\":13433:13436   */\n      dup3\n        /* \"#utility.yul\":13344:13437   */\n      tag_200\n      jump\t// in\n    tag_325:\n        /* \"#utility.yul\":13462:13464   */\n      0x40\n        /* \"#utility.yul\":13457:13460   */\n      dup3\n        /* \"#utility.yul\":13453:13465   */\n      add\n        /* \"#utility.yul\":13446:13465   */\n      swap1\n      pop\n        /* \"#utility.yul\":13105:13471   */\n      swap2\n      swap1\n      pop\n      jump\t// out\n        /* \"#utility.yul\":13477:13896   */\n    tag_150:\n        /* \"#utility.yul\":13643:13647   */\n      0x00\n        /* \"#utility.yul\":13681:13683   */\n      0x20\n        /* \"#utility.yul\":13670:13679   */\n      dup3\n        /* \"#utility.yul\":13666:13684   */\n      add\n        /* \"#utility.yul\":13658:13684   */\n      swap1\n      pop\n        /* \"#utility.yul\":13730:13739   */\n      dup2\n        /* \"#utility.yul\":13724:13728   */\n      dup2\n        /* \"#utility.yul\":13720:13740   */\n      sub\n        /* \"#utility.yul\":13716:13717   */\n      0x00\n        /* \"#utility.yul\":13705:13714   */\n      dup4\n        /* \"#utility.yul\":13701:13718   */\n      add\n        /* \"#utility.yul\":13694:13741   */\n      mstore\n        /* \"#utility.yul\":13758:13889   */\n      tag_327\n        /* \"#utility.yul\":13884:13888   */\n      dup2\n        /* \"#utility.yul\":13758:13889   */\n      tag_201\n      jump\t// in\n    tag_327:\n        /* \"#utility.yul\":13750:13889   */\n      swap1\n      pop\n        /* \"#utility.yul\":13477:13896   */\n      swap2\n      swap1\n      pop\n      jump\t// out\n        /* \"#utility.yul\":13902:14083   */\n    tag_202:\n        /* \"#utility.yul\":14042:14075   */\n      0x45524332303a206d696e7420746f20746865207a65726f206164647265737300\n        /* \"#utility.yul\":14038:14039   */\n      0x00\n        /* \"#utility.yul\":14030:14036   */\n      dup3\n        /* \"#utility.yul\":14026:14040   */\n      add\n        /* \"#utility.yul\":14019:14076   */\n      mstore\n        /* \"#utility.yul\":13902:14083   */\n      pop\n      jump\t// out\n        /* \"#utility.yul\":14089:14455   */\n    tag_203:\n        /* \"#utility.yul\":14231:14234   */\n      0x00\n        /* \"#utility.yul\":14252:14319   */\n      tag_330\n        /* \"#utility.yul\":14316:14318   */\n      0x1f\n        /* \"#utility.yul\":14311:14314   */\n      dup4\n        /* \"#utility.yul\":14252:14319   */\n      tag_167\n      jump\t// in\n    tag_330:\n        /* \"#utility.yul\":14245:14319   */\n      swap2\n      pop\n        /* \"#utility.yul\":14328:14421   */\n      tag_331\n        /* \"#utility.yul\":14417:14420   */\n      dup3\n        /* \"#utility.yul\":14328:14421   */\n      tag_202\n      jump\t// in\n    tag_331:\n        /* \"#utility.yul\":14446:14448   */\n      0x20\n        /* \"#utility.yul\":14441:14444   */\n      dup3\n        /* \"#utility.yul\":14437:14449   */\n      add\n        /* \"#utility.yul\":14430:14449   */\n      swap1\n      pop\n        /* \"#utility.yul\":14089:14455   */\n      swap2\n      swap1\n      pop\n      jump\t// out\n        /* \"#utility.yul\":14461:14880   */\n    tag_158:\n        /* \"#utility.yul\":14627:14631   */\n      0x00\n        /* \"#utility.yul\":14665:14667   */\n      0x20\n        /* \"#utility.yul\":14654:14663   */\n      dup3\n        /* \"#utility.yul\":14650:14668   */\n      add\n        /* \"#utility.yul\":14642:14668   */\n      swap1\n      pop\n        /* \"#utility.yul\":14714:14723   */\n      dup2\n        /* \"#utility.yul\":14708:14712   */\n      dup2\n        /* \"#utility.yul\":14704:14724   */\n      sub\n        /* \"#utility.yul\":14700:14701   */\n      0x00\n        /* \"#utility.yul\":14689:14698   */\n      dup4\n        /* \"#utility.yul\":14685:14702   */\n      add\n        /* \"#utility.yul\":14678:14725   */\n      mstore\n        /* \"#utility.yul\":14742:14873   */\n      tag_333\n        /* \"#utility.yul\":14868:14872   */\n      dup2\n        /* \"#utility.yul\":14742:14873   */\n      tag_203\n      jump\t// in\n    tag_333:\n        /* \"#utility.yul\":14734:14873   */\n      swap1\n      pop\n        /* \"#utility.yul\":14461:14880   */\n      swap2\n      swap1\n      pop\n      jump\t// out\n\n    auxdata: 0xa26469706673582212203f0d41143f7806a457b0c274d547b616e445fbbe6abd4d407dfb3480b280993f64736f6c63430008110033\n}\n",
				"bytecode": {
					"linkReferences": {},
					"object": "60806040523480156200001157600080fd5b5060405162001b0f38038062001b0f8339818101604052810190620000379190620001f6565b8160039081620000489190620004c6565b5080600490816200005a9190620004c6565b505050620005ad565b6000604051905090565b600080fd5b600080fd5b600080fd5b600080fd5b6000601f19601f8301169050919050565b7f4e487b7100000000000000000000000000000000000000000000000000000000600052604160045260246000fd5b620000cc8262000081565b810181811067ffffffffffffffff82111715620000ee57620000ed62000092565b5b80604052505050565b60006200010362000063565b9050620001118282620000c1565b919050565b600067ffffffffffffffff82111562000134576200013362000092565b5b6200013f8262000081565b9050602081019050919050565b60005b838110156200016c5780820151818401526020810190506200014f565b60008484015250505050565b60006200018f620001898462000116565b620000f7565b905082815260208101848484011115620001ae57620001ad6200007c565b5b620001bb8482856200014c565b509392505050565b600082601f830112620001db57620001da62000077565b5b8151620001ed84826020860162000178565b91505092915050565b6000806040838503121562000210576200020f6200006d565b5b600083015167ffffffffffffffff81111562000231576200023062000072565b5b6200023f85828601620001c3565b925050602083015167ffffffffffffffff81111562000263576200026262000072565b5b6200027185828601620001c3565b9150509250929050565b600081519050919050565b7f4e487b7100000000000000000000000000000000000000000000000000000000600052602260045260246000fd5b60006002820490506001821680620002ce57607f821691505b602082108103620002e457620002e362000286565b5b50919050565b60008190508160005260206000209050919050565b60006020601f8301049050919050565b600082821b905092915050565b6000600883026200034e7fffffffffffffffffffffffffffffffffffffffffffffffffffffffffffffffff826200030f565b6200035a86836200030f565b95508019841693508086168417925050509392505050565b6000819050919050565b6000819050919050565b6000620003a7620003a16200039b8462000372565b6200037c565b62000372565b9050919050565b6000819050919050565b620003c38362000386565b620003db620003d282620003ae565b8484546200031c565b825550505050565b600090565b620003f2620003e3565b620003ff818484620003b8565b505050565b5b8181101562000427576200041b600082620003e8565b60018101905062000405565b5050565b601f82111562000476576200044081620002ea565b6200044b84620002ff565b810160208510156200045b578190505b620004736200046a85620002ff565b83018262000404565b50505b505050565b600082821c905092915050565b60006200049b600019846008026200047b565b1980831691505092915050565b6000620004b6838362000488565b9150826002028217905092915050565b620004d1826200027b565b67ffffffffffffffff811115620004ed57620004ec62000092565b5b620004f98254620002b5565b620005068282856200042b565b600060209050601f8311600181146200053e576000841562000529578287015190505b620005358582620004a8565b865550620005a5565b601f1984166200054e86620002ea565b60005b82811015620005785784890151825560018201915060208501945060208101905062000551565b8683101562000598578489015162000594601f89168262000488565b8355505b6001600288020188555050505b505050505050565b61155280620005bd6000396000f3fe608060405234801561001057600080fd5b50600436106100cf5760003560e01c806340c10f191161008c578063a457c2d711610066578063a457c2d714610228578063a9059cbb14610258578063dd62ed3e14610288578063fffc5e89146102b8576100cf565b806340c10f19146101be57806370a08231146101da57806395d89b411461020a576100cf565b806306fdde03146100d4578063095ea7b3146100f257806318160ddd1461012257806323b872dd14610140578063313ce56714610170578063395093511461018e575b600080fd5b6100dc6102d4565b6040516100e99190610d8f565b60405180910390f35b61010c60048036038101906101079190610e4a565b610366565b6040516101199190610ea5565b60405180910390f35b61012a610389565b6040516101379190610ecf565b60405180910390f35b61015a60048036038101906101559190610eea565b610393565b6040516101679190610ea5565b60405180910390f35b6101786103c2565b6040516101859190610f59565b60405180910390f35b6101a860048036038101906101a39190610e4a565b6103cb565b6040516101b59190610ea5565b60405180910390f35b6101d860048036038101906101d39190610e4a565b610402565b005b6101f460048036038101906101ef9190610f74565b610410565b6040516102019190610ecf565b60405180910390f35b610212610458565b60405161021f9190610d8f565b60405180910390f35b610242600480360381019061023d9190610e4a565b6104ea565b60405161024f9190610ea5565b60405180910390f35b610272600480360381019061026d9190610e4a565b610561565b60405161027f9190610ea5565b60405180910390f35b6102a2600480360381019061029d9190610fa1565b610584565b6040516102af9190610ecf565b60405180910390f35b6102d260048036038101906102cd9190610eea565b61060b565b005b6060600380546102e390611010565b80601f016020809104026020016040519081016040528092919081815260200182805461030f90611010565b801561035c5780601f106103315761010080835404028352916020019161035c565b820191906000526020600020905b81548152906001019060200180831161033f57829003601f168201915b5050505050905090565b6000806103716106ba565b905061037e8185856106c2565b600191505092915050565b6000600254905090565b60008061039e6106ba565b90506103ab85828561088b565b6103b6858585610917565b60019150509392505050565b60006012905090565b6000806103d66106ba565b90506103f78185856103e88589610584565b6103f29190611070565b6106c2565b600191505092915050565b61040c8282610b96565b5050565b60008060008373ffffffffffffffffffffffffffffffffffffffff1673ffffffffffffffffffffffffffffffffffffffff168152602001908152602001600020549050919050565b60606004805461046790611010565b80601f016020809104026020016040519081016040528092919081815260200182805461049390611010565b80156104e05780601f106104b5576101008083540402835291602001916104e0565b820191906000526020600020905b8154815290600101906020018083116104c357829003601f168201915b5050505050905090565b6000806104f56106ba565b905060006105038286610584565b905083811015610548576040517f08c379a000000000000000000000000000000000000000000000000000000000815260040161053f90611116565b60405180910390fd5b61055582868684036106c2565b60019250505092915050565b60008061056c6106ba565b9050610579818585610917565b600191505092915050565b6000600160008473ffffffffffffffffffffffffffffffffffffffff1673ffffffffffffffffffffffffffffffffffffffff16815260200190815260200160002060008373ffffffffffffffffffffffffffffffffffffffff1673ffffffffffffffffffffffffffffffffffffffff16815260200190815260200160002054905092915050565b806000808573ffffffffffffffffffffffffffffffffffffffff1673ffffffffffffffffffffffffffffffffffffffff16815260200190815260200160002060008282546106599190611136565b92505081905550806000808473ffffffffffffffffffffffffffffffffffffffff1673ffffffffffffffffffffffffffffffffffffffff16815260200190815260200160002060008282546106ae9190611070565b92505081905550505050565b600033905090565b600073ffffffffffffffffffffffffffffffffffffffff168373ffffffffffffffffffffffffffffffffffffffff1603610731576040517f08c379a0000000000000000000000000000000000000000000000000000000008152600401610728906111dc565b60405180910390fd5b600073ffffffffffffffffffffffffffffffffffffffff168273ffffffffffffffffffffffffffffffffffffffff16036107a0576040517f08c379a00000000000000000000000000000000000000000000000000000000081526004016107979061126e565b60405180910390fd5b80600160008573ffffffffffffffffffffffffffffffffffffffff1673ffffffffffffffffffffffffffffffffffffffff16815260200190815260200160002060008473ffffffffffffffffffffffffffffffffffffffff1673ffffffffffffffffffffffffffffffffffffffff168152602001908152602001600020819055508173ffffffffffffffffffffffffffffffffffffffff168373ffffffffffffffffffffffffffffffffffffffff167f8c5be1e5ebec7d5bd14f71427d1e84f3dd0314c0f7b2291e5b200ac8c7c3b9258360405161087e9190610ecf565b60405180910390a3505050565b60006108978484610584565b90507fffffffffffffffffffffffffffffffffffffffffffffffffffffffffffffffff81146109115781811015610903576040517f08c379a00000000000000000000000000000000000000000000000000000000081526004016108fa906112da565b60405180910390fd5b61091084848484036106c2565b5b50505050565b600073ffffffffffffffffffffffffffffffffffffffff168373ffffffffffffffffffffffffffffffffffffffff1603610986576040517f08c379a000000000000000000000000000000000000000000000000000000000815260040161097d9061136c565b60405180910390fd5b600073ffffffffffffffffffffffffffffffffffffffff168273ffffffffffffffffffffffffffffffffffffffff16036109f5576040517f08c379a00000000000000000000000000000000000000000000000000000000081526004016109ec906113fe565b60405180910390fd5b610a00838383610cf5565b60008060008573ffffffffffffffffffffffffffffffffffffffff1673ffffffffffffffffffffffffffffffffffffffff16815260200190815260200160002054905081811015610a86576040517f08c379a0000000000000000000000000000000000000000000000000000000008152600401610a7d90611490565b60405180910390fd5b8181036000808673ffffffffffffffffffffffffffffffffffffffff1673ffffffffffffffffffffffffffffffffffffffff16815260200190815260200160002081905550816000808573ffffffffffffffffffffffffffffffffffffffff1673ffffffffffffffffffffffffffffffffffffffff1681526020019081526020016000206000828254610b199190611070565b925050819055508273ffffffffffffffffffffffffffffffffffffffff168473ffffffffffffffffffffffffffffffffffffffff167fddf252ad1be2c89b69c2b068fc378daa952ba7f163c4a11628f55a4df523b3ef84604051610b7d9190610ecf565b60405180910390a3610b90848484610cfa565b50505050565b600073ffffffffffffffffffffffffffffffffffffffff168273ffffffffffffffffffffffffffffffffffffffff1603610c05576040517f08c379a0000000000000000000000000000000000000000000000000000000008152600401610bfc906114fc565b60405180910390fd5b610c1160008383610cf5565b8060026000828254610c239190611070565b92505081905550806000808473ffffffffffffffffffffffffffffffffffffffff1673ffffffffffffffffffffffffffffffffffffffff1681526020019081526020016000206000828254610c789190611070565b925050819055508173ffffffffffffffffffffffffffffffffffffffff16600073ffffffffffffffffffffffffffffffffffffffff167fddf252ad1be2c89b69c2b068fc378daa952ba7f163c4a11628f55a4df523b3ef83604051610cdd9190610ecf565b60405180910390a3610cf160008383610cfa565b5050565b505050565b505050565b600081519050919050565b600082825260208201905092915050565b60005b83811015610d39578082015181840152602081019050610d1e565b60008484015250505050565b6000601f19601f8301169050919050565b6000610d6182610cff565b610d6b8185610d0a565b9350610d7b818560208601610d1b565b610d8481610d45565b840191505092915050565b60006020820190508181036000830152610da98184610d56565b905092915050565b600080fd5b600073ffffffffffffffffffffffffffffffffffffffff82169050919050565b6000610de182610db6565b9050919050565b610df181610dd6565b8114610dfc57600080fd5b50565b600081359050610e0e81610de8565b92915050565b6000819050919050565b610e2781610e14565b8114610e3257600080fd5b50565b600081359050610e4481610e1e565b92915050565b60008060408385031215610e6157610e60610db1565b5b6000610e6f85828601610dff565b9250506020610e8085828601610e35565b9150509250929050565b60008115159050919050565b610e9f81610e8a565b82525050565b6000602082019050610eba6000830184610e96565b92915050565b610ec981610e14565b82525050565b6000602082019050610ee46000830184610ec0565b92915050565b600080600060608486031215610f0357610f02610db1565b5b6000610f1186828701610dff565b9350506020610f2286828701610dff565b9250506040610f3386828701610e35565b9150509250925092565b600060ff82169050919050565b610f5381610f3d565b82525050565b6000602082019050610f6e6000830184610f4a565b92915050565b600060208284031215610f8a57610f89610db1565b5b6000610f9884828501610dff565b91505092915050565b60008060408385031215610fb857610fb7610db1565b5b6000610fc685828601610dff565b9250506020610fd785828601610dff565b9150509250929050565b7f4e487b7100000000000000000000000000000000000000000000000000000000600052602260045260246000fd5b6000600282049050600182168061102857607f821691505b60208210810361103b5761103a610fe1565b5b50919050565b7f4e487b7100000000000000000000000000000000000000000000000000000000600052601160045260246000fd5b600061107b82610e14565b915061108683610e14565b925082820190508082111561109e5761109d611041565b5b92915050565b7f45524332303a2064656372656173656420616c6c6f77616e63652062656c6f7760008201527f207a65726f000000000000000000000000000000000000000000000000000000602082015250565b6000611100602583610d0a565b915061110b826110a4565b604082019050919050565b6000602082019050818103600083015261112f816110f3565b9050919050565b600061114182610e14565b915061114c83610e14565b925082820390508181111561116457611163611041565b5b92915050565b7f45524332303a20617070726f76652066726f6d20746865207a65726f2061646460008201527f7265737300000000000000000000000000000000000000000000000000000000602082015250565b60006111c6602483610d0a565b91506111d18261116a565b604082019050919050565b600060208201905081810360008301526111f5816111b9565b9050919050565b7f45524332303a20617070726f766520746f20746865207a65726f20616464726560008201527f7373000000000000000000000000000000000000000000000000000000000000602082015250565b6000611258602283610d0a565b9150611263826111fc565b604082019050919050565b600060208201905081810360008301526112878161124b565b9050919050565b7f45524332303a20696e73756666696369656e7420616c6c6f77616e6365000000600082015250565b60006112c4601d83610d0a565b91506112cf8261128e565b602082019050919050565b600060208201905081810360008301526112f3816112b7565b9050919050565b7f45524332303a207472616e736665722066726f6d20746865207a65726f20616460008201527f6472657373000000000000000000000000000000000000000000000000000000602082015250565b6000611356602583610d0a565b9150611361826112fa565b604082019050919050565b6000602082019050818103600083015261138581611349565b9050919050565b7f45524332303a207472616e7366657220746f20746865207a65726f206164647260008201527f6573730000000000000000000000000000000000000000000000000000000000602082015250565b60006113e8602383610d0a565b91506113f38261138c565b604082019050919050565b60006020820190508181036000830152611417816113db565b9050919050565b7f45524332303a207472616e7366657220616d6f756e742065786365656473206260008201527f616c616e63650000000000000000000000000000000000000000000000000000602082015250565b600061147a602683610d0a565b91506114858261141e565b604082019050919050565b600060208201905081810360008301526114a98161146d565b9050919050565b7f45524332303a206d696e7420746f20746865207a65726f206164647265737300600082015250565b60006114e6601f83610d0a565b91506114f1826114b0565b602082019050919050565b60006020820190508181036000830152611515816114d9565b905091905056fea26469706673582212203f0d41143f7806a457b0c274d547b616e445fbbe6abd4d407dfb3480b280993f64736f6c63430008110033",
					"opcodes": "PUSH1 0x80 PUSH1 0x40 MSTORE CALLVALUE DUP1 ISZERO PUSH3 0x11 JUMPI PUSH1 0x0 DUP1 REVERT JUMPDEST POP PUSH1 0x40 MLOAD PUSH3 0x1B0F CODESIZE SUB DUP1 PUSH3 0x1B0F DUP4 CODECOPY DUP2 DUP2 ADD PUSH1 0x40 MSTORE DUP2 ADD SWAP1 PUSH3 0x37 SWAP2 SWAP1 PUSH3 0x1F6 JUMP JUMPDEST DUP2 PUSH1 0x3 SWAP1 DUP2 PUSH3 0x48 SWAP2 SWAP1 PUSH3 0x4C6 JUMP JUMPDEST POP DUP1 PUSH1 0x4 SWAP1 DUP2 PUSH3 0x5A SWAP2 SWAP1 PUSH3 0x4C6 JUMP JUMPDEST POP POP POP PUSH3 0x5AD JUMP JUMPDEST PUSH1 0x0 PUSH1 0x40 MLOAD SWAP1 POP SWAP1 JUMP JUMPDEST PUSH1 0x0 DUP1 REVERT JUMPDEST PUSH1 0x0 DUP1 REVERT JUMPDEST PUSH1 0x0 DUP1 REVERT JUMPDEST PUSH1 0x0 DUP1 REVERT JUMPDEST PUSH1 0x0 PUSH1 0x1F NOT PUSH1 0x1F DUP4 ADD AND SWAP1 POP SWAP2 SWAP1 POP JUMP JUMPDEST PUSH32 0x4E487B7100000000000000000000000000000000000000000000000000000000 PUSH1 0x0 MSTORE PUSH1 0x41 PUSH1 0x4 MSTORE PUSH1 0x24 PUSH1 0x0 REVERT JUMPDEST PUSH3 0xCC DUP3 PUSH3 0x81 JUMP JUMPDEST DUP2 ADD DUP2 DUP2 LT PUSH8 0xFFFFFFFFFFFFFFFF DUP3 GT OR ISZERO PUSH3 0xEE JUMPI PUSH3 0xED PUSH3 0x92 JUMP JUMPDEST JUMPDEST DUP1 PUSH1 0x40 MSTORE POP POP POP JUMP JUMPDEST PUSH1 0x0 PUSH3 0x103 PUSH3 0x63 JUMP JUMPDEST SWAP1 POP PUSH3 0x111 DUP3 DUP3 PUSH3 0xC1 JUMP JUMPDEST SWAP2 SWAP1 POP JUMP JUMPDEST PUSH1 0x0 PUSH8 0xFFFFFFFFFFFFFFFF DUP3 GT ISZERO PUSH3 0x134 JUMPI PUSH3 0x133 PUSH3 0x92 JUMP JUMPDEST JUMPDEST PUSH3 0x13F DUP3 PUSH3 0x81 JUMP JUMPDEST SWAP1 POP PUSH1 0x20 DUP2 ADD SWAP1 POP SWAP2 SWAP1 POP JUMP JUMPDEST PUSH1 0x0 JUMPDEST DUP4 DUP2 LT ISZERO PUSH3 0x16C JUMPI DUP1 DUP3 ADD MLOAD DUP2 DUP5 ADD MSTORE PUSH1 0x20 DUP2 ADD SWAP1 POP PUSH3 0x14F JUMP JUMPDEST PUSH1 0x0 DUP5 DUP5 ADD MSTORE POP POP POP POP JUMP JUMPDEST PUSH1 0x0 PUSH3 0x18F PUSH3 0x189 DUP5 PUSH3 0x116 JUMP JUMPDEST PUSH3 0xF7 JUMP JUMPDEST SWAP1 POP DUP3 DUP2 MSTORE PUSH1 0x20 DUP2 ADD DUP5 DUP5 DUP5 ADD GT ISZERO PUSH3 0x1AE JUMPI PUSH3 0x1AD PUSH3 0x7C JUMP JUMPDEST JUMPDEST PUSH3 0x1BB DUP5 DUP3 DUP6 PUSH3 0x14C JUMP JUMPDEST POP SWAP4 SWAP3 POP POP POP JUMP JUMPDEST PUSH1 0x0 DUP3 PUSH1 0x1F DUP4 ADD SLT PUSH3 0x1DB JUMPI PUSH3 0x1DA PUSH3 0x77 JUMP JUMPDEST JUMPDEST DUP2 MLOAD PUSH3 0x1ED DUP5 DUP3 PUSH1 0x20 DUP7 ADD PUSH3 0x178 JUMP JUMPDEST SWAP2 POP POP SWAP3 SWAP2 POP POP JUMP JUMPDEST PUSH1 0x0 DUP1 PUSH1 0x40 DUP4 DUP6 SUB SLT ISZERO PUSH3 0x210 JUMPI PUSH3 0x20F PUSH3 0x6D JUMP JUMPDEST JUMPDEST PUSH1 0x0 DUP4 ADD MLOAD PUSH8 0xFFFFFFFFFFFFFFFF DUP2 GT ISZERO PUSH3 0x231 JUMPI PUSH3 0x230 PUSH3 0x72 JUMP JUMPDEST JUMPDEST PUSH3 0x23F DUP6 DUP3 DUP7 ADD PUSH3 0x1C3 JUMP JUMPDEST SWAP3 POP POP PUSH1 0x20 DUP4 ADD MLOAD PUSH8 0xFFFFFFFFFFFFFFFF DUP2 GT ISZERO PUSH3 0x263 JUMPI PUSH3 0x262 PUSH3 0x72 JUMP JUMPDEST JUMPDEST PUSH3 0x271 DUP6 DUP3 DUP7 ADD PUSH3 0x1C3 JUMP JUMPDEST SWAP2 POP POP SWAP3 POP SWAP3 SWAP1 POP JUMP JUMPDEST PUSH1 0x0 DUP2 MLOAD SWAP1 POP SWAP2 SWAP1 POP JUMP JUMPDEST PUSH32 0x4E487B7100000000000000000000000000000000000000000000000000000000 PUSH1 0x0 MSTORE PUSH1 0x22 PUSH1 0x4 MSTORE PUSH1 0x24 PUSH1 0x0 REVERT JUMPDEST PUSH1 0x0 PUSH1 0x2 DUP3 DIV SWAP1 POP PUSH1 0x1 DUP3 AND DUP1 PUSH3 0x2CE JUMPI PUSH1 0x7F DUP3 AND SWAP2 POP JUMPDEST PUSH1 0x20 DUP3 LT DUP2 SUB PUSH3 0x2E4 JUMPI PUSH3 0x2E3 PUSH3 0x286 JUMP JUMPDEST JUMPDEST POP SWAP2 SWAP1 POP JUMP JUMPDEST PUSH1 0x0 DUP2 SWAP1 POP DUP2 PUSH1 0x0 MSTORE PUSH1 0x20 PUSH1 0x0 KECCAK256 SWAP1 POP SWAP2 SWAP1 POP JUMP JUMPDEST PUSH1 0x0 PUSH1 0x20 PUSH1 0x1F DUP4 ADD DIV SWAP1 POP SWAP2 SWAP1 POP JUMP JUMPDEST PUSH1 0x0 DUP3 DUP3 SHL SWAP1 POP SWAP3 SWAP2 POP POP JUMP JUMPDEST PUSH1 0x0 PUSH1 0x8 DUP4 MUL PUSH3 0x34E PUSH32 0xFFFFFFFFFFFFFFFFFFFFFFFFFFFFFFFFFFFFFFFFFFFFFFFFFFFFFFFFFFFFFFFF DUP3 PUSH3 0x30F JUMP JUMPDEST PUSH3 0x35A DUP7 DUP4 PUSH3 0x30F JUMP JUMPDEST SWAP6 POP DUP1 NOT DUP5 AND SWAP4 POP DUP1 DUP7 AND DUP5 OR SWAP3 POP POP POP SWAP4 SWAP3 POP POP POP JUMP JUMPDEST PUSH1 0x0 DUP2 SWAP1 POP SWAP2 SWAP1 POP JUMP JUMPDEST PUSH1 0x0 DUP2 SWAP1 POP SWAP2 SWAP1 POP JUMP JUMPDEST PUSH1 0x0 PUSH3 0x3A7 PUSH3 0x3A1 PUSH3 0x39B DUP5 PUSH3 0x372 JUMP JUMPDEST PUSH3 0x37C JUMP JUMPDEST PUSH3 0x372 JUMP JUMPDEST SWAP1 POP SWAP2 SWAP1 POP JUMP JUMPDEST PUSH1 0x0 DUP2 SWAP1 POP SWAP2 SWAP1 POP JUMP JUMPDEST PUSH3 0x3C3 DUP4 PUSH3 0x386 JUMP JUMPDEST PUSH3 0x3DB PUSH3 0x3D2 DUP3 PUSH3 0x3AE JUMP JUMPDEST DUP5 DUP5 SLOAD PUSH3 0x31C JUMP JUMPDEST DUP3 SSTORE POP POP POP POP JUMP JUMPDEST PUSH1 0x0 SWAP1 JUMP JUMPDEST PUSH3 0x3F2 PUSH3 0x3E3 JUMP JUMPDEST PUSH3 0x3FF DUP2 DUP5 DUP5 PUSH3 0x3B8 JUMP JUMPDEST POP POP POP JUMP JUMPDEST JUMPDEST DUP2 DUP2 LT ISZERO PUSH3 0x427 JUMPI PUSH3 0x41B PUSH1 0x0 DUP3 PUSH3 0x3E8 JUMP JUMPDEST PUSH1 0x1 DUP2 ADD SWAP1 POP PUSH3 0x405 JUMP JUMPDEST POP POP JUMP JUMPDEST PUSH1 0x1F DUP3 GT ISZERO PUSH3 0x476 JUMPI PUSH3 0x440 DUP2 PUSH3 0x2EA JUMP JUMPDEST PUSH3 0x44B DUP5 PUSH3 0x2FF JUMP JUMPDEST DUP2 ADD PUSH1 0x20 DUP6 LT ISZERO PUSH3 0x45B JUMPI DUP2 SWAP1 POP JUMPDEST PUSH3 0x473 PUSH3 0x46A DUP6 PUSH3 0x2FF JUMP JUMPDEST DUP4 ADD DUP3 PUSH3 0x404 JUMP JUMPDEST POP POP JUMPDEST POP POP POP JUMP JUMPDEST PUSH1 0x0 DUP3 DUP3 SHR SWAP1 POP SWAP3 SWAP2 POP POP JUMP JUMPDEST PUSH1 0x0 PUSH3 0x49B PUSH1 0x0 NOT DUP5 PUSH1 0x8 MUL PUSH3 0x47B JUMP JUMPDEST NOT DUP1 DUP4 AND SWAP2 POP POP SWAP3 SWAP2 POP POP JUMP JUMPDEST PUSH1 0x0 PUSH3 0x4B6 DUP4 DUP4 PUSH3 0x488 JUMP JUMPDEST SWAP2 POP DUP3 PUSH1 0x2 MUL DUP3 OR SWAP1 POP SWAP3 SWAP2 POP POP JUMP JUMPDEST PUSH3 0x4D1 DUP3 PUSH3 0x27B JUMP JUMPDEST PUSH8 0xFFFFFFFFFFFFFFFF DUP2 GT ISZERO PUSH3 0x4ED JUMPI PUSH3 0x4EC PUSH3 0x92 JUMP JUMPDEST JUMPDEST PUSH3 0x4F9 DUP3 SLOAD PUSH3 0x2B5 JUMP JUMPDEST PUSH3 0x506 DUP3 DUP3 DUP6 PUSH3 0x42B JUMP JUMPDEST PUSH1 0x0 PUSH1 0x20 SWAP1 POP PUSH1 0x1F DUP4 GT PUSH1 0x1 DUP2 EQ PUSH3 0x53E JUMPI PUSH1 0x0 DUP5 ISZERO PUSH3 0x529 JUMPI DUP3 DUP8 ADD MLOAD SWAP1 POP JUMPDEST PUSH3 0x535 DUP6 DUP3 PUSH3 0x4A8 JUMP JUMPDEST DUP7 SSTORE POP PUSH3 0x5A5 JUMP JUMPDEST PUSH1 0x1F NOT DUP5 AND PUSH3 0x54E DUP7 PUSH3 0x2EA JUMP JUMPDEST PUSH1 0x0 JUMPDEST DUP3 DUP2 LT ISZERO PUSH3 0x578 JUMPI DUP5 DUP10 ADD MLOAD DUP3 SSTORE PUSH1 0x1 DUP3 ADD SWAP2 POP PUSH1 0x20 DUP6 ADD SWAP5 POP PUSH1 0x20 DUP2 ADD SWAP1 POP PUSH3 0x551 JUMP JUMPDEST DUP7 DUP4 LT ISZERO PUSH3 0x598 JUMPI DUP5 DUP10 ADD MLOAD PUSH3 0x594 PUSH1 0x1F DUP10 AND DUP3 PUSH3 0x488 JUMP JUMPDEST DUP4 SSTORE POP JUMPDEST PUSH1 0x1 PUSH1 0x2 DUP9 MUL ADD DUP9 SSTORE POP POP POP JUMPDEST POP POP POP POP POP POP JUMP JUMPDEST PUSH2 0x1552 DUP1 PUSH3 0x5BD PUSH1 0x0 CODECOPY PUSH1 0x0 RETURN INVALID PUSH1 0x80 PUSH1 0x40 MSTORE CALLVALUE DUP1 ISZERO PUSH2 0x10 JUMPI PUSH1 0x0 DUP1 REVERT JUMPDEST POP PUSH1 0x4 CALLDATASIZE LT PUSH2 0xCF JUMPI PUSH1 0x0 CALLDATALOAD PUSH1 0xE0 SHR DUP1 PUSH4 0x40C10F19 GT PUSH2 0x8C JUMPI DUP1 PUSH4 0xA457C2D7 GT PUSH2 0x66 JUMPI DUP1 PUSH4 0xA457C2D7 EQ PUSH2 0x228 JUMPI DUP1 PUSH4 0xA9059CBB EQ PUSH2 0x258 JUMPI DUP1 PUSH4 0xDD62ED3E EQ PUSH2 0x288 JUMPI DUP1 PUSH4 0xFFFC5E89 EQ PUSH2 0x2B8 JUMPI PUSH2 0xCF JUMP JUMPDEST DUP1 PUSH4 0x40C10F19 EQ PUSH2 0x1BE JUMPI DUP1 PUSH4 0x70A08231 EQ PUSH2 0x1DA JUMPI DUP1 PUSH4 0x95D89B41 EQ PUSH2 0x20A JUMPI PUSH2 0xCF JUMP JUMPDEST DUP1 PUSH4 0x6FDDE03 EQ PUSH2 0xD4 JUMPI DUP1 PUSH4 0x95EA7B3 EQ PUSH2 0xF2 JUMPI DUP1 PUSH4 0x18160DDD EQ PUSH2 0x122 JUMPI DUP1 PUSH4 0x23B872DD EQ PUSH2 0x140 JUMPI DUP1 PUSH4 0x313CE567 EQ PUSH2 0x170 JUMPI DUP1 PUSH4 0x39509351 EQ PUSH2 0x18E JUMPI JUMPDEST PUSH1 0x0 DUP1 REVERT JUMPDEST PUSH2 0xDC PUSH2 0x2D4 JUMP JUMPDEST PUSH1 0x40 MLOAD PUSH2 0xE9 SWAP2 SWAP1 PUSH2 0xD8F JUMP JUMPDEST PUSH1 0x40 MLOAD DUP1 SWAP2 SUB SWAP1 RETURN JUMPDEST PUSH2 0x10C PUSH1 0x4 DUP1 CALLDATASIZE SUB DUP2 ADD SWAP1 PUSH2 0x107 SWAP2 SWAP1 PUSH2 0xE4A JUMP JUMPDEST PUSH2 0x366 JUMP JUMPDEST PUSH1 0x40 MLOAD PUSH2 0x119 SWAP2 SWAP1 PUSH2 0xEA5 JUMP JUMPDEST PUSH1 0x40 MLOAD DUP1 SWAP2 SUB SWAP1 RETURN JUMPDEST PUSH2 0x12A PUSH2 0x389 JUMP JUMPDEST PUSH1 0x40 MLOAD PUSH2 0x137 SWAP2 SWAP1 PUSH2 0xECF JUMP JUMPDEST PUSH1 0x40 MLOAD DUP1 SWAP2 SUB SWAP1 RETURN JUMPDEST PUSH2 0x15A PUSH1 0x4 DUP1 CALLDATASIZE SUB DUP2 ADD SWAP1 PUSH2 0x155 SWAP2 SWAP1 PUSH2 0xEEA JUMP JUMPDEST PUSH2 0x393 JUMP JUMPDEST PUSH1 0x40 MLOAD PUSH2 0x167 SWAP2 SWAP1 PUSH2 0xEA5 JUMP JUMPDEST PUSH1 0x40 MLOAD DUP1 SWAP2 SUB SWAP1 RETURN JUMPDEST PUSH2 0x178 PUSH2 0x3C2 JUMP JUMPDEST PUSH1 0x40 MLOAD PUSH2 0x185 SWAP2 SWAP1 PUSH2 0xF59 JUMP JUMPDEST PUSH1 0x40 MLOAD DUP1 SWAP2 SUB SWAP1 RETURN JUMPDEST PUSH2 0x1A8 PUSH1 0x4 DUP1 CALLDATASIZE SUB DUP2 ADD SWAP1 PUSH2 0x1A3 SWAP2 SWAP1 PUSH2 0xE4A JUMP JUMPDEST PUSH2 0x3CB JUMP JUMPDEST PUSH1 0x40 MLOAD PUSH2 0x1B5 SWAP2 SWAP1 PUSH2 0xEA5 JUMP JUMPDEST PUSH1 0x40 MLOAD DUP1 SWAP2 SUB SWAP1 RETURN JUMPDEST PUSH2 0x1D8 PUSH1 0x4 DUP1 CALLDATASIZE SUB DUP2 ADD SWAP1 PUSH2 0x1D3 SWAP2 SWAP1 PUSH2 0xE4A JUMP JUMPDEST PUSH2 0x402 JUMP JUMPDEST STOP JUMPDEST PUSH2 0x1F4 PUSH1 0x4 DUP1 CALLDATASIZE SUB DUP2 ADD SWAP1 PUSH2 0x1EF SWAP2 SWAP1 PUSH2 0xF74 JUMP JUMPDEST PUSH2 0x410 JUMP JUMPDEST PUSH1 0x40 MLOAD PUSH2 0x201 SWAP2 SWAP1 PUSH2 0xECF JUMP JUMPDEST PUSH1 0x40 MLOAD DUP1 SWAP2 SUB SWAP1 RETURN JUMPDEST PUSH2 0x212 PUSH2 0x458 JUMP JUMPDEST PUSH1 0x40 MLOAD PUSH2 0x21F SWAP2 SWAP1 PUSH2 0xD8F JUMP JUMPDEST PUSH1 0x40 MLOAD DUP1 SWAP2 SUB SWAP1 RETURN JUMPDEST PUSH2 0x242 PUSH1 0x4 DUP1 CALLDATASIZE SUB DUP2 ADD SWAP1 PUSH2 0x23D SWAP2 SWAP1 PUSH2 0xE4A JUMP JUMPDEST PUSH2 0x4EA JUMP JUMPDEST PUSH1 0x40 MLOAD PUSH2 0x24F SWAP2 SWAP1 PUSH2 0xEA5 JUMP JUMPDEST PUSH1 0x40 MLOAD DUP1 SWAP2 SUB SWAP1 RETURN JUMPDEST PUSH2 0x272 PUSH1 0x4 DUP1 CALLDATASIZE SUB DUP2 ADD SWAP1 PUSH2 0x26D SWAP2 SWAP1 PUSH2 0xE4A JUMP JUMPDEST PUSH2 0x561 JUMP JUMPDEST PUSH1 0x40 MLOAD PUSH2 0x27F SWAP2 SWAP1 PUSH2 0xEA5 JUMP JUMPDEST PUSH1 0x40 MLOAD DUP1 SWAP2 SUB SWAP1 RETURN JUMPDEST PUSH2 0x2A2 PUSH1 0x4 DUP1 CALLDATASIZE SUB DUP2 ADD SWAP1 PUSH2 0x29D SWAP2 SWAP1 PUSH2 0xFA1 JUMP JUMPDEST PUSH2 0x584 JUMP JUMPDEST PUSH1 0x40 MLOAD PUSH2 0x2AF SWAP2 SWAP1 PUSH2 0xECF JUMP JUMPDEST PUSH1 0x40 MLOAD DUP1 SWAP2 SUB SWAP1 RETURN JUMPDEST PUSH2 0x2D2 PUSH1 0x4 DUP1 CALLDATASIZE SUB DUP2 ADD SWAP1 PUSH2 0x2CD SWAP2 SWAP1 PUSH2 0xEEA JUMP JUMPDEST PUSH2 0x60B JUMP JUMPDEST STOP JUMPDEST PUSH1 0x60 PUSH1 0x3 DUP1 SLOAD PUSH2 0x2E3 SWAP1 PUSH2 0x1010 JUMP JUMPDEST DUP1 PUSH1 0x1F ADD PUSH1 0x20 DUP1 SWAP2 DIV MUL PUSH1 0x20 ADD PUSH1 0x40 MLOAD SWAP1 DUP2 ADD PUSH1 0x40 MSTORE DUP1 SWAP3 SWAP2 SWAP1 DUP2 DUP2 MSTORE PUSH1 0x20 ADD DUP3 DUP1 SLOAD PUSH2 0x30F SWAP1 PUSH2 0x1010 JUMP JUMPDEST DUP1 ISZERO PUSH2 0x35C JUMPI DUP1 PUSH1 0x1F LT PUSH2 0x331 JUMPI PUSH2 0x100 DUP1 DUP4 SLOAD DIV MUL DUP4 MSTORE SWAP2 PUSH1 0x20 ADD SWAP2 PUSH2 0x35C JUMP JUMPDEST DUP3 ADD SWAP2 SWAP1 PUSH1 0x0 MSTORE PUSH1 0x20 PUSH1 0x0 KECCAK256 SWAP1 JUMPDEST DUP2 SLOAD DUP2 MSTORE SWAP1 PUSH1 0x1 ADD SWAP1 PUSH1 0x20 ADD DUP1 DUP4 GT PUSH2 0x33F JUMPI DUP3 SWAP1 SUB PUSH1 0x1F AND DUP3 ADD SWAP2 JUMPDEST POP POP POP POP POP SWAP1 POP SWAP1 JUMP JUMPDEST PUSH1 0x0 DUP1 PUSH2 0x371 PUSH2 0x6BA JUMP JUMPDEST SWAP1 POP PUSH2 0x37E DUP2 DUP6 DUP6 PUSH2 0x6C2 JUMP JUMPDEST PUSH1 0x1 SWAP2 POP POP SWAP3 SWAP2 POP POP JUMP JUMPDEST PUSH1 0x0 PUSH1 0x2 SLOAD SWAP1 POP SWAP1 JUMP JUMPDEST PUSH1 0x0 DUP1 PUSH2 0x39E PUSH2 0x6BA JUMP JUMPDEST SWAP1 POP PUSH2 0x3AB DUP6 DUP3 DUP6 PUSH2 0x88B JUMP JUMPDEST PUSH2 0x3B6 DUP6 DUP6 DUP6 PUSH2 0x917 JUMP JUMPDEST PUSH1 0x1 SWAP2 POP POP SWAP4 SWAP3 POP POP POP JUMP JUMPDEST PUSH1 0x0 PUSH1 0x12 SWAP1 POP SWAP1 JUMP JUMPDEST PUSH1 0x0 DUP1 PUSH2 0x3D6 PUSH2 0x6BA JUMP JUMPDEST SWAP1 POP PUSH2 0x3F7 DUP2 DUP6 DUP6 PUSH2 0x3E8 DUP6 DUP10 PUSH2 0x584 JUMP JUMPDEST PUSH2 0x3F2 SWAP2 SWAP1 PUSH2 0x1070 JUMP JUMPDEST PUSH2 0x6C2 JUMP JUMPDEST PUSH1 0x1 SWAP2 POP POP SWAP3 SWAP2 POP POP JUMP JUMPDEST PUSH2 0x40C DUP3 DUP3 PUSH2 0xB96 JUMP JUMPDEST POP POP JUMP JUMPDEST PUSH1 0x0 DUP1 PUSH1 0x0 DUP4 PUSH20 0xFFFFFFFFFFFFFFFFFFFFFFFFFFFFFFFFFFFFFFFF AND PUSH20 0xFFFFFFFFFFFFFFFFFFFFFFFFFFFFFFFFFFFFFFFF AND DUP2 MSTORE PUSH1 0x20 ADD SWAP1 DUP2 MSTORE PUSH1 0x20 ADD PUSH1 0x0 KECCAK256 SLOAD SWAP1 POP SWAP2 SWAP1 POP JUMP JUMPDEST PUSH1 0x60 PUSH1 0x4 DUP1 SLOAD PUSH2 0x467 SWAP1 PUSH2 0x1010 JUMP JUMPDEST DUP1 PUSH1 0x1F ADD PUSH1 0x20 DUP1 SWAP2 DIV MUL PUSH1 0x20 ADD PUSH1 0x40 MLOAD SWAP1 DUP2 ADD PUSH1 0x40 MSTORE DUP1 SWAP3 SWAP2 SWAP1 DUP2 DUP2 MSTORE PUSH1 0x20 ADD DUP3 DUP1 SLOAD PUSH2 0x493 SWAP1 PUSH2 0x1010 JUMP JUMPDEST DUP1 ISZERO PUSH2 0x4E0 JUMPI DUP1 PUSH1 0x1F LT PUSH2 0x4B5 JUMPI PUSH2 0x100 DUP1 DUP4 SLOAD DIV MUL DUP4 MSTORE SWAP2 PUSH1 0x20 ADD SWAP2 PUSH2 0x4E0 JUMP JUMPDEST DUP3 ADD SWAP2 SWAP1 PUSH1 0x0 MSTORE PUSH1 0x20 PUSH1 0x0 KECCAK256 SWAP1 JUMPDEST DUP2 SLOAD DUP2 MSTORE SWAP1 PUSH1 0x1 ADD SWAP1 PUSH1 0x20 ADD DUP1 DUP4 GT PUSH2 0x4C3 JUMPI DUP3 SWAP1 SUB PUSH1 0x1F AND DUP3 ADD SWAP2 JUMPDEST POP POP POP POP POP SWAP1 POP SWAP1 JUMP JUMPDEST PUSH1 0x0 DUP1 PUSH2 0x4F5 PUSH2 0x6BA JUMP JUMPDEST SWAP1 POP PUSH1 0x0 PUSH2 0x503 DUP3 DUP7 PUSH2 0x584 JUMP JUMPDEST SWAP1 POP DUP4 DUP2 LT ISZERO PUSH2 0x548 JUMPI PUSH1 0x40 MLOAD PUSH32 0x8C379A000000000000000000000000000000000000000000000000000000000 DUP2 MSTORE PUSH1 0x4 ADD PUSH2 0x53F SWAP1 PUSH2 0x1116 JUMP JUMPDEST PUSH1 0x40 MLOAD DUP1 SWAP2 SUB SWAP1 REVERT JUMPDEST PUSH2 0x555 DUP3 DUP7 DUP7 DUP5 SUB PUSH2 0x6C2 JUMP JUMPDEST PUSH1 0x1 SWAP3 POP POP POP SWAP3 SWAP2 POP POP JUMP JUMPDEST PUSH1 0x0 DUP1 PUSH2 0x56C PUSH2 0x6BA JUMP JUMPDEST SWAP1 POP PUSH2 0x579 DUP2 DUP6 DUP6 PUSH2 0x917 JUMP JUMPDEST PUSH1 0x1 SWAP2 POP POP SWAP3 SWAP2 POP POP JUMP JUMPDEST PUSH1 0x0 PUSH1 0x1 PUSH1 0x0 DUP5 PUSH20 0xFFFFFFFFFFFFFFFFFFFFFFFFFFFFFFFFFFFFFFFF AND PUSH20 0xFFFFFFFFFFFFFFFFFFFFFFFFFFFFFFFFFFFFFFFF AND DUP2 MSTORE PUSH1 0x20 ADD SWAP1 DUP2 MSTORE PUSH1 0x20 ADD PUSH1 0x0 KECCAK256 PUSH1 0x0 DUP4 PUSH20 0xFFFFFFFFFFFFFFFFFFFFFFFFFFFFFFFFFFFFFFFF AND PUSH20 0xFFFFFFFFFFFFFFFFFFFFFFFFFFFFFFFFFFFFFFFF AND DUP2 MSTORE PUSH1 0x20 ADD SWAP1 DUP2 MSTORE PUSH1 0x20 ADD PUSH1 0x0 KECCAK256 SLOAD SWAP1 POP SWAP3 SWAP2 POP POP JUMP JUMPDEST DUP1 PUSH1 0x0 DUP1 DUP6 PUSH20 0xFFFFFFFFFFFFFFFFFFFFFFFFFFFFFFFFFFFFFFFF AND PUSH20 0xFFFFFFFFFFFFFFFFFFFFFFFFFFFFFFFFFFFFFFFF AND DUP2 MSTORE PUSH1 0x20 ADD SWAP1 DUP2 MSTORE PUSH1 0x20 ADD PUSH1 0x0 KECCAK256 PUSH1 0x0 DUP3 DUP3 SLOAD PUSH2 0x659 SWAP2 SWAP1 PUSH2 0x1136 JUMP JUMPDEST SWAP3 POP POP DUP2 SWAP1 SSTORE POP DUP1 PUSH1 0x0 DUP1 DUP5 PUSH20 0xFFFFFFFFFFFFFFFFFFFFFFFFFFFFFFFFFFFFFFFF AND PUSH20 0xFFFFFFFFFFFFFFFFFFFFFFFFFFFFFFFFFFFFFFFF AND DUP2 MSTORE PUSH1 0x20 ADD SWAP1 DUP2 MSTORE PUSH1 0x20 ADD PUSH1 0x0 KECCAK256 PUSH1 0x0 DUP3 DUP3 SLOAD PUSH2 0x6AE SWAP2 SWAP1 PUSH2 0x1070 JUMP JUMPDEST SWAP3 POP POP DUP2 SWAP1 SSTORE POP POP POP POP JUMP JUMPDEST PUSH1 0x0 CALLER SWAP1 POP SWAP1 JUMP JUMPDEST PUSH1 0x0 PUSH20 0xFFFFFFFFFFFFFFFFFFFFFFFFFFFFFFFFFFFFFFFF AND DUP4 PUSH20 0xFFFFFFFFFFFFFFFFFFFFFFFFFFFFFFFFFFFFFFFF AND SUB PUSH2 0x731 JUMPI PUSH1 0x40 MLOAD PUSH32 0x8C379A000000000000000000000000000000000000000000000000000000000 DUP2 MSTORE PUSH1 0x4 ADD PUSH2 0x728 SWAP1 PUSH2 0x11DC JUMP JUMPDEST PUSH1 0x40 MLOAD DUP1 SWAP2 SUB SWAP1 REVERT JUMPDEST PUSH1 0x0 PUSH20 0xFFFFFFFFFFFFFFFFFFFFFFFFFFFFFFFFFFFFFFFF AND DUP3 PUSH20 0xFFFFFFFFFFFFFFFFFFFFFFFFFFFFFFFFFFFFFFFF AND SUB PUSH2 0x7A0 JUMPI PUSH1 0x40 MLOAD PUSH32 0x8C379A000000000000000000000000000000000000000000000000000000000 DUP2 MSTORE PUSH1 0x4 ADD PUSH2 0x797 SWAP1 PUSH2 0x126E JUMP JUMPDEST PUSH1 0x40 MLOAD DUP1 SWAP2 SUB SWAP1 REVERT JUMPDEST DUP1 PUSH1 0x1 PUSH1 0x0 DUP6 PUSH20 0xFFFFFFFFFFFFFFFFFFFFFFFFFFFFFFFFFFFFFFFF AND PUSH20 0xFFFFFFFFFFFFFFFFFFFFFFFFFFFFFFFFFFFFFFFF AND DUP2 MSTORE PUSH1 0x20 ADD SWAP1 DUP2 MSTORE PUSH1 0x20 ADD PUSH1 0x0 KECCAK256 PUSH1 0x0 DUP5 PUSH20 0xFFFFFFFFFFFFFFFFFFFFFFFFFFFFFFFFFFFFFFFF AND PUSH20 0xFFFFFFFFFFFFFFFFFFFFFFFFFFFFFFFFFFFFFFFF AND DUP2 MSTORE PUSH1 0x20 ADD SWAP1 DUP2 MSTORE PUSH1 0x20 ADD PUSH1 0x0 KECCAK256 DUP2 SWAP1 SSTORE POP DUP2 PUSH20 0xFFFFFFFFFFFFFFFFFFFFFFFFFFFFFFFFFFFFFFFF AND DUP4 PUSH20 0xFFFFFFFFFFFFFFFFFFFFFFFFFFFFFFFFFFFFFFFF AND PUSH32 0x8C5BE1E5EBEC7D5BD14F71427D1E84F3DD0314C0F7B2291E5B200AC8C7C3B925 DUP4 PUSH1 0x40 MLOAD PUSH2 0x87E SWAP2 SWAP1 PUSH2 0xECF JUMP JUMPDEST PUSH1 0x40 MLOAD DUP1 SWAP2 SUB SWAP1 LOG3 POP POP POP JUMP JUMPDEST PUSH1 0x0 PUSH2 0x897 DUP5 DUP5 PUSH2 0x584 JUMP JUMPDEST SWAP1 POP PUSH32 0xFFFFFFFFFFFFFFFFFFFFFFFFFFFFFFFFFFFFFFFFFFFFFFFFFFFFFFFFFFFFFFFF DUP2 EQ PUSH2 0x911 JUMPI DUP2 DUP2 LT ISZERO PUSH2 0x903 JUMPI PUSH1 0x40 MLOAD PUSH32 0x8C379A000000000000000000000000000000000000000000000000000000000 DUP2 MSTORE PUSH1 0x4 ADD PUSH2 0x8FA SWAP1 PUSH2 0x12DA JUMP JUMPDEST PUSH1 0x40 MLOAD DUP1 SWAP2 SUB SWAP1 REVERT JUMPDEST PUSH2 0x910 DUP5 DUP5 DUP5 DUP5 SUB PUSH2 0x6C2 JUMP JUMPDEST JUMPDEST POP POP POP POP JUMP JUMPDEST PUSH1 0x0 PUSH20 0xFFFFFFFFFFFFFFFFFFFFFFFFFFFFFFFFFFFFFFFF AND DUP4 PUSH20 0xFFFFFFFFFFFFFFFFFFFFFFFFFFFFFFFFFFFFFFFF AND SUB PUSH2 0x986 JUMPI PUSH1 0x40 MLOAD PUSH32 0x8C379A000000000000000000000000000000000000000000000000000000000 DUP2 MSTORE PUSH1 0x4 ADD PUSH2 0x97D SWAP1 PUSH2 0x136C JUMP JUMPDEST PUSH1 0x40 MLOAD DUP1 SWAP2 SUB SWAP1 REVERT JUMPDEST PUSH1 0x0 PUSH20 0xFFFFFFFFFFFFFFFFFFFFFFFFFFFFFFFFFFFFFFFF AND DUP3 PUSH20 0xFFFFFFFFFFFFFFFFFFFFFFFFFFFFFFFFFFFFFFFF AND SUB PUSH2 0x9F5 JUMPI PUSH1 0x40 MLOAD PUSH32 0x8C379A000000000000000000000000000000000000000000000000000000000 DUP2 MSTORE PUSH1 0x4 ADD PUSH2 0x9EC SWAP1 PUSH2 0x13FE JUMP JUMPDEST PUSH1 0x40 MLOAD DUP1 SWAP2 SUB SWAP1 REVERT JUMPDEST PUSH2 0xA00 DUP4 DUP4 DUP4 PUSH2 0xCF5 JUMP JUMPDEST PUSH1 0x0 DUP1 PUSH1 0x0 DUP6 PUSH20 0xFFFFFFFFFFFFFFFFFFFFFFFFFFFFFFFFFFFFFFFF AND PUSH20 0xFFFFFFFFFFFFFFFFFFFFFFFFFFFFFFFFFFFFFFFF AND DUP2 MSTORE PUSH1 0x20 ADD SWAP1 DUP2 MSTORE PUSH1 0x20 ADD PUSH1 0x0 KECCAK256 SLOAD SWAP1 POP DUP2 DUP2 LT ISZERO PUSH2 0xA86 JUMPI PUSH1 0x40 MLOAD PUSH32 0x8C379A000000000000000000000000000000000000000000000000000000000 DUP2 MSTORE PUSH1 0x4 ADD PUSH2 0xA7D SWAP1 PUSH2 0x1490 JUMP JUMPDEST PUSH1 0x40 MLOAD DUP1 SWAP2 SUB SWAP1 REVERT JUMPDEST DUP2 DUP2 SUB PUSH1 0x0 DUP1 DUP7 PUSH20 0xFFFFFFFFFFFFFFFFFFFFFFFFFFFFFFFFFFFFFFFF AND PUSH20 0xFFFFFFFFFFFFFFFFFFFFFFFFFFFFFFFFFFFFFFFF AND DUP2 MSTORE PUSH1 0x20 ADD SWAP1 DUP2 MSTORE PUSH1 0x20 ADD PUSH1 0x0 KECCAK256 DUP2 SWAP1 SSTORE POP DUP2 PUSH1 0x0 DUP1 DUP6 PUSH20 0xFFFFFFFFFFFFFFFFFFFFFFFFFFFFFFFFFFFFFFFF AND PUSH20 0xFFFFFFFFFFFFFFFFFFFFFFFFFFFFFFFFFFFFFFFF AND DUP2 MSTORE PUSH1 0x20 ADD SWAP1 DUP2 MSTORE PUSH1 0x20 ADD PUSH1 0x0 KECCAK256 PUSH1 0x0 DUP3 DUP3 SLOAD PUSH2 0xB19 SWAP2 SWAP1 PUSH2 0x1070 JUMP JUMPDEST SWAP3 POP POP DUP2 SWAP1 SSTORE POP DUP3 PUSH20 0xFFFFFFFFFFFFFFFFFFFFFFFFFFFFFFFFFFFFFFFF AND DUP5 PUSH20 0xFFFFFFFFFFFFFFFFFFFFFFFFFFFFFFFFFFFFFFFF AND PUSH32 0xDDF252AD1BE2C89B69C2B068FC378DAA952BA7F163C4A11628F55A4DF523B3EF DUP5 PUSH1 0x40 MLOAD PUSH2 0xB7D SWAP2 SWAP1 PUSH2 0xECF JUMP JUMPDEST PUSH1 0x40 MLOAD DUP1 SWAP2 SUB SWAP1 LOG3 PUSH2 0xB90 DUP5 DUP5 DUP5 PUSH2 0xCFA JUMP JUMPDEST POP POP POP POP JUMP JUMPDEST PUSH1 0x0 PUSH20 0xFFFFFFFFFFFFFFFFFFFFFFFFFFFFFFFFFFFFFFFF AND DUP3 PUSH20 0xFFFFFFFFFFFFFFFFFFFFFFFFFFFFFFFFFFFFFFFF AND SUB PUSH2 0xC05 JUMPI PUSH1 0x40 MLOAD PUSH32 0x8C379A000000000000000000000000000000000000000000000000000000000 DUP2 MSTORE PUSH1 0x4 ADD PUSH2 0xBFC SWAP1 PUSH2 0x14FC JUMP JUMPDEST PUSH1 0x40 MLOAD DUP1 SWAP2 SUB SWAP1 REVERT JUMPDEST PUSH2 0xC11 PUSH1 0x0 DUP4 DUP4 PUSH2 0xCF5 JUMP JUMPDEST DUP1 PUSH1 0x2 PUSH1 0x0 DUP3 DUP3 SLOAD PUSH2 0xC23 SWAP2 SWAP1 PUSH2 0x1070 JUMP JUMPDEST SWAP3 POP POP DUP2 SWAP1 SSTORE POP DUP1 PUSH1 0x0 DUP1 DUP5 PUSH20 0xFFFFFFFFFFFFFFFFFFFFFFFFFFFFFFFFFFFFFFFF AND PUSH20 0xFFFFFFFFFFFFFFFFFFFFFFFFFFFFFFFFFFFFFFFF AND DUP2 MSTORE PUSH1 0x20 ADD SWAP1 DUP2 MSTORE PUSH1 0x20 ADD PUSH1 0x0 KECCAK256 PUSH1 0x0 DUP3 DUP3 SLOAD PUSH2 0xC78 SWAP2 SWAP1 PUSH2 0x1070 JUMP JUMPDEST SWAP3 POP POP DUP2 SWAP1 SSTORE POP DUP2 PUSH20 0xFFFFFFFFFFFFFFFFFFFFFFFFFFFFFFFFFFFFFFFF AND PUSH1 0x0 PUSH20 0xFFFFFFFFFFFFFFFFFFFFFFFFFFFFFFFFFFFFFFFF AND PUSH32 0xDDF252AD1BE2C89B69C2B068FC378DAA952BA7F163C4A11628F55A4DF523B3EF DUP4 PUSH1 0x40 MLOAD PUSH2 0xCDD SWAP2 SWAP1 PUSH2 0xECF JUMP JUMPDEST PUSH1 0x40 MLOAD DUP1 SWAP2 SUB SWAP1 LOG3 PUSH2 0xCF1 PUSH1 0x0 DUP4 DUP4 PUSH2 0xCFA JUMP JUMPDEST POP POP JUMP JUMPDEST POP POP POP JUMP JUMPDEST POP POP POP JUMP JUMPDEST PUSH1 0x0 DUP2 MLOAD SWAP1 POP SWAP2 SWAP1 POP JUMP JUMPDEST PUSH1 0x0 DUP3 DUP3 MSTORE PUSH1 0x20 DUP3 ADD SWAP1 POP SWAP3 SWAP2 POP POP JUMP JUMPDEST PUSH1 0x0 JUMPDEST DUP4 DUP2 LT ISZERO PUSH2 0xD39 JUMPI DUP1 DUP3 ADD MLOAD DUP2 DUP5 ADD MSTORE PUSH1 0x20 DUP2 ADD SWAP1 POP PUSH2 0xD1E JUMP JUMPDEST PUSH1 0x0 DUP5 DUP5 ADD MSTORE POP POP POP POP JUMP JUMPDEST PUSH1 0x0 PUSH1 0x1F NOT PUSH1 0x1F DUP4 ADD AND SWAP1 POP SWAP2 SWAP1 POP JUMP JUMPDEST PUSH1 0x0 PUSH2 0xD61 DUP3 PUSH2 0xCFF JUMP JUMPDEST PUSH2 0xD6B DUP2 DUP6 PUSH2 0xD0A JUMP JUMPDEST SWAP4 POP PUSH2 0xD7B DUP2 DUP6 PUSH1 0x20 DUP7 ADD PUSH2 0xD1B JUMP JUMPDEST PUSH2 0xD84 DUP2 PUSH2 0xD45 JUMP JUMPDEST DUP5 ADD SWAP2 POP POP SWAP3 SWAP2 POP POP JUMP JUMPDEST PUSH1 0x0 PUSH1 0x20 DUP3 ADD SWAP1 POP DUP2 DUP2 SUB PUSH1 0x0 DUP4 ADD MSTORE PUSH2 0xDA9 DUP2 DUP5 PUSH2 0xD56 JUMP JUMPDEST SWAP1 POP SWAP3 SWAP2 POP POP JUMP JUMPDEST PUSH1 0x0 DUP1 REVERT JUMPDEST PUSH1 0x0 PUSH20 0xFFFFFFFFFFFFFFFFFFFFFFFFFFFFFFFFFFFFFFFF DUP3 AND SWAP1 POP SWAP2 SWAP1 POP JUMP JUMPDEST PUSH1 0x0 PUSH2 0xDE1 DUP3 PUSH2 0xDB6 JUMP JUMPDEST SWAP1 POP SWAP2 SWAP1 POP JUMP JUMPDEST PUSH2 0xDF1 DUP2 PUSH2 0xDD6 JUMP JUMPDEST DUP2 EQ PUSH2 0xDFC JUMPI PUSH1 0x0 DUP1 REVERT JUMPDEST POP JUMP JUMPDEST PUSH1 0x0 DUP2 CALLDATALOAD SWAP1 POP PUSH2 0xE0E DUP2 PUSH2 0xDE8 JUMP JUMPDEST SWAP3 SWAP2 POP POP JUMP JUMPDEST PUSH1 0x0 DUP2 SWAP1 POP SWAP2 SWAP1 POP JUMP JUMPDEST PUSH2 0xE27 DUP2 PUSH2 0xE14 JUMP JUMPDEST DUP2 EQ PUSH2 0xE32 JUMPI PUSH1 0x0 DUP1 REVERT JUMPDEST POP JUMP JUMPDEST PUSH1 0x0 DUP2 CALLDATALOAD SWAP1 POP PUSH2 0xE44 DUP2 PUSH2 0xE1E JUMP JUMPDEST SWAP3 SWAP2 POP POP JUMP JUMPDEST PUSH1 0x0 DUP1 PUSH1 0x40 DUP4 DUP6 SUB SLT ISZERO PUSH2 0xE61 JUMPI PUSH2 0xE60 PUSH2 0xDB1 JUMP JUMPDEST JUMPDEST PUSH1 0x0 PUSH2 0xE6F DUP6 DUP3 DUP7 ADD PUSH2 0xDFF JUMP JUMPDEST SWAP3 POP POP PUSH1 0x20 PUSH2 0xE80 DUP6 DUP3 DUP7 ADD PUSH2 0xE35 JUMP JUMPDEST SWAP2 POP POP SWAP3 POP SWAP3 SWAP1 POP JUMP JUMPDEST PUSH1 0x0 DUP2 ISZERO ISZERO SWAP1 POP SWAP2 SWAP1 POP JUMP JUMPDEST PUSH2 0xE9F DUP2 PUSH2 0xE8A JUMP JUMPDEST DUP3 MSTORE POP POP JUMP JUMPDEST PUSH1 0x0 PUSH1 0x20 DUP3 ADD SWAP1 POP PUSH2 0xEBA PUSH1 0x0 DUP4 ADD DUP5 PUSH2 0xE96 JUMP JUMPDEST SWAP3 SWAP2 POP POP JUMP JUMPDEST PUSH2 0xEC9 DUP2 PUSH2 0xE14 JUMP JUMPDEST DUP3 MSTORE POP POP JUMP JUMPDEST PUSH1 0x0 PUSH1 0x20 DUP3 ADD SWAP1 POP PUSH2 0xEE4 PUSH1 0x0 DUP4 ADD DUP5 PUSH2 0xEC0 JUMP JUMPDEST SWAP3 SWAP2 POP POP JUMP JUMPDEST PUSH1 0x0 DUP1 PUSH1 0x0 PUSH1 0x60 DUP5 DUP7 SUB SLT ISZERO PUSH2 0xF03 JUMPI PUSH2 0xF02 PUSH2 0xDB1 JUMP JUMPDEST JUMPDEST PUSH1 0x0 PUSH2 0xF11 DUP7 DUP3 DUP8 ADD PUSH2 0xDFF JUMP JUMPDEST SWAP4 POP POP PUSH1 0x20 PUSH2 0xF22 DUP7 DUP3 DUP8 ADD PUSH2 0xDFF JUMP JUMPDEST SWAP3 POP POP PUSH1 0x40 PUSH2 0xF33 DUP7 DUP3 DUP8 ADD PUSH2 0xE35 JUMP JUMPDEST SWAP2 POP POP SWAP3 POP SWAP3 POP SWAP3 JUMP JUMPDEST PUSH1 0x0 PUSH1 0xFF DUP3 AND SWAP1 POP SWAP2 SWAP1 POP JUMP JUMPDEST PUSH2 0xF53 DUP2 PUSH2 0xF3D JUMP JUMPDEST DUP3 MSTORE POP POP JUMP JUMPDEST PUSH1 0x0 PUSH1 0x20 DUP3 ADD SWAP1 POP PUSH2 0xF6E PUSH1 0x0 DUP4 ADD DUP5 PUSH2 0xF4A JUMP JUMPDEST SWAP3 SWAP2 POP POP JUMP JUMPDEST PUSH1 0x0 PUSH1 0x20 DUP3 DUP5 SUB SLT ISZERO PUSH2 0xF8A JUMPI PUSH2 0xF89 PUSH2 0xDB1 JUMP JUMPDEST JUMPDEST PUSH1 0x0 PUSH2 0xF98 DUP5 DUP3 DUP6 ADD PUSH2 0xDFF JUMP JUMPDEST SWAP2 POP POP SWAP3 SWAP2 POP POP JUMP JUMPDEST PUSH1 0x0 DUP1 PUSH1 0x40 DUP4 DUP6 SUB SLT ISZERO PUSH2 0xFB8 JUMPI PUSH2 0xFB7 PUSH2 0xDB1 JUMP JUMPDEST JUMPDEST PUSH1 0x0 PUSH2 0xFC6 DUP6 DUP3 DUP7 ADD PUSH2 0xDFF JUMP JUMPDEST SWAP3 POP POP PUSH1 0x20 PUSH2 0xFD7 DUP6 DUP3 DUP7 ADD PUSH2 0xDFF JUMP JUMPDEST SWAP2 POP POP SWAP3 POP SWAP3 SWAP1 POP JUMP JUMPDEST PUSH32 0x4E487B7100000000000000000000000000000000000000000000000000000000 PUSH1 0x0 MSTORE PUSH1 0x22 PUSH1 0x4 MSTORE PUSH1 0x24 PUSH1 0x0 REVERT JUMPDEST PUSH1 0x0 PUSH1 0x2 DUP3 DIV SWAP1 POP PUSH1 0x1 DUP3 AND DUP1 PUSH2 0x1028 JUMPI PUSH1 0x7F DUP3 AND SWAP2 POP JUMPDEST PUSH1 0x20 DUP3 LT DUP2 SUB PUSH2 0x103B JUMPI PUSH2 0x103A PUSH2 0xFE1 JUMP JUMPDEST JUMPDEST POP SWAP2 SWAP1 POP JUMP JUMPDEST PUSH32 0x4E487B7100000000000000000000000000000000000000000000000000000000 PUSH1 0x0 MSTORE PUSH1 0x11 PUSH1 0x4 MSTORE PUSH1 0x24 PUSH1 0x0 REVERT JUMPDEST PUSH1 0x0 PUSH2 0x107B DUP3 PUSH2 0xE14 JUMP JUMPDEST SWAP2 POP PUSH2 0x1086 DUP4 PUSH2 0xE14 JUMP JUMPDEST SWAP3 POP DUP3 DUP3 ADD SWAP1 POP DUP1 DUP3 GT ISZERO PUSH2 0x109E JUMPI PUSH2 0x109D PUSH2 0x1041 JUMP JUMPDEST JUMPDEST SWAP3 SWAP2 POP POP JUMP JUMPDEST PUSH32 0x45524332303A2064656372656173656420616C6C6F77616E63652062656C6F77 PUSH1 0x0 DUP3 ADD MSTORE PUSH32 0x207A65726F000000000000000000000000000000000000000000000000000000 PUSH1 0x20 DUP3 ADD MSTORE POP JUMP JUMPDEST PUSH1 0x0 PUSH2 0x1100 PUSH1 0x25 DUP4 PUSH2 0xD0A JUMP JUMPDEST SWAP2 POP PUSH2 0x110B DUP3 PUSH2 0x10A4 JUMP JUMPDEST PUSH1 0x40 DUP3 ADD SWAP1 POP SWAP2 SWAP1 POP JUMP JUMPDEST PUSH1 0x0 PUSH1 0x20 DUP3 ADD SWAP1 POP DUP2 DUP2 SUB PUSH1 0x0 DUP4 ADD MSTORE PUSH2 0x112F DUP2 PUSH2 0x10F3 JUMP JUMPDEST SWAP1 POP SWAP2 SWAP1 POP JUMP JUMPDEST PUSH1 0x0 PUSH2 0x1141 DUP3 PUSH2 0xE14 JUMP JUMPDEST SWAP2 POP PUSH2 0x114C DUP4 PUSH2 0xE14 JUMP JUMPDEST SWAP3 POP DUP3 DUP3 SUB SWAP1 POP DUP2 DUP2 GT ISZERO PUSH2 0x1164 JUMPI PUSH2 0x1163 PUSH2 0x1041 JUMP JUMPDEST JUMPDEST SWAP3 SWAP2 POP POP JUMP JUMPDEST PUSH32 0x45524332303A20617070726F76652066726F6D20746865207A65726F20616464 PUSH1 0x0 DUP3 ADD MSTORE PUSH32 0x7265737300000000000000000000000000000000000000000000000000000000 PUSH1 0x20 DUP3 ADD MSTORE POP JUMP JUMPDEST PUSH1 0x0 PUSH2 0x11C6 PUSH1 0x24 DUP4 PUSH2 0xD0A JUMP JUMPDEST SWAP2 POP PUSH2 0x11D1 DUP3 PUSH2 0x116A JUMP JUMPDEST PUSH1 0x40 DUP3 ADD SWAP1 POP SWAP2 SWAP1 POP JUMP JUMPDEST PUSH1 0x0 PUSH1 0x20 DUP3 ADD SWAP1 POP DUP2 DUP2 SUB PUSH1 0x0 DUP4 ADD MSTORE PUSH2 0x11F5 DUP2 PUSH2 0x11B9 JUMP JUMPDEST SWAP1 POP SWAP2 SWAP1 POP JUMP JUMPDEST PUSH32 0x45524332303A20617070726F766520746F20746865207A65726F206164647265 PUSH1 0x0 DUP3 ADD MSTORE PUSH32 0x7373000000000000000000000000000000000000000000000000000000000000 PUSH1 0x20 DUP3 ADD MSTORE POP JUMP JUMPDEST PUSH1 0x0 PUSH2 0x1258 PUSH1 0x22 DUP4 PUSH2 0xD0A JUMP JUMPDEST SWAP2 POP PUSH2 0x1263 DUP3 PUSH2 0x11FC JUMP JUMPDEST PUSH1 0x40 DUP3 ADD SWAP1 POP SWAP2 SWAP1 POP JUMP JUMPDEST PUSH1 0x0 PUSH1 0x20 DUP3 ADD SWAP1 POP DUP2 DUP2 SUB PUSH1 0x0 DUP4 ADD MSTORE PUSH2 0x1287 DUP2 PUSH2 0x124B JUMP JUMPDEST SWAP1 POP SWAP2 SWAP1 POP JUMP JUMPDEST PUSH32 0x45524332303A20696E73756666696369656E7420616C6C6F77616E6365000000 PUSH1 0x0 DUP3 ADD MSTORE POP JUMP JUMPDEST PUSH1 0x0 PUSH2 0x12C4 PUSH1 0x1D DUP4 PUSH2 0xD0A JUMP JUMPDEST SWAP2 POP PUSH2 0x12CF DUP3 PUSH2 0x128E JUMP JUMPDEST PUSH1 0x20 DUP3 ADD SWAP1 POP SWAP2 SWAP1 POP JUMP JUMPDEST PUSH1 0x0 PUSH1 0x20 DUP3 ADD SWAP1 POP DUP2 DUP2 SUB PUSH1 0x0 DUP4 ADD MSTORE PUSH2 0x12F3 DUP2 PUSH2 0x12B7 JUMP JUMPDEST SWAP1 POP SWAP2 SWAP1 POP JUMP JUMPDEST PUSH32 0x45524332303A207472616E736665722066726F6D20746865207A65726F206164 PUSH1 0x0 DUP3 ADD MSTORE PUSH32 0x6472657373000000000000000000000000000000000000000000000000000000 PUSH1 0x20 DUP3 ADD MSTORE POP JUMP JUMPDEST PUSH1 0x0 PUSH2 0x1356 PUSH1 0x25 DUP4 PUSH2 0xD0A JUMP JUMPDEST SWAP2 POP PUSH2 0x1361 DUP3 PUSH2 0x12FA JUMP JUMPDEST PUSH1 0x40 DUP3 ADD SWAP1 POP SWAP2 SWAP1 POP JUMP JUMPDEST PUSH1 0x0 PUSH1 0x20 DUP3 ADD SWAP1 POP DUP2 DUP2 SUB PUSH1 0x0 DUP4 ADD MSTORE PUSH2 0x1385 DUP2 PUSH2 0x1349 JUMP JUMPDEST SWAP1 POP SWAP2 SWAP1 POP JUMP JUMPDEST PUSH32 0x45524332303A207472616E7366657220746F20746865207A65726F2061646472 PUSH1 0x0 DUP3 ADD MSTORE PUSH32 0x6573730000000000000000000000000000000000000000000000000000000000 PUSH1 0x20 DUP3 ADD MSTORE POP JUMP JUMPDEST PUSH1 0x0 PUSH2 0x13E8 PUSH1 0x23 DUP4 PUSH2 0xD0A JUMP JUMPDEST SWAP2 POP PUSH2 0x13F3 DUP3 PUSH2 0x138C JUMP JUMPDEST PUSH1 0x40 DUP3 ADD SWAP1 POP SWAP2 SWAP1 POP JUMP JUMPDEST PUSH1 0x0 PUSH1 0x20 DUP3 ADD SWAP1 POP DUP2 DUP2 SUB PUSH1 0x0 DUP4 ADD MSTORE PUSH2 0x1417 DUP2 PUSH2 0x13DB JUMP JUMPDEST SWAP1 POP SWAP2 SWAP1 POP JUMP JUMPDEST PUSH32 0x45524332303A207472616E7366657220616D6F756E7420657863656564732062 PUSH1 0x0 DUP3 ADD MSTORE PUSH32 0x616C616E63650000000000000000000000000000000000000000000000000000 PUSH1 0x20 DUP3 ADD MSTORE POP JUMP JUMPDEST PUSH1 0x0 PUSH2 0x147A PUSH1 0x26 DUP4 PUSH2 0xD0A JUMP JUMPDEST SWAP2 POP PUSH2 0x1485 DUP3 PUSH2 0x141E JUMP JUMPDEST PUSH1 0x40 DUP3 ADD SWAP1 POP SWAP2 SWAP1 POP JUMP JUMPDEST PUSH1 0x0 PUSH1 0x20 DUP3 ADD SWAP1 POP DUP2 DUP2 SUB PUSH1 0x0 DUP4 ADD MSTORE PUSH2 0x14A9 DUP2 PUSH2 0x146D JUMP JUMPDEST SWAP1 POP SWAP2 SWAP1 POP JUMP JUMPDEST PUSH32 0x45524332303A206D696E7420746F20746865207A65726F206164647265737300 PUSH1 0x0 DUP3 ADD MSTORE POP JUMP JUMPDEST PUSH1 0x0 PUSH2 0x14E6 PUSH1 0x1F DUP4 PUSH2 0xD0A JUMP JUMPDEST SWAP2 POP PUSH2 0x14F1 DUP3 PUSH2 0x14B0 JUMP JUMPDEST PUSH1 0x20 DUP3 ADD SWAP1 POP SWAP2 SWAP1 POP JUMP JUMPDEST PUSH1 0x0 PUSH1 0x20 DUP3 ADD SWAP1 POP DUP2 DUP2 SUB PUSH1 0x0 DUP4 ADD MSTORE PUSH2 0x1515 DUP2 PUSH2 0x14D9 JUMP JUMPDEST SWAP1 POP SWAP2 SWAP1 POP JUMP INVALID LOG2 PUSH5 0x6970667358 0x22 SLT KECCAK256 EXTCODEHASH 0xD COINBASE EQ EXTCODEHASH PUSH25 0x6A457B0C274D547B616E445FBBE6ABD4D407DFB3480B28099 EXTCODEHASH PUSH5 0x736F6C6343 STOP ADDMOD GT STOP CALLER "
				},
				"gasEstimates": {
					"creation": {
						"codeDepositCost": "1091600",
						"executionCost": "infinite",
						"totalCost": "infinite"
					},
					"external": {
						"allowance(address,address)": "infinite",
						"approve(address,uint256)": "infinite",
						"balanceOf(address)": "2886",
						"decimals()": "432",
						"decreaseAllowance(address,uint256)": "infinite",
						"increaseAllowance(address,uint256)": "infinite",
						"mint(address,uint256)": "infinite",
						"name()": "infinite",
						"symbol()": "infinite",
						"tokentransfer(address,address,uint256)": "infinite",
						"totalSupply()": "2482",
						"transfer(address,uint256)": "infinite",
						"transferFrom(address,address,uint256)": "infinite"
					},
					"internal": {
						"_afterTokenTransfer(address,address,uint256)": "15",
						"_approve(address,address,uint256)": "infinite",
						"_beforeTokenTransfer(address,address,uint256)": "15",
						"_burn(address,uint256)": "infinite",
						"_mint(address,uint256)": "infinite",
						"_spendAllowance(address,address,uint256)": "infinite",
						"_transfer(address,address,uint256)": "infinite"
					}
				},
				"methodIdentifiers": {
					"allowance(address,address)": "dd62ed3e",
					"approve(address,uint256)": "095ea7b3",
					"balanceOf(address)": "70a08231",
					"decimals()": "313ce567",
					"decreaseAllowance(address,uint256)": "a457c2d7",
					"increaseAllowance(address,uint256)": "39509351",
					"mint(address,uint256)": "40c10f19",
					"name()": "06fdde03",
					"symbol()": "95d89b41",
					"tokentransfer(address,address,uint256)": "fffc5e89",
					"totalSupply()": "18160ddd",
					"transfer(address,uint256)": "a9059cbb",
					"transferFrom(address,address,uint256)": "23b872dd"
				}
			},
			"storageLayout": {
				"storage": [
					{
						"astId": 269,
						"contract": "node_modules/openzeppelin-solidity/contracts/token/ERC20/ERC20.sol:ERC20",
						"label": "_balances",
						"offset": 0,
						"slot": "0",
						"type": "t_mapping(t_address,t_uint256)"
					},
					{
						"astId": 275,
						"contract": "node_modules/openzeppelin-solidity/contracts/token/ERC20/ERC20.sol:ERC20",
						"label": "_allowances",
						"offset": 0,
						"slot": "1",
						"type": "t_mapping(t_address,t_mapping(t_address,t_uint256))"
					},
					{
						"astId": 277,
						"contract": "node_modules/openzeppelin-solidity/contracts/token/ERC20/ERC20.sol:ERC20",
						"label": "_totalSupply",
						"offset": 0,
						"slot": "2",
						"type": "t_uint256"
					},
					{
						"astId": 279,
						"contract": "node_modules/openzeppelin-solidity/contracts/token/ERC20/ERC20.sol:ERC20",
						"label": "_name",
						"offset": 0,
						"slot": "3",
						"type": "t_string_storage"
					},
					{
						"astId": 281,
						"contract": "node_modules/openzeppelin-solidity/contracts/token/ERC20/ERC20.sol:ERC20",
						"label": "_symbol",
						"offset": 0,
						"slot": "4",
						"type": "t_string_storage"
					}
				],
				"types": {
					"t_address": {
						"encoding": "inplace",
						"label": "address",
						"numberOfBytes": "20"
					},
					"t_mapping(t_address,t_mapping(t_address,t_uint256))": {
						"encoding": "mapping",
						"key": "t_address",
						"label": "mapping(address => mapping(address => uint256))",
						"numberOfBytes": "32",
						"value": "t_mapping(t_address,t_uint256)"
					},
					"t_mapping(t_address,t_uint256)": {
						"encoding": "mapping",
						"key": "t_address",
						"label": "mapping(address => uint256)",
						"numberOfBytes": "32",
						"value": "t_uint256"
					},
					"t_string_storage": {
						"encoding": "bytes",
						"label": "string",
						"numberOfBytes": "32"
					},
					"t_uint256": {
						"encoding": "inplace",
						"label": "uint256",
						"numberOfBytes": "32"
					}
				}
			},
			"userdoc": {
				"kind": "user",
				"methods": {},
				"version": 1
			}
		}
	}
}