{
	"contracts/kaiToken.sol": {
		"KaiToken": {
			"abi": [
				{
					"inputs": [],
					"stateMutability": "nonpayable",
					"type": "constructor"
				},
				{
					"anonymous": false,
					"inputs": [
						{
							"indexed": true,
							"internalType": "address",
							"name": "owner",
							"type": "address"
						},
						{
							"indexed": true,
							"internalType": "address",
							"name": "spender",
							"type": "address"
						},
						{
							"indexed": false,
							"internalType": "uint256",
							"name": "value",
							"type": "uint256"
						}
					],
					"name": "Approval",
					"type": "event"
				},
				{
					"anonymous": false,
					"inputs": [
						{
							"indexed": true,
							"internalType": "address",
							"name": "previousOwner",
							"type": "address"
						},
						{
							"indexed": true,
							"internalType": "address",
							"name": "newOwner",
							"type": "address"
						}
					],
					"name": "OwnershipTransferred",
					"type": "event"
				},
				{
					"anonymous": false,
					"inputs": [
						{
							"indexed": true,
							"internalType": "address",
							"name": "from",
							"type": "address"
						},
						{
							"indexed": true,
							"internalType": "address",
							"name": "to",
							"type": "address"
						},
						{
							"indexed": false,
							"internalType": "uint256",
							"name": "value",
							"type": "uint256"
						}
					],
					"name": "Transfer",
					"type": "event"
				},
				{
					"inputs": [],
					"name": "_name",
					"outputs": [
						{
							"internalType": "string",
							"name": "",
							"type": "string"
						}
					],
					"stateMutability": "view",
					"type": "function"
				},
				{
					"inputs": [],
					"name": "_symbol",
					"outputs": [
						{
							"internalType": "string",
							"name": "",
							"type": "string"
						}
					],
					"stateMutability": "view",
					"type": "function"
				},
				{
					"inputs": [],
					"name": "_totalSupply",
					"outputs": [
						{
							"internalType": "uint256",
							"name": "",
							"type": "uint256"
						}
					],
					"stateMutability": "view",
					"type": "function"
				},
				{
					"inputs": [
						{
							"internalType": "address",
							"name": "owner",
							"type": "address"
						},
						{
							"internalType": "address",
							"name": "spender",
							"type": "address"
						}
					],
					"name": "allowance",
					"outputs": [
						{
							"internalType": "uint256",
							"name": "",
							"type": "uint256"
						}
					],
					"stateMutability": "view",
					"type": "function"
				},
				{
					"inputs": [
						{
							"internalType": "address",
							"name": "spender",
							"type": "address"
						},
						{
							"internalType": "uint256",
							"name": "amount",
							"type": "uint256"
						}
					],
					"name": "approve",
					"outputs": [
						{
							"internalType": "bool",
							"name": "",
							"type": "bool"
						}
					],
					"stateMutability": "nonpayable",
					"type": "function"
				},
				{
					"inputs": [
						{
							"internalType": "address",
							"name": "account",
							"type": "address"
						}
					],
					"name": "balanceOf",
					"outputs": [
						{
							"internalType": "uint256",
							"name": "",
							"type": "uint256"
						}
					],
					"stateMutability": "view",
					"type": "function"
				},
				{
					"inputs": [],
					"name": "decimals",
					"outputs": [
						{
							"internalType": "uint8",
							"name": "",
							"type": "uint8"
						}
					],
					"stateMutability": "view",
					"type": "function"
				},
				{
					"inputs": [
						{
							"internalType": "address",
							"name": "spender",
							"type": "address"
						},
						{
							"internalType": "uint256",
							"name": "subtractedValue",
							"type": "uint256"
						}
					],
					"name": "decreaseAllowance",
					"outputs": [
						{
							"internalType": "bool",
							"name": "",
							"type": "bool"
						}
					],
					"stateMutability": "nonpayable",
					"type": "function"
				},
				{
					"inputs": [
						{
							"internalType": "address",
							"name": "spender",
							"type": "address"
						},
						{
							"internalType": "uint256",
							"name": "addedValue",
							"type": "uint256"
						}
					],
					"name": "increaseAllowance",
					"outputs": [
						{
							"internalType": "bool",
							"name": "",
							"type": "bool"
						}
					],
					"stateMutability": "nonpayable",
					"type": "function"
				},
				{
					"inputs": [
						{
							"internalType": "address",
							"name": "account",
							"type": "address"
						},
						{
							"internalType": "uint256",
							"name": "amount",
							"type": "uint256"
						}
					],
					"name": "mint",
					"outputs": [],
					"stateMutability": "nonpayable",
					"type": "function"
				},
				{
					"inputs": [],
					"name": "name",
					"outputs": [
						{
							"internalType": "string",
							"name": "",
							"type": "string"
						}
					],
					"stateMutability": "view",
					"type": "function"
				},
				{
					"inputs": [],
					"name": "owner",
					"outputs": [
						{
							"internalType": "address",
							"name": "",
							"type": "address"
						}
					],
					"stateMutability": "view",
					"type": "function"
				},
				{
					"inputs": [],
					"name": "rate",
					"outputs": [
						{
							"internalType": "uint256",
							"name": "",
							"type": "uint256"
						}
					],
					"stateMutability": "view",
					"type": "function"
				},
				{
					"inputs": [],
					"name": "renounceOwnership",
					"outputs": [],
					"stateMutability": "nonpayable",
					"type": "function"
				},
				{
					"inputs": [
						{
							"internalType": "uint256",
							"name": "_amount",
							"type": "uint256"
						}
					],
					"name": "sellToken",
					"outputs": [],
					"stateMutability": "payable",
					"type": "function"
				},
				{
					"inputs": [],
					"name": "symbol",
					"outputs": [
						{
							"internalType": "string",
							"name": "",
							"type": "string"
						}
					],
					"stateMutability": "view",
					"type": "function"
				},
				{
					"inputs": [
						{
							"internalType": "address",
							"name": "owner",
							"type": "address"
						},
						{
							"internalType": "address",
							"name": "to",
							"type": "address"
						},
						{
							"internalType": "uint256",
							"name": "amount",
							"type": "uint256"
						}
					],
					"name": "tokenTransferBuy",
					"outputs": [],
					"stateMutability": "nonpayable",
					"type": "function"
				},
				{
					"inputs": [
						{
							"internalType": "address",
							"name": "owner",
							"type": "address"
						},
						{
							"internalType": "address",
							"name": "to",
							"type": "address"
						},
						{
							"internalType": "uint256",
							"name": "amount",
							"type": "uint256"
						}
					],
					"name": "tokenTransferSell",
					"outputs": [],
					"stateMutability": "nonpayable",
					"type": "function"
				},
				{
					"inputs": [],
					"name": "totalSupply",
					"outputs": [
						{
							"internalType": "uint256",
							"name": "",
							"type": "uint256"
						}
					],
					"stateMutability": "view",
					"type": "function"
				},
				{
					"inputs": [
						{
							"internalType": "address",
							"name": "to",
							"type": "address"
						},
						{
							"internalType": "uint256",
							"name": "amount",
							"type": "uint256"
						}
					],
					"name": "transfer",
					"outputs": [
						{
							"internalType": "bool",
							"name": "",
							"type": "bool"
						}
					],
					"stateMutability": "nonpayable",
					"type": "function"
				},
				{
					"inputs": [
						{
							"internalType": "address",
							"name": "from",
							"type": "address"
						},
						{
							"internalType": "address",
							"name": "to",
							"type": "address"
						},
						{
							"internalType": "uint256",
							"name": "amount",
							"type": "uint256"
						}
					],
					"name": "transferFrom",
					"outputs": [
						{
							"internalType": "bool",
							"name": "",
							"type": "bool"
						}
					],
					"stateMutability": "nonpayable",
					"type": "function"
				},
				{
					"inputs": [
						{
							"internalType": "address",
							"name": "newOwner",
							"type": "address"
						}
					],
					"name": "transferOwnership",
					"outputs": [],
					"stateMutability": "nonpayable",
					"type": "function"
				},
				{
					"stateMutability": "payable",
					"type": "receive"
				}
			],
			"devdoc": {
				"kind": "dev",
				"methods": {
					"allowance(address,address)": {
						"details": "See {IERC20-allowance}."
					},
					"approve(address,uint256)": {
						"details": "See {IERC20-approve}. NOTE: If `amount` is the maximum `uint256`, the allowance is not updated on `transferFrom`. This is semantically equivalent to an infinite approval. Requirements: - `spender` cannot be the zero address."
					},
					"balanceOf(address)": {
						"details": "See {IERC20-balanceOf}."
					},
					"decimals()": {
						"details": "Returns the number of decimals used to get its user representation. For example, if `decimals` equals `2`, a balance of `505` tokens should be displayed to a user as `5.05` (`505 / 10 ** 2`). Tokens usually opt for a value of 18, imitating the relationship between Ether and Wei. This is the value {ERC20} uses, unless this function is overridden; NOTE: This information is only used for _display_ purposes: it in no way affects any of the arithmetic of the contract, including {IERC20-balanceOf} and {IERC20-transfer}."
					},
					"decreaseAllowance(address,uint256)": {
						"details": "Atomically decreases the allowance granted to `spender` by the caller. This is an alternative to {approve} that can be used as a mitigation for problems described in {IERC20-approve}. Emits an {Approval} event indicating the updated allowance. Requirements: - `spender` cannot be the zero address. - `spender` must have allowance for the caller of at least `subtractedValue`."
					},
					"increaseAllowance(address,uint256)": {
						"details": "Atomically increases the allowance granted to `spender` by the caller. This is an alternative to {approve} that can be used as a mitigation for problems described in {IERC20-approve}. Emits an {Approval} event indicating the updated allowance. Requirements: - `spender` cannot be the zero address."
					},
					"name()": {
						"details": "Returns the name of the token."
					},
					"owner()": {
						"details": "Returns the address of the current owner."
					},
					"renounceOwnership()": {
						"details": "Leaves the contract without owner. It will not be possible to call `onlyOwner` functions anymore. Can only be called by the current owner. NOTE: Renouncing ownership will leave the contract without an owner, thereby removing any functionality that is only available to the owner."
					},
					"symbol()": {
						"details": "Returns the symbol of the token, usually a shorter version of the name."
					},
					"totalSupply()": {
						"details": "See {IERC20-totalSupply}."
					},
					"transfer(address,uint256)": {
						"details": "See {IERC20-transfer}. Requirements: - `to` cannot be the zero address. - the caller must have a balance of at least `amount`."
					},
					"transferFrom(address,address,uint256)": {
						"details": "See {IERC20-transferFrom}. Emits an {Approval} event indicating the updated allowance. This is not required by the EIP. See the note at the beginning of {ERC20}. NOTE: Does not update the allowance if the current allowance is the maximum `uint256`. Requirements: - `from` and `to` cannot be the zero address. - `from` must have a balance of at least `amount`. - the caller must have allowance for ``from``'s tokens of at least `amount`."
					},
					"transferOwnership(address)": {
						"details": "Transfers ownership of the contract to a new account (`newOwner`). Can only be called by the current owner."
					}
				},
				"version": 1
			},
			"evm": {
				"assembly": "    /* \"contracts/kaiToken.sol\":397:2020  contract KaiToken is ERC20, Ownable {... */\n  mstore(0x40, 0x80)\n    /* \"contracts/kaiToken.sol\":439:471  string public _name = \"KaiToken\" */\n  mload(0x40)\n  dup1\n  0x40\n  add\n  0x40\n  mstore\n  dup1\n  0x08\n  dup2\n  mstore\n  0x20\n  add\n  0x4b6169546f6b656e000000000000000000000000000000000000000000000000\n  dup2\n  mstore\n  pop\n  0x06\n  swap1\n  dup2\n  tag_1\n  swap2\n  swap1\n  tag_2\n  jump\t// in\ntag_1:\n  pop\n    /* \"contracts/kaiToken.sol\":477:506  string public _symbol = \"KAI\" */\n  mload(0x40)\n  dup1\n  0x40\n  add\n  0x40\n  mstore\n  dup1\n  0x03\n  dup2\n  mstore\n  0x20\n  add\n  0x4b41490000000000000000000000000000000000000000000000000000000000\n  dup2\n  mstore\n  pop\n  0x07\n  swap1\n  dup2\n  tag_3\n  swap2\n  swap1\n  tag_2\n  jump\t// in\ntag_3:\n  pop\n    /* \"contracts/kaiToken.sol\":555:565  decimals() */\n  tag_4\n    /* \"contracts/kaiToken.sol\":555:563  decimals */\n  shl(0x20, tag_5)\n    /* \"contracts/kaiToken.sol\":555:565  decimals() */\n  0x20\n  shr\n  jump\t// in\ntag_4:\n    /* \"contracts/kaiToken.sol\":551:553  10 */\n  0x0a\n    /* \"contracts/kaiToken.sol\":551:565  10**decimals() */\n  tag_6\n  swap2\n  swap1\n  tag_7\n  jump\t// in\ntag_6:\n    /* \"contracts/kaiToken.sol\":542:547  10000 */\n  0x2710\n    /* \"contracts/kaiToken.sol\":542:566  10000 * (10**decimals()) */\n  tag_8\n  swap2\n  swap1\n  tag_9\n  jump\t// in\ntag_8:\n    /* \"contracts/kaiToken.sol\":512:566  uint256 public _totalSupply = 10000 * (10**decimals()) */\n  0x08\n  sstore\n    /* \"contracts/kaiToken.sol\":595:598  100 */\n  0x64\n    /* \"contracts/kaiToken.sol\":573:598  uint256 public rate = 100 */\n  0x09\n  sstore\n    /* \"contracts/kaiToken.sol\":627:839  constructor() ERC20(_name, _symbol){... */\n  callvalue\n  dup1\n  iszero\n  tag_10\n  jumpi\n  0x00\n  dup1\n  revert\ntag_10:\n  pop\n    /* \"contracts/kaiToken.sol\":647:652  _name */\n  0x06\n    /* \"node_modules/openzeppelin-solidity/contracts/token/ERC20/ERC20.sol\":1978:2091  constructor(string memory name_, string memory symbol_) {... */\n  dup1\n  sload\n  tag_13\n  swap1\n  tag_14\n  jump\t// in\ntag_13:\n  dup1\n  0x1f\n  add\n  0x20\n  dup1\n  swap2\n  div\n  mul\n  0x20\n  add\n  mload(0x40)\n  swap1\n  dup2\n  add\n  0x40\n  mstore\n  dup1\n  swap3\n  swap2\n  swap1\n  dup2\n  dup2\n  mstore\n  0x20\n  add\n  dup3\n  dup1\n  sload\n  tag_15\n  swap1\n  tag_14\n  jump\t// in\ntag_15:\n  dup1\n  iszero\n  tag_16\n  jumpi\n  dup1\n  0x1f\n  lt\n  tag_17\n  jumpi\n  0x0100\n  dup1\n  dup4\n  sload\n  div\n  mul\n  dup4\n  mstore\n  swap2\n  0x20\n  add\n  swap2\n  jump(tag_16)\ntag_17:\n  dup3\n  add\n  swap2\n  swap1\n  0x00\n  mstore\n  keccak256(0x00, 0x20)\n  swap1\ntag_18:\n  dup2\n  sload\n  dup2\n  mstore\n  swap1\n  0x01\n  add\n  swap1\n  0x20\n  add\n  dup1\n  dup4\n  gt\n  tag_18\n  jumpi\n  dup3\n  swap1\n  sub\n  0x1f\n  and\n  dup3\n  add\n  swap2\ntag_16:\n  pop\n  pop\n  pop\n  pop\n  pop\n    /* \"contracts/kaiToken.sol\":654:661  _symbol */\n  0x07\n    /* \"node_modules/openzeppelin-solidity/contracts/token/ERC20/ERC20.sol\":1978:2091  constructor(string memory name_, string memory symbol_) {... */\n  dup1\n  sload\n  tag_19\n  swap1\n  tag_14\n  jump\t// in\ntag_19:\n  dup1\n  0x1f\n  add\n  0x20\n  dup1\n  swap2\n  div\n  mul\n  0x20\n  add\n  mload(0x40)\n  swap1\n  dup2\n  add\n  0x40\n  mstore\n  dup1\n  swap3\n  swap2\n  swap1\n  dup2\n  dup2\n  mstore\n  0x20\n  add\n  dup3\n  dup1\n  sload\n  tag_20\n  swap1\n  tag_14\n  jump\t// in\ntag_20:\n  dup1\n  iszero\n  tag_21\n  jumpi\n  dup1\n  0x1f\n  lt\n  tag_22\n  jumpi\n  0x0100\n  dup1\n  dup4\n  sload\n  div\n  mul\n  dup4\n  mstore\n  swap2\n  0x20\n  add\n  swap2\n  jump(tag_21)\ntag_22:\n  dup3\n  add\n  swap2\n  swap1\n  0x00\n  mstore\n  keccak256(0x00, 0x20)\n  swap1\ntag_23:\n  dup2\n  sload\n  dup2\n  mstore\n  swap1\n  0x01\n  add\n  swap1\n  0x20\n  add\n  dup1\n  dup4\n  gt\n  tag_23\n  jumpi\n  dup3\n  swap1\n  sub\n  0x1f\n  and\n  dup3\n  add\n  swap2\ntag_21:\n  pop\n  pop\n  pop\n  pop\n  pop\n    /* \"node_modules/openzeppelin-solidity/contracts/token/ERC20/ERC20.sol\":2052:2057  name_ */\n  dup2\n    /* \"node_modules/openzeppelin-solidity/contracts/token/ERC20/ERC20.sol\":2044:2049  _name */\n  0x03\n    /* \"node_modules/openzeppelin-solidity/contracts/token/ERC20/ERC20.sol\":2044:2057  _name = name_ */\n  swap1\n  dup2\n  tag_26\n  swap2\n  swap1\n  tag_2\n  jump\t// in\ntag_26:\n  pop\n    /* \"node_modules/openzeppelin-solidity/contracts/token/ERC20/ERC20.sol\":2077:2084  symbol_ */\n  dup1\n    /* \"node_modules/openzeppelin-solidity/contracts/token/ERC20/ERC20.sol\":2067:2074  _symbol */\n  0x04\n    /* \"node_modules/openzeppelin-solidity/contracts/token/ERC20/ERC20.sol\":2067:2084  _symbol = symbol_ */\n  swap1\n  dup2\n  tag_27\n  swap2\n  swap1\n  tag_2\n  jump\t// in\ntag_27:\n  pop\n    /* \"node_modules/openzeppelin-solidity/contracts/token/ERC20/ERC20.sol\":1978:2091  constructor(string memory name_, string memory symbol_) {... */\n  pop\n  pop\n    /* \"node_modules/openzeppelin-solidity/contracts/access/Ownable.sol\":921:953  _transferOwnership(_msgSender()) */\n  tag_29\n    /* \"node_modules/openzeppelin-solidity/contracts/access/Ownable.sol\":940:952  _msgSender() */\n  tag_30\n    /* \"node_modules/openzeppelin-solidity/contracts/access/Ownable.sol\":940:950  _msgSender */\n  shl(0x20, tag_31)\n    /* \"node_modules/openzeppelin-solidity/contracts/access/Ownable.sol\":940:952  _msgSender() */\n  0x20\n  shr\n  jump\t// in\ntag_30:\n    /* \"node_modules/openzeppelin-solidity/contracts/access/Ownable.sol\":921:939  _transferOwnership */\n  shl(0x20, tag_32)\n    /* \"node_modules/openzeppelin-solidity/contracts/access/Ownable.sol\":921:953  _transferOwnership(_msgSender()) */\n  0x20\n  shr\n  jump\t// in\ntag_29:\n    /* \"contracts/kaiToken.sol\":726:731  _name */\n  0x06\n    /* \"contracts/kaiToken.sol\":718:723  _name */\n  dup1\n    /* \"contracts/kaiToken.sol\":718:731  _name = _name */\n  dup2\n  tag_34\n  swap2\n  swap1\n  tag_35\n  jump\t// in\ntag_34:\n  pop\n    /* \"contracts/kaiToken.sol\":751:758  _symbol */\n  0x07\n    /* \"contracts/kaiToken.sol\":741:748  _symbol */\n  dup1\n    /* \"contracts/kaiToken.sol\":741:758  _symbol = _symbol */\n  dup2\n  tag_36\n  swap2\n  swap1\n  tag_35\n  jump\t// in\ntag_36:\n  pop\n    /* \"contracts/kaiToken.sol\":805:832  mint(owner(), _totalSupply) */\n  tag_37\n    /* \"contracts/kaiToken.sol\":810:817  owner() */\n  tag_38\n    /* \"contracts/kaiToken.sol\":810:815  owner */\n  shl(0x20, tag_39)\n    /* \"contracts/kaiToken.sol\":810:817  owner() */\n  0x20\n  shr\n  jump\t// in\ntag_38:\n    /* \"contracts/kaiToken.sol\":819:831  _totalSupply */\n  sload(0x08)\n    /* \"contracts/kaiToken.sol\":805:809  mint */\n  shl(0x20, tag_40)\n    /* \"contracts/kaiToken.sol\":805:832  mint(owner(), _totalSupply) */\n  0x20\n  shr\n  jump\t// in\ntag_37:\n    /* \"contracts/kaiToken.sol\":397:2020  contract KaiToken is ERC20, Ownable {... */\n  jump(tag_41)\n    /* \"node_modules/openzeppelin-solidity/contracts/token/ERC20/ERC20.sol\":3093:3184  function decimals() public view virtual override returns (uint8) {... */\ntag_5:\n    /* \"node_modules/openzeppelin-solidity/contracts/token/ERC20/ERC20.sol\":3151:3156  uint8 */\n  0x00\n    /* \"node_modules/openzeppelin-solidity/contracts/token/ERC20/ERC20.sol\":3175:3177  18 */\n  0x12\n    /* \"node_modules/openzeppelin-solidity/contracts/token/ERC20/ERC20.sol\":3168:3177  return 18 */\n  swap1\n  pop\n    /* \"node_modules/openzeppelin-solidity/contracts/token/ERC20/ERC20.sol\":3093:3184  function decimals() public view virtual override returns (uint8) {... */\n  swap1\n  jump\t// out\n    /* \"node_modules/openzeppelin-solidity/contracts/utils/Context.sol\":640:736  function _msgSender() internal view virtual returns (address) {... */\ntag_31:\n    /* \"node_modules/openzeppelin-solidity/contracts/utils/Context.sol\":693:700  address */\n  0x00\n    /* \"node_modules/openzeppelin-solidity/contracts/utils/Context.sol\":719:729  msg.sender */\n  caller\n    /* \"node_modules/openzeppelin-solidity/contracts/utils/Context.sol\":712:729  return msg.sender */\n  swap1\n  pop\n    /* \"node_modules/openzeppelin-solidity/contracts/utils/Context.sol\":640:736  function _msgSender() internal view virtual returns (address) {... */\n  swap1\n  jump\t// out\n    /* \"node_modules/openzeppelin-solidity/contracts/access/Ownable.sol\":2270:2457  function _transferOwnership(address newOwner) internal virtual {... */\ntag_32:\n    /* \"node_modules/openzeppelin-solidity/contracts/access/Ownable.sol\":2343:2359  address oldOwner */\n  0x00\n    /* \"node_modules/openzeppelin-solidity/contracts/access/Ownable.sol\":2362:2368  _owner */\n  0x05\n  0x00\n  swap1\n  sload\n  swap1\n  0x0100\n  exp\n  swap1\n  div\n  0xffffffffffffffffffffffffffffffffffffffff\n  and\n    /* \"node_modules/openzeppelin-solidity/contracts/access/Ownable.sol\":2343:2368  address oldOwner = _owner */\n  swap1\n  pop\n    /* \"node_modules/openzeppelin-solidity/contracts/access/Ownable.sol\":2387:2395  newOwner */\n  dup2\n    /* \"node_modules/openzeppelin-solidity/contracts/access/Ownable.sol\":2378:2384  _owner */\n  0x05\n  0x00\n    /* \"node_modules/openzeppelin-solidity/contracts/access/Ownable.sol\":2378:2395  _owner = newOwner */\n  0x0100\n  exp\n  dup2\n  sload\n  dup2\n  0xffffffffffffffffffffffffffffffffffffffff\n  mul\n  not\n  and\n  swap1\n  dup4\n  0xffffffffffffffffffffffffffffffffffffffff\n  and\n  mul\n  or\n  swap1\n  sstore\n  pop\n    /* \"node_modules/openzeppelin-solidity/contracts/access/Ownable.sol\":2441:2449  newOwner */\n  dup2\n    /* \"node_modules/openzeppelin-solidity/contracts/access/Ownable.sol\":2410:2450  OwnershipTransferred(oldOwner, newOwner) */\n  0xffffffffffffffffffffffffffffffffffffffff\n  and\n    /* \"node_modules/openzeppelin-solidity/contracts/access/Ownable.sol\":2431:2439  oldOwner */\n  dup2\n    /* \"node_modules/openzeppelin-solidity/contracts/access/Ownable.sol\":2410:2450  OwnershipTransferred(oldOwner, newOwner) */\n  0xffffffffffffffffffffffffffffffffffffffff\n  and\n  0x8be0079c531659141344cd1fd0a4f28419497f9722a3daafe3b4186f6b6457e0\n  mload(0x40)\n  mload(0x40)\n  dup1\n  swap2\n  sub\n  swap1\n  log3\n    /* \"node_modules/openzeppelin-solidity/contracts/access/Ownable.sol\":2333:2457  {... */\n  pop\n    /* \"node_modules/openzeppelin-solidity/contracts/access/Ownable.sol\":2270:2457  function _transferOwnership(address newOwner) internal virtual {... */\n  pop\n  jump\t// out\n    /* \"node_modules/openzeppelin-solidity/contracts/access/Ownable.sol\":1036:1121  function owner() public view virtual returns (address) {... */\ntag_39:\n    /* \"node_modules/openzeppelin-solidity/contracts/access/Ownable.sol\":1082:1089  address */\n  0x00\n    /* \"node_modules/openzeppelin-solidity/contracts/access/Ownable.sol\":1108:1114  _owner */\n  0x05\n  0x00\n  swap1\n  sload\n  swap1\n  0x0100\n  exp\n  swap1\n  div\n  0xffffffffffffffffffffffffffffffffffffffff\n  and\n    /* \"node_modules/openzeppelin-solidity/contracts/access/Ownable.sol\":1101:1114  return _owner */\n  swap1\n  pop\n    /* \"node_modules/openzeppelin-solidity/contracts/access/Ownable.sol\":1036:1121  function owner() public view virtual returns (address) {... */\n  swap1\n  jump\t// out\n    /* \"node_modules/openzeppelin-solidity/contracts/token/ERC20/ERC20.sol\":8473:8576  function mint(address account, uint256 amount) public virtual {... */\ntag_40:\n    /* \"node_modules/openzeppelin-solidity/contracts/token/ERC20/ERC20.sol\":8545:8569  _mint( account,  amount) */\n  tag_47\n    /* \"node_modules/openzeppelin-solidity/contracts/token/ERC20/ERC20.sol\":8552:8559  account */\n  dup3\n    /* \"node_modules/openzeppelin-solidity/contracts/token/ERC20/ERC20.sol\":8562:8568  amount */\n  dup3\n    /* \"node_modules/openzeppelin-solidity/contracts/token/ERC20/ERC20.sol\":8545:8550  _mint */\n  shl(0x20, tag_48)\n    /* \"node_modules/openzeppelin-solidity/contracts/token/ERC20/ERC20.sol\":8545:8569  _mint( account,  amount) */\n  0x20\n  shr\n  jump\t// in\ntag_47:\n    /* \"node_modules/openzeppelin-solidity/contracts/token/ERC20/ERC20.sol\":8473:8576  function mint(address account, uint256 amount) public virtual {... */\n  pop\n  pop\n  jump\t// out\n    /* \"node_modules/openzeppelin-solidity/contracts/token/ERC20/ERC20.sol\":8852:9241  function _mint(address account, uint256 amount) internal virtual {... */\ntag_48:\n    /* \"node_modules/openzeppelin-solidity/contracts/token/ERC20/ERC20.sol\":8954:8955  0 */\n  0x00\n    /* \"node_modules/openzeppelin-solidity/contracts/token/ERC20/ERC20.sol\":8935:8956  account != address(0) */\n  0xffffffffffffffffffffffffffffffffffffffff\n  and\n    /* \"node_modules/openzeppelin-solidity/contracts/token/ERC20/ERC20.sol\":8935:8942  account */\n  dup3\n    /* \"node_modules/openzeppelin-solidity/contracts/token/ERC20/ERC20.sol\":8935:8956  account != address(0) */\n  0xffffffffffffffffffffffffffffffffffffffff\n  and\n  sub\n    /* \"node_modules/openzeppelin-solidity/contracts/token/ERC20/ERC20.sol\":8927:8992  require(account != address(0), \"ERC20: mint to the zero address\") */\n  tag_50\n  jumpi\n  mload(0x40)\n  0x08c379a000000000000000000000000000000000000000000000000000000000\n  dup2\n  mstore\n  0x04\n  add\n  tag_51\n  swap1\n  tag_52\n  jump\t// in\ntag_51:\n  mload(0x40)\n  dup1\n  swap2\n  sub\n  swap1\n  revert\ntag_50:\n    /* \"node_modules/openzeppelin-solidity/contracts/token/ERC20/ERC20.sol\":9003:9052  _beforeTokenTransfer(address(0), account, amount) */\n  tag_53\n    /* \"node_modules/openzeppelin-solidity/contracts/token/ERC20/ERC20.sol\":9032:9033  0 */\n  0x00\n    /* \"node_modules/openzeppelin-solidity/contracts/token/ERC20/ERC20.sol\":9036:9043  account */\n  dup4\n    /* \"node_modules/openzeppelin-solidity/contracts/token/ERC20/ERC20.sol\":9045:9051  amount */\n  dup4\n    /* \"node_modules/openzeppelin-solidity/contracts/token/ERC20/ERC20.sol\":9003:9023  _beforeTokenTransfer */\n  shl(0x20, tag_54)\n    /* \"node_modules/openzeppelin-solidity/contracts/token/ERC20/ERC20.sol\":9003:9052  _beforeTokenTransfer(address(0), account, amount) */\n  0x20\n  shr\n  jump\t// in\ntag_53:\n    /* \"node_modules/openzeppelin-solidity/contracts/token/ERC20/ERC20.sol\":9079:9085  amount */\n  dup1\n    /* \"node_modules/openzeppelin-solidity/contracts/token/ERC20/ERC20.sol\":9063:9075  _totalSupply */\n  0x02\n  0x00\n    /* \"node_modules/openzeppelin-solidity/contracts/token/ERC20/ERC20.sol\":9063:9085  _totalSupply += amount */\n  dup3\n  dup3\n  sload\n  tag_55\n  swap2\n  swap1\n  tag_56\n  jump\t// in\ntag_55:\n  swap3\n  pop\n  pop\n  dup2\n  swap1\n  sstore\n  pop\n    /* \"node_modules/openzeppelin-solidity/contracts/token/ERC20/ERC20.sol\":9117:9123  amount */\n  dup1\n    /* \"node_modules/openzeppelin-solidity/contracts/token/ERC20/ERC20.sol\":9095:9104  _balances */\n  0x00\n    /* \"node_modules/openzeppelin-solidity/contracts/token/ERC20/ERC20.sol\":9095:9113  _balances[account] */\n  dup1\n    /* \"node_modules/openzeppelin-solidity/contracts/token/ERC20/ERC20.sol\":9105:9112  account */\n  dup5\n    /* \"node_modules/openzeppelin-solidity/contracts/token/ERC20/ERC20.sol\":9095:9113  _balances[account] */\n  0xffffffffffffffffffffffffffffffffffffffff\n  and\n  0xffffffffffffffffffffffffffffffffffffffff\n  and\n  dup2\n  mstore\n  0x20\n  add\n  swap1\n  dup2\n  mstore\n  0x20\n  add\n  0x00\n  keccak256\n  0x00\n    /* \"node_modules/openzeppelin-solidity/contracts/token/ERC20/ERC20.sol\":9095:9123  _balances[account] += amount */\n  dup3\n  dup3\n  sload\n  tag_57\n  swap2\n  swap1\n  tag_56\n  jump\t// in\ntag_57:\n  swap3\n  pop\n  pop\n  dup2\n  swap1\n  sstore\n  pop\n    /* \"node_modules/openzeppelin-solidity/contracts/token/ERC20/ERC20.sol\":9159:9166  account */\n  dup2\n    /* \"node_modules/openzeppelin-solidity/contracts/token/ERC20/ERC20.sol\":9138:9175  Transfer(address(0), account, amount) */\n  0xffffffffffffffffffffffffffffffffffffffff\n  and\n    /* \"node_modules/openzeppelin-solidity/contracts/token/ERC20/ERC20.sol\":9155:9156  0 */\n  0x00\n    /* \"node_modules/openzeppelin-solidity/contracts/token/ERC20/ERC20.sol\":9138:9175  Transfer(address(0), account, amount) */\n  0xffffffffffffffffffffffffffffffffffffffff\n  and\n  0xddf252ad1be2c89b69c2b068fc378daa952ba7f163c4a11628f55a4df523b3ef\n    /* \"node_modules/openzeppelin-solidity/contracts/token/ERC20/ERC20.sol\":9168:9174  amount */\n  dup4\n    /* \"node_modules/openzeppelin-solidity/contracts/token/ERC20/ERC20.sol\":9138:9175  Transfer(address(0), account, amount) */\n  mload(0x40)\n  tag_58\n  swap2\n  swap1\n  tag_59\n  jump\t// in\ntag_58:\n  mload(0x40)\n  dup1\n  swap2\n  sub\n  swap1\n  log3\n    /* \"node_modules/openzeppelin-solidity/contracts/token/ERC20/ERC20.sol\":9186:9234  _afterTokenTransfer(address(0), account, amount) */\n  tag_60\n    /* \"node_modules/openzeppelin-solidity/contracts/token/ERC20/ERC20.sol\":9214:9215  0 */\n  0x00\n    /* \"node_modules/openzeppelin-solidity/contracts/token/ERC20/ERC20.sol\":9218:9225  account */\n  dup4\n    /* \"node_modules/openzeppelin-solidity/contracts/token/ERC20/ERC20.sol\":9227:9233  amount */\n  dup4\n    /* \"node_modules/openzeppelin-solidity/contracts/token/ERC20/ERC20.sol\":9186:9205  _afterTokenTransfer */\n  shl(0x20, tag_61)\n    /* \"node_modules/openzeppelin-solidity/contracts/token/ERC20/ERC20.sol\":9186:9234  _afterTokenTransfer(address(0), account, amount) */\n  0x20\n  shr\n  jump\t// in\ntag_60:\n    /* \"node_modules/openzeppelin-solidity/contracts/token/ERC20/ERC20.sol\":8852:9241  function _mint(address account, uint256 amount) internal virtual {... */\n  pop\n  pop\n  jump\t// out\n    /* \"node_modules/openzeppelin-solidity/contracts/token/ERC20/ERC20.sol\":12236:12357  function _beforeTokenTransfer(... */\ntag_54:\n  pop\n  pop\n  pop\n  jump\t// out\n    /* \"node_modules/openzeppelin-solidity/contracts/token/ERC20/ERC20.sol\":12945:13065  function _afterTokenTransfer(... */\ntag_61:\n  pop\n  pop\n  pop\n  jump\t// out\n    /* \"#utility.yul\":7:106   */\ntag_64:\n    /* \"#utility.yul\":59:65   */\n  0x00\n    /* \"#utility.yul\":93:98   */\n  dup2\n    /* \"#utility.yul\":87:99   */\n  mload\n    /* \"#utility.yul\":77:99   */\n  swap1\n  pop\n    /* \"#utility.yul\":7:106   */\n  swap2\n  swap1\n  pop\n  jump\t// out\n    /* \"#utility.yul\":112:292   */\ntag_65:\n    /* \"#utility.yul\":160:237   */\n  0x4e487b7100000000000000000000000000000000000000000000000000000000\n    /* \"#utility.yul\":157:158   */\n  0x00\n    /* \"#utility.yul\":150:238   */\n  mstore\n    /* \"#utility.yul\":257:261   */\n  0x41\n    /* \"#utility.yul\":254:255   */\n  0x04\n    /* \"#utility.yul\":247:262   */\n  mstore\n    /* \"#utility.yul\":281:285   */\n  0x24\n    /* \"#utility.yul\":278:279   */\n  0x00\n    /* \"#utility.yul\":271:286   */\n  revert\n    /* \"#utility.yul\":298:478   */\ntag_66:\n    /* \"#utility.yul\":346:423   */\n  0x4e487b7100000000000000000000000000000000000000000000000000000000\n    /* \"#utility.yul\":343:344   */\n  0x00\n    /* \"#utility.yul\":336:424   */\n  mstore\n    /* \"#utility.yul\":443:447   */\n  0x22\n    /* \"#utility.yul\":440:441   */\n  0x04\n    /* \"#utility.yul\":433:448   */\n  mstore\n    /* \"#utility.yul\":467:471   */\n  0x24\n    /* \"#utility.yul\":464:465   */\n  0x00\n    /* \"#utility.yul\":457:472   */\n  revert\n    /* \"#utility.yul\":484:804   */\ntag_14:\n    /* \"#utility.yul\":528:534   */\n  0x00\n    /* \"#utility.yul\":565:566   */\n  0x02\n    /* \"#utility.yul\":559:563   */\n  dup3\n    /* \"#utility.yul\":555:567   */\n  div\n    /* \"#utility.yul\":545:567   */\n  swap1\n  pop\n    /* \"#utility.yul\":612:613   */\n  0x01\n    /* \"#utility.yul\":606:610   */\n  dup3\n    /* \"#utility.yul\":602:614   */\n  and\n    /* \"#utility.yul\":633:651   */\n  dup1\n    /* \"#utility.yul\":623:704   */\n  tag_99\n  jumpi\n    /* \"#utility.yul\":689:693   */\n  0x7f\n    /* \"#utility.yul\":681:687   */\n  dup3\n    /* \"#utility.yul\":677:694   */\n  and\n    /* \"#utility.yul\":667:694   */\n  swap2\n  pop\n    /* \"#utility.yul\":623:704   */\ntag_99:\n    /* \"#utility.yul\":751:753   */\n  0x20\n    /* \"#utility.yul\":743:749   */\n  dup3\n    /* \"#utility.yul\":740:754   */\n  lt\n    /* \"#utility.yul\":720:738   */\n  dup2\n    /* \"#utility.yul\":717:755   */\n  sub\n    /* \"#utility.yul\":714:798   */\n  tag_100\n  jumpi\n    /* \"#utility.yul\":770:788   */\n  tag_101\n  tag_66\n  jump\t// in\ntag_101:\n    /* \"#utility.yul\":714:798   */\ntag_100:\n    /* \"#utility.yul\":535:804   */\n  pop\n    /* \"#utility.yul\":484:804   */\n  swap2\n  swap1\n  pop\n  jump\t// out\n    /* \"#utility.yul\":810:951   */\ntag_67:\n    /* \"#utility.yul\":859:863   */\n  0x00\n    /* \"#utility.yul\":882:885   */\n  dup2\n    /* \"#utility.yul\":874:885   */\n  swap1\n  pop\n    /* \"#utility.yul\":905:908   */\n  dup2\n    /* \"#utility.yul\":902:903   */\n  0x00\n    /* \"#utility.yul\":895:909   */\n  mstore\n    /* \"#utility.yul\":939:943   */\n  0x20\n    /* \"#utility.yul\":936:937   */\n  0x00\n    /* \"#utility.yul\":926:944   */\n  keccak256\n    /* \"#utility.yul\":918:944   */\n  swap1\n  pop\n    /* \"#utility.yul\":810:951   */\n  swap2\n  swap1\n  pop\n  jump\t// out\n    /* \"#utility.yul\":957:1050   */\ntag_68:\n    /* \"#utility.yul\":994:1000   */\n  0x00\n    /* \"#utility.yul\":1041:1043   */\n  0x20\n    /* \"#utility.yul\":1036:1038   */\n  0x1f\n    /* \"#utility.yul\":1029:1034   */\n  dup4\n    /* \"#utility.yul\":1025:1039   */\n  add\n    /* \"#utility.yul\":1021:1044   */\n  div\n    /* \"#utility.yul\":1011:1044   */\n  swap1\n  pop\n    /* \"#utility.yul\":957:1050   */\n  swap2\n  swap1\n  pop\n  jump\t// out\n    /* \"#utility.yul\":1056:1163   */\ntag_69:\n    /* \"#utility.yul\":1100:1108   */\n  0x00\n    /* \"#utility.yul\":1150:1155   */\n  dup3\n    /* \"#utility.yul\":1144:1148   */\n  dup3\n    /* \"#utility.yul\":1140:1156   */\n  shl\n    /* \"#utility.yul\":1119:1156   */\n  swap1\n  pop\n    /* \"#utility.yul\":1056:1163   */\n  swap3\n  swap2\n  pop\n  pop\n  jump\t// out\n    /* \"#utility.yul\":1169:1562   */\ntag_70:\n    /* \"#utility.yul\":1238:1244   */\n  0x00\n    /* \"#utility.yul\":1288:1289   */\n  0x08\n    /* \"#utility.yul\":1276:1286   */\n  dup4\n    /* \"#utility.yul\":1272:1290   */\n  mul\n    /* \"#utility.yul\":1311:1408   */\n  tag_106\n    /* \"#utility.yul\":1341:1407   */\n  0xffffffffffffffffffffffffffffffffffffffffffffffffffffffffffffffff\n    /* \"#utility.yul\":1330:1339   */\n  dup3\n    /* \"#utility.yul\":1311:1408   */\n  tag_69\n  jump\t// in\ntag_106:\n    /* \"#utility.yul\":1429:1468   */\n  tag_107\n    /* \"#utility.yul\":1459:1467   */\n  dup7\n    /* \"#utility.yul\":1448:1457   */\n  dup4\n    /* \"#utility.yul\":1429:1468   */\n  tag_69\n  jump\t// in\ntag_107:\n    /* \"#utility.yul\":1417:1468   */\n  swap6\n  pop\n    /* \"#utility.yul\":1501:1505   */\n  dup1\n    /* \"#utility.yul\":1497:1506   */\n  not\n    /* \"#utility.yul\":1490:1495   */\n  dup5\n    /* \"#utility.yul\":1486:1507   */\n  and\n    /* \"#utility.yul\":1477:1507   */\n  swap4\n  pop\n    /* \"#utility.yul\":1550:1554   */\n  dup1\n    /* \"#utility.yul\":1540:1548   */\n  dup7\n    /* \"#utility.yul\":1536:1555   */\n  and\n    /* \"#utility.yul\":1529:1534   */\n  dup5\n    /* \"#utility.yul\":1526:1556   */\n  or\n    /* \"#utility.yul\":1516:1556   */\n  swap3\n  pop\n    /* \"#utility.yul\":1245:1562   */\n  pop\n  pop\n    /* \"#utility.yul\":1169:1562   */\n  swap4\n  swap3\n  pop\n  pop\n  pop\n  jump\t// out\n    /* \"#utility.yul\":1568:1645   */\ntag_71:\n    /* \"#utility.yul\":1605:1612   */\n  0x00\n    /* \"#utility.yul\":1634:1639   */\n  dup2\n    /* \"#utility.yul\":1623:1639   */\n  swap1\n  pop\n    /* \"#utility.yul\":1568:1645   */\n  swap2\n  swap1\n  pop\n  jump\t// out\n    /* \"#utility.yul\":1651:1711   */\ntag_72:\n    /* \"#utility.yul\":1679:1682   */\n  0x00\n    /* \"#utility.yul\":1700:1705   */\n  dup2\n    /* \"#utility.yul\":1693:1705   */\n  swap1\n  pop\n    /* \"#utility.yul\":1651:1711   */\n  swap2\n  swap1\n  pop\n  jump\t// out\n    /* \"#utility.yul\":1717:1859   */\ntag_73:\n    /* \"#utility.yul\":1767:1776   */\n  0x00\n    /* \"#utility.yul\":1800:1853   */\n  tag_111\n    /* \"#utility.yul\":1818:1852   */\n  tag_112\n    /* \"#utility.yul\":1827:1851   */\n  tag_113\n    /* \"#utility.yul\":1845:1850   */\n  dup5\n    /* \"#utility.yul\":1827:1851   */\n  tag_71\n  jump\t// in\ntag_113:\n    /* \"#utility.yul\":1818:1852   */\n  tag_72\n  jump\t// in\ntag_112:\n    /* \"#utility.yul\":1800:1853   */\n  tag_71\n  jump\t// in\ntag_111:\n    /* \"#utility.yul\":1787:1853   */\n  swap1\n  pop\n    /* \"#utility.yul\":1717:1859   */\n  swap2\n  swap1\n  pop\n  jump\t// out\n    /* \"#utility.yul\":1865:1940   */\ntag_74:\n    /* \"#utility.yul\":1908:1911   */\n  0x00\n    /* \"#utility.yul\":1929:1934   */\n  dup2\n    /* \"#utility.yul\":1922:1934   */\n  swap1\n  pop\n    /* \"#utility.yul\":1865:1940   */\n  swap2\n  swap1\n  pop\n  jump\t// out\n    /* \"#utility.yul\":1946:2215   */\ntag_75:\n    /* \"#utility.yul\":2056:2095   */\n  tag_116\n    /* \"#utility.yul\":2087:2094   */\n  dup4\n    /* \"#utility.yul\":2056:2095   */\n  tag_73\n  jump\t// in\ntag_116:\n    /* \"#utility.yul\":2117:2208   */\n  tag_117\n    /* \"#utility.yul\":2166:2207   */\n  tag_118\n    /* \"#utility.yul\":2190:2206   */\n  dup3\n    /* \"#utility.yul\":2166:2207   */\n  tag_74\n  jump\t// in\ntag_118:\n    /* \"#utility.yul\":2158:2164   */\n  dup5\n    /* \"#utility.yul\":2151:2155   */\n  dup5\n    /* \"#utility.yul\":2145:2156   */\n  sload\n    /* \"#utility.yul\":2117:2208   */\n  tag_70\n  jump\t// in\ntag_117:\n    /* \"#utility.yul\":2111:2115   */\n  dup3\n    /* \"#utility.yul\":2104:2209   */\n  sstore\n    /* \"#utility.yul\":2022:2215   */\n  pop\n    /* \"#utility.yul\":1946:2215   */\n  pop\n  pop\n  pop\n  jump\t// out\n    /* \"#utility.yul\":2221:2294   */\ntag_76:\n    /* \"#utility.yul\":2266:2269   */\n  0x00\n    /* \"#utility.yul\":2221:2294   */\n  swap1\n  jump\t// out\n    /* \"#utility.yul\":2300:2489   */\ntag_77:\n    /* \"#utility.yul\":2377:2409   */\n  tag_121\n  tag_76\n  jump\t// in\ntag_121:\n    /* \"#utility.yul\":2418:2483   */\n  tag_122\n    /* \"#utility.yul\":2476:2482   */\n  dup2\n    /* \"#utility.yul\":2468:2474   */\n  dup5\n    /* \"#utility.yul\":2462:2466   */\n  dup5\n    /* \"#utility.yul\":2418:2483   */\n  tag_75\n  jump\t// in\ntag_122:\n    /* \"#utility.yul\":2353:2489   */\n  pop\n    /* \"#utility.yul\":2300:2489   */\n  pop\n  pop\n  jump\t// out\n    /* \"#utility.yul\":2495:2681   */\ntag_78:\n    /* \"#utility.yul\":2555:2675   */\ntag_124:\n    /* \"#utility.yul\":2572:2575   */\n  dup2\n    /* \"#utility.yul\":2565:2570   */\n  dup2\n    /* \"#utility.yul\":2562:2576   */\n  lt\n    /* \"#utility.yul\":2555:2675   */\n  iszero\n  tag_126\n  jumpi\n    /* \"#utility.yul\":2626:2665   */\n  tag_127\n    /* \"#utility.yul\":2663:2664   */\n  0x00\n    /* \"#utility.yul\":2656:2661   */\n  dup3\n    /* \"#utility.yul\":2626:2665   */\n  tag_77\n  jump\t// in\ntag_127:\n    /* \"#utility.yul\":2599:2600   */\n  0x01\n    /* \"#utility.yul\":2592:2597   */\n  dup2\n    /* \"#utility.yul\":2588:2601   */\n  add\n    /* \"#utility.yul\":2579:2601   */\n  swap1\n  pop\n    /* \"#utility.yul\":2555:2675   */\n  jump(tag_124)\ntag_126:\n    /* \"#utility.yul\":2495:2681   */\n  pop\n  pop\n  jump\t// out\n    /* \"#utility.yul\":2687:3230   */\ntag_79:\n    /* \"#utility.yul\":2788:2790   */\n  0x1f\n    /* \"#utility.yul\":2783:2786   */\n  dup3\n    /* \"#utility.yul\":2780:2791   */\n  gt\n    /* \"#utility.yul\":2777:3223   */\n  iszero\n  tag_129\n  jumpi\n    /* \"#utility.yul\":2822:2860   */\n  tag_130\n    /* \"#utility.yul\":2854:2859   */\n  dup2\n    /* \"#utility.yul\":2822:2860   */\n  tag_67\n  jump\t// in\ntag_130:\n    /* \"#utility.yul\":2906:2935   */\n  tag_131\n    /* \"#utility.yul\":2924:2934   */\n  dup5\n    /* \"#utility.yul\":2906:2935   */\n  tag_68\n  jump\t// in\ntag_131:\n    /* \"#utility.yul\":2896:2904   */\n  dup2\n    /* \"#utility.yul\":2892:2936   */\n  add\n    /* \"#utility.yul\":3089:3091   */\n  0x20\n    /* \"#utility.yul\":3077:3087   */\n  dup6\n    /* \"#utility.yul\":3074:3092   */\n  lt\n    /* \"#utility.yul\":3071:3120   */\n  iszero\n  tag_132\n  jumpi\n    /* \"#utility.yul\":3110:3118   */\n  dup2\n    /* \"#utility.yul\":3095:3118   */\n  swap1\n  pop\n    /* \"#utility.yul\":3071:3120   */\ntag_132:\n    /* \"#utility.yul\":3133:3213   */\n  tag_133\n    /* \"#utility.yul\":3189:3211   */\n  tag_134\n    /* \"#utility.yul\":3207:3210   */\n  dup6\n    /* \"#utility.yul\":3189:3211   */\n  tag_68\n  jump\t// in\ntag_134:\n    /* \"#utility.yul\":3179:3187   */\n  dup4\n    /* \"#utility.yul\":3175:3212   */\n  add\n    /* \"#utility.yul\":3162:3173   */\n  dup3\n    /* \"#utility.yul\":3133:3213   */\n  tag_78\n  jump\t// in\ntag_133:\n    /* \"#utility.yul\":2792:3223   */\n  pop\n  pop\n    /* \"#utility.yul\":2777:3223   */\ntag_129:\n    /* \"#utility.yul\":2687:3230   */\n  pop\n  pop\n  pop\n  jump\t// out\n    /* \"#utility.yul\":3236:3353   */\ntag_80:\n    /* \"#utility.yul\":3290:3298   */\n  0x00\n    /* \"#utility.yul\":3340:3345   */\n  dup3\n    /* \"#utility.yul\":3334:3338   */\n  dup3\n    /* \"#utility.yul\":3330:3346   */\n  shr\n    /* \"#utility.yul\":3309:3346   */\n  swap1\n  pop\n    /* \"#utility.yul\":3236:3353   */\n  swap3\n  swap2\n  pop\n  pop\n  jump\t// out\n    /* \"#utility.yul\":3359:3528   */\ntag_81:\n    /* \"#utility.yul\":3403:3409   */\n  0x00\n    /* \"#utility.yul\":3436:3487   */\n  tag_137\n    /* \"#utility.yul\":3484:3485   */\n  0x00\n    /* \"#utility.yul\":3480:3486   */\n  not\n    /* \"#utility.yul\":3472:3477   */\n  dup5\n    /* \"#utility.yul\":3469:3470   */\n  0x08\n    /* \"#utility.yul\":3465:3478   */\n  mul\n    /* \"#utility.yul\":3436:3487   */\n  tag_80\n  jump\t// in\ntag_137:\n    /* \"#utility.yul\":3432:3488   */\n  not\n    /* \"#utility.yul\":3517:3521   */\n  dup1\n    /* \"#utility.yul\":3511:3515   */\n  dup4\n    /* \"#utility.yul\":3507:3522   */\n  and\n    /* \"#utility.yul\":3497:3522   */\n  swap2\n  pop\n    /* \"#utility.yul\":3410:3528   */\n  pop\n    /* \"#utility.yul\":3359:3528   */\n  swap3\n  swap2\n  pop\n  pop\n  jump\t// out\n    /* \"#utility.yul\":3533:3828   */\ntag_82:\n    /* \"#utility.yul\":3609:3613   */\n  0x00\n    /* \"#utility.yul\":3755:3784   */\n  tag_139\n    /* \"#utility.yul\":3780:3783   */\n  dup4\n    /* \"#utility.yul\":3774:3778   */\n  dup4\n    /* \"#utility.yul\":3755:3784   */\n  tag_81\n  jump\t// in\ntag_139:\n    /* \"#utility.yul\":3747:3784   */\n  swap2\n  pop\n    /* \"#utility.yul\":3817:3820   */\n  dup3\n    /* \"#utility.yul\":3814:3815   */\n  0x02\n    /* \"#utility.yul\":3810:3821   */\n  mul\n    /* \"#utility.yul\":3804:3808   */\n  dup3\n    /* \"#utility.yul\":3801:3822   */\n  or\n    /* \"#utility.yul\":3793:3822   */\n  swap1\n  pop\n    /* \"#utility.yul\":3533:3828   */\n  swap3\n  swap2\n  pop\n  pop\n  jump\t// out\n    /* \"#utility.yul\":3833:5228   */\ntag_2:\n    /* \"#utility.yul\":3950:3987   */\n  tag_141\n    /* \"#utility.yul\":3983:3986   */\n  dup3\n    /* \"#utility.yul\":3950:3987   */\n  tag_64\n  jump\t// in\ntag_141:\n    /* \"#utility.yul\":4052:4070   */\n  0xffffffffffffffff\n    /* \"#utility.yul\":4044:4050   */\n  dup2\n    /* \"#utility.yul\":4041:4071   */\n  gt\n    /* \"#utility.yul\":4038:4094   */\n  iszero\n  tag_142\n  jumpi\n    /* \"#utility.yul\":4074:4092   */\n  tag_143\n  tag_65\n  jump\t// in\ntag_143:\n    /* \"#utility.yul\":4038:4094   */\ntag_142:\n    /* \"#utility.yul\":4118:4156   */\n  tag_144\n    /* \"#utility.yul\":4150:4154   */\n  dup3\n    /* \"#utility.yul\":4144:4155   */\n  sload\n    /* \"#utility.yul\":4118:4156   */\n  tag_14\n  jump\t// in\ntag_144:\n    /* \"#utility.yul\":4203:4270   */\n  tag_145\n    /* \"#utility.yul\":4263:4269   */\n  dup3\n    /* \"#utility.yul\":4255:4261   */\n  dup3\n    /* \"#utility.yul\":4249:4253   */\n  dup6\n    /* \"#utility.yul\":4203:4270   */\n  tag_79\n  jump\t// in\ntag_145:\n    /* \"#utility.yul\":4297:4298   */\n  0x00\n    /* \"#utility.yul\":4321:4325   */\n  0x20\n    /* \"#utility.yul\":4308:4325   */\n  swap1\n  pop\n    /* \"#utility.yul\":4353:4355   */\n  0x1f\n    /* \"#utility.yul\":4345:4351   */\n  dup4\n    /* \"#utility.yul\":4342:4356   */\n  gt\n    /* \"#utility.yul\":4370:4371   */\n  0x01\n    /* \"#utility.yul\":4365:4983   */\n  dup2\n  eq\n  tag_147\n  jumpi\n    /* \"#utility.yul\":5027:5028   */\n  0x00\n    /* \"#utility.yul\":5044:5050   */\n  dup5\n    /* \"#utility.yul\":5041:5118   */\n  iszero\n  tag_148\n  jumpi\n    /* \"#utility.yul\":5093:5102   */\n  dup3\n    /* \"#utility.yul\":5088:5091   */\n  dup8\n    /* \"#utility.yul\":5084:5103   */\n  add\n    /* \"#utility.yul\":5078:5104   */\n  mload\n    /* \"#utility.yul\":5069:5104   */\n  swap1\n  pop\n    /* \"#utility.yul\":5041:5118   */\ntag_148:\n    /* \"#utility.yul\":5144:5211   */\n  tag_149\n    /* \"#utility.yul\":5204:5210   */\n  dup6\n    /* \"#utility.yul\":5197:5202   */\n  dup3\n    /* \"#utility.yul\":5144:5211   */\n  tag_82\n  jump\t// in\ntag_149:\n    /* \"#utility.yul\":5138:5142   */\n  dup7\n    /* \"#utility.yul\":5131:5212   */\n  sstore\n    /* \"#utility.yul\":5000:5222   */\n  pop\n    /* \"#utility.yul\":4335:5222   */\n  jump(tag_146)\n    /* \"#utility.yul\":4365:4983   */\ntag_147:\n    /* \"#utility.yul\":4417:4421   */\n  0x1f\n    /* \"#utility.yul\":4413:4422   */\n  not\n    /* \"#utility.yul\":4405:4411   */\n  dup5\n    /* \"#utility.yul\":4401:4423   */\n  and\n    /* \"#utility.yul\":4451:4488   */\n  tag_150\n    /* \"#utility.yul\":4483:4487   */\n  dup7\n    /* \"#utility.yul\":4451:4488   */\n  tag_67\n  jump\t// in\ntag_150:\n    /* \"#utility.yul\":4510:4511   */\n  0x00\n    /* \"#utility.yul\":4524:4732   */\ntag_151:\n    /* \"#utility.yul\":4538:4545   */\n  dup3\n    /* \"#utility.yul\":4535:4536   */\n  dup2\n    /* \"#utility.yul\":4532:4546   */\n  lt\n    /* \"#utility.yul\":4524:4732   */\n  iszero\n  tag_153\n  jumpi\n    /* \"#utility.yul\":4617:4626   */\n  dup5\n    /* \"#utility.yul\":4612:4615   */\n  dup10\n    /* \"#utility.yul\":4608:4627   */\n  add\n    /* \"#utility.yul\":4602:4628   */\n  mload\n    /* \"#utility.yul\":4594:4600   */\n  dup3\n    /* \"#utility.yul\":4587:4629   */\n  sstore\n    /* \"#utility.yul\":4668:4669   */\n  0x01\n    /* \"#utility.yul\":4660:4666   */\n  dup3\n    /* \"#utility.yul\":4656:4670   */\n  add\n    /* \"#utility.yul\":4646:4670   */\n  swap2\n  pop\n    /* \"#utility.yul\":4715:4717   */\n  0x20\n    /* \"#utility.yul\":4704:4713   */\n  dup6\n    /* \"#utility.yul\":4700:4718   */\n  add\n    /* \"#utility.yul\":4687:4718   */\n  swap5\n  pop\n    /* \"#utility.yul\":4561:4565   */\n  0x20\n    /* \"#utility.yul\":4558:4559   */\n  dup2\n    /* \"#utility.yul\":4554:4566   */\n  add\n    /* \"#utility.yul\":4549:4566   */\n  swap1\n  pop\n    /* \"#utility.yul\":4524:4732   */\n  jump(tag_151)\ntag_153:\n    /* \"#utility.yul\":4760:4766   */\n  dup7\n    /* \"#utility.yul\":4751:4758   */\n  dup4\n    /* \"#utility.yul\":4748:4767   */\n  lt\n    /* \"#utility.yul\":4745:4924   */\n  iszero\n  tag_154\n  jumpi\n    /* \"#utility.yul\":4818:4827   */\n  dup5\n    /* \"#utility.yul\":4813:4816   */\n  dup10\n    /* \"#utility.yul\":4809:4828   */\n  add\n    /* \"#utility.yul\":4803:4829   */\n  mload\n    /* \"#utility.yul\":4861:4909   */\n  tag_155\n    /* \"#utility.yul\":4903:4907   */\n  0x1f\n    /* \"#utility.yul\":4895:4901   */\n  dup10\n    /* \"#utility.yul\":4891:4908   */\n  and\n    /* \"#utility.yul\":4880:4889   */\n  dup3\n    /* \"#utility.yul\":4861:4909   */\n  tag_81\n  jump\t// in\ntag_155:\n    /* \"#utility.yul\":4853:4859   */\n  dup4\n    /* \"#utility.yul\":4846:4910   */\n  sstore\n    /* \"#utility.yul\":4768:4924   */\n  pop\n    /* \"#utility.yul\":4745:4924   */\ntag_154:\n    /* \"#utility.yul\":4970:4971   */\n  0x01\n    /* \"#utility.yul\":4966:4967   */\n  0x02\n    /* \"#utility.yul\":4958:4964   */\n  dup9\n    /* \"#utility.yul\":4954:4968   */\n  mul\n    /* \"#utility.yul\":4950:4972   */\n  add\n    /* \"#utility.yul\":4944:4948   */\n  dup9\n    /* \"#utility.yul\":4937:4973   */\n  sstore\n    /* \"#utility.yul\":4372:4983   */\n  pop\n  pop\n  pop\n    /* \"#utility.yul\":4335:5222   */\ntag_146:\n  pop\n    /* \"#utility.yul\":3925:5228   */\n  pop\n  pop\n  pop\n    /* \"#utility.yul\":3833:5228   */\n  pop\n  pop\n  jump\t// out\n    /* \"#utility.yul\":5234:5414   */\ntag_83:\n    /* \"#utility.yul\":5282:5359   */\n  0x4e487b7100000000000000000000000000000000000000000000000000000000\n    /* \"#utility.yul\":5279:5280   */\n  0x00\n    /* \"#utility.yul\":5272:5360   */\n  mstore\n    /* \"#utility.yul\":5379:5383   */\n  0x11\n    /* \"#utility.yul\":5376:5377   */\n  0x04\n    /* \"#utility.yul\":5369:5384   */\n  mstore\n    /* \"#utility.yul\":5403:5407   */\n  0x24\n    /* \"#utility.yul\":5400:5401   */\n  0x00\n    /* \"#utility.yul\":5393:5408   */\n  revert\n    /* \"#utility.yul\":5420:5522   */\ntag_84:\n    /* \"#utility.yul\":5462:5470   */\n  0x00\n    /* \"#utility.yul\":5509:5514   */\n  dup2\n    /* \"#utility.yul\":5506:5507   */\n  0x01\n    /* \"#utility.yul\":5502:5515   */\n  shr\n    /* \"#utility.yul\":5481:5515   */\n  swap1\n  pop\n    /* \"#utility.yul\":5420:5522   */\n  swap2\n  swap1\n  pop\n  jump\t// out\n    /* \"#utility.yul\":5528:6376   */\ntag_85:\n    /* \"#utility.yul\":5589:5594   */\n  0x00\n    /* \"#utility.yul\":5596:5600   */\n  dup1\n    /* \"#utility.yul\":5620:5626   */\n  dup3\n    /* \"#utility.yul\":5611:5626   */\n  swap2\n  pop\n    /* \"#utility.yul\":5644:5649   */\n  dup4\n    /* \"#utility.yul\":5635:5649   */\n  swap1\n  pop\n    /* \"#utility.yul\":5658:6370   */\ntag_159:\n    /* \"#utility.yul\":5679:5680   */\n  0x01\n    /* \"#utility.yul\":5669:5677   */\n  dup6\n    /* \"#utility.yul\":5666:5681   */\n  gt\n    /* \"#utility.yul\":5658:6370   */\n  iszero\n  tag_161\n  jumpi\n    /* \"#utility.yul\":5774:5778   */\n  dup1\n    /* \"#utility.yul\":5769:5772   */\n  dup7\n    /* \"#utility.yul\":5765:5779   */\n  div\n    /* \"#utility.yul\":5759:5763   */\n  dup2\n    /* \"#utility.yul\":5756:5780   */\n  gt\n    /* \"#utility.yul\":5753:5803   */\n  iszero\n  tag_162\n  jumpi\n    /* \"#utility.yul\":5783:5801   */\n  tag_163\n  tag_83\n  jump\t// in\ntag_163:\n    /* \"#utility.yul\":5753:5803   */\ntag_162:\n    /* \"#utility.yul\":5833:5834   */\n  0x01\n    /* \"#utility.yul\":5823:5831   */\n  dup6\n    /* \"#utility.yul\":5819:5835   */\n  and\n    /* \"#utility.yul\":5816:6267   */\n  iszero\n  tag_164\n  jumpi\n    /* \"#utility.yul\":6248:6252   */\n  dup1\n    /* \"#utility.yul\":6241:6246   */\n  dup3\n    /* \"#utility.yul\":6237:6253   */\n  mul\n    /* \"#utility.yul\":6228:6253   */\n  swap2\n  pop\n    /* \"#utility.yul\":5816:6267   */\ntag_164:\n    /* \"#utility.yul\":6298:6302   */\n  dup1\n    /* \"#utility.yul\":6292:6296   */\n  dup2\n    /* \"#utility.yul\":6288:6303   */\n  mul\n    /* \"#utility.yul\":6280:6303   */\n  swap1\n  pop\n    /* \"#utility.yul\":6328:6360   */\n  tag_165\n    /* \"#utility.yul\":6351:6359   */\n  dup6\n    /* \"#utility.yul\":6328:6360   */\n  tag_84\n  jump\t// in\ntag_165:\n    /* \"#utility.yul\":6316:6360   */\n  swap5\n  pop\n    /* \"#utility.yul\":5658:6370   */\n  jump(tag_159)\ntag_161:\n    /* \"#utility.yul\":5528:6376   */\n  swap5\n  pop\n  swap5\n  swap3\n  pop\n  pop\n  pop\n  jump\t// out\n    /* \"#utility.yul\":6382:7455   */\ntag_86:\n    /* \"#utility.yul\":6436:6441   */\n  0x00\n    /* \"#utility.yul\":6627:6635   */\n  dup3\n    /* \"#utility.yul\":6617:6657   */\n  tag_167\n  jumpi\n    /* \"#utility.yul\":6648:6649   */\n  0x01\n    /* \"#utility.yul\":6639:6649   */\n  swap1\n  pop\n    /* \"#utility.yul\":6650:6655   */\n  jump(tag_166)\n    /* \"#utility.yul\":6617:6657   */\ntag_167:\n    /* \"#utility.yul\":6676:6680   */\n  dup2\n    /* \"#utility.yul\":6666:6702   */\n  tag_168\n  jumpi\n    /* \"#utility.yul\":6693:6694   */\n  0x00\n    /* \"#utility.yul\":6684:6694   */\n  swap1\n  pop\n    /* \"#utility.yul\":6695:6700   */\n  jump(tag_166)\n    /* \"#utility.yul\":6666:6702   */\ntag_168:\n    /* \"#utility.yul\":6762:6766   */\n  dup2\n    /* \"#utility.yul\":6810:6811   */\n  0x01\n    /* \"#utility.yul\":6805:6832   */\n  dup2\n  eq\n  tag_170\n  jumpi\n    /* \"#utility.yul\":6846:6847   */\n  0x02\n    /* \"#utility.yul\":6841:7032   */\n  dup2\n  eq\n  tag_171\n  jumpi\n    /* \"#utility.yul\":6755:7032   */\n  jump(tag_169)\n    /* \"#utility.yul\":6805:6832   */\ntag_170:\n    /* \"#utility.yul\":6823:6824   */\n  0x01\n    /* \"#utility.yul\":6814:6824   */\n  swap2\n  pop\n    /* \"#utility.yul\":6825:6830   */\n  pop\n  jump(tag_166)\n    /* \"#utility.yul\":6841:7032   */\ntag_171:\n    /* \"#utility.yul\":6886:6889   */\n  0xff\n    /* \"#utility.yul\":6876:6884   */\n  dup5\n    /* \"#utility.yul\":6873:6890   */\n  gt\n    /* \"#utility.yul\":6870:6913   */\n  iszero\n  tag_172\n  jumpi\n    /* \"#utility.yul\":6893:6911   */\n  tag_173\n  tag_83\n  jump\t// in\ntag_173:\n    /* \"#utility.yul\":6870:6913   */\ntag_172:\n    /* \"#utility.yul\":6942:6950   */\n  dup4\n    /* \"#utility.yul\":6939:6940   */\n  0x02\n    /* \"#utility.yul\":6935:6951   */\n  exp\n    /* \"#utility.yul\":6926:6951   */\n  swap2\n  pop\n    /* \"#utility.yul\":6977:6980   */\n  dup5\n    /* \"#utility.yul\":6970:6975   */\n  dup3\n    /* \"#utility.yul\":6967:6981   */\n  gt\n    /* \"#utility.yul\":6964:7004   */\n  iszero\n  tag_174\n  jumpi\n    /* \"#utility.yul\":6984:7002   */\n  tag_175\n  tag_83\n  jump\t// in\ntag_175:\n    /* \"#utility.yul\":6964:7004   */\ntag_174:\n    /* \"#utility.yul\":7017:7022   */\n  pop\n  jump(tag_166)\n    /* \"#utility.yul\":6755:7032   */\ntag_169:\n  pop\n    /* \"#utility.yul\":7141:7143   */\n  0x20\n    /* \"#utility.yul\":7131:7139   */\n  dup4\n    /* \"#utility.yul\":7128:7144   */\n  lt\n    /* \"#utility.yul\":7122:7125   */\n  0x0133\n    /* \"#utility.yul\":7116:7120   */\n  dup4\n    /* \"#utility.yul\":7113:7126   */\n  lt\n    /* \"#utility.yul\":7109:7145   */\n  and\n    /* \"#utility.yul\":7091:7093   */\n  0x4e\n    /* \"#utility.yul\":7081:7089   */\n  dup5\n    /* \"#utility.yul\":7078:7094   */\n  lt\n    /* \"#utility.yul\":7073:7075   */\n  0x0b\n    /* \"#utility.yul\":7067:7071   */\n  dup5\n    /* \"#utility.yul\":7064:7076   */\n  lt\n    /* \"#utility.yul\":7060:7095   */\n  and\n    /* \"#utility.yul\":7044:7155   */\n  or\n    /* \"#utility.yul\":7041:7287   */\n  iszero\n  tag_176\n  jumpi\n    /* \"#utility.yul\":7197:7205   */\n  dup3\n    /* \"#utility.yul\":7191:7195   */\n  dup3\n    /* \"#utility.yul\":7187:7206   */\n  exp\n    /* \"#utility.yul\":7178:7206   */\n  swap1\n  pop\n    /* \"#utility.yul\":7232:7235   */\n  dup4\n    /* \"#utility.yul\":7225:7230   */\n  dup2\n    /* \"#utility.yul\":7222:7236   */\n  gt\n    /* \"#utility.yul\":7219:7259   */\n  iszero\n  tag_177\n  jumpi\n    /* \"#utility.yul\":7239:7257   */\n  tag_178\n  tag_83\n  jump\t// in\ntag_178:\n    /* \"#utility.yul\":7219:7259   */\ntag_177:\n    /* \"#utility.yul\":7272:7277   */\n  jump(tag_166)\n    /* \"#utility.yul\":7041:7287   */\ntag_176:\n    /* \"#utility.yul\":7312:7354   */\n  tag_179\n    /* \"#utility.yul\":7350:7353   */\n  dup5\n    /* \"#utility.yul\":7340:7348   */\n  dup5\n    /* \"#utility.yul\":7334:7338   */\n  dup5\n    /* \"#utility.yul\":7331:7332   */\n  0x01\n    /* \"#utility.yul\":7312:7354   */\n  tag_85\n  jump\t// in\ntag_179:\n    /* \"#utility.yul\":7297:7354   */\n  swap3\n  pop\n  swap1\n  pop\n    /* \"#utility.yul\":7386:7390   */\n  dup2\n    /* \"#utility.yul\":7381:7384   */\n  dup5\n    /* \"#utility.yul\":7377:7391   */\n  div\n    /* \"#utility.yul\":7370:7375   */\n  dup2\n    /* \"#utility.yul\":7367:7392   */\n  gt\n    /* \"#utility.yul\":7364:7415   */\n  iszero\n  tag_180\n  jumpi\n    /* \"#utility.yul\":7395:7413   */\n  tag_181\n  tag_83\n  jump\t// in\ntag_181:\n    /* \"#utility.yul\":7364:7415   */\ntag_180:\n    /* \"#utility.yul\":7444:7448   */\n  dup2\n    /* \"#utility.yul\":7437:7442   */\n  dup2\n    /* \"#utility.yul\":7433:7449   */\n  mul\n    /* \"#utility.yul\":7424:7449   */\n  swap1\n  pop\n    /* \"#utility.yul\":6382:7455   */\ntag_166:\n  swap4\n  swap3\n  pop\n  pop\n  pop\n  jump\t// out\n    /* \"#utility.yul\":7461:7547   */\ntag_87:\n    /* \"#utility.yul\":7496:7503   */\n  0x00\n    /* \"#utility.yul\":7536:7540   */\n  0xff\n    /* \"#utility.yul\":7529:7534   */\n  dup3\n    /* \"#utility.yul\":7525:7541   */\n  and\n    /* \"#utility.yul\":7514:7541   */\n  swap1\n  pop\n    /* \"#utility.yul\":7461:7547   */\n  swap2\n  swap1\n  pop\n  jump\t// out\n    /* \"#utility.yul\":7553:7834   */\ntag_7:\n    /* \"#utility.yul\":7611:7616   */\n  0x00\n    /* \"#utility.yul\":7635:7658   */\n  tag_184\n    /* \"#utility.yul\":7653:7657   */\n  dup3\n    /* \"#utility.yul\":7635:7658   */\n  tag_71\n  jump\t// in\ntag_184:\n    /* \"#utility.yul\":7627:7658   */\n  swap2\n  pop\n    /* \"#utility.yul\":7679:7704   */\n  tag_185\n    /* \"#utility.yul\":7695:7703   */\n  dup4\n    /* \"#utility.yul\":7679:7704   */\n  tag_87\n  jump\t// in\ntag_185:\n    /* \"#utility.yul\":7667:7704   */\n  swap3\n  pop\n    /* \"#utility.yul\":7723:7827   */\n  tag_186\n    /* \"#utility.yul\":7760:7826   */\n  0xffffffffffffffffffffffffffffffffffffffffffffffffffffffffffffffff\n    /* \"#utility.yul\":7750:7758   */\n  dup5\n    /* \"#utility.yul\":7744:7748   */\n  dup5\n    /* \"#utility.yul\":7723:7827   */\n  tag_86\n  jump\t// in\ntag_186:\n    /* \"#utility.yul\":7714:7827   */\n  swap1\n  pop\n    /* \"#utility.yul\":7553:7834   */\n  swap3\n  swap2\n  pop\n  pop\n  jump\t// out\n    /* \"#utility.yul\":7840:8250   */\ntag_9:\n    /* \"#utility.yul\":7880:7887   */\n  0x00\n    /* \"#utility.yul\":7903:7923   */\n  tag_188\n    /* \"#utility.yul\":7921:7922   */\n  dup3\n    /* \"#utility.yul\":7903:7923   */\n  tag_71\n  jump\t// in\ntag_188:\n    /* \"#utility.yul\":7898:7923   */\n  swap2\n  pop\n    /* \"#utility.yul\":7937:7957   */\n  tag_189\n    /* \"#utility.yul\":7955:7956   */\n  dup4\n    /* \"#utility.yul\":7937:7957   */\n  tag_71\n  jump\t// in\ntag_189:\n    /* \"#utility.yul\":7932:7957   */\n  swap3\n  pop\n    /* \"#utility.yul\":7992:7993   */\n  dup3\n    /* \"#utility.yul\":7989:7990   */\n  dup3\n    /* \"#utility.yul\":7985:7994   */\n  mul\n    /* \"#utility.yul\":8014:8044   */\n  tag_190\n    /* \"#utility.yul\":8032:8043   */\n  dup2\n    /* \"#utility.yul\":8014:8044   */\n  tag_71\n  jump\t// in\ntag_190:\n    /* \"#utility.yul\":8003:8044   */\n  swap2\n  pop\n    /* \"#utility.yul\":8193:8194   */\n  dup3\n    /* \"#utility.yul\":8184:8191   */\n  dup3\n    /* \"#utility.yul\":8180:8195   */\n  div\n    /* \"#utility.yul\":8177:8178   */\n  dup5\n    /* \"#utility.yul\":8174:8196   */\n  eq\n    /* \"#utility.yul\":8154:8155   */\n  dup4\n    /* \"#utility.yul\":8147:8156   */\n  iszero\n    /* \"#utility.yul\":8127:8210   */\n  or\n    /* \"#utility.yul\":8104:8243   */\n  tag_191\n  jumpi\n    /* \"#utility.yul\":8223:8241   */\n  tag_192\n  tag_83\n  jump\t// in\ntag_192:\n    /* \"#utility.yul\":8104:8243   */\ntag_191:\n    /* \"#utility.yul\":7888:8250   */\n  pop\n    /* \"#utility.yul\":7840:8250   */\n  swap3\n  swap2\n  pop\n  pop\n  jump\t// out\n    /* \"#utility.yul\":8256:8409   */\ntag_88:\n    /* \"#utility.yul\":8309:8315   */\n  0x00\n    /* \"#utility.yul\":8343:8348   */\n  dup2\n    /* \"#utility.yul\":8337:8349   */\n  sload\n    /* \"#utility.yul\":8327:8349   */\n  swap1\n  pop\n    /* \"#utility.yul\":8369:8402   */\n  tag_194\n    /* \"#utility.yul\":8395:8401   */\n  dup2\n    /* \"#utility.yul\":8369:8402   */\n  tag_14\n  jump\t// in\ntag_194:\n    /* \"#utility.yul\":8359:8402   */\n  swap1\n  pop\n    /* \"#utility.yul\":8256:8409   */\n  swap2\n  swap1\n  pop\n  jump\t// out\n    /* \"#utility.yul\":8415:8560   */\ntag_89:\n    /* \"#utility.yul\":8468:8472   */\n  0x00\n    /* \"#utility.yul\":8491:8494   */\n  dup2\n    /* \"#utility.yul\":8483:8494   */\n  swap1\n  pop\n    /* \"#utility.yul\":8514:8517   */\n  dup2\n    /* \"#utility.yul\":8511:8512   */\n  0x00\n    /* \"#utility.yul\":8504:8518   */\n  mstore\n    /* \"#utility.yul\":8548:8552   */\n  0x20\n    /* \"#utility.yul\":8545:8546   */\n  0x00\n    /* \"#utility.yul\":8535:8553   */\n  keccak256\n    /* \"#utility.yul\":8527:8553   */\n  swap1\n  pop\n    /* \"#utility.yul\":8415:8560   */\n  swap2\n  swap1\n  pop\n  jump\t// out\n    /* \"#utility.yul\":8566:10029   */\ntag_35:\n    /* \"#utility.yul\":8681:8684   */\n  dup2\n    /* \"#utility.yul\":8675:8679   */\n  dup2\n    /* \"#utility.yul\":8672:8685   */\n  sub\n    /* \"#utility.yul\":8669:8695   */\n  tag_197\n  jumpi\n    /* \"#utility.yul\":8688:8693   */\n  pop\n  pop\n  jump(tag_196)\n    /* \"#utility.yul\":8669:8695   */\ntag_197:\n    /* \"#utility.yul\":8719:8757   */\n  tag_198\n    /* \"#utility.yul\":8753:8756   */\n  dup3\n    /* \"#utility.yul\":8719:8757   */\n  tag_88\n  jump\t// in\ntag_198:\n    /* \"#utility.yul\":8822:8840   */\n  0xffffffffffffffff\n    /* \"#utility.yul\":8814:8820   */\n  dup2\n    /* \"#utility.yul\":8811:8841   */\n  gt\n    /* \"#utility.yul\":8808:8864   */\n  iszero\n  tag_199\n  jumpi\n    /* \"#utility.yul\":8844:8862   */\n  tag_200\n  tag_65\n  jump\t// in\ntag_200:\n    /* \"#utility.yul\":8808:8864   */\ntag_199:\n    /* \"#utility.yul\":8888:8926   */\n  tag_201\n    /* \"#utility.yul\":8920:8924   */\n  dup3\n    /* \"#utility.yul\":8914:8925   */\n  sload\n    /* \"#utility.yul\":8888:8926   */\n  tag_14\n  jump\t// in\ntag_201:\n    /* \"#utility.yul\":8973:9040   */\n  tag_202\n    /* \"#utility.yul\":9033:9039   */\n  dup3\n    /* \"#utility.yul\":9025:9031   */\n  dup3\n    /* \"#utility.yul\":9019:9023   */\n  dup6\n    /* \"#utility.yul\":8973:9040   */\n  tag_79\n  jump\t// in\ntag_202:\n    /* \"#utility.yul\":9067:9068   */\n  0x00\n    /* \"#utility.yul\":9096:9098   */\n  0x1f\n    /* \"#utility.yul\":9088:9094   */\n  dup4\n    /* \"#utility.yul\":9085:9099   */\n  gt\n    /* \"#utility.yul\":9113:9114   */\n  0x01\n    /* \"#utility.yul\":9108:9784   */\n  dup2\n  eq\n  tag_204\n  jumpi\n    /* \"#utility.yul\":9828:9829   */\n  0x00\n    /* \"#utility.yul\":9845:9851   */\n  dup5\n    /* \"#utility.yul\":9842:9919   */\n  iszero\n  tag_205\n  jumpi\n    /* \"#utility.yul\":9894:9903   */\n  dup3\n    /* \"#utility.yul\":9889:9892   */\n  dup8\n    /* \"#utility.yul\":9885:9904   */\n  add\n    /* \"#utility.yul\":9879:9905   */\n  sload\n    /* \"#utility.yul\":9870:9905   */\n  swap1\n  pop\n    /* \"#utility.yul\":9842:9919   */\ntag_205:\n    /* \"#utility.yul\":9945:10012   */\n  tag_206\n    /* \"#utility.yul\":10005:10011   */\n  dup6\n    /* \"#utility.yul\":9998:10003   */\n  dup3\n    /* \"#utility.yul\":9945:10012   */\n  tag_82\n  jump\t// in\ntag_206:\n    /* \"#utility.yul\":9939:9943   */\n  dup7\n    /* \"#utility.yul\":9932:10013   */\n  sstore\n    /* \"#utility.yul\":9801:10023   */\n  pop\n    /* \"#utility.yul\":9078:10023   */\n  jump(tag_203)\n    /* \"#utility.yul\":9108:9784   */\ntag_204:\n    /* \"#utility.yul\":9160:9164   */\n  0x1f\n    /* \"#utility.yul\":9156:9165   */\n  not\n    /* \"#utility.yul\":9148:9154   */\n  dup5\n    /* \"#utility.yul\":9144:9166   */\n  and\n    /* \"#utility.yul\":9186:9226   */\n  tag_207\n    /* \"#utility.yul\":9222:9225   */\n  dup8\n    /* \"#utility.yul\":9186:9226   */\n  tag_89\n  jump\t// in\ntag_207:\n    /* \"#utility.yul\":9179:9226   */\n  swap7\n  pop\n    /* \"#utility.yul\":9253:9290   */\n  tag_208\n    /* \"#utility.yul\":9285:9289   */\n  dup7\n    /* \"#utility.yul\":9253:9290   */\n  tag_67\n  jump\t// in\ntag_208:\n    /* \"#utility.yul\":9312:9313   */\n  0x00\n    /* \"#utility.yul\":9326:9533   */\ntag_209:\n    /* \"#utility.yul\":9340:9347   */\n  dup3\n    /* \"#utility.yul\":9337:9338   */\n  dup2\n    /* \"#utility.yul\":9334:9348   */\n  lt\n    /* \"#utility.yul\":9326:9533   */\n  iszero\n  tag_211\n  jumpi\n    /* \"#utility.yul\":9419:9428   */\n  dup5\n    /* \"#utility.yul\":9414:9417   */\n  dup10\n    /* \"#utility.yul\":9410:9429   */\n  add\n    /* \"#utility.yul\":9404:9430   */\n  sload\n    /* \"#utility.yul\":9396:9402   */\n  dup3\n    /* \"#utility.yul\":9389:9431   */\n  sstore\n    /* \"#utility.yul\":9470:9471   */\n  0x01\n    /* \"#utility.yul\":9462:9468   */\n  dup3\n    /* \"#utility.yul\":9458:9472   */\n  add\n    /* \"#utility.yul\":9448:9472   */\n  swap2\n  pop\n    /* \"#utility.yul\":9517:9518   */\n  0x01\n    /* \"#utility.yul\":9506:9515   */\n  dup6\n    /* \"#utility.yul\":9502:9519   */\n  add\n    /* \"#utility.yul\":9489:9519   */\n  swap5\n  pop\n    /* \"#utility.yul\":9363:9367   */\n  0x20\n    /* \"#utility.yul\":9360:9361   */\n  dup2\n    /* \"#utility.yul\":9356:9368   */\n  add\n    /* \"#utility.yul\":9351:9368   */\n  swap1\n  pop\n    /* \"#utility.yul\":9326:9533   */\n  jump(tag_209)\ntag_211:\n    /* \"#utility.yul\":9561:9567   */\n  dup7\n    /* \"#utility.yul\":9552:9559   */\n  dup4\n    /* \"#utility.yul\":9549:9568   */\n  lt\n    /* \"#utility.yul\":9546:9725   */\n  iszero\n  tag_212\n  jumpi\n    /* \"#utility.yul\":9619:9628   */\n  dup5\n    /* \"#utility.yul\":9614:9617   */\n  dup10\n    /* \"#utility.yul\":9610:9629   */\n  add\n    /* \"#utility.yul\":9604:9630   */\n  sload\n    /* \"#utility.yul\":9662:9710   */\n  tag_213\n    /* \"#utility.yul\":9704:9708   */\n  0x1f\n    /* \"#utility.yul\":9696:9702   */\n  dup10\n    /* \"#utility.yul\":9692:9709   */\n  and\n    /* \"#utility.yul\":9681:9690   */\n  dup3\n    /* \"#utility.yul\":9662:9710   */\n  tag_81\n  jump\t// in\ntag_213:\n    /* \"#utility.yul\":9654:9660   */\n  dup4\n    /* \"#utility.yul\":9647:9711   */\n  sstore\n    /* \"#utility.yul\":9569:9725   */\n  pop\n    /* \"#utility.yul\":9546:9725   */\ntag_212:\n    /* \"#utility.yul\":9771:9772   */\n  0x01\n    /* \"#utility.yul\":9767:9768   */\n  0x02\n    /* \"#utility.yul\":9759:9765   */\n  dup9\n    /* \"#utility.yul\":9755:9769   */\n  mul\n    /* \"#utility.yul\":9751:9773   */\n  add\n    /* \"#utility.yul\":9745:9749   */\n  dup9\n    /* \"#utility.yul\":9738:9774   */\n  sstore\n    /* \"#utility.yul\":9115:9784   */\n  pop\n  pop\n  pop\n    /* \"#utility.yul\":9078:10023   */\ntag_203:\n  pop\n    /* \"#utility.yul\":8659:10029   */\n  pop\n  pop\n  pop\n    /* \"#utility.yul\":8566:10029   */\n  pop\n  pop\ntag_196:\n  jump\t// out\n    /* \"#utility.yul\":10035:10204   */\ntag_90:\n    /* \"#utility.yul\":10119:10130   */\n  0x00\n    /* \"#utility.yul\":10153:10159   */\n  dup3\n    /* \"#utility.yul\":10148:10151   */\n  dup3\n    /* \"#utility.yul\":10141:10160   */\n  mstore\n    /* \"#utility.yul\":10193:10197   */\n  0x20\n    /* \"#utility.yul\":10188:10191   */\n  dup3\n    /* \"#utility.yul\":10184:10198   */\n  add\n    /* \"#utility.yul\":10169:10198   */\n  swap1\n  pop\n    /* \"#utility.yul\":10035:10204   */\n  swap3\n  swap2\n  pop\n  pop\n  jump\t// out\n    /* \"#utility.yul\":10210:10391   */\ntag_91:\n    /* \"#utility.yul\":10350:10383   */\n  0x45524332303a206d696e7420746f20746865207a65726f206164647265737300\n    /* \"#utility.yul\":10346:10347   */\n  0x00\n    /* \"#utility.yul\":10338:10344   */\n  dup3\n    /* \"#utility.yul\":10334:10348   */\n  add\n    /* \"#utility.yul\":10327:10384   */\n  mstore\n    /* \"#utility.yul\":10210:10391   */\n  pop\n  jump\t// out\n    /* \"#utility.yul\":10397:10763   */\ntag_92:\n    /* \"#utility.yul\":10539:10542   */\n  0x00\n    /* \"#utility.yul\":10560:10627   */\n  tag_217\n    /* \"#utility.yul\":10624:10626   */\n  0x1f\n    /* \"#utility.yul\":10619:10622   */\n  dup4\n    /* \"#utility.yul\":10560:10627   */\n  tag_90\n  jump\t// in\ntag_217:\n    /* \"#utility.yul\":10553:10627   */\n  swap2\n  pop\n    /* \"#utility.yul\":10636:10729   */\n  tag_218\n    /* \"#utility.yul\":10725:10728   */\n  dup3\n    /* \"#utility.yul\":10636:10729   */\n  tag_91\n  jump\t// in\ntag_218:\n    /* \"#utility.yul\":10754:10756   */\n  0x20\n    /* \"#utility.yul\":10749:10752   */\n  dup3\n    /* \"#utility.yul\":10745:10757   */\n  add\n    /* \"#utility.yul\":10738:10757   */\n  swap1\n  pop\n    /* \"#utility.yul\":10397:10763   */\n  swap2\n  swap1\n  pop\n  jump\t// out\n    /* \"#utility.yul\":10769:11188   */\ntag_52:\n    /* \"#utility.yul\":10935:10939   */\n  0x00\n    /* \"#utility.yul\":10973:10975   */\n  0x20\n    /* \"#utility.yul\":10962:10971   */\n  dup3\n    /* \"#utility.yul\":10958:10976   */\n  add\n    /* \"#utility.yul\":10950:10976   */\n  swap1\n  pop\n    /* \"#utility.yul\":11022:11031   */\n  dup2\n    /* \"#utility.yul\":11016:11020   */\n  dup2\n    /* \"#utility.yul\":11012:11032   */\n  sub\n    /* \"#utility.yul\":11008:11009   */\n  0x00\n    /* \"#utility.yul\":10997:11006   */\n  dup4\n    /* \"#utility.yul\":10993:11010   */\n  add\n    /* \"#utility.yul\":10986:11033   */\n  mstore\n    /* \"#utility.yul\":11050:11181   */\n  tag_220\n    /* \"#utility.yul\":11176:11180   */\n  dup2\n    /* \"#utility.yul\":11050:11181   */\n  tag_92\n  jump\t// in\ntag_220:\n    /* \"#utility.yul\":11042:11181   */\n  swap1\n  pop\n    /* \"#utility.yul\":10769:11188   */\n  swap2\n  swap1\n  pop\n  jump\t// out\n    /* \"#utility.yul\":11194:11385   */\ntag_56:\n    /* \"#utility.yul\":11234:11237   */\n  0x00\n    /* \"#utility.yul\":11253:11273   */\n  tag_222\n    /* \"#utility.yul\":11271:11272   */\n  dup3\n    /* \"#utility.yul\":11253:11273   */\n  tag_71\n  jump\t// in\ntag_222:\n    /* \"#utility.yul\":11248:11273   */\n  swap2\n  pop\n    /* \"#utility.yul\":11287:11307   */\n  tag_223\n    /* \"#utility.yul\":11305:11306   */\n  dup4\n    /* \"#utility.yul\":11287:11307   */\n  tag_71\n  jump\t// in\ntag_223:\n    /* \"#utility.yul\":11282:11307   */\n  swap3\n  pop\n    /* \"#utility.yul\":11330:11331   */\n  dup3\n    /* \"#utility.yul\":11327:11328   */\n  dup3\n    /* \"#utility.yul\":11323:11332   */\n  add\n    /* \"#utility.yul\":11316:11332   */\n  swap1\n  pop\n    /* \"#utility.yul\":11351:11354   */\n  dup1\n    /* \"#utility.yul\":11348:11349   */\n  dup3\n    /* \"#utility.yul\":11345:11355   */\n  gt\n    /* \"#utility.yul\":11342:11378   */\n  iszero\n  tag_224\n  jumpi\n    /* \"#utility.yul\":11358:11376   */\n  tag_225\n  tag_83\n  jump\t// in\ntag_225:\n    /* \"#utility.yul\":11342:11378   */\ntag_224:\n    /* \"#utility.yul\":11194:11385   */\n  swap3\n  swap2\n  pop\n  pop\n  jump\t// out\n    /* \"#utility.yul\":11391:11509   */\ntag_93:\n    /* \"#utility.yul\":11478:11502   */\n  tag_227\n    /* \"#utility.yul\":11496:11501   */\n  dup2\n    /* \"#utility.yul\":11478:11502   */\n  tag_71\n  jump\t// in\ntag_227:\n    /* \"#utility.yul\":11473:11476   */\n  dup3\n    /* \"#utility.yul\":11466:11503   */\n  mstore\n    /* \"#utility.yul\":11391:11509   */\n  pop\n  pop\n  jump\t// out\n    /* \"#utility.yul\":11515:11737   */\ntag_59:\n    /* \"#utility.yul\":11608:11612   */\n  0x00\n    /* \"#utility.yul\":11646:11648   */\n  0x20\n    /* \"#utility.yul\":11635:11644   */\n  dup3\n    /* \"#utility.yul\":11631:11649   */\n  add\n    /* \"#utility.yul\":11623:11649   */\n  swap1\n  pop\n    /* \"#utility.yul\":11659:11730   */\n  tag_229\n    /* \"#utility.yul\":11727:11728   */\n  0x00\n    /* \"#utility.yul\":11716:11725   */\n  dup4\n    /* \"#utility.yul\":11712:11729   */\n  add\n    /* \"#utility.yul\":11703:11709   */\n  dup5\n    /* \"#utility.yul\":11659:11730   */\n  tag_93\n  jump\t// in\ntag_229:\n    /* \"#utility.yul\":11515:11737   */\n  swap3\n  swap2\n  pop\n  pop\n  jump\t// out\n    /* \"contracts/kaiToken.sol\":397:2020  contract KaiToken is ERC20, Ownable {... */\ntag_41:\n  dataSize(sub_0)\n  dup1\n  dataOffset(sub_0)\n  0x00\n  codecopy\n  0x00\n  return\nstop\n\nsub_0: assembly {\n        /* \"contracts/kaiToken.sol\":397:2020  contract KaiToken is ERC20, Ownable {... */\n      mstore(0x40, 0x80)\n      jumpi(tag_1, lt(calldatasize, 0x04))\n      shr(0xe0, calldataload(0x00))\n      dup1\n      0x70a08231\n      gt\n      tag_25\n      jumpi\n      dup1\n      0xa9059cbb\n      gt\n      tag_26\n      jumpi\n      dup1\n      0xa9059cbb\n      eq\n      tag_19\n      jumpi\n      dup1\n      0xb09f1266\n      eq\n      tag_20\n      jumpi\n      dup1\n      0xd28d8852\n      eq\n      tag_21\n      jumpi\n      dup1\n      0xd3866f5a\n      eq\n      tag_22\n      jumpi\n      dup1\n      0xdd62ed3e\n      eq\n      tag_23\n      jumpi\n      dup1\n      0xf2fde38b\n      eq\n      tag_24\n      jumpi\n      jump(tag_2)\n    tag_26:\n      dup1\n      0x70a08231\n      eq\n      tag_14\n      jumpi\n      dup1\n      0x715018a6\n      eq\n      tag_15\n      jumpi\n      dup1\n      0x8da5cb5b\n      eq\n      tag_16\n      jumpi\n      dup1\n      0x95d89b41\n      eq\n      tag_17\n      jumpi\n      dup1\n      0xa457c2d7\n      eq\n      tag_18\n      jumpi\n      jump(tag_2)\n    tag_25:\n      dup1\n      0x2c4e722e\n      gt\n      tag_27\n      jumpi\n      dup1\n      0x2c4e722e\n      eq\n      tag_8\n      jumpi\n      dup1\n      0x313ce567\n      eq\n      tag_9\n      jumpi\n      dup1\n      0x39509351\n      eq\n      tag_10\n      jumpi\n      dup1\n      0x3eaaf86b\n      eq\n      tag_11\n      jumpi\n      dup1\n      0x40c10f19\n      eq\n      tag_12\n      jumpi\n      dup1\n      0x4bdfa913\n      eq\n      tag_13\n      jumpi\n      jump(tag_2)\n    tag_27:\n      dup1\n      0x06fdde03\n      eq\n      tag_3\n      jumpi\n      dup1\n      0x095ea7b3\n      eq\n      tag_4\n      jumpi\n      dup1\n      0x18160ddd\n      eq\n      tag_5\n      jumpi\n      dup1\n      0x2397e4d7\n      eq\n      tag_6\n      jumpi\n      dup1\n      0x23b872dd\n      eq\n      tag_7\n      jumpi\n      jump(tag_2)\n    tag_1:\n      jumpi(tag_2, calldatasize)\n        /* \"contracts/kaiToken.sol\":1366:1367  0 */\n      0x00\n        /* \"contracts/kaiToken.sol\":1353:1362  msg.value */\n      callvalue\n        /* \"contracts/kaiToken.sol\":1353:1367  msg.value != 0 */\n      sub\n        /* \"contracts/kaiToken.sol\":1345:1393  require(msg.value != 0, \"Enter a nonzero value\") */\n      tag_30\n      jumpi\n      mload(0x40)\n      0x08c379a000000000000000000000000000000000000000000000000000000000\n      dup2\n      mstore\n      0x04\n      add\n      tag_31\n      swap1\n      tag_32\n      jump\t// in\n    tag_31:\n      mload(0x40)\n      dup1\n      swap2\n      sub\n      swap1\n      revert\n    tag_30:\n        /* \"contracts/kaiToken.sol\":1403:1414  uint amount */\n      0x00\n        /* \"contracts/kaiToken.sol\":1429:1433  rate */\n      sload(0x09)\n        /* \"contracts/kaiToken.sol\":1417:1426  msg.value */\n      callvalue\n        /* \"contracts/kaiToken.sol\":1417:1433  msg.value * rate */\n      tag_33\n      swap2\n      swap1\n      tag_34\n      jump\t// in\n    tag_33:\n        /* \"contracts/kaiToken.sol\":1403:1433  uint amount = msg.value * rate */\n      swap1\n      pop\n        /* \"contracts/kaiToken.sol\":1474:1480  amount */\n      dup1\n        /* \"contracts/kaiToken.sol\":1452:1470  balanceOf(owner()) */\n      tag_35\n        /* \"contracts/kaiToken.sol\":1462:1469  owner() */\n      tag_36\n        /* \"contracts/kaiToken.sol\":1462:1467  owner */\n      tag_37\n        /* \"contracts/kaiToken.sol\":1462:1469  owner() */\n      jump\t// in\n    tag_36:\n        /* \"contracts/kaiToken.sol\":1452:1461  balanceOf */\n      tag_38\n        /* \"contracts/kaiToken.sol\":1452:1470  balanceOf(owner()) */\n      jump\t// in\n    tag_35:\n        /* \"contracts/kaiToken.sol\":1452:1480  balanceOf(owner()) >= amount */\n      lt\n      iszero\n        /* \"contracts/kaiToken.sol\":1444:1512  require(balanceOf(owner()) >= amount, \"owner KaiToken is no amount\") */\n      tag_39\n      jumpi\n      mload(0x40)\n      0x08c379a000000000000000000000000000000000000000000000000000000000\n      dup2\n      mstore\n      0x04\n      add\n      tag_40\n      swap1\n      tag_41\n      jump\t// in\n    tag_40:\n      mload(0x40)\n      dup1\n      swap2\n      sub\n      swap1\n      revert\n    tag_39:\n        /* \"contracts/kaiToken.sol\":1524:1568  tokenTransferBuy(owner(),msg.sender, amount) */\n      tag_42\n        /* \"contracts/kaiToken.sol\":1541:1548  owner() */\n      tag_43\n        /* \"contracts/kaiToken.sol\":1541:1546  owner */\n      tag_37\n        /* \"contracts/kaiToken.sol\":1541:1548  owner() */\n      jump\t// in\n    tag_43:\n        /* \"contracts/kaiToken.sol\":1549:1559  msg.sender */\n      caller\n        /* \"contracts/kaiToken.sol\":1561:1567  amount */\n      dup4\n        /* \"contracts/kaiToken.sol\":1524:1540  tokenTransferBuy */\n      tag_44\n        /* \"contracts/kaiToken.sol\":1524:1568  tokenTransferBuy(owner(),msg.sender, amount) */\n      jump\t// in\n    tag_42:\n        /* \"contracts/kaiToken.sol\":1596:1603  owner() */\n      tag_45\n        /* \"contracts/kaiToken.sol\":1596:1601  owner */\n      tag_37\n        /* \"contracts/kaiToken.sol\":1596:1603  owner() */\n      jump\t// in\n    tag_45:\n        /* \"contracts/kaiToken.sol\":1582:1603  msg.sender == owner() */\n      0xffffffffffffffffffffffffffffffffffffffff\n      and\n        /* \"contracts/kaiToken.sol\":1582:1592  msg.sender */\n      caller\n        /* \"contracts/kaiToken.sol\":1582:1603  msg.sender == owner() */\n      0xffffffffffffffffffffffffffffffffffffffff\n      and\n      sub\n        /* \"contracts/kaiToken.sol\":1579:1650  if(msg.sender == owner()){... */\n      tag_46\n      jumpi\n        /* \"contracts/kaiToken.sol\":1618:1639  _mint(owner(),amount) */\n      tag_47\n        /* \"contracts/kaiToken.sol\":1624:1631  owner() */\n      tag_48\n        /* \"contracts/kaiToken.sol\":1624:1629  owner */\n      tag_37\n        /* \"contracts/kaiToken.sol\":1624:1631  owner() */\n      jump\t// in\n    tag_48:\n        /* \"contracts/kaiToken.sol\":1632:1638  amount */\n      dup3\n        /* \"contracts/kaiToken.sol\":1618:1623  _mint */\n      tag_49\n        /* \"contracts/kaiToken.sol\":1618:1639  _mint(owner(),amount) */\n      jump\t// in\n    tag_47:\n        /* \"contracts/kaiToken.sol\":1579:1650  if(msg.sender == owner()){... */\n    tag_46:\n        /* \"contracts/kaiToken.sol\":1237:1656  {... */\n      stop\n        /* \"contracts/kaiToken.sol\":397:2020  contract KaiToken is ERC20, Ownable {... */\n    tag_2:\n      0x00\n      dup1\n      revert\n        /* \"node_modules/openzeppelin-solidity/contracts/token/ERC20/ERC20.sol\":2156:2254  function name() public view virtual override returns (string memory) {... */\n    tag_3:\n      callvalue\n      dup1\n      iszero\n      tag_50\n      jumpi\n      0x00\n      dup1\n      revert\n    tag_50:\n      pop\n      tag_51\n      tag_52\n      jump\t// in\n    tag_51:\n      mload(0x40)\n      tag_53\n      swap2\n      swap1\n      tag_54\n      jump\t// in\n    tag_53:\n      mload(0x40)\n      dup1\n      swap2\n      sub\n      swap1\n      return\n        /* \"node_modules/openzeppelin-solidity/contracts/token/ERC20/ERC20.sol\":4765:4962  function approve(address spender, uint256 amount) public virtual override returns (bool) {... */\n    tag_4:\n      callvalue\n      dup1\n      iszero\n      tag_55\n      jumpi\n      0x00\n      dup1\n      revert\n    tag_55:\n      pop\n      tag_56\n      0x04\n      dup1\n      calldatasize\n      sub\n      dup2\n      add\n      swap1\n      tag_57\n      swap2\n      swap1\n      tag_58\n      jump\t// in\n    tag_57:\n      tag_59\n      jump\t// in\n    tag_56:\n      mload(0x40)\n      tag_60\n      swap2\n      swap1\n      tag_61\n      jump\t// in\n    tag_60:\n      mload(0x40)\n      dup1\n      swap2\n      sub\n      swap1\n      return\n        /* \"node_modules/openzeppelin-solidity/contracts/token/ERC20/ERC20.sol\":3244:3350  function totalSupply() public view virtual override returns (uint256) {... */\n    tag_5:\n      callvalue\n      dup1\n      iszero\n      tag_62\n      jumpi\n      0x00\n      dup1\n      revert\n    tag_62:\n      pop\n      tag_63\n      tag_64\n      jump\t// in\n    tag_63:\n      mload(0x40)\n      tag_65\n      swap2\n      swap1\n      tag_66\n      jump\t// in\n    tag_65:\n      mload(0x40)\n      dup1\n      swap2\n      sub\n      swap1\n      return\n        /* \"contracts/kaiToken.sol\":1661:2018  function sellToken(uint256 _amount) public payable{... */\n    tag_6:\n      tag_67\n      0x04\n      dup1\n      calldatasize\n      sub\n      dup2\n      add\n      swap1\n      tag_68\n      swap2\n      swap1\n      tag_69\n      jump\t// in\n    tag_68:\n      tag_70\n      jump\t// in\n    tag_67:\n      stop\n        /* \"node_modules/openzeppelin-solidity/contracts/token/ERC20/ERC20.sol\":5524:5810  function transferFrom(... */\n    tag_7:\n      callvalue\n      dup1\n      iszero\n      tag_71\n      jumpi\n      0x00\n      dup1\n      revert\n    tag_71:\n      pop\n      tag_72\n      0x04\n      dup1\n      calldatasize\n      sub\n      dup2\n      add\n      swap1\n      tag_73\n      swap2\n      swap1\n      tag_74\n      jump\t// in\n    tag_73:\n      tag_75\n      jump\t// in\n    tag_72:\n      mload(0x40)\n      tag_76\n      swap2\n      swap1\n      tag_61\n      jump\t// in\n    tag_76:\n      mload(0x40)\n      dup1\n      swap2\n      sub\n      swap1\n      return\n        /* \"contracts/kaiToken.sol\":573:598  uint256 public rate = 100 */\n    tag_8:\n      callvalue\n      dup1\n      iszero\n      tag_77\n      jumpi\n      0x00\n      dup1\n      revert\n    tag_77:\n      pop\n      tag_78\n      tag_79\n      jump\t// in\n    tag_78:\n      mload(0x40)\n      tag_80\n      swap2\n      swap1\n      tag_66\n      jump\t// in\n    tag_80:\n      mload(0x40)\n      dup1\n      swap2\n      sub\n      swap1\n      return\n        /* \"node_modules/openzeppelin-solidity/contracts/token/ERC20/ERC20.sol\":3093:3184  function decimals() public view virtual override returns (uint8) {... */\n    tag_9:\n      callvalue\n      dup1\n      iszero\n      tag_81\n      jumpi\n      0x00\n      dup1\n      revert\n    tag_81:\n      pop\n      tag_82\n      tag_83\n      jump\t// in\n    tag_82:\n      mload(0x40)\n      tag_84\n      swap2\n      swap1\n      tag_85\n      jump\t// in\n    tag_84:\n      mload(0x40)\n      dup1\n      swap2\n      sub\n      swap1\n      return\n        /* \"node_modules/openzeppelin-solidity/contracts/token/ERC20/ERC20.sol\":6205:6439  function increaseAllowance(address spender, uint256 addedValue) public virtual returns (bool) {... */\n    tag_10:\n      callvalue\n      dup1\n      iszero\n      tag_86\n      jumpi\n      0x00\n      dup1\n      revert\n    tag_86:\n      pop\n      tag_87\n      0x04\n      dup1\n      calldatasize\n      sub\n      dup2\n      add\n      swap1\n      tag_88\n      swap2\n      swap1\n      tag_58\n      jump\t// in\n    tag_88:\n      tag_89\n      jump\t// in\n    tag_87:\n      mload(0x40)\n      tag_90\n      swap2\n      swap1\n      tag_61\n      jump\t// in\n    tag_90:\n      mload(0x40)\n      dup1\n      swap2\n      sub\n      swap1\n      return\n        /* \"contracts/kaiToken.sol\":512:566  uint256 public _totalSupply = 10000 * (10**decimals()) */\n    tag_11:\n      callvalue\n      dup1\n      iszero\n      tag_91\n      jumpi\n      0x00\n      dup1\n      revert\n    tag_91:\n      pop\n      tag_92\n      tag_93\n      jump\t// in\n    tag_92:\n      mload(0x40)\n      tag_94\n      swap2\n      swap1\n      tag_66\n      jump\t// in\n    tag_94:\n      mload(0x40)\n      dup1\n      swap2\n      sub\n      swap1\n      return\n        /* \"node_modules/openzeppelin-solidity/contracts/token/ERC20/ERC20.sol\":8473:8576  function mint(address account, uint256 amount) public virtual {... */\n    tag_12:\n      callvalue\n      dup1\n      iszero\n      tag_95\n      jumpi\n      0x00\n      dup1\n      revert\n    tag_95:\n      pop\n      tag_96\n      0x04\n      dup1\n      calldatasize\n      sub\n      dup2\n      add\n      swap1\n      tag_97\n      swap2\n      swap1\n      tag_58\n      jump\t// in\n    tag_97:\n      tag_98\n      jump\t// in\n    tag_96:\n      stop\n        /* \"node_modules/openzeppelin-solidity/contracts/token/ERC20/ERC20.sol\":4089:4250  function tokenTransferSell(address owner, address to, uint256 amount) public virtual {... */\n    tag_13:\n      callvalue\n      dup1\n      iszero\n      tag_99\n      jumpi\n      0x00\n      dup1\n      revert\n    tag_99:\n      pop\n      tag_100\n      0x04\n      dup1\n      calldatasize\n      sub\n      dup2\n      add\n      swap1\n      tag_101\n      swap2\n      swap1\n      tag_74\n      jump\t// in\n    tag_101:\n      tag_102\n      jump\t// in\n    tag_100:\n      stop\n        /* \"node_modules/openzeppelin-solidity/contracts/token/ERC20/ERC20.sol\":3408:3533  function balanceOf(address account) public view virtual override returns (uint256) {... */\n    tag_14:\n      callvalue\n      dup1\n      iszero\n      tag_103\n      jumpi\n      0x00\n      dup1\n      revert\n    tag_103:\n      pop\n      tag_104\n      0x04\n      dup1\n      calldatasize\n      sub\n      dup2\n      add\n      swap1\n      tag_105\n      swap2\n      swap1\n      tag_106\n      jump\t// in\n    tag_105:\n      tag_38\n      jump\t// in\n    tag_104:\n      mload(0x40)\n      tag_107\n      swap2\n      swap1\n      tag_66\n      jump\t// in\n    tag_107:\n      mload(0x40)\n      dup1\n      swap2\n      sub\n      swap1\n      return\n        /* \"node_modules/openzeppelin-solidity/contracts/access/Ownable.sol\":1668:1769  function renounceOwnership() public virtual onlyOwner {... */\n    tag_15:\n      callvalue\n      dup1\n      iszero\n      tag_108\n      jumpi\n      0x00\n      dup1\n      revert\n    tag_108:\n      pop\n      tag_109\n      tag_110\n      jump\t// in\n    tag_109:\n      stop\n        /* \"node_modules/openzeppelin-solidity/contracts/access/Ownable.sol\":1036:1121  function owner() public view virtual returns (address) {... */\n    tag_16:\n      callvalue\n      dup1\n      iszero\n      tag_111\n      jumpi\n      0x00\n      dup1\n      revert\n    tag_111:\n      pop\n      tag_112\n      tag_37\n      jump\t// in\n    tag_112:\n      mload(0x40)\n      tag_113\n      swap2\n      swap1\n      tag_114\n      jump\t// in\n    tag_113:\n      mload(0x40)\n      dup1\n      swap2\n      sub\n      swap1\n      return\n        /* \"node_modules/openzeppelin-solidity/contracts/token/ERC20/ERC20.sol\":2367:2469  function symbol() public view virtual override returns (string memory) {... */\n    tag_17:\n      callvalue\n      dup1\n      iszero\n      tag_115\n      jumpi\n      0x00\n      dup1\n      revert\n    tag_115:\n      pop\n      tag_116\n      tag_117\n      jump\t// in\n    tag_116:\n      mload(0x40)\n      tag_118\n      swap2\n      swap1\n      tag_54\n      jump\t// in\n    tag_118:\n      mload(0x40)\n      dup1\n      swap2\n      sub\n      swap1\n      return\n        /* \"node_modules/openzeppelin-solidity/contracts/token/ERC20/ERC20.sol\":6926:7353  function decreaseAllowance(address spender, uint256 subtractedValue) public virtual returns (bool) {... */\n    tag_18:\n      callvalue\n      dup1\n      iszero\n      tag_119\n      jumpi\n      0x00\n      dup1\n      revert\n    tag_119:\n      pop\n      tag_120\n      0x04\n      dup1\n      calldatasize\n      sub\n      dup2\n      add\n      swap1\n      tag_121\n      swap2\n      swap1\n      tag_58\n      jump\t// in\n    tag_121:\n      tag_122\n      jump\t// in\n    tag_120:\n      mload(0x40)\n      tag_123\n      swap2\n      swap1\n      tag_61\n      jump\t// in\n    tag_123:\n      mload(0x40)\n      dup1\n      swap2\n      sub\n      swap1\n      return\n        /* \"node_modules/openzeppelin-solidity/contracts/token/ERC20/ERC20.sol\":3729:3918  function transfer(address to, uint256 amount) public virtual override returns (bool) {... */\n    tag_19:\n      callvalue\n      dup1\n      iszero\n      tag_124\n      jumpi\n      0x00\n      dup1\n      revert\n    tag_124:\n      pop\n      tag_125\n      0x04\n      dup1\n      calldatasize\n      sub\n      dup2\n      add\n      swap1\n      tag_126\n      swap2\n      swap1\n      tag_58\n      jump\t// in\n    tag_126:\n      tag_127\n      jump\t// in\n    tag_125:\n      mload(0x40)\n      tag_128\n      swap2\n      swap1\n      tag_61\n      jump\t// in\n    tag_128:\n      mload(0x40)\n      dup1\n      swap2\n      sub\n      swap1\n      return\n        /* \"contracts/kaiToken.sol\":477:506  string public _symbol = \"KAI\" */\n    tag_20:\n      callvalue\n      dup1\n      iszero\n      tag_129\n      jumpi\n      0x00\n      dup1\n      revert\n    tag_129:\n      pop\n      tag_130\n      tag_131\n      jump\t// in\n    tag_130:\n      mload(0x40)\n      tag_132\n      swap2\n      swap1\n      tag_54\n      jump\t// in\n    tag_132:\n      mload(0x40)\n      dup1\n      swap2\n      sub\n      swap1\n      return\n        /* \"contracts/kaiToken.sol\":439:471  string public _name = \"KaiToken\" */\n    tag_21:\n      callvalue\n      dup1\n      iszero\n      tag_133\n      jumpi\n      0x00\n      dup1\n      revert\n    tag_133:\n      pop\n      tag_134\n      tag_135\n      jump\t// in\n    tag_134:\n      mload(0x40)\n      tag_136\n      swap2\n      swap1\n      tag_54\n      jump\t// in\n    tag_136:\n      mload(0x40)\n      dup1\n      swap2\n      sub\n      swap1\n      return\n        /* \"node_modules/openzeppelin-solidity/contracts/token/ERC20/ERC20.sol\":3924:4084  function tokenTransferBuy(address owner, address to, uint256 amount) public virtual {... */\n    tag_22:\n      callvalue\n      dup1\n      iszero\n      tag_137\n      jumpi\n      0x00\n      dup1\n      revert\n    tag_137:\n      pop\n      tag_138\n      0x04\n      dup1\n      calldatasize\n      sub\n      dup2\n      add\n      swap1\n      tag_139\n      swap2\n      swap1\n      tag_74\n      jump\t// in\n    tag_139:\n      tag_44\n      jump\t// in\n    tag_138:\n      stop\n        /* \"node_modules/openzeppelin-solidity/contracts/token/ERC20/ERC20.sol\":4308:4457  function allowance(address owner, address spender) public view virtual override returns (uint256) {... */\n    tag_23:\n      callvalue\n      dup1\n      iszero\n      tag_140\n      jumpi\n      0x00\n      dup1\n      revert\n    tag_140:\n      pop\n      tag_141\n      0x04\n      dup1\n      calldatasize\n      sub\n      dup2\n      add\n      swap1\n      tag_142\n      swap2\n      swap1\n      tag_143\n      jump\t// in\n    tag_142:\n      tag_144\n      jump\t// in\n    tag_141:\n      mload(0x40)\n      tag_145\n      swap2\n      swap1\n      tag_66\n      jump\t// in\n    tag_145:\n      mload(0x40)\n      dup1\n      swap2\n      sub\n      swap1\n      return\n        /* \"node_modules/openzeppelin-solidity/contracts/access/Ownable.sol\":1918:2116  function transferOwnership(address newOwner) public virtual onlyOwner {... */\n    tag_24:\n      callvalue\n      dup1\n      iszero\n      tag_146\n      jumpi\n      0x00\n      dup1\n      revert\n    tag_146:\n      pop\n      tag_147\n      0x04\n      dup1\n      calldatasize\n      sub\n      dup2\n      add\n      swap1\n      tag_148\n      swap2\n      swap1\n      tag_106\n      jump\t// in\n    tag_148:\n      tag_149\n      jump\t// in\n    tag_147:\n      stop\n        /* \"node_modules/openzeppelin-solidity/contracts/access/Ownable.sol\":1036:1121  function owner() public view virtual returns (address) {... */\n    tag_37:\n        /* \"node_modules/openzeppelin-solidity/contracts/access/Ownable.sol\":1082:1089  address */\n      0x00\n        /* \"node_modules/openzeppelin-solidity/contracts/access/Ownable.sol\":1108:1114  _owner */\n      0x05\n      0x00\n      swap1\n      sload\n      swap1\n      0x0100\n      exp\n      swap1\n      div\n      0xffffffffffffffffffffffffffffffffffffffff\n      and\n        /* \"node_modules/openzeppelin-solidity/contracts/access/Ownable.sol\":1101:1114  return _owner */\n      swap1\n      pop\n        /* \"node_modules/openzeppelin-solidity/contracts/access/Ownable.sol\":1036:1121  function owner() public view virtual returns (address) {... */\n      swap1\n      jump\t// out\n        /* \"node_modules/openzeppelin-solidity/contracts/token/ERC20/ERC20.sol\":3408:3533  function balanceOf(address account) public view virtual override returns (uint256) {... */\n    tag_38:\n        /* \"node_modules/openzeppelin-solidity/contracts/token/ERC20/ERC20.sol\":3482:3489  uint256 */\n      0x00\n        /* \"node_modules/openzeppelin-solidity/contracts/token/ERC20/ERC20.sol\":3508:3517  _balances */\n      dup1\n        /* \"node_modules/openzeppelin-solidity/contracts/token/ERC20/ERC20.sol\":3508:3526  _balances[account] */\n      0x00\n        /* \"node_modules/openzeppelin-solidity/contracts/token/ERC20/ERC20.sol\":3518:3525  account */\n      dup4\n        /* \"node_modules/openzeppelin-solidity/contracts/token/ERC20/ERC20.sol\":3508:3526  _balances[account] */\n      0xffffffffffffffffffffffffffffffffffffffff\n      and\n      0xffffffffffffffffffffffffffffffffffffffff\n      and\n      dup2\n      mstore\n      0x20\n      add\n      swap1\n      dup2\n      mstore\n      0x20\n      add\n      0x00\n      keccak256\n      sload\n        /* \"node_modules/openzeppelin-solidity/contracts/token/ERC20/ERC20.sol\":3501:3526  return _balances[account] */\n      swap1\n      pop\n        /* \"node_modules/openzeppelin-solidity/contracts/token/ERC20/ERC20.sol\":3408:3533  function balanceOf(address account) public view virtual override returns (uint256) {... */\n      swap2\n      swap1\n      pop\n      jump\t// out\n        /* \"node_modules/openzeppelin-solidity/contracts/token/ERC20/ERC20.sol\":3924:4084  function tokenTransferBuy(address owner, address to, uint256 amount) public virtual {... */\n    tag_44:\n        /* \"node_modules/openzeppelin-solidity/contracts/token/ERC20/ERC20.sol\":4038:4044  amount */\n      dup1\n        /* \"node_modules/openzeppelin-solidity/contracts/token/ERC20/ERC20.sol\":4018:4027  _balances */\n      0x00\n        /* \"node_modules/openzeppelin-solidity/contracts/token/ERC20/ERC20.sol\":4018:4034  _balances[owner] */\n      dup1\n        /* \"node_modules/openzeppelin-solidity/contracts/token/ERC20/ERC20.sol\":4028:4033  owner */\n      dup6\n        /* \"node_modules/openzeppelin-solidity/contracts/token/ERC20/ERC20.sol\":4018:4034  _balances[owner] */\n      0xffffffffffffffffffffffffffffffffffffffff\n      and\n      0xffffffffffffffffffffffffffffffffffffffff\n      and\n      dup2\n      mstore\n      0x20\n      add\n      swap1\n      dup2\n      mstore\n      0x20\n      add\n      0x00\n      keccak256\n      0x00\n        /* \"node_modules/openzeppelin-solidity/contracts/token/ERC20/ERC20.sol\":4018:4044  _balances[owner] -= amount */\n      dup3\n      dup3\n      sload\n      tag_153\n      swap2\n      swap1\n      tag_154\n      jump\t// in\n    tag_153:\n      swap3\n      pop\n      pop\n      dup2\n      swap1\n      sstore\n      pop\n        /* \"node_modules/openzeppelin-solidity/contracts/token/ERC20/ERC20.sol\":4071:4077  amount */\n      dup1\n        /* \"node_modules/openzeppelin-solidity/contracts/token/ERC20/ERC20.sol\":4054:4063  _balances */\n      0x00\n        /* \"node_modules/openzeppelin-solidity/contracts/token/ERC20/ERC20.sol\":4054:4067  _balances[to] */\n      dup1\n        /* \"node_modules/openzeppelin-solidity/contracts/token/ERC20/ERC20.sol\":4064:4066  to */\n      dup5\n        /* \"node_modules/openzeppelin-solidity/contracts/token/ERC20/ERC20.sol\":4054:4067  _balances[to] */\n      0xffffffffffffffffffffffffffffffffffffffff\n      and\n      0xffffffffffffffffffffffffffffffffffffffff\n      and\n      dup2\n      mstore\n      0x20\n      add\n      swap1\n      dup2\n      mstore\n      0x20\n      add\n      0x00\n      keccak256\n      0x00\n        /* \"node_modules/openzeppelin-solidity/contracts/token/ERC20/ERC20.sol\":4054:4077  _balances[to] += amount */\n      dup3\n      dup3\n      sload\n      tag_155\n      swap2\n      swap1\n      tag_156\n      jump\t// in\n    tag_155:\n      swap3\n      pop\n      pop\n      dup2\n      swap1\n      sstore\n      pop\n        /* \"node_modules/openzeppelin-solidity/contracts/token/ERC20/ERC20.sol\":3924:4084  function tokenTransferBuy(address owner, address to, uint256 amount) public virtual {... */\n      pop\n      pop\n      pop\n      jump\t// out\n        /* \"node_modules/openzeppelin-solidity/contracts/token/ERC20/ERC20.sol\":8852:9241  function _mint(address account, uint256 amount) internal virtual {... */\n    tag_49:\n        /* \"node_modules/openzeppelin-solidity/contracts/token/ERC20/ERC20.sol\":8954:8955  0 */\n      0x00\n        /* \"node_modules/openzeppelin-solidity/contracts/token/ERC20/ERC20.sol\":8935:8956  account != address(0) */\n      0xffffffffffffffffffffffffffffffffffffffff\n      and\n        /* \"node_modules/openzeppelin-solidity/contracts/token/ERC20/ERC20.sol\":8935:8942  account */\n      dup3\n        /* \"node_modules/openzeppelin-solidity/contracts/token/ERC20/ERC20.sol\":8935:8956  account != address(0) */\n      0xffffffffffffffffffffffffffffffffffffffff\n      and\n      sub\n        /* \"node_modules/openzeppelin-solidity/contracts/token/ERC20/ERC20.sol\":8927:8992  require(account != address(0), \"ERC20: mint to the zero address\") */\n      tag_158\n      jumpi\n      mload(0x40)\n      0x08c379a000000000000000000000000000000000000000000000000000000000\n      dup2\n      mstore\n      0x04\n      add\n      tag_159\n      swap1\n      tag_160\n      jump\t// in\n    tag_159:\n      mload(0x40)\n      dup1\n      swap2\n      sub\n      swap1\n      revert\n    tag_158:\n        /* \"node_modules/openzeppelin-solidity/contracts/token/ERC20/ERC20.sol\":9003:9052  _beforeTokenTransfer(address(0), account, amount) */\n      tag_161\n        /* \"node_modules/openzeppelin-solidity/contracts/token/ERC20/ERC20.sol\":9032:9033  0 */\n      0x00\n        /* \"node_modules/openzeppelin-solidity/contracts/token/ERC20/ERC20.sol\":9036:9043  account */\n      dup4\n        /* \"node_modules/openzeppelin-solidity/contracts/token/ERC20/ERC20.sol\":9045:9051  amount */\n      dup4\n        /* \"node_modules/openzeppelin-solidity/contracts/token/ERC20/ERC20.sol\":9003:9023  _beforeTokenTransfer */\n      tag_162\n        /* \"node_modules/openzeppelin-solidity/contracts/token/ERC20/ERC20.sol\":9003:9052  _beforeTokenTransfer(address(0), account, amount) */\n      jump\t// in\n    tag_161:\n        /* \"node_modules/openzeppelin-solidity/contracts/token/ERC20/ERC20.sol\":9079:9085  amount */\n      dup1\n        /* \"node_modules/openzeppelin-solidity/contracts/token/ERC20/ERC20.sol\":9063:9075  _totalSupply */\n      0x02\n      0x00\n        /* \"node_modules/openzeppelin-solidity/contracts/token/ERC20/ERC20.sol\":9063:9085  _totalSupply += amount */\n      dup3\n      dup3\n      sload\n      tag_163\n      swap2\n      swap1\n      tag_156\n      jump\t// in\n    tag_163:\n      swap3\n      pop\n      pop\n      dup2\n      swap1\n      sstore\n      pop\n        /* \"node_modules/openzeppelin-solidity/contracts/token/ERC20/ERC20.sol\":9117:9123  amount */\n      dup1\n        /* \"node_modules/openzeppelin-solidity/contracts/token/ERC20/ERC20.sol\":9095:9104  _balances */\n      0x00\n        /* \"node_modules/openzeppelin-solidity/contracts/token/ERC20/ERC20.sol\":9095:9113  _balances[account] */\n      dup1\n        /* \"node_modules/openzeppelin-solidity/contracts/token/ERC20/ERC20.sol\":9105:9112  account */\n      dup5\n        /* \"node_modules/openzeppelin-solidity/contracts/token/ERC20/ERC20.sol\":9095:9113  _balances[account] */\n      0xffffffffffffffffffffffffffffffffffffffff\n      and\n      0xffffffffffffffffffffffffffffffffffffffff\n      and\n      dup2\n      mstore\n      0x20\n      add\n      swap1\n      dup2\n      mstore\n      0x20\n      add\n      0x00\n      keccak256\n      0x00\n        /* \"node_modules/openzeppelin-solidity/contracts/token/ERC20/ERC20.sol\":9095:9123  _balances[account] += amount */\n      dup3\n      dup3\n      sload\n      tag_164\n      swap2\n      swap1\n      tag_156\n      jump\t// in\n    tag_164:\n      swap3\n      pop\n      pop\n      dup2\n      swap1\n      sstore\n      pop\n        /* \"node_modules/openzeppelin-solidity/contracts/token/ERC20/ERC20.sol\":9159:9166  account */\n      dup2\n        /* \"node_modules/openzeppelin-solidity/contracts/token/ERC20/ERC20.sol\":9138:9175  Transfer(address(0), account, amount) */\n      0xffffffffffffffffffffffffffffffffffffffff\n      and\n        /* \"node_modules/openzeppelin-solidity/contracts/token/ERC20/ERC20.sol\":9155:9156  0 */\n      0x00\n        /* \"node_modules/openzeppelin-solidity/contracts/token/ERC20/ERC20.sol\":9138:9175  Transfer(address(0), account, amount) */\n      0xffffffffffffffffffffffffffffffffffffffff\n      and\n      0xddf252ad1be2c89b69c2b068fc378daa952ba7f163c4a11628f55a4df523b3ef\n        /* \"node_modules/openzeppelin-solidity/contracts/token/ERC20/ERC20.sol\":9168:9174  amount */\n      dup4\n        /* \"node_modules/openzeppelin-solidity/contracts/token/ERC20/ERC20.sol\":9138:9175  Transfer(address(0), account, amount) */\n      mload(0x40)\n      tag_165\n      swap2\n      swap1\n      tag_66\n      jump\t// in\n    tag_165:\n      mload(0x40)\n      dup1\n      swap2\n      sub\n      swap1\n      log3\n        /* \"node_modules/openzeppelin-solidity/contracts/token/ERC20/ERC20.sol\":9186:9234  _afterTokenTransfer(address(0), account, amount) */\n      tag_166\n        /* \"node_modules/openzeppelin-solidity/contracts/token/ERC20/ERC20.sol\":9214:9215  0 */\n      0x00\n        /* \"node_modules/openzeppelin-solidity/contracts/token/ERC20/ERC20.sol\":9218:9225  account */\n      dup4\n        /* \"node_modules/openzeppelin-solidity/contracts/token/ERC20/ERC20.sol\":9227:9233  amount */\n      dup4\n        /* \"node_modules/openzeppelin-solidity/contracts/token/ERC20/ERC20.sol\":9186:9205  _afterTokenTransfer */\n      tag_167\n        /* \"node_modules/openzeppelin-solidity/contracts/token/ERC20/ERC20.sol\":9186:9234  _afterTokenTransfer(address(0), account, amount) */\n      jump\t// in\n    tag_166:\n        /* \"node_modules/openzeppelin-solidity/contracts/token/ERC20/ERC20.sol\":8852:9241  function _mint(address account, uint256 amount) internal virtual {... */\n      pop\n      pop\n      jump\t// out\n        /* \"node_modules/openzeppelin-solidity/contracts/token/ERC20/ERC20.sol\":2156:2254  function name() public view virtual override returns (string memory) {... */\n    tag_52:\n        /* \"node_modules/openzeppelin-solidity/contracts/token/ERC20/ERC20.sol\":2210:2223  string memory */\n      0x60\n        /* \"node_modules/openzeppelin-solidity/contracts/token/ERC20/ERC20.sol\":2242:2247  _name */\n      0x03\n        /* \"node_modules/openzeppelin-solidity/contracts/token/ERC20/ERC20.sol\":2235:2247  return _name */\n      dup1\n      sload\n      tag_169\n      swap1\n      tag_170\n      jump\t// in\n    tag_169:\n      dup1\n      0x1f\n      add\n      0x20\n      dup1\n      swap2\n      div\n      mul\n      0x20\n      add\n      mload(0x40)\n      swap1\n      dup2\n      add\n      0x40\n      mstore\n      dup1\n      swap3\n      swap2\n      swap1\n      dup2\n      dup2\n      mstore\n      0x20\n      add\n      dup3\n      dup1\n      sload\n      tag_171\n      swap1\n      tag_170\n      jump\t// in\n    tag_171:\n      dup1\n      iszero\n      tag_172\n      jumpi\n      dup1\n      0x1f\n      lt\n      tag_173\n      jumpi\n      0x0100\n      dup1\n      dup4\n      sload\n      div\n      mul\n      dup4\n      mstore\n      swap2\n      0x20\n      add\n      swap2\n      jump(tag_172)\n    tag_173:\n      dup3\n      add\n      swap2\n      swap1\n      0x00\n      mstore\n      keccak256(0x00, 0x20)\n      swap1\n    tag_174:\n      dup2\n      sload\n      dup2\n      mstore\n      swap1\n      0x01\n      add\n      swap1\n      0x20\n      add\n      dup1\n      dup4\n      gt\n      tag_174\n      jumpi\n      dup3\n      swap1\n      sub\n      0x1f\n      and\n      dup3\n      add\n      swap2\n    tag_172:\n      pop\n      pop\n      pop\n      pop\n      pop\n      swap1\n      pop\n        /* \"node_modules/openzeppelin-solidity/contracts/token/ERC20/ERC20.sol\":2156:2254  function name() public view virtual override returns (string memory) {... */\n      swap1\n      jump\t// out\n        /* \"node_modules/openzeppelin-solidity/contracts/token/ERC20/ERC20.sol\":4765:4962  function approve(address spender, uint256 amount) public virtual override returns (bool) {... */\n    tag_59:\n        /* \"node_modules/openzeppelin-solidity/contracts/token/ERC20/ERC20.sol\":4848:4852  bool */\n      0x00\n        /* \"node_modules/openzeppelin-solidity/contracts/token/ERC20/ERC20.sol\":4864:4877  address owner */\n      dup1\n        /* \"node_modules/openzeppelin-solidity/contracts/token/ERC20/ERC20.sol\":4880:4892  _msgSender() */\n      tag_176\n        /* \"node_modules/openzeppelin-solidity/contracts/token/ERC20/ERC20.sol\":4880:4890  _msgSender */\n      tag_177\n        /* \"node_modules/openzeppelin-solidity/contracts/token/ERC20/ERC20.sol\":4880:4892  _msgSender() */\n      jump\t// in\n    tag_176:\n        /* \"node_modules/openzeppelin-solidity/contracts/token/ERC20/ERC20.sol\":4864:4892  address owner = _msgSender() */\n      swap1\n      pop\n        /* \"node_modules/openzeppelin-solidity/contracts/token/ERC20/ERC20.sol\":4902:4934  _approve(owner, spender, amount) */\n      tag_178\n        /* \"node_modules/openzeppelin-solidity/contracts/token/ERC20/ERC20.sol\":4911:4916  owner */\n      dup2\n        /* \"node_modules/openzeppelin-solidity/contracts/token/ERC20/ERC20.sol\":4918:4925  spender */\n      dup6\n        /* \"node_modules/openzeppelin-solidity/contracts/token/ERC20/ERC20.sol\":4927:4933  amount */\n      dup6\n        /* \"node_modules/openzeppelin-solidity/contracts/token/ERC20/ERC20.sol\":4902:4910  _approve */\n      tag_179\n        /* \"node_modules/openzeppelin-solidity/contracts/token/ERC20/ERC20.sol\":4902:4934  _approve(owner, spender, amount) */\n      jump\t// in\n    tag_178:\n        /* \"node_modules/openzeppelin-solidity/contracts/token/ERC20/ERC20.sol\":4951:4955  true */\n      0x01\n        /* \"node_modules/openzeppelin-solidity/contracts/token/ERC20/ERC20.sol\":4944:4955  return true */\n      swap2\n      pop\n      pop\n        /* \"node_modules/openzeppelin-solidity/contracts/token/ERC20/ERC20.sol\":4765:4962  function approve(address spender, uint256 amount) public virtual override returns (bool) {... */\n      swap3\n      swap2\n      pop\n      pop\n      jump\t// out\n        /* \"node_modules/openzeppelin-solidity/contracts/token/ERC20/ERC20.sol\":3244:3350  function totalSupply() public view virtual override returns (uint256) {... */\n    tag_64:\n        /* \"node_modules/openzeppelin-solidity/contracts/token/ERC20/ERC20.sol\":3305:3312  uint256 */\n      0x00\n        /* \"node_modules/openzeppelin-solidity/contracts/token/ERC20/ERC20.sol\":3331:3343  _totalSupply */\n      sload(0x02)\n        /* \"node_modules/openzeppelin-solidity/contracts/token/ERC20/ERC20.sol\":3324:3343  return _totalSupply */\n      swap1\n      pop\n        /* \"node_modules/openzeppelin-solidity/contracts/token/ERC20/ERC20.sol\":3244:3350  function totalSupply() public view virtual override returns (uint256) {... */\n      swap1\n      jump\t// out\n        /* \"contracts/kaiToken.sol\":1661:2018  function sellToken(uint256 _amount) public payable{... */\n    tag_70:\n        /* \"contracts/kaiToken.sol\":1754:1761  _amount */\n      dup1\n        /* \"contracts/kaiToken.sol\":1729:1750  balanceOf(msg.sender) */\n      tag_182\n        /* \"contracts/kaiToken.sol\":1739:1749  msg.sender */\n      caller\n        /* \"contracts/kaiToken.sol\":1729:1738  balanceOf */\n      tag_38\n        /* \"contracts/kaiToken.sol\":1729:1750  balanceOf(msg.sender) */\n      jump\t// in\n    tag_182:\n        /* \"contracts/kaiToken.sol\":1729:1761  balanceOf(msg.sender) >= _amount */\n      lt\n      iszero\n        /* \"contracts/kaiToken.sol\":1721:1790  require(balanceOf(msg.sender) >= _amount, \"you fucking no Token ok?\") */\n      tag_183\n      jumpi\n      mload(0x40)\n      0x08c379a000000000000000000000000000000000000000000000000000000000\n      dup2\n      mstore\n      0x04\n      add\n      tag_184\n      swap1\n      tag_185\n      jump\t// in\n    tag_184:\n      mload(0x40)\n      dup1\n      swap2\n      sub\n      swap1\n      revert\n    tag_183:\n        /* \"contracts/kaiToken.sol\":1800:1819  uint256 etherAmount */\n      0x00\n        /* \"contracts/kaiToken.sol\":1830:1834  rate */\n      sload(0x09)\n        /* \"contracts/kaiToken.sol\":1822:1829  _amount */\n      dup3\n        /* \"contracts/kaiToken.sol\":1822:1834  _amount/rate */\n      tag_186\n      swap2\n      swap1\n      tag_187\n      jump\t// in\n    tag_186:\n        /* \"contracts/kaiToken.sol\":1800:1834  uint256 etherAmount = _amount/rate */\n      swap1\n      pop\n        /* \"contracts/kaiToken.sol\":1877:1888  etherAmount */\n      dup1\n        /* \"contracts/kaiToken.sol\":1852:1873  address(this).balance */\n      selfbalance\n        /* \"contracts/kaiToken.sol\":1852:1888  address(this).balance >= etherAmount */\n      lt\n      iszero\n        /* \"contracts/kaiToken.sol\":1844:1904  require(address(this).balance >= etherAmount, \"CA no ether\") */\n      tag_188\n      jumpi\n      mload(0x40)\n      0x08c379a000000000000000000000000000000000000000000000000000000000\n      dup2\n      mstore\n      0x04\n      add\n      tag_189\n      swap1\n      tag_190\n      jump\t// in\n    tag_189:\n      mload(0x40)\n      dup1\n      swap2\n      sub\n      swap1\n      revert\n    tag_188:\n        /* \"contracts/kaiToken.sol\":1914:1960  tokenTransferSell(owner(),msg.sender, _amount) */\n      tag_191\n        /* \"contracts/kaiToken.sol\":1932:1939  owner() */\n      tag_192\n        /* \"contracts/kaiToken.sol\":1932:1937  owner */\n      tag_37\n        /* \"contracts/kaiToken.sol\":1932:1939  owner() */\n      jump\t// in\n    tag_192:\n        /* \"contracts/kaiToken.sol\":1940:1950  msg.sender */\n      caller\n        /* \"contracts/kaiToken.sol\":1952:1959  _amount */\n      dup5\n        /* \"contracts/kaiToken.sol\":1914:1931  tokenTransferSell */\n      tag_102\n        /* \"contracts/kaiToken.sol\":1914:1960  tokenTransferSell(owner(),msg.sender, _amount) */\n      jump\t// in\n    tag_191:\n        /* \"contracts/kaiToken.sol\":1978:1988  msg.sender */\n      caller\n        /* \"contracts/kaiToken.sol\":1970:1998  payable(msg.sender).transfer */\n      0xffffffffffffffffffffffffffffffffffffffff\n      and\n        /* \"contracts/kaiToken.sol\":1970:2011  payable(msg.sender).transfer(etherAmount) */\n      0x08fc\n        /* \"contracts/kaiToken.sol\":1999:2010  etherAmount */\n      dup3\n        /* \"contracts/kaiToken.sol\":1970:2011  payable(msg.sender).transfer(etherAmount) */\n      swap1\n      dup2\n      iszero\n      mul\n      swap1\n      mload(0x40)\n      0x00\n      mload(0x40)\n      dup1\n      dup4\n      sub\n      dup2\n      dup6\n      dup9\n      dup9\n      call\n      swap4\n      pop\n      pop\n      pop\n      pop\n      iszero\n      dup1\n      iszero\n      tag_194\n      jumpi\n      returndatasize\n      0x00\n      dup1\n      returndatacopy\n      revert(0x00, returndatasize)\n    tag_194:\n      pop\n        /* \"contracts/kaiToken.sol\":1711:2018  {... */\n      pop\n        /* \"contracts/kaiToken.sol\":1661:2018  function sellToken(uint256 _amount) public payable{... */\n      pop\n      jump\t// out\n        /* \"node_modules/openzeppelin-solidity/contracts/token/ERC20/ERC20.sol\":5524:5810  function transferFrom(... */\n    tag_75:\n        /* \"node_modules/openzeppelin-solidity/contracts/token/ERC20/ERC20.sol\":5651:5655  bool */\n      0x00\n        /* \"node_modules/openzeppelin-solidity/contracts/token/ERC20/ERC20.sol\":5667:5682  address spender */\n      dup1\n        /* \"node_modules/openzeppelin-solidity/contracts/token/ERC20/ERC20.sol\":5685:5697  _msgSender() */\n      tag_196\n        /* \"node_modules/openzeppelin-solidity/contracts/token/ERC20/ERC20.sol\":5685:5695  _msgSender */\n      tag_177\n        /* \"node_modules/openzeppelin-solidity/contracts/token/ERC20/ERC20.sol\":5685:5697  _msgSender() */\n      jump\t// in\n    tag_196:\n        /* \"node_modules/openzeppelin-solidity/contracts/token/ERC20/ERC20.sol\":5667:5697  address spender = _msgSender() */\n      swap1\n      pop\n        /* \"node_modules/openzeppelin-solidity/contracts/token/ERC20/ERC20.sol\":5707:5745  _spendAllowance(from, spender, amount) */\n      tag_197\n        /* \"node_modules/openzeppelin-solidity/contracts/token/ERC20/ERC20.sol\":5723:5727  from */\n      dup6\n        /* \"node_modules/openzeppelin-solidity/contracts/token/ERC20/ERC20.sol\":5729:5736  spender */\n      dup3\n        /* \"node_modules/openzeppelin-solidity/contracts/token/ERC20/ERC20.sol\":5738:5744  amount */\n      dup6\n        /* \"node_modules/openzeppelin-solidity/contracts/token/ERC20/ERC20.sol\":5707:5722  _spendAllowance */\n      tag_198\n        /* \"node_modules/openzeppelin-solidity/contracts/token/ERC20/ERC20.sol\":5707:5745  _spendAllowance(from, spender, amount) */\n      jump\t// in\n    tag_197:\n        /* \"node_modules/openzeppelin-solidity/contracts/token/ERC20/ERC20.sol\":5755:5782  _transfer(from, to, amount) */\n      tag_199\n        /* \"node_modules/openzeppelin-solidity/contracts/token/ERC20/ERC20.sol\":5765:5769  from */\n      dup6\n        /* \"node_modules/openzeppelin-solidity/contracts/token/ERC20/ERC20.sol\":5771:5773  to */\n      dup6\n        /* \"node_modules/openzeppelin-solidity/contracts/token/ERC20/ERC20.sol\":5775:5781  amount */\n      dup6\n        /* \"node_modules/openzeppelin-solidity/contracts/token/ERC20/ERC20.sol\":5755:5764  _transfer */\n      tag_200\n        /* \"node_modules/openzeppelin-solidity/contracts/token/ERC20/ERC20.sol\":5755:5782  _transfer(from, to, amount) */\n      jump\t// in\n    tag_199:\n        /* \"node_modules/openzeppelin-solidity/contracts/token/ERC20/ERC20.sol\":5799:5803  true */\n      0x01\n        /* \"node_modules/openzeppelin-solidity/contracts/token/ERC20/ERC20.sol\":5792:5803  return true */\n      swap2\n      pop\n      pop\n        /* \"node_modules/openzeppelin-solidity/contracts/token/ERC20/ERC20.sol\":5524:5810  function transferFrom(... */\n      swap4\n      swap3\n      pop\n      pop\n      pop\n      jump\t// out\n        /* \"contracts/kaiToken.sol\":573:598  uint256 public rate = 100 */\n    tag_79:\n      sload(0x09)\n      dup2\n      jump\t// out\n        /* \"node_modules/openzeppelin-solidity/contracts/token/ERC20/ERC20.sol\":3093:3184  function decimals() public view virtual override returns (uint8) {... */\n    tag_83:\n        /* \"node_modules/openzeppelin-solidity/contracts/token/ERC20/ERC20.sol\":3151:3156  uint8 */\n      0x00\n        /* \"node_modules/openzeppelin-solidity/contracts/token/ERC20/ERC20.sol\":3175:3177  18 */\n      0x12\n        /* \"node_modules/openzeppelin-solidity/contracts/token/ERC20/ERC20.sol\":3168:3177  return 18 */\n      swap1\n      pop\n        /* \"node_modules/openzeppelin-solidity/contracts/token/ERC20/ERC20.sol\":3093:3184  function decimals() public view virtual override returns (uint8) {... */\n      swap1\n      jump\t// out\n        /* \"node_modules/openzeppelin-solidity/contracts/token/ERC20/ERC20.sol\":6205:6439  function increaseAllowance(address spender, uint256 addedValue) public virtual returns (bool) {... */\n    tag_89:\n        /* \"node_modules/openzeppelin-solidity/contracts/token/ERC20/ERC20.sol\":6293:6297  bool */\n      0x00\n        /* \"node_modules/openzeppelin-solidity/contracts/token/ERC20/ERC20.sol\":6309:6322  address owner */\n      dup1\n        /* \"node_modules/openzeppelin-solidity/contracts/token/ERC20/ERC20.sol\":6325:6337  _msgSender() */\n      tag_203\n        /* \"node_modules/openzeppelin-solidity/contracts/token/ERC20/ERC20.sol\":6325:6335  _msgSender */\n      tag_177\n        /* \"node_modules/openzeppelin-solidity/contracts/token/ERC20/ERC20.sol\":6325:6337  _msgSender() */\n      jump\t// in\n    tag_203:\n        /* \"node_modules/openzeppelin-solidity/contracts/token/ERC20/ERC20.sol\":6309:6337  address owner = _msgSender() */\n      swap1\n      pop\n        /* \"node_modules/openzeppelin-solidity/contracts/token/ERC20/ERC20.sol\":6347:6411  _approve(owner, spender, allowance(owner, spender) + addedValue) */\n      tag_204\n        /* \"node_modules/openzeppelin-solidity/contracts/token/ERC20/ERC20.sol\":6356:6361  owner */\n      dup2\n        /* \"node_modules/openzeppelin-solidity/contracts/token/ERC20/ERC20.sol\":6363:6370  spender */\n      dup6\n        /* \"node_modules/openzeppelin-solidity/contracts/token/ERC20/ERC20.sol\":6400:6410  addedValue */\n      dup6\n        /* \"node_modules/openzeppelin-solidity/contracts/token/ERC20/ERC20.sol\":6372:6397  allowance(owner, spender) */\n      tag_205\n        /* \"node_modules/openzeppelin-solidity/contracts/token/ERC20/ERC20.sol\":6382:6387  owner */\n      dup6\n        /* \"node_modules/openzeppelin-solidity/contracts/token/ERC20/ERC20.sol\":6389:6396  spender */\n      dup10\n        /* \"node_modules/openzeppelin-solidity/contracts/token/ERC20/ERC20.sol\":6372:6381  allowance */\n      tag_144\n        /* \"node_modules/openzeppelin-solidity/contracts/token/ERC20/ERC20.sol\":6372:6397  allowance(owner, spender) */\n      jump\t// in\n    tag_205:\n        /* \"node_modules/openzeppelin-solidity/contracts/token/ERC20/ERC20.sol\":6372:6410  allowance(owner, spender) + addedValue */\n      tag_206\n      swap2\n      swap1\n      tag_156\n      jump\t// in\n    tag_206:\n        /* \"node_modules/openzeppelin-solidity/contracts/token/ERC20/ERC20.sol\":6347:6355  _approve */\n      tag_179\n        /* \"node_modules/openzeppelin-solidity/contracts/token/ERC20/ERC20.sol\":6347:6411  _approve(owner, spender, allowance(owner, spender) + addedValue) */\n      jump\t// in\n    tag_204:\n        /* \"node_modules/openzeppelin-solidity/contracts/token/ERC20/ERC20.sol\":6428:6432  true */\n      0x01\n        /* \"node_modules/openzeppelin-solidity/contracts/token/ERC20/ERC20.sol\":6421:6432  return true */\n      swap2\n      pop\n      pop\n        /* \"node_modules/openzeppelin-solidity/contracts/token/ERC20/ERC20.sol\":6205:6439  function increaseAllowance(address spender, uint256 addedValue) public virtual returns (bool) {... */\n      swap3\n      swap2\n      pop\n      pop\n      jump\t// out\n        /* \"contracts/kaiToken.sol\":512:566  uint256 public _totalSupply = 10000 * (10**decimals()) */\n    tag_93:\n      sload(0x08)\n      dup2\n      jump\t// out\n        /* \"node_modules/openzeppelin-solidity/contracts/token/ERC20/ERC20.sol\":8473:8576  function mint(address account, uint256 amount) public virtual {... */\n    tag_98:\n        /* \"node_modules/openzeppelin-solidity/contracts/token/ERC20/ERC20.sol\":8545:8569  _mint( account,  amount) */\n      tag_208\n        /* \"node_modules/openzeppelin-solidity/contracts/token/ERC20/ERC20.sol\":8552:8559  account */\n      dup3\n        /* \"node_modules/openzeppelin-solidity/contracts/token/ERC20/ERC20.sol\":8562:8568  amount */\n      dup3\n        /* \"node_modules/openzeppelin-solidity/contracts/token/ERC20/ERC20.sol\":8545:8550  _mint */\n      tag_49\n        /* \"node_modules/openzeppelin-solidity/contracts/token/ERC20/ERC20.sol\":8545:8569  _mint( account,  amount) */\n      jump\t// in\n    tag_208:\n        /* \"node_modules/openzeppelin-solidity/contracts/token/ERC20/ERC20.sol\":8473:8576  function mint(address account, uint256 amount) public virtual {... */\n      pop\n      pop\n      jump\t// out\n        /* \"node_modules/openzeppelin-solidity/contracts/token/ERC20/ERC20.sol\":4089:4250  function tokenTransferSell(address owner, address to, uint256 amount) public virtual {... */\n    tag_102:\n        /* \"node_modules/openzeppelin-solidity/contracts/token/ERC20/ERC20.sol\":4204:4210  amount */\n      dup1\n        /* \"node_modules/openzeppelin-solidity/contracts/token/ERC20/ERC20.sol\":4184:4193  _balances */\n      0x00\n        /* \"node_modules/openzeppelin-solidity/contracts/token/ERC20/ERC20.sol\":4184:4200  _balances[owner] */\n      dup1\n        /* \"node_modules/openzeppelin-solidity/contracts/token/ERC20/ERC20.sol\":4194:4199  owner */\n      dup6\n        /* \"node_modules/openzeppelin-solidity/contracts/token/ERC20/ERC20.sol\":4184:4200  _balances[owner] */\n      0xffffffffffffffffffffffffffffffffffffffff\n      and\n      0xffffffffffffffffffffffffffffffffffffffff\n      and\n      dup2\n      mstore\n      0x20\n      add\n      swap1\n      dup2\n      mstore\n      0x20\n      add\n      0x00\n      keccak256\n      0x00\n        /* \"node_modules/openzeppelin-solidity/contracts/token/ERC20/ERC20.sol\":4184:4210  _balances[owner] += amount */\n      dup3\n      dup3\n      sload\n      tag_210\n      swap2\n      swap1\n      tag_156\n      jump\t// in\n    tag_210:\n      swap3\n      pop\n      pop\n      dup2\n      swap1\n      sstore\n      pop\n        /* \"node_modules/openzeppelin-solidity/contracts/token/ERC20/ERC20.sol\":4237:4243  amount */\n      dup1\n        /* \"node_modules/openzeppelin-solidity/contracts/token/ERC20/ERC20.sol\":4220:4229  _balances */\n      0x00\n        /* \"node_modules/openzeppelin-solidity/contracts/token/ERC20/ERC20.sol\":4220:4233  _balances[to] */\n      dup1\n        /* \"node_modules/openzeppelin-solidity/contracts/token/ERC20/ERC20.sol\":4230:4232  to */\n      dup5\n        /* \"node_modules/openzeppelin-solidity/contracts/token/ERC20/ERC20.sol\":4220:4233  _balances[to] */\n      0xffffffffffffffffffffffffffffffffffffffff\n      and\n      0xffffffffffffffffffffffffffffffffffffffff\n      and\n      dup2\n      mstore\n      0x20\n      add\n      swap1\n      dup2\n      mstore\n      0x20\n      add\n      0x00\n      keccak256\n      0x00\n        /* \"node_modules/openzeppelin-solidity/contracts/token/ERC20/ERC20.sol\":4220:4243  _balances[to] -= amount */\n      dup3\n      dup3\n      sload\n      tag_211\n      swap2\n      swap1\n      tag_154\n      jump\t// in\n    tag_211:\n      swap3\n      pop\n      pop\n      dup2\n      swap1\n      sstore\n      pop\n        /* \"node_modules/openzeppelin-solidity/contracts/token/ERC20/ERC20.sol\":4089:4250  function tokenTransferSell(address owner, address to, uint256 amount) public virtual {... */\n      pop\n      pop\n      pop\n      jump\t// out\n        /* \"node_modules/openzeppelin-solidity/contracts/access/Ownable.sol\":1668:1769  function renounceOwnership() public virtual onlyOwner {... */\n    tag_110:\n        /* \"node_modules/openzeppelin-solidity/contracts/access/Ownable.sol\":1259:1271  _msgSender() */\n      tag_213\n        /* \"node_modules/openzeppelin-solidity/contracts/access/Ownable.sol\":1259:1269  _msgSender */\n      tag_177\n        /* \"node_modules/openzeppelin-solidity/contracts/access/Ownable.sol\":1259:1271  _msgSender() */\n      jump\t// in\n    tag_213:\n        /* \"node_modules/openzeppelin-solidity/contracts/access/Ownable.sol\":1248:1271  owner() == _msgSender() */\n      0xffffffffffffffffffffffffffffffffffffffff\n      and\n        /* \"node_modules/openzeppelin-solidity/contracts/access/Ownable.sol\":1248:1255  owner() */\n      tag_214\n        /* \"node_modules/openzeppelin-solidity/contracts/access/Ownable.sol\":1248:1253  owner */\n      tag_37\n        /* \"node_modules/openzeppelin-solidity/contracts/access/Ownable.sol\":1248:1255  owner() */\n      jump\t// in\n    tag_214:\n        /* \"node_modules/openzeppelin-solidity/contracts/access/Ownable.sol\":1248:1271  owner() == _msgSender() */\n      0xffffffffffffffffffffffffffffffffffffffff\n      and\n      eq\n        /* \"node_modules/openzeppelin-solidity/contracts/access/Ownable.sol\":1240:1308  require(owner() == _msgSender(), \"Ownable: caller is not the owner\") */\n      tag_215\n      jumpi\n      mload(0x40)\n      0x08c379a000000000000000000000000000000000000000000000000000000000\n      dup2\n      mstore\n      0x04\n      add\n      tag_216\n      swap1\n      tag_217\n      jump\t// in\n    tag_216:\n      mload(0x40)\n      dup1\n      swap2\n      sub\n      swap1\n      revert\n    tag_215:\n        /* \"node_modules/openzeppelin-solidity/contracts/access/Ownable.sol\":1732:1762  _transferOwnership(address(0)) */\n      tag_219\n        /* \"node_modules/openzeppelin-solidity/contracts/access/Ownable.sol\":1759:1760  0 */\n      0x00\n        /* \"node_modules/openzeppelin-solidity/contracts/access/Ownable.sol\":1732:1750  _transferOwnership */\n      tag_220\n        /* \"node_modules/openzeppelin-solidity/contracts/access/Ownable.sol\":1732:1762  _transferOwnership(address(0)) */\n      jump\t// in\n    tag_219:\n        /* \"node_modules/openzeppelin-solidity/contracts/access/Ownable.sol\":1668:1769  function renounceOwnership() public virtual onlyOwner {... */\n      jump\t// out\n        /* \"node_modules/openzeppelin-solidity/contracts/token/ERC20/ERC20.sol\":2367:2469  function symbol() public view virtual override returns (string memory) {... */\n    tag_117:\n        /* \"node_modules/openzeppelin-solidity/contracts/token/ERC20/ERC20.sol\":2423:2436  string memory */\n      0x60\n        /* \"node_modules/openzeppelin-solidity/contracts/token/ERC20/ERC20.sol\":2455:2462  _symbol */\n      0x04\n        /* \"node_modules/openzeppelin-solidity/contracts/token/ERC20/ERC20.sol\":2448:2462  return _symbol */\n      dup1\n      sload\n      tag_222\n      swap1\n      tag_170\n      jump\t// in\n    tag_222:\n      dup1\n      0x1f\n      add\n      0x20\n      dup1\n      swap2\n      div\n      mul\n      0x20\n      add\n      mload(0x40)\n      swap1\n      dup2\n      add\n      0x40\n      mstore\n      dup1\n      swap3\n      swap2\n      swap1\n      dup2\n      dup2\n      mstore\n      0x20\n      add\n      dup3\n      dup1\n      sload\n      tag_223\n      swap1\n      tag_170\n      jump\t// in\n    tag_223:\n      dup1\n      iszero\n      tag_224\n      jumpi\n      dup1\n      0x1f\n      lt\n      tag_225\n      jumpi\n      0x0100\n      dup1\n      dup4\n      sload\n      div\n      mul\n      dup4\n      mstore\n      swap2\n      0x20\n      add\n      swap2\n      jump(tag_224)\n    tag_225:\n      dup3\n      add\n      swap2\n      swap1\n      0x00\n      mstore\n      keccak256(0x00, 0x20)\n      swap1\n    tag_226:\n      dup2\n      sload\n      dup2\n      mstore\n      swap1\n      0x01\n      add\n      swap1\n      0x20\n      add\n      dup1\n      dup4\n      gt\n      tag_226\n      jumpi\n      dup3\n      swap1\n      sub\n      0x1f\n      and\n      dup3\n      add\n      swap2\n    tag_224:\n      pop\n      pop\n      pop\n      pop\n      pop\n      swap1\n      pop\n        /* \"node_modules/openzeppelin-solidity/contracts/token/ERC20/ERC20.sol\":2367:2469  function symbol() public view virtual override returns (string memory) {... */\n      swap1\n      jump\t// out\n        /* \"node_modules/openzeppelin-solidity/contracts/token/ERC20/ERC20.sol\":6926:7353  function decreaseAllowance(address spender, uint256 subtractedValue) public virtual returns (bool) {... */\n    tag_122:\n        /* \"node_modules/openzeppelin-solidity/contracts/token/ERC20/ERC20.sol\":7019:7023  bool */\n      0x00\n        /* \"node_modules/openzeppelin-solidity/contracts/token/ERC20/ERC20.sol\":7035:7048  address owner */\n      dup1\n        /* \"node_modules/openzeppelin-solidity/contracts/token/ERC20/ERC20.sol\":7051:7063  _msgSender() */\n      tag_228\n        /* \"node_modules/openzeppelin-solidity/contracts/token/ERC20/ERC20.sol\":7051:7061  _msgSender */\n      tag_177\n        /* \"node_modules/openzeppelin-solidity/contracts/token/ERC20/ERC20.sol\":7051:7063  _msgSender() */\n      jump\t// in\n    tag_228:\n        /* \"node_modules/openzeppelin-solidity/contracts/token/ERC20/ERC20.sol\":7035:7063  address owner = _msgSender() */\n      swap1\n      pop\n        /* \"node_modules/openzeppelin-solidity/contracts/token/ERC20/ERC20.sol\":7073:7097  uint256 currentAllowance */\n      0x00\n        /* \"node_modules/openzeppelin-solidity/contracts/token/ERC20/ERC20.sol\":7100:7125  allowance(owner, spender) */\n      tag_229\n        /* \"node_modules/openzeppelin-solidity/contracts/token/ERC20/ERC20.sol\":7110:7115  owner */\n      dup3\n        /* \"node_modules/openzeppelin-solidity/contracts/token/ERC20/ERC20.sol\":7117:7124  spender */\n      dup7\n        /* \"node_modules/openzeppelin-solidity/contracts/token/ERC20/ERC20.sol\":7100:7109  allowance */\n      tag_144\n        /* \"node_modules/openzeppelin-solidity/contracts/token/ERC20/ERC20.sol\":7100:7125  allowance(owner, spender) */\n      jump\t// in\n    tag_229:\n        /* \"node_modules/openzeppelin-solidity/contracts/token/ERC20/ERC20.sol\":7073:7125  uint256 currentAllowance = allowance(owner, spender) */\n      swap1\n      pop\n        /* \"node_modules/openzeppelin-solidity/contracts/token/ERC20/ERC20.sol\":7163:7178  subtractedValue */\n      dup4\n        /* \"node_modules/openzeppelin-solidity/contracts/token/ERC20/ERC20.sol\":7143:7159  currentAllowance */\n      dup2\n        /* \"node_modules/openzeppelin-solidity/contracts/token/ERC20/ERC20.sol\":7143:7178  currentAllowance >= subtractedValue */\n      lt\n      iszero\n        /* \"node_modules/openzeppelin-solidity/contracts/token/ERC20/ERC20.sol\":7135:7220  require(currentAllowance >= subtractedValue, \"ERC20: decreased allowance below zero\") */\n      tag_230\n      jumpi\n      mload(0x40)\n      0x08c379a000000000000000000000000000000000000000000000000000000000\n      dup2\n      mstore\n      0x04\n      add\n      tag_231\n      swap1\n      tag_232\n      jump\t// in\n    tag_231:\n      mload(0x40)\n      dup1\n      swap2\n      sub\n      swap1\n      revert\n    tag_230:\n        /* \"node_modules/openzeppelin-solidity/contracts/token/ERC20/ERC20.sol\":7254:7314  _approve(owner, spender, currentAllowance - subtractedValue) */\n      tag_233\n        /* \"node_modules/openzeppelin-solidity/contracts/token/ERC20/ERC20.sol\":7263:7268  owner */\n      dup3\n        /* \"node_modules/openzeppelin-solidity/contracts/token/ERC20/ERC20.sol\":7270:7277  spender */\n      dup7\n        /* \"node_modules/openzeppelin-solidity/contracts/token/ERC20/ERC20.sol\":7298:7313  subtractedValue */\n      dup7\n        /* \"node_modules/openzeppelin-solidity/contracts/token/ERC20/ERC20.sol\":7279:7295  currentAllowance */\n      dup5\n        /* \"node_modules/openzeppelin-solidity/contracts/token/ERC20/ERC20.sol\":7279:7313  currentAllowance - subtractedValue */\n      sub\n        /* \"node_modules/openzeppelin-solidity/contracts/token/ERC20/ERC20.sol\":7254:7262  _approve */\n      tag_179\n        /* \"node_modules/openzeppelin-solidity/contracts/token/ERC20/ERC20.sol\":7254:7314  _approve(owner, spender, currentAllowance - subtractedValue) */\n      jump\t// in\n    tag_233:\n        /* \"node_modules/openzeppelin-solidity/contracts/token/ERC20/ERC20.sol\":7342:7346  true */\n      0x01\n        /* \"node_modules/openzeppelin-solidity/contracts/token/ERC20/ERC20.sol\":7335:7346  return true */\n      swap3\n      pop\n      pop\n      pop\n        /* \"node_modules/openzeppelin-solidity/contracts/token/ERC20/ERC20.sol\":6926:7353  function decreaseAllowance(address spender, uint256 subtractedValue) public virtual returns (bool) {... */\n      swap3\n      swap2\n      pop\n      pop\n      jump\t// out\n        /* \"node_modules/openzeppelin-solidity/contracts/token/ERC20/ERC20.sol\":3729:3918  function transfer(address to, uint256 amount) public virtual override returns (bool) {... */\n    tag_127:\n        /* \"node_modules/openzeppelin-solidity/contracts/token/ERC20/ERC20.sol\":3808:3812  bool */\n      0x00\n        /* \"node_modules/openzeppelin-solidity/contracts/token/ERC20/ERC20.sol\":3824:3837  address owner */\n      dup1\n        /* \"node_modules/openzeppelin-solidity/contracts/token/ERC20/ERC20.sol\":3840:3852  _msgSender() */\n      tag_235\n        /* \"node_modules/openzeppelin-solidity/contracts/token/ERC20/ERC20.sol\":3840:3850  _msgSender */\n      tag_177\n        /* \"node_modules/openzeppelin-solidity/contracts/token/ERC20/ERC20.sol\":3840:3852  _msgSender() */\n      jump\t// in\n    tag_235:\n        /* \"node_modules/openzeppelin-solidity/contracts/token/ERC20/ERC20.sol\":3824:3852  address owner = _msgSender() */\n      swap1\n      pop\n        /* \"node_modules/openzeppelin-solidity/contracts/token/ERC20/ERC20.sol\":3862:3890  _transfer(owner, to, amount) */\n      tag_236\n        /* \"node_modules/openzeppelin-solidity/contracts/token/ERC20/ERC20.sol\":3872:3877  owner */\n      dup2\n        /* \"node_modules/openzeppelin-solidity/contracts/token/ERC20/ERC20.sol\":3879:3881  to */\n      dup6\n        /* \"node_modules/openzeppelin-solidity/contracts/token/ERC20/ERC20.sol\":3883:3889  amount */\n      dup6\n        /* \"node_modules/openzeppelin-solidity/contracts/token/ERC20/ERC20.sol\":3862:3871  _transfer */\n      tag_200\n        /* \"node_modules/openzeppelin-solidity/contracts/token/ERC20/ERC20.sol\":3862:3890  _transfer(owner, to, amount) */\n      jump\t// in\n    tag_236:\n        /* \"node_modules/openzeppelin-solidity/contracts/token/ERC20/ERC20.sol\":3907:3911  true */\n      0x01\n        /* \"node_modules/openzeppelin-solidity/contracts/token/ERC20/ERC20.sol\":3900:3911  return true */\n      swap2\n      pop\n      pop\n        /* \"node_modules/openzeppelin-solidity/contracts/token/ERC20/ERC20.sol\":3729:3918  function transfer(address to, uint256 amount) public virtual override returns (bool) {... */\n      swap3\n      swap2\n      pop\n      pop\n      jump\t// out\n        /* \"contracts/kaiToken.sol\":477:506  string public _symbol = \"KAI\" */\n    tag_131:\n      0x07\n      dup1\n      sload\n      tag_237\n      swap1\n      tag_170\n      jump\t// in\n    tag_237:\n      dup1\n      0x1f\n      add\n      0x20\n      dup1\n      swap2\n      div\n      mul\n      0x20\n      add\n      mload(0x40)\n      swap1\n      dup2\n      add\n      0x40\n      mstore\n      dup1\n      swap3\n      swap2\n      swap1\n      dup2\n      dup2\n      mstore\n      0x20\n      add\n      dup3\n      dup1\n      sload\n      tag_238\n      swap1\n      tag_170\n      jump\t// in\n    tag_238:\n      dup1\n      iszero\n      tag_239\n      jumpi\n      dup1\n      0x1f\n      lt\n      tag_240\n      jumpi\n      0x0100\n      dup1\n      dup4\n      sload\n      div\n      mul\n      dup4\n      mstore\n      swap2\n      0x20\n      add\n      swap2\n      jump(tag_239)\n    tag_240:\n      dup3\n      add\n      swap2\n      swap1\n      0x00\n      mstore\n      keccak256(0x00, 0x20)\n      swap1\n    tag_241:\n      dup2\n      sload\n      dup2\n      mstore\n      swap1\n      0x01\n      add\n      swap1\n      0x20\n      add\n      dup1\n      dup4\n      gt\n      tag_241\n      jumpi\n      dup3\n      swap1\n      sub\n      0x1f\n      and\n      dup3\n      add\n      swap2\n    tag_239:\n      pop\n      pop\n      pop\n      pop\n      pop\n      dup2\n      jump\t// out\n        /* \"contracts/kaiToken.sol\":439:471  string public _name = \"KaiToken\" */\n    tag_135:\n      0x06\n      dup1\n      sload\n      tag_242\n      swap1\n      tag_170\n      jump\t// in\n    tag_242:\n      dup1\n      0x1f\n      add\n      0x20\n      dup1\n      swap2\n      div\n      mul\n      0x20\n      add\n      mload(0x40)\n      swap1\n      dup2\n      add\n      0x40\n      mstore\n      dup1\n      swap3\n      swap2\n      swap1\n      dup2\n      dup2\n      mstore\n      0x20\n      add\n      dup3\n      dup1\n      sload\n      tag_243\n      swap1\n      tag_170\n      jump\t// in\n    tag_243:\n      dup1\n      iszero\n      tag_244\n      jumpi\n      dup1\n      0x1f\n      lt\n      tag_245\n      jumpi\n      0x0100\n      dup1\n      dup4\n      sload\n      div\n      mul\n      dup4\n      mstore\n      swap2\n      0x20\n      add\n      swap2\n      jump(tag_244)\n    tag_245:\n      dup3\n      add\n      swap2\n      swap1\n      0x00\n      mstore\n      keccak256(0x00, 0x20)\n      swap1\n    tag_246:\n      dup2\n      sload\n      dup2\n      mstore\n      swap1\n      0x01\n      add\n      swap1\n      0x20\n      add\n      dup1\n      dup4\n      gt\n      tag_246\n      jumpi\n      dup3\n      swap1\n      sub\n      0x1f\n      and\n      dup3\n      add\n      swap2\n    tag_244:\n      pop\n      pop\n      pop\n      pop\n      pop\n      dup2\n      jump\t// out\n        /* \"node_modules/openzeppelin-solidity/contracts/token/ERC20/ERC20.sol\":4308:4457  function allowance(address owner, address spender) public view virtual override returns (uint256) {... */\n    tag_144:\n        /* \"node_modules/openzeppelin-solidity/contracts/token/ERC20/ERC20.sol\":4397:4404  uint256 */\n      0x00\n        /* \"node_modules/openzeppelin-solidity/contracts/token/ERC20/ERC20.sol\":4423:4434  _allowances */\n      0x01\n        /* \"node_modules/openzeppelin-solidity/contracts/token/ERC20/ERC20.sol\":4423:4441  _allowances[owner] */\n      0x00\n        /* \"node_modules/openzeppelin-solidity/contracts/token/ERC20/ERC20.sol\":4435:4440  owner */\n      dup5\n        /* \"node_modules/openzeppelin-solidity/contracts/token/ERC20/ERC20.sol\":4423:4441  _allowances[owner] */\n      0xffffffffffffffffffffffffffffffffffffffff\n      and\n      0xffffffffffffffffffffffffffffffffffffffff\n      and\n      dup2\n      mstore\n      0x20\n      add\n      swap1\n      dup2\n      mstore\n      0x20\n      add\n      0x00\n      keccak256\n        /* \"node_modules/openzeppelin-solidity/contracts/token/ERC20/ERC20.sol\":4423:4450  _allowances[owner][spender] */\n      0x00\n        /* \"node_modules/openzeppelin-solidity/contracts/token/ERC20/ERC20.sol\":4442:4449  spender */\n      dup4\n        /* \"node_modules/openzeppelin-solidity/contracts/token/ERC20/ERC20.sol\":4423:4450  _allowances[owner][spender] */\n      0xffffffffffffffffffffffffffffffffffffffff\n      and\n      0xffffffffffffffffffffffffffffffffffffffff\n      and\n      dup2\n      mstore\n      0x20\n      add\n      swap1\n      dup2\n      mstore\n      0x20\n      add\n      0x00\n      keccak256\n      sload\n        /* \"node_modules/openzeppelin-solidity/contracts/token/ERC20/ERC20.sol\":4416:4450  return _allowances[owner][spender] */\n      swap1\n      pop\n        /* \"node_modules/openzeppelin-solidity/contracts/token/ERC20/ERC20.sol\":4308:4457  function allowance(address owner, address spender) public view virtual override returns (uint256) {... */\n      swap3\n      swap2\n      pop\n      pop\n      jump\t// out\n        /* \"node_modules/openzeppelin-solidity/contracts/access/Ownable.sol\":1918:2116  function transferOwnership(address newOwner) public virtual onlyOwner {... */\n    tag_149:\n        /* \"node_modules/openzeppelin-solidity/contracts/access/Ownable.sol\":1259:1271  _msgSender() */\n      tag_249\n        /* \"node_modules/openzeppelin-solidity/contracts/access/Ownable.sol\":1259:1269  _msgSender */\n      tag_177\n        /* \"node_modules/openzeppelin-solidity/contracts/access/Ownable.sol\":1259:1271  _msgSender() */\n      jump\t// in\n    tag_249:\n        /* \"node_modules/openzeppelin-solidity/contracts/access/Ownable.sol\":1248:1271  owner() == _msgSender() */\n      0xffffffffffffffffffffffffffffffffffffffff\n      and\n        /* \"node_modules/openzeppelin-solidity/contracts/access/Ownable.sol\":1248:1255  owner() */\n      tag_250\n        /* \"node_modules/openzeppelin-solidity/contracts/access/Ownable.sol\":1248:1253  owner */\n      tag_37\n        /* \"node_modules/openzeppelin-solidity/contracts/access/Ownable.sol\":1248:1255  owner() */\n      jump\t// in\n    tag_250:\n        /* \"node_modules/openzeppelin-solidity/contracts/access/Ownable.sol\":1248:1271  owner() == _msgSender() */\n      0xffffffffffffffffffffffffffffffffffffffff\n      and\n      eq\n        /* \"node_modules/openzeppelin-solidity/contracts/access/Ownable.sol\":1240:1308  require(owner() == _msgSender(), \"Ownable: caller is not the owner\") */\n      tag_251\n      jumpi\n      mload(0x40)\n      0x08c379a000000000000000000000000000000000000000000000000000000000\n      dup2\n      mstore\n      0x04\n      add\n      tag_252\n      swap1\n      tag_217\n      jump\t// in\n    tag_252:\n      mload(0x40)\n      dup1\n      swap2\n      sub\n      swap1\n      revert\n    tag_251:\n        /* \"node_modules/openzeppelin-solidity/contracts/access/Ownable.sol\":2026:2027  0 */\n      0x00\n        /* \"node_modules/openzeppelin-solidity/contracts/access/Ownable.sol\":2006:2028  newOwner != address(0) */\n      0xffffffffffffffffffffffffffffffffffffffff\n      and\n        /* \"node_modules/openzeppelin-solidity/contracts/access/Ownable.sol\":2006:2014  newOwner */\n      dup2\n        /* \"node_modules/openzeppelin-solidity/contracts/access/Ownable.sol\":2006:2028  newOwner != address(0) */\n      0xffffffffffffffffffffffffffffffffffffffff\n      and\n      sub\n        /* \"node_modules/openzeppelin-solidity/contracts/access/Ownable.sol\":1998:2071  require(newOwner != address(0), \"Ownable: new owner is the zero address\") */\n      tag_254\n      jumpi\n      mload(0x40)\n      0x08c379a000000000000000000000000000000000000000000000000000000000\n      dup2\n      mstore\n      0x04\n      add\n      tag_255\n      swap1\n      tag_256\n      jump\t// in\n    tag_255:\n      mload(0x40)\n      dup1\n      swap2\n      sub\n      swap1\n      revert\n    tag_254:\n        /* \"node_modules/openzeppelin-solidity/contracts/access/Ownable.sol\":2081:2109  _transferOwnership(newOwner) */\n      tag_257\n        /* \"node_modules/openzeppelin-solidity/contracts/access/Ownable.sol\":2100:2108  newOwner */\n      dup2\n        /* \"node_modules/openzeppelin-solidity/contracts/access/Ownable.sol\":2081:2099  _transferOwnership */\n      tag_220\n        /* \"node_modules/openzeppelin-solidity/contracts/access/Ownable.sol\":2081:2109  _transferOwnership(newOwner) */\n      jump\t// in\n    tag_257:\n        /* \"node_modules/openzeppelin-solidity/contracts/access/Ownable.sol\":1918:2116  function transferOwnership(address newOwner) public virtual onlyOwner {... */\n      pop\n      jump\t// out\n        /* \"node_modules/openzeppelin-solidity/contracts/token/ERC20/ERC20.sol\":12236:12357  function _beforeTokenTransfer(... */\n    tag_162:\n      pop\n      pop\n      pop\n      jump\t// out\n        /* \"node_modules/openzeppelin-solidity/contracts/token/ERC20/ERC20.sol\":12945:13065  function _afterTokenTransfer(... */\n    tag_167:\n      pop\n      pop\n      pop\n      jump\t// out\n        /* \"node_modules/openzeppelin-solidity/contracts/utils/Context.sol\":640:736  function _msgSender() internal view virtual returns (address) {... */\n    tag_177:\n        /* \"node_modules/openzeppelin-solidity/contracts/utils/Context.sol\":693:700  address */\n      0x00\n        /* \"node_modules/openzeppelin-solidity/contracts/utils/Context.sol\":719:729  msg.sender */\n      caller\n        /* \"node_modules/openzeppelin-solidity/contracts/utils/Context.sol\":712:729  return msg.sender */\n      swap1\n      pop\n        /* \"node_modules/openzeppelin-solidity/contracts/utils/Context.sol\":640:736  function _msgSender() internal view virtual returns (address) {... */\n      swap1\n      jump\t// out\n        /* \"node_modules/openzeppelin-solidity/contracts/token/ERC20/ERC20.sol\":10560:10930  function _approve(... */\n    tag_179:\n        /* \"node_modules/openzeppelin-solidity/contracts/token/ERC20/ERC20.sol\":10708:10709  0 */\n      0x00\n        /* \"node_modules/openzeppelin-solidity/contracts/token/ERC20/ERC20.sol\":10691:10710  owner != address(0) */\n      0xffffffffffffffffffffffffffffffffffffffff\n      and\n        /* \"node_modules/openzeppelin-solidity/contracts/token/ERC20/ERC20.sol\":10691:10696  owner */\n      dup4\n        /* \"node_modules/openzeppelin-solidity/contracts/token/ERC20/ERC20.sol\":10691:10710  owner != address(0) */\n      0xffffffffffffffffffffffffffffffffffffffff\n      and\n      sub\n        /* \"node_modules/openzeppelin-solidity/contracts/token/ERC20/ERC20.sol\":10683:10751  require(owner != address(0), \"ERC20: approve from the zero address\") */\n      tag_262\n      jumpi\n      mload(0x40)\n      0x08c379a000000000000000000000000000000000000000000000000000000000\n      dup2\n      mstore\n      0x04\n      add\n      tag_263\n      swap1\n      tag_264\n      jump\t// in\n    tag_263:\n      mload(0x40)\n      dup1\n      swap2\n      sub\n      swap1\n      revert\n    tag_262:\n        /* \"node_modules/openzeppelin-solidity/contracts/token/ERC20/ERC20.sol\":10788:10789  0 */\n      0x00\n        /* \"node_modules/openzeppelin-solidity/contracts/token/ERC20/ERC20.sol\":10769:10790  spender != address(0) */\n      0xffffffffffffffffffffffffffffffffffffffff\n      and\n        /* \"node_modules/openzeppelin-solidity/contracts/token/ERC20/ERC20.sol\":10769:10776  spender */\n      dup3\n        /* \"node_modules/openzeppelin-solidity/contracts/token/ERC20/ERC20.sol\":10769:10790  spender != address(0) */\n      0xffffffffffffffffffffffffffffffffffffffff\n      and\n      sub\n        /* \"node_modules/openzeppelin-solidity/contracts/token/ERC20/ERC20.sol\":10761:10829  require(spender != address(0), \"ERC20: approve to the zero address\") */\n      tag_265\n      jumpi\n      mload(0x40)\n      0x08c379a000000000000000000000000000000000000000000000000000000000\n      dup2\n      mstore\n      0x04\n      add\n      tag_266\n      swap1\n      tag_267\n      jump\t// in\n    tag_266:\n      mload(0x40)\n      dup1\n      swap2\n      sub\n      swap1\n      revert\n    tag_265:\n        /* \"node_modules/openzeppelin-solidity/contracts/token/ERC20/ERC20.sol\":10870:10876  amount */\n      dup1\n        /* \"node_modules/openzeppelin-solidity/contracts/token/ERC20/ERC20.sol\":10840:10851  _allowances */\n      0x01\n        /* \"node_modules/openzeppelin-solidity/contracts/token/ERC20/ERC20.sol\":10840:10858  _allowances[owner] */\n      0x00\n        /* \"node_modules/openzeppelin-solidity/contracts/token/ERC20/ERC20.sol\":10852:10857  owner */\n      dup6\n        /* \"node_modules/openzeppelin-solidity/contracts/token/ERC20/ERC20.sol\":10840:10858  _allowances[owner] */\n      0xffffffffffffffffffffffffffffffffffffffff\n      and\n      0xffffffffffffffffffffffffffffffffffffffff\n      and\n      dup2\n      mstore\n      0x20\n      add\n      swap1\n      dup2\n      mstore\n      0x20\n      add\n      0x00\n      keccak256\n        /* \"node_modules/openzeppelin-solidity/contracts/token/ERC20/ERC20.sol\":10840:10867  _allowances[owner][spender] */\n      0x00\n        /* \"node_modules/openzeppelin-solidity/contracts/token/ERC20/ERC20.sol\":10859:10866  spender */\n      dup5\n        /* \"node_modules/openzeppelin-solidity/contracts/token/ERC20/ERC20.sol\":10840:10867  _allowances[owner][spender] */\n      0xffffffffffffffffffffffffffffffffffffffff\n      and\n      0xffffffffffffffffffffffffffffffffffffffff\n      and\n      dup2\n      mstore\n      0x20\n      add\n      swap1\n      dup2\n      mstore\n      0x20\n      add\n      0x00\n      keccak256\n        /* \"node_modules/openzeppelin-solidity/contracts/token/ERC20/ERC20.sol\":10840:10876  _allowances[owner][spender] = amount */\n      dup2\n      swap1\n      sstore\n      pop\n        /* \"node_modules/openzeppelin-solidity/contracts/token/ERC20/ERC20.sol\":10907:10914  spender */\n      dup2\n        /* \"node_modules/openzeppelin-solidity/contracts/token/ERC20/ERC20.sol\":10891:10923  Approval(owner, spender, amount) */\n      0xffffffffffffffffffffffffffffffffffffffff\n      and\n        /* \"node_modules/openzeppelin-solidity/contracts/token/ERC20/ERC20.sol\":10900:10905  owner */\n      dup4\n        /* \"node_modules/openzeppelin-solidity/contracts/token/ERC20/ERC20.sol\":10891:10923  Approval(owner, spender, amount) */\n      0xffffffffffffffffffffffffffffffffffffffff\n      and\n      0x8c5be1e5ebec7d5bd14f71427d1e84f3dd0314c0f7b2291e5b200ac8c7c3b925\n        /* \"node_modules/openzeppelin-solidity/contracts/token/ERC20/ERC20.sol\":10916:10922  amount */\n      dup4\n        /* \"node_modules/openzeppelin-solidity/contracts/token/ERC20/ERC20.sol\":10891:10923  Approval(owner, spender, amount) */\n      mload(0x40)\n      tag_268\n      swap2\n      swap1\n      tag_66\n      jump\t// in\n    tag_268:\n      mload(0x40)\n      dup1\n      swap2\n      sub\n      swap1\n      log3\n        /* \"node_modules/openzeppelin-solidity/contracts/token/ERC20/ERC20.sol\":10560:10930  function _approve(... */\n      pop\n      pop\n      pop\n      jump\t// out\n        /* \"node_modules/openzeppelin-solidity/contracts/token/ERC20/ERC20.sol\":11211:11652  function _spendAllowance(... */\n    tag_198:\n        /* \"node_modules/openzeppelin-solidity/contracts/token/ERC20/ERC20.sol\":11341:11365  uint256 currentAllowance */\n      0x00\n        /* \"node_modules/openzeppelin-solidity/contracts/token/ERC20/ERC20.sol\":11368:11393  allowance(owner, spender) */\n      tag_270\n        /* \"node_modules/openzeppelin-solidity/contracts/token/ERC20/ERC20.sol\":11378:11383  owner */\n      dup5\n        /* \"node_modules/openzeppelin-solidity/contracts/token/ERC20/ERC20.sol\":11385:11392  spender */\n      dup5\n        /* \"node_modules/openzeppelin-solidity/contracts/token/ERC20/ERC20.sol\":11368:11377  allowance */\n      tag_144\n        /* \"node_modules/openzeppelin-solidity/contracts/token/ERC20/ERC20.sol\":11368:11393  allowance(owner, spender) */\n      jump\t// in\n    tag_270:\n        /* \"node_modules/openzeppelin-solidity/contracts/token/ERC20/ERC20.sol\":11341:11393  uint256 currentAllowance = allowance(owner, spender) */\n      swap1\n      pop\n        /* \"node_modules/openzeppelin-solidity/contracts/token/ERC20/ERC20.sol\":11427:11444  type(uint256).max */\n      0xffffffffffffffffffffffffffffffffffffffffffffffffffffffffffffffff\n        /* \"node_modules/openzeppelin-solidity/contracts/token/ERC20/ERC20.sol\":11407:11423  currentAllowance */\n      dup2\n        /* \"node_modules/openzeppelin-solidity/contracts/token/ERC20/ERC20.sol\":11407:11444  currentAllowance != type(uint256).max */\n      eq\n        /* \"node_modules/openzeppelin-solidity/contracts/token/ERC20/ERC20.sol\":11403:11646  if (currentAllowance != type(uint256).max) {... */\n      tag_271\n      jumpi\n        /* \"node_modules/openzeppelin-solidity/contracts/token/ERC20/ERC20.sol\":11488:11494  amount */\n      dup2\n        /* \"node_modules/openzeppelin-solidity/contracts/token/ERC20/ERC20.sol\":11468:11484  currentAllowance */\n      dup2\n        /* \"node_modules/openzeppelin-solidity/contracts/token/ERC20/ERC20.sol\":11468:11494  currentAllowance >= amount */\n      lt\n      iszero\n        /* \"node_modules/openzeppelin-solidity/contracts/token/ERC20/ERC20.sol\":11460:11528  require(currentAllowance >= amount, \"ERC20: insufficient allowance\") */\n      tag_272\n      jumpi\n      mload(0x40)\n      0x08c379a000000000000000000000000000000000000000000000000000000000\n      dup2\n      mstore\n      0x04\n      add\n      tag_273\n      swap1\n      tag_274\n      jump\t// in\n    tag_273:\n      mload(0x40)\n      dup1\n      swap2\n      sub\n      swap1\n      revert\n    tag_272:\n        /* \"node_modules/openzeppelin-solidity/contracts/token/ERC20/ERC20.sol\":11570:11621  _approve(owner, spender, currentAllowance - amount) */\n      tag_275\n        /* \"node_modules/openzeppelin-solidity/contracts/token/ERC20/ERC20.sol\":11579:11584  owner */\n      dup5\n        /* \"node_modules/openzeppelin-solidity/contracts/token/ERC20/ERC20.sol\":11586:11593  spender */\n      dup5\n        /* \"node_modules/openzeppelin-solidity/contracts/token/ERC20/ERC20.sol\":11614:11620  amount */\n      dup5\n        /* \"node_modules/openzeppelin-solidity/contracts/token/ERC20/ERC20.sol\":11595:11611  currentAllowance */\n      dup5\n        /* \"node_modules/openzeppelin-solidity/contracts/token/ERC20/ERC20.sol\":11595:11620  currentAllowance - amount */\n      sub\n        /* \"node_modules/openzeppelin-solidity/contracts/token/ERC20/ERC20.sol\":11570:11578  _approve */\n      tag_179\n        /* \"node_modules/openzeppelin-solidity/contracts/token/ERC20/ERC20.sol\":11570:11621  _approve(owner, spender, currentAllowance - amount) */\n      jump\t// in\n    tag_275:\n        /* \"node_modules/openzeppelin-solidity/contracts/token/ERC20/ERC20.sol\":11403:11646  if (currentAllowance != type(uint256).max) {... */\n    tag_271:\n        /* \"node_modules/openzeppelin-solidity/contracts/token/ERC20/ERC20.sol\":11331:11652  {... */\n      pop\n        /* \"node_modules/openzeppelin-solidity/contracts/token/ERC20/ERC20.sol\":11211:11652  function _spendAllowance(... */\n      pop\n      pop\n      pop\n      jump\t// out\n        /* \"node_modules/openzeppelin-solidity/contracts/token/ERC20/ERC20.sol\":7816:8467  function _transfer(... */\n    tag_200:\n        /* \"node_modules/openzeppelin-solidity/contracts/token/ERC20/ERC20.sol\":7958:7959  0 */\n      0x00\n        /* \"node_modules/openzeppelin-solidity/contracts/token/ERC20/ERC20.sol\":7942:7960  from != address(0) */\n      0xffffffffffffffffffffffffffffffffffffffff\n      and\n        /* \"node_modules/openzeppelin-solidity/contracts/token/ERC20/ERC20.sol\":7942:7946  from */\n      dup4\n        /* \"node_modules/openzeppelin-solidity/contracts/token/ERC20/ERC20.sol\":7942:7960  from != address(0) */\n      0xffffffffffffffffffffffffffffffffffffffff\n      and\n      sub\n        /* \"node_modules/openzeppelin-solidity/contracts/token/ERC20/ERC20.sol\":7934:8002  require(from != address(0), \"ERC20: transfer from the zero address\") */\n      tag_277\n      jumpi\n      mload(0x40)\n      0x08c379a000000000000000000000000000000000000000000000000000000000\n      dup2\n      mstore\n      0x04\n      add\n      tag_278\n      swap1\n      tag_279\n      jump\t// in\n    tag_278:\n      mload(0x40)\n      dup1\n      swap2\n      sub\n      swap1\n      revert\n    tag_277:\n        /* \"node_modules/openzeppelin-solidity/contracts/token/ERC20/ERC20.sol\":8034:8035  0 */\n      0x00\n        /* \"node_modules/openzeppelin-solidity/contracts/token/ERC20/ERC20.sol\":8020:8036  to != address(0) */\n      0xffffffffffffffffffffffffffffffffffffffff\n      and\n        /* \"node_modules/openzeppelin-solidity/contracts/token/ERC20/ERC20.sol\":8020:8022  to */\n      dup3\n        /* \"node_modules/openzeppelin-solidity/contracts/token/ERC20/ERC20.sol\":8020:8036  to != address(0) */\n      0xffffffffffffffffffffffffffffffffffffffff\n      and\n      sub\n        /* \"node_modules/openzeppelin-solidity/contracts/token/ERC20/ERC20.sol\":8012:8076  require(to != address(0), \"ERC20: transfer to the zero address\") */\n      tag_280\n      jumpi\n      mload(0x40)\n      0x08c379a000000000000000000000000000000000000000000000000000000000\n      dup2\n      mstore\n      0x04\n      add\n      tag_281\n      swap1\n      tag_282\n      jump\t// in\n    tag_281:\n      mload(0x40)\n      dup1\n      swap2\n      sub\n      swap1\n      revert\n    tag_280:\n        /* \"node_modules/openzeppelin-solidity/contracts/token/ERC20/ERC20.sol\":8087:8125  _beforeTokenTransfer(from, to, amount) */\n      tag_283\n        /* \"node_modules/openzeppelin-solidity/contracts/token/ERC20/ERC20.sol\":8108:8112  from */\n      dup4\n        /* \"node_modules/openzeppelin-solidity/contracts/token/ERC20/ERC20.sol\":8114:8116  to */\n      dup4\n        /* \"node_modules/openzeppelin-solidity/contracts/token/ERC20/ERC20.sol\":8118:8124  amount */\n      dup4\n        /* \"node_modules/openzeppelin-solidity/contracts/token/ERC20/ERC20.sol\":8087:8107  _beforeTokenTransfer */\n      tag_162\n        /* \"node_modules/openzeppelin-solidity/contracts/token/ERC20/ERC20.sol\":8087:8125  _beforeTokenTransfer(from, to, amount) */\n      jump\t// in\n    tag_283:\n        /* \"node_modules/openzeppelin-solidity/contracts/token/ERC20/ERC20.sol\":8136:8155  uint256 fromBalance */\n      0x00\n        /* \"node_modules/openzeppelin-solidity/contracts/token/ERC20/ERC20.sol\":8158:8167  _balances */\n      dup1\n        /* \"node_modules/openzeppelin-solidity/contracts/token/ERC20/ERC20.sol\":8158:8173  _balances[from] */\n      0x00\n        /* \"node_modules/openzeppelin-solidity/contracts/token/ERC20/ERC20.sol\":8168:8172  from */\n      dup6\n        /* \"node_modules/openzeppelin-solidity/contracts/token/ERC20/ERC20.sol\":8158:8173  _balances[from] */\n      0xffffffffffffffffffffffffffffffffffffffff\n      and\n      0xffffffffffffffffffffffffffffffffffffffff\n      and\n      dup2\n      mstore\n      0x20\n      add\n      swap1\n      dup2\n      mstore\n      0x20\n      add\n      0x00\n      keccak256\n      sload\n        /* \"node_modules/openzeppelin-solidity/contracts/token/ERC20/ERC20.sol\":8136:8173  uint256 fromBalance = _balances[from] */\n      swap1\n      pop\n        /* \"node_modules/openzeppelin-solidity/contracts/token/ERC20/ERC20.sol\":8206:8212  amount */\n      dup2\n        /* \"node_modules/openzeppelin-solidity/contracts/token/ERC20/ERC20.sol\":8191:8202  fromBalance */\n      dup2\n        /* \"node_modules/openzeppelin-solidity/contracts/token/ERC20/ERC20.sol\":8191:8212  fromBalance >= amount */\n      lt\n      iszero\n        /* \"node_modules/openzeppelin-solidity/contracts/token/ERC20/ERC20.sol\":8183:8255  require(fromBalance >= amount, \"ERC20: transfer amount exceeds balance\") */\n      tag_284\n      jumpi\n      mload(0x40)\n      0x08c379a000000000000000000000000000000000000000000000000000000000\n      dup2\n      mstore\n      0x04\n      add\n      tag_285\n      swap1\n      tag_286\n      jump\t// in\n    tag_285:\n      mload(0x40)\n      dup1\n      swap2\n      sub\n      swap1\n      revert\n    tag_284:\n        /* \"node_modules/openzeppelin-solidity/contracts/token/ERC20/ERC20.sol\":8321:8327  amount */\n      dup2\n        /* \"node_modules/openzeppelin-solidity/contracts/token/ERC20/ERC20.sol\":8307:8318  fromBalance */\n      dup2\n        /* \"node_modules/openzeppelin-solidity/contracts/token/ERC20/ERC20.sol\":8307:8327  fromBalance - amount */\n      sub\n        /* \"node_modules/openzeppelin-solidity/contracts/token/ERC20/ERC20.sol\":8289:8298  _balances */\n      0x00\n        /* \"node_modules/openzeppelin-solidity/contracts/token/ERC20/ERC20.sol\":8289:8304  _balances[from] */\n      dup1\n        /* \"node_modules/openzeppelin-solidity/contracts/token/ERC20/ERC20.sol\":8299:8303  from */\n      dup7\n        /* \"node_modules/openzeppelin-solidity/contracts/token/ERC20/ERC20.sol\":8289:8304  _balances[from] */\n      0xffffffffffffffffffffffffffffffffffffffff\n      and\n      0xffffffffffffffffffffffffffffffffffffffff\n      and\n      dup2\n      mstore\n      0x20\n      add\n      swap1\n      dup2\n      mstore\n      0x20\n      add\n      0x00\n      keccak256\n        /* \"node_modules/openzeppelin-solidity/contracts/token/ERC20/ERC20.sol\":8289:8327  _balances[from] = fromBalance - amount */\n      dup2\n      swap1\n      sstore\n      pop\n        /* \"node_modules/openzeppelin-solidity/contracts/token/ERC20/ERC20.sol\":8364:8370  amount */\n      dup2\n        /* \"node_modules/openzeppelin-solidity/contracts/token/ERC20/ERC20.sol\":8347:8356  _balances */\n      0x00\n        /* \"node_modules/openzeppelin-solidity/contracts/token/ERC20/ERC20.sol\":8347:8360  _balances[to] */\n      dup1\n        /* \"node_modules/openzeppelin-solidity/contracts/token/ERC20/ERC20.sol\":8357:8359  to */\n      dup6\n        /* \"node_modules/openzeppelin-solidity/contracts/token/ERC20/ERC20.sol\":8347:8360  _balances[to] */\n      0xffffffffffffffffffffffffffffffffffffffff\n      and\n      0xffffffffffffffffffffffffffffffffffffffff\n      and\n      dup2\n      mstore\n      0x20\n      add\n      swap1\n      dup2\n      mstore\n      0x20\n      add\n      0x00\n      keccak256\n      0x00\n        /* \"node_modules/openzeppelin-solidity/contracts/token/ERC20/ERC20.sol\":8347:8370  _balances[to] += amount */\n      dup3\n      dup3\n      sload\n      tag_287\n      swap2\n      swap1\n      tag_156\n      jump\t// in\n    tag_287:\n      swap3\n      pop\n      pop\n      dup2\n      swap1\n      sstore\n      pop\n        /* \"node_modules/openzeppelin-solidity/contracts/token/ERC20/ERC20.sol\":8401:8403  to */\n      dup3\n        /* \"node_modules/openzeppelin-solidity/contracts/token/ERC20/ERC20.sol\":8386:8412  Transfer(from, to, amount) */\n      0xffffffffffffffffffffffffffffffffffffffff\n      and\n        /* \"node_modules/openzeppelin-solidity/contracts/token/ERC20/ERC20.sol\":8395:8399  from */\n      dup5\n        /* \"node_modules/openzeppelin-solidity/contracts/token/ERC20/ERC20.sol\":8386:8412  Transfer(from, to, amount) */\n      0xffffffffffffffffffffffffffffffffffffffff\n      and\n      0xddf252ad1be2c89b69c2b068fc378daa952ba7f163c4a11628f55a4df523b3ef\n        /* \"node_modules/openzeppelin-solidity/contracts/token/ERC20/ERC20.sol\":8405:8411  amount */\n      dup5\n        /* \"node_modules/openzeppelin-solidity/contracts/token/ERC20/ERC20.sol\":8386:8412  Transfer(from, to, amount) */\n      mload(0x40)\n      tag_288\n      swap2\n      swap1\n      tag_66\n      jump\t// in\n    tag_288:\n      mload(0x40)\n      dup1\n      swap2\n      sub\n      swap1\n      log3\n        /* \"node_modules/openzeppelin-solidity/contracts/token/ERC20/ERC20.sol\":8423:8460  _afterTokenTransfer(from, to, amount) */\n      tag_289\n        /* \"node_modules/openzeppelin-solidity/contracts/token/ERC20/ERC20.sol\":8443:8447  from */\n      dup5\n        /* \"node_modules/openzeppelin-solidity/contracts/token/ERC20/ERC20.sol\":8449:8451  to */\n      dup5\n        /* \"node_modules/openzeppelin-solidity/contracts/token/ERC20/ERC20.sol\":8453:8459  amount */\n      dup5\n        /* \"node_modules/openzeppelin-solidity/contracts/token/ERC20/ERC20.sol\":8423:8442  _afterTokenTransfer */\n      tag_167\n        /* \"node_modules/openzeppelin-solidity/contracts/token/ERC20/ERC20.sol\":8423:8460  _afterTokenTransfer(from, to, amount) */\n      jump\t// in\n    tag_289:\n        /* \"node_modules/openzeppelin-solidity/contracts/token/ERC20/ERC20.sol\":7924:8467  {... */\n      pop\n        /* \"node_modules/openzeppelin-solidity/contracts/token/ERC20/ERC20.sol\":7816:8467  function _transfer(... */\n      pop\n      pop\n      pop\n      jump\t// out\n        /* \"node_modules/openzeppelin-solidity/contracts/access/Ownable.sol\":2270:2457  function _transferOwnership(address newOwner) internal virtual {... */\n    tag_220:\n        /* \"node_modules/openzeppelin-solidity/contracts/access/Ownable.sol\":2343:2359  address oldOwner */\n      0x00\n        /* \"node_modules/openzeppelin-solidity/contracts/access/Ownable.sol\":2362:2368  _owner */\n      0x05\n      0x00\n      swap1\n      sload\n      swap1\n      0x0100\n      exp\n      swap1\n      div\n      0xffffffffffffffffffffffffffffffffffffffff\n      and\n        /* \"node_modules/openzeppelin-solidity/contracts/access/Ownable.sol\":2343:2368  address oldOwner = _owner */\n      swap1\n      pop\n        /* \"node_modules/openzeppelin-solidity/contracts/access/Ownable.sol\":2387:2395  newOwner */\n      dup2\n        /* \"node_modules/openzeppelin-solidity/contracts/access/Ownable.sol\":2378:2384  _owner */\n      0x05\n      0x00\n        /* \"node_modules/openzeppelin-solidity/contracts/access/Ownable.sol\":2378:2395  _owner = newOwner */\n      0x0100\n      exp\n      dup2\n      sload\n      dup2\n      0xffffffffffffffffffffffffffffffffffffffff\n      mul\n      not\n      and\n      swap1\n      dup4\n      0xffffffffffffffffffffffffffffffffffffffff\n      and\n      mul\n      or\n      swap1\n      sstore\n      pop\n        /* \"node_modules/openzeppelin-solidity/contracts/access/Ownable.sol\":2441:2449  newOwner */\n      dup2\n        /* \"node_modules/openzeppelin-solidity/contracts/access/Ownable.sol\":2410:2450  OwnershipTransferred(oldOwner, newOwner) */\n      0xffffffffffffffffffffffffffffffffffffffff\n      and\n        /* \"node_modules/openzeppelin-solidity/contracts/access/Ownable.sol\":2431:2439  oldOwner */\n      dup2\n        /* \"node_modules/openzeppelin-solidity/contracts/access/Ownable.sol\":2410:2450  OwnershipTransferred(oldOwner, newOwner) */\n      0xffffffffffffffffffffffffffffffffffffffff\n      and\n      0x8be0079c531659141344cd1fd0a4f28419497f9722a3daafe3b4186f6b6457e0\n      mload(0x40)\n      mload(0x40)\n      dup1\n      swap2\n      sub\n      swap1\n      log3\n        /* \"node_modules/openzeppelin-solidity/contracts/access/Ownable.sol\":2333:2457  {... */\n      pop\n        /* \"node_modules/openzeppelin-solidity/contracts/access/Ownable.sol\":2270:2457  function _transferOwnership(address newOwner) internal virtual {... */\n      pop\n      jump\t// out\n        /* \"#utility.yul\":7:176   */\n    tag_291:\n        /* \"#utility.yul\":91:102   */\n      0x00\n        /* \"#utility.yul\":125:131   */\n      dup3\n        /* \"#utility.yul\":120:123   */\n      dup3\n        /* \"#utility.yul\":113:132   */\n      mstore\n        /* \"#utility.yul\":165:169   */\n      0x20\n        /* \"#utility.yul\":160:163   */\n      dup3\n        /* \"#utility.yul\":156:170   */\n      add\n        /* \"#utility.yul\":141:170   */\n      swap1\n      pop\n        /* \"#utility.yul\":7:176   */\n      swap3\n      swap2\n      pop\n      pop\n      jump\t// out\n        /* \"#utility.yul\":182:353   */\n    tag_292:\n        /* \"#utility.yul\":322:345   */\n      0x456e7465722061206e6f6e7a65726f2076616c75650000000000000000000000\n        /* \"#utility.yul\":318:319   */\n      0x00\n        /* \"#utility.yul\":310:316   */\n      dup3\n        /* \"#utility.yul\":306:320   */\n      add\n        /* \"#utility.yul\":299:346   */\n      mstore\n        /* \"#utility.yul\":182:353   */\n      pop\n      jump\t// out\n        /* \"#utility.yul\":359:725   */\n    tag_293:\n        /* \"#utility.yul\":501:504   */\n      0x00\n        /* \"#utility.yul\":522:589   */\n      tag_347\n        /* \"#utility.yul\":586:588   */\n      0x15\n        /* \"#utility.yul\":581:584   */\n      dup4\n        /* \"#utility.yul\":522:589   */\n      tag_291\n      jump\t// in\n    tag_347:\n        /* \"#utility.yul\":515:589   */\n      swap2\n      pop\n        /* \"#utility.yul\":598:691   */\n      tag_348\n        /* \"#utility.yul\":687:690   */\n      dup3\n        /* \"#utility.yul\":598:691   */\n      tag_292\n      jump\t// in\n    tag_348:\n        /* \"#utility.yul\":716:718   */\n      0x20\n        /* \"#utility.yul\":711:714   */\n      dup3\n        /* \"#utility.yul\":707:719   */\n      add\n        /* \"#utility.yul\":700:719   */\n      swap1\n      pop\n        /* \"#utility.yul\":359:725   */\n      swap2\n      swap1\n      pop\n      jump\t// out\n        /* \"#utility.yul\":731:1150   */\n    tag_32:\n        /* \"#utility.yul\":897:901   */\n      0x00\n        /* \"#utility.yul\":935:937   */\n      0x20\n        /* \"#utility.yul\":924:933   */\n      dup3\n        /* \"#utility.yul\":920:938   */\n      add\n        /* \"#utility.yul\":912:938   */\n      swap1\n      pop\n        /* \"#utility.yul\":984:993   */\n      dup2\n        /* \"#utility.yul\":978:982   */\n      dup2\n        /* \"#utility.yul\":974:994   */\n      sub\n        /* \"#utility.yul\":970:971   */\n      0x00\n        /* \"#utility.yul\":959:968   */\n      dup4\n        /* \"#utility.yul\":955:972   */\n      add\n        /* \"#utility.yul\":948:995   */\n      mstore\n        /* \"#utility.yul\":1012:1143   */\n      tag_350\n        /* \"#utility.yul\":1138:1142   */\n      dup2\n        /* \"#utility.yul\":1012:1143   */\n      tag_293\n      jump\t// in\n    tag_350:\n        /* \"#utility.yul\":1004:1143   */\n      swap1\n      pop\n        /* \"#utility.yul\":731:1150   */\n      swap2\n      swap1\n      pop\n      jump\t// out\n        /* \"#utility.yul\":1156:1233   */\n    tag_294:\n        /* \"#utility.yul\":1193:1200   */\n      0x00\n        /* \"#utility.yul\":1222:1227   */\n      dup2\n        /* \"#utility.yul\":1211:1227   */\n      swap1\n      pop\n        /* \"#utility.yul\":1156:1233   */\n      swap2\n      swap1\n      pop\n      jump\t// out\n        /* \"#utility.yul\":1239:1419   */\n    tag_295:\n        /* \"#utility.yul\":1287:1364   */\n      0x4e487b7100000000000000000000000000000000000000000000000000000000\n        /* \"#utility.yul\":1284:1285   */\n      0x00\n        /* \"#utility.yul\":1277:1365   */\n      mstore\n        /* \"#utility.yul\":1384:1388   */\n      0x11\n        /* \"#utility.yul\":1381:1382   */\n      0x04\n        /* \"#utility.yul\":1374:1389   */\n      mstore\n        /* \"#utility.yul\":1408:1412   */\n      0x24\n        /* \"#utility.yul\":1405:1406   */\n      0x00\n        /* \"#utility.yul\":1398:1413   */\n      revert\n        /* \"#utility.yul\":1425:1835   */\n    tag_34:\n        /* \"#utility.yul\":1465:1472   */\n      0x00\n        /* \"#utility.yul\":1488:1508   */\n      tag_354\n        /* \"#utility.yul\":1506:1507   */\n      dup3\n        /* \"#utility.yul\":1488:1508   */\n      tag_294\n      jump\t// in\n    tag_354:\n        /* \"#utility.yul\":1483:1508   */\n      swap2\n      pop\n        /* \"#utility.yul\":1522:1542   */\n      tag_355\n        /* \"#utility.yul\":1540:1541   */\n      dup4\n        /* \"#utility.yul\":1522:1542   */\n      tag_294\n      jump\t// in\n    tag_355:\n        /* \"#utility.yul\":1517:1542   */\n      swap3\n      pop\n        /* \"#utility.yul\":1577:1578   */\n      dup3\n        /* \"#utility.yul\":1574:1575   */\n      dup3\n        /* \"#utility.yul\":1570:1579   */\n      mul\n        /* \"#utility.yul\":1599:1629   */\n      tag_356\n        /* \"#utility.yul\":1617:1628   */\n      dup2\n        /* \"#utility.yul\":1599:1629   */\n      tag_294\n      jump\t// in\n    tag_356:\n        /* \"#utility.yul\":1588:1629   */\n      swap2\n      pop\n        /* \"#utility.yul\":1778:1779   */\n      dup3\n        /* \"#utility.yul\":1769:1776   */\n      dup3\n        /* \"#utility.yul\":1765:1780   */\n      div\n        /* \"#utility.yul\":1762:1763   */\n      dup5\n        /* \"#utility.yul\":1759:1781   */\n      eq\n        /* \"#utility.yul\":1739:1740   */\n      dup4\n        /* \"#utility.yul\":1732:1741   */\n      iszero\n        /* \"#utility.yul\":1712:1795   */\n      or\n        /* \"#utility.yul\":1689:1828   */\n      tag_357\n      jumpi\n        /* \"#utility.yul\":1808:1826   */\n      tag_358\n      tag_295\n      jump\t// in\n    tag_358:\n        /* \"#utility.yul\":1689:1828   */\n    tag_357:\n        /* \"#utility.yul\":1473:1835   */\n      pop\n        /* \"#utility.yul\":1425:1835   */\n      swap3\n      swap2\n      pop\n      pop\n      jump\t// out\n        /* \"#utility.yul\":1841:2018   */\n    tag_296:\n        /* \"#utility.yul\":1981:2010   */\n      0x6f776e6572204b6169546f6b656e206973206e6f20616d6f756e740000000000\n        /* \"#utility.yul\":1977:1978   */\n      0x00\n        /* \"#utility.yul\":1969:1975   */\n      dup3\n        /* \"#utility.yul\":1965:1979   */\n      add\n        /* \"#utility.yul\":1958:2011   */\n      mstore\n        /* \"#utility.yul\":1841:2018   */\n      pop\n      jump\t// out\n        /* \"#utility.yul\":2024:2390   */\n    tag_297:\n        /* \"#utility.yul\":2166:2169   */\n      0x00\n        /* \"#utility.yul\":2187:2254   */\n      tag_361\n        /* \"#utility.yul\":2251:2253   */\n      0x1b\n        /* \"#utility.yul\":2246:2249   */\n      dup4\n        /* \"#utility.yul\":2187:2254   */\n      tag_291\n      jump\t// in\n    tag_361:\n        /* \"#utility.yul\":2180:2254   */\n      swap2\n      pop\n        /* \"#utility.yul\":2263:2356   */\n      tag_362\n        /* \"#utility.yul\":2352:2355   */\n      dup3\n        /* \"#utility.yul\":2263:2356   */\n      tag_296\n      jump\t// in\n    tag_362:\n        /* \"#utility.yul\":2381:2383   */\n      0x20\n        /* \"#utility.yul\":2376:2379   */\n      dup3\n        /* \"#utility.yul\":2372:2384   */\n      add\n        /* \"#utility.yul\":2365:2384   */\n      swap1\n      pop\n        /* \"#utility.yul\":2024:2390   */\n      swap2\n      swap1\n      pop\n      jump\t// out\n        /* \"#utility.yul\":2396:2815   */\n    tag_41:\n        /* \"#utility.yul\":2562:2566   */\n      0x00\n        /* \"#utility.yul\":2600:2602   */\n      0x20\n        /* \"#utility.yul\":2589:2598   */\n      dup3\n        /* \"#utility.yul\":2585:2603   */\n      add\n        /* \"#utility.yul\":2577:2603   */\n      swap1\n      pop\n        /* \"#utility.yul\":2649:2658   */\n      dup2\n        /* \"#utility.yul\":2643:2647   */\n      dup2\n        /* \"#utility.yul\":2639:2659   */\n      sub\n        /* \"#utility.yul\":2635:2636   */\n      0x00\n        /* \"#utility.yul\":2624:2633   */\n      dup4\n        /* \"#utility.yul\":2620:2637   */\n      add\n        /* \"#utility.yul\":2613:2660   */\n      mstore\n        /* \"#utility.yul\":2677:2808   */\n      tag_364\n        /* \"#utility.yul\":2803:2807   */\n      dup2\n        /* \"#utility.yul\":2677:2808   */\n      tag_297\n      jump\t// in\n    tag_364:\n        /* \"#utility.yul\":2669:2808   */\n      swap1\n      pop\n        /* \"#utility.yul\":2396:2815   */\n      swap2\n      swap1\n      pop\n      jump\t// out\n        /* \"#utility.yul\":2821:2920   */\n    tag_298:\n        /* \"#utility.yul\":2873:2879   */\n      0x00\n        /* \"#utility.yul\":2907:2912   */\n      dup2\n        /* \"#utility.yul\":2901:2913   */\n      mload\n        /* \"#utility.yul\":2891:2913   */\n      swap1\n      pop\n        /* \"#utility.yul\":2821:2920   */\n      swap2\n      swap1\n      pop\n      jump\t// out\n        /* \"#utility.yul\":2926:3172   */\n    tag_299:\n        /* \"#utility.yul\":3007:3008   */\n      0x00\n        /* \"#utility.yul\":3017:3130   */\n    tag_367:\n        /* \"#utility.yul\":3031:3037   */\n      dup4\n        /* \"#utility.yul\":3028:3029   */\n      dup2\n        /* \"#utility.yul\":3025:3038   */\n      lt\n        /* \"#utility.yul\":3017:3130   */\n      iszero\n      tag_369\n      jumpi\n        /* \"#utility.yul\":3116:3117   */\n      dup1\n        /* \"#utility.yul\":3111:3114   */\n      dup3\n        /* \"#utility.yul\":3107:3118   */\n      add\n        /* \"#utility.yul\":3101:3119   */\n      mload\n        /* \"#utility.yul\":3097:3098   */\n      dup2\n        /* \"#utility.yul\":3092:3095   */\n      dup5\n        /* \"#utility.yul\":3088:3099   */\n      add\n        /* \"#utility.yul\":3081:3120   */\n      mstore\n        /* \"#utility.yul\":3053:3055   */\n      0x20\n        /* \"#utility.yul\":3050:3051   */\n      dup2\n        /* \"#utility.yul\":3046:3056   */\n      add\n        /* \"#utility.yul\":3041:3056   */\n      swap1\n      pop\n        /* \"#utility.yul\":3017:3130   */\n      jump(tag_367)\n    tag_369:\n        /* \"#utility.yul\":3164:3165   */\n      0x00\n        /* \"#utility.yul\":3155:3161   */\n      dup5\n        /* \"#utility.yul\":3150:3153   */\n      dup5\n        /* \"#utility.yul\":3146:3162   */\n      add\n        /* \"#utility.yul\":3139:3166   */\n      mstore\n        /* \"#utility.yul\":2988:3172   */\n      pop\n        /* \"#utility.yul\":2926:3172   */\n      pop\n      pop\n      pop\n      jump\t// out\n        /* \"#utility.yul\":3178:3280   */\n    tag_300:\n        /* \"#utility.yul\":3219:3225   */\n      0x00\n        /* \"#utility.yul\":3270:3272   */\n      0x1f\n        /* \"#utility.yul\":3266:3273   */\n      not\n        /* \"#utility.yul\":3261:3263   */\n      0x1f\n        /* \"#utility.yul\":3254:3259   */\n      dup4\n        /* \"#utility.yul\":3250:3264   */\n      add\n        /* \"#utility.yul\":3246:3274   */\n      and\n        /* \"#utility.yul\":3236:3274   */\n      swap1\n      pop\n        /* \"#utility.yul\":3178:3280   */\n      swap2\n      swap1\n      pop\n      jump\t// out\n        /* \"#utility.yul\":3286:3663   */\n    tag_301:\n        /* \"#utility.yul\":3374:3377   */\n      0x00\n        /* \"#utility.yul\":3402:3441   */\n      tag_372\n        /* \"#utility.yul\":3435:3440   */\n      dup3\n        /* \"#utility.yul\":3402:3441   */\n      tag_298\n      jump\t// in\n    tag_372:\n        /* \"#utility.yul\":3457:3528   */\n      tag_373\n        /* \"#utility.yul\":3521:3527   */\n      dup2\n        /* \"#utility.yul\":3516:3519   */\n      dup6\n        /* \"#utility.yul\":3457:3528   */\n      tag_291\n      jump\t// in\n    tag_373:\n        /* \"#utility.yul\":3450:3528   */\n      swap4\n      pop\n        /* \"#utility.yul\":3537:3602   */\n      tag_374\n        /* \"#utility.yul\":3595:3601   */\n      dup2\n        /* \"#utility.yul\":3590:3593   */\n      dup6\n        /* \"#utility.yul\":3583:3587   */\n      0x20\n        /* \"#utility.yul\":3576:3581   */\n      dup7\n        /* \"#utility.yul\":3572:3588   */\n      add\n        /* \"#utility.yul\":3537:3602   */\n      tag_299\n      jump\t// in\n    tag_374:\n        /* \"#utility.yul\":3627:3656   */\n      tag_375\n        /* \"#utility.yul\":3649:3655   */\n      dup2\n        /* \"#utility.yul\":3627:3656   */\n      tag_300\n      jump\t// in\n    tag_375:\n        /* \"#utility.yul\":3622:3625   */\n      dup5\n        /* \"#utility.yul\":3618:3657   */\n      add\n        /* \"#utility.yul\":3611:3657   */\n      swap2\n      pop\n        /* \"#utility.yul\":3378:3663   */\n      pop\n        /* \"#utility.yul\":3286:3663   */\n      swap3\n      swap2\n      pop\n      pop\n      jump\t// out\n        /* \"#utility.yul\":3669:3982   */\n    tag_54:\n        /* \"#utility.yul\":3782:3786   */\n      0x00\n        /* \"#utility.yul\":3820:3822   */\n      0x20\n        /* \"#utility.yul\":3809:3818   */\n      dup3\n        /* \"#utility.yul\":3805:3823   */\n      add\n        /* \"#utility.yul\":3797:3823   */\n      swap1\n      pop\n        /* \"#utility.yul\":3869:3878   */\n      dup2\n        /* \"#utility.yul\":3863:3867   */\n      dup2\n        /* \"#utility.yul\":3859:3879   */\n      sub\n        /* \"#utility.yul\":3855:3856   */\n      0x00\n        /* \"#utility.yul\":3844:3853   */\n      dup4\n        /* \"#utility.yul\":3840:3857   */\n      add\n        /* \"#utility.yul\":3833:3880   */\n      mstore\n        /* \"#utility.yul\":3897:3975   */\n      tag_377\n        /* \"#utility.yul\":3970:3974   */\n      dup2\n        /* \"#utility.yul\":3961:3967   */\n      dup5\n        /* \"#utility.yul\":3897:3975   */\n      tag_301\n      jump\t// in\n    tag_377:\n        /* \"#utility.yul\":3889:3975   */\n      swap1\n      pop\n        /* \"#utility.yul\":3669:3982   */\n      swap3\n      swap2\n      pop\n      pop\n      jump\t// out\n        /* \"#utility.yul\":4069:4186   */\n    tag_303:\n        /* \"#utility.yul\":4178:4179   */\n      0x00\n        /* \"#utility.yul\":4175:4176   */\n      dup1\n        /* \"#utility.yul\":4168:4180   */\n      revert\n        /* \"#utility.yul\":4315:4441   */\n    tag_305:\n        /* \"#utility.yul\":4352:4359   */\n      0x00\n        /* \"#utility.yul\":4392:4434   */\n      0xffffffffffffffffffffffffffffffffffffffff\n        /* \"#utility.yul\":4385:4390   */\n      dup3\n        /* \"#utility.yul\":4381:4435   */\n      and\n        /* \"#utility.yul\":4370:4435   */\n      swap1\n      pop\n        /* \"#utility.yul\":4315:4441   */\n      swap2\n      swap1\n      pop\n      jump\t// out\n        /* \"#utility.yul\":4447:4543   */\n    tag_306:\n        /* \"#utility.yul\":4484:4491   */\n      0x00\n        /* \"#utility.yul\":4513:4537   */\n      tag_383\n        /* \"#utility.yul\":4531:4536   */\n      dup3\n        /* \"#utility.yul\":4513:4537   */\n      tag_305\n      jump\t// in\n    tag_383:\n        /* \"#utility.yul\":4502:4537   */\n      swap1\n      pop\n        /* \"#utility.yul\":4447:4543   */\n      swap2\n      swap1\n      pop\n      jump\t// out\n        /* \"#utility.yul\":4549:4671   */\n    tag_307:\n        /* \"#utility.yul\":4622:4646   */\n      tag_385\n        /* \"#utility.yul\":4640:4645   */\n      dup2\n        /* \"#utility.yul\":4622:4646   */\n      tag_306\n      jump\t// in\n    tag_385:\n        /* \"#utility.yul\":4615:4620   */\n      dup2\n        /* \"#utility.yul\":4612:4647   */\n      eq\n        /* \"#utility.yul\":4602:4665   */\n      tag_386\n      jumpi\n        /* \"#utility.yul\":4661:4662   */\n      0x00\n        /* \"#utility.yul\":4658:4659   */\n      dup1\n        /* \"#utility.yul\":4651:4663   */\n      revert\n        /* \"#utility.yul\":4602:4665   */\n    tag_386:\n        /* \"#utility.yul\":4549:4671   */\n      pop\n      jump\t// out\n        /* \"#utility.yul\":4677:4816   */\n    tag_308:\n        /* \"#utility.yul\":4723:4728   */\n      0x00\n        /* \"#utility.yul\":4761:4767   */\n      dup2\n        /* \"#utility.yul\":4748:4768   */\n      calldataload\n        /* \"#utility.yul\":4739:4768   */\n      swap1\n      pop\n        /* \"#utility.yul\":4777:4810   */\n      tag_388\n        /* \"#utility.yul\":4804:4809   */\n      dup2\n        /* \"#utility.yul\":4777:4810   */\n      tag_307\n      jump\t// in\n    tag_388:\n        /* \"#utility.yul\":4677:4816   */\n      swap3\n      swap2\n      pop\n      pop\n      jump\t// out\n        /* \"#utility.yul\":4822:4944   */\n    tag_309:\n        /* \"#utility.yul\":4895:4919   */\n      tag_390\n        /* \"#utility.yul\":4913:4918   */\n      dup2\n        /* \"#utility.yul\":4895:4919   */\n      tag_294\n      jump\t// in\n    tag_390:\n        /* \"#utility.yul\":4888:4893   */\n      dup2\n        /* \"#utility.yul\":4885:4920   */\n      eq\n        /* \"#utility.yul\":4875:4938   */\n      tag_391\n      jumpi\n        /* \"#utility.yul\":4934:4935   */\n      0x00\n        /* \"#utility.yul\":4931:4932   */\n      dup1\n        /* \"#utility.yul\":4924:4936   */\n      revert\n        /* \"#utility.yul\":4875:4938   */\n    tag_391:\n        /* \"#utility.yul\":4822:4944   */\n      pop\n      jump\t// out\n        /* \"#utility.yul\":4950:5089   */\n    tag_310:\n        /* \"#utility.yul\":4996:5001   */\n      0x00\n        /* \"#utility.yul\":5034:5040   */\n      dup2\n        /* \"#utility.yul\":5021:5041   */\n      calldataload\n        /* \"#utility.yul\":5012:5041   */\n      swap1\n      pop\n        /* \"#utility.yul\":5050:5083   */\n      tag_393\n        /* \"#utility.yul\":5077:5082   */\n      dup2\n        /* \"#utility.yul\":5050:5083   */\n      tag_309\n      jump\t// in\n    tag_393:\n        /* \"#utility.yul\":4950:5089   */\n      swap3\n      swap2\n      pop\n      pop\n      jump\t// out\n        /* \"#utility.yul\":5095:5569   */\n    tag_58:\n        /* \"#utility.yul\":5163:5169   */\n      0x00\n        /* \"#utility.yul\":5171:5177   */\n      dup1\n        /* \"#utility.yul\":5220:5222   */\n      0x40\n        /* \"#utility.yul\":5208:5217   */\n      dup4\n        /* \"#utility.yul\":5199:5206   */\n      dup6\n        /* \"#utility.yul\":5195:5218   */\n      sub\n        /* \"#utility.yul\":5191:5223   */\n      slt\n        /* \"#utility.yul\":5188:5307   */\n      iszero\n      tag_395\n      jumpi\n        /* \"#utility.yul\":5226:5305   */\n      tag_396\n      tag_303\n      jump\t// in\n    tag_396:\n        /* \"#utility.yul\":5188:5307   */\n    tag_395:\n        /* \"#utility.yul\":5346:5347   */\n      0x00\n        /* \"#utility.yul\":5371:5424   */\n      tag_397\n        /* \"#utility.yul\":5416:5423   */\n      dup6\n        /* \"#utility.yul\":5407:5413   */\n      dup3\n        /* \"#utility.yul\":5396:5405   */\n      dup7\n        /* \"#utility.yul\":5392:5414   */\n      add\n        /* \"#utility.yul\":5371:5424   */\n      tag_308\n      jump\t// in\n    tag_397:\n        /* \"#utility.yul\":5361:5424   */\n      swap3\n      pop\n        /* \"#utility.yul\":5317:5434   */\n      pop\n        /* \"#utility.yul\":5473:5475   */\n      0x20\n        /* \"#utility.yul\":5499:5552   */\n      tag_398\n        /* \"#utility.yul\":5544:5551   */\n      dup6\n        /* \"#utility.yul\":5535:5541   */\n      dup3\n        /* \"#utility.yul\":5524:5533   */\n      dup7\n        /* \"#utility.yul\":5520:5542   */\n      add\n        /* \"#utility.yul\":5499:5552   */\n      tag_310\n      jump\t// in\n    tag_398:\n        /* \"#utility.yul\":5489:5552   */\n      swap2\n      pop\n        /* \"#utility.yul\":5444:5562   */\n      pop\n        /* \"#utility.yul\":5095:5569   */\n      swap3\n      pop\n      swap3\n      swap1\n      pop\n      jump\t// out\n        /* \"#utility.yul\":5575:5665   */\n    tag_311:\n        /* \"#utility.yul\":5609:5616   */\n      0x00\n        /* \"#utility.yul\":5652:5657   */\n      dup2\n        /* \"#utility.yul\":5645:5658   */\n      iszero\n        /* \"#utility.yul\":5638:5659   */\n      iszero\n        /* \"#utility.yul\":5627:5659   */\n      swap1\n      pop\n        /* \"#utility.yul\":5575:5665   */\n      swap2\n      swap1\n      pop\n      jump\t// out\n        /* \"#utility.yul\":5671:5780   */\n    tag_312:\n        /* \"#utility.yul\":5752:5773   */\n      tag_401\n        /* \"#utility.yul\":5767:5772   */\n      dup2\n        /* \"#utility.yul\":5752:5773   */\n      tag_311\n      jump\t// in\n    tag_401:\n        /* \"#utility.yul\":5747:5750   */\n      dup3\n        /* \"#utility.yul\":5740:5774   */\n      mstore\n        /* \"#utility.yul\":5671:5780   */\n      pop\n      pop\n      jump\t// out\n        /* \"#utility.yul\":5786:5996   */\n    tag_61:\n        /* \"#utility.yul\":5873:5877   */\n      0x00\n        /* \"#utility.yul\":5911:5913   */\n      0x20\n        /* \"#utility.yul\":5900:5909   */\n      dup3\n        /* \"#utility.yul\":5896:5914   */\n      add\n        /* \"#utility.yul\":5888:5914   */\n      swap1\n      pop\n        /* \"#utility.yul\":5924:5989   */\n      tag_403\n        /* \"#utility.yul\":5986:5987   */\n      0x00\n        /* \"#utility.yul\":5975:5984   */\n      dup4\n        /* \"#utility.yul\":5971:5988   */\n      add\n        /* \"#utility.yul\":5962:5968   */\n      dup5\n        /* \"#utility.yul\":5924:5989   */\n      tag_312\n      jump\t// in\n    tag_403:\n        /* \"#utility.yul\":5786:5996   */\n      swap3\n      swap2\n      pop\n      pop\n      jump\t// out\n        /* \"#utility.yul\":6002:6120   */\n    tag_313:\n        /* \"#utility.yul\":6089:6113   */\n      tag_405\n        /* \"#utility.yul\":6107:6112   */\n      dup2\n        /* \"#utility.yul\":6089:6113   */\n      tag_294\n      jump\t// in\n    tag_405:\n        /* \"#utility.yul\":6084:6087   */\n      dup3\n        /* \"#utility.yul\":6077:6114   */\n      mstore\n        /* \"#utility.yul\":6002:6120   */\n      pop\n      pop\n      jump\t// out\n        /* \"#utility.yul\":6126:6348   */\n    tag_66:\n        /* \"#utility.yul\":6219:6223   */\n      0x00\n        /* \"#utility.yul\":6257:6259   */\n      0x20\n        /* \"#utility.yul\":6246:6255   */\n      dup3\n        /* \"#utility.yul\":6242:6260   */\n      add\n        /* \"#utility.yul\":6234:6260   */\n      swap1\n      pop\n        /* \"#utility.yul\":6270:6341   */\n      tag_407\n        /* \"#utility.yul\":6338:6339   */\n      0x00\n        /* \"#utility.yul\":6327:6336   */\n      dup4\n        /* \"#utility.yul\":6323:6340   */\n      add\n        /* \"#utility.yul\":6314:6320   */\n      dup5\n        /* \"#utility.yul\":6270:6341   */\n      tag_313\n      jump\t// in\n    tag_407:\n        /* \"#utility.yul\":6126:6348   */\n      swap3\n      swap2\n      pop\n      pop\n      jump\t// out\n        /* \"#utility.yul\":6354:6683   */\n    tag_69:\n        /* \"#utility.yul\":6413:6419   */\n      0x00\n        /* \"#utility.yul\":6462:6464   */\n      0x20\n        /* \"#utility.yul\":6450:6459   */\n      dup3\n        /* \"#utility.yul\":6441:6448   */\n      dup5\n        /* \"#utility.yul\":6437:6460   */\n      sub\n        /* \"#utility.yul\":6433:6465   */\n      slt\n        /* \"#utility.yul\":6430:6549   */\n      iszero\n      tag_409\n      jumpi\n        /* \"#utility.yul\":6468:6547   */\n      tag_410\n      tag_303\n      jump\t// in\n    tag_410:\n        /* \"#utility.yul\":6430:6549   */\n    tag_409:\n        /* \"#utility.yul\":6588:6589   */\n      0x00\n        /* \"#utility.yul\":6613:6666   */\n      tag_411\n        /* \"#utility.yul\":6658:6665   */\n      dup5\n        /* \"#utility.yul\":6649:6655   */\n      dup3\n        /* \"#utility.yul\":6638:6647   */\n      dup6\n        /* \"#utility.yul\":6634:6656   */\n      add\n        /* \"#utility.yul\":6613:6666   */\n      tag_310\n      jump\t// in\n    tag_411:\n        /* \"#utility.yul\":6603:6666   */\n      swap2\n      pop\n        /* \"#utility.yul\":6559:6676   */\n      pop\n        /* \"#utility.yul\":6354:6683   */\n      swap3\n      swap2\n      pop\n      pop\n      jump\t// out\n        /* \"#utility.yul\":6689:7308   */\n    tag_74:\n        /* \"#utility.yul\":6766:6772   */\n      0x00\n        /* \"#utility.yul\":6774:6780   */\n      dup1\n        /* \"#utility.yul\":6782:6788   */\n      0x00\n        /* \"#utility.yul\":6831:6833   */\n      0x60\n        /* \"#utility.yul\":6819:6828   */\n      dup5\n        /* \"#utility.yul\":6810:6817   */\n      dup7\n        /* \"#utility.yul\":6806:6829   */\n      sub\n        /* \"#utility.yul\":6802:6834   */\n      slt\n        /* \"#utility.yul\":6799:6918   */\n      iszero\n      tag_413\n      jumpi\n        /* \"#utility.yul\":6837:6916   */\n      tag_414\n      tag_303\n      jump\t// in\n    tag_414:\n        /* \"#utility.yul\":6799:6918   */\n    tag_413:\n        /* \"#utility.yul\":6957:6958   */\n      0x00\n        /* \"#utility.yul\":6982:7035   */\n      tag_415\n        /* \"#utility.yul\":7027:7034   */\n      dup7\n        /* \"#utility.yul\":7018:7024   */\n      dup3\n        /* \"#utility.yul\":7007:7016   */\n      dup8\n        /* \"#utility.yul\":7003:7025   */\n      add\n        /* \"#utility.yul\":6982:7035   */\n      tag_308\n      jump\t// in\n    tag_415:\n        /* \"#utility.yul\":6972:7035   */\n      swap4\n      pop\n        /* \"#utility.yul\":6928:7045   */\n      pop\n        /* \"#utility.yul\":7084:7086   */\n      0x20\n        /* \"#utility.yul\":7110:7163   */\n      tag_416\n        /* \"#utility.yul\":7155:7162   */\n      dup7\n        /* \"#utility.yul\":7146:7152   */\n      dup3\n        /* \"#utility.yul\":7135:7144   */\n      dup8\n        /* \"#utility.yul\":7131:7153   */\n      add\n        /* \"#utility.yul\":7110:7163   */\n      tag_308\n      jump\t// in\n    tag_416:\n        /* \"#utility.yul\":7100:7163   */\n      swap3\n      pop\n        /* \"#utility.yul\":7055:7173   */\n      pop\n        /* \"#utility.yul\":7212:7214   */\n      0x40\n        /* \"#utility.yul\":7238:7291   */\n      tag_417\n        /* \"#utility.yul\":7283:7290   */\n      dup7\n        /* \"#utility.yul\":7274:7280   */\n      dup3\n        /* \"#utility.yul\":7263:7272   */\n      dup8\n        /* \"#utility.yul\":7259:7281   */\n      add\n        /* \"#utility.yul\":7238:7291   */\n      tag_310\n      jump\t// in\n    tag_417:\n        /* \"#utility.yul\":7228:7291   */\n      swap2\n      pop\n        /* \"#utility.yul\":7183:7301   */\n      pop\n        /* \"#utility.yul\":6689:7308   */\n      swap3\n      pop\n      swap3\n      pop\n      swap3\n      jump\t// out\n        /* \"#utility.yul\":7314:7400   */\n    tag_314:\n        /* \"#utility.yul\":7349:7356   */\n      0x00\n        /* \"#utility.yul\":7389:7393   */\n      0xff\n        /* \"#utility.yul\":7382:7387   */\n      dup3\n        /* \"#utility.yul\":7378:7394   */\n      and\n        /* \"#utility.yul\":7367:7394   */\n      swap1\n      pop\n        /* \"#utility.yul\":7314:7400   */\n      swap2\n      swap1\n      pop\n      jump\t// out\n        /* \"#utility.yul\":7406:7518   */\n    tag_315:\n        /* \"#utility.yul\":7489:7511   */\n      tag_420\n        /* \"#utility.yul\":7505:7510   */\n      dup2\n        /* \"#utility.yul\":7489:7511   */\n      tag_314\n      jump\t// in\n    tag_420:\n        /* \"#utility.yul\":7484:7487   */\n      dup3\n        /* \"#utility.yul\":7477:7512   */\n      mstore\n        /* \"#utility.yul\":7406:7518   */\n      pop\n      pop\n      jump\t// out\n        /* \"#utility.yul\":7524:7738   */\n    tag_85:\n        /* \"#utility.yul\":7613:7617   */\n      0x00\n        /* \"#utility.yul\":7651:7653   */\n      0x20\n        /* \"#utility.yul\":7640:7649   */\n      dup3\n        /* \"#utility.yul\":7636:7654   */\n      add\n        /* \"#utility.yul\":7628:7654   */\n      swap1\n      pop\n        /* \"#utility.yul\":7664:7731   */\n      tag_422\n        /* \"#utility.yul\":7728:7729   */\n      0x00\n        /* \"#utility.yul\":7717:7726   */\n      dup4\n        /* \"#utility.yul\":7713:7730   */\n      add\n        /* \"#utility.yul\":7704:7710   */\n      dup5\n        /* \"#utility.yul\":7664:7731   */\n      tag_315\n      jump\t// in\n    tag_422:\n        /* \"#utility.yul\":7524:7738   */\n      swap3\n      swap2\n      pop\n      pop\n      jump\t// out\n        /* \"#utility.yul\":7744:8073   */\n    tag_106:\n        /* \"#utility.yul\":7803:7809   */\n      0x00\n        /* \"#utility.yul\":7852:7854   */\n      0x20\n        /* \"#utility.yul\":7840:7849   */\n      dup3\n        /* \"#utility.yul\":7831:7838   */\n      dup5\n        /* \"#utility.yul\":7827:7850   */\n      sub\n        /* \"#utility.yul\":7823:7855   */\n      slt\n        /* \"#utility.yul\":7820:7939   */\n      iszero\n      tag_424\n      jumpi\n        /* \"#utility.yul\":7858:7937   */\n      tag_425\n      tag_303\n      jump\t// in\n    tag_425:\n        /* \"#utility.yul\":7820:7939   */\n    tag_424:\n        /* \"#utility.yul\":7978:7979   */\n      0x00\n        /* \"#utility.yul\":8003:8056   */\n      tag_426\n        /* \"#utility.yul\":8048:8055   */\n      dup5\n        /* \"#utility.yul\":8039:8045   */\n      dup3\n        /* \"#utility.yul\":8028:8037   */\n      dup6\n        /* \"#utility.yul\":8024:8046   */\n      add\n        /* \"#utility.yul\":8003:8056   */\n      tag_308\n      jump\t// in\n    tag_426:\n        /* \"#utility.yul\":7993:8056   */\n      swap2\n      pop\n        /* \"#utility.yul\":7949:8066   */\n      pop\n        /* \"#utility.yul\":7744:8073   */\n      swap3\n      swap2\n      pop\n      pop\n      jump\t// out\n        /* \"#utility.yul\":8079:8197   */\n    tag_316:\n        /* \"#utility.yul\":8166:8190   */\n      tag_428\n        /* \"#utility.yul\":8184:8189   */\n      dup2\n        /* \"#utility.yul\":8166:8190   */\n      tag_306\n      jump\t// in\n    tag_428:\n        /* \"#utility.yul\":8161:8164   */\n      dup3\n        /* \"#utility.yul\":8154:8191   */\n      mstore\n        /* \"#utility.yul\":8079:8197   */\n      pop\n      pop\n      jump\t// out\n        /* \"#utility.yul\":8203:8425   */\n    tag_114:\n        /* \"#utility.yul\":8296:8300   */\n      0x00\n        /* \"#utility.yul\":8334:8336   */\n      0x20\n        /* \"#utility.yul\":8323:8332   */\n      dup3\n        /* \"#utility.yul\":8319:8337   */\n      add\n        /* \"#utility.yul\":8311:8337   */\n      swap1\n      pop\n        /* \"#utility.yul\":8347:8418   */\n      tag_430\n        /* \"#utility.yul\":8415:8416   */\n      0x00\n        /* \"#utility.yul\":8404:8413   */\n      dup4\n        /* \"#utility.yul\":8400:8417   */\n      add\n        /* \"#utility.yul\":8391:8397   */\n      dup5\n        /* \"#utility.yul\":8347:8418   */\n      tag_316\n      jump\t// in\n    tag_430:\n        /* \"#utility.yul\":8203:8425   */\n      swap3\n      swap2\n      pop\n      pop\n      jump\t// out\n        /* \"#utility.yul\":8431:8905   */\n    tag_143:\n        /* \"#utility.yul\":8499:8505   */\n      0x00\n        /* \"#utility.yul\":8507:8513   */\n      dup1\n        /* \"#utility.yul\":8556:8558   */\n      0x40\n        /* \"#utility.yul\":8544:8553   */\n      dup4\n        /* \"#utility.yul\":8535:8542   */\n      dup6\n        /* \"#utility.yul\":8531:8554   */\n      sub\n        /* \"#utility.yul\":8527:8559   */\n      slt\n        /* \"#utility.yul\":8524:8643   */\n      iszero\n      tag_432\n      jumpi\n        /* \"#utility.yul\":8562:8641   */\n      tag_433\n      tag_303\n      jump\t// in\n    tag_433:\n        /* \"#utility.yul\":8524:8643   */\n    tag_432:\n        /* \"#utility.yul\":8682:8683   */\n      0x00\n        /* \"#utility.yul\":8707:8760   */\n      tag_434\n        /* \"#utility.yul\":8752:8759   */\n      dup6\n        /* \"#utility.yul\":8743:8749   */\n      dup3\n        /* \"#utility.yul\":8732:8741   */\n      dup7\n        /* \"#utility.yul\":8728:8750   */\n      add\n        /* \"#utility.yul\":8707:8760   */\n      tag_308\n      jump\t// in\n    tag_434:\n        /* \"#utility.yul\":8697:8760   */\n      swap3\n      pop\n        /* \"#utility.yul\":8653:8770   */\n      pop\n        /* \"#utility.yul\":8809:8811   */\n      0x20\n        /* \"#utility.yul\":8835:8888   */\n      tag_435\n        /* \"#utility.yul\":8880:8887   */\n      dup6\n        /* \"#utility.yul\":8871:8877   */\n      dup3\n        /* \"#utility.yul\":8860:8869   */\n      dup7\n        /* \"#utility.yul\":8856:8878   */\n      add\n        /* \"#utility.yul\":8835:8888   */\n      tag_308\n      jump\t// in\n    tag_435:\n        /* \"#utility.yul\":8825:8888   */\n      swap2\n      pop\n        /* \"#utility.yul\":8780:8898   */\n      pop\n        /* \"#utility.yul\":8431:8905   */\n      swap3\n      pop\n      swap3\n      swap1\n      pop\n      jump\t// out\n        /* \"#utility.yul\":8911:9105   */\n    tag_154:\n        /* \"#utility.yul\":8951:8955   */\n      0x00\n        /* \"#utility.yul\":8971:8991   */\n      tag_437\n        /* \"#utility.yul\":8989:8990   */\n      dup3\n        /* \"#utility.yul\":8971:8991   */\n      tag_294\n      jump\t// in\n    tag_437:\n        /* \"#utility.yul\":8966:8991   */\n      swap2\n      pop\n        /* \"#utility.yul\":9005:9025   */\n      tag_438\n        /* \"#utility.yul\":9023:9024   */\n      dup4\n        /* \"#utility.yul\":9005:9025   */\n      tag_294\n      jump\t// in\n    tag_438:\n        /* \"#utility.yul\":9000:9025   */\n      swap3\n      pop\n        /* \"#utility.yul\":9049:9050   */\n      dup3\n        /* \"#utility.yul\":9046:9047   */\n      dup3\n        /* \"#utility.yul\":9042:9051   */\n      sub\n        /* \"#utility.yul\":9034:9051   */\n      swap1\n      pop\n        /* \"#utility.yul\":9073:9074   */\n      dup2\n        /* \"#utility.yul\":9067:9071   */\n      dup2\n        /* \"#utility.yul\":9064:9075   */\n      gt\n        /* \"#utility.yul\":9061:9098   */\n      iszero\n      tag_439\n      jumpi\n        /* \"#utility.yul\":9078:9096   */\n      tag_440\n      tag_295\n      jump\t// in\n    tag_440:\n        /* \"#utility.yul\":9061:9098   */\n    tag_439:\n        /* \"#utility.yul\":8911:9105   */\n      swap3\n      swap2\n      pop\n      pop\n      jump\t// out\n        /* \"#utility.yul\":9111:9302   */\n    tag_156:\n        /* \"#utility.yul\":9151:9154   */\n      0x00\n        /* \"#utility.yul\":9170:9190   */\n      tag_442\n        /* \"#utility.yul\":9188:9189   */\n      dup3\n        /* \"#utility.yul\":9170:9190   */\n      tag_294\n      jump\t// in\n    tag_442:\n        /* \"#utility.yul\":9165:9190   */\n      swap2\n      pop\n        /* \"#utility.yul\":9204:9224   */\n      tag_443\n        /* \"#utility.yul\":9222:9223   */\n      dup4\n        /* \"#utility.yul\":9204:9224   */\n      tag_294\n      jump\t// in\n    tag_443:\n        /* \"#utility.yul\":9199:9224   */\n      swap3\n      pop\n        /* \"#utility.yul\":9247:9248   */\n      dup3\n        /* \"#utility.yul\":9244:9245   */\n      dup3\n        /* \"#utility.yul\":9240:9249   */\n      add\n        /* \"#utility.yul\":9233:9249   */\n      swap1\n      pop\n        /* \"#utility.yul\":9268:9271   */\n      dup1\n        /* \"#utility.yul\":9265:9266   */\n      dup3\n        /* \"#utility.yul\":9262:9272   */\n      gt\n        /* \"#utility.yul\":9259:9295   */\n      iszero\n      tag_444\n      jumpi\n        /* \"#utility.yul\":9275:9293   */\n      tag_445\n      tag_295\n      jump\t// in\n    tag_445:\n        /* \"#utility.yul\":9259:9295   */\n    tag_444:\n        /* \"#utility.yul\":9111:9302   */\n      swap3\n      swap2\n      pop\n      pop\n      jump\t// out\n        /* \"#utility.yul\":9308:9489   */\n    tag_317:\n        /* \"#utility.yul\":9448:9481   */\n      0x45524332303a206d696e7420746f20746865207a65726f206164647265737300\n        /* \"#utility.yul\":9444:9445   */\n      0x00\n        /* \"#utility.yul\":9436:9442   */\n      dup3\n        /* \"#utility.yul\":9432:9446   */\n      add\n        /* \"#utility.yul\":9425:9482   */\n      mstore\n        /* \"#utility.yul\":9308:9489   */\n      pop\n      jump\t// out\n        /* \"#utility.yul\":9495:9861   */\n    tag_318:\n        /* \"#utility.yul\":9637:9640   */\n      0x00\n        /* \"#utility.yul\":9658:9725   */\n      tag_448\n        /* \"#utility.yul\":9722:9724   */\n      0x1f\n        /* \"#utility.yul\":9717:9720   */\n      dup4\n        /* \"#utility.yul\":9658:9725   */\n      tag_291\n      jump\t// in\n    tag_448:\n        /* \"#utility.yul\":9651:9725   */\n      swap2\n      pop\n        /* \"#utility.yul\":9734:9827   */\n      tag_449\n        /* \"#utility.yul\":9823:9826   */\n      dup3\n        /* \"#utility.yul\":9734:9827   */\n      tag_317\n      jump\t// in\n    tag_449:\n        /* \"#utility.yul\":9852:9854   */\n      0x20\n        /* \"#utility.yul\":9847:9850   */\n      dup3\n        /* \"#utility.yul\":9843:9855   */\n      add\n        /* \"#utility.yul\":9836:9855   */\n      swap1\n      pop\n        /* \"#utility.yul\":9495:9861   */\n      swap2\n      swap1\n      pop\n      jump\t// out\n        /* \"#utility.yul\":9867:10286   */\n    tag_160:\n        /* \"#utility.yul\":10033:10037   */\n      0x00\n        /* \"#utility.yul\":10071:10073   */\n      0x20\n        /* \"#utility.yul\":10060:10069   */\n      dup3\n        /* \"#utility.yul\":10056:10074   */\n      add\n        /* \"#utility.yul\":10048:10074   */\n      swap1\n      pop\n        /* \"#utility.yul\":10120:10129   */\n      dup2\n        /* \"#utility.yul\":10114:10118   */\n      dup2\n        /* \"#utility.yul\":10110:10130   */\n      sub\n        /* \"#utility.yul\":10106:10107   */\n      0x00\n        /* \"#utility.yul\":10095:10104   */\n      dup4\n        /* \"#utility.yul\":10091:10108   */\n      add\n        /* \"#utility.yul\":10084:10131   */\n      mstore\n        /* \"#utility.yul\":10148:10279   */\n      tag_451\n        /* \"#utility.yul\":10274:10278   */\n      dup2\n        /* \"#utility.yul\":10148:10279   */\n      tag_318\n      jump\t// in\n    tag_451:\n        /* \"#utility.yul\":10140:10279   */\n      swap1\n      pop\n        /* \"#utility.yul\":9867:10286   */\n      swap2\n      swap1\n      pop\n      jump\t// out\n        /* \"#utility.yul\":10292:10472   */\n    tag_319:\n        /* \"#utility.yul\":10340:10417   */\n      0x4e487b7100000000000000000000000000000000000000000000000000000000\n        /* \"#utility.yul\":10337:10338   */\n      0x00\n        /* \"#utility.yul\":10330:10418   */\n      mstore\n        /* \"#utility.yul\":10437:10441   */\n      0x22\n        /* \"#utility.yul\":10434:10435   */\n      0x04\n        /* \"#utility.yul\":10427:10442   */\n      mstore\n        /* \"#utility.yul\":10461:10465   */\n      0x24\n        /* \"#utility.yul\":10458:10459   */\n      0x00\n        /* \"#utility.yul\":10451:10466   */\n      revert\n        /* \"#utility.yul\":10478:10798   */\n    tag_170:\n        /* \"#utility.yul\":10522:10528   */\n      0x00\n        /* \"#utility.yul\":10559:10560   */\n      0x02\n        /* \"#utility.yul\":10553:10557   */\n      dup3\n        /* \"#utility.yul\":10549:10561   */\n      div\n        /* \"#utility.yul\":10539:10561   */\n      swap1\n      pop\n        /* \"#utility.yul\":10606:10607   */\n      0x01\n        /* \"#utility.yul\":10600:10604   */\n      dup3\n        /* \"#utility.yul\":10596:10608   */\n      and\n        /* \"#utility.yul\":10627:10645   */\n      dup1\n        /* \"#utility.yul\":10617:10698   */\n      tag_454\n      jumpi\n        /* \"#utility.yul\":10683:10687   */\n      0x7f\n        /* \"#utility.yul\":10675:10681   */\n      dup3\n        /* \"#utility.yul\":10671:10688   */\n      and\n        /* \"#utility.yul\":10661:10688   */\n      swap2\n      pop\n        /* \"#utility.yul\":10617:10698   */\n    tag_454:\n        /* \"#utility.yul\":10745:10747   */\n      0x20\n        /* \"#utility.yul\":10737:10743   */\n      dup3\n        /* \"#utility.yul\":10734:10748   */\n      lt\n        /* \"#utility.yul\":10714:10732   */\n      dup2\n        /* \"#utility.yul\":10711:10749   */\n      sub\n        /* \"#utility.yul\":10708:10792   */\n      tag_455\n      jumpi\n        /* \"#utility.yul\":10764:10782   */\n      tag_456\n      tag_319\n      jump\t// in\n    tag_456:\n        /* \"#utility.yul\":10708:10792   */\n    tag_455:\n        /* \"#utility.yul\":10529:10798   */\n      pop\n        /* \"#utility.yul\":10478:10798   */\n      swap2\n      swap1\n      pop\n      jump\t// out\n        /* \"#utility.yul\":10804:10978   */\n    tag_320:\n        /* \"#utility.yul\":10944:10970   */\n      0x796f75206675636b696e67206e6f20546f6b656e206f6b3f0000000000000000\n        /* \"#utility.yul\":10940:10941   */\n      0x00\n        /* \"#utility.yul\":10932:10938   */\n      dup3\n        /* \"#utility.yul\":10928:10942   */\n      add\n        /* \"#utility.yul\":10921:10971   */\n      mstore\n        /* \"#utility.yul\":10804:10978   */\n      pop\n      jump\t// out\n        /* \"#utility.yul\":10984:11350   */\n    tag_321:\n        /* \"#utility.yul\":11126:11129   */\n      0x00\n        /* \"#utility.yul\":11147:11214   */\n      tag_459\n        /* \"#utility.yul\":11211:11213   */\n      0x18\n        /* \"#utility.yul\":11206:11209   */\n      dup4\n        /* \"#utility.yul\":11147:11214   */\n      tag_291\n      jump\t// in\n    tag_459:\n        /* \"#utility.yul\":11140:11214   */\n      swap2\n      pop\n        /* \"#utility.yul\":11223:11316   */\n      tag_460\n        /* \"#utility.yul\":11312:11315   */\n      dup3\n        /* \"#utility.yul\":11223:11316   */\n      tag_320\n      jump\t// in\n    tag_460:\n        /* \"#utility.yul\":11341:11343   */\n      0x20\n        /* \"#utility.yul\":11336:11339   */\n      dup3\n        /* \"#utility.yul\":11332:11344   */\n      add\n        /* \"#utility.yul\":11325:11344   */\n      swap1\n      pop\n        /* \"#utility.yul\":10984:11350   */\n      swap2\n      swap1\n      pop\n      jump\t// out\n        /* \"#utility.yul\":11356:11775   */\n    tag_185:\n        /* \"#utility.yul\":11522:11526   */\n      0x00\n        /* \"#utility.yul\":11560:11562   */\n      0x20\n        /* \"#utility.yul\":11549:11558   */\n      dup3\n        /* \"#utility.yul\":11545:11563   */\n      add\n        /* \"#utility.yul\":11537:11563   */\n      swap1\n      pop\n        /* \"#utility.yul\":11609:11618   */\n      dup2\n        /* \"#utility.yul\":11603:11607   */\n      dup2\n        /* \"#utility.yul\":11599:11619   */\n      sub\n        /* \"#utility.yul\":11595:11596   */\n      0x00\n        /* \"#utility.yul\":11584:11593   */\n      dup4\n        /* \"#utility.yul\":11580:11597   */\n      add\n        /* \"#utility.yul\":11573:11620   */\n      mstore\n        /* \"#utility.yul\":11637:11768   */\n      tag_462\n        /* \"#utility.yul\":11763:11767   */\n      dup2\n        /* \"#utility.yul\":11637:11768   */\n      tag_321\n      jump\t// in\n    tag_462:\n        /* \"#utility.yul\":11629:11768   */\n      swap1\n      pop\n        /* \"#utility.yul\":11356:11775   */\n      swap2\n      swap1\n      pop\n      jump\t// out\n        /* \"#utility.yul\":11781:11961   */\n    tag_322:\n        /* \"#utility.yul\":11829:11906   */\n      0x4e487b7100000000000000000000000000000000000000000000000000000000\n        /* \"#utility.yul\":11826:11827   */\n      0x00\n        /* \"#utility.yul\":11819:11907   */\n      mstore\n        /* \"#utility.yul\":11926:11930   */\n      0x12\n        /* \"#utility.yul\":11923:11924   */\n      0x04\n        /* \"#utility.yul\":11916:11931   */\n      mstore\n        /* \"#utility.yul\":11950:11954   */\n      0x24\n        /* \"#utility.yul\":11947:11948   */\n      0x00\n        /* \"#utility.yul\":11940:11955   */\n      revert\n        /* \"#utility.yul\":11967:12152   */\n    tag_187:\n        /* \"#utility.yul\":12007:12008   */\n      0x00\n        /* \"#utility.yul\":12024:12044   */\n      tag_465\n        /* \"#utility.yul\":12042:12043   */\n      dup3\n        /* \"#utility.yul\":12024:12044   */\n      tag_294\n      jump\t// in\n    tag_465:\n        /* \"#utility.yul\":12019:12044   */\n      swap2\n      pop\n        /* \"#utility.yul\":12058:12078   */\n      tag_466\n        /* \"#utility.yul\":12076:12077   */\n      dup4\n        /* \"#utility.yul\":12058:12078   */\n      tag_294\n      jump\t// in\n    tag_466:\n        /* \"#utility.yul\":12053:12078   */\n      swap3\n      pop\n        /* \"#utility.yul\":12097:12098   */\n      dup3\n        /* \"#utility.yul\":12087:12122   */\n      tag_467\n      jumpi\n        /* \"#utility.yul\":12102:12120   */\n      tag_468\n      tag_322\n      jump\t// in\n    tag_468:\n        /* \"#utility.yul\":12087:12122   */\n    tag_467:\n        /* \"#utility.yul\":12144:12145   */\n      dup3\n        /* \"#utility.yul\":12141:12142   */\n      dup3\n        /* \"#utility.yul\":12137:12146   */\n      div\n        /* \"#utility.yul\":12132:12146   */\n      swap1\n      pop\n        /* \"#utility.yul\":11967:12152   */\n      swap3\n      swap2\n      pop\n      pop\n      jump\t// out\n        /* \"#utility.yul\":12158:12319   */\n    tag_323:\n        /* \"#utility.yul\":12298:12311   */\n      0x4341206e6f206574686572000000000000000000000000000000000000000000\n        /* \"#utility.yul\":12294:12295   */\n      0x00\n        /* \"#utility.yul\":12286:12292   */\n      dup3\n        /* \"#utility.yul\":12282:12296   */\n      add\n        /* \"#utility.yul\":12275:12312   */\n      mstore\n        /* \"#utility.yul\":12158:12319   */\n      pop\n      jump\t// out\n        /* \"#utility.yul\":12325:12691   */\n    tag_324:\n        /* \"#utility.yul\":12467:12470   */\n      0x00\n        /* \"#utility.yul\":12488:12555   */\n      tag_471\n        /* \"#utility.yul\":12552:12554   */\n      0x0b\n        /* \"#utility.yul\":12547:12550   */\n      dup4\n        /* \"#utility.yul\":12488:12555   */\n      tag_291\n      jump\t// in\n    tag_471:\n        /* \"#utility.yul\":12481:12555   */\n      swap2\n      pop\n        /* \"#utility.yul\":12564:12657   */\n      tag_472\n        /* \"#utility.yul\":12653:12656   */\n      dup3\n        /* \"#utility.yul\":12564:12657   */\n      tag_323\n      jump\t// in\n    tag_472:\n        /* \"#utility.yul\":12682:12684   */\n      0x20\n        /* \"#utility.yul\":12677:12680   */\n      dup3\n        /* \"#utility.yul\":12673:12685   */\n      add\n        /* \"#utility.yul\":12666:12685   */\n      swap1\n      pop\n        /* \"#utility.yul\":12325:12691   */\n      swap2\n      swap1\n      pop\n      jump\t// out\n        /* \"#utility.yul\":12697:13116   */\n    tag_190:\n        /* \"#utility.yul\":12863:12867   */\n      0x00\n        /* \"#utility.yul\":12901:12903   */\n      0x20\n        /* \"#utility.yul\":12890:12899   */\n      dup3\n        /* \"#utility.yul\":12886:12904   */\n      add\n        /* \"#utility.yul\":12878:12904   */\n      swap1\n      pop\n        /* \"#utility.yul\":12950:12959   */\n      dup2\n        /* \"#utility.yul\":12944:12948   */\n      dup2\n        /* \"#utility.yul\":12940:12960   */\n      sub\n        /* \"#utility.yul\":12936:12937   */\n      0x00\n        /* \"#utility.yul\":12925:12934   */\n      dup4\n        /* \"#utility.yul\":12921:12938   */\n      add\n        /* \"#utility.yul\":12914:12961   */\n      mstore\n        /* \"#utility.yul\":12978:13109   */\n      tag_474\n        /* \"#utility.yul\":13104:13108   */\n      dup2\n        /* \"#utility.yul\":12978:13109   */\n      tag_324\n      jump\t// in\n    tag_474:\n        /* \"#utility.yul\":12970:13109   */\n      swap1\n      pop\n        /* \"#utility.yul\":12697:13116   */\n      swap2\n      swap1\n      pop\n      jump\t// out\n        /* \"#utility.yul\":13122:13304   */\n    tag_325:\n        /* \"#utility.yul\":13262:13296   */\n      0x4f776e61626c653a2063616c6c6572206973206e6f7420746865206f776e6572\n        /* \"#utility.yul\":13258:13259   */\n      0x00\n        /* \"#utility.yul\":13250:13256   */\n      dup3\n        /* \"#utility.yul\":13246:13260   */\n      add\n        /* \"#utility.yul\":13239:13297   */\n      mstore\n        /* \"#utility.yul\":13122:13304   */\n      pop\n      jump\t// out\n        /* \"#utility.yul\":13310:13676   */\n    tag_326:\n        /* \"#utility.yul\":13452:13455   */\n      0x00\n        /* \"#utility.yul\":13473:13540   */\n      tag_477\n        /* \"#utility.yul\":13537:13539   */\n      0x20\n        /* \"#utility.yul\":13532:13535   */\n      dup4\n        /* \"#utility.yul\":13473:13540   */\n      tag_291\n      jump\t// in\n    tag_477:\n        /* \"#utility.yul\":13466:13540   */\n      swap2\n      pop\n        /* \"#utility.yul\":13549:13642   */\n      tag_478\n        /* \"#utility.yul\":13638:13641   */\n      dup3\n        /* \"#utility.yul\":13549:13642   */\n      tag_325\n      jump\t// in\n    tag_478:\n        /* \"#utility.yul\":13667:13669   */\n      0x20\n        /* \"#utility.yul\":13662:13665   */\n      dup3\n        /* \"#utility.yul\":13658:13670   */\n      add\n        /* \"#utility.yul\":13651:13670   */\n      swap1\n      pop\n        /* \"#utility.yul\":13310:13676   */\n      swap2\n      swap1\n      pop\n      jump\t// out\n        /* \"#utility.yul\":13682:14101   */\n    tag_217:\n        /* \"#utility.yul\":13848:13852   */\n      0x00\n        /* \"#utility.yul\":13886:13888   */\n      0x20\n        /* \"#utility.yul\":13875:13884   */\n      dup3\n        /* \"#utility.yul\":13871:13889   */\n      add\n        /* \"#utility.yul\":13863:13889   */\n      swap1\n      pop\n        /* \"#utility.yul\":13935:13944   */\n      dup2\n        /* \"#utility.yul\":13929:13933   */\n      dup2\n        /* \"#utility.yul\":13925:13945   */\n      sub\n        /* \"#utility.yul\":13921:13922   */\n      0x00\n        /* \"#utility.yul\":13910:13919   */\n      dup4\n        /* \"#utility.yul\":13906:13923   */\n      add\n        /* \"#utility.yul\":13899:13946   */\n      mstore\n        /* \"#utility.yul\":13963:14094   */\n      tag_480\n        /* \"#utility.yul\":14089:14093   */\n      dup2\n        /* \"#utility.yul\":13963:14094   */\n      tag_326\n      jump\t// in\n    tag_480:\n        /* \"#utility.yul\":13955:14094   */\n      swap1\n      pop\n        /* \"#utility.yul\":13682:14101   */\n      swap2\n      swap1\n      pop\n      jump\t// out\n        /* \"#utility.yul\":14107:14331   */\n    tag_327:\n        /* \"#utility.yul\":14247:14281   */\n      0x45524332303a2064656372656173656420616c6c6f77616e63652062656c6f77\n        /* \"#utility.yul\":14243:14244   */\n      0x00\n        /* \"#utility.yul\":14235:14241   */\n      dup3\n        /* \"#utility.yul\":14231:14245   */\n      add\n        /* \"#utility.yul\":14224:14282   */\n      mstore\n        /* \"#utility.yul\":14316:14323   */\n      0x207a65726f000000000000000000000000000000000000000000000000000000\n        /* \"#utility.yul\":14311:14313   */\n      0x20\n        /* \"#utility.yul\":14303:14309   */\n      dup3\n        /* \"#utility.yul\":14299:14314   */\n      add\n        /* \"#utility.yul\":14292:14324   */\n      mstore\n        /* \"#utility.yul\":14107:14331   */\n      pop\n      jump\t// out\n        /* \"#utility.yul\":14337:14703   */\n    tag_328:\n        /* \"#utility.yul\":14479:14482   */\n      0x00\n        /* \"#utility.yul\":14500:14567   */\n      tag_483\n        /* \"#utility.yul\":14564:14566   */\n      0x25\n        /* \"#utility.yul\":14559:14562   */\n      dup4\n        /* \"#utility.yul\":14500:14567   */\n      tag_291\n      jump\t// in\n    tag_483:\n        /* \"#utility.yul\":14493:14567   */\n      swap2\n      pop\n        /* \"#utility.yul\":14576:14669   */\n      tag_484\n        /* \"#utility.yul\":14665:14668   */\n      dup3\n        /* \"#utility.yul\":14576:14669   */\n      tag_327\n      jump\t// in\n    tag_484:\n        /* \"#utility.yul\":14694:14696   */\n      0x40\n        /* \"#utility.yul\":14689:14692   */\n      dup3\n        /* \"#utility.yul\":14685:14697   */\n      add\n        /* \"#utility.yul\":14678:14697   */\n      swap1\n      pop\n        /* \"#utility.yul\":14337:14703   */\n      swap2\n      swap1\n      pop\n      jump\t// out\n        /* \"#utility.yul\":14709:15128   */\n    tag_232:\n        /* \"#utility.yul\":14875:14879   */\n      0x00\n        /* \"#utility.yul\":14913:14915   */\n      0x20\n        /* \"#utility.yul\":14902:14911   */\n      dup3\n        /* \"#utility.yul\":14898:14916   */\n      add\n        /* \"#utility.yul\":14890:14916   */\n      swap1\n      pop\n        /* \"#utility.yul\":14962:14971   */\n      dup2\n        /* \"#utility.yul\":14956:14960   */\n      dup2\n        /* \"#utility.yul\":14952:14972   */\n      sub\n        /* \"#utility.yul\":14948:14949   */\n      0x00\n        /* \"#utility.yul\":14937:14946   */\n      dup4\n        /* \"#utility.yul\":14933:14950   */\n      add\n        /* \"#utility.yul\":14926:14973   */\n      mstore\n        /* \"#utility.yul\":14990:15121   */\n      tag_486\n        /* \"#utility.yul\":15116:15120   */\n      dup2\n        /* \"#utility.yul\":14990:15121   */\n      tag_328\n      jump\t// in\n    tag_486:\n        /* \"#utility.yul\":14982:15121   */\n      swap1\n      pop\n        /* \"#utility.yul\":14709:15128   */\n      swap2\n      swap1\n      pop\n      jump\t// out\n        /* \"#utility.yul\":15134:15359   */\n    tag_329:\n        /* \"#utility.yul\":15274:15308   */\n      0x4f776e61626c653a206e6577206f776e657220697320746865207a65726f2061\n        /* \"#utility.yul\":15270:15271   */\n      0x00\n        /* \"#utility.yul\":15262:15268   */\n      dup3\n        /* \"#utility.yul\":15258:15272   */\n      add\n        /* \"#utility.yul\":15251:15309   */\n      mstore\n        /* \"#utility.yul\":15343:15351   */\n      0x6464726573730000000000000000000000000000000000000000000000000000\n        /* \"#utility.yul\":15338:15340   */\n      0x20\n        /* \"#utility.yul\":15330:15336   */\n      dup3\n        /* \"#utility.yul\":15326:15341   */\n      add\n        /* \"#utility.yul\":15319:15352   */\n      mstore\n        /* \"#utility.yul\":15134:15359   */\n      pop\n      jump\t// out\n        /* \"#utility.yul\":15365:15731   */\n    tag_330:\n        /* \"#utility.yul\":15507:15510   */\n      0x00\n        /* \"#utility.yul\":15528:15595   */\n      tag_489\n        /* \"#utility.yul\":15592:15594   */\n      0x26\n        /* \"#utility.yul\":15587:15590   */\n      dup4\n        /* \"#utility.yul\":15528:15595   */\n      tag_291\n      jump\t// in\n    tag_489:\n        /* \"#utility.yul\":15521:15595   */\n      swap2\n      pop\n        /* \"#utility.yul\":15604:15697   */\n      tag_490\n        /* \"#utility.yul\":15693:15696   */\n      dup3\n        /* \"#utility.yul\":15604:15697   */\n      tag_329\n      jump\t// in\n    tag_490:\n        /* \"#utility.yul\":15722:15724   */\n      0x40\n        /* \"#utility.yul\":15717:15720   */\n      dup3\n        /* \"#utility.yul\":15713:15725   */\n      add\n        /* \"#utility.yul\":15706:15725   */\n      swap1\n      pop\n        /* \"#utility.yul\":15365:15731   */\n      swap2\n      swap1\n      pop\n      jump\t// out\n        /* \"#utility.yul\":15737:16156   */\n    tag_256:\n        /* \"#utility.yul\":15903:15907   */\n      0x00\n        /* \"#utility.yul\":15941:15943   */\n      0x20\n        /* \"#utility.yul\":15930:15939   */\n      dup3\n        /* \"#utility.yul\":15926:15944   */\n      add\n        /* \"#utility.yul\":15918:15944   */\n      swap1\n      pop\n        /* \"#utility.yul\":15990:15999   */\n      dup2\n        /* \"#utility.yul\":15984:15988   */\n      dup2\n        /* \"#utility.yul\":15980:16000   */\n      sub\n        /* \"#utility.yul\":15976:15977   */\n      0x00\n        /* \"#utility.yul\":15965:15974   */\n      dup4\n        /* \"#utility.yul\":15961:15978   */\n      add\n        /* \"#utility.yul\":15954:16001   */\n      mstore\n        /* \"#utility.yul\":16018:16149   */\n      tag_492\n        /* \"#utility.yul\":16144:16148   */\n      dup2\n        /* \"#utility.yul\":16018:16149   */\n      tag_330\n      jump\t// in\n    tag_492:\n        /* \"#utility.yul\":16010:16149   */\n      swap1\n      pop\n        /* \"#utility.yul\":15737:16156   */\n      swap2\n      swap1\n      pop\n      jump\t// out\n        /* \"#utility.yul\":16162:16385   */\n    tag_331:\n        /* \"#utility.yul\":16302:16336   */\n      0x45524332303a20617070726f76652066726f6d20746865207a65726f20616464\n        /* \"#utility.yul\":16298:16299   */\n      0x00\n        /* \"#utility.yul\":16290:16296   */\n      dup3\n        /* \"#utility.yul\":16286:16300   */\n      add\n        /* \"#utility.yul\":16279:16337   */\n      mstore\n        /* \"#utility.yul\":16371:16377   */\n      0x7265737300000000000000000000000000000000000000000000000000000000\n        /* \"#utility.yul\":16366:16368   */\n      0x20\n        /* \"#utility.yul\":16358:16364   */\n      dup3\n        /* \"#utility.yul\":16354:16369   */\n      add\n        /* \"#utility.yul\":16347:16378   */\n      mstore\n        /* \"#utility.yul\":16162:16385   */\n      pop\n      jump\t// out\n        /* \"#utility.yul\":16391:16757   */\n    tag_332:\n        /* \"#utility.yul\":16533:16536   */\n      0x00\n        /* \"#utility.yul\":16554:16621   */\n      tag_495\n        /* \"#utility.yul\":16618:16620   */\n      0x24\n        /* \"#utility.yul\":16613:16616   */\n      dup4\n        /* \"#utility.yul\":16554:16621   */\n      tag_291\n      jump\t// in\n    tag_495:\n        /* \"#utility.yul\":16547:16621   */\n      swap2\n      pop\n        /* \"#utility.yul\":16630:16723   */\n      tag_496\n        /* \"#utility.yul\":16719:16722   */\n      dup3\n        /* \"#utility.yul\":16630:16723   */\n      tag_331\n      jump\t// in\n    tag_496:\n        /* \"#utility.yul\":16748:16750   */\n      0x40\n        /* \"#utility.yul\":16743:16746   */\n      dup3\n        /* \"#utility.yul\":16739:16751   */\n      add\n        /* \"#utility.yul\":16732:16751   */\n      swap1\n      pop\n        /* \"#utility.yul\":16391:16757   */\n      swap2\n      swap1\n      pop\n      jump\t// out\n        /* \"#utility.yul\":16763:17182   */\n    tag_264:\n        /* \"#utility.yul\":16929:16933   */\n      0x00\n        /* \"#utility.yul\":16967:16969   */\n      0x20\n        /* \"#utility.yul\":16956:16965   */\n      dup3\n        /* \"#utility.yul\":16952:16970   */\n      add\n        /* \"#utility.yul\":16944:16970   */\n      swap1\n      pop\n        /* \"#utility.yul\":17016:17025   */\n      dup2\n        /* \"#utility.yul\":17010:17014   */\n      dup2\n        /* \"#utility.yul\":17006:17026   */\n      sub\n        /* \"#utility.yul\":17002:17003   */\n      0x00\n        /* \"#utility.yul\":16991:17000   */\n      dup4\n        /* \"#utility.yul\":16987:17004   */\n      add\n        /* \"#utility.yul\":16980:17027   */\n      mstore\n        /* \"#utility.yul\":17044:17175   */\n      tag_498\n        /* \"#utility.yul\":17170:17174   */\n      dup2\n        /* \"#utility.yul\":17044:17175   */\n      tag_332\n      jump\t// in\n    tag_498:\n        /* \"#utility.yul\":17036:17175   */\n      swap1\n      pop\n        /* \"#utility.yul\":16763:17182   */\n      swap2\n      swap1\n      pop\n      jump\t// out\n        /* \"#utility.yul\":17188:17409   */\n    tag_333:\n        /* \"#utility.yul\":17328:17362   */\n      0x45524332303a20617070726f766520746f20746865207a65726f206164647265\n        /* \"#utility.yul\":17324:17325   */\n      0x00\n        /* \"#utility.yul\":17316:17322   */\n      dup3\n        /* \"#utility.yul\":17312:17326   */\n      add\n        /* \"#utility.yul\":17305:17363   */\n      mstore\n        /* \"#utility.yul\":17397:17401   */\n      0x7373000000000000000000000000000000000000000000000000000000000000\n        /* \"#utility.yul\":17392:17394   */\n      0x20\n        /* \"#utility.yul\":17384:17390   */\n      dup3\n        /* \"#utility.yul\":17380:17395   */\n      add\n        /* \"#utility.yul\":17373:17402   */\n      mstore\n        /* \"#utility.yul\":17188:17409   */\n      pop\n      jump\t// out\n        /* \"#utility.yul\":17415:17781   */\n    tag_334:\n        /* \"#utility.yul\":17557:17560   */\n      0x00\n        /* \"#utility.yul\":17578:17645   */\n      tag_501\n        /* \"#utility.yul\":17642:17644   */\n      0x22\n        /* \"#utility.yul\":17637:17640   */\n      dup4\n        /* \"#utility.yul\":17578:17645   */\n      tag_291\n      jump\t// in\n    tag_501:\n        /* \"#utility.yul\":17571:17645   */\n      swap2\n      pop\n        /* \"#utility.yul\":17654:17747   */\n      tag_502\n        /* \"#utility.yul\":17743:17746   */\n      dup3\n        /* \"#utility.yul\":17654:17747   */\n      tag_333\n      jump\t// in\n    tag_502:\n        /* \"#utility.yul\":17772:17774   */\n      0x40\n        /* \"#utility.yul\":17767:17770   */\n      dup3\n        /* \"#utility.yul\":17763:17775   */\n      add\n        /* \"#utility.yul\":17756:17775   */\n      swap1\n      pop\n        /* \"#utility.yul\":17415:17781   */\n      swap2\n      swap1\n      pop\n      jump\t// out\n        /* \"#utility.yul\":17787:18206   */\n    tag_267:\n        /* \"#utility.yul\":17953:17957   */\n      0x00\n        /* \"#utility.yul\":17991:17993   */\n      0x20\n        /* \"#utility.yul\":17980:17989   */\n      dup3\n        /* \"#utility.yul\":17976:17994   */\n      add\n        /* \"#utility.yul\":17968:17994   */\n      swap1\n      pop\n        /* \"#utility.yul\":18040:18049   */\n      dup2\n        /* \"#utility.yul\":18034:18038   */\n      dup2\n        /* \"#utility.yul\":18030:18050   */\n      sub\n        /* \"#utility.yul\":18026:18027   */\n      0x00\n        /* \"#utility.yul\":18015:18024   */\n      dup4\n        /* \"#utility.yul\":18011:18028   */\n      add\n        /* \"#utility.yul\":18004:18051   */\n      mstore\n        /* \"#utility.yul\":18068:18199   */\n      tag_504\n        /* \"#utility.yul\":18194:18198   */\n      dup2\n        /* \"#utility.yul\":18068:18199   */\n      tag_334\n      jump\t// in\n    tag_504:\n        /* \"#utility.yul\":18060:18199   */\n      swap1\n      pop\n        /* \"#utility.yul\":17787:18206   */\n      swap2\n      swap1\n      pop\n      jump\t// out\n        /* \"#utility.yul\":18212:18391   */\n    tag_335:\n        /* \"#utility.yul\":18352:18383   */\n      0x45524332303a20696e73756666696369656e7420616c6c6f77616e6365000000\n        /* \"#utility.yul\":18348:18349   */\n      0x00\n        /* \"#utility.yul\":18340:18346   */\n      dup3\n        /* \"#utility.yul\":18336:18350   */\n      add\n        /* \"#utility.yul\":18329:18384   */\n      mstore\n        /* \"#utility.yul\":18212:18391   */\n      pop\n      jump\t// out\n        /* \"#utility.yul\":18397:18763   */\n    tag_336:\n        /* \"#utility.yul\":18539:18542   */\n      0x00\n        /* \"#utility.yul\":18560:18627   */\n      tag_507\n        /* \"#utility.yul\":18624:18626   */\n      0x1d\n        /* \"#utility.yul\":18619:18622   */\n      dup4\n        /* \"#utility.yul\":18560:18627   */\n      tag_291\n      jump\t// in\n    tag_507:\n        /* \"#utility.yul\":18553:18627   */\n      swap2\n      pop\n        /* \"#utility.yul\":18636:18729   */\n      tag_508\n        /* \"#utility.yul\":18725:18728   */\n      dup3\n        /* \"#utility.yul\":18636:18729   */\n      tag_335\n      jump\t// in\n    tag_508:\n        /* \"#utility.yul\":18754:18756   */\n      0x20\n        /* \"#utility.yul\":18749:18752   */\n      dup3\n        /* \"#utility.yul\":18745:18757   */\n      add\n        /* \"#utility.yul\":18738:18757   */\n      swap1\n      pop\n        /* \"#utility.yul\":18397:18763   */\n      swap2\n      swap1\n      pop\n      jump\t// out\n        /* \"#utility.yul\":18769:19188   */\n    tag_274:\n        /* \"#utility.yul\":18935:18939   */\n      0x00\n        /* \"#utility.yul\":18973:18975   */\n      0x20\n        /* \"#utility.yul\":18962:18971   */\n      dup3\n        /* \"#utility.yul\":18958:18976   */\n      add\n        /* \"#utility.yul\":18950:18976   */\n      swap1\n      pop\n        /* \"#utility.yul\":19022:19031   */\n      dup2\n        /* \"#utility.yul\":19016:19020   */\n      dup2\n        /* \"#utility.yul\":19012:19032   */\n      sub\n        /* \"#utility.yul\":19008:19009   */\n      0x00\n        /* \"#utility.yul\":18997:19006   */\n      dup4\n        /* \"#utility.yul\":18993:19010   */\n      add\n        /* \"#utility.yul\":18986:19033   */\n      mstore\n        /* \"#utility.yul\":19050:19181   */\n      tag_510\n        /* \"#utility.yul\":19176:19180   */\n      dup2\n        /* \"#utility.yul\":19050:19181   */\n      tag_336\n      jump\t// in\n    tag_510:\n        /* \"#utility.yul\":19042:19181   */\n      swap1\n      pop\n        /* \"#utility.yul\":18769:19188   */\n      swap2\n      swap1\n      pop\n      jump\t// out\n        /* \"#utility.yul\":19194:19418   */\n    tag_337:\n        /* \"#utility.yul\":19334:19368   */\n      0x45524332303a207472616e736665722066726f6d20746865207a65726f206164\n        /* \"#utility.yul\":19330:19331   */\n      0x00\n        /* \"#utility.yul\":19322:19328   */\n      dup3\n        /* \"#utility.yul\":19318:19332   */\n      add\n        /* \"#utility.yul\":19311:19369   */\n      mstore\n        /* \"#utility.yul\":19403:19410   */\n      0x6472657373000000000000000000000000000000000000000000000000000000\n        /* \"#utility.yul\":19398:19400   */\n      0x20\n        /* \"#utility.yul\":19390:19396   */\n      dup3\n        /* \"#utility.yul\":19386:19401   */\n      add\n        /* \"#utility.yul\":19379:19411   */\n      mstore\n        /* \"#utility.yul\":19194:19418   */\n      pop\n      jump\t// out\n        /* \"#utility.yul\":19424:19790   */\n    tag_338:\n        /* \"#utility.yul\":19566:19569   */\n      0x00\n        /* \"#utility.yul\":19587:19654   */\n      tag_513\n        /* \"#utility.yul\":19651:19653   */\n      0x25\n        /* \"#utility.yul\":19646:19649   */\n      dup4\n        /* \"#utility.yul\":19587:19654   */\n      tag_291\n      jump\t// in\n    tag_513:\n        /* \"#utility.yul\":19580:19654   */\n      swap2\n      pop\n        /* \"#utility.yul\":19663:19756   */\n      tag_514\n        /* \"#utility.yul\":19752:19755   */\n      dup3\n        /* \"#utility.yul\":19663:19756   */\n      tag_337\n      jump\t// in\n    tag_514:\n        /* \"#utility.yul\":19781:19783   */\n      0x40\n        /* \"#utility.yul\":19776:19779   */\n      dup3\n        /* \"#utility.yul\":19772:19784   */\n      add\n        /* \"#utility.yul\":19765:19784   */\n      swap1\n      pop\n        /* \"#utility.yul\":19424:19790   */\n      swap2\n      swap1\n      pop\n      jump\t// out\n        /* \"#utility.yul\":19796:20215   */\n    tag_279:\n        /* \"#utility.yul\":19962:19966   */\n      0x00\n        /* \"#utility.yul\":20000:20002   */\n      0x20\n        /* \"#utility.yul\":19989:19998   */\n      dup3\n        /* \"#utility.yul\":19985:20003   */\n      add\n        /* \"#utility.yul\":19977:20003   */\n      swap1\n      pop\n        /* \"#utility.yul\":20049:20058   */\n      dup2\n        /* \"#utility.yul\":20043:20047   */\n      dup2\n        /* \"#utility.yul\":20039:20059   */\n      sub\n        /* \"#utility.yul\":20035:20036   */\n      0x00\n        /* \"#utility.yul\":20024:20033   */\n      dup4\n        /* \"#utility.yul\":20020:20037   */\n      add\n        /* \"#utility.yul\":20013:20060   */\n      mstore\n        /* \"#utility.yul\":20077:20208   */\n      tag_516\n        /* \"#utility.yul\":20203:20207   */\n      dup2\n        /* \"#utility.yul\":20077:20208   */\n      tag_338\n      jump\t// in\n    tag_516:\n        /* \"#utility.yul\":20069:20208   */\n      swap1\n      pop\n        /* \"#utility.yul\":19796:20215   */\n      swap2\n      swap1\n      pop\n      jump\t// out\n        /* \"#utility.yul\":20221:20443   */\n    tag_339:\n        /* \"#utility.yul\":20361:20395   */\n      0x45524332303a207472616e7366657220746f20746865207a65726f2061646472\n        /* \"#utility.yul\":20357:20358   */\n      0x00\n        /* \"#utility.yul\":20349:20355   */\n      dup3\n        /* \"#utility.yul\":20345:20359   */\n      add\n        /* \"#utility.yul\":20338:20396   */\n      mstore\n        /* \"#utility.yul\":20430:20435   */\n      0x6573730000000000000000000000000000000000000000000000000000000000\n        /* \"#utility.yul\":20425:20427   */\n      0x20\n        /* \"#utility.yul\":20417:20423   */\n      dup3\n        /* \"#utility.yul\":20413:20428   */\n      add\n        /* \"#utility.yul\":20406:20436   */\n      mstore\n        /* \"#utility.yul\":20221:20443   */\n      pop\n      jump\t// out\n        /* \"#utility.yul\":20449:20815   */\n    tag_340:\n        /* \"#utility.yul\":20591:20594   */\n      0x00\n        /* \"#utility.yul\":20612:20679   */\n      tag_519\n        /* \"#utility.yul\":20676:20678   */\n      0x23\n        /* \"#utility.yul\":20671:20674   */\n      dup4\n        /* \"#utility.yul\":20612:20679   */\n      tag_291\n      jump\t// in\n    tag_519:\n        /* \"#utility.yul\":20605:20679   */\n      swap2\n      pop\n        /* \"#utility.yul\":20688:20781   */\n      tag_520\n        /* \"#utility.yul\":20777:20780   */\n      dup3\n        /* \"#utility.yul\":20688:20781   */\n      tag_339\n      jump\t// in\n    tag_520:\n        /* \"#utility.yul\":20806:20808   */\n      0x40\n        /* \"#utility.yul\":20801:20804   */\n      dup3\n        /* \"#utility.yul\":20797:20809   */\n      add\n        /* \"#utility.yul\":20790:20809   */\n      swap1\n      pop\n        /* \"#utility.yul\":20449:20815   */\n      swap2\n      swap1\n      pop\n      jump\t// out\n        /* \"#utility.yul\":20821:21240   */\n    tag_282:\n        /* \"#utility.yul\":20987:20991   */\n      0x00\n        /* \"#utility.yul\":21025:21027   */\n      0x20\n        /* \"#utility.yul\":21014:21023   */\n      dup3\n        /* \"#utility.yul\":21010:21028   */\n      add\n        /* \"#utility.yul\":21002:21028   */\n      swap1\n      pop\n        /* \"#utility.yul\":21074:21083   */\n      dup2\n        /* \"#utility.yul\":21068:21072   */\n      dup2\n        /* \"#utility.yul\":21064:21084   */\n      sub\n        /* \"#utility.yul\":21060:21061   */\n      0x00\n        /* \"#utility.yul\":21049:21058   */\n      dup4\n        /* \"#utility.yul\":21045:21062   */\n      add\n        /* \"#utility.yul\":21038:21085   */\n      mstore\n        /* \"#utility.yul\":21102:21233   */\n      tag_522\n        /* \"#utility.yul\":21228:21232   */\n      dup2\n        /* \"#utility.yul\":21102:21233   */\n      tag_340\n      jump\t// in\n    tag_522:\n        /* \"#utility.yul\":21094:21233   */\n      swap1\n      pop\n        /* \"#utility.yul\":20821:21240   */\n      swap2\n      swap1\n      pop\n      jump\t// out\n        /* \"#utility.yul\":21246:21471   */\n    tag_341:\n        /* \"#utility.yul\":21386:21420   */\n      0x45524332303a207472616e7366657220616d6f756e7420657863656564732062\n        /* \"#utility.yul\":21382:21383   */\n      0x00\n        /* \"#utility.yul\":21374:21380   */\n      dup3\n        /* \"#utility.yul\":21370:21384   */\n      add\n        /* \"#utility.yul\":21363:21421   */\n      mstore\n        /* \"#utility.yul\":21455:21463   */\n      0x616c616e63650000000000000000000000000000000000000000000000000000\n        /* \"#utility.yul\":21450:21452   */\n      0x20\n        /* \"#utility.yul\":21442:21448   */\n      dup3\n        /* \"#utility.yul\":21438:21453   */\n      add\n        /* \"#utility.yul\":21431:21464   */\n      mstore\n        /* \"#utility.yul\":21246:21471   */\n      pop\n      jump\t// out\n        /* \"#utility.yul\":21477:21843   */\n    tag_342:\n        /* \"#utility.yul\":21619:21622   */\n      0x00\n        /* \"#utility.yul\":21640:21707   */\n      tag_525\n        /* \"#utility.yul\":21704:21706   */\n      0x26\n        /* \"#utility.yul\":21699:21702   */\n      dup4\n        /* \"#utility.yul\":21640:21707   */\n      tag_291\n      jump\t// in\n    tag_525:\n        /* \"#utility.yul\":21633:21707   */\n      swap2\n      pop\n        /* \"#utility.yul\":21716:21809   */\n      tag_526\n        /* \"#utility.yul\":21805:21808   */\n      dup3\n        /* \"#utility.yul\":21716:21809   */\n      tag_341\n      jump\t// in\n    tag_526:\n        /* \"#utility.yul\":21834:21836   */\n      0x40\n        /* \"#utility.yul\":21829:21832   */\n      dup3\n        /* \"#utility.yul\":21825:21837   */\n      add\n        /* \"#utility.yul\":21818:21837   */\n      swap1\n      pop\n        /* \"#utility.yul\":21477:21843   */\n      swap2\n      swap1\n      pop\n      jump\t// out\n        /* \"#utility.yul\":21849:22268   */\n    tag_286:\n        /* \"#utility.yul\":22015:22019   */\n      0x00\n        /* \"#utility.yul\":22053:22055   */\n      0x20\n        /* \"#utility.yul\":22042:22051   */\n      dup3\n        /* \"#utility.yul\":22038:22056   */\n      add\n        /* \"#utility.yul\":22030:22056   */\n      swap1\n      pop\n        /* \"#utility.yul\":22102:22111   */\n      dup2\n        /* \"#utility.yul\":22096:22100   */\n      dup2\n        /* \"#utility.yul\":22092:22112   */\n      sub\n        /* \"#utility.yul\":22088:22089   */\n      0x00\n        /* \"#utility.yul\":22077:22086   */\n      dup4\n        /* \"#utility.yul\":22073:22090   */\n      add\n        /* \"#utility.yul\":22066:22113   */\n      mstore\n        /* \"#utility.yul\":22130:22261   */\n      tag_528\n        /* \"#utility.yul\":22256:22260   */\n      dup2\n        /* \"#utility.yul\":22130:22261   */\n      tag_342\n      jump\t// in\n    tag_528:\n        /* \"#utility.yul\":22122:22261   */\n      swap1\n      pop\n        /* \"#utility.yul\":21849:22268   */\n      swap2\n      swap1\n      pop\n      jump\t// out\n\n    auxdata: 0xa2646970667358221220778f6085016b6f4467b06f293f767b7a8a39ff7252bc58db52306affb33a5d3a64736f6c63430008110033\n}\n",
				"bytecode": {
					"linkReferences": {},
					"object": "60806040526040518060400160405280600881526020017f4b6169546f6b656e000000000000000000000000000000000000000000000000815250600690816200004a91906200079f565b506040518060400160405280600381526020017f4b41490000000000000000000000000000000000000000000000000000000000815250600790816200009191906200079f565b50620000a26200028c60201b60201c565b600a620000b0919062000a16565b612710620000bf919062000a67565b6008556064600955348015620000d457600080fd5b5060068054620000e4906200058e565b80601f016020809104026020016040519081016040528092919081815260200182805462000112906200058e565b8015620001635780601f10620001375761010080835404028352916020019162000163565b820191906000526020600020905b8154815290600101906020018083116200014557829003601f168201915b50505050506007805462000177906200058e565b80601f0160208091040260200160405190810160405280929190818152602001828054620001a5906200058e565b8015620001f65780601f10620001ca57610100808354040283529160200191620001f6565b820191906000526020600020905b815481529060010190602001808311620001d857829003601f168201915b505050505081600390816200020c91906200079f565b5080600490816200021e91906200079f565b50505062000241620002356200029560201b60201c565b6200029d60201b60201c565b6006808162000251919062000adf565b506007808162000262919062000adf565b5062000286620002776200036360201b60201c565b6008546200038d60201b60201c565b62000ccc565b60006012905090565b600033905090565b6000600560009054906101000a900473ffffffffffffffffffffffffffffffffffffffff16905081600560006101000a81548173ffffffffffffffffffffffffffffffffffffffff021916908373ffffffffffffffffffffffffffffffffffffffff1602179055508173ffffffffffffffffffffffffffffffffffffffff168173ffffffffffffffffffffffffffffffffffffffff167f8be0079c531659141344cd1fd0a4f28419497f9722a3daafe3b4186f6b6457e060405160405180910390a35050565b6000600560009054906101000a900473ffffffffffffffffffffffffffffffffffffffff16905090565b6200039f8282620003a360201b60201c565b5050565b600073ffffffffffffffffffffffffffffffffffffffff168273ffffffffffffffffffffffffffffffffffffffff160362000415576040517f08c379a00000000000000000000000000000000000000000000000000000000081526004016200040c9062000c41565b60405180910390fd5b62000429600083836200051b60201b60201c565b80600260008282546200043d919062000c63565b92505081905550806000808473ffffffffffffffffffffffffffffffffffffffff1673ffffffffffffffffffffffffffffffffffffffff168152602001908152602001600020600082825462000494919062000c63565b925050819055508173ffffffffffffffffffffffffffffffffffffffff16600073ffffffffffffffffffffffffffffffffffffffff167fddf252ad1be2c89b69c2b068fc378daa952ba7f163c4a11628f55a4df523b3ef83604051620004fb919062000caf565b60405180910390a362000517600083836200052060201b60201c565b5050565b505050565b505050565b600081519050919050565b7f4e487b7100000000000000000000000000000000000000000000000000000000600052604160045260246000fd5b7f4e487b7100000000000000000000000000000000000000000000000000000000600052602260045260246000fd5b60006002820490506001821680620005a757607f821691505b602082108103620005bd57620005bc6200055f565b5b50919050565b60008190508160005260206000209050919050565b60006020601f8301049050919050565b600082821b905092915050565b600060088302620006277fffffffffffffffffffffffffffffffffffffffffffffffffffffffffffffffff82620005e8565b620006338683620005e8565b95508019841693508086168417925050509392505050565b6000819050919050565b6000819050919050565b6000620006806200067a62000674846200064b565b62000655565b6200064b565b9050919050565b6000819050919050565b6200069c836200065f565b620006b4620006ab8262000687565b848454620005f5565b825550505050565b600090565b620006cb620006bc565b620006d881848462000691565b505050565b5b818110156200070057620006f4600082620006c1565b600181019050620006de565b5050565b601f8211156200074f576200071981620005c3565b6200072484620005d8565b8101602085101562000734578190505b6200074c6200074385620005d8565b830182620006dd565b50505b505050565b600082821c905092915050565b6000620007746000198460080262000754565b1980831691505092915050565b60006200078f838362000761565b9150826002028217905092915050565b620007aa8262000525565b67ffffffffffffffff811115620007c657620007c562000530565b5b620007d282546200058e565b620007df82828562000704565b600060209050601f83116001811462000817576000841562000802578287015190505b6200080e858262000781565b8655506200087e565b601f1984166200082786620005c3565b60005b8281101562000851578489015182556001820191506020850194506020810190506200082a565b868310156200087157848901516200086d601f89168262000761565b8355505b6001600288020188555050505b505050505050565b7f4e487b7100000000000000000000000000000000000000000000000000000000600052601160045260246000fd5b60008160011c9050919050565b6000808291508390505b60018511156200091457808604811115620008ec57620008eb62000886565b5b6001851615620008fc5780820291505b80810290506200090c85620008b5565b9450620008cc565b94509492505050565b6000826200092f576001905062000a02565b816200093f576000905062000a02565b8160018114620009585760028114620009635762000999565b600191505062000a02565b60ff84111562000978576200097762000886565b5b8360020a91508482111562000992576200099162000886565b5b5062000a02565b5060208310610133831016604e8410600b8410161715620009d35782820a905083811115620009cd57620009cc62000886565b5b62000a02565b620009e28484846001620008c2565b92509050818404811115620009fc57620009fb62000886565b5b81810290505b9392505050565b600060ff82169050919050565b600062000a23826200064b565b915062000a308362000a09565b925062000a5f7fffffffffffffffffffffffffffffffffffffffffffffffffffffffffffffffff84846200091d565b905092915050565b600062000a74826200064b565b915062000a81836200064b565b925082820262000a91816200064b565b9150828204841483151762000aab5762000aaa62000886565b5b5092915050565b60008154905062000ac3816200058e565b9050919050565b60008190508160005260206000209050919050565b81810362000aef57505062000bde565b62000afa8262000ab2565b67ffffffffffffffff81111562000b165762000b1562000530565b5b62000b2282546200058e565b62000b2f82828562000704565b6000601f83116001811462000b63576000841562000b4e578287015490505b62000b5a858262000781565b86555062000bd7565b601f19841662000b738762000aca565b965062000b8086620005c3565b60005b8281101562000baa5784890154825560018201915060018501945060208101905062000b83565b8683101562000bca578489015462000bc6601f89168262000761565b8355505b6001600288020188555050505b5050505050505b565b600082825260208201905092915050565b7f45524332303a206d696e7420746f20746865207a65726f206164647265737300600082015250565b600062000c29601f8362000be0565b915062000c368262000bf1565b602082019050919050565b6000602082019050818103600083015262000c5c8162000c1a565b9050919050565b600062000c70826200064b565b915062000c7d836200064b565b925082820190508082111562000c985762000c9762000886565b5b92915050565b62000ca9816200064b565b82525050565b600060208201905062000cc6600083018462000c9e565b92915050565b6121b78062000cdc6000396000f3fe6080604052600436106101395760003560e01c806370a08231116100ab578063a9059cbb1161006f578063a9059cbb1461052d578063b09f12661461056a578063d28d885214610595578063d3866f5a146105c0578063dd62ed3e146105e9578063f2fde38b1461062657610245565b806370a0823114610446578063715018a6146104835780638da5cb5b1461049a57806395d89b41146104c5578063a457c2d7146104f057610245565b80632c4e722e116100fd5780632c4e722e14610336578063313ce56714610361578063395093511461038c5780633eaaf86b146103c957806340c10f19146103f45780634bdfa9131461041d57610245565b806306fdde031461024a578063095ea7b31461027557806318160ddd146102b25780632397e4d7146102dd57806323b872dd146102f957610245565b366102455760003403610181576040517f08c379a00000000000000000000000000000000000000000000000000000000081526004016101789061161a565b60405180910390fd5b6000600954346101919190611673565b9050806101a461019f61064f565b610679565b10156101e5576040517f08c379a00000000000000000000000000000000000000000000000000000000081526004016101dc90611701565b60405180910390fd5b6101f76101f061064f565b33836106c1565b6101ff61064f565b73ffffffffffffffffffffffffffffffffffffffff163373ffffffffffffffffffffffffffffffffffffffff16036102435761024261023c61064f565b82610770565b5b005b600080fd5b34801561025657600080fd5b5061025f6108cf565b60405161026c91906117a0565b60405180910390f35b34801561028157600080fd5b5061029c60048036038101906102979190611851565b610961565b6040516102a991906118ac565b60405180910390f35b3480156102be57600080fd5b506102c7610984565b6040516102d491906118d6565b60405180910390f35b6102f760048036038101906102f291906118f1565b61098e565b005b34801561030557600080fd5b50610320600480360381019061031b919061191e565b610a8b565b60405161032d91906118ac565b60405180910390f35b34801561034257600080fd5b5061034b610aba565b60405161035891906118d6565b60405180910390f35b34801561036d57600080fd5b50610376610ac0565b604051610383919061198d565b60405180910390f35b34801561039857600080fd5b506103b360048036038101906103ae9190611851565b610ac9565b6040516103c091906118ac565b60405180910390f35b3480156103d557600080fd5b506103de610b00565b6040516103eb91906118d6565b60405180910390f35b34801561040057600080fd5b5061041b60048036038101906104169190611851565b610b06565b005b34801561042957600080fd5b50610444600480360381019061043f919061191e565b610b14565b005b34801561045257600080fd5b5061046d600480360381019061046891906119a8565b610679565b60405161047a91906118d6565b60405180910390f35b34801561048f57600080fd5b50610498610bc3565b005b3480156104a657600080fd5b506104af61064f565b6040516104bc91906119e4565b60405180910390f35b3480156104d157600080fd5b506104da610c4b565b6040516104e791906117a0565b60405180910390f35b3480156104fc57600080fd5b5061051760048036038101906105129190611851565b610cdd565b60405161052491906118ac565b60405180910390f35b34801561053957600080fd5b50610554600480360381019061054f9190611851565b610d54565b60405161056191906118ac565b60405180910390f35b34801561057657600080fd5b5061057f610d77565b60405161058c91906117a0565b60405180910390f35b3480156105a157600080fd5b506105aa610e05565b6040516105b791906117a0565b60405180910390f35b3480156105cc57600080fd5b506105e760048036038101906105e2919061191e565b6106c1565b005b3480156105f557600080fd5b50610610600480360381019061060b91906119ff565b610e93565b60405161061d91906118d6565b60405180910390f35b34801561063257600080fd5b5061064d600480360381019061064891906119a8565b610f1a565b005b6000600560009054906101000a900473ffffffffffffffffffffffffffffffffffffffff16905090565b60008060008373ffffffffffffffffffffffffffffffffffffffff1673ffffffffffffffffffffffffffffffffffffffff168152602001908152602001600020549050919050565b806000808573ffffffffffffffffffffffffffffffffffffffff1673ffffffffffffffffffffffffffffffffffffffff168152602001908152602001600020600082825461070f9190611a3f565b92505081905550806000808473ffffffffffffffffffffffffffffffffffffffff1673ffffffffffffffffffffffffffffffffffffffff16815260200190815260200160002060008282546107649190611a73565b92505081905550505050565b600073ffffffffffffffffffffffffffffffffffffffff168273ffffffffffffffffffffffffffffffffffffffff16036107df576040517f08c379a00000000000000000000000000000000000000000000000000000000081526004016107d690611af3565b60405180910390fd5b6107eb60008383611011565b80600260008282546107fd9190611a73565b92505081905550806000808473ffffffffffffffffffffffffffffffffffffffff1673ffffffffffffffffffffffffffffffffffffffff16815260200190815260200160002060008282546108529190611a73565b925050819055508173ffffffffffffffffffffffffffffffffffffffff16600073ffffffffffffffffffffffffffffffffffffffff167fddf252ad1be2c89b69c2b068fc378daa952ba7f163c4a11628f55a4df523b3ef836040516108b791906118d6565b60405180910390a36108cb60008383611016565b5050565b6060600380546108de90611b42565b80601f016020809104026020016040519081016040528092919081815260200182805461090a90611b42565b80156109575780601f1061092c57610100808354040283529160200191610957565b820191906000526020600020905b81548152906001019060200180831161093a57829003601f168201915b5050505050905090565b60008061096c61101b565b9050610979818585611023565b600191505092915050565b6000600254905090565b8061099833610679565b10156109d9576040517f08c379a00000000000000000000000000000000000000000000000000000000081526004016109d090611bbf565b60405180910390fd5b6000600954826109e99190611c0e565b905080471015610a2e576040517f08c379a0000000000000000000000000000000000000000000000000000000008152600401610a2590611c8b565b60405180910390fd5b610a40610a3961064f565b3384610b14565b3373ffffffffffffffffffffffffffffffffffffffff166108fc829081150290604051600060405180830381858888f19350505050158015610a86573d6000803e3d6000fd5b505050565b600080610a9661101b565b9050610aa38582856111ec565b610aae858585611278565b60019150509392505050565b60095481565b60006012905090565b600080610ad461101b565b9050610af5818585610ae68589610e93565b610af09190611a73565b611023565b600191505092915050565b60085481565b610b108282610770565b5050565b806000808573ffffffffffffffffffffffffffffffffffffffff1673ffffffffffffffffffffffffffffffffffffffff1681526020019081526020016000206000828254610b629190611a73565b92505081905550806000808473ffffffffffffffffffffffffffffffffffffffff1673ffffffffffffffffffffffffffffffffffffffff1681526020019081526020016000206000828254610bb79190611a3f565b92505081905550505050565b610bcb61101b565b73ffffffffffffffffffffffffffffffffffffffff16610be961064f565b73ffffffffffffffffffffffffffffffffffffffff1614610c3f576040517f08c379a0000000000000000000000000000000000000000000000000000000008152600401610c3690611cf7565b60405180910390fd5b610c4960006114f7565b565b606060048054610c5a90611b42565b80601f0160208091040260200160405190810160405280929190818152602001828054610c8690611b42565b8015610cd35780601f10610ca857610100808354040283529160200191610cd3565b820191906000526020600020905b815481529060010190602001808311610cb657829003601f168201915b5050505050905090565b600080610ce861101b565b90506000610cf68286610e93565b905083811015610d3b576040517f08c379a0000000000000000000000000000000000000000000000000000000008152600401610d3290611d89565b60405180910390fd5b610d488286868403611023565b60019250505092915050565b600080610d5f61101b565b9050610d6c818585611278565b600191505092915050565b60078054610d8490611b42565b80601f0160208091040260200160405190810160405280929190818152602001828054610db090611b42565b8015610dfd5780601f10610dd257610100808354040283529160200191610dfd565b820191906000526020600020905b815481529060010190602001808311610de057829003601f168201915b505050505081565b60068054610e1290611b42565b80601f0160208091040260200160405190810160405280929190818152602001828054610e3e90611b42565b8015610e8b5780601f10610e6057610100808354040283529160200191610e8b565b820191906000526020600020905b815481529060010190602001808311610e6e57829003601f168201915b505050505081565b6000600160008473ffffffffffffffffffffffffffffffffffffffff1673ffffffffffffffffffffffffffffffffffffffff16815260200190815260200160002060008373ffffffffffffffffffffffffffffffffffffffff1673ffffffffffffffffffffffffffffffffffffffff16815260200190815260200160002054905092915050565b610f2261101b565b73ffffffffffffffffffffffffffffffffffffffff16610f4061064f565b73ffffffffffffffffffffffffffffffffffffffff1614610f96576040517f08c379a0000000000000000000000000000000000000000000000000000000008152600401610f8d90611cf7565b60405180910390fd5b600073ffffffffffffffffffffffffffffffffffffffff168173ffffffffffffffffffffffffffffffffffffffff1603611005576040517f08c379a0000000000000000000000000000000000000000000000000000000008152600401610ffc90611e1b565b60405180910390fd5b61100e816114f7565b50565b505050565b505050565b600033905090565b600073ffffffffffffffffffffffffffffffffffffffff168373ffffffffffffffffffffffffffffffffffffffff1603611092576040517f08c379a000000000000000000000000000000000000000000000000000000000815260040161108990611ead565b60405180910390fd5b600073ffffffffffffffffffffffffffffffffffffffff168273ffffffffffffffffffffffffffffffffffffffff1603611101576040517f08c379a00000000000000000000000000000000000000000000000000000000081526004016110f890611f3f565b60405180910390fd5b80600160008573ffffffffffffffffffffffffffffffffffffffff1673ffffffffffffffffffffffffffffffffffffffff16815260200190815260200160002060008473ffffffffffffffffffffffffffffffffffffffff1673ffffffffffffffffffffffffffffffffffffffff168152602001908152602001600020819055508173ffffffffffffffffffffffffffffffffffffffff168373ffffffffffffffffffffffffffffffffffffffff167f8c5be1e5ebec7d5bd14f71427d1e84f3dd0314c0f7b2291e5b200ac8c7c3b925836040516111df91906118d6565b60405180910390a3505050565b60006111f88484610e93565b90507fffffffffffffffffffffffffffffffffffffffffffffffffffffffffffffffff81146112725781811015611264576040517f08c379a000000000000000000000000000000000000000000000000000000000815260040161125b90611fab565b60405180910390fd5b6112718484848403611023565b5b50505050565b600073ffffffffffffffffffffffffffffffffffffffff168373ffffffffffffffffffffffffffffffffffffffff16036112e7576040517f08c379a00000000000000000000000000000000000000000000000000000000081526004016112de9061203d565b60405180910390fd5b600073ffffffffffffffffffffffffffffffffffffffff168273ffffffffffffffffffffffffffffffffffffffff1603611356576040517f08c379a000000000000000000000000000000000000000000000000000000000815260040161134d906120cf565b60405180910390fd5b611361838383611011565b60008060008573ffffffffffffffffffffffffffffffffffffffff1673ffffffffffffffffffffffffffffffffffffffff168152602001908152602001600020549050818110156113e7576040517f08c379a00000000000000000000000000000000000000000000000000000000081526004016113de90612161565b60405180910390fd5b8181036000808673ffffffffffffffffffffffffffffffffffffffff1673ffffffffffffffffffffffffffffffffffffffff16815260200190815260200160002081905550816000808573ffffffffffffffffffffffffffffffffffffffff1673ffffffffffffffffffffffffffffffffffffffff168152602001908152602001600020600082825461147a9190611a73565b925050819055508273ffffffffffffffffffffffffffffffffffffffff168473ffffffffffffffffffffffffffffffffffffffff167fddf252ad1be2c89b69c2b068fc378daa952ba7f163c4a11628f55a4df523b3ef846040516114de91906118d6565b60405180910390a36114f1848484611016565b50505050565b6000600560009054906101000a900473ffffffffffffffffffffffffffffffffffffffff16905081600560006101000a81548173ffffffffffffffffffffffffffffffffffffffff021916908373ffffffffffffffffffffffffffffffffffffffff1602179055508173ffffffffffffffffffffffffffffffffffffffff168173ffffffffffffffffffffffffffffffffffffffff167f8be0079c531659141344cd1fd0a4f28419497f9722a3daafe3b4186f6b6457e060405160405180910390a35050565b600082825260208201905092915050565b7f456e7465722061206e6f6e7a65726f2076616c75650000000000000000000000600082015250565b60006116046015836115bd565b915061160f826115ce565b602082019050919050565b60006020820190508181036000830152611633816115f7565b9050919050565b6000819050919050565b7f4e487b7100000000000000000000000000000000000000000000000000000000600052601160045260246000fd5b600061167e8261163a565b91506116898361163a565b92508282026116978161163a565b915082820484148315176116ae576116ad611644565b5b5092915050565b7f6f776e6572204b6169546f6b656e206973206e6f20616d6f756e740000000000600082015250565b60006116eb601b836115bd565b91506116f6826116b5565b602082019050919050565b6000602082019050818103600083015261171a816116de565b9050919050565b600081519050919050565b60005b8381101561174a57808201518184015260208101905061172f565b60008484015250505050565b6000601f19601f8301169050919050565b600061177282611721565b61177c81856115bd565b935061178c81856020860161172c565b61179581611756565b840191505092915050565b600060208201905081810360008301526117ba8184611767565b905092915050565b600080fd5b600073ffffffffffffffffffffffffffffffffffffffff82169050919050565b60006117f2826117c7565b9050919050565b611802816117e7565b811461180d57600080fd5b50565b60008135905061181f816117f9565b92915050565b61182e8161163a565b811461183957600080fd5b50565b60008135905061184b81611825565b92915050565b60008060408385031215611868576118676117c2565b5b600061187685828601611810565b92505060206118878582860161183c565b9150509250929050565b60008115159050919050565b6118a681611891565b82525050565b60006020820190506118c1600083018461189d565b92915050565b6118d08161163a565b82525050565b60006020820190506118eb60008301846118c7565b92915050565b600060208284031215611907576119066117c2565b5b60006119158482850161183c565b91505092915050565b600080600060608486031215611937576119366117c2565b5b600061194586828701611810565b935050602061195686828701611810565b92505060406119678682870161183c565b9150509250925092565b600060ff82169050919050565b61198781611971565b82525050565b60006020820190506119a2600083018461197e565b92915050565b6000602082840312156119be576119bd6117c2565b5b60006119cc84828501611810565b91505092915050565b6119de816117e7565b82525050565b60006020820190506119f960008301846119d5565b92915050565b60008060408385031215611a1657611a156117c2565b5b6000611a2485828601611810565b9250506020611a3585828601611810565b9150509250929050565b6000611a4a8261163a565b9150611a558361163a565b9250828203905081811115611a6d57611a6c611644565b5b92915050565b6000611a7e8261163a565b9150611a898361163a565b9250828201905080821115611aa157611aa0611644565b5b92915050565b7f45524332303a206d696e7420746f20746865207a65726f206164647265737300600082015250565b6000611add601f836115bd565b9150611ae882611aa7565b602082019050919050565b60006020820190508181036000830152611b0c81611ad0565b9050919050565b7f4e487b7100000000000000000000000000000000000000000000000000000000600052602260045260246000fd5b60006002820490506001821680611b5a57607f821691505b602082108103611b6d57611b6c611b13565b5b50919050565b7f796f75206675636b696e67206e6f20546f6b656e206f6b3f0000000000000000600082015250565b6000611ba96018836115bd565b9150611bb482611b73565b602082019050919050565b60006020820190508181036000830152611bd881611b9c565b9050919050565b7f4e487b7100000000000000000000000000000000000000000000000000000000600052601260045260246000fd5b6000611c198261163a565b9150611c248361163a565b925082611c3457611c33611bdf565b5b828204905092915050565b7f4341206e6f206574686572000000000000000000000000000000000000000000600082015250565b6000611c75600b836115bd565b9150611c8082611c3f565b602082019050919050565b60006020820190508181036000830152611ca481611c68565b9050919050565b7f4f776e61626c653a2063616c6c6572206973206e6f7420746865206f776e6572600082015250565b6000611ce16020836115bd565b9150611cec82611cab565b602082019050919050565b60006020820190508181036000830152611d1081611cd4565b9050919050565b7f45524332303a2064656372656173656420616c6c6f77616e63652062656c6f7760008201527f207a65726f000000000000000000000000000000000000000000000000000000602082015250565b6000611d736025836115bd565b9150611d7e82611d17565b604082019050919050565b60006020820190508181036000830152611da281611d66565b9050919050565b7f4f776e61626c653a206e6577206f776e657220697320746865207a65726f206160008201527f6464726573730000000000000000000000000000000000000000000000000000602082015250565b6000611e056026836115bd565b9150611e1082611da9565b604082019050919050565b60006020820190508181036000830152611e3481611df8565b9050919050565b7f45524332303a20617070726f76652066726f6d20746865207a65726f2061646460008201527f7265737300000000000000000000000000000000000000000000000000000000602082015250565b6000611e976024836115bd565b9150611ea282611e3b565b604082019050919050565b60006020820190508181036000830152611ec681611e8a565b9050919050565b7f45524332303a20617070726f766520746f20746865207a65726f20616464726560008201527f7373000000000000000000000000000000000000000000000000000000000000602082015250565b6000611f296022836115bd565b9150611f3482611ecd565b604082019050919050565b60006020820190508181036000830152611f5881611f1c565b9050919050565b7f45524332303a20696e73756666696369656e7420616c6c6f77616e6365000000600082015250565b6000611f95601d836115bd565b9150611fa082611f5f565b602082019050919050565b60006020820190508181036000830152611fc481611f88565b9050919050565b7f45524332303a207472616e736665722066726f6d20746865207a65726f20616460008201527f6472657373000000000000000000000000000000000000000000000000000000602082015250565b60006120276025836115bd565b915061203282611fcb565b604082019050919050565b600060208201905081810360008301526120568161201a565b9050919050565b7f45524332303a207472616e7366657220746f20746865207a65726f206164647260008201527f6573730000000000000000000000000000000000000000000000000000000000602082015250565b60006120b96023836115bd565b91506120c48261205d565b604082019050919050565b600060208201905081810360008301526120e8816120ac565b9050919050565b7f45524332303a207472616e7366657220616d6f756e742065786365656473206260008201527f616c616e63650000000000000000000000000000000000000000000000000000602082015250565b600061214b6026836115bd565b9150612156826120ef565b604082019050919050565b6000602082019050818103600083015261217a8161213e565b905091905056fea2646970667358221220778f6085016b6f4467b06f293f767b7a8a39ff7252bc58db52306affb33a5d3a64736f6c63430008110033",
					"opcodes": "PUSH1 0x80 PUSH1 0x40 MSTORE PUSH1 0x40 MLOAD DUP1 PUSH1 0x40 ADD PUSH1 0x40 MSTORE DUP1 PUSH1 0x8 DUP2 MSTORE PUSH1 0x20 ADD PUSH32 0x4B6169546F6B656E000000000000000000000000000000000000000000000000 DUP2 MSTORE POP PUSH1 0x6 SWAP1 DUP2 PUSH3 0x4A SWAP2 SWAP1 PUSH3 0x79F JUMP JUMPDEST POP PUSH1 0x40 MLOAD DUP1 PUSH1 0x40 ADD PUSH1 0x40 MSTORE DUP1 PUSH1 0x3 DUP2 MSTORE PUSH1 0x20 ADD PUSH32 0x4B41490000000000000000000000000000000000000000000000000000000000 DUP2 MSTORE POP PUSH1 0x7 SWAP1 DUP2 PUSH3 0x91 SWAP2 SWAP1 PUSH3 0x79F JUMP JUMPDEST POP PUSH3 0xA2 PUSH3 0x28C PUSH1 0x20 SHL PUSH1 0x20 SHR JUMP JUMPDEST PUSH1 0xA PUSH3 0xB0 SWAP2 SWAP1 PUSH3 0xA16 JUMP JUMPDEST PUSH2 0x2710 PUSH3 0xBF SWAP2 SWAP1 PUSH3 0xA67 JUMP JUMPDEST PUSH1 0x8 SSTORE PUSH1 0x64 PUSH1 0x9 SSTORE CALLVALUE DUP1 ISZERO PUSH3 0xD4 JUMPI PUSH1 0x0 DUP1 REVERT JUMPDEST POP PUSH1 0x6 DUP1 SLOAD PUSH3 0xE4 SWAP1 PUSH3 0x58E JUMP JUMPDEST DUP1 PUSH1 0x1F ADD PUSH1 0x20 DUP1 SWAP2 DIV MUL PUSH1 0x20 ADD PUSH1 0x40 MLOAD SWAP1 DUP2 ADD PUSH1 0x40 MSTORE DUP1 SWAP3 SWAP2 SWAP1 DUP2 DUP2 MSTORE PUSH1 0x20 ADD DUP3 DUP1 SLOAD PUSH3 0x112 SWAP1 PUSH3 0x58E JUMP JUMPDEST DUP1 ISZERO PUSH3 0x163 JUMPI DUP1 PUSH1 0x1F LT PUSH3 0x137 JUMPI PUSH2 0x100 DUP1 DUP4 SLOAD DIV MUL DUP4 MSTORE SWAP2 PUSH1 0x20 ADD SWAP2 PUSH3 0x163 JUMP JUMPDEST DUP3 ADD SWAP2 SWAP1 PUSH1 0x0 MSTORE PUSH1 0x20 PUSH1 0x0 KECCAK256 SWAP1 JUMPDEST DUP2 SLOAD DUP2 MSTORE SWAP1 PUSH1 0x1 ADD SWAP1 PUSH1 0x20 ADD DUP1 DUP4 GT PUSH3 0x145 JUMPI DUP3 SWAP1 SUB PUSH1 0x1F AND DUP3 ADD SWAP2 JUMPDEST POP POP POP POP POP PUSH1 0x7 DUP1 SLOAD PUSH3 0x177 SWAP1 PUSH3 0x58E JUMP JUMPDEST DUP1 PUSH1 0x1F ADD PUSH1 0x20 DUP1 SWAP2 DIV MUL PUSH1 0x20 ADD PUSH1 0x40 MLOAD SWAP1 DUP2 ADD PUSH1 0x40 MSTORE DUP1 SWAP3 SWAP2 SWAP1 DUP2 DUP2 MSTORE PUSH1 0x20 ADD DUP3 DUP1 SLOAD PUSH3 0x1A5 SWAP1 PUSH3 0x58E JUMP JUMPDEST DUP1 ISZERO PUSH3 0x1F6 JUMPI DUP1 PUSH1 0x1F LT PUSH3 0x1CA JUMPI PUSH2 0x100 DUP1 DUP4 SLOAD DIV MUL DUP4 MSTORE SWAP2 PUSH1 0x20 ADD SWAP2 PUSH3 0x1F6 JUMP JUMPDEST DUP3 ADD SWAP2 SWAP1 PUSH1 0x0 MSTORE PUSH1 0x20 PUSH1 0x0 KECCAK256 SWAP1 JUMPDEST DUP2 SLOAD DUP2 MSTORE SWAP1 PUSH1 0x1 ADD SWAP1 PUSH1 0x20 ADD DUP1 DUP4 GT PUSH3 0x1D8 JUMPI DUP3 SWAP1 SUB PUSH1 0x1F AND DUP3 ADD SWAP2 JUMPDEST POP POP POP POP POP DUP2 PUSH1 0x3 SWAP1 DUP2 PUSH3 0x20C SWAP2 SWAP1 PUSH3 0x79F JUMP JUMPDEST POP DUP1 PUSH1 0x4 SWAP1 DUP2 PUSH3 0x21E SWAP2 SWAP1 PUSH3 0x79F JUMP JUMPDEST POP POP POP PUSH3 0x241 PUSH3 0x235 PUSH3 0x295 PUSH1 0x20 SHL PUSH1 0x20 SHR JUMP JUMPDEST PUSH3 0x29D PUSH1 0x20 SHL PUSH1 0x20 SHR JUMP JUMPDEST PUSH1 0x6 DUP1 DUP2 PUSH3 0x251 SWAP2 SWAP1 PUSH3 0xADF JUMP JUMPDEST POP PUSH1 0x7 DUP1 DUP2 PUSH3 0x262 SWAP2 SWAP1 PUSH3 0xADF JUMP JUMPDEST POP PUSH3 0x286 PUSH3 0x277 PUSH3 0x363 PUSH1 0x20 SHL PUSH1 0x20 SHR JUMP JUMPDEST PUSH1 0x8 SLOAD PUSH3 0x38D PUSH1 0x20 SHL PUSH1 0x20 SHR JUMP JUMPDEST PUSH3 0xCCC JUMP JUMPDEST PUSH1 0x0 PUSH1 0x12 SWAP1 POP SWAP1 JUMP JUMPDEST PUSH1 0x0 CALLER SWAP1 POP SWAP1 JUMP JUMPDEST PUSH1 0x0 PUSH1 0x5 PUSH1 0x0 SWAP1 SLOAD SWAP1 PUSH2 0x100 EXP SWAP1 DIV PUSH20 0xFFFFFFFFFFFFFFFFFFFFFFFFFFFFFFFFFFFFFFFF AND SWAP1 POP DUP2 PUSH1 0x5 PUSH1 0x0 PUSH2 0x100 EXP DUP2 SLOAD DUP2 PUSH20 0xFFFFFFFFFFFFFFFFFFFFFFFFFFFFFFFFFFFFFFFF MUL NOT AND SWAP1 DUP4 PUSH20 0xFFFFFFFFFFFFFFFFFFFFFFFFFFFFFFFFFFFFFFFF AND MUL OR SWAP1 SSTORE POP DUP2 PUSH20 0xFFFFFFFFFFFFFFFFFFFFFFFFFFFFFFFFFFFFFFFF AND DUP2 PUSH20 0xFFFFFFFFFFFFFFFFFFFFFFFFFFFFFFFFFFFFFFFF AND PUSH32 0x8BE0079C531659141344CD1FD0A4F28419497F9722A3DAAFE3B4186F6B6457E0 PUSH1 0x40 MLOAD PUSH1 0x40 MLOAD DUP1 SWAP2 SUB SWAP1 LOG3 POP POP JUMP JUMPDEST PUSH1 0x0 PUSH1 0x5 PUSH1 0x0 SWAP1 SLOAD SWAP1 PUSH2 0x100 EXP SWAP1 DIV PUSH20 0xFFFFFFFFFFFFFFFFFFFFFFFFFFFFFFFFFFFFFFFF AND SWAP1 POP SWAP1 JUMP JUMPDEST PUSH3 0x39F DUP3 DUP3 PUSH3 0x3A3 PUSH1 0x20 SHL PUSH1 0x20 SHR JUMP JUMPDEST POP POP JUMP JUMPDEST PUSH1 0x0 PUSH20 0xFFFFFFFFFFFFFFFFFFFFFFFFFFFFFFFFFFFFFFFF AND DUP3 PUSH20 0xFFFFFFFFFFFFFFFFFFFFFFFFFFFFFFFFFFFFFFFF AND SUB PUSH3 0x415 JUMPI PUSH1 0x40 MLOAD PUSH32 0x8C379A000000000000000000000000000000000000000000000000000000000 DUP2 MSTORE PUSH1 0x4 ADD PUSH3 0x40C SWAP1 PUSH3 0xC41 JUMP JUMPDEST PUSH1 0x40 MLOAD DUP1 SWAP2 SUB SWAP1 REVERT JUMPDEST PUSH3 0x429 PUSH1 0x0 DUP4 DUP4 PUSH3 0x51B PUSH1 0x20 SHL PUSH1 0x20 SHR JUMP JUMPDEST DUP1 PUSH1 0x2 PUSH1 0x0 DUP3 DUP3 SLOAD PUSH3 0x43D SWAP2 SWAP1 PUSH3 0xC63 JUMP JUMPDEST SWAP3 POP POP DUP2 SWAP1 SSTORE POP DUP1 PUSH1 0x0 DUP1 DUP5 PUSH20 0xFFFFFFFFFFFFFFFFFFFFFFFFFFFFFFFFFFFFFFFF AND PUSH20 0xFFFFFFFFFFFFFFFFFFFFFFFFFFFFFFFFFFFFFFFF AND DUP2 MSTORE PUSH1 0x20 ADD SWAP1 DUP2 MSTORE PUSH1 0x20 ADD PUSH1 0x0 KECCAK256 PUSH1 0x0 DUP3 DUP3 SLOAD PUSH3 0x494 SWAP2 SWAP1 PUSH3 0xC63 JUMP JUMPDEST SWAP3 POP POP DUP2 SWAP1 SSTORE POP DUP2 PUSH20 0xFFFFFFFFFFFFFFFFFFFFFFFFFFFFFFFFFFFFFFFF AND PUSH1 0x0 PUSH20 0xFFFFFFFFFFFFFFFFFFFFFFFFFFFFFFFFFFFFFFFF AND PUSH32 0xDDF252AD1BE2C89B69C2B068FC378DAA952BA7F163C4A11628F55A4DF523B3EF DUP4 PUSH1 0x40 MLOAD PUSH3 0x4FB SWAP2 SWAP1 PUSH3 0xCAF JUMP JUMPDEST PUSH1 0x40 MLOAD DUP1 SWAP2 SUB SWAP1 LOG3 PUSH3 0x517 PUSH1 0x0 DUP4 DUP4 PUSH3 0x520 PUSH1 0x20 SHL PUSH1 0x20 SHR JUMP JUMPDEST POP POP JUMP JUMPDEST POP POP POP JUMP JUMPDEST POP POP POP JUMP JUMPDEST PUSH1 0x0 DUP2 MLOAD SWAP1 POP SWAP2 SWAP1 POP JUMP JUMPDEST PUSH32 0x4E487B7100000000000000000000000000000000000000000000000000000000 PUSH1 0x0 MSTORE PUSH1 0x41 PUSH1 0x4 MSTORE PUSH1 0x24 PUSH1 0x0 REVERT JUMPDEST PUSH32 0x4E487B7100000000000000000000000000000000000000000000000000000000 PUSH1 0x0 MSTORE PUSH1 0x22 PUSH1 0x4 MSTORE PUSH1 0x24 PUSH1 0x0 REVERT JUMPDEST PUSH1 0x0 PUSH1 0x2 DUP3 DIV SWAP1 POP PUSH1 0x1 DUP3 AND DUP1 PUSH3 0x5A7 JUMPI PUSH1 0x7F DUP3 AND SWAP2 POP JUMPDEST PUSH1 0x20 DUP3 LT DUP2 SUB PUSH3 0x5BD JUMPI PUSH3 0x5BC PUSH3 0x55F JUMP JUMPDEST JUMPDEST POP SWAP2 SWAP1 POP JUMP JUMPDEST PUSH1 0x0 DUP2 SWAP1 POP DUP2 PUSH1 0x0 MSTORE PUSH1 0x20 PUSH1 0x0 KECCAK256 SWAP1 POP SWAP2 SWAP1 POP JUMP JUMPDEST PUSH1 0x0 PUSH1 0x20 PUSH1 0x1F DUP4 ADD DIV SWAP1 POP SWAP2 SWAP1 POP JUMP JUMPDEST PUSH1 0x0 DUP3 DUP3 SHL SWAP1 POP SWAP3 SWAP2 POP POP JUMP JUMPDEST PUSH1 0x0 PUSH1 0x8 DUP4 MUL PUSH3 0x627 PUSH32 0xFFFFFFFFFFFFFFFFFFFFFFFFFFFFFFFFFFFFFFFFFFFFFFFFFFFFFFFFFFFFFFFF DUP3 PUSH3 0x5E8 JUMP JUMPDEST PUSH3 0x633 DUP7 DUP4 PUSH3 0x5E8 JUMP JUMPDEST SWAP6 POP DUP1 NOT DUP5 AND SWAP4 POP DUP1 DUP7 AND DUP5 OR SWAP3 POP POP POP SWAP4 SWAP3 POP POP POP JUMP JUMPDEST PUSH1 0x0 DUP2 SWAP1 POP SWAP2 SWAP1 POP JUMP JUMPDEST PUSH1 0x0 DUP2 SWAP1 POP SWAP2 SWAP1 POP JUMP JUMPDEST PUSH1 0x0 PUSH3 0x680 PUSH3 0x67A PUSH3 0x674 DUP5 PUSH3 0x64B JUMP JUMPDEST PUSH3 0x655 JUMP JUMPDEST PUSH3 0x64B JUMP JUMPDEST SWAP1 POP SWAP2 SWAP1 POP JUMP JUMPDEST PUSH1 0x0 DUP2 SWAP1 POP SWAP2 SWAP1 POP JUMP JUMPDEST PUSH3 0x69C DUP4 PUSH3 0x65F JUMP JUMPDEST PUSH3 0x6B4 PUSH3 0x6AB DUP3 PUSH3 0x687 JUMP JUMPDEST DUP5 DUP5 SLOAD PUSH3 0x5F5 JUMP JUMPDEST DUP3 SSTORE POP POP POP POP JUMP JUMPDEST PUSH1 0x0 SWAP1 JUMP JUMPDEST PUSH3 0x6CB PUSH3 0x6BC JUMP JUMPDEST PUSH3 0x6D8 DUP2 DUP5 DUP5 PUSH3 0x691 JUMP JUMPDEST POP POP POP JUMP JUMPDEST JUMPDEST DUP2 DUP2 LT ISZERO PUSH3 0x700 JUMPI PUSH3 0x6F4 PUSH1 0x0 DUP3 PUSH3 0x6C1 JUMP JUMPDEST PUSH1 0x1 DUP2 ADD SWAP1 POP PUSH3 0x6DE JUMP JUMPDEST POP POP JUMP JUMPDEST PUSH1 0x1F DUP3 GT ISZERO PUSH3 0x74F JUMPI PUSH3 0x719 DUP2 PUSH3 0x5C3 JUMP JUMPDEST PUSH3 0x724 DUP5 PUSH3 0x5D8 JUMP JUMPDEST DUP2 ADD PUSH1 0x20 DUP6 LT ISZERO PUSH3 0x734 JUMPI DUP2 SWAP1 POP JUMPDEST PUSH3 0x74C PUSH3 0x743 DUP6 PUSH3 0x5D8 JUMP JUMPDEST DUP4 ADD DUP3 PUSH3 0x6DD JUMP JUMPDEST POP POP JUMPDEST POP POP POP JUMP JUMPDEST PUSH1 0x0 DUP3 DUP3 SHR SWAP1 POP SWAP3 SWAP2 POP POP JUMP JUMPDEST PUSH1 0x0 PUSH3 0x774 PUSH1 0x0 NOT DUP5 PUSH1 0x8 MUL PUSH3 0x754 JUMP JUMPDEST NOT DUP1 DUP4 AND SWAP2 POP POP SWAP3 SWAP2 POP POP JUMP JUMPDEST PUSH1 0x0 PUSH3 0x78F DUP4 DUP4 PUSH3 0x761 JUMP JUMPDEST SWAP2 POP DUP3 PUSH1 0x2 MUL DUP3 OR SWAP1 POP SWAP3 SWAP2 POP POP JUMP JUMPDEST PUSH3 0x7AA DUP3 PUSH3 0x525 JUMP JUMPDEST PUSH8 0xFFFFFFFFFFFFFFFF DUP2 GT ISZERO PUSH3 0x7C6 JUMPI PUSH3 0x7C5 PUSH3 0x530 JUMP JUMPDEST JUMPDEST PUSH3 0x7D2 DUP3 SLOAD PUSH3 0x58E JUMP JUMPDEST PUSH3 0x7DF DUP3 DUP3 DUP6 PUSH3 0x704 JUMP JUMPDEST PUSH1 0x0 PUSH1 0x20 SWAP1 POP PUSH1 0x1F DUP4 GT PUSH1 0x1 DUP2 EQ PUSH3 0x817 JUMPI PUSH1 0x0 DUP5 ISZERO PUSH3 0x802 JUMPI DUP3 DUP8 ADD MLOAD SWAP1 POP JUMPDEST PUSH3 0x80E DUP6 DUP3 PUSH3 0x781 JUMP JUMPDEST DUP7 SSTORE POP PUSH3 0x87E JUMP JUMPDEST PUSH1 0x1F NOT DUP5 AND PUSH3 0x827 DUP7 PUSH3 0x5C3 JUMP JUMPDEST PUSH1 0x0 JUMPDEST DUP3 DUP2 LT ISZERO PUSH3 0x851 JUMPI DUP5 DUP10 ADD MLOAD DUP3 SSTORE PUSH1 0x1 DUP3 ADD SWAP2 POP PUSH1 0x20 DUP6 ADD SWAP5 POP PUSH1 0x20 DUP2 ADD SWAP1 POP PUSH3 0x82A JUMP JUMPDEST DUP7 DUP4 LT ISZERO PUSH3 0x871 JUMPI DUP5 DUP10 ADD MLOAD PUSH3 0x86D PUSH1 0x1F DUP10 AND DUP3 PUSH3 0x761 JUMP JUMPDEST DUP4 SSTORE POP JUMPDEST PUSH1 0x1 PUSH1 0x2 DUP9 MUL ADD DUP9 SSTORE POP POP POP JUMPDEST POP POP POP POP POP POP JUMP JUMPDEST PUSH32 0x4E487B7100000000000000000000000000000000000000000000000000000000 PUSH1 0x0 MSTORE PUSH1 0x11 PUSH1 0x4 MSTORE PUSH1 0x24 PUSH1 0x0 REVERT JUMPDEST PUSH1 0x0 DUP2 PUSH1 0x1 SHR SWAP1 POP SWAP2 SWAP1 POP JUMP JUMPDEST PUSH1 0x0 DUP1 DUP3 SWAP2 POP DUP4 SWAP1 POP JUMPDEST PUSH1 0x1 DUP6 GT ISZERO PUSH3 0x914 JUMPI DUP1 DUP7 DIV DUP2 GT ISZERO PUSH3 0x8EC JUMPI PUSH3 0x8EB PUSH3 0x886 JUMP JUMPDEST JUMPDEST PUSH1 0x1 DUP6 AND ISZERO PUSH3 0x8FC JUMPI DUP1 DUP3 MUL SWAP2 POP JUMPDEST DUP1 DUP2 MUL SWAP1 POP PUSH3 0x90C DUP6 PUSH3 0x8B5 JUMP JUMPDEST SWAP5 POP PUSH3 0x8CC JUMP JUMPDEST SWAP5 POP SWAP5 SWAP3 POP POP POP JUMP JUMPDEST PUSH1 0x0 DUP3 PUSH3 0x92F JUMPI PUSH1 0x1 SWAP1 POP PUSH3 0xA02 JUMP JUMPDEST DUP2 PUSH3 0x93F JUMPI PUSH1 0x0 SWAP1 POP PUSH3 0xA02 JUMP JUMPDEST DUP2 PUSH1 0x1 DUP2 EQ PUSH3 0x958 JUMPI PUSH1 0x2 DUP2 EQ PUSH3 0x963 JUMPI PUSH3 0x999 JUMP JUMPDEST PUSH1 0x1 SWAP2 POP POP PUSH3 0xA02 JUMP JUMPDEST PUSH1 0xFF DUP5 GT ISZERO PUSH3 0x978 JUMPI PUSH3 0x977 PUSH3 0x886 JUMP JUMPDEST JUMPDEST DUP4 PUSH1 0x2 EXP SWAP2 POP DUP5 DUP3 GT ISZERO PUSH3 0x992 JUMPI PUSH3 0x991 PUSH3 0x886 JUMP JUMPDEST JUMPDEST POP PUSH3 0xA02 JUMP JUMPDEST POP PUSH1 0x20 DUP4 LT PUSH2 0x133 DUP4 LT AND PUSH1 0x4E DUP5 LT PUSH1 0xB DUP5 LT AND OR ISZERO PUSH3 0x9D3 JUMPI DUP3 DUP3 EXP SWAP1 POP DUP4 DUP2 GT ISZERO PUSH3 0x9CD JUMPI PUSH3 0x9CC PUSH3 0x886 JUMP JUMPDEST JUMPDEST PUSH3 0xA02 JUMP JUMPDEST PUSH3 0x9E2 DUP5 DUP5 DUP5 PUSH1 0x1 PUSH3 0x8C2 JUMP JUMPDEST SWAP3 POP SWAP1 POP DUP2 DUP5 DIV DUP2 GT ISZERO PUSH3 0x9FC JUMPI PUSH3 0x9FB PUSH3 0x886 JUMP JUMPDEST JUMPDEST DUP2 DUP2 MUL SWAP1 POP JUMPDEST SWAP4 SWAP3 POP POP POP JUMP JUMPDEST PUSH1 0x0 PUSH1 0xFF DUP3 AND SWAP1 POP SWAP2 SWAP1 POP JUMP JUMPDEST PUSH1 0x0 PUSH3 0xA23 DUP3 PUSH3 0x64B JUMP JUMPDEST SWAP2 POP PUSH3 0xA30 DUP4 PUSH3 0xA09 JUMP JUMPDEST SWAP3 POP PUSH3 0xA5F PUSH32 0xFFFFFFFFFFFFFFFFFFFFFFFFFFFFFFFFFFFFFFFFFFFFFFFFFFFFFFFFFFFFFFFF DUP5 DUP5 PUSH3 0x91D JUMP JUMPDEST SWAP1 POP SWAP3 SWAP2 POP POP JUMP JUMPDEST PUSH1 0x0 PUSH3 0xA74 DUP3 PUSH3 0x64B JUMP JUMPDEST SWAP2 POP PUSH3 0xA81 DUP4 PUSH3 0x64B JUMP JUMPDEST SWAP3 POP DUP3 DUP3 MUL PUSH3 0xA91 DUP2 PUSH3 0x64B JUMP JUMPDEST SWAP2 POP DUP3 DUP3 DIV DUP5 EQ DUP4 ISZERO OR PUSH3 0xAAB JUMPI PUSH3 0xAAA PUSH3 0x886 JUMP JUMPDEST JUMPDEST POP SWAP3 SWAP2 POP POP JUMP JUMPDEST PUSH1 0x0 DUP2 SLOAD SWAP1 POP PUSH3 0xAC3 DUP2 PUSH3 0x58E JUMP JUMPDEST SWAP1 POP SWAP2 SWAP1 POP JUMP JUMPDEST PUSH1 0x0 DUP2 SWAP1 POP DUP2 PUSH1 0x0 MSTORE PUSH1 0x20 PUSH1 0x0 KECCAK256 SWAP1 POP SWAP2 SWAP1 POP JUMP JUMPDEST DUP2 DUP2 SUB PUSH3 0xAEF JUMPI POP POP PUSH3 0xBDE JUMP JUMPDEST PUSH3 0xAFA DUP3 PUSH3 0xAB2 JUMP JUMPDEST PUSH8 0xFFFFFFFFFFFFFFFF DUP2 GT ISZERO PUSH3 0xB16 JUMPI PUSH3 0xB15 PUSH3 0x530 JUMP JUMPDEST JUMPDEST PUSH3 0xB22 DUP3 SLOAD PUSH3 0x58E JUMP JUMPDEST PUSH3 0xB2F DUP3 DUP3 DUP6 PUSH3 0x704 JUMP JUMPDEST PUSH1 0x0 PUSH1 0x1F DUP4 GT PUSH1 0x1 DUP2 EQ PUSH3 0xB63 JUMPI PUSH1 0x0 DUP5 ISZERO PUSH3 0xB4E JUMPI DUP3 DUP8 ADD SLOAD SWAP1 POP JUMPDEST PUSH3 0xB5A DUP6 DUP3 PUSH3 0x781 JUMP JUMPDEST DUP7 SSTORE POP PUSH3 0xBD7 JUMP JUMPDEST PUSH1 0x1F NOT DUP5 AND PUSH3 0xB73 DUP8 PUSH3 0xACA JUMP JUMPDEST SWAP7 POP PUSH3 0xB80 DUP7 PUSH3 0x5C3 JUMP JUMPDEST PUSH1 0x0 JUMPDEST DUP3 DUP2 LT ISZERO PUSH3 0xBAA JUMPI DUP5 DUP10 ADD SLOAD DUP3 SSTORE PUSH1 0x1 DUP3 ADD SWAP2 POP PUSH1 0x1 DUP6 ADD SWAP5 POP PUSH1 0x20 DUP2 ADD SWAP1 POP PUSH3 0xB83 JUMP JUMPDEST DUP7 DUP4 LT ISZERO PUSH3 0xBCA JUMPI DUP5 DUP10 ADD SLOAD PUSH3 0xBC6 PUSH1 0x1F DUP10 AND DUP3 PUSH3 0x761 JUMP JUMPDEST DUP4 SSTORE POP JUMPDEST PUSH1 0x1 PUSH1 0x2 DUP9 MUL ADD DUP9 SSTORE POP POP POP JUMPDEST POP POP POP POP POP POP JUMPDEST JUMP JUMPDEST PUSH1 0x0 DUP3 DUP3 MSTORE PUSH1 0x20 DUP3 ADD SWAP1 POP SWAP3 SWAP2 POP POP JUMP JUMPDEST PUSH32 0x45524332303A206D696E7420746F20746865207A65726F206164647265737300 PUSH1 0x0 DUP3 ADD MSTORE POP JUMP JUMPDEST PUSH1 0x0 PUSH3 0xC29 PUSH1 0x1F DUP4 PUSH3 0xBE0 JUMP JUMPDEST SWAP2 POP PUSH3 0xC36 DUP3 PUSH3 0xBF1 JUMP JUMPDEST PUSH1 0x20 DUP3 ADD SWAP1 POP SWAP2 SWAP1 POP JUMP JUMPDEST PUSH1 0x0 PUSH1 0x20 DUP3 ADD SWAP1 POP DUP2 DUP2 SUB PUSH1 0x0 DUP4 ADD MSTORE PUSH3 0xC5C DUP2 PUSH3 0xC1A JUMP JUMPDEST SWAP1 POP SWAP2 SWAP1 POP JUMP JUMPDEST PUSH1 0x0 PUSH3 0xC70 DUP3 PUSH3 0x64B JUMP JUMPDEST SWAP2 POP PUSH3 0xC7D DUP4 PUSH3 0x64B JUMP JUMPDEST SWAP3 POP DUP3 DUP3 ADD SWAP1 POP DUP1 DUP3 GT ISZERO PUSH3 0xC98 JUMPI PUSH3 0xC97 PUSH3 0x886 JUMP JUMPDEST JUMPDEST SWAP3 SWAP2 POP POP JUMP JUMPDEST PUSH3 0xCA9 DUP2 PUSH3 0x64B JUMP JUMPDEST DUP3 MSTORE POP POP JUMP JUMPDEST PUSH1 0x0 PUSH1 0x20 DUP3 ADD SWAP1 POP PUSH3 0xCC6 PUSH1 0x0 DUP4 ADD DUP5 PUSH3 0xC9E JUMP JUMPDEST SWAP3 SWAP2 POP POP JUMP JUMPDEST PUSH2 0x21B7 DUP1 PUSH3 0xCDC PUSH1 0x0 CODECOPY PUSH1 0x0 RETURN INVALID PUSH1 0x80 PUSH1 0x40 MSTORE PUSH1 0x4 CALLDATASIZE LT PUSH2 0x139 JUMPI PUSH1 0x0 CALLDATALOAD PUSH1 0xE0 SHR DUP1 PUSH4 0x70A08231 GT PUSH2 0xAB JUMPI DUP1 PUSH4 0xA9059CBB GT PUSH2 0x6F JUMPI DUP1 PUSH4 0xA9059CBB EQ PUSH2 0x52D JUMPI DUP1 PUSH4 0xB09F1266 EQ PUSH2 0x56A JUMPI DUP1 PUSH4 0xD28D8852 EQ PUSH2 0x595 JUMPI DUP1 PUSH4 0xD3866F5A EQ PUSH2 0x5C0 JUMPI DUP1 PUSH4 0xDD62ED3E EQ PUSH2 0x5E9 JUMPI DUP1 PUSH4 0xF2FDE38B EQ PUSH2 0x626 JUMPI PUSH2 0x245 JUMP JUMPDEST DUP1 PUSH4 0x70A08231 EQ PUSH2 0x446 JUMPI DUP1 PUSH4 0x715018A6 EQ PUSH2 0x483 JUMPI DUP1 PUSH4 0x8DA5CB5B EQ PUSH2 0x49A JUMPI DUP1 PUSH4 0x95D89B41 EQ PUSH2 0x4C5 JUMPI DUP1 PUSH4 0xA457C2D7 EQ PUSH2 0x4F0 JUMPI PUSH2 0x245 JUMP JUMPDEST DUP1 PUSH4 0x2C4E722E GT PUSH2 0xFD JUMPI DUP1 PUSH4 0x2C4E722E EQ PUSH2 0x336 JUMPI DUP1 PUSH4 0x313CE567 EQ PUSH2 0x361 JUMPI DUP1 PUSH4 0x39509351 EQ PUSH2 0x38C JUMPI DUP1 PUSH4 0x3EAAF86B EQ PUSH2 0x3C9 JUMPI DUP1 PUSH4 0x40C10F19 EQ PUSH2 0x3F4 JUMPI DUP1 PUSH4 0x4BDFA913 EQ PUSH2 0x41D JUMPI PUSH2 0x245 JUMP JUMPDEST DUP1 PUSH4 0x6FDDE03 EQ PUSH2 0x24A JUMPI DUP1 PUSH4 0x95EA7B3 EQ PUSH2 0x275 JUMPI DUP1 PUSH4 0x18160DDD EQ PUSH2 0x2B2 JUMPI DUP1 PUSH4 0x2397E4D7 EQ PUSH2 0x2DD JUMPI DUP1 PUSH4 0x23B872DD EQ PUSH2 0x2F9 JUMPI PUSH2 0x245 JUMP JUMPDEST CALLDATASIZE PUSH2 0x245 JUMPI PUSH1 0x0 CALLVALUE SUB PUSH2 0x181 JUMPI PUSH1 0x40 MLOAD PUSH32 0x8C379A000000000000000000000000000000000000000000000000000000000 DUP2 MSTORE PUSH1 0x4 ADD PUSH2 0x178 SWAP1 PUSH2 0x161A JUMP JUMPDEST PUSH1 0x40 MLOAD DUP1 SWAP2 SUB SWAP1 REVERT JUMPDEST PUSH1 0x0 PUSH1 0x9 SLOAD CALLVALUE PUSH2 0x191 SWAP2 SWAP1 PUSH2 0x1673 JUMP JUMPDEST SWAP1 POP DUP1 PUSH2 0x1A4 PUSH2 0x19F PUSH2 0x64F JUMP JUMPDEST PUSH2 0x679 JUMP JUMPDEST LT ISZERO PUSH2 0x1E5 JUMPI PUSH1 0x40 MLOAD PUSH32 0x8C379A000000000000000000000000000000000000000000000000000000000 DUP2 MSTORE PUSH1 0x4 ADD PUSH2 0x1DC SWAP1 PUSH2 0x1701 JUMP JUMPDEST PUSH1 0x40 MLOAD DUP1 SWAP2 SUB SWAP1 REVERT JUMPDEST PUSH2 0x1F7 PUSH2 0x1F0 PUSH2 0x64F JUMP JUMPDEST CALLER DUP4 PUSH2 0x6C1 JUMP JUMPDEST PUSH2 0x1FF PUSH2 0x64F JUMP JUMPDEST PUSH20 0xFFFFFFFFFFFFFFFFFFFFFFFFFFFFFFFFFFFFFFFF AND CALLER PUSH20 0xFFFFFFFFFFFFFFFFFFFFFFFFFFFFFFFFFFFFFFFF AND SUB PUSH2 0x243 JUMPI PUSH2 0x242 PUSH2 0x23C PUSH2 0x64F JUMP JUMPDEST DUP3 PUSH2 0x770 JUMP JUMPDEST JUMPDEST STOP JUMPDEST PUSH1 0x0 DUP1 REVERT JUMPDEST CALLVALUE DUP1 ISZERO PUSH2 0x256 JUMPI PUSH1 0x0 DUP1 REVERT JUMPDEST POP PUSH2 0x25F PUSH2 0x8CF JUMP JUMPDEST PUSH1 0x40 MLOAD PUSH2 0x26C SWAP2 SWAP1 PUSH2 0x17A0 JUMP JUMPDEST PUSH1 0x40 MLOAD DUP1 SWAP2 SUB SWAP1 RETURN JUMPDEST CALLVALUE DUP1 ISZERO PUSH2 0x281 JUMPI PUSH1 0x0 DUP1 REVERT JUMPDEST POP PUSH2 0x29C PUSH1 0x4 DUP1 CALLDATASIZE SUB DUP2 ADD SWAP1 PUSH2 0x297 SWAP2 SWAP1 PUSH2 0x1851 JUMP JUMPDEST PUSH2 0x961 JUMP JUMPDEST PUSH1 0x40 MLOAD PUSH2 0x2A9 SWAP2 SWAP1 PUSH2 0x18AC JUMP JUMPDEST PUSH1 0x40 MLOAD DUP1 SWAP2 SUB SWAP1 RETURN JUMPDEST CALLVALUE DUP1 ISZERO PUSH2 0x2BE JUMPI PUSH1 0x0 DUP1 REVERT JUMPDEST POP PUSH2 0x2C7 PUSH2 0x984 JUMP JUMPDEST PUSH1 0x40 MLOAD PUSH2 0x2D4 SWAP2 SWAP1 PUSH2 0x18D6 JUMP JUMPDEST PUSH1 0x40 MLOAD DUP1 SWAP2 SUB SWAP1 RETURN JUMPDEST PUSH2 0x2F7 PUSH1 0x4 DUP1 CALLDATASIZE SUB DUP2 ADD SWAP1 PUSH2 0x2F2 SWAP2 SWAP1 PUSH2 0x18F1 JUMP JUMPDEST PUSH2 0x98E JUMP JUMPDEST STOP JUMPDEST CALLVALUE DUP1 ISZERO PUSH2 0x305 JUMPI PUSH1 0x0 DUP1 REVERT JUMPDEST POP PUSH2 0x320 PUSH1 0x4 DUP1 CALLDATASIZE SUB DUP2 ADD SWAP1 PUSH2 0x31B SWAP2 SWAP1 PUSH2 0x191E JUMP JUMPDEST PUSH2 0xA8B JUMP JUMPDEST PUSH1 0x40 MLOAD PUSH2 0x32D SWAP2 SWAP1 PUSH2 0x18AC JUMP JUMPDEST PUSH1 0x40 MLOAD DUP1 SWAP2 SUB SWAP1 RETURN JUMPDEST CALLVALUE DUP1 ISZERO PUSH2 0x342 JUMPI PUSH1 0x0 DUP1 REVERT JUMPDEST POP PUSH2 0x34B PUSH2 0xABA JUMP JUMPDEST PUSH1 0x40 MLOAD PUSH2 0x358 SWAP2 SWAP1 PUSH2 0x18D6 JUMP JUMPDEST PUSH1 0x40 MLOAD DUP1 SWAP2 SUB SWAP1 RETURN JUMPDEST CALLVALUE DUP1 ISZERO PUSH2 0x36D JUMPI PUSH1 0x0 DUP1 REVERT JUMPDEST POP PUSH2 0x376 PUSH2 0xAC0 JUMP JUMPDEST PUSH1 0x40 MLOAD PUSH2 0x383 SWAP2 SWAP1 PUSH2 0x198D JUMP JUMPDEST PUSH1 0x40 MLOAD DUP1 SWAP2 SUB SWAP1 RETURN JUMPDEST CALLVALUE DUP1 ISZERO PUSH2 0x398 JUMPI PUSH1 0x0 DUP1 REVERT JUMPDEST POP PUSH2 0x3B3 PUSH1 0x4 DUP1 CALLDATASIZE SUB DUP2 ADD SWAP1 PUSH2 0x3AE SWAP2 SWAP1 PUSH2 0x1851 JUMP JUMPDEST PUSH2 0xAC9 JUMP JUMPDEST PUSH1 0x40 MLOAD PUSH2 0x3C0 SWAP2 SWAP1 PUSH2 0x18AC JUMP JUMPDEST PUSH1 0x40 MLOAD DUP1 SWAP2 SUB SWAP1 RETURN JUMPDEST CALLVALUE DUP1 ISZERO PUSH2 0x3D5 JUMPI PUSH1 0x0 DUP1 REVERT JUMPDEST POP PUSH2 0x3DE PUSH2 0xB00 JUMP JUMPDEST PUSH1 0x40 MLOAD PUSH2 0x3EB SWAP2 SWAP1 PUSH2 0x18D6 JUMP JUMPDEST PUSH1 0x40 MLOAD DUP1 SWAP2 SUB SWAP1 RETURN JUMPDEST CALLVALUE DUP1 ISZERO PUSH2 0x400 JUMPI PUSH1 0x0 DUP1 REVERT JUMPDEST POP PUSH2 0x41B PUSH1 0x4 DUP1 CALLDATASIZE SUB DUP2 ADD SWAP1 PUSH2 0x416 SWAP2 SWAP1 PUSH2 0x1851 JUMP JUMPDEST PUSH2 0xB06 JUMP JUMPDEST STOP JUMPDEST CALLVALUE DUP1 ISZERO PUSH2 0x429 JUMPI PUSH1 0x0 DUP1 REVERT JUMPDEST POP PUSH2 0x444 PUSH1 0x4 DUP1 CALLDATASIZE SUB DUP2 ADD SWAP1 PUSH2 0x43F SWAP2 SWAP1 PUSH2 0x191E JUMP JUMPDEST PUSH2 0xB14 JUMP JUMPDEST STOP JUMPDEST CALLVALUE DUP1 ISZERO PUSH2 0x452 JUMPI PUSH1 0x0 DUP1 REVERT JUMPDEST POP PUSH2 0x46D PUSH1 0x4 DUP1 CALLDATASIZE SUB DUP2 ADD SWAP1 PUSH2 0x468 SWAP2 SWAP1 PUSH2 0x19A8 JUMP JUMPDEST PUSH2 0x679 JUMP JUMPDEST PUSH1 0x40 MLOAD PUSH2 0x47A SWAP2 SWAP1 PUSH2 0x18D6 JUMP JUMPDEST PUSH1 0x40 MLOAD DUP1 SWAP2 SUB SWAP1 RETURN JUMPDEST CALLVALUE DUP1 ISZERO PUSH2 0x48F JUMPI PUSH1 0x0 DUP1 REVERT JUMPDEST POP PUSH2 0x498 PUSH2 0xBC3 JUMP JUMPDEST STOP JUMPDEST CALLVALUE DUP1 ISZERO PUSH2 0x4A6 JUMPI PUSH1 0x0 DUP1 REVERT JUMPDEST POP PUSH2 0x4AF PUSH2 0x64F JUMP JUMPDEST PUSH1 0x40 MLOAD PUSH2 0x4BC SWAP2 SWAP1 PUSH2 0x19E4 JUMP JUMPDEST PUSH1 0x40 MLOAD DUP1 SWAP2 SUB SWAP1 RETURN JUMPDEST CALLVALUE DUP1 ISZERO PUSH2 0x4D1 JUMPI PUSH1 0x0 DUP1 REVERT JUMPDEST POP PUSH2 0x4DA PUSH2 0xC4B JUMP JUMPDEST PUSH1 0x40 MLOAD PUSH2 0x4E7 SWAP2 SWAP1 PUSH2 0x17A0 JUMP JUMPDEST PUSH1 0x40 MLOAD DUP1 SWAP2 SUB SWAP1 RETURN JUMPDEST CALLVALUE DUP1 ISZERO PUSH2 0x4FC JUMPI PUSH1 0x0 DUP1 REVERT JUMPDEST POP PUSH2 0x517 PUSH1 0x4 DUP1 CALLDATASIZE SUB DUP2 ADD SWAP1 PUSH2 0x512 SWAP2 SWAP1 PUSH2 0x1851 JUMP JUMPDEST PUSH2 0xCDD JUMP JUMPDEST PUSH1 0x40 MLOAD PUSH2 0x524 SWAP2 SWAP1 PUSH2 0x18AC JUMP JUMPDEST PUSH1 0x40 MLOAD DUP1 SWAP2 SUB SWAP1 RETURN JUMPDEST CALLVALUE DUP1 ISZERO PUSH2 0x539 JUMPI PUSH1 0x0 DUP1 REVERT JUMPDEST POP PUSH2 0x554 PUSH1 0x4 DUP1 CALLDATASIZE SUB DUP2 ADD SWAP1 PUSH2 0x54F SWAP2 SWAP1 PUSH2 0x1851 JUMP JUMPDEST PUSH2 0xD54 JUMP JUMPDEST PUSH1 0x40 MLOAD PUSH2 0x561 SWAP2 SWAP1 PUSH2 0x18AC JUMP JUMPDEST PUSH1 0x40 MLOAD DUP1 SWAP2 SUB SWAP1 RETURN JUMPDEST CALLVALUE DUP1 ISZERO PUSH2 0x576 JUMPI PUSH1 0x0 DUP1 REVERT JUMPDEST POP PUSH2 0x57F PUSH2 0xD77 JUMP JUMPDEST PUSH1 0x40 MLOAD PUSH2 0x58C SWAP2 SWAP1 PUSH2 0x17A0 JUMP JUMPDEST PUSH1 0x40 MLOAD DUP1 SWAP2 SUB SWAP1 RETURN JUMPDEST CALLVALUE DUP1 ISZERO PUSH2 0x5A1 JUMPI PUSH1 0x0 DUP1 REVERT JUMPDEST POP PUSH2 0x5AA PUSH2 0xE05 JUMP JUMPDEST PUSH1 0x40 MLOAD PUSH2 0x5B7 SWAP2 SWAP1 PUSH2 0x17A0 JUMP JUMPDEST PUSH1 0x40 MLOAD DUP1 SWAP2 SUB SWAP1 RETURN JUMPDEST CALLVALUE DUP1 ISZERO PUSH2 0x5CC JUMPI PUSH1 0x0 DUP1 REVERT JUMPDEST POP PUSH2 0x5E7 PUSH1 0x4 DUP1 CALLDATASIZE SUB DUP2 ADD SWAP1 PUSH2 0x5E2 SWAP2 SWAP1 PUSH2 0x191E JUMP JUMPDEST PUSH2 0x6C1 JUMP JUMPDEST STOP JUMPDEST CALLVALUE DUP1 ISZERO PUSH2 0x5F5 JUMPI PUSH1 0x0 DUP1 REVERT JUMPDEST POP PUSH2 0x610 PUSH1 0x4 DUP1 CALLDATASIZE SUB DUP2 ADD SWAP1 PUSH2 0x60B SWAP2 SWAP1 PUSH2 0x19FF JUMP JUMPDEST PUSH2 0xE93 JUMP JUMPDEST PUSH1 0x40 MLOAD PUSH2 0x61D SWAP2 SWAP1 PUSH2 0x18D6 JUMP JUMPDEST PUSH1 0x40 MLOAD DUP1 SWAP2 SUB SWAP1 RETURN JUMPDEST CALLVALUE DUP1 ISZERO PUSH2 0x632 JUMPI PUSH1 0x0 DUP1 REVERT JUMPDEST POP PUSH2 0x64D PUSH1 0x4 DUP1 CALLDATASIZE SUB DUP2 ADD SWAP1 PUSH2 0x648 SWAP2 SWAP1 PUSH2 0x19A8 JUMP JUMPDEST PUSH2 0xF1A JUMP JUMPDEST STOP JUMPDEST PUSH1 0x0 PUSH1 0x5 PUSH1 0x0 SWAP1 SLOAD SWAP1 PUSH2 0x100 EXP SWAP1 DIV PUSH20 0xFFFFFFFFFFFFFFFFFFFFFFFFFFFFFFFFFFFFFFFF AND SWAP1 POP SWAP1 JUMP JUMPDEST PUSH1 0x0 DUP1 PUSH1 0x0 DUP4 PUSH20 0xFFFFFFFFFFFFFFFFFFFFFFFFFFFFFFFFFFFFFFFF AND PUSH20 0xFFFFFFFFFFFFFFFFFFFFFFFFFFFFFFFFFFFFFFFF AND DUP2 MSTORE PUSH1 0x20 ADD SWAP1 DUP2 MSTORE PUSH1 0x20 ADD PUSH1 0x0 KECCAK256 SLOAD SWAP1 POP SWAP2 SWAP1 POP JUMP JUMPDEST DUP1 PUSH1 0x0 DUP1 DUP6 PUSH20 0xFFFFFFFFFFFFFFFFFFFFFFFFFFFFFFFFFFFFFFFF AND PUSH20 0xFFFFFFFFFFFFFFFFFFFFFFFFFFFFFFFFFFFFFFFF AND DUP2 MSTORE PUSH1 0x20 ADD SWAP1 DUP2 MSTORE PUSH1 0x20 ADD PUSH1 0x0 KECCAK256 PUSH1 0x0 DUP3 DUP3 SLOAD PUSH2 0x70F SWAP2 SWAP1 PUSH2 0x1A3F JUMP JUMPDEST SWAP3 POP POP DUP2 SWAP1 SSTORE POP DUP1 PUSH1 0x0 DUP1 DUP5 PUSH20 0xFFFFFFFFFFFFFFFFFFFFFFFFFFFFFFFFFFFFFFFF AND PUSH20 0xFFFFFFFFFFFFFFFFFFFFFFFFFFFFFFFFFFFFFFFF AND DUP2 MSTORE PUSH1 0x20 ADD SWAP1 DUP2 MSTORE PUSH1 0x20 ADD PUSH1 0x0 KECCAK256 PUSH1 0x0 DUP3 DUP3 SLOAD PUSH2 0x764 SWAP2 SWAP1 PUSH2 0x1A73 JUMP JUMPDEST SWAP3 POP POP DUP2 SWAP1 SSTORE POP POP POP POP JUMP JUMPDEST PUSH1 0x0 PUSH20 0xFFFFFFFFFFFFFFFFFFFFFFFFFFFFFFFFFFFFFFFF AND DUP3 PUSH20 0xFFFFFFFFFFFFFFFFFFFFFFFFFFFFFFFFFFFFFFFF AND SUB PUSH2 0x7DF JUMPI PUSH1 0x40 MLOAD PUSH32 0x8C379A000000000000000000000000000000000000000000000000000000000 DUP2 MSTORE PUSH1 0x4 ADD PUSH2 0x7D6 SWAP1 PUSH2 0x1AF3 JUMP JUMPDEST PUSH1 0x40 MLOAD DUP1 SWAP2 SUB SWAP1 REVERT JUMPDEST PUSH2 0x7EB PUSH1 0x0 DUP4 DUP4 PUSH2 0x1011 JUMP JUMPDEST DUP1 PUSH1 0x2 PUSH1 0x0 DUP3 DUP3 SLOAD PUSH2 0x7FD SWAP2 SWAP1 PUSH2 0x1A73 JUMP JUMPDEST SWAP3 POP POP DUP2 SWAP1 SSTORE POP DUP1 PUSH1 0x0 DUP1 DUP5 PUSH20 0xFFFFFFFFFFFFFFFFFFFFFFFFFFFFFFFFFFFFFFFF AND PUSH20 0xFFFFFFFFFFFFFFFFFFFFFFFFFFFFFFFFFFFFFFFF AND DUP2 MSTORE PUSH1 0x20 ADD SWAP1 DUP2 MSTORE PUSH1 0x20 ADD PUSH1 0x0 KECCAK256 PUSH1 0x0 DUP3 DUP3 SLOAD PUSH2 0x852 SWAP2 SWAP1 PUSH2 0x1A73 JUMP JUMPDEST SWAP3 POP POP DUP2 SWAP1 SSTORE POP DUP2 PUSH20 0xFFFFFFFFFFFFFFFFFFFFFFFFFFFFFFFFFFFFFFFF AND PUSH1 0x0 PUSH20 0xFFFFFFFFFFFFFFFFFFFFFFFFFFFFFFFFFFFFFFFF AND PUSH32 0xDDF252AD1BE2C89B69C2B068FC378DAA952BA7F163C4A11628F55A4DF523B3EF DUP4 PUSH1 0x40 MLOAD PUSH2 0x8B7 SWAP2 SWAP1 PUSH2 0x18D6 JUMP JUMPDEST PUSH1 0x40 MLOAD DUP1 SWAP2 SUB SWAP1 LOG3 PUSH2 0x8CB PUSH1 0x0 DUP4 DUP4 PUSH2 0x1016 JUMP JUMPDEST POP POP JUMP JUMPDEST PUSH1 0x60 PUSH1 0x3 DUP1 SLOAD PUSH2 0x8DE SWAP1 PUSH2 0x1B42 JUMP JUMPDEST DUP1 PUSH1 0x1F ADD PUSH1 0x20 DUP1 SWAP2 DIV MUL PUSH1 0x20 ADD PUSH1 0x40 MLOAD SWAP1 DUP2 ADD PUSH1 0x40 MSTORE DUP1 SWAP3 SWAP2 SWAP1 DUP2 DUP2 MSTORE PUSH1 0x20 ADD DUP3 DUP1 SLOAD PUSH2 0x90A SWAP1 PUSH2 0x1B42 JUMP JUMPDEST DUP1 ISZERO PUSH2 0x957 JUMPI DUP1 PUSH1 0x1F LT PUSH2 0x92C JUMPI PUSH2 0x100 DUP1 DUP4 SLOAD DIV MUL DUP4 MSTORE SWAP2 PUSH1 0x20 ADD SWAP2 PUSH2 0x957 JUMP JUMPDEST DUP3 ADD SWAP2 SWAP1 PUSH1 0x0 MSTORE PUSH1 0x20 PUSH1 0x0 KECCAK256 SWAP1 JUMPDEST DUP2 SLOAD DUP2 MSTORE SWAP1 PUSH1 0x1 ADD SWAP1 PUSH1 0x20 ADD DUP1 DUP4 GT PUSH2 0x93A JUMPI DUP3 SWAP1 SUB PUSH1 0x1F AND DUP3 ADD SWAP2 JUMPDEST POP POP POP POP POP SWAP1 POP SWAP1 JUMP JUMPDEST PUSH1 0x0 DUP1 PUSH2 0x96C PUSH2 0x101B JUMP JUMPDEST SWAP1 POP PUSH2 0x979 DUP2 DUP6 DUP6 PUSH2 0x1023 JUMP JUMPDEST PUSH1 0x1 SWAP2 POP POP SWAP3 SWAP2 POP POP JUMP JUMPDEST PUSH1 0x0 PUSH1 0x2 SLOAD SWAP1 POP SWAP1 JUMP JUMPDEST DUP1 PUSH2 0x998 CALLER PUSH2 0x679 JUMP JUMPDEST LT ISZERO PUSH2 0x9D9 JUMPI PUSH1 0x40 MLOAD PUSH32 0x8C379A000000000000000000000000000000000000000000000000000000000 DUP2 MSTORE PUSH1 0x4 ADD PUSH2 0x9D0 SWAP1 PUSH2 0x1BBF JUMP JUMPDEST PUSH1 0x40 MLOAD DUP1 SWAP2 SUB SWAP1 REVERT JUMPDEST PUSH1 0x0 PUSH1 0x9 SLOAD DUP3 PUSH2 0x9E9 SWAP2 SWAP1 PUSH2 0x1C0E JUMP JUMPDEST SWAP1 POP DUP1 SELFBALANCE LT ISZERO PUSH2 0xA2E JUMPI PUSH1 0x40 MLOAD PUSH32 0x8C379A000000000000000000000000000000000000000000000000000000000 DUP2 MSTORE PUSH1 0x4 ADD PUSH2 0xA25 SWAP1 PUSH2 0x1C8B JUMP JUMPDEST PUSH1 0x40 MLOAD DUP1 SWAP2 SUB SWAP1 REVERT JUMPDEST PUSH2 0xA40 PUSH2 0xA39 PUSH2 0x64F JUMP JUMPDEST CALLER DUP5 PUSH2 0xB14 JUMP JUMPDEST CALLER PUSH20 0xFFFFFFFFFFFFFFFFFFFFFFFFFFFFFFFFFFFFFFFF AND PUSH2 0x8FC DUP3 SWAP1 DUP2 ISZERO MUL SWAP1 PUSH1 0x40 MLOAD PUSH1 0x0 PUSH1 0x40 MLOAD DUP1 DUP4 SUB DUP2 DUP6 DUP9 DUP9 CALL SWAP4 POP POP POP POP ISZERO DUP1 ISZERO PUSH2 0xA86 JUMPI RETURNDATASIZE PUSH1 0x0 DUP1 RETURNDATACOPY RETURNDATASIZE PUSH1 0x0 REVERT JUMPDEST POP POP POP JUMP JUMPDEST PUSH1 0x0 DUP1 PUSH2 0xA96 PUSH2 0x101B JUMP JUMPDEST SWAP1 POP PUSH2 0xAA3 DUP6 DUP3 DUP6 PUSH2 0x11EC JUMP JUMPDEST PUSH2 0xAAE DUP6 DUP6 DUP6 PUSH2 0x1278 JUMP JUMPDEST PUSH1 0x1 SWAP2 POP POP SWAP4 SWAP3 POP POP POP JUMP JUMPDEST PUSH1 0x9 SLOAD DUP2 JUMP JUMPDEST PUSH1 0x0 PUSH1 0x12 SWAP1 POP SWAP1 JUMP JUMPDEST PUSH1 0x0 DUP1 PUSH2 0xAD4 PUSH2 0x101B JUMP JUMPDEST SWAP1 POP PUSH2 0xAF5 DUP2 DUP6 DUP6 PUSH2 0xAE6 DUP6 DUP10 PUSH2 0xE93 JUMP JUMPDEST PUSH2 0xAF0 SWAP2 SWAP1 PUSH2 0x1A73 JUMP JUMPDEST PUSH2 0x1023 JUMP JUMPDEST PUSH1 0x1 SWAP2 POP POP SWAP3 SWAP2 POP POP JUMP JUMPDEST PUSH1 0x8 SLOAD DUP2 JUMP JUMPDEST PUSH2 0xB10 DUP3 DUP3 PUSH2 0x770 JUMP JUMPDEST POP POP JUMP JUMPDEST DUP1 PUSH1 0x0 DUP1 DUP6 PUSH20 0xFFFFFFFFFFFFFFFFFFFFFFFFFFFFFFFFFFFFFFFF AND PUSH20 0xFFFFFFFFFFFFFFFFFFFFFFFFFFFFFFFFFFFFFFFF AND DUP2 MSTORE PUSH1 0x20 ADD SWAP1 DUP2 MSTORE PUSH1 0x20 ADD PUSH1 0x0 KECCAK256 PUSH1 0x0 DUP3 DUP3 SLOAD PUSH2 0xB62 SWAP2 SWAP1 PUSH2 0x1A73 JUMP JUMPDEST SWAP3 POP POP DUP2 SWAP1 SSTORE POP DUP1 PUSH1 0x0 DUP1 DUP5 PUSH20 0xFFFFFFFFFFFFFFFFFFFFFFFFFFFFFFFFFFFFFFFF AND PUSH20 0xFFFFFFFFFFFFFFFFFFFFFFFFFFFFFFFFFFFFFFFF AND DUP2 MSTORE PUSH1 0x20 ADD SWAP1 DUP2 MSTORE PUSH1 0x20 ADD PUSH1 0x0 KECCAK256 PUSH1 0x0 DUP3 DUP3 SLOAD PUSH2 0xBB7 SWAP2 SWAP1 PUSH2 0x1A3F JUMP JUMPDEST SWAP3 POP POP DUP2 SWAP1 SSTORE POP POP POP POP JUMP JUMPDEST PUSH2 0xBCB PUSH2 0x101B JUMP JUMPDEST PUSH20 0xFFFFFFFFFFFFFFFFFFFFFFFFFFFFFFFFFFFFFFFF AND PUSH2 0xBE9 PUSH2 0x64F JUMP JUMPDEST PUSH20 0xFFFFFFFFFFFFFFFFFFFFFFFFFFFFFFFFFFFFFFFF AND EQ PUSH2 0xC3F JUMPI PUSH1 0x40 MLOAD PUSH32 0x8C379A000000000000000000000000000000000000000000000000000000000 DUP2 MSTORE PUSH1 0x4 ADD PUSH2 0xC36 SWAP1 PUSH2 0x1CF7 JUMP JUMPDEST PUSH1 0x40 MLOAD DUP1 SWAP2 SUB SWAP1 REVERT JUMPDEST PUSH2 0xC49 PUSH1 0x0 PUSH2 0x14F7 JUMP JUMPDEST JUMP JUMPDEST PUSH1 0x60 PUSH1 0x4 DUP1 SLOAD PUSH2 0xC5A SWAP1 PUSH2 0x1B42 JUMP JUMPDEST DUP1 PUSH1 0x1F ADD PUSH1 0x20 DUP1 SWAP2 DIV MUL PUSH1 0x20 ADD PUSH1 0x40 MLOAD SWAP1 DUP2 ADD PUSH1 0x40 MSTORE DUP1 SWAP3 SWAP2 SWAP1 DUP2 DUP2 MSTORE PUSH1 0x20 ADD DUP3 DUP1 SLOAD PUSH2 0xC86 SWAP1 PUSH2 0x1B42 JUMP JUMPDEST DUP1 ISZERO PUSH2 0xCD3 JUMPI DUP1 PUSH1 0x1F LT PUSH2 0xCA8 JUMPI PUSH2 0x100 DUP1 DUP4 SLOAD DIV MUL DUP4 MSTORE SWAP2 PUSH1 0x20 ADD SWAP2 PUSH2 0xCD3 JUMP JUMPDEST DUP3 ADD SWAP2 SWAP1 PUSH1 0x0 MSTORE PUSH1 0x20 PUSH1 0x0 KECCAK256 SWAP1 JUMPDEST DUP2 SLOAD DUP2 MSTORE SWAP1 PUSH1 0x1 ADD SWAP1 PUSH1 0x20 ADD DUP1 DUP4 GT PUSH2 0xCB6 JUMPI DUP3 SWAP1 SUB PUSH1 0x1F AND DUP3 ADD SWAP2 JUMPDEST POP POP POP POP POP SWAP1 POP SWAP1 JUMP JUMPDEST PUSH1 0x0 DUP1 PUSH2 0xCE8 PUSH2 0x101B JUMP JUMPDEST SWAP1 POP PUSH1 0x0 PUSH2 0xCF6 DUP3 DUP7 PUSH2 0xE93 JUMP JUMPDEST SWAP1 POP DUP4 DUP2 LT ISZERO PUSH2 0xD3B JUMPI PUSH1 0x40 MLOAD PUSH32 0x8C379A000000000000000000000000000000000000000000000000000000000 DUP2 MSTORE PUSH1 0x4 ADD PUSH2 0xD32 SWAP1 PUSH2 0x1D89 JUMP JUMPDEST PUSH1 0x40 MLOAD DUP1 SWAP2 SUB SWAP1 REVERT JUMPDEST PUSH2 0xD48 DUP3 DUP7 DUP7 DUP5 SUB PUSH2 0x1023 JUMP JUMPDEST PUSH1 0x1 SWAP3 POP POP POP SWAP3 SWAP2 POP POP JUMP JUMPDEST PUSH1 0x0 DUP1 PUSH2 0xD5F PUSH2 0x101B JUMP JUMPDEST SWAP1 POP PUSH2 0xD6C DUP2 DUP6 DUP6 PUSH2 0x1278 JUMP JUMPDEST PUSH1 0x1 SWAP2 POP POP SWAP3 SWAP2 POP POP JUMP JUMPDEST PUSH1 0x7 DUP1 SLOAD PUSH2 0xD84 SWAP1 PUSH2 0x1B42 JUMP JUMPDEST DUP1 PUSH1 0x1F ADD PUSH1 0x20 DUP1 SWAP2 DIV MUL PUSH1 0x20 ADD PUSH1 0x40 MLOAD SWAP1 DUP2 ADD PUSH1 0x40 MSTORE DUP1 SWAP3 SWAP2 SWAP1 DUP2 DUP2 MSTORE PUSH1 0x20 ADD DUP3 DUP1 SLOAD PUSH2 0xDB0 SWAP1 PUSH2 0x1B42 JUMP JUMPDEST DUP1 ISZERO PUSH2 0xDFD JUMPI DUP1 PUSH1 0x1F LT PUSH2 0xDD2 JUMPI PUSH2 0x100 DUP1 DUP4 SLOAD DIV MUL DUP4 MSTORE SWAP2 PUSH1 0x20 ADD SWAP2 PUSH2 0xDFD JUMP JUMPDEST DUP3 ADD SWAP2 SWAP1 PUSH1 0x0 MSTORE PUSH1 0x20 PUSH1 0x0 KECCAK256 SWAP1 JUMPDEST DUP2 SLOAD DUP2 MSTORE SWAP1 PUSH1 0x1 ADD SWAP1 PUSH1 0x20 ADD DUP1 DUP4 GT PUSH2 0xDE0 JUMPI DUP3 SWAP1 SUB PUSH1 0x1F AND DUP3 ADD SWAP2 JUMPDEST POP POP POP POP POP DUP2 JUMP JUMPDEST PUSH1 0x6 DUP1 SLOAD PUSH2 0xE12 SWAP1 PUSH2 0x1B42 JUMP JUMPDEST DUP1 PUSH1 0x1F ADD PUSH1 0x20 DUP1 SWAP2 DIV MUL PUSH1 0x20 ADD PUSH1 0x40 MLOAD SWAP1 DUP2 ADD PUSH1 0x40 MSTORE DUP1 SWAP3 SWAP2 SWAP1 DUP2 DUP2 MSTORE PUSH1 0x20 ADD DUP3 DUP1 SLOAD PUSH2 0xE3E SWAP1 PUSH2 0x1B42 JUMP JUMPDEST DUP1 ISZERO PUSH2 0xE8B JUMPI DUP1 PUSH1 0x1F LT PUSH2 0xE60 JUMPI PUSH2 0x100 DUP1 DUP4 SLOAD DIV MUL DUP4 MSTORE SWAP2 PUSH1 0x20 ADD SWAP2 PUSH2 0xE8B JUMP JUMPDEST DUP3 ADD SWAP2 SWAP1 PUSH1 0x0 MSTORE PUSH1 0x20 PUSH1 0x0 KECCAK256 SWAP1 JUMPDEST DUP2 SLOAD DUP2 MSTORE SWAP1 PUSH1 0x1 ADD SWAP1 PUSH1 0x20 ADD DUP1 DUP4 GT PUSH2 0xE6E JUMPI DUP3 SWAP1 SUB PUSH1 0x1F AND DUP3 ADD SWAP2 JUMPDEST POP POP POP POP POP DUP2 JUMP JUMPDEST PUSH1 0x0 PUSH1 0x1 PUSH1 0x0 DUP5 PUSH20 0xFFFFFFFFFFFFFFFFFFFFFFFFFFFFFFFFFFFFFFFF AND PUSH20 0xFFFFFFFFFFFFFFFFFFFFFFFFFFFFFFFFFFFFFFFF AND DUP2 MSTORE PUSH1 0x20 ADD SWAP1 DUP2 MSTORE PUSH1 0x20 ADD PUSH1 0x0 KECCAK256 PUSH1 0x0 DUP4 PUSH20 0xFFFFFFFFFFFFFFFFFFFFFFFFFFFFFFFFFFFFFFFF AND PUSH20 0xFFFFFFFFFFFFFFFFFFFFFFFFFFFFFFFFFFFFFFFF AND DUP2 MSTORE PUSH1 0x20 ADD SWAP1 DUP2 MSTORE PUSH1 0x20 ADD PUSH1 0x0 KECCAK256 SLOAD SWAP1 POP SWAP3 SWAP2 POP POP JUMP JUMPDEST PUSH2 0xF22 PUSH2 0x101B JUMP JUMPDEST PUSH20 0xFFFFFFFFFFFFFFFFFFFFFFFFFFFFFFFFFFFFFFFF AND PUSH2 0xF40 PUSH2 0x64F JUMP JUMPDEST PUSH20 0xFFFFFFFFFFFFFFFFFFFFFFFFFFFFFFFFFFFFFFFF AND EQ PUSH2 0xF96 JUMPI PUSH1 0x40 MLOAD PUSH32 0x8C379A000000000000000000000000000000000000000000000000000000000 DUP2 MSTORE PUSH1 0x4 ADD PUSH2 0xF8D SWAP1 PUSH2 0x1CF7 JUMP JUMPDEST PUSH1 0x40 MLOAD DUP1 SWAP2 SUB SWAP1 REVERT JUMPDEST PUSH1 0x0 PUSH20 0xFFFFFFFFFFFFFFFFFFFFFFFFFFFFFFFFFFFFFFFF AND DUP2 PUSH20 0xFFFFFFFFFFFFFFFFFFFFFFFFFFFFFFFFFFFFFFFF AND SUB PUSH2 0x1005 JUMPI PUSH1 0x40 MLOAD PUSH32 0x8C379A000000000000000000000000000000000000000000000000000000000 DUP2 MSTORE PUSH1 0x4 ADD PUSH2 0xFFC SWAP1 PUSH2 0x1E1B JUMP JUMPDEST PUSH1 0x40 MLOAD DUP1 SWAP2 SUB SWAP1 REVERT JUMPDEST PUSH2 0x100E DUP2 PUSH2 0x14F7 JUMP JUMPDEST POP JUMP JUMPDEST POP POP POP JUMP JUMPDEST POP POP POP JUMP JUMPDEST PUSH1 0x0 CALLER SWAP1 POP SWAP1 JUMP JUMPDEST PUSH1 0x0 PUSH20 0xFFFFFFFFFFFFFFFFFFFFFFFFFFFFFFFFFFFFFFFF AND DUP4 PUSH20 0xFFFFFFFFFFFFFFFFFFFFFFFFFFFFFFFFFFFFFFFF AND SUB PUSH2 0x1092 JUMPI PUSH1 0x40 MLOAD PUSH32 0x8C379A000000000000000000000000000000000000000000000000000000000 DUP2 MSTORE PUSH1 0x4 ADD PUSH2 0x1089 SWAP1 PUSH2 0x1EAD JUMP JUMPDEST PUSH1 0x40 MLOAD DUP1 SWAP2 SUB SWAP1 REVERT JUMPDEST PUSH1 0x0 PUSH20 0xFFFFFFFFFFFFFFFFFFFFFFFFFFFFFFFFFFFFFFFF AND DUP3 PUSH20 0xFFFFFFFFFFFFFFFFFFFFFFFFFFFFFFFFFFFFFFFF AND SUB PUSH2 0x1101 JUMPI PUSH1 0x40 MLOAD PUSH32 0x8C379A000000000000000000000000000000000000000000000000000000000 DUP2 MSTORE PUSH1 0x4 ADD PUSH2 0x10F8 SWAP1 PUSH2 0x1F3F JUMP JUMPDEST PUSH1 0x40 MLOAD DUP1 SWAP2 SUB SWAP1 REVERT JUMPDEST DUP1 PUSH1 0x1 PUSH1 0x0 DUP6 PUSH20 0xFFFFFFFFFFFFFFFFFFFFFFFFFFFFFFFFFFFFFFFF AND PUSH20 0xFFFFFFFFFFFFFFFFFFFFFFFFFFFFFFFFFFFFFFFF AND DUP2 MSTORE PUSH1 0x20 ADD SWAP1 DUP2 MSTORE PUSH1 0x20 ADD PUSH1 0x0 KECCAK256 PUSH1 0x0 DUP5 PUSH20 0xFFFFFFFFFFFFFFFFFFFFFFFFFFFFFFFFFFFFFFFF AND PUSH20 0xFFFFFFFFFFFFFFFFFFFFFFFFFFFFFFFFFFFFFFFF AND DUP2 MSTORE PUSH1 0x20 ADD SWAP1 DUP2 MSTORE PUSH1 0x20 ADD PUSH1 0x0 KECCAK256 DUP2 SWAP1 SSTORE POP DUP2 PUSH20 0xFFFFFFFFFFFFFFFFFFFFFFFFFFFFFFFFFFFFFFFF AND DUP4 PUSH20 0xFFFFFFFFFFFFFFFFFFFFFFFFFFFFFFFFFFFFFFFF AND PUSH32 0x8C5BE1E5EBEC7D5BD14F71427D1E84F3DD0314C0F7B2291E5B200AC8C7C3B925 DUP4 PUSH1 0x40 MLOAD PUSH2 0x11DF SWAP2 SWAP1 PUSH2 0x18D6 JUMP JUMPDEST PUSH1 0x40 MLOAD DUP1 SWAP2 SUB SWAP1 LOG3 POP POP POP JUMP JUMPDEST PUSH1 0x0 PUSH2 0x11F8 DUP5 DUP5 PUSH2 0xE93 JUMP JUMPDEST SWAP1 POP PUSH32 0xFFFFFFFFFFFFFFFFFFFFFFFFFFFFFFFFFFFFFFFFFFFFFFFFFFFFFFFFFFFFFFFF DUP2 EQ PUSH2 0x1272 JUMPI DUP2 DUP2 LT ISZERO PUSH2 0x1264 JUMPI PUSH1 0x40 MLOAD PUSH32 0x8C379A000000000000000000000000000000000000000000000000000000000 DUP2 MSTORE PUSH1 0x4 ADD PUSH2 0x125B SWAP1 PUSH2 0x1FAB JUMP JUMPDEST PUSH1 0x40 MLOAD DUP1 SWAP2 SUB SWAP1 REVERT JUMPDEST PUSH2 0x1271 DUP5 DUP5 DUP5 DUP5 SUB PUSH2 0x1023 JUMP JUMPDEST JUMPDEST POP POP POP POP JUMP JUMPDEST PUSH1 0x0 PUSH20 0xFFFFFFFFFFFFFFFFFFFFFFFFFFFFFFFFFFFFFFFF AND DUP4 PUSH20 0xFFFFFFFFFFFFFFFFFFFFFFFFFFFFFFFFFFFFFFFF AND SUB PUSH2 0x12E7 JUMPI PUSH1 0x40 MLOAD PUSH32 0x8C379A000000000000000000000000000000000000000000000000000000000 DUP2 MSTORE PUSH1 0x4 ADD PUSH2 0x12DE SWAP1 PUSH2 0x203D JUMP JUMPDEST PUSH1 0x40 MLOAD DUP1 SWAP2 SUB SWAP1 REVERT JUMPDEST PUSH1 0x0 PUSH20 0xFFFFFFFFFFFFFFFFFFFFFFFFFFFFFFFFFFFFFFFF AND DUP3 PUSH20 0xFFFFFFFFFFFFFFFFFFFFFFFFFFFFFFFFFFFFFFFF AND SUB PUSH2 0x1356 JUMPI PUSH1 0x40 MLOAD PUSH32 0x8C379A000000000000000000000000000000000000000000000000000000000 DUP2 MSTORE PUSH1 0x4 ADD PUSH2 0x134D SWAP1 PUSH2 0x20CF JUMP JUMPDEST PUSH1 0x40 MLOAD DUP1 SWAP2 SUB SWAP1 REVERT JUMPDEST PUSH2 0x1361 DUP4 DUP4 DUP4 PUSH2 0x1011 JUMP JUMPDEST PUSH1 0x0 DUP1 PUSH1 0x0 DUP6 PUSH20 0xFFFFFFFFFFFFFFFFFFFFFFFFFFFFFFFFFFFFFFFF AND PUSH20 0xFFFFFFFFFFFFFFFFFFFFFFFFFFFFFFFFFFFFFFFF AND DUP2 MSTORE PUSH1 0x20 ADD SWAP1 DUP2 MSTORE PUSH1 0x20 ADD PUSH1 0x0 KECCAK256 SLOAD SWAP1 POP DUP2 DUP2 LT ISZERO PUSH2 0x13E7 JUMPI PUSH1 0x40 MLOAD PUSH32 0x8C379A000000000000000000000000000000000000000000000000000000000 DUP2 MSTORE PUSH1 0x4 ADD PUSH2 0x13DE SWAP1 PUSH2 0x2161 JUMP JUMPDEST PUSH1 0x40 MLOAD DUP1 SWAP2 SUB SWAP1 REVERT JUMPDEST DUP2 DUP2 SUB PUSH1 0x0 DUP1 DUP7 PUSH20 0xFFFFFFFFFFFFFFFFFFFFFFFFFFFFFFFFFFFFFFFF AND PUSH20 0xFFFFFFFFFFFFFFFFFFFFFFFFFFFFFFFFFFFFFFFF AND DUP2 MSTORE PUSH1 0x20 ADD SWAP1 DUP2 MSTORE PUSH1 0x20 ADD PUSH1 0x0 KECCAK256 DUP2 SWAP1 SSTORE POP DUP2 PUSH1 0x0 DUP1 DUP6 PUSH20 0xFFFFFFFFFFFFFFFFFFFFFFFFFFFFFFFFFFFFFFFF AND PUSH20 0xFFFFFFFFFFFFFFFFFFFFFFFFFFFFFFFFFFFFFFFF AND DUP2 MSTORE PUSH1 0x20 ADD SWAP1 DUP2 MSTORE PUSH1 0x20 ADD PUSH1 0x0 KECCAK256 PUSH1 0x0 DUP3 DUP3 SLOAD PUSH2 0x147A SWAP2 SWAP1 PUSH2 0x1A73 JUMP JUMPDEST SWAP3 POP POP DUP2 SWAP1 SSTORE POP DUP3 PUSH20 0xFFFFFFFFFFFFFFFFFFFFFFFFFFFFFFFFFFFFFFFF AND DUP5 PUSH20 0xFFFFFFFFFFFFFFFFFFFFFFFFFFFFFFFFFFFFFFFF AND PUSH32 0xDDF252AD1BE2C89B69C2B068FC378DAA952BA7F163C4A11628F55A4DF523B3EF DUP5 PUSH1 0x40 MLOAD PUSH2 0x14DE SWAP2 SWAP1 PUSH2 0x18D6 JUMP JUMPDEST PUSH1 0x40 MLOAD DUP1 SWAP2 SUB SWAP1 LOG3 PUSH2 0x14F1 DUP5 DUP5 DUP5 PUSH2 0x1016 JUMP JUMPDEST POP POP POP POP JUMP JUMPDEST PUSH1 0x0 PUSH1 0x5 PUSH1 0x0 SWAP1 SLOAD SWAP1 PUSH2 0x100 EXP SWAP1 DIV PUSH20 0xFFFFFFFFFFFFFFFFFFFFFFFFFFFFFFFFFFFFFFFF AND SWAP1 POP DUP2 PUSH1 0x5 PUSH1 0x0 PUSH2 0x100 EXP DUP2 SLOAD DUP2 PUSH20 0xFFFFFFFFFFFFFFFFFFFFFFFFFFFFFFFFFFFFFFFF MUL NOT AND SWAP1 DUP4 PUSH20 0xFFFFFFFFFFFFFFFFFFFFFFFFFFFFFFFFFFFFFFFF AND MUL OR SWAP1 SSTORE POP DUP2 PUSH20 0xFFFFFFFFFFFFFFFFFFFFFFFFFFFFFFFFFFFFFFFF AND DUP2 PUSH20 0xFFFFFFFFFFFFFFFFFFFFFFFFFFFFFFFFFFFFFFFF AND PUSH32 0x8BE0079C531659141344CD1FD0A4F28419497F9722A3DAAFE3B4186F6B6457E0 PUSH1 0x40 MLOAD PUSH1 0x40 MLOAD DUP1 SWAP2 SUB SWAP1 LOG3 POP POP JUMP JUMPDEST PUSH1 0x0 DUP3 DUP3 MSTORE PUSH1 0x20 DUP3 ADD SWAP1 POP SWAP3 SWAP2 POP POP JUMP JUMPDEST PUSH32 0x456E7465722061206E6F6E7A65726F2076616C75650000000000000000000000 PUSH1 0x0 DUP3 ADD MSTORE POP JUMP JUMPDEST PUSH1 0x0 PUSH2 0x1604 PUSH1 0x15 DUP4 PUSH2 0x15BD JUMP JUMPDEST SWAP2 POP PUSH2 0x160F DUP3 PUSH2 0x15CE JUMP JUMPDEST PUSH1 0x20 DUP3 ADD SWAP1 POP SWAP2 SWAP1 POP JUMP JUMPDEST PUSH1 0x0 PUSH1 0x20 DUP3 ADD SWAP1 POP DUP2 DUP2 SUB PUSH1 0x0 DUP4 ADD MSTORE PUSH2 0x1633 DUP2 PUSH2 0x15F7 JUMP JUMPDEST SWAP1 POP SWAP2 SWAP1 POP JUMP JUMPDEST PUSH1 0x0 DUP2 SWAP1 POP SWAP2 SWAP1 POP JUMP JUMPDEST PUSH32 0x4E487B7100000000000000000000000000000000000000000000000000000000 PUSH1 0x0 MSTORE PUSH1 0x11 PUSH1 0x4 MSTORE PUSH1 0x24 PUSH1 0x0 REVERT JUMPDEST PUSH1 0x0 PUSH2 0x167E DUP3 PUSH2 0x163A JUMP JUMPDEST SWAP2 POP PUSH2 0x1689 DUP4 PUSH2 0x163A JUMP JUMPDEST SWAP3 POP DUP3 DUP3 MUL PUSH2 0x1697 DUP2 PUSH2 0x163A JUMP JUMPDEST SWAP2 POP DUP3 DUP3 DIV DUP5 EQ DUP4 ISZERO OR PUSH2 0x16AE JUMPI PUSH2 0x16AD PUSH2 0x1644 JUMP JUMPDEST JUMPDEST POP SWAP3 SWAP2 POP POP JUMP JUMPDEST PUSH32 0x6F776E6572204B6169546F6B656E206973206E6F20616D6F756E740000000000 PUSH1 0x0 DUP3 ADD MSTORE POP JUMP JUMPDEST PUSH1 0x0 PUSH2 0x16EB PUSH1 0x1B DUP4 PUSH2 0x15BD JUMP JUMPDEST SWAP2 POP PUSH2 0x16F6 DUP3 PUSH2 0x16B5 JUMP JUMPDEST PUSH1 0x20 DUP3 ADD SWAP1 POP SWAP2 SWAP1 POP JUMP JUMPDEST PUSH1 0x0 PUSH1 0x20 DUP3 ADD SWAP1 POP DUP2 DUP2 SUB PUSH1 0x0 DUP4 ADD MSTORE PUSH2 0x171A DUP2 PUSH2 0x16DE JUMP JUMPDEST SWAP1 POP SWAP2 SWAP1 POP JUMP JUMPDEST PUSH1 0x0 DUP2 MLOAD SWAP1 POP SWAP2 SWAP1 POP JUMP JUMPDEST PUSH1 0x0 JUMPDEST DUP4 DUP2 LT ISZERO PUSH2 0x174A JUMPI DUP1 DUP3 ADD MLOAD DUP2 DUP5 ADD MSTORE PUSH1 0x20 DUP2 ADD SWAP1 POP PUSH2 0x172F JUMP JUMPDEST PUSH1 0x0 DUP5 DUP5 ADD MSTORE POP POP POP POP JUMP JUMPDEST PUSH1 0x0 PUSH1 0x1F NOT PUSH1 0x1F DUP4 ADD AND SWAP1 POP SWAP2 SWAP1 POP JUMP JUMPDEST PUSH1 0x0 PUSH2 0x1772 DUP3 PUSH2 0x1721 JUMP JUMPDEST PUSH2 0x177C DUP2 DUP6 PUSH2 0x15BD JUMP JUMPDEST SWAP4 POP PUSH2 0x178C DUP2 DUP6 PUSH1 0x20 DUP7 ADD PUSH2 0x172C JUMP JUMPDEST PUSH2 0x1795 DUP2 PUSH2 0x1756 JUMP JUMPDEST DUP5 ADD SWAP2 POP POP SWAP3 SWAP2 POP POP JUMP JUMPDEST PUSH1 0x0 PUSH1 0x20 DUP3 ADD SWAP1 POP DUP2 DUP2 SUB PUSH1 0x0 DUP4 ADD MSTORE PUSH2 0x17BA DUP2 DUP5 PUSH2 0x1767 JUMP JUMPDEST SWAP1 POP SWAP3 SWAP2 POP POP JUMP JUMPDEST PUSH1 0x0 DUP1 REVERT JUMPDEST PUSH1 0x0 PUSH20 0xFFFFFFFFFFFFFFFFFFFFFFFFFFFFFFFFFFFFFFFF DUP3 AND SWAP1 POP SWAP2 SWAP1 POP JUMP JUMPDEST PUSH1 0x0 PUSH2 0x17F2 DUP3 PUSH2 0x17C7 JUMP JUMPDEST SWAP1 POP SWAP2 SWAP1 POP JUMP JUMPDEST PUSH2 0x1802 DUP2 PUSH2 0x17E7 JUMP JUMPDEST DUP2 EQ PUSH2 0x180D JUMPI PUSH1 0x0 DUP1 REVERT JUMPDEST POP JUMP JUMPDEST PUSH1 0x0 DUP2 CALLDATALOAD SWAP1 POP PUSH2 0x181F DUP2 PUSH2 0x17F9 JUMP JUMPDEST SWAP3 SWAP2 POP POP JUMP JUMPDEST PUSH2 0x182E DUP2 PUSH2 0x163A JUMP JUMPDEST DUP2 EQ PUSH2 0x1839 JUMPI PUSH1 0x0 DUP1 REVERT JUMPDEST POP JUMP JUMPDEST PUSH1 0x0 DUP2 CALLDATALOAD SWAP1 POP PUSH2 0x184B DUP2 PUSH2 0x1825 JUMP JUMPDEST SWAP3 SWAP2 POP POP JUMP JUMPDEST PUSH1 0x0 DUP1 PUSH1 0x40 DUP4 DUP6 SUB SLT ISZERO PUSH2 0x1868 JUMPI PUSH2 0x1867 PUSH2 0x17C2 JUMP JUMPDEST JUMPDEST PUSH1 0x0 PUSH2 0x1876 DUP6 DUP3 DUP7 ADD PUSH2 0x1810 JUMP JUMPDEST SWAP3 POP POP PUSH1 0x20 PUSH2 0x1887 DUP6 DUP3 DUP7 ADD PUSH2 0x183C JUMP JUMPDEST SWAP2 POP POP SWAP3 POP SWAP3 SWAP1 POP JUMP JUMPDEST PUSH1 0x0 DUP2 ISZERO ISZERO SWAP1 POP SWAP2 SWAP1 POP JUMP JUMPDEST PUSH2 0x18A6 DUP2 PUSH2 0x1891 JUMP JUMPDEST DUP3 MSTORE POP POP JUMP JUMPDEST PUSH1 0x0 PUSH1 0x20 DUP3 ADD SWAP1 POP PUSH2 0x18C1 PUSH1 0x0 DUP4 ADD DUP5 PUSH2 0x189D JUMP JUMPDEST SWAP3 SWAP2 POP POP JUMP JUMPDEST PUSH2 0x18D0 DUP2 PUSH2 0x163A JUMP JUMPDEST DUP3 MSTORE POP POP JUMP JUMPDEST PUSH1 0x0 PUSH1 0x20 DUP3 ADD SWAP1 POP PUSH2 0x18EB PUSH1 0x0 DUP4 ADD DUP5 PUSH2 0x18C7 JUMP JUMPDEST SWAP3 SWAP2 POP POP JUMP JUMPDEST PUSH1 0x0 PUSH1 0x20 DUP3 DUP5 SUB SLT ISZERO PUSH2 0x1907 JUMPI PUSH2 0x1906 PUSH2 0x17C2 JUMP JUMPDEST JUMPDEST PUSH1 0x0 PUSH2 0x1915 DUP5 DUP3 DUP6 ADD PUSH2 0x183C JUMP JUMPDEST SWAP2 POP POP SWAP3 SWAP2 POP POP JUMP JUMPDEST PUSH1 0x0 DUP1 PUSH1 0x0 PUSH1 0x60 DUP5 DUP7 SUB SLT ISZERO PUSH2 0x1937 JUMPI PUSH2 0x1936 PUSH2 0x17C2 JUMP JUMPDEST JUMPDEST PUSH1 0x0 PUSH2 0x1945 DUP7 DUP3 DUP8 ADD PUSH2 0x1810 JUMP JUMPDEST SWAP4 POP POP PUSH1 0x20 PUSH2 0x1956 DUP7 DUP3 DUP8 ADD PUSH2 0x1810 JUMP JUMPDEST SWAP3 POP POP PUSH1 0x40 PUSH2 0x1967 DUP7 DUP3 DUP8 ADD PUSH2 0x183C JUMP JUMPDEST SWAP2 POP POP SWAP3 POP SWAP3 POP SWAP3 JUMP JUMPDEST PUSH1 0x0 PUSH1 0xFF DUP3 AND SWAP1 POP SWAP2 SWAP1 POP JUMP JUMPDEST PUSH2 0x1987 DUP2 PUSH2 0x1971 JUMP JUMPDEST DUP3 MSTORE POP POP JUMP JUMPDEST PUSH1 0x0 PUSH1 0x20 DUP3 ADD SWAP1 POP PUSH2 0x19A2 PUSH1 0x0 DUP4 ADD DUP5 PUSH2 0x197E JUMP JUMPDEST SWAP3 SWAP2 POP POP JUMP JUMPDEST PUSH1 0x0 PUSH1 0x20 DUP3 DUP5 SUB SLT ISZERO PUSH2 0x19BE JUMPI PUSH2 0x19BD PUSH2 0x17C2 JUMP JUMPDEST JUMPDEST PUSH1 0x0 PUSH2 0x19CC DUP5 DUP3 DUP6 ADD PUSH2 0x1810 JUMP JUMPDEST SWAP2 POP POP SWAP3 SWAP2 POP POP JUMP JUMPDEST PUSH2 0x19DE DUP2 PUSH2 0x17E7 JUMP JUMPDEST DUP3 MSTORE POP POP JUMP JUMPDEST PUSH1 0x0 PUSH1 0x20 DUP3 ADD SWAP1 POP PUSH2 0x19F9 PUSH1 0x0 DUP4 ADD DUP5 PUSH2 0x19D5 JUMP JUMPDEST SWAP3 SWAP2 POP POP JUMP JUMPDEST PUSH1 0x0 DUP1 PUSH1 0x40 DUP4 DUP6 SUB SLT ISZERO PUSH2 0x1A16 JUMPI PUSH2 0x1A15 PUSH2 0x17C2 JUMP JUMPDEST JUMPDEST PUSH1 0x0 PUSH2 0x1A24 DUP6 DUP3 DUP7 ADD PUSH2 0x1810 JUMP JUMPDEST SWAP3 POP POP PUSH1 0x20 PUSH2 0x1A35 DUP6 DUP3 DUP7 ADD PUSH2 0x1810 JUMP JUMPDEST SWAP2 POP POP SWAP3 POP SWAP3 SWAP1 POP JUMP JUMPDEST PUSH1 0x0 PUSH2 0x1A4A DUP3 PUSH2 0x163A JUMP JUMPDEST SWAP2 POP PUSH2 0x1A55 DUP4 PUSH2 0x163A JUMP JUMPDEST SWAP3 POP DUP3 DUP3 SUB SWAP1 POP DUP2 DUP2 GT ISZERO PUSH2 0x1A6D JUMPI PUSH2 0x1A6C PUSH2 0x1644 JUMP JUMPDEST JUMPDEST SWAP3 SWAP2 POP POP JUMP JUMPDEST PUSH1 0x0 PUSH2 0x1A7E DUP3 PUSH2 0x163A JUMP JUMPDEST SWAP2 POP PUSH2 0x1A89 DUP4 PUSH2 0x163A JUMP JUMPDEST SWAP3 POP DUP3 DUP3 ADD SWAP1 POP DUP1 DUP3 GT ISZERO PUSH2 0x1AA1 JUMPI PUSH2 0x1AA0 PUSH2 0x1644 JUMP JUMPDEST JUMPDEST SWAP3 SWAP2 POP POP JUMP JUMPDEST PUSH32 0x45524332303A206D696E7420746F20746865207A65726F206164647265737300 PUSH1 0x0 DUP3 ADD MSTORE POP JUMP JUMPDEST PUSH1 0x0 PUSH2 0x1ADD PUSH1 0x1F DUP4 PUSH2 0x15BD JUMP JUMPDEST SWAP2 POP PUSH2 0x1AE8 DUP3 PUSH2 0x1AA7 JUMP JUMPDEST PUSH1 0x20 DUP3 ADD SWAP1 POP SWAP2 SWAP1 POP JUMP JUMPDEST PUSH1 0x0 PUSH1 0x20 DUP3 ADD SWAP1 POP DUP2 DUP2 SUB PUSH1 0x0 DUP4 ADD MSTORE PUSH2 0x1B0C DUP2 PUSH2 0x1AD0 JUMP JUMPDEST SWAP1 POP SWAP2 SWAP1 POP JUMP JUMPDEST PUSH32 0x4E487B7100000000000000000000000000000000000000000000000000000000 PUSH1 0x0 MSTORE PUSH1 0x22 PUSH1 0x4 MSTORE PUSH1 0x24 PUSH1 0x0 REVERT JUMPDEST PUSH1 0x0 PUSH1 0x2 DUP3 DIV SWAP1 POP PUSH1 0x1 DUP3 AND DUP1 PUSH2 0x1B5A JUMPI PUSH1 0x7F DUP3 AND SWAP2 POP JUMPDEST PUSH1 0x20 DUP3 LT DUP2 SUB PUSH2 0x1B6D JUMPI PUSH2 0x1B6C PUSH2 0x1B13 JUMP JUMPDEST JUMPDEST POP SWAP2 SWAP1 POP JUMP JUMPDEST PUSH32 0x796F75206675636B696E67206E6F20546F6B656E206F6B3F0000000000000000 PUSH1 0x0 DUP3 ADD MSTORE POP JUMP JUMPDEST PUSH1 0x0 PUSH2 0x1BA9 PUSH1 0x18 DUP4 PUSH2 0x15BD JUMP JUMPDEST SWAP2 POP PUSH2 0x1BB4 DUP3 PUSH2 0x1B73 JUMP JUMPDEST PUSH1 0x20 DUP3 ADD SWAP1 POP SWAP2 SWAP1 POP JUMP JUMPDEST PUSH1 0x0 PUSH1 0x20 DUP3 ADD SWAP1 POP DUP2 DUP2 SUB PUSH1 0x0 DUP4 ADD MSTORE PUSH2 0x1BD8 DUP2 PUSH2 0x1B9C JUMP JUMPDEST SWAP1 POP SWAP2 SWAP1 POP JUMP JUMPDEST PUSH32 0x4E487B7100000000000000000000000000000000000000000000000000000000 PUSH1 0x0 MSTORE PUSH1 0x12 PUSH1 0x4 MSTORE PUSH1 0x24 PUSH1 0x0 REVERT JUMPDEST PUSH1 0x0 PUSH2 0x1C19 DUP3 PUSH2 0x163A JUMP JUMPDEST SWAP2 POP PUSH2 0x1C24 DUP4 PUSH2 0x163A JUMP JUMPDEST SWAP3 POP DUP3 PUSH2 0x1C34 JUMPI PUSH2 0x1C33 PUSH2 0x1BDF JUMP JUMPDEST JUMPDEST DUP3 DUP3 DIV SWAP1 POP SWAP3 SWAP2 POP POP JUMP JUMPDEST PUSH32 0x4341206E6F206574686572000000000000000000000000000000000000000000 PUSH1 0x0 DUP3 ADD MSTORE POP JUMP JUMPDEST PUSH1 0x0 PUSH2 0x1C75 PUSH1 0xB DUP4 PUSH2 0x15BD JUMP JUMPDEST SWAP2 POP PUSH2 0x1C80 DUP3 PUSH2 0x1C3F JUMP JUMPDEST PUSH1 0x20 DUP3 ADD SWAP1 POP SWAP2 SWAP1 POP JUMP JUMPDEST PUSH1 0x0 PUSH1 0x20 DUP3 ADD SWAP1 POP DUP2 DUP2 SUB PUSH1 0x0 DUP4 ADD MSTORE PUSH2 0x1CA4 DUP2 PUSH2 0x1C68 JUMP JUMPDEST SWAP1 POP SWAP2 SWAP1 POP JUMP JUMPDEST PUSH32 0x4F776E61626C653A2063616C6C6572206973206E6F7420746865206F776E6572 PUSH1 0x0 DUP3 ADD MSTORE POP JUMP JUMPDEST PUSH1 0x0 PUSH2 0x1CE1 PUSH1 0x20 DUP4 PUSH2 0x15BD JUMP JUMPDEST SWAP2 POP PUSH2 0x1CEC DUP3 PUSH2 0x1CAB JUMP JUMPDEST PUSH1 0x20 DUP3 ADD SWAP1 POP SWAP2 SWAP1 POP JUMP JUMPDEST PUSH1 0x0 PUSH1 0x20 DUP3 ADD SWAP1 POP DUP2 DUP2 SUB PUSH1 0x0 DUP4 ADD MSTORE PUSH2 0x1D10 DUP2 PUSH2 0x1CD4 JUMP JUMPDEST SWAP1 POP SWAP2 SWAP1 POP JUMP JUMPDEST PUSH32 0x45524332303A2064656372656173656420616C6C6F77616E63652062656C6F77 PUSH1 0x0 DUP3 ADD MSTORE PUSH32 0x207A65726F000000000000000000000000000000000000000000000000000000 PUSH1 0x20 DUP3 ADD MSTORE POP JUMP JUMPDEST PUSH1 0x0 PUSH2 0x1D73 PUSH1 0x25 DUP4 PUSH2 0x15BD JUMP JUMPDEST SWAP2 POP PUSH2 0x1D7E DUP3 PUSH2 0x1D17 JUMP JUMPDEST PUSH1 0x40 DUP3 ADD SWAP1 POP SWAP2 SWAP1 POP JUMP JUMPDEST PUSH1 0x0 PUSH1 0x20 DUP3 ADD SWAP1 POP DUP2 DUP2 SUB PUSH1 0x0 DUP4 ADD MSTORE PUSH2 0x1DA2 DUP2 PUSH2 0x1D66 JUMP JUMPDEST SWAP1 POP SWAP2 SWAP1 POP JUMP JUMPDEST PUSH32 0x4F776E61626C653A206E6577206F776E657220697320746865207A65726F2061 PUSH1 0x0 DUP3 ADD MSTORE PUSH32 0x6464726573730000000000000000000000000000000000000000000000000000 PUSH1 0x20 DUP3 ADD MSTORE POP JUMP JUMPDEST PUSH1 0x0 PUSH2 0x1E05 PUSH1 0x26 DUP4 PUSH2 0x15BD JUMP JUMPDEST SWAP2 POP PUSH2 0x1E10 DUP3 PUSH2 0x1DA9 JUMP JUMPDEST PUSH1 0x40 DUP3 ADD SWAP1 POP SWAP2 SWAP1 POP JUMP JUMPDEST PUSH1 0x0 PUSH1 0x20 DUP3 ADD SWAP1 POP DUP2 DUP2 SUB PUSH1 0x0 DUP4 ADD MSTORE PUSH2 0x1E34 DUP2 PUSH2 0x1DF8 JUMP JUMPDEST SWAP1 POP SWAP2 SWAP1 POP JUMP JUMPDEST PUSH32 0x45524332303A20617070726F76652066726F6D20746865207A65726F20616464 PUSH1 0x0 DUP3 ADD MSTORE PUSH32 0x7265737300000000000000000000000000000000000000000000000000000000 PUSH1 0x20 DUP3 ADD MSTORE POP JUMP JUMPDEST PUSH1 0x0 PUSH2 0x1E97 PUSH1 0x24 DUP4 PUSH2 0x15BD JUMP JUMPDEST SWAP2 POP PUSH2 0x1EA2 DUP3 PUSH2 0x1E3B JUMP JUMPDEST PUSH1 0x40 DUP3 ADD SWAP1 POP SWAP2 SWAP1 POP JUMP JUMPDEST PUSH1 0x0 PUSH1 0x20 DUP3 ADD SWAP1 POP DUP2 DUP2 SUB PUSH1 0x0 DUP4 ADD MSTORE PUSH2 0x1EC6 DUP2 PUSH2 0x1E8A JUMP JUMPDEST SWAP1 POP SWAP2 SWAP1 POP JUMP JUMPDEST PUSH32 0x45524332303A20617070726F766520746F20746865207A65726F206164647265 PUSH1 0x0 DUP3 ADD MSTORE PUSH32 0x7373000000000000000000000000000000000000000000000000000000000000 PUSH1 0x20 DUP3 ADD MSTORE POP JUMP JUMPDEST PUSH1 0x0 PUSH2 0x1F29 PUSH1 0x22 DUP4 PUSH2 0x15BD JUMP JUMPDEST SWAP2 POP PUSH2 0x1F34 DUP3 PUSH2 0x1ECD JUMP JUMPDEST PUSH1 0x40 DUP3 ADD SWAP1 POP SWAP2 SWAP1 POP JUMP JUMPDEST PUSH1 0x0 PUSH1 0x20 DUP3 ADD SWAP1 POP DUP2 DUP2 SUB PUSH1 0x0 DUP4 ADD MSTORE PUSH2 0x1F58 DUP2 PUSH2 0x1F1C JUMP JUMPDEST SWAP1 POP SWAP2 SWAP1 POP JUMP JUMPDEST PUSH32 0x45524332303A20696E73756666696369656E7420616C6C6F77616E6365000000 PUSH1 0x0 DUP3 ADD MSTORE POP JUMP JUMPDEST PUSH1 0x0 PUSH2 0x1F95 PUSH1 0x1D DUP4 PUSH2 0x15BD JUMP JUMPDEST SWAP2 POP PUSH2 0x1FA0 DUP3 PUSH2 0x1F5F JUMP JUMPDEST PUSH1 0x20 DUP3 ADD SWAP1 POP SWAP2 SWAP1 POP JUMP JUMPDEST PUSH1 0x0 PUSH1 0x20 DUP3 ADD SWAP1 POP DUP2 DUP2 SUB PUSH1 0x0 DUP4 ADD MSTORE PUSH2 0x1FC4 DUP2 PUSH2 0x1F88 JUMP JUMPDEST SWAP1 POP SWAP2 SWAP1 POP JUMP JUMPDEST PUSH32 0x45524332303A207472616E736665722066726F6D20746865207A65726F206164 PUSH1 0x0 DUP3 ADD MSTORE PUSH32 0x6472657373000000000000000000000000000000000000000000000000000000 PUSH1 0x20 DUP3 ADD MSTORE POP JUMP JUMPDEST PUSH1 0x0 PUSH2 0x2027 PUSH1 0x25 DUP4 PUSH2 0x15BD JUMP JUMPDEST SWAP2 POP PUSH2 0x2032 DUP3 PUSH2 0x1FCB JUMP JUMPDEST PUSH1 0x40 DUP3 ADD SWAP1 POP SWAP2 SWAP1 POP JUMP JUMPDEST PUSH1 0x0 PUSH1 0x20 DUP3 ADD SWAP1 POP DUP2 DUP2 SUB PUSH1 0x0 DUP4 ADD MSTORE PUSH2 0x2056 DUP2 PUSH2 0x201A JUMP JUMPDEST SWAP1 POP SWAP2 SWAP1 POP JUMP JUMPDEST PUSH32 0x45524332303A207472616E7366657220746F20746865207A65726F2061646472 PUSH1 0x0 DUP3 ADD MSTORE PUSH32 0x6573730000000000000000000000000000000000000000000000000000000000 PUSH1 0x20 DUP3 ADD MSTORE POP JUMP JUMPDEST PUSH1 0x0 PUSH2 0x20B9 PUSH1 0x23 DUP4 PUSH2 0x15BD JUMP JUMPDEST SWAP2 POP PUSH2 0x20C4 DUP3 PUSH2 0x205D JUMP JUMPDEST PUSH1 0x40 DUP3 ADD SWAP1 POP SWAP2 SWAP1 POP JUMP JUMPDEST PUSH1 0x0 PUSH1 0x20 DUP3 ADD SWAP1 POP DUP2 DUP2 SUB PUSH1 0x0 DUP4 ADD MSTORE PUSH2 0x20E8 DUP2 PUSH2 0x20AC JUMP JUMPDEST SWAP1 POP SWAP2 SWAP1 POP JUMP JUMPDEST PUSH32 0x45524332303A207472616E7366657220616D6F756E7420657863656564732062 PUSH1 0x0 DUP3 ADD MSTORE PUSH32 0x616C616E63650000000000000000000000000000000000000000000000000000 PUSH1 0x20 DUP3 ADD MSTORE POP JUMP JUMPDEST PUSH1 0x0 PUSH2 0x214B PUSH1 0x26 DUP4 PUSH2 0x15BD JUMP JUMPDEST SWAP2 POP PUSH2 0x2156 DUP3 PUSH2 0x20EF JUMP JUMPDEST PUSH1 0x40 DUP3 ADD SWAP1 POP SWAP2 SWAP1 POP JUMP JUMPDEST PUSH1 0x0 PUSH1 0x20 DUP3 ADD SWAP1 POP DUP2 DUP2 SUB PUSH1 0x0 DUP4 ADD MSTORE PUSH2 0x217A DUP2 PUSH2 0x213E JUMP JUMPDEST SWAP1 POP SWAP2 SWAP1 POP JUMP INVALID LOG2 PUSH5 0x6970667358 0x22 SLT KECCAK256 PUSH24 0x8F6085016B6F4467B06F293F767B7A8A39FF7252BC58DB52 ADDRESS PUSH11 0xFFB33A5D3A64736F6C6343 STOP ADDMOD GT STOP CALLER "
				},
				"gasEstimates": {
					"creation": {
						"codeDepositCost": "1726200",
						"executionCost": "infinite",
						"totalCost": "infinite"
					},
					"external": {
						"_name()": "infinite",
						"_symbol()": "infinite",
						"_totalSupply()": "2518",
						"allowance(address,address)": "infinite",
						"approve(address,uint256)": "infinite",
						"balanceOf(address)": "2864",
						"decimals()": "388",
						"decreaseAllowance(address,uint256)": "infinite",
						"increaseAllowance(address,uint256)": "infinite",
						"mint(address,uint256)": "infinite",
						"name()": "infinite",
						"owner()": "2589",
						"rate()": "2452",
						"renounceOwnership()": "30419",
						"sellToken(uint256)": "infinite",
						"symbol()": "infinite",
						"tokenTransferBuy(address,address,uint256)": "infinite",
						"tokenTransferSell(address,address,uint256)": "infinite",
						"totalSupply()": "2505",
						"transfer(address,uint256)": "infinite",
						"transferFrom(address,address,uint256)": "infinite",
						"transferOwnership(address)": "30852"
					}
				},
				"methodIdentifiers": {
					"_name()": "d28d8852",
					"_symbol()": "b09f1266",
					"_totalSupply()": "3eaaf86b",
					"allowance(address,address)": "dd62ed3e",
					"approve(address,uint256)": "095ea7b3",
					"balanceOf(address)": "70a08231",
					"decimals()": "313ce567",
					"decreaseAllowance(address,uint256)": "a457c2d7",
					"increaseAllowance(address,uint256)": "39509351",
					"mint(address,uint256)": "40c10f19",
					"name()": "06fdde03",
					"owner()": "8da5cb5b",
					"rate()": "2c4e722e",
					"renounceOwnership()": "715018a6",
					"sellToken(uint256)": "2397e4d7",
					"symbol()": "95d89b41",
					"tokenTransferBuy(address,address,uint256)": "d3866f5a",
					"tokenTransferSell(address,address,uint256)": "4bdfa913",
					"totalSupply()": "18160ddd",
					"transfer(address,uint256)": "a9059cbb",
					"transferFrom(address,address,uint256)": "23b872dd",
					"transferOwnership(address)": "f2fde38b"
				}
			},
			"storageLayout": {
				"storage": [
					{
						"astId": 269,
						"contract": "contracts/kaiToken.sol:KaiToken",
						"label": "_balances",
						"offset": 0,
						"slot": "0",
						"type": "t_mapping(t_address,t_uint256)"
					},
					{
						"astId": 275,
						"contract": "contracts/kaiToken.sol:KaiToken",
						"label": "_allowances",
						"offset": 0,
						"slot": "1",
						"type": "t_mapping(t_address,t_mapping(t_address,t_uint256))"
					},
					{
						"astId": 277,
						"contract": "contracts/kaiToken.sol:KaiToken",
						"label": "_totalSupply",
						"offset": 0,
						"slot": "2",
						"type": "t_uint256"
					},
					{
						"astId": 279,
						"contract": "contracts/kaiToken.sol:KaiToken",
						"label": "_name",
						"offset": 0,
						"slot": "3",
						"type": "t_string_storage"
					},
					{
						"astId": 281,
						"contract": "contracts/kaiToken.sol:KaiToken",
						"label": "_symbol",
						"offset": 0,
						"slot": "4",
						"type": "t_string_storage"
					},
					{
						"astId": 156,
						"contract": "contracts/kaiToken.sol:KaiToken",
						"label": "_owner",
						"offset": 0,
						"slot": "5",
						"type": "t_address"
					},
					{
						"astId": 10,
						"contract": "contracts/kaiToken.sol:KaiToken",
						"label": "_name",
						"offset": 0,
						"slot": "6",
						"type": "t_string_storage"
					},
					{
						"astId": 13,
						"contract": "contracts/kaiToken.sol:KaiToken",
						"label": "_symbol",
						"offset": 0,
						"slot": "7",
						"type": "t_string_storage"
					},
					{
						"astId": 22,
						"contract": "contracts/kaiToken.sol:KaiToken",
						"label": "_totalSupply",
						"offset": 0,
						"slot": "8",
						"type": "t_uint256"
					},
					{
						"astId": 25,
						"contract": "contracts/kaiToken.sol:KaiToken",
						"label": "rate",
						"offset": 0,
						"slot": "9",
						"type": "t_uint256"
					}
				],
				"types": {
					"t_address": {
						"encoding": "inplace",
						"label": "address",
						"numberOfBytes": "20"
					},
					"t_mapping(t_address,t_mapping(t_address,t_uint256))": {
						"encoding": "mapping",
						"key": "t_address",
						"label": "mapping(address => mapping(address => uint256))",
						"numberOfBytes": "32",
						"value": "t_mapping(t_address,t_uint256)"
					},
					"t_mapping(t_address,t_uint256)": {
						"encoding": "mapping",
						"key": "t_address",
						"label": "mapping(address => uint256)",
						"numberOfBytes": "32",
						"value": "t_uint256"
					},
					"t_string_storage": {
						"encoding": "bytes",
						"label": "string",
						"numberOfBytes": "32"
					},
					"t_uint256": {
						"encoding": "inplace",
						"label": "uint256",
						"numberOfBytes": "32"
					}
				}
			},
			"userdoc": {
				"kind": "user",
				"methods": {},
				"version": 1
			}
		}
	}
}