{
  "contractName": "EthSwap",
  "abi": [
    {
      "inputs": [
        {
          "internalType": "contract ERC20",
          "name": "_token",
          "type": "address"
        }
      ],
      "stateMutability": "nonpayable",
      "type": "constructor"
    },
    {
      "inputs": [],
      "name": "rate",
      "outputs": [
        {
          "internalType": "uint256",
          "name": "",
          "type": "uint256"
        }
      ],
      "stateMutability": "view",
      "type": "function",
      "constant": true
    },
    {
      "inputs": [],
      "name": "token",
      "outputs": [
        {
          "internalType": "contract ERC20",
          "name": "",
          "type": "address"
        }
      ],
      "stateMutability": "view",
      "type": "function",
      "constant": true
    },
    {
      "inputs": [],
      "name": "getToken",
      "outputs": [
        {
          "internalType": "address",
          "name": "",
          "type": "address"
        }
      ],
      "stateMutability": "view",
      "type": "function",
      "constant": true
    },
    {
      "inputs": [],
      "name": "getSwapBalance",
      "outputs": [
        {
          "internalType": "uint256",
          "name": "",
          "type": "uint256"
        }
      ],
      "stateMutability": "view",
      "type": "function",
      "constant": true
    },
    {
      "inputs": [],
      "name": "buyToken",
      "outputs": [],
      "stateMutability": "payable",
      "type": "function",
      "payable": true
    },
    {
      "inputs": [
        {
          "internalType": "uint256",
          "name": "_amount",
          "type": "uint256"
        }
      ],
      "name": "sellToken",
      "outputs": [],
      "stateMutability": "payable",
      "type": "function",
      "payable": true
    }
  ],
  "bytecode": "0x6080604052606460015534801561001557600080fd5b50604051610a8a380380610a8a833981810160405281019061003791906100f2565b806000806101000a81548173ffffffffffffffffffffffffffffffffffffffff021916908373ffffffffffffffffffffffffffffffffffffffff1602179055505061011f565b600080fd5b600073ffffffffffffffffffffffffffffffffffffffff82169050919050565b60006100ad82610082565b9050919050565b60006100bf826100a2565b9050919050565b6100cf816100b4565b81146100da57600080fd5b50565b6000815190506100ec816100c6565b92915050565b6000602082840312156101085761010761007d565b5b6000610116848285016100dd565b91505092915050565b61095c8061012e6000396000f3fe6080604052600436106100555760003560e01c806321df0da71461005a5780632397e4d7146100855780632c4e722e146100a1578063a4821719146100cc578063c7b00aad146100d6578063fc0c546a14610101575b600080fd5b34801561006657600080fd5b5061006f61012c565b60405161007c91906105aa565b60405180910390f35b61009f600480360381019061009a9190610600565b610155565b005b3480156100ad57600080fd5b506100b6610306565b6040516100c3919061063c565b60405180910390f35b6100d461030c565b005b3480156100e257600080fd5b506100eb6104a3565b6040516100f8919061063c565b60405180910390f35b34801561010d57600080fd5b50610116610545565b60405161012391906106b6565b60405180910390f35b60008060009054906101000a900473ffffffffffffffffffffffffffffffffffffffff16905090565b8060008054906101000a900473ffffffffffffffffffffffffffffffffffffffff1673ffffffffffffffffffffffffffffffffffffffff166370a08231336040518263ffffffff1660e01b81526004016101af91906105aa565b602060405180830381865afa1580156101cc573d6000803e3d6000fd5b505050506040513d601f19601f820116820180604052508101906101f091906106e6565b10156101fb57600080fd5b60006001548261020b9190610771565b90508047101561021a57600080fd5b60008054906101000a900473ffffffffffffffffffffffffffffffffffffffff1673ffffffffffffffffffffffffffffffffffffffff166323b872dd3330856040518463ffffffff1660e01b8152600401610277939291906107a2565b6020604051808303816000875af1158015610296573d6000803e3d6000fd5b505050506040513d601f19601f820116820180604052508101906102ba9190610811565b503373ffffffffffffffffffffffffffffffffffffffff166108fc829081150290604051600060405180830381858888f19350505050158015610301573d6000803e3d6000fd5b505050565b60015481565b60006001543461031c919061083e565b90508060008054906101000a900473ffffffffffffffffffffffffffffffffffffffff1673ffffffffffffffffffffffffffffffffffffffff166370a08231306040518263ffffffff1660e01b815260040161037891906105aa565b602060405180830381865afa158015610395573d6000803e3d6000fd5b505050506040513d601f19601f820116820180604052508101906103b991906106e6565b10156103fa576040517f08c379a00000000000000000000000000000000000000000000000000000000081526004016103f1906108dd565b60405180910390fd5b60008054906101000a900473ffffffffffffffffffffffffffffffffffffffff1673ffffffffffffffffffffffffffffffffffffffff1663a9059cbb61043e61012c565b836040518363ffffffff1660e01b815260040161045c9291906108fd565b6020604051808303816000875af115801561047b573d6000803e3d6000fd5b505050506040513d601f19601f8201168201806040525081019061049f9190610811565b5050565b60008060009054906101000a900473ffffffffffffffffffffffffffffffffffffffff1673ffffffffffffffffffffffffffffffffffffffff166370a08231336040518263ffffffff1660e01b81526004016104ff91906105aa565b602060405180830381865afa15801561051c573d6000803e3d6000fd5b505050506040513d601f19601f8201168201806040525081019061054091906106e6565b905090565b60008054906101000a900473ffffffffffffffffffffffffffffffffffffffff1681565b600073ffffffffffffffffffffffffffffffffffffffff82169050919050565b600061059482610569565b9050919050565b6105a481610589565b82525050565b60006020820190506105bf600083018461059b565b92915050565b600080fd5b6000819050919050565b6105dd816105ca565b81146105e857600080fd5b50565b6000813590506105fa816105d4565b92915050565b600060208284031215610616576106156105c5565b5b6000610624848285016105eb565b91505092915050565b610636816105ca565b82525050565b6000602082019050610651600083018461062d565b92915050565b6000819050919050565b600061067c61067761067284610569565b610657565b610569565b9050919050565b600061068e82610661565b9050919050565b60006106a082610683565b9050919050565b6106b081610695565b82525050565b60006020820190506106cb60008301846106a7565b92915050565b6000815190506106e0816105d4565b92915050565b6000602082840312156106fc576106fb6105c5565b5b600061070a848285016106d1565b91505092915050565b7f4e487b7100000000000000000000000000000000000000000000000000000000600052601260045260246000fd5b7f4e487b7100000000000000000000000000000000000000000000000000000000600052601160045260246000fd5b600061077c826105ca565b9150610787836105ca565b92508261079757610796610713565b5b828204905092915050565b60006060820190506107b7600083018661059b565b6107c4602083018561059b565b6107d1604083018461062d565b949350505050565b60008115159050919050565b6107ee816107d9565b81146107f957600080fd5b50565b60008151905061080b816107e5565b92915050565b600060208284031215610827576108266105c5565b5b6000610835848285016107fc565b91505092915050565b6000610849826105ca565b9150610854836105ca565b9250828202610862816105ca565b9150828204841483151761087957610878610742565b5b5092915050565b600082825260208201905092915050565b7f6572720000000000000000000000000000000000000000000000000000000000600082015250565b60006108c7600383610880565b91506108d282610891565b602082019050919050565b600060208201905081810360008301526108f6816108ba565b9050919050565b6000604082019050610912600083018561059b565b61091f602083018461062d565b939250505056fea2646970667358221220b0ce1b43805d9f565acc5076d23bcb091d325ae7201a87bb7dbe25f17ccbd5ff64736f6c63430008110033",
  "immutableReferences": {},
  "source": "// SPDX-License-Identifier: MIT\npragma solidity ^0.8.17;\n\n// import  nodeModules/openzeppelin/contracts/token/ERC20 \nimport \"../node_modules/openzeppelin-solidity/contracts/token/ERC20/ERC20.sol\";\n\ncontract EthSwap{\n    // ERC20  token \n    //   ERC20      \n    // KaiToken.sol       token  \n    //   .\n    ERC20 public token;\n\n    //   \n    uint public rate = 100;\n    \n    constructor(ERC20 _token){\n        // CA .\n        token = _token;\n    }\n\n    function getToken() public view returns(address){\n        // KaiToken CA\n        return address(token);\n    }\n\n    function getSwapBalance()public view returns (uint){\n        // token.balanceOf()   \n        return token.balanceOf(msg.sender);\n    }\n\n    //   \n    function buyToken() public payable{\n        uint256 tokenAmount = msg.value * rate;\n        // this    this == EthSwap\n        // address(this) ==   CA\n        // require      2    \n        //       \n        //          .\n        //      gas  \n        require(token.balanceOf(address(this)) >= tokenAmount, \"err\");\n        token.transfer(getToken(), tokenAmount);\n    }\n    // function buyToken(address user, uint value) public payable{\n    //     uint256 tokenAmount = value * rate;\n    //     // this    this == EthSwap\n    //     // address(this) ==   CA\n    //     // require      2    \n    //     //       \n    //     //          .\n    //     //      gas  \n    //     require(token.balanceOf(address(this)) >= tokenAmount, \"err\");\n    //     token.transfer(user, tokenAmount);\n    // }\n    //   \n    function sellToken(uint256 _amount) public payable{\n        require(token.balanceOf(msg.sender) >= _amount);\n        uint256 etherAmount = _amount/rate;\n        require(address(this).balance >= etherAmount);\n        token.transferFrom(msg.sender, address(this), _amount);\n        payable(msg.sender).transfer(etherAmount);\n    }\n}",
  "sourcePath": "C:\\Users\\an\\Desktop\\E-SAKAI\\sol\\contracts\\EthSwap.sol",
  "compiler": {
    "name": "solc",
    "version": "0.8.17+commit.8df45f5f.Emscripten.clang"
  },
  "schemaVersion": "3.4.11",
  "updatedAt": "2022-12-22T06:05:59.682Z",
  "networkType": "ethereum",
  "devdoc": {
    "kind": "dev",
    "methods": {},
    "version": 1
  },
  "userdoc": {
    "kind": "user",
    "methods": {},
    "version": 1
  }
}