{
  "contractName": "KaiToken",
  "abi": [
    {
      "inputs": [],
      "stateMutability": "nonpayable",
      "type": "constructor"
    },
    {
      "anonymous": false,
      "inputs": [
        {
          "indexed": true,
          "internalType": "address",
          "name": "owner",
          "type": "address"
        },
        {
          "indexed": true,
          "internalType": "address",
          "name": "spender",
          "type": "address"
        },
        {
          "indexed": false,
          "internalType": "uint256",
          "name": "value",
          "type": "uint256"
        }
      ],
      "name": "Approval",
      "type": "event"
    },
    {
      "anonymous": false,
      "inputs": [
        {
          "indexed": true,
          "internalType": "address",
          "name": "previousOwner",
          "type": "address"
        },
        {
          "indexed": true,
          "internalType": "address",
          "name": "newOwner",
          "type": "address"
        }
      ],
      "name": "OwnershipTransferred",
      "type": "event"
    },
    {
      "anonymous": false,
      "inputs": [
        {
          "indexed": true,
          "internalType": "address",
          "name": "from",
          "type": "address"
        },
        {
          "indexed": true,
          "internalType": "address",
          "name": "to",
          "type": "address"
        },
        {
          "indexed": false,
          "internalType": "uint256",
          "name": "value",
          "type": "uint256"
        }
      ],
      "name": "Transfer",
      "type": "event"
    },
    {
      "inputs": [],
      "name": "_name",
      "outputs": [
        {
          "internalType": "string",
          "name": "",
          "type": "string"
        }
      ],
      "stateMutability": "view",
      "type": "function",
      "constant": true
    },
    {
      "inputs": [],
      "name": "_symbol",
      "outputs": [
        {
          "internalType": "string",
          "name": "",
          "type": "string"
        }
      ],
      "stateMutability": "view",
      "type": "function",
      "constant": true
    },
    {
      "inputs": [],
      "name": "_totalSupply",
      "outputs": [
        {
          "internalType": "uint256",
          "name": "",
          "type": "uint256"
        }
      ],
      "stateMutability": "view",
      "type": "function",
      "constant": true
    },
    {
      "inputs": [
        {
          "internalType": "address",
          "name": "owner",
          "type": "address"
        },
        {
          "internalType": "address",
          "name": "spender",
          "type": "address"
        }
      ],
      "name": "allowance",
      "outputs": [
        {
          "internalType": "uint256",
          "name": "",
          "type": "uint256"
        }
      ],
      "stateMutability": "view",
      "type": "function",
      "constant": true
    },
    {
      "inputs": [
        {
          "internalType": "address",
          "name": "spender",
          "type": "address"
        },
        {
          "internalType": "uint256",
          "name": "amount",
          "type": "uint256"
        }
      ],
      "name": "approve",
      "outputs": [
        {
          "internalType": "bool",
          "name": "",
          "type": "bool"
        }
      ],
      "stateMutability": "nonpayable",
      "type": "function"
    },
    {
      "inputs": [
        {
          "internalType": "address",
          "name": "account",
          "type": "address"
        }
      ],
      "name": "balanceOf",
      "outputs": [
        {
          "internalType": "uint256",
          "name": "",
          "type": "uint256"
        }
      ],
      "stateMutability": "view",
      "type": "function",
      "constant": true
    },
    {
      "inputs": [],
      "name": "decimals",
      "outputs": [
        {
          "internalType": "uint8",
          "name": "",
          "type": "uint8"
        }
      ],
      "stateMutability": "view",
      "type": "function",
      "constant": true
    },
    {
      "inputs": [
        {
          "internalType": "address",
          "name": "spender",
          "type": "address"
        },
        {
          "internalType": "uint256",
          "name": "subtractedValue",
          "type": "uint256"
        }
      ],
      "name": "decreaseAllowance",
      "outputs": [
        {
          "internalType": "bool",
          "name": "",
          "type": "bool"
        }
      ],
      "stateMutability": "nonpayable",
      "type": "function"
    },
    {
      "inputs": [
        {
          "internalType": "address",
          "name": "spender",
          "type": "address"
        },
        {
          "internalType": "uint256",
          "name": "addedValue",
          "type": "uint256"
        }
      ],
      "name": "increaseAllowance",
      "outputs": [
        {
          "internalType": "bool",
          "name": "",
          "type": "bool"
        }
      ],
      "stateMutability": "nonpayable",
      "type": "function"
    },
    {
      "inputs": [
        {
          "internalType": "address",
          "name": "account",
          "type": "address"
        },
        {
          "internalType": "uint256",
          "name": "amount",
          "type": "uint256"
        }
      ],
      "name": "mint",
      "outputs": [],
      "stateMutability": "nonpayable",
      "type": "function"
    },
    {
      "inputs": [],
      "name": "name",
      "outputs": [
        {
          "internalType": "string",
          "name": "",
          "type": "string"
        }
      ],
      "stateMutability": "view",
      "type": "function",
      "constant": true
    },
    {
      "inputs": [],
      "name": "owner",
      "outputs": [
        {
          "internalType": "address",
          "name": "",
          "type": "address"
        }
      ],
      "stateMutability": "view",
      "type": "function",
      "constant": true
    },
    {
      "inputs": [],
      "name": "rate",
      "outputs": [
        {
          "internalType": "uint256",
          "name": "",
          "type": "uint256"
        }
      ],
      "stateMutability": "view",
      "type": "function",
      "constant": true
    },
    {
      "inputs": [],
      "name": "renounceOwnership",
      "outputs": [],
      "stateMutability": "nonpayable",
      "type": "function"
    },
    {
      "inputs": [],
      "name": "symbol",
      "outputs": [
        {
          "internalType": "string",
          "name": "",
          "type": "string"
        }
      ],
      "stateMutability": "view",
      "type": "function",
      "constant": true
    },
    {
      "inputs": [
        {
          "internalType": "address",
          "name": "owner",
          "type": "address"
        },
        {
          "internalType": "address",
          "name": "to",
          "type": "address"
        },
        {
          "internalType": "uint256",
          "name": "amount",
          "type": "uint256"
        }
      ],
      "name": "tokentransfer",
      "outputs": [],
      "stateMutability": "nonpayable",
      "type": "function"
    },
    {
      "inputs": [],
      "name": "totalSupply",
      "outputs": [
        {
          "internalType": "uint256",
          "name": "",
          "type": "uint256"
        }
      ],
      "stateMutability": "view",
      "type": "function",
      "constant": true
    },
    {
      "inputs": [
        {
          "internalType": "address",
          "name": "to",
          "type": "address"
        },
        {
          "internalType": "uint256",
          "name": "amount",
          "type": "uint256"
        }
      ],
      "name": "transfer",
      "outputs": [
        {
          "internalType": "bool",
          "name": "",
          "type": "bool"
        }
      ],
      "stateMutability": "nonpayable",
      "type": "function"
    },
    {
      "inputs": [
        {
          "internalType": "address",
          "name": "from",
          "type": "address"
        },
        {
          "internalType": "address",
          "name": "to",
          "type": "address"
        },
        {
          "internalType": "uint256",
          "name": "amount",
          "type": "uint256"
        }
      ],
      "name": "transferFrom",
      "outputs": [
        {
          "internalType": "bool",
          "name": "",
          "type": "bool"
        }
      ],
      "stateMutability": "nonpayable",
      "type": "function"
    },
    {
      "inputs": [
        {
          "internalType": "address",
          "name": "newOwner",
          "type": "address"
        }
      ],
      "name": "transferOwnership",
      "outputs": [],
      "stateMutability": "nonpayable",
      "type": "function"
    },
    {
      "stateMutability": "payable",
      "type": "receive",
      "payable": true
    },
    {
      "inputs": [
        {
          "internalType": "uint256",
          "name": "_amount",
          "type": "uint256"
        }
      ],
      "name": "sellToken",
      "outputs": [],
      "stateMutability": "payable",
      "type": "function",
      "payable": true
    }
  ],
  "bytecode": "0x60806040526040518060400160405280600881526020017f4b6169546f6b656e000000000000000000000000000000000000000000000000815250600690816200004a91906200079f565b506040518060400160405280600381526020017f4b41490000000000000000000000000000000000000000000000000000000000815250600790816200009191906200079f565b50620000a26200028c60201b60201c565b600a620000b0919062000a16565b612710620000bf919062000a67565b6008556064600955348015620000d457600080fd5b5060068054620000e4906200058e565b80601f016020809104026020016040519081016040528092919081815260200182805462000112906200058e565b8015620001635780601f10620001375761010080835404028352916020019162000163565b820191906000526020600020905b8154815290600101906020018083116200014557829003601f168201915b50505050506007805462000177906200058e565b80601f0160208091040260200160405190810160405280929190818152602001828054620001a5906200058e565b8015620001f65780601f10620001ca57610100808354040283529160200191620001f6565b820191906000526020600020905b815481529060010190602001808311620001d857829003601f168201915b505050505081600390816200020c91906200079f565b5080600490816200021e91906200079f565b50505062000241620002356200029560201b60201c565b6200029d60201b60201c565b6006808162000251919062000adf565b506007808162000262919062000adf565b5062000286620002776200036360201b60201c565b6008546200038d60201b60201c565b62000ccc565b60006012905090565b600033905090565b6000600560009054906101000a900473ffffffffffffffffffffffffffffffffffffffff16905081600560006101000a81548173ffffffffffffffffffffffffffffffffffffffff021916908373ffffffffffffffffffffffffffffffffffffffff1602179055508173ffffffffffffffffffffffffffffffffffffffff168173ffffffffffffffffffffffffffffffffffffffff167f8be0079c531659141344cd1fd0a4f28419497f9722a3daafe3b4186f6b6457e060405160405180910390a35050565b6000600560009054906101000a900473ffffffffffffffffffffffffffffffffffffffff16905090565b6200039f8282620003a360201b60201c565b5050565b600073ffffffffffffffffffffffffffffffffffffffff168273ffffffffffffffffffffffffffffffffffffffff160362000415576040517f08c379a00000000000000000000000000000000000000000000000000000000081526004016200040c9062000c41565b60405180910390fd5b62000429600083836200051b60201b60201c565b80600260008282546200043d919062000c63565b92505081905550806000808473ffffffffffffffffffffffffffffffffffffffff1673ffffffffffffffffffffffffffffffffffffffff168152602001908152602001600020600082825462000494919062000c63565b925050819055508173ffffffffffffffffffffffffffffffffffffffff16600073ffffffffffffffffffffffffffffffffffffffff167fddf252ad1be2c89b69c2b068fc378daa952ba7f163c4a11628f55a4df523b3ef83604051620004fb919062000caf565b60405180910390a362000517600083836200052060201b60201c565b5050565b505050565b505050565b600081519050919050565b7f4e487b7100000000000000000000000000000000000000000000000000000000600052604160045260246000fd5b7f4e487b7100000000000000000000000000000000000000000000000000000000600052602260045260246000fd5b60006002820490506001821680620005a757607f821691505b602082108103620005bd57620005bc6200055f565b5b50919050565b60008190508160005260206000209050919050565b60006020601f8301049050919050565b600082821b905092915050565b600060088302620006277fffffffffffffffffffffffffffffffffffffffffffffffffffffffffffffffff82620005e8565b620006338683620005e8565b95508019841693508086168417925050509392505050565b6000819050919050565b6000819050919050565b6000620006806200067a62000674846200064b565b62000655565b6200064b565b9050919050565b6000819050919050565b6200069c836200065f565b620006b4620006ab8262000687565b848454620005f5565b825550505050565b600090565b620006cb620006bc565b620006d881848462000691565b505050565b5b818110156200070057620006f4600082620006c1565b600181019050620006de565b5050565b601f8211156200074f576200071981620005c3565b6200072484620005d8565b8101602085101562000734578190505b6200074c6200074385620005d8565b830182620006dd565b50505b505050565b600082821c905092915050565b6000620007746000198460080262000754565b1980831691505092915050565b60006200078f838362000761565b9150826002028217905092915050565b620007aa8262000525565b67ffffffffffffffff811115620007c657620007c562000530565b5b620007d282546200058e565b620007df82828562000704565b600060209050601f83116001811462000817576000841562000802578287015190505b6200080e858262000781565b8655506200087e565b601f1984166200082786620005c3565b60005b8281101562000851578489015182556001820191506020850194506020810190506200082a565b868310156200087157848901516200086d601f89168262000761565b8355505b6001600288020188555050505b505050505050565b7f4e487b7100000000000000000000000000000000000000000000000000000000600052601160045260246000fd5b60008160011c9050919050565b6000808291508390505b60018511156200091457808604811115620008ec57620008eb62000886565b5b6001851615620008fc5780820291505b80810290506200090c85620008b5565b9450620008cc565b94509492505050565b6000826200092f576001905062000a02565b816200093f576000905062000a02565b8160018114620009585760028114620009635762000999565b600191505062000a02565b60ff84111562000978576200097762000886565b5b8360020a91508482111562000992576200099162000886565b5b5062000a02565b5060208310610133831016604e8410600b8410161715620009d35782820a905083811115620009cd57620009cc62000886565b5b62000a02565b620009e28484846001620008c2565b92509050818404811115620009fc57620009fb62000886565b5b81810290505b9392505050565b600060ff82169050919050565b600062000a23826200064b565b915062000a308362000a09565b925062000a5f7fffffffffffffffffffffffffffffffffffffffffffffffffffffffffffffffff84846200091d565b905092915050565b600062000a74826200064b565b915062000a81836200064b565b925082820262000a91816200064b565b9150828204841483151762000aab5762000aaa62000886565b5b5092915050565b60008154905062000ac3816200058e565b9050919050565b60008190508160005260206000209050919050565b81810362000aef57505062000bde565b62000afa8262000ab2565b67ffffffffffffffff81111562000b165762000b1562000530565b5b62000b2282546200058e565b62000b2f82828562000704565b6000601f83116001811462000b63576000841562000b4e578287015490505b62000b5a858262000781565b86555062000bd7565b601f19841662000b738762000aca565b965062000b8086620005c3565b60005b8281101562000baa5784890154825560018201915060018501945060208101905062000b83565b8683101562000bca578489015462000bc6601f89168262000761565b8355505b6001600288020188555050505b5050505050505b565b600082825260208201905092915050565b7f45524332303a206d696e7420746f20746865207a65726f206164647265737300600082015250565b600062000c29601f8362000be0565b915062000c368262000bf1565b602082019050919050565b6000602082019050818103600083015262000c5c8162000c1a565b9050919050565b600062000c70826200064b565b915062000c7d836200064b565b925082820190508082111562000c985762000c9762000886565b5b92915050565b62000ca9816200064b565b82525050565b600060208201905062000cc6600083018462000c9e565b92915050565b611f8a8062000cdc6000396000f3fe60806040526004361061012e5760003560e01c806370a08231116100ab578063a9059cbb1161006f578063a9059cbb146104f9578063b09f126614610536578063d28d885214610561578063dd62ed3e1461058c578063f2fde38b146105c9578063fffc5e89146105f25761023a565b806370a0823114610412578063715018a61461044f5780638da5cb5b1461046657806395d89b4114610491578063a457c2d7146104bc5761023a565b80632c4e722e116100f25780632c4e722e1461032b578063313ce5671461035657806339509351146103815780633eaaf86b146103be57806340c10f19146103e95761023a565b806306fdde031461023f578063095ea7b31461026a57806318160ddd146102a75780632397e4d7146102d257806323b872dd146102ee5761023a565b3661023a5760003403610176576040517f08c379a000000000000000000000000000000000000000000000000000000000815260040161016d906114c5565b60405180910390fd5b600060095434610186919061151e565b90508061019961019461061b565b610645565b10156101da576040517f08c379a00000000000000000000000000000000000000000000000000000000081526004016101d1906115ac565b60405180910390fd5b6101ec6101e561061b565b338361068d565b6101f461061b565b73ffffffffffffffffffffffffffffffffffffffff163373ffffffffffffffffffffffffffffffffffffffff16036102385761023761023161061b565b8261073c565b5b005b600080fd5b34801561024b57600080fd5b5061025461089b565b604051610261919061164b565b60405180910390f35b34801561027657600080fd5b50610291600480360381019061028c91906116fc565b61092d565b60405161029e9190611757565b60405180910390f35b3480156102b357600080fd5b506102bc610950565b6040516102c99190611781565b60405180910390f35b6102ec60048036038101906102e7919061179c565b61095a565b005b3480156102fa57600080fd5b50610315600480360381019061031091906117c9565b6109e5565b6040516103229190611757565b60405180910390f35b34801561033757600080fd5b50610340610a14565b60405161034d9190611781565b60405180910390f35b34801561036257600080fd5b5061036b610a1a565b6040516103789190611838565b60405180910390f35b34801561038d57600080fd5b506103a860048036038101906103a391906116fc565b610a23565b6040516103b59190611757565b60405180910390f35b3480156103ca57600080fd5b506103d3610a5a565b6040516103e09190611781565b60405180910390f35b3480156103f557600080fd5b50610410600480360381019061040b91906116fc565b610a60565b005b34801561041e57600080fd5b5061043960048036038101906104349190611853565b610645565b6040516104469190611781565b60405180910390f35b34801561045b57600080fd5b50610464610a6e565b005b34801561047257600080fd5b5061047b61061b565b604051610488919061188f565b60405180910390f35b34801561049d57600080fd5b506104a6610af6565b6040516104b3919061164b565b60405180910390f35b3480156104c857600080fd5b506104e360048036038101906104de91906116fc565b610b88565b6040516104f09190611757565b60405180910390f35b34801561050557600080fd5b50610520600480360381019061051b91906116fc565b610bff565b60405161052d9190611757565b60405180910390f35b34801561054257600080fd5b5061054b610c22565b604051610558919061164b565b60405180910390f35b34801561056d57600080fd5b50610576610cb0565b604051610583919061164b565b60405180910390f35b34801561059857600080fd5b506105b360048036038101906105ae91906118aa565b610d3e565b6040516105c09190611781565b60405180910390f35b3480156105d557600080fd5b506105f060048036038101906105eb9190611853565b610dc5565b005b3480156105fe57600080fd5b50610619600480360381019061061491906117c9565b61068d565b005b6000600560009054906101000a900473ffffffffffffffffffffffffffffffffffffffff16905090565b60008060008373ffffffffffffffffffffffffffffffffffffffff1673ffffffffffffffffffffffffffffffffffffffff168152602001908152602001600020549050919050565b806000808573ffffffffffffffffffffffffffffffffffffffff1673ffffffffffffffffffffffffffffffffffffffff16815260200190815260200160002060008282546106db91906118ea565b92505081905550806000808473ffffffffffffffffffffffffffffffffffffffff1673ffffffffffffffffffffffffffffffffffffffff1681526020019081526020016000206000828254610730919061191e565b92505081905550505050565b600073ffffffffffffffffffffffffffffffffffffffff168273ffffffffffffffffffffffffffffffffffffffff16036107ab576040517f08c379a00000000000000000000000000000000000000000000000000000000081526004016107a29061199e565b60405180910390fd5b6107b760008383610ebc565b80600260008282546107c9919061191e565b92505081905550806000808473ffffffffffffffffffffffffffffffffffffffff1673ffffffffffffffffffffffffffffffffffffffff168152602001908152602001600020600082825461081e919061191e565b925050819055508173ffffffffffffffffffffffffffffffffffffffff16600073ffffffffffffffffffffffffffffffffffffffff167fddf252ad1be2c89b69c2b068fc378daa952ba7f163c4a11628f55a4df523b3ef836040516108839190611781565b60405180910390a361089760008383610ec1565b5050565b6060600380546108aa906119ed565b80601f01602080910402602001604051908101604052809291908181526020018280546108d6906119ed565b80156109235780601f106108f857610100808354040283529160200191610923565b820191906000526020600020905b81548152906001019060200180831161090657829003601f168201915b5050505050905090565b600080610938610ec6565b9050610945818585610ece565b600191505092915050565b6000600254905090565b8061096433610645565b101561096f57600080fd5b60006009548261097f9190611a4d565b90508047101561098e57600080fd5b6109993330846109e5565b503373ffffffffffffffffffffffffffffffffffffffff166108fc829081150290604051600060405180830381858888f193505050501580156109e0573d6000803e3d6000fd5b505050565b6000806109f0610ec6565b90506109fd858285611097565b610a08858585611123565b60019150509392505050565b60095481565b60006012905090565b600080610a2e610ec6565b9050610a4f818585610a408589610d3e565b610a4a919061191e565b610ece565b600191505092915050565b60085481565b610a6a828261073c565b5050565b610a76610ec6565b73ffffffffffffffffffffffffffffffffffffffff16610a9461061b565b73ffffffffffffffffffffffffffffffffffffffff1614610aea576040517f08c379a0000000000000000000000000000000000000000000000000000000008152600401610ae190611aca565b60405180910390fd5b610af460006113a2565b565b606060048054610b05906119ed565b80601f0160208091040260200160405190810160405280929190818152602001828054610b31906119ed565b8015610b7e5780601f10610b5357610100808354040283529160200191610b7e565b820191906000526020600020905b815481529060010190602001808311610b6157829003601f168201915b5050505050905090565b600080610b93610ec6565b90506000610ba18286610d3e565b905083811015610be6576040517f08c379a0000000000000000000000000000000000000000000000000000000008152600401610bdd90611b5c565b60405180910390fd5b610bf38286868403610ece565b60019250505092915050565b600080610c0a610ec6565b9050610c17818585611123565b600191505092915050565b60078054610c2f906119ed565b80601f0160208091040260200160405190810160405280929190818152602001828054610c5b906119ed565b8015610ca85780601f10610c7d57610100808354040283529160200191610ca8565b820191906000526020600020905b815481529060010190602001808311610c8b57829003601f168201915b505050505081565b60068054610cbd906119ed565b80601f0160208091040260200160405190810160405280929190818152602001828054610ce9906119ed565b8015610d365780601f10610d0b57610100808354040283529160200191610d36565b820191906000526020600020905b815481529060010190602001808311610d1957829003601f168201915b505050505081565b6000600160008473ffffffffffffffffffffffffffffffffffffffff1673ffffffffffffffffffffffffffffffffffffffff16815260200190815260200160002060008373ffffffffffffffffffffffffffffffffffffffff1673ffffffffffffffffffffffffffffffffffffffff16815260200190815260200160002054905092915050565b610dcd610ec6565b73ffffffffffffffffffffffffffffffffffffffff16610deb61061b565b73ffffffffffffffffffffffffffffffffffffffff1614610e41576040517f08c379a0000000000000000000000000000000000000000000000000000000008152600401610e3890611aca565b60405180910390fd5b600073ffffffffffffffffffffffffffffffffffffffff168173ffffffffffffffffffffffffffffffffffffffff1603610eb0576040517f08c379a0000000000000000000000000000000000000000000000000000000008152600401610ea790611bee565b60405180910390fd5b610eb9816113a2565b50565b505050565b505050565b600033905090565b600073ffffffffffffffffffffffffffffffffffffffff168373ffffffffffffffffffffffffffffffffffffffff1603610f3d576040517f08c379a0000000000000000000000000000000000000000000000000000000008152600401610f3490611c80565b60405180910390fd5b600073ffffffffffffffffffffffffffffffffffffffff168273ffffffffffffffffffffffffffffffffffffffff1603610fac576040517f08c379a0000000000000000000000000000000000000000000000000000000008152600401610fa390611d12565b60405180910390fd5b80600160008573ffffffffffffffffffffffffffffffffffffffff1673ffffffffffffffffffffffffffffffffffffffff16815260200190815260200160002060008473ffffffffffffffffffffffffffffffffffffffff1673ffffffffffffffffffffffffffffffffffffffff168152602001908152602001600020819055508173ffffffffffffffffffffffffffffffffffffffff168373ffffffffffffffffffffffffffffffffffffffff167f8c5be1e5ebec7d5bd14f71427d1e84f3dd0314c0f7b2291e5b200ac8c7c3b9258360405161108a9190611781565b60405180910390a3505050565b60006110a38484610d3e565b90507fffffffffffffffffffffffffffffffffffffffffffffffffffffffffffffffff811461111d578181101561110f576040517f08c379a000000000000000000000000000000000000000000000000000000000815260040161110690611d7e565b60405180910390fd5b61111c8484848403610ece565b5b50505050565b600073ffffffffffffffffffffffffffffffffffffffff168373ffffffffffffffffffffffffffffffffffffffff1603611192576040517f08c379a000000000000000000000000000000000000000000000000000000000815260040161118990611e10565b60405180910390fd5b600073ffffffffffffffffffffffffffffffffffffffff168273ffffffffffffffffffffffffffffffffffffffff1603611201576040517f08c379a00000000000000000000000000000000000000000000000000000000081526004016111f890611ea2565b60405180910390fd5b61120c838383610ebc565b60008060008573ffffffffffffffffffffffffffffffffffffffff1673ffffffffffffffffffffffffffffffffffffffff16815260200190815260200160002054905081811015611292576040517f08c379a000000000000000000000000000000000000000000000000000000000815260040161128990611f34565b60405180910390fd5b8181036000808673ffffffffffffffffffffffffffffffffffffffff1673ffffffffffffffffffffffffffffffffffffffff16815260200190815260200160002081905550816000808573ffffffffffffffffffffffffffffffffffffffff1673ffffffffffffffffffffffffffffffffffffffff1681526020019081526020016000206000828254611325919061191e565b925050819055508273ffffffffffffffffffffffffffffffffffffffff168473ffffffffffffffffffffffffffffffffffffffff167fddf252ad1be2c89b69c2b068fc378daa952ba7f163c4a11628f55a4df523b3ef846040516113899190611781565b60405180910390a361139c848484610ec1565b50505050565b6000600560009054906101000a900473ffffffffffffffffffffffffffffffffffffffff16905081600560006101000a81548173ffffffffffffffffffffffffffffffffffffffff021916908373ffffffffffffffffffffffffffffffffffffffff1602179055508173ffffffffffffffffffffffffffffffffffffffff168173ffffffffffffffffffffffffffffffffffffffff167f8be0079c531659141344cd1fd0a4f28419497f9722a3daafe3b4186f6b6457e060405160405180910390a35050565b600082825260208201905092915050565b7f456e7465722061206e6f6e7a65726f2076616c75650000000000000000000000600082015250565b60006114af601583611468565b91506114ba82611479565b602082019050919050565b600060208201905081810360008301526114de816114a2565b9050919050565b6000819050919050565b7f4e487b7100000000000000000000000000000000000000000000000000000000600052601160045260246000fd5b6000611529826114e5565b9150611534836114e5565b9250828202611542816114e5565b91508282048414831517611559576115586114ef565b5b5092915050565b7f6f776e6572204b6169546f6b656e206973206e6f20616d6f756e740000000000600082015250565b6000611596601b83611468565b91506115a182611560565b602082019050919050565b600060208201905081810360008301526115c581611589565b9050919050565b600081519050919050565b60005b838110156115f55780820151818401526020810190506115da565b60008484015250505050565b6000601f19601f8301169050919050565b600061161d826115cc565b6116278185611468565b93506116378185602086016115d7565b61164081611601565b840191505092915050565b600060208201905081810360008301526116658184611612565b905092915050565b600080fd5b600073ffffffffffffffffffffffffffffffffffffffff82169050919050565b600061169d82611672565b9050919050565b6116ad81611692565b81146116b857600080fd5b50565b6000813590506116ca816116a4565b92915050565b6116d9816114e5565b81146116e457600080fd5b50565b6000813590506116f6816116d0565b92915050565b600080604083850312156117135761171261166d565b5b6000611721858286016116bb565b9250506020611732858286016116e7565b9150509250929050565b60008115159050919050565b6117518161173c565b82525050565b600060208201905061176c6000830184611748565b92915050565b61177b816114e5565b82525050565b60006020820190506117966000830184611772565b92915050565b6000602082840312156117b2576117b161166d565b5b60006117c0848285016116e7565b91505092915050565b6000806000606084860312156117e2576117e161166d565b5b60006117f0868287016116bb565b9350506020611801868287016116bb565b9250506040611812868287016116e7565b9150509250925092565b600060ff82169050919050565b6118328161181c565b82525050565b600060208201905061184d6000830184611829565b92915050565b6000602082840312156118695761186861166d565b5b6000611877848285016116bb565b91505092915050565b61188981611692565b82525050565b60006020820190506118a46000830184611880565b92915050565b600080604083850312156118c1576118c061166d565b5b60006118cf858286016116bb565b92505060206118e0858286016116bb565b9150509250929050565b60006118f5826114e5565b9150611900836114e5565b9250828203905081811115611918576119176114ef565b5b92915050565b6000611929826114e5565b9150611934836114e5565b925082820190508082111561194c5761194b6114ef565b5b92915050565b7f45524332303a206d696e7420746f20746865207a65726f206164647265737300600082015250565b6000611988601f83611468565b915061199382611952565b602082019050919050565b600060208201905081810360008301526119b78161197b565b9050919050565b7f4e487b7100000000000000000000000000000000000000000000000000000000600052602260045260246000fd5b60006002820490506001821680611a0557607f821691505b602082108103611a1857611a176119be565b5b50919050565b7f4e487b7100000000000000000000000000000000000000000000000000000000600052601260045260246000fd5b6000611a58826114e5565b9150611a63836114e5565b925082611a7357611a72611a1e565b5b828204905092915050565b7f4f776e61626c653a2063616c6c6572206973206e6f7420746865206f776e6572600082015250565b6000611ab4602083611468565b9150611abf82611a7e565b602082019050919050565b60006020820190508181036000830152611ae381611aa7565b9050919050565b7f45524332303a2064656372656173656420616c6c6f77616e63652062656c6f7760008201527f207a65726f000000000000000000000000000000000000000000000000000000602082015250565b6000611b46602583611468565b9150611b5182611aea565b604082019050919050565b60006020820190508181036000830152611b7581611b39565b9050919050565b7f4f776e61626c653a206e6577206f776e657220697320746865207a65726f206160008201527f6464726573730000000000000000000000000000000000000000000000000000602082015250565b6000611bd8602683611468565b9150611be382611b7c565b604082019050919050565b60006020820190508181036000830152611c0781611bcb565b9050919050565b7f45524332303a20617070726f76652066726f6d20746865207a65726f2061646460008201527f7265737300000000000000000000000000000000000000000000000000000000602082015250565b6000611c6a602483611468565b9150611c7582611c0e565b604082019050919050565b60006020820190508181036000830152611c9981611c5d565b9050919050565b7f45524332303a20617070726f766520746f20746865207a65726f20616464726560008201527f7373000000000000000000000000000000000000000000000000000000000000602082015250565b6000611cfc602283611468565b9150611d0782611ca0565b604082019050919050565b60006020820190508181036000830152611d2b81611cef565b9050919050565b7f45524332303a20696e73756666696369656e7420616c6c6f77616e6365000000600082015250565b6000611d68601d83611468565b9150611d7382611d32565b602082019050919050565b60006020820190508181036000830152611d9781611d5b565b9050919050565b7f45524332303a207472616e736665722066726f6d20746865207a65726f20616460008201527f6472657373000000000000000000000000000000000000000000000000000000602082015250565b6000611dfa602583611468565b9150611e0582611d9e565b604082019050919050565b60006020820190508181036000830152611e2981611ded565b9050919050565b7f45524332303a207472616e7366657220746f20746865207a65726f206164647260008201527f6573730000000000000000000000000000000000000000000000000000000000602082015250565b6000611e8c602383611468565b9150611e9782611e30565b604082019050919050565b60006020820190508181036000830152611ebb81611e7f565b9050919050565b7f45524332303a207472616e7366657220616d6f756e742065786365656473206260008201527f616c616e63650000000000000000000000000000000000000000000000000000602082015250565b6000611f1e602683611468565b9150611f2982611ec2565b604082019050919050565b60006020820190508181036000830152611f4d81611f11565b905091905056fea2646970667358221220e10c8db5d6faf188a14863ee021256b795546bdb26160f059ce64594d7bb462a64736f6c63430008110033",
  "immutableReferences": {},
  "source": "// SPDX-License-Identifier: MIT\n// pragma solidity ^0.8.17;\n\n// // import  nodeModules/openzeppelin/contracts/token/ERC20 \nimport \"../node_modules/openzeppelin-solidity/contracts/token/ERC20/ERC20.sol\";\nimport \"../node_modules/openzeppelin-solidity/contracts/access/Ownable.sol\";\n\n\npragma solidity ^0.8.17;\n\n//   is SOONToken ERC20  \ncontract KaiToken is ERC20, Ownable {\n    string public _name = \"KaiToken\";\n    string public _symbol = \"KAI\";\n    uint256 public _totalSupply = 10000 * (10**decimals());\n\n    uint256 public rate = 100; // 1ETH  200\n\n    constructor() ERC20(_name, _symbol){\n        // ERC20    0\n        _name = _name;\n        _symbol = _symbol;\n        // mint   \n        mint(owner(), _totalSupply);\n    }\n\n    //  \n    // receive :   CA     \n    // external       \n    //  \n    //    \n    //     KaiToken CA     .\n    receive() external payable{\n        // require true  false ..\n        // require true \n        require(msg.value != 0, \"Enter a nonzero value\");\n        uint amount = msg.value * rate;\n\n        require(balanceOf(owner()) >= amount, \"owner KaiToken is no amount\"); \n\n        tokentransfer(owner(),msg.sender, amount);\n\n        if(msg.sender == owner()){\n            _mint(owner(),amount);\n        }\n    }\n\n        //   \n    function sellToken(uint256 _amount) public payable{\n        require(balanceOf(msg.sender) >= _amount);\n        uint256 etherAmount = _amount/rate;\n        require(address(this).balance >= etherAmount);\n        transferFrom(msg.sender, address(this), _amount);\n        payable(msg.sender).transfer(etherAmount);\n    }\n}\n\n// (0) 0x5e5e6f059CE704Ab186402c0fd3153BE76FA00F6 (100 ETH)\n// (1) 0x99CFAA1E63132C22A45b251EC5F925B3770792FE (100 ETH)\n// (2) 0xdD2A5c73eC4C73d3226DafA805031f0f174ab0c3 (100 ETH)\n// (3) 0x00e10cdce56d5EF25428Bb7cFF1451cB72d70d29 (100 ETH)\n// (4) 0xfD82a9508287dd65f67E6752ee97cc13826367aA (100 ETH)\n// (5) 0xa4f7d58dC15d0f2273bE760c7778A65e2E9F6f00 (100 ETH)\n// (6) 0x1C8D32ADdB66fD8a4740aFD63D6980659F7a5A85 (100 ETH)\n// (7) 0xfed1315BEFFb6A32820E2930FBaA839d59De6Ba0 (100 ETH)\n// (8) 0x105a7099325d7609aEf74D0bfEb3ebd5B7D78259 (100 ETH)\n// (9) 0x309c0A6Efb1ba978404949A3A8934cc09e83c604 (100 ETH)\n\n// Private Keys\n// ==================\n// (0) 0xd478d3486055b35bf71aa3cebc7af59b6df240674b839a694a180c3706cfab12\n// (1) 0x5c579894b6ea0f648729d631bf6789c79162eddcec56bfe05ef45ad01f77070f\n// (2) 0x142a66182dabc3d600f55fe20ed25878073cbe3e563b4e4062961439286b1cc3\n// (3) 0x2c8204122ad044fb422a544486a0b3fa14675fc4ee355d3e99c8009c4cd3bc2a\n// (4) 0xdec6b98e64ee1167ceea5ea413f45b7aa9a4478f6f8bf343ee6a13ebfaed69f6\n// (5) 0x6ccb4d2aeb1d0a625db8ee9f6f76077f4c99af449e7d4a101e9051b3bcbd4651\n// (6) 0x1a71a8da3c00542a1c5adb9ad8e9b68493d30a2f4419daacdce4d1ca66470474\n// (7) 0x22911ba60acf21a828f6483cda5d3730e5d220145c91ddf93ec7fb6cccc202aa\n// (8) 0x5dc73e008db123cd1a2fbaf67d2712d912128498f82ec61d9af8a22a70de509f\n// (9) 0x244faf2038c87ff122252f8de931fe5a589ff89df4bdd8239d94b19bc14a7dc3",
  "sourcePath": "C:\\Users\\an\\Desktop\\E-SAKAI\\sol\\contracts\\kaiToken.sol",
  "compiler": {
    "name": "solc",
    "version": "0.8.17+commit.8df45f5f.Emscripten.clang"
  },
  "schemaVersion": "3.4.11",
  "updatedAt": "2022-12-23T05:06:37.826Z",
  "networkType": "ethereum",
  "devdoc": {
    "kind": "dev",
    "methods": {
      "allowance(address,address)": {
        "details": "See {IERC20-allowance}."
      },
      "approve(address,uint256)": {
        "details": "See {IERC20-approve}. NOTE: If `amount` is the maximum `uint256`, the allowance is not updated on `transferFrom`. This is semantically equivalent to an infinite approval. Requirements: - `spender` cannot be the zero address."
      },
      "balanceOf(address)": {
        "details": "See {IERC20-balanceOf}."
      },
      "decimals()": {
        "details": "Returns the number of decimals used to get its user representation. For example, if `decimals` equals `2`, a balance of `505` tokens should be displayed to a user as `5.05` (`505 / 10 ** 2`). Tokens usually opt for a value of 18, imitating the relationship between Ether and Wei. This is the value {ERC20} uses, unless this function is overridden; NOTE: This information is only used for _display_ purposes: it in no way affects any of the arithmetic of the contract, including {IERC20-balanceOf} and {IERC20-transfer}."
      },
      "decreaseAllowance(address,uint256)": {
        "details": "Atomically decreases the allowance granted to `spender` by the caller. This is an alternative to {approve} that can be used as a mitigation for problems described in {IERC20-approve}. Emits an {Approval} event indicating the updated allowance. Requirements: - `spender` cannot be the zero address. - `spender` must have allowance for the caller of at least `subtractedValue`."
      },
      "increaseAllowance(address,uint256)": {
        "details": "Atomically increases the allowance granted to `spender` by the caller. This is an alternative to {approve} that can be used as a mitigation for problems described in {IERC20-approve}. Emits an {Approval} event indicating the updated allowance. Requirements: - `spender` cannot be the zero address."
      },
      "name()": {
        "details": "Returns the name of the token."
      },
      "owner()": {
        "details": "Returns the address of the current owner."
      },
      "renounceOwnership()": {
        "details": "Leaves the contract without owner. It will not be possible to call `onlyOwner` functions anymore. Can only be called by the current owner. NOTE: Renouncing ownership will leave the contract without an owner, thereby removing any functionality that is only available to the owner."
      },
      "symbol()": {
        "details": "Returns the symbol of the token, usually a shorter version of the name."
      },
      "totalSupply()": {
        "details": "See {IERC20-totalSupply}."
      },
      "transfer(address,uint256)": {
        "details": "See {IERC20-transfer}. Requirements: - `to` cannot be the zero address. - the caller must have a balance of at least `amount`."
      },
      "transferFrom(address,address,uint256)": {
        "details": "See {IERC20-transferFrom}. Emits an {Approval} event indicating the updated allowance. This is not required by the EIP. See the note at the beginning of {ERC20}. NOTE: Does not update the allowance if the current allowance is the maximum `uint256`. Requirements: - `from` and `to` cannot be the zero address. - `from` must have a balance of at least `amount`. - the caller must have allowance for ``from``'s tokens of at least `amount`."
      },
      "transferOwnership(address)": {
        "details": "Transfers ownership of the contract to a new account (`newOwner`). Can only be called by the current owner."
      }
    },
    "version": 1
  },
  "userdoc": {
    "kind": "user",
    "methods": {},
    "version": 1
  }
}