{
  "contractName": "KaiToken",
  "abi": [
    {
      "inputs": [],
      "stateMutability": "nonpayable",
      "type": "constructor"
    },
    {
      "anonymous": false,
      "inputs": [
        {
          "indexed": true,
          "internalType": "address",
          "name": "owner",
          "type": "address"
        },
        {
          "indexed": true,
          "internalType": "address",
          "name": "spender",
          "type": "address"
        },
        {
          "indexed": false,
          "internalType": "uint256",
          "name": "value",
          "type": "uint256"
        }
      ],
      "name": "Approval",
      "type": "event"
    },
    {
      "anonymous": false,
      "inputs": [
        {
          "indexed": true,
          "internalType": "address",
          "name": "from",
          "type": "address"
        },
        {
          "indexed": true,
          "internalType": "address",
          "name": "to",
          "type": "address"
        },
        {
          "indexed": false,
          "internalType": "uint256",
          "name": "value",
          "type": "uint256"
        }
      ],
      "name": "Transfer",
      "type": "event"
    },
    {
      "inputs": [],
      "name": "_name",
      "outputs": [
        {
          "internalType": "string",
          "name": "",
          "type": "string"
        }
      ],
      "stateMutability": "view",
      "type": "function",
      "constant": true
    },
    {
      "inputs": [],
      "name": "_symbol",
      "outputs": [
        {
          "internalType": "string",
          "name": "",
          "type": "string"
        }
      ],
      "stateMutability": "view",
      "type": "function",
      "constant": true
    },
    {
      "inputs": [],
      "name": "_totalSupply",
      "outputs": [
        {
          "internalType": "uint256",
          "name": "",
          "type": "uint256"
        }
      ],
      "stateMutability": "view",
      "type": "function",
      "constant": true
    },
    {
      "inputs": [
        {
          "internalType": "address",
          "name": "owner",
          "type": "address"
        },
        {
          "internalType": "address",
          "name": "spender",
          "type": "address"
        }
      ],
      "name": "allowance",
      "outputs": [
        {
          "internalType": "uint256",
          "name": "",
          "type": "uint256"
        }
      ],
      "stateMutability": "view",
      "type": "function",
      "constant": true
    },
    {
      "inputs": [
        {
          "internalType": "address",
          "name": "spender",
          "type": "address"
        },
        {
          "internalType": "uint256",
          "name": "amount",
          "type": "uint256"
        }
      ],
      "name": "approve",
      "outputs": [
        {
          "internalType": "bool",
          "name": "",
          "type": "bool"
        }
      ],
      "stateMutability": "nonpayable",
      "type": "function"
    },
    {
      "inputs": [
        {
          "internalType": "address",
          "name": "account",
          "type": "address"
        }
      ],
      "name": "balanceOf",
      "outputs": [
        {
          "internalType": "uint256",
          "name": "",
          "type": "uint256"
        }
      ],
      "stateMutability": "view",
      "type": "function",
      "constant": true
    },
    {
      "inputs": [],
      "name": "decimals",
      "outputs": [
        {
          "internalType": "uint8",
          "name": "",
          "type": "uint8"
        }
      ],
      "stateMutability": "view",
      "type": "function",
      "constant": true
    },
    {
      "inputs": [
        {
          "internalType": "address",
          "name": "spender",
          "type": "address"
        },
        {
          "internalType": "uint256",
          "name": "subtractedValue",
          "type": "uint256"
        }
      ],
      "name": "decreaseAllowance",
      "outputs": [
        {
          "internalType": "bool",
          "name": "",
          "type": "bool"
        }
      ],
      "stateMutability": "nonpayable",
      "type": "function"
    },
    {
      "inputs": [
        {
          "internalType": "address",
          "name": "spender",
          "type": "address"
        },
        {
          "internalType": "uint256",
          "name": "addedValue",
          "type": "uint256"
        }
      ],
      "name": "increaseAllowance",
      "outputs": [
        {
          "internalType": "bool",
          "name": "",
          "type": "bool"
        }
      ],
      "stateMutability": "nonpayable",
      "type": "function"
    },
    {
      "inputs": [],
      "name": "name",
      "outputs": [
        {
          "internalType": "string",
          "name": "",
          "type": "string"
        }
      ],
      "stateMutability": "view",
      "type": "function",
      "constant": true
    },
    {
      "inputs": [],
      "name": "symbol",
      "outputs": [
        {
          "internalType": "string",
          "name": "",
          "type": "string"
        }
      ],
      "stateMutability": "view",
      "type": "function",
      "constant": true
    },
    {
      "inputs": [],
      "name": "totalSupply",
      "outputs": [
        {
          "internalType": "uint256",
          "name": "",
          "type": "uint256"
        }
      ],
      "stateMutability": "view",
      "type": "function",
      "constant": true
    },
    {
      "inputs": [
        {
          "internalType": "address",
          "name": "to",
          "type": "address"
        },
        {
          "internalType": "uint256",
          "name": "amount",
          "type": "uint256"
        }
      ],
      "name": "transfer",
      "outputs": [
        {
          "internalType": "bool",
          "name": "",
          "type": "bool"
        }
      ],
      "stateMutability": "nonpayable",
      "type": "function"
    },
    {
      "inputs": [
        {
          "internalType": "address",
          "name": "from",
          "type": "address"
        },
        {
          "internalType": "address",
          "name": "to",
          "type": "address"
        },
        {
          "internalType": "uint256",
          "name": "amount",
          "type": "uint256"
        }
      ],
      "name": "transferFrom",
      "outputs": [
        {
          "internalType": "bool",
          "name": "",
          "type": "bool"
        }
      ],
      "stateMutability": "nonpayable",
      "type": "function"
    }
  ],
  "bytecode": "0x60806040526040518060400160405280600881526020017f4b6169546f6b656e000000000000000000000000000000000000000000000000815250600590816200004a91906200063b565b506040518060400160405280600381526020017f4b41490000000000000000000000000000000000000000000000000000000000815250600690816200009191906200063b565b50620000a26200023660201b60201c565b600a620000b09190620008b2565b612710620000bf919062000903565b600755348015620000cf57600080fd5b5060058054620000df906200042a565b80601f01602080910402602001604051908101604052809291908181526020018280546200010d906200042a565b80156200015e5780601f1062000132576101008083540402835291602001916200015e565b820191906000526020600020905b8154815290600101906020018083116200014057829003601f168201915b50505050506006805462000172906200042a565b80601f0160208091040260200160405190810160405280929190818152602001828054620001a0906200042a565b8015620001f15780601f10620001c557610100808354040283529160200191620001f1565b820191906000526020600020905b815481529060010190602001808311620001d357829003601f168201915b505050505081600390816200020791906200063b565b5080600490816200021991906200063b565b50505062000230336007546200023f60201b60201c565b62000a3a565b60006012905090565b600073ffffffffffffffffffffffffffffffffffffffff168273ffffffffffffffffffffffffffffffffffffffff1603620002b1576040517f08c379a0000000000000000000000000000000000000000000000000000000008152600401620002a890620009af565b60405180910390fd5b620002c560008383620003b760201b60201c565b8060026000828254620002d99190620009d1565b92505081905550806000808473ffffffffffffffffffffffffffffffffffffffff1673ffffffffffffffffffffffffffffffffffffffff1681526020019081526020016000206000828254620003309190620009d1565b925050819055508173ffffffffffffffffffffffffffffffffffffffff16600073ffffffffffffffffffffffffffffffffffffffff167fddf252ad1be2c89b69c2b068fc378daa952ba7f163c4a11628f55a4df523b3ef8360405162000397919062000a1d565b60405180910390a3620003b360008383620003bc60201b60201c565b5050565b505050565b505050565b600081519050919050565b7f4e487b7100000000000000000000000000000000000000000000000000000000600052604160045260246000fd5b7f4e487b7100000000000000000000000000000000000000000000000000000000600052602260045260246000fd5b600060028204905060018216806200044357607f821691505b602082108103620004595762000458620003fb565b5b50919050565b60008190508160005260206000209050919050565b60006020601f8301049050919050565b600082821b905092915050565b600060088302620004c37fffffffffffffffffffffffffffffffffffffffffffffffffffffffffffffffff8262000484565b620004cf868362000484565b95508019841693508086168417925050509392505050565b6000819050919050565b6000819050919050565b60006200051c620005166200051084620004e7565b620004f1565b620004e7565b9050919050565b6000819050919050565b6200053883620004fb565b62000550620005478262000523565b84845462000491565b825550505050565b600090565b6200056762000558565b620005748184846200052d565b505050565b5b818110156200059c57620005906000826200055d565b6001810190506200057a565b5050565b601f821115620005eb57620005b5816200045f565b620005c08462000474565b81016020851015620005d0578190505b620005e8620005df8562000474565b83018262000579565b50505b505050565b600082821c905092915050565b60006200061060001984600802620005f0565b1980831691505092915050565b60006200062b8383620005fd565b9150826002028217905092915050565b6200064682620003c1565b67ffffffffffffffff811115620006625762000661620003cc565b5b6200066e82546200042a565b6200067b828285620005a0565b600060209050601f831160018114620006b357600084156200069e578287015190505b620006aa85826200061d565b8655506200071a565b601f198416620006c3866200045f565b60005b82811015620006ed57848901518255600182019150602085019450602081019050620006c6565b868310156200070d578489015162000709601f891682620005fd565b8355505b6001600288020188555050505b505050505050565b7f4e487b7100000000000000000000000000000000000000000000000000000000600052601160045260246000fd5b60008160011c9050919050565b6000808291508390505b6001851115620007b05780860481111562000788576200078762000722565b5b6001851615620007985780820291505b8081029050620007a88562000751565b945062000768565b94509492505050565b600082620007cb57600190506200089e565b81620007db57600090506200089e565b8160018114620007f45760028114620007ff5762000835565b60019150506200089e565b60ff84111562000814576200081362000722565b5b8360020a9150848211156200082e576200082d62000722565b5b506200089e565b5060208310610133831016604e8410600b84101617156200086f5782820a90508381111562000869576200086862000722565b5b6200089e565b6200087e84848460016200075e565b9250905081840481111562000898576200089762000722565b5b81810290505b9392505050565b600060ff82169050919050565b6000620008bf82620004e7565b9150620008cc83620008a5565b9250620008fb7fffffffffffffffffffffffffffffffffffffffffffffffffffffffffffffffff8484620007b9565b905092915050565b60006200091082620004e7565b91506200091d83620004e7565b92508282026200092d81620004e7565b9150828204841483151762000947576200094662000722565b5b5092915050565b600082825260208201905092915050565b7f45524332303a206d696e7420746f20746865207a65726f206164647265737300600082015250565b600062000997601f836200094e565b9150620009a4826200095f565b602082019050919050565b60006020820190508181036000830152620009ca8162000988565b9050919050565b6000620009de82620004e7565b9150620009eb83620004e7565b925082820190508082111562000a065762000a0562000722565b5b92915050565b62000a1781620004e7565b82525050565b600060208201905062000a34600083018462000a0c565b92915050565b6113f58062000a4a6000396000f3fe608060405234801561001057600080fd5b50600436106100ea5760003560e01c806370a082311161008c578063a9059cbb11610066578063a9059cbb14610275578063b09f1266146102a5578063d28d8852146102c3578063dd62ed3e146102e1576100ea565b806370a08231146101f757806395d89b4114610227578063a457c2d714610245576100ea565b806323b872dd116100c857806323b872dd1461015b578063313ce5671461018b57806339509351146101a95780633eaaf86b146101d9576100ea565b806306fdde03146100ef578063095ea7b31461010d57806318160ddd1461013d575b600080fd5b6100f7610311565b6040516101049190610cd2565b60405180910390f35b61012760048036038101906101229190610d8d565b6103a3565b6040516101349190610de8565b60405180910390f35b6101456103c6565b6040516101529190610e12565b60405180910390f35b61017560048036038101906101709190610e2d565b6103d0565b6040516101829190610de8565b60405180910390f35b6101936103ff565b6040516101a09190610e9c565b60405180910390f35b6101c360048036038101906101be9190610d8d565b610408565b6040516101d09190610de8565b60405180910390f35b6101e161043f565b6040516101ee9190610e12565b60405180910390f35b610211600480360381019061020c9190610eb7565b610445565b60405161021e9190610e12565b60405180910390f35b61022f61048d565b60405161023c9190610cd2565b60405180910390f35b61025f600480360381019061025a9190610d8d565b61051f565b60405161026c9190610de8565b60405180910390f35b61028f600480360381019061028a9190610d8d565b610596565b60405161029c9190610de8565b60405180910390f35b6102ad6105b9565b6040516102ba9190610cd2565b60405180910390f35b6102cb610647565b6040516102d89190610cd2565b60405180910390f35b6102fb60048036038101906102f69190610ee4565b6106d5565b6040516103089190610e12565b60405180910390f35b60606003805461032090610f53565b80601f016020809104026020016040519081016040528092919081815260200182805461034c90610f53565b80156103995780601f1061036e57610100808354040283529160200191610399565b820191906000526020600020905b81548152906001019060200180831161037c57829003601f168201915b5050505050905090565b6000806103ae61075c565b90506103bb818585610764565b600191505092915050565b6000600254905090565b6000806103db61075c565b90506103e885828561092d565b6103f38585856109b9565b60019150509392505050565b60006012905090565b60008061041361075c565b905061043481858561042585896106d5565b61042f9190610fb3565b610764565b600191505092915050565b60075481565b60008060008373ffffffffffffffffffffffffffffffffffffffff1673ffffffffffffffffffffffffffffffffffffffff168152602001908152602001600020549050919050565b60606004805461049c90610f53565b80601f01602080910402602001604051908101604052809291908181526020018280546104c890610f53565b80156105155780601f106104ea57610100808354040283529160200191610515565b820191906000526020600020905b8154815290600101906020018083116104f857829003601f168201915b5050505050905090565b60008061052a61075c565b9050600061053882866106d5565b90508381101561057d576040517f08c379a000000000000000000000000000000000000000000000000000000000815260040161057490611059565b60405180910390fd5b61058a8286868403610764565b60019250505092915050565b6000806105a161075c565b90506105ae8185856109b9565b600191505092915050565b600680546105c690610f53565b80601f01602080910402602001604051908101604052809291908181526020018280546105f290610f53565b801561063f5780601f106106145761010080835404028352916020019161063f565b820191906000526020600020905b81548152906001019060200180831161062257829003601f168201915b505050505081565b6005805461065490610f53565b80601f016020809104026020016040519081016040528092919081815260200182805461068090610f53565b80156106cd5780601f106106a2576101008083540402835291602001916106cd565b820191906000526020600020905b8154815290600101906020018083116106b057829003601f168201915b505050505081565b6000600160008473ffffffffffffffffffffffffffffffffffffffff1673ffffffffffffffffffffffffffffffffffffffff16815260200190815260200160002060008373ffffffffffffffffffffffffffffffffffffffff1673ffffffffffffffffffffffffffffffffffffffff16815260200190815260200160002054905092915050565b600033905090565b600073ffffffffffffffffffffffffffffffffffffffff168373ffffffffffffffffffffffffffffffffffffffff16036107d3576040517f08c379a00000000000000000000000000000000000000000000000000000000081526004016107ca906110eb565b60405180910390fd5b600073ffffffffffffffffffffffffffffffffffffffff168273ffffffffffffffffffffffffffffffffffffffff1603610842576040517f08c379a00000000000000000000000000000000000000000000000000000000081526004016108399061117d565b60405180910390fd5b80600160008573ffffffffffffffffffffffffffffffffffffffff1673ffffffffffffffffffffffffffffffffffffffff16815260200190815260200160002060008473ffffffffffffffffffffffffffffffffffffffff1673ffffffffffffffffffffffffffffffffffffffff168152602001908152602001600020819055508173ffffffffffffffffffffffffffffffffffffffff168373ffffffffffffffffffffffffffffffffffffffff167f8c5be1e5ebec7d5bd14f71427d1e84f3dd0314c0f7b2291e5b200ac8c7c3b925836040516109209190610e12565b60405180910390a3505050565b600061093984846106d5565b90507fffffffffffffffffffffffffffffffffffffffffffffffffffffffffffffffff81146109b357818110156109a5576040517f08c379a000000000000000000000000000000000000000000000000000000000815260040161099c906111e9565b60405180910390fd5b6109b28484848403610764565b5b50505050565b600073ffffffffffffffffffffffffffffffffffffffff168373ffffffffffffffffffffffffffffffffffffffff1603610a28576040517f08c379a0000000000000000000000000000000000000000000000000000000008152600401610a1f9061127b565b60405180910390fd5b600073ffffffffffffffffffffffffffffffffffffffff168273ffffffffffffffffffffffffffffffffffffffff1603610a97576040517f08c379a0000000000000000000000000000000000000000000000000000000008152600401610a8e9061130d565b60405180910390fd5b610aa2838383610c38565b60008060008573ffffffffffffffffffffffffffffffffffffffff1673ffffffffffffffffffffffffffffffffffffffff16815260200190815260200160002054905081811015610b28576040517f08c379a0000000000000000000000000000000000000000000000000000000008152600401610b1f9061139f565b60405180910390fd5b8181036000808673ffffffffffffffffffffffffffffffffffffffff1673ffffffffffffffffffffffffffffffffffffffff16815260200190815260200160002081905550816000808573ffffffffffffffffffffffffffffffffffffffff1673ffffffffffffffffffffffffffffffffffffffff1681526020019081526020016000206000828254610bbb9190610fb3565b925050819055508273ffffffffffffffffffffffffffffffffffffffff168473ffffffffffffffffffffffffffffffffffffffff167fddf252ad1be2c89b69c2b068fc378daa952ba7f163c4a11628f55a4df523b3ef84604051610c1f9190610e12565b60405180910390a3610c32848484610c3d565b50505050565b505050565b505050565b600081519050919050565b600082825260208201905092915050565b60005b83811015610c7c578082015181840152602081019050610c61565b60008484015250505050565b6000601f19601f8301169050919050565b6000610ca482610c42565b610cae8185610c4d565b9350610cbe818560208601610c5e565b610cc781610c88565b840191505092915050565b60006020820190508181036000830152610cec8184610c99565b905092915050565b600080fd5b600073ffffffffffffffffffffffffffffffffffffffff82169050919050565b6000610d2482610cf9565b9050919050565b610d3481610d19565b8114610d3f57600080fd5b50565b600081359050610d5181610d2b565b92915050565b6000819050919050565b610d6a81610d57565b8114610d7557600080fd5b50565b600081359050610d8781610d61565b92915050565b60008060408385031215610da457610da3610cf4565b5b6000610db285828601610d42565b9250506020610dc385828601610d78565b9150509250929050565b60008115159050919050565b610de281610dcd565b82525050565b6000602082019050610dfd6000830184610dd9565b92915050565b610e0c81610d57565b82525050565b6000602082019050610e276000830184610e03565b92915050565b600080600060608486031215610e4657610e45610cf4565b5b6000610e5486828701610d42565b9350506020610e6586828701610d42565b9250506040610e7686828701610d78565b9150509250925092565b600060ff82169050919050565b610e9681610e80565b82525050565b6000602082019050610eb16000830184610e8d565b92915050565b600060208284031215610ecd57610ecc610cf4565b5b6000610edb84828501610d42565b91505092915050565b60008060408385031215610efb57610efa610cf4565b5b6000610f0985828601610d42565b9250506020610f1a85828601610d42565b9150509250929050565b7f4e487b7100000000000000000000000000000000000000000000000000000000600052602260045260246000fd5b60006002820490506001821680610f6b57607f821691505b602082108103610f7e57610f7d610f24565b5b50919050565b7f4e487b7100000000000000000000000000000000000000000000000000000000600052601160045260246000fd5b6000610fbe82610d57565b9150610fc983610d57565b9250828201905080821115610fe157610fe0610f84565b5b92915050565b7f45524332303a2064656372656173656420616c6c6f77616e63652062656c6f7760008201527f207a65726f000000000000000000000000000000000000000000000000000000602082015250565b6000611043602583610c4d565b915061104e82610fe7565b604082019050919050565b6000602082019050818103600083015261107281611036565b9050919050565b7f45524332303a20617070726f76652066726f6d20746865207a65726f2061646460008201527f7265737300000000000000000000000000000000000000000000000000000000602082015250565b60006110d5602483610c4d565b91506110e082611079565b604082019050919050565b60006020820190508181036000830152611104816110c8565b9050919050565b7f45524332303a20617070726f766520746f20746865207a65726f20616464726560008201527f7373000000000000000000000000000000000000000000000000000000000000602082015250565b6000611167602283610c4d565b91506111728261110b565b604082019050919050565b600060208201905081810360008301526111968161115a565b9050919050565b7f45524332303a20696e73756666696369656e7420616c6c6f77616e6365000000600082015250565b60006111d3601d83610c4d565b91506111de8261119d565b602082019050919050565b60006020820190508181036000830152611202816111c6565b9050919050565b7f45524332303a207472616e736665722066726f6d20746865207a65726f20616460008201527f6472657373000000000000000000000000000000000000000000000000000000602082015250565b6000611265602583610c4d565b915061127082611209565b604082019050919050565b6000602082019050818103600083015261129481611258565b9050919050565b7f45524332303a207472616e7366657220746f20746865207a65726f206164647260008201527f6573730000000000000000000000000000000000000000000000000000000000602082015250565b60006112f7602383610c4d565b91506113028261129b565b604082019050919050565b60006020820190508181036000830152611326816112ea565b9050919050565b7f45524332303a207472616e7366657220616d6f756e742065786365656473206260008201527f616c616e63650000000000000000000000000000000000000000000000000000602082015250565b6000611389602683610c4d565b91506113948261132d565b604082019050919050565b600060208201905081810360008301526113b88161137c565b905091905056fea2646970667358221220ed5022defe045c62652608713be1fbaf34e9aa040b7f18e9d6b6f98970e4831064736f6c63430008110033",
  "immutableReferences": {},
  "source": "// SPDX-License-Identifier: MIT\r\npragma solidity ^0.8.17;\r\n\r\n// import  nodeModules/openzeppelin/contracts/token/ERC20 \r\nimport \"../node_modules/openzeppelin-solidity/contracts/token/ERC20/ERC20.sol\";\r\n\r\ncontract KaiToken is ERC20{\r\n    string public _name = \"KaiToken\";\r\n    string public _symbol = \"KAI\";\r\n    uint public _totalSupply = 10000 * (10 ** decimals());\r\n\r\n    constructor() ERC20(_name, _symbol){\r\n        _mint(msg.sender, _totalSupply);\r\n    }\r\n}",
  "sourcePath": "C:\\Users\\an\\Desktop\\E-SAKAI\\sol\\contracts\\kaiToken.sol",
  "compiler": {
    "name": "solc",
    "version": "0.8.17+commit.8df45f5f.Emscripten.clang"
  },
  "schemaVersion": "3.4.11",
  "updatedAt": "2022-12-22T06:05:59.653Z",
  "networkType": "ethereum",
  "devdoc": {
    "kind": "dev",
    "methods": {
      "allowance(address,address)": {
        "details": "See {IERC20-allowance}."
      },
      "approve(address,uint256)": {
        "details": "See {IERC20-approve}. NOTE: If `amount` is the maximum `uint256`, the allowance is not updated on `transferFrom`. This is semantically equivalent to an infinite approval. Requirements: - `spender` cannot be the zero address."
      },
      "balanceOf(address)": {
        "details": "See {IERC20-balanceOf}."
      },
      "decimals()": {
        "details": "Returns the number of decimals used to get its user representation. For example, if `decimals` equals `2`, a balance of `505` tokens should be displayed to a user as `5.05` (`505 / 10 ** 2`). Tokens usually opt for a value of 18, imitating the relationship between Ether and Wei. This is the value {ERC20} uses, unless this function is overridden; NOTE: This information is only used for _display_ purposes: it in no way affects any of the arithmetic of the contract, including {IERC20-balanceOf} and {IERC20-transfer}."
      },
      "decreaseAllowance(address,uint256)": {
        "details": "Atomically decreases the allowance granted to `spender` by the caller. This is an alternative to {approve} that can be used as a mitigation for problems described in {IERC20-approve}. Emits an {Approval} event indicating the updated allowance. Requirements: - `spender` cannot be the zero address. - `spender` must have allowance for the caller of at least `subtractedValue`."
      },
      "increaseAllowance(address,uint256)": {
        "details": "Atomically increases the allowance granted to `spender` by the caller. This is an alternative to {approve} that can be used as a mitigation for problems described in {IERC20-approve}. Emits an {Approval} event indicating the updated allowance. Requirements: - `spender` cannot be the zero address."
      },
      "name()": {
        "details": "Returns the name of the token."
      },
      "symbol()": {
        "details": "Returns the symbol of the token, usually a shorter version of the name."
      },
      "totalSupply()": {
        "details": "See {IERC20-totalSupply}."
      },
      "transfer(address,uint256)": {
        "details": "See {IERC20-transfer}. Requirements: - `to` cannot be the zero address. - the caller must have a balance of at least `amount`."
      },
      "transferFrom(address,address,uint256)": {
        "details": "See {IERC20-transferFrom}. Emits an {Approval} event indicating the updated allowance. This is not required by the EIP. See the note at the beginning of {ERC20}. NOTE: Does not update the allowance if the current allowance is the maximum `uint256`. Requirements: - `from` and `to` cannot be the zero address. - `from` must have a balance of at least `amount`. - the caller must have allowance for ``from``'s tokens of at least `amount`."
      }
    },
    "version": 1
  },
  "userdoc": {
    "kind": "user",
    "methods": {},
    "version": 1
  }
}