{
  "contractName": "MintNFT",
  "abi": [
    {
      "inputs": [
        {
          "internalType": "address",
          "name": "_tokenAddress",
          "type": "address"
        }
      ],
      "stateMutability": "nonpayable",
      "type": "constructor"
    },
    {
      "anonymous": false,
      "inputs": [
        {
          "indexed": true,
          "internalType": "address",
          "name": "owner",
          "type": "address"
        },
        {
          "indexed": true,
          "internalType": "address",
          "name": "approved",
          "type": "address"
        },
        {
          "indexed": true,
          "internalType": "uint256",
          "name": "tokenId",
          "type": "uint256"
        }
      ],
      "name": "Approval",
      "type": "event"
    },
    {
      "anonymous": false,
      "inputs": [
        {
          "indexed": true,
          "internalType": "address",
          "name": "owner",
          "type": "address"
        },
        {
          "indexed": true,
          "internalType": "address",
          "name": "operator",
          "type": "address"
        },
        {
          "indexed": false,
          "internalType": "bool",
          "name": "approved",
          "type": "bool"
        }
      ],
      "name": "ApprovalForAll",
      "type": "event"
    },
    {
      "anonymous": false,
      "inputs": [
        {
          "indexed": true,
          "internalType": "address",
          "name": "previousOwner",
          "type": "address"
        },
        {
          "indexed": true,
          "internalType": "address",
          "name": "newOwner",
          "type": "address"
        }
      ],
      "name": "OwnershipTransferred",
      "type": "event"
    },
    {
      "anonymous": false,
      "inputs": [
        {
          "indexed": true,
          "internalType": "address",
          "name": "from",
          "type": "address"
        },
        {
          "indexed": true,
          "internalType": "address",
          "name": "to",
          "type": "address"
        },
        {
          "indexed": true,
          "internalType": "uint256",
          "name": "tokenId",
          "type": "uint256"
        }
      ],
      "name": "Transfer",
      "type": "event"
    },
    {
      "inputs": [
        {
          "internalType": "address",
          "name": "to",
          "type": "address"
        },
        {
          "internalType": "uint256",
          "name": "tokenId",
          "type": "uint256"
        }
      ],
      "name": "approve",
      "outputs": [],
      "stateMutability": "nonpayable",
      "type": "function"
    },
    {
      "inputs": [
        {
          "internalType": "address",
          "name": "owner",
          "type": "address"
        }
      ],
      "name": "balanceOf",
      "outputs": [
        {
          "internalType": "uint256",
          "name": "",
          "type": "uint256"
        }
      ],
      "stateMutability": "view",
      "type": "function",
      "constant": true
    },
    {
      "inputs": [
        {
          "internalType": "uint256",
          "name": "tokenId",
          "type": "uint256"
        }
      ],
      "name": "getApproved",
      "outputs": [
        {
          "internalType": "address",
          "name": "",
          "type": "address"
        }
      ],
      "stateMutability": "view",
      "type": "function",
      "constant": true
    },
    {
      "inputs": [
        {
          "internalType": "address",
          "name": "owner",
          "type": "address"
        },
        {
          "internalType": "address",
          "name": "operator",
          "type": "address"
        }
      ],
      "name": "isApprovedForAll",
      "outputs": [
        {
          "internalType": "bool",
          "name": "",
          "type": "bool"
        }
      ],
      "stateMutability": "view",
      "type": "function",
      "constant": true
    },
    {
      "inputs": [],
      "name": "metadataURI",
      "outputs": [
        {
          "internalType": "string",
          "name": "",
          "type": "string"
        }
      ],
      "stateMutability": "view",
      "type": "function",
      "constant": true
    },
    {
      "inputs": [],
      "name": "name",
      "outputs": [
        {
          "internalType": "string",
          "name": "",
          "type": "string"
        }
      ],
      "stateMutability": "view",
      "type": "function",
      "constant": true
    },
    {
      "inputs": [],
      "name": "owner",
      "outputs": [
        {
          "internalType": "address",
          "name": "",
          "type": "address"
        }
      ],
      "stateMutability": "view",
      "type": "function",
      "constant": true
    },
    {
      "inputs": [
        {
          "internalType": "uint256",
          "name": "tokenId",
          "type": "uint256"
        }
      ],
      "name": "ownerOf",
      "outputs": [
        {
          "internalType": "address",
          "name": "",
          "type": "address"
        }
      ],
      "stateMutability": "view",
      "type": "function",
      "constant": true
    },
    {
      "inputs": [],
      "name": "renounceOwnership",
      "outputs": [],
      "stateMutability": "nonpayable",
      "type": "function"
    },
    {
      "inputs": [
        {
          "internalType": "address",
          "name": "from",
          "type": "address"
        },
        {
          "internalType": "address",
          "name": "to",
          "type": "address"
        },
        {
          "internalType": "uint256",
          "name": "tokenId",
          "type": "uint256"
        }
      ],
      "name": "safeTransferFrom",
      "outputs": [],
      "stateMutability": "nonpayable",
      "type": "function"
    },
    {
      "inputs": [
        {
          "internalType": "address",
          "name": "from",
          "type": "address"
        },
        {
          "internalType": "address",
          "name": "to",
          "type": "address"
        },
        {
          "internalType": "uint256",
          "name": "tokenId",
          "type": "uint256"
        },
        {
          "internalType": "bytes",
          "name": "_data",
          "type": "bytes"
        }
      ],
      "name": "safeTransferFrom",
      "outputs": [],
      "stateMutability": "nonpayable",
      "type": "function"
    },
    {
      "inputs": [
        {
          "internalType": "address",
          "name": "operator",
          "type": "address"
        },
        {
          "internalType": "bool",
          "name": "approved",
          "type": "bool"
        }
      ],
      "name": "setApprovalForAll",
      "outputs": [],
      "stateMutability": "nonpayable",
      "type": "function"
    },
    {
      "inputs": [
        {
          "internalType": "bytes4",
          "name": "interfaceId",
          "type": "bytes4"
        }
      ],
      "name": "supportsInterface",
      "outputs": [
        {
          "internalType": "bool",
          "name": "",
          "type": "bool"
        }
      ],
      "stateMutability": "view",
      "type": "function",
      "constant": true
    },
    {
      "inputs": [],
      "name": "symbol",
      "outputs": [
        {
          "internalType": "string",
          "name": "",
          "type": "string"
        }
      ],
      "stateMutability": "view",
      "type": "function",
      "constant": true
    },
    {
      "inputs": [
        {
          "internalType": "uint256",
          "name": "index",
          "type": "uint256"
        }
      ],
      "name": "tokenByIndex",
      "outputs": [
        {
          "internalType": "uint256",
          "name": "",
          "type": "uint256"
        }
      ],
      "stateMutability": "view",
      "type": "function",
      "constant": true
    },
    {
      "inputs": [
        {
          "internalType": "address",
          "name": "owner",
          "type": "address"
        },
        {
          "internalType": "uint256",
          "name": "index",
          "type": "uint256"
        }
      ],
      "name": "tokenOfOwnerByIndex",
      "outputs": [
        {
          "internalType": "uint256",
          "name": "",
          "type": "uint256"
        }
      ],
      "stateMutability": "view",
      "type": "function",
      "constant": true
    },
    {
      "inputs": [],
      "name": "totalNFT",
      "outputs": [
        {
          "internalType": "uint256",
          "name": "",
          "type": "uint256"
        }
      ],
      "stateMutability": "view",
      "type": "function",
      "constant": true
    },
    {
      "inputs": [],
      "name": "totalSupply",
      "outputs": [
        {
          "internalType": "uint256",
          "name": "",
          "type": "uint256"
        }
      ],
      "stateMutability": "view",
      "type": "function",
      "constant": true
    },
    {
      "inputs": [
        {
          "internalType": "address",
          "name": "from",
          "type": "address"
        },
        {
          "internalType": "address",
          "name": "to",
          "type": "address"
        },
        {
          "internalType": "uint256",
          "name": "tokenId",
          "type": "uint256"
        }
      ],
      "name": "transferFrom",
      "outputs": [],
      "stateMutability": "nonpayable",
      "type": "function"
    },
    {
      "inputs": [
        {
          "internalType": "address",
          "name": "newOwner",
          "type": "address"
        }
      ],
      "name": "transferOwnership",
      "outputs": [],
      "stateMutability": "nonpayable",
      "type": "function"
    },
    {
      "inputs": [
        {
          "internalType": "uint256",
          "name": "mintValue",
          "type": "uint256"
        },
        {
          "internalType": "uint256",
          "name": "kaiSwap",
          "type": "uint256"
        }
      ],
      "name": "mintNFT",
      "outputs": [],
      "stateMutability": "nonpayable",
      "type": "function"
    },
    {
      "inputs": [
        {
          "internalType": "uint256",
          "name": "_tokenId",
          "type": "uint256"
        }
      ],
      "name": "tokenURI",
      "outputs": [
        {
          "internalType": "string",
          "name": "",
          "type": "string"
        }
      ],
      "stateMutability": "view",
      "type": "function",
      "constant": true
    }
  ],
  "bytecode": "0x6080604052601e600b5560405180608001604052806051815260200162003c9460519139600c9081620000339190620004c3565b503480156200004157600080fd5b5060405162003ce538038062003ce5833981810160405281019062000067919062000614565b6040518060400160405280600981526020017f48616a696e43686f6900000000000000000000000000000000000000000000008152506040518060400160405280600481526020017f43686f69000000000000000000000000000000000000000000000000000000008152508160009081620000e49190620004c3565b508060019081620000f69190620004c3565b505050620001196200010d6200017b60201b60201c565b6200018360201b60201c565b600c808162000129919062000673565b50600b54600b8190555080600d60006101000a81548173ffffffffffffffffffffffffffffffffffffffff021916908373ffffffffffffffffffffffffffffffffffffffff1602179055505062000774565b600033905090565b6000600a60009054906101000a900473ffffffffffffffffffffffffffffffffffffffff16905081600a60006101000a81548173ffffffffffffffffffffffffffffffffffffffff021916908373ffffffffffffffffffffffffffffffffffffffff1602179055508173ffffffffffffffffffffffffffffffffffffffff168173ffffffffffffffffffffffffffffffffffffffff167f8be0079c531659141344cd1fd0a4f28419497f9722a3daafe3b4186f6b6457e060405160405180910390a35050565b600081519050919050565b7f4e487b7100000000000000000000000000000000000000000000000000000000600052604160045260246000fd5b7f4e487b7100000000000000000000000000000000000000000000000000000000600052602260045260246000fd5b60006002820490506001821680620002cb57607f821691505b602082108103620002e157620002e062000283565b5b50919050565b60008190508160005260206000209050919050565b60006020601f8301049050919050565b600082821b905092915050565b6000600883026200034b7fffffffffffffffffffffffffffffffffffffffffffffffffffffffffffffffff826200030c565b6200035786836200030c565b95508019841693508086168417925050509392505050565b6000819050919050565b6000819050919050565b6000620003a46200039e62000398846200036f565b62000379565b6200036f565b9050919050565b6000819050919050565b620003c08362000383565b620003d8620003cf82620003ab565b84845462000319565b825550505050565b600090565b620003ef620003e0565b620003fc818484620003b5565b505050565b5b81811015620004245762000418600082620003e5565b60018101905062000402565b5050565b601f82111562000473576200043d81620002e7565b6200044884620002fc565b8101602085101562000458578190505b620004706200046785620002fc565b83018262000401565b50505b505050565b600082821c905092915050565b6000620004986000198460080262000478565b1980831691505092915050565b6000620004b3838362000485565b9150826002028217905092915050565b620004ce8262000249565b67ffffffffffffffff811115620004ea57620004e962000254565b5b620004f68254620002b2565b6200050382828562000428565b600060209050601f8311600181146200053b576000841562000526578287015190505b620005328582620004a5565b865550620005a2565b601f1984166200054b86620002e7565b60005b8281101562000575578489015182556001820191506020850194506020810190506200054e565b8683101562000595578489015162000591601f89168262000485565b8355505b6001600288020188555050505b505050505050565b600080fd5b600073ffffffffffffffffffffffffffffffffffffffff82169050919050565b6000620005dc82620005af565b9050919050565b620005ee81620005cf565b8114620005fa57600080fd5b50565b6000815190506200060e81620005e3565b92915050565b6000602082840312156200062d576200062c620005aa565b5b60006200063d84828501620005fd565b91505092915050565b6000815490506200065781620002b2565b9050919050565b60008190508160005260206000209050919050565b8181036200068357505062000772565b6200068e8262000646565b67ffffffffffffffff811115620006aa57620006a962000254565b5b620006b68254620002b2565b620006c382828562000428565b6000601f831160018114620006f75760008415620006e2578287015490505b620006ee8582620004a5565b8655506200076b565b601f19841662000707876200065e565b96506200071486620002e7565b60005b828110156200073e5784890154825560018201915060018501945060208101905062000717565b868310156200075e57848901546200075a601f89168262000485565b8355505b6001600288020188555050505b5050505050505b565b61351080620007846000396000f3fe608060405234801561001057600080fd5b50600436106101415760003560e01c80636352211e116100b8578063a22cb4651161007c578063a22cb46514610378578063b88d4fde14610394578063c48283ff146103b0578063c87b56dd146103cc578063e985e9c5146103fc578063f2fde38b1461042c57610141565b80636352211e146102d257806370a0823114610302578063715018a6146103325780638da5cb5b1461033c57806395d89b411461035a57610141565b8063095ea7b31161010a578063095ea7b31461020057806318160ddd1461021c57806323b872dd1461023a5780632f745c591461025657806342842e0e146102865780634f6ccce7146102a257610141565b80624563791461014657806301ffc9a71461016457806303ee438c1461019457806306fdde03146101b2578063081812fc146101d0575b600080fd5b61014e610448565b60405161015b9190612093565b60405180910390f35b61017e6004803603810190610179919061211a565b61044e565b60405161018b9190612162565b60405180910390f35b61019c6104c8565b6040516101a9919061220d565b60405180910390f35b6101ba610556565b6040516101c7919061220d565b60405180910390f35b6101ea60048036038101906101e5919061225b565b6105e8565b6040516101f791906122c9565b60405180910390f35b61021a60048036038101906102159190612310565b61066d565b005b610224610784565b6040516102319190612093565b60405180910390f35b610254600480360381019061024f9190612350565b610791565b005b610270600480360381019061026b9190612310565b6107f1565b60405161027d9190612093565b60405180910390f35b6102a0600480360381019061029b9190612350565b610896565b005b6102bc60048036038101906102b7919061225b565b6108b6565b6040516102c99190612093565b60405180910390f35b6102ec60048036038101906102e7919061225b565b610927565b6040516102f991906122c9565b60405180910390f35b61031c600480360381019061031791906123a3565b6109d8565b6040516103299190612093565b60405180910390f35b61033a610a8f565b005b610344610b17565b60405161035191906122c9565b60405180910390f35b610362610b41565b60405161036f919061220d565b60405180910390f35b610392600480360381019061038d91906123fc565b610bd3565b005b6103ae60048036038101906103a99190612571565b610be9565b005b6103ca60048036038101906103c591906125f4565b610c4b565b005b6103e660048036038101906103e1919061225b565b610d6b565b6040516103f3919061220d565b60405180910390f35b61041660048036038101906104119190612634565b610d9f565b6040516104239190612162565b60405180910390f35b610446600480360381019061044191906123a3565b610e33565b005b600b5481565b60007f780e9d63000000000000000000000000000000000000000000000000000000007bffffffffffffffffffffffffffffffffffffffffffffffffffffffff1916827bffffffffffffffffffffffffffffffffffffffffffffffffffffffff191614806104c157506104c082610f2a565b5b9050919050565b600c80546104d5906126a3565b80601f0160208091040260200160405190810160405280929190818152602001828054610501906126a3565b801561054e5780601f106105235761010080835404028352916020019161054e565b820191906000526020600020905b81548152906001019060200180831161053157829003601f168201915b505050505081565b606060008054610565906126a3565b80601f0160208091040260200160405190810160405280929190818152602001828054610591906126a3565b80156105de5780601f106105b3576101008083540402835291602001916105de565b820191906000526020600020905b8154815290600101906020018083116105c157829003601f168201915b5050505050905090565b60006105f38261100c565b610632576040517f08c379a000000000000000000000000000000000000000000000000000000000815260040161062990612746565b60405180910390fd5b6004600083815260200190815260200160002060009054906101000a900473ffffffffffffffffffffffffffffffffffffffff169050919050565b600061067882610927565b90508073ffffffffffffffffffffffffffffffffffffffff168373ffffffffffffffffffffffffffffffffffffffff16036106e8576040517f08c379a00000000000000000000000000000000000000000000000000000000081526004016106df906127d8565b60405180910390fd5b8073ffffffffffffffffffffffffffffffffffffffff16610707611078565b73ffffffffffffffffffffffffffffffffffffffff161480610736575061073581610730611078565b610d9f565b5b610775576040517f08c379a000000000000000000000000000000000000000000000000000000000815260040161076c9061286a565b60405180910390fd5b61077f8383611080565b505050565b6000600880549050905090565b6107a261079c611078565b82611139565b6107e1576040517f08c379a00000000000000000000000000000000000000000000000000000000081526004016107d8906128fc565b60405180910390fd5b6107ec838383611217565b505050565b60006107fc836109d8565b821061083d576040517f08c379a00000000000000000000000000000000000000000000000000000000081526004016108349061298e565b60405180910390fd5b600660008473ffffffffffffffffffffffffffffffffffffffff1673ffffffffffffffffffffffffffffffffffffffff168152602001908152602001600020600083815260200190815260200160002054905092915050565b6108b183838360405180602001604052806000815250610be9565b505050565b60006108c0610784565b8210610901576040517f08c379a00000000000000000000000000000000000000000000000000000000081526004016108f890612a20565b60405180910390fd5b6008828154811061091557610914612a40565b5b90600052602060002001549050919050565b6000806002600084815260200190815260200160002060009054906101000a900473ffffffffffffffffffffffffffffffffffffffff169050600073ffffffffffffffffffffffffffffffffffffffff168173ffffffffffffffffffffffffffffffffffffffff16036109cf576040517f08c379a00000000000000000000000000000000000000000000000000000000081526004016109c690612ae1565b60405180910390fd5b80915050919050565b60008073ffffffffffffffffffffffffffffffffffffffff168273ffffffffffffffffffffffffffffffffffffffff1603610a48576040517f08c379a0000000000000000000000000000000000000000000000000000000008152600401610a3f90612b73565b60405180910390fd5b600360008373ffffffffffffffffffffffffffffffffffffffff1673ffffffffffffffffffffffffffffffffffffffff168152602001908152602001600020549050919050565b610a97611078565b73ffffffffffffffffffffffffffffffffffffffff16610ab5610b17565b73ffffffffffffffffffffffffffffffffffffffff1614610b0b576040517f08c379a0000000000000000000000000000000000000000000000000000000008152600401610b0290612bdf565b60405180910390fd5b610b15600061147d565b565b6000600a60009054906101000a900473ffffffffffffffffffffffffffffffffffffffff16905090565b606060018054610b50906126a3565b80601f0160208091040260200160405190810160405280929190818152602001828054610b7c906126a3565b8015610bc95780601f10610b9e57610100808354040283529160200191610bc9565b820191906000526020600020905b815481529060010190602001808311610bac57829003601f168201915b5050505050905090565b610be5610bde611078565b8383611543565b5050565b610bfa610bf4611078565b83611139565b610c39576040517f08c379a0000000000000000000000000000000000000000000000000000000008152600401610c30906128fc565b60405180910390fd5b610c45848484846116af565b50505050565b610c53610784565b600b5411610c96576040517f08c379a0000000000000000000000000000000000000000000000000000000008152600401610c8d90612c4b565b60405180910390fd5b60005b82811015610cd75760006001610cad610784565b610cb79190612c9a565b9050610cc3338261170b565b508080610ccf90612cce565b915050610c99565b50600d60009054906101000a900473ffffffffffffffffffffffffffffffffffffffff1673ffffffffffffffffffffffffffffffffffffffff1663bc3ad14582336040518363ffffffff1660e01b8152600401610d35929190612d16565b600060405180830381600087803b158015610d4f57600080fd5b505af1158015610d63573d6000803e3d6000fd5b505050505050565b6060600c610d78836118e4565b604051602001610d89929190612eab565b6040516020818303038152906040529050919050565b6000600560008473ffffffffffffffffffffffffffffffffffffffff1673ffffffffffffffffffffffffffffffffffffffff16815260200190815260200160002060008373ffffffffffffffffffffffffffffffffffffffff1673ffffffffffffffffffffffffffffffffffffffff16815260200190815260200160002060009054906101000a900460ff16905092915050565b610e3b611078565b73ffffffffffffffffffffffffffffffffffffffff16610e59610b17565b73ffffffffffffffffffffffffffffffffffffffff1614610eaf576040517f08c379a0000000000000000000000000000000000000000000000000000000008152600401610ea690612bdf565b60405180910390fd5b600073ffffffffffffffffffffffffffffffffffffffff168173ffffffffffffffffffffffffffffffffffffffff1603610f1e576040517f08c379a0000000000000000000000000000000000000000000000000000000008152600401610f1590612f57565b60405180910390fd5b610f278161147d565b50565b60007f80ac58cd000000000000000000000000000000000000000000000000000000007bffffffffffffffffffffffffffffffffffffffffffffffffffffffff1916827bffffffffffffffffffffffffffffffffffffffffffffffffffffffff19161480610ff557507f5b5e139f000000000000000000000000000000000000000000000000000000007bffffffffffffffffffffffffffffffffffffffffffffffffffffffff1916827bffffffffffffffffffffffffffffffffffffffffffffffffffffffff1916145b80611005575061100482611a44565b5b9050919050565b60008073ffffffffffffffffffffffffffffffffffffffff166002600084815260200190815260200160002060009054906101000a900473ffffffffffffffffffffffffffffffffffffffff1673ffffffffffffffffffffffffffffffffffffffff1614159050919050565b600033905090565b816004600083815260200190815260200160002060006101000a81548173ffffffffffffffffffffffffffffffffffffffff021916908373ffffffffffffffffffffffffffffffffffffffff160217905550808273ffffffffffffffffffffffffffffffffffffffff166110f383610927565b73ffffffffffffffffffffffffffffffffffffffff167f8c5be1e5ebec7d5bd14f71427d1e84f3dd0314c0f7b2291e5b200ac8c7c3b92560405160405180910390a45050565b60006111448261100c565b611183576040517f08c379a000000000000000000000000000000000000000000000000000000000815260040161117a90612fe9565b60405180910390fd5b600061118e83610927565b90508073ffffffffffffffffffffffffffffffffffffffff168473ffffffffffffffffffffffffffffffffffffffff1614806111d057506111cf8185610d9f565b5b8061120e57508373ffffffffffffffffffffffffffffffffffffffff166111f6846105e8565b73ffffffffffffffffffffffffffffffffffffffff16145b91505092915050565b8273ffffffffffffffffffffffffffffffffffffffff1661123782610927565b73ffffffffffffffffffffffffffffffffffffffff161461128d576040517f08c379a00000000000000000000000000000000000000000000000000000000081526004016112849061307b565b60405180910390fd5b600073ffffffffffffffffffffffffffffffffffffffff168273ffffffffffffffffffffffffffffffffffffffff16036112fc576040517f08c379a00000000000000000000000000000000000000000000000000000000081526004016112f39061310d565b60405180910390fd5b611307838383611aae565b611312600082611080565b6001600360008573ffffffffffffffffffffffffffffffffffffffff1673ffffffffffffffffffffffffffffffffffffffff1681526020019081526020016000206000828254611362919061312d565b925050819055506001600360008473ffffffffffffffffffffffffffffffffffffffff1673ffffffffffffffffffffffffffffffffffffffff16815260200190815260200160002060008282546113b99190612c9a565b92505081905550816002600083815260200190815260200160002060006101000a81548173ffffffffffffffffffffffffffffffffffffffff021916908373ffffffffffffffffffffffffffffffffffffffff160217905550808273ffffffffffffffffffffffffffffffffffffffff168473ffffffffffffffffffffffffffffffffffffffff167fddf252ad1be2c89b69c2b068fc378daa952ba7f163c4a11628f55a4df523b3ef60405160405180910390a4611478838383611bc0565b505050565b6000600a60009054906101000a900473ffffffffffffffffffffffffffffffffffffffff16905081600a60006101000a81548173ffffffffffffffffffffffffffffffffffffffff021916908373ffffffffffffffffffffffffffffffffffffffff1602179055508173ffffffffffffffffffffffffffffffffffffffff168173ffffffffffffffffffffffffffffffffffffffff167f8be0079c531659141344cd1fd0a4f28419497f9722a3daafe3b4186f6b6457e060405160405180910390a35050565b8173ffffffffffffffffffffffffffffffffffffffff168373ffffffffffffffffffffffffffffffffffffffff16036115b1576040517f08c379a00000000000000000000000000000000000000000000000000000000081526004016115a8906131ad565b60405180910390fd5b80600560008573ffffffffffffffffffffffffffffffffffffffff1673ffffffffffffffffffffffffffffffffffffffff16815260200190815260200160002060008473ffffffffffffffffffffffffffffffffffffffff1673ffffffffffffffffffffffffffffffffffffffff16815260200190815260200160002060006101000a81548160ff0219169083151502179055508173ffffffffffffffffffffffffffffffffffffffff168373ffffffffffffffffffffffffffffffffffffffff167f17307eab39ab6107e8899845ad3d59bd9653f200f220920489ca2b5937696c31836040516116a29190612162565b60405180910390a3505050565b6116ba848484611217565b6116c684848484611bc5565b611705576040517f08c379a00000000000000000000000000000000000000000000000000000000081526004016116fc9061323f565b60405180910390fd5b50505050565b600073ffffffffffffffffffffffffffffffffffffffff168273ffffffffffffffffffffffffffffffffffffffff160361177a576040517f08c379a0000000000000000000000000000000000000000000000000000000008152600401611771906132ab565b60405180910390fd5b6117838161100c565b156117c3576040517f08c379a00000000000000000000000000000000000000000000000000000000081526004016117ba90613317565b60405180910390fd5b6117cf60008383611aae565b6001600360008473ffffffffffffffffffffffffffffffffffffffff1673ffffffffffffffffffffffffffffffffffffffff168152602001908152602001600020600082825461181f9190612c9a565b92505081905550816002600083815260200190815260200160002060006101000a81548173ffffffffffffffffffffffffffffffffffffffff021916908373ffffffffffffffffffffffffffffffffffffffff160217905550808273ffffffffffffffffffffffffffffffffffffffff16600073ffffffffffffffffffffffffffffffffffffffff167fddf252ad1be2c89b69c2b068fc378daa952ba7f163c4a11628f55a4df523b3ef60405160405180910390a46118e060008383611bc0565b5050565b60606000820361192b576040518060400160405280600181526020017f30000000000000000000000000000000000000000000000000000000000000008152509050611a3f565b600082905060005b6000821461195d57808061194690612cce565b915050600a826119569190613366565b9150611933565b60008167ffffffffffffffff81111561197957611978612446565b5b6040519080825280601f01601f1916602001820160405280156119ab5781602001600182028036833780820191505090505b5090505b60008514611a38576001826119c4919061312d565b9150600a856119d39190613397565b60306119df9190612c9a565b60f81b8183815181106119f5576119f4612a40565b5b60200101907effffffffffffffffffffffffffffffffffffffffffffffffffffffffffffff1916908160001a905350600a85611a319190613366565b94506119af565b8093505050505b919050565b60007f01ffc9a7000000000000000000000000000000000000000000000000000000007bffffffffffffffffffffffffffffffffffffffffffffffffffffffff1916827bffffffffffffffffffffffffffffffffffffffffffffffffffffffff1916149050919050565b611ab9838383611d4c565b600073ffffffffffffffffffffffffffffffffffffffff168373ffffffffffffffffffffffffffffffffffffffff1603611afb57611af681611d51565b611b3a565b8173ffffffffffffffffffffffffffffffffffffffff168373ffffffffffffffffffffffffffffffffffffffff1614611b3957611b388382611d9a565b5b5b600073ffffffffffffffffffffffffffffffffffffffff168273ffffffffffffffffffffffffffffffffffffffff1603611b7c57611b7781611f07565b611bbb565b8273ffffffffffffffffffffffffffffffffffffffff168273ffffffffffffffffffffffffffffffffffffffff1614611bba57611bb98282611fd8565b5b5b505050565b505050565b6000611be68473ffffffffffffffffffffffffffffffffffffffff16612057565b15611d3f578373ffffffffffffffffffffffffffffffffffffffff1663150b7a02611c0f611078565b8786866040518563ffffffff1660e01b8152600401611c31949392919061341d565b6020604051808303816000875af1925050508015611c6d57506040513d601f19601f82011682018060405250810190611c6a919061347e565b60015b611cef573d8060008114611c9d576040519150601f19603f3d011682016040523d82523d6000602084013e611ca2565b606091505b506000815103611ce7576040517f08c379a0000000000000000000000000000000000000000000000000000000008152600401611cde9061323f565b60405180910390fd5b805181602001fd5b63150b7a0260e01b7bffffffffffffffffffffffffffffffffffffffffffffffffffffffff1916817bffffffffffffffffffffffffffffffffffffffffffffffffffffffff191614915050611d44565b600190505b949350505050565b505050565b6008805490506009600083815260200190815260200160002081905550600881908060018154018082558091505060019003906000526020600020016000909190919091505550565b60006001611da7846109d8565b611db1919061312d565b9050600060076000848152602001908152602001600020549050818114611e96576000600660008673ffffffffffffffffffffffffffffffffffffffff1673ffffffffffffffffffffffffffffffffffffffff168152602001908152602001600020600084815260200190815260200160002054905080600660008773ffffffffffffffffffffffffffffffffffffffff1673ffffffffffffffffffffffffffffffffffffffff168152602001908152602001600020600084815260200190815260200160002081905550816007600083815260200190815260200160002081905550505b6007600084815260200190815260200160002060009055600660008573ffffffffffffffffffffffffffffffffffffffff1673ffffffffffffffffffffffffffffffffffffffff16815260200190815260200160002060008381526020019081526020016000206000905550505050565b60006001600880549050611f1b919061312d565b9050600060096000848152602001908152602001600020549050600060088381548110611f4b57611f4a612a40565b5b906000526020600020015490508060088381548110611f6d57611f6c612a40565b5b906000526020600020018190555081600960008381526020019081526020016000208190555060096000858152602001908152602001600020600090556008805480611fbc57611fbb6134ab565b5b6001900381819060005260206000200160009055905550505050565b6000611fe3836109d8565b905081600660008573ffffffffffffffffffffffffffffffffffffffff1673ffffffffffffffffffffffffffffffffffffffff168152602001908152602001600020600083815260200190815260200160002081905550806007600084815260200190815260200160002081905550505050565b6000808273ffffffffffffffffffffffffffffffffffffffff163b119050919050565b6000819050919050565b61208d8161207a565b82525050565b60006020820190506120a86000830184612084565b92915050565b6000604051905090565b600080fd5b600080fd5b60007fffffffff0000000000000000000000000000000000000000000000000000000082169050919050565b6120f7816120c2565b811461210257600080fd5b50565b600081359050612114816120ee565b92915050565b6000602082840312156121305761212f6120b8565b5b600061213e84828501612105565b91505092915050565b60008115159050919050565b61215c81612147565b82525050565b60006020820190506121776000830184612153565b92915050565b600081519050919050565b600082825260208201905092915050565b60005b838110156121b757808201518184015260208101905061219c565b60008484015250505050565b6000601f19601f8301169050919050565b60006121df8261217d565b6121e98185612188565b93506121f9818560208601612199565b612202816121c3565b840191505092915050565b6000602082019050818103600083015261222781846121d4565b905092915050565b6122388161207a565b811461224357600080fd5b50565b6000813590506122558161222f565b92915050565b600060208284031215612271576122706120b8565b5b600061227f84828501612246565b91505092915050565b600073ffffffffffffffffffffffffffffffffffffffff82169050919050565b60006122b382612288565b9050919050565b6122c3816122a8565b82525050565b60006020820190506122de60008301846122ba565b92915050565b6122ed816122a8565b81146122f857600080fd5b50565b60008135905061230a816122e4565b92915050565b60008060408385031215612327576123266120b8565b5b6000612335858286016122fb565b925050602061234685828601612246565b9150509250929050565b600080600060608486031215612369576123686120b8565b5b6000612377868287016122fb565b9350506020612388868287016122fb565b925050604061239986828701612246565b9150509250925092565b6000602082840312156123b9576123b86120b8565b5b60006123c7848285016122fb565b91505092915050565b6123d981612147565b81146123e457600080fd5b50565b6000813590506123f6816123d0565b92915050565b60008060408385031215612413576124126120b8565b5b6000612421858286016122fb565b9250506020612432858286016123e7565b9150509250929050565b600080fd5b600080fd5b7f4e487b7100000000000000000000000000000000000000000000000000000000600052604160045260246000fd5b61247e826121c3565b810181811067ffffffffffffffff8211171561249d5761249c612446565b5b80604052505050565b60006124b06120ae565b90506124bc8282612475565b919050565b600067ffffffffffffffff8211156124dc576124db612446565b5b6124e5826121c3565b9050602081019050919050565b82818337600083830152505050565b600061251461250f846124c1565b6124a6565b9050828152602081018484840111156125305761252f612441565b5b61253b8482856124f2565b509392505050565b600082601f8301126125585761255761243c565b5b8135612568848260208601612501565b91505092915050565b6000806000806080858703121561258b5761258a6120b8565b5b6000612599878288016122fb565b94505060206125aa878288016122fb565b93505060406125bb87828801612246565b925050606085013567ffffffffffffffff8111156125dc576125db6120bd565b5b6125e887828801612543565b91505092959194509250565b6000806040838503121561260b5761260a6120b8565b5b600061261985828601612246565b925050602061262a85828601612246565b9150509250929050565b6000806040838503121561264b5761264a6120b8565b5b6000612659858286016122fb565b925050602061266a858286016122fb565b9150509250929050565b7f4e487b7100000000000000000000000000000000000000000000000000000000600052602260045260246000fd5b600060028204905060018216806126bb57607f821691505b6020821081036126ce576126cd612674565b5b50919050565b7f4552433732313a20617070726f76656420717565727920666f72206e6f6e657860008201527f697374656e7420746f6b656e0000000000000000000000000000000000000000602082015250565b6000612730602c83612188565b915061273b826126d4565b604082019050919050565b6000602082019050818103600083015261275f81612723565b9050919050565b7f4552433732313a20617070726f76616c20746f2063757272656e74206f776e6560008201527f7200000000000000000000000000000000000000000000000000000000000000602082015250565b60006127c2602183612188565b91506127cd82612766565b604082019050919050565b600060208201905081810360008301526127f1816127b5565b9050919050565b7f4552433732313a20617070726f76652063616c6c6572206973206e6f74206f7760008201527f6e6572206e6f7220617070726f76656420666f7220616c6c0000000000000000602082015250565b6000612854603883612188565b915061285f826127f8565b604082019050919050565b6000602082019050818103600083015261288381612847565b9050919050565b7f4552433732313a207472616e736665722063616c6c6572206973206e6f74206f60008201527f776e6572206e6f7220617070726f766564000000000000000000000000000000602082015250565b60006128e6603183612188565b91506128f18261288a565b604082019050919050565b60006020820190508181036000830152612915816128d9565b9050919050565b7f455243373231456e756d657261626c653a206f776e657220696e646578206f7560008201527f74206f6620626f756e6473000000000000000000000000000000000000000000602082015250565b6000612978602b83612188565b91506129838261291c565b604082019050919050565b600060208201905081810360008301526129a78161296b565b9050919050565b7f455243373231456e756d657261626c653a20676c6f62616c20696e646578206f60008201527f7574206f6620626f756e64730000000000000000000000000000000000000000602082015250565b6000612a0a602c83612188565b9150612a15826129ae565b604082019050919050565b60006020820190508181036000830152612a39816129fd565b9050919050565b7f4e487b7100000000000000000000000000000000000000000000000000000000600052603260045260246000fd5b7f4552433732313a206f776e657220717565727920666f72206e6f6e657869737460008201527f656e7420746f6b656e0000000000000000000000000000000000000000000000602082015250565b6000612acb602983612188565b9150612ad682612a6f565b604082019050919050565b60006020820190508181036000830152612afa81612abe565b9050919050565b7f4552433732313a2062616c616e636520717565727920666f7220746865207a6560008201527f726f206164647265737300000000000000000000000000000000000000000000602082015250565b6000612b5d602a83612188565b9150612b6882612b01565b604082019050919050565b60006020820190508181036000830152612b8c81612b50565b9050919050565b7f4f776e61626c653a2063616c6c6572206973206e6f7420746865206f776e6572600082015250565b6000612bc9602083612188565b9150612bd482612b93565b602082019050919050565b60006020820190508181036000830152612bf881612bbc565b9050919050565b7f4e6f206d6f7265206d696e742e00000000000000000000000000000000000000600082015250565b6000612c35600d83612188565b9150612c4082612bff565b602082019050919050565b60006020820190508181036000830152612c6481612c28565b9050919050565b7f4e487b7100000000000000000000000000000000000000000000000000000000600052601160045260246000fd5b6000612ca58261207a565b9150612cb08361207a565b9250828201905080821115612cc857612cc7612c6b565b5b92915050565b6000612cd98261207a565b91507fffffffffffffffffffffffffffffffffffffffffffffffffffffffffffffffff8203612d0b57612d0a612c6b565b5b600182019050919050565b6000604082019050612d2b6000830185612084565b612d3860208301846122ba565b9392505050565b600081905092915050565b60008190508160005260206000209050919050565b60008154612d6c816126a3565b612d768186612d3f565b94506001821660008114612d915760018114612da657612dd9565b60ff1983168652811515820286019350612dd9565b612daf85612d4a565b60005b83811015612dd157815481890152600182019150602081019050612db2565b838801955050505b50505092915050565b7f2f00000000000000000000000000000000000000000000000000000000000000600082015250565b6000612e18600183612d3f565b9150612e2382612de2565b600182019050919050565b6000612e398261217d565b612e438185612d3f565b9350612e53818560208601612199565b80840191505092915050565b7f2e6a736f6e000000000000000000000000000000000000000000000000000000600082015250565b6000612e95600583612d3f565b9150612ea082612e5f565b600582019050919050565b6000612eb78285612d5f565b9150612ec282612e0b565b9150612ece8284612e2e565b9150612ed982612e88565b91508190509392505050565b7f4f776e61626c653a206e6577206f776e657220697320746865207a65726f206160008201527f6464726573730000000000000000000000000000000000000000000000000000602082015250565b6000612f41602683612188565b9150612f4c82612ee5565b604082019050919050565b60006020820190508181036000830152612f7081612f34565b9050919050565b7f4552433732313a206f70657261746f7220717565727920666f72206e6f6e657860008201527f697374656e7420746f6b656e0000000000000000000000000000000000000000602082015250565b6000612fd3602c83612188565b9150612fde82612f77565b604082019050919050565b6000602082019050818103600083015261300281612fc6565b9050919050565b7f4552433732313a207472616e736665722066726f6d20696e636f72726563742060008201527f6f776e6572000000000000000000000000000000000000000000000000000000602082015250565b6000613065602583612188565b915061307082613009565b604082019050919050565b6000602082019050818103600083015261309481613058565b9050919050565b7f4552433732313a207472616e7366657220746f20746865207a65726f2061646460008201527f7265737300000000000000000000000000000000000000000000000000000000602082015250565b60006130f7602483612188565b91506131028261309b565b604082019050919050565b60006020820190508181036000830152613126816130ea565b9050919050565b60006131388261207a565b91506131438361207a565b925082820390508181111561315b5761315a612c6b565b5b92915050565b7f4552433732313a20617070726f766520746f2063616c6c657200000000000000600082015250565b6000613197601983612188565b91506131a282613161565b602082019050919050565b600060208201905081810360008301526131c68161318a565b9050919050565b7f4552433732313a207472616e7366657220746f206e6f6e20455243373231526560008201527f63656976657220696d706c656d656e7465720000000000000000000000000000602082015250565b6000613229603283612188565b9150613234826131cd565b604082019050919050565b600060208201905081810360008301526132588161321c565b9050919050565b7f4552433732313a206d696e7420746f20746865207a65726f2061646472657373600082015250565b6000613295602083612188565b91506132a08261325f565b602082019050919050565b600060208201905081810360008301526132c481613288565b9050919050565b7f4552433732313a20746f6b656e20616c7265616479206d696e74656400000000600082015250565b6000613301601c83612188565b915061330c826132cb565b602082019050919050565b60006020820190508181036000830152613330816132f4565b9050919050565b7f4e487b7100000000000000000000000000000000000000000000000000000000600052601260045260246000fd5b60006133718261207a565b915061337c8361207a565b92508261338c5761338b613337565b5b828204905092915050565b60006133a28261207a565b91506133ad8361207a565b9250826133bd576133bc613337565b5b828206905092915050565b600081519050919050565b600082825260208201905092915050565b60006133ef826133c8565b6133f981856133d3565b9350613409818560208601612199565b613412816121c3565b840191505092915050565b600060808201905061343260008301876122ba565b61343f60208301866122ba565b61344c6040830185612084565b818103606083015261345e81846133e4565b905095945050505050565b600081519050613478816120ee565b92915050565b600060208284031215613494576134936120b8565b5b60006134a284828501613469565b91505092915050565b7f4e487b7100000000000000000000000000000000000000000000000000000000600052603160045260246000fdfea2646970667358221220bb61118c9f7f258efe23ff55ba3b23cecdcfcd94184d006fd460cea5826602e064736f6c6343000811003368747470733a2f2f676174657761792e70696e6174612e636c6f75642f697066732f516d53427a64566e56355a456b5773456e47755356425568716e4a5732465a5454346a54627953777868336b59472f",
  "immutableReferences": {},
  "source": "// SPDX-License-Identifier: MIT\r\n\r\npragma solidity ^0.8.17;\r\n\r\nimport \"../node_modules/openzeppelin-solidity/contracts/token/ERC721/extensions/ERC721Enumerable.sol\";\r\nimport \"../node_modules/openzeppelin-solidity/contracts/utils/Strings.sol\";\r\nimport \"../node_modules/openzeppelin-solidity/contracts/access/Ownable.sol\";\r\nimport \"./KaiToken.sol\";\r\n\r\ncontract MintNFT is ERC721Enumerable, Ownable {\r\n\r\n    uint public totalNFT = 30; // nft \r\n    // uint public mintPrice;\r\n    string public metadataURI = \"https://gateway.pinata.cloud/ipfs/QmSBzdVnV5ZEkWsEnGuSVBUhqnJW2FZTT4jTbySwxh3kYG/\";\r\n    \r\n    KaiToken tokenContract;\r\n\r\n    //      init   \r\n    constructor(address _tokenAddress) ERC721(\"HajinChoi\", \"Choi\") {\r\n        metadataURI = metadataURI;\r\n        totalNFT = totalNFT;\r\n        tokenContract = KaiToken(payable(_tokenAddress));\r\n    }\r\n\r\n    // erc721 _mint      \r\n\r\n    function mintNFT(uint mintValue, uint kaiSwap) public {\r\n        require(totalNFT > totalSupply(), \"No more mint.\"); // totalSupply()   nft  \r\n        // require \r\n        for(uint i=0;i < mintValue; i++) {\r\n            uint tokenId = totalSupply() + 1;\r\n            _mint(msg.sender, tokenId);\r\n        }\r\n        tokenContract.buyNft(kaiSwap,msg.sender);\r\n    }\r\n\r\n    // nft json \r\n    function tokenURI(uint _tokenId) public override view returns (string memory) {\r\n        return string(abi.encodePacked(metadataURI, '/', Strings.toString(_tokenId), '.json'));\r\n    }\r\n        //   , bool approved   true  \r\n        //    \r\n        // mintNFT  \r\n        //       , \r\n        //   nft      \r\n        //          nft   \r\n        // function setApprovalForAll(address operator, bool approved) public virtual override {\r\n        // _setApprovalForAll(_msgSender(), operator, approved);\r\n        // }\r\n\r\n}",
  "sourcePath": "C:\\Users\\an\\Desktop\\E-SAKAI\\sol\\contracts\\MintNFT.sol",
  "compiler": {
    "name": "solc",
    "version": "0.8.17+commit.8df45f5f.Emscripten.clang"
  },
  "schemaVersion": "3.4.11",
  "updatedAt": "2022-12-28T07:40:23.652Z",
  "networkType": "ethereum",
  "devdoc": {
    "kind": "dev",
    "methods": {
      "approve(address,uint256)": {
        "details": "See {IERC721-approve}."
      },
      "balanceOf(address)": {
        "details": "See {IERC721-balanceOf}."
      },
      "getApproved(uint256)": {
        "details": "See {IERC721-getApproved}."
      },
      "isApprovedForAll(address,address)": {
        "details": "See {IERC721-isApprovedForAll}."
      },
      "name()": {
        "details": "See {IERC721Metadata-name}."
      },
      "owner()": {
        "details": "Returns the address of the current owner."
      },
      "ownerOf(uint256)": {
        "details": "See {IERC721-ownerOf}."
      },
      "renounceOwnership()": {
        "details": "Leaves the contract without owner. It will not be possible to call `onlyOwner` functions anymore. Can only be called by the current owner. NOTE: Renouncing ownership will leave the contract without an owner, thereby removing any functionality that is only available to the owner."
      },
      "safeTransferFrom(address,address,uint256)": {
        "details": "See {IERC721-safeTransferFrom}."
      },
      "safeTransferFrom(address,address,uint256,bytes)": {
        "details": "See {IERC721-safeTransferFrom}."
      },
      "setApprovalForAll(address,bool)": {
        "details": "See {IERC721-setApprovalForAll}."
      },
      "supportsInterface(bytes4)": {
        "details": "See {IERC165-supportsInterface}."
      },
      "symbol()": {
        "details": "See {IERC721Metadata-symbol}."
      },
      "tokenByIndex(uint256)": {
        "details": "See {IERC721Enumerable-tokenByIndex}."
      },
      "tokenOfOwnerByIndex(address,uint256)": {
        "details": "See {IERC721Enumerable-tokenOfOwnerByIndex}."
      },
      "totalSupply()": {
        "details": "See {IERC721Enumerable-totalSupply}."
      },
      "transferFrom(address,address,uint256)": {
        "details": "See {IERC721-transferFrom}."
      },
      "transferOwnership(address)": {
        "details": "Transfers ownership of the contract to a new account (`newOwner`). Can only be called by the current owner."
      }
    },
    "version": 1
  },
  "userdoc": {
    "kind": "user",
    "methods": {},
    "version": 1
  }
}