{
  "contractName": "Sale",
  "abi": [
    {
      "inputs": [
        {
          "internalType": "address",
          "name": "_mintAddress",
          "type": "address"
        }
      ],
      "stateMutability": "nonpayable",
      "type": "constructor"
    },
    {
      "anonymous": false,
      "inputs": [
        {
          "indexed": true,
          "internalType": "address",
          "name": "previousOwner",
          "type": "address"
        },
        {
          "indexed": true,
          "internalType": "address",
          "name": "newOwner",
          "type": "address"
        }
      ],
      "name": "OwnershipTransferred",
      "type": "event"
    },
    {
      "inputs": [],
      "name": "owner",
      "outputs": [
        {
          "internalType": "address",
          "name": "",
          "type": "address"
        }
      ],
      "stateMutability": "view",
      "type": "function",
      "constant": true
    },
    {
      "inputs": [],
      "name": "renounceOwnership",
      "outputs": [],
      "stateMutability": "nonpayable",
      "type": "function"
    },
    {
      "inputs": [
        {
          "internalType": "uint256",
          "name": "",
          "type": "uint256"
        }
      ],
      "name": "tokenPrices",
      "outputs": [
        {
          "internalType": "uint256",
          "name": "",
          "type": "uint256"
        }
      ],
      "stateMutability": "view",
      "type": "function",
      "constant": true
    },
    {
      "inputs": [
        {
          "internalType": "address",
          "name": "newOwner",
          "type": "address"
        }
      ],
      "name": "transferOwnership",
      "outputs": [],
      "stateMutability": "nonpayable",
      "type": "function"
    },
    {
      "inputs": [],
      "name": "setPermission",
      "outputs": [],
      "stateMutability": "nonpayable",
      "type": "function"
    },
    {
      "inputs": [
        {
          "internalType": "uint256",
          "name": "_tokenId",
          "type": "uint256"
        },
        {
          "internalType": "uint256",
          "name": "_price",
          "type": "uint256"
        }
      ],
      "name": "setForSale",
      "outputs": [],
      "stateMutability": "nonpayable",
      "type": "function"
    },
    {
      "inputs": [],
      "name": "test",
      "outputs": [
        {
          "internalType": "address",
          "name": "",
          "type": "address"
        }
      ],
      "stateMutability": "view",
      "type": "function",
      "constant": true
    },
    {
      "inputs": [
        {
          "internalType": "uint256",
          "name": "_tokenId",
          "type": "uint256"
        }
      ],
      "name": "purchase",
      "outputs": [],
      "stateMutability": "payable",
      "type": "function",
      "payable": true
    },
    {
      "inputs": [
        {
          "internalType": "address",
          "name": "_tokenOwner",
          "type": "address"
        }
      ],
      "name": "getOwnerToken",
      "outputs": [
        {
          "components": [
            {
              "internalType": "uint256",
              "name": "tokenId",
              "type": "uint256"
            }
          ],
          "internalType": "struct Sale.TokenInfo[]",
          "name": "",
          "type": "tuple[]"
        }
      ],
      "stateMutability": "view",
      "type": "function",
      "constant": true
    }
  ],
  "bytecode": "0x60806040523480156200001157600080fd5b506040516200188138038062001881833981810160405281019062000037919062000216565b620000576200004b620000e060201b60201c565b620000e860201b60201c565b80600160006101000a81548173ffffffffffffffffffffffffffffffffffffffff021916908373ffffffffffffffffffffffffffffffffffffffff16021790555080600260006101000a81548173ffffffffffffffffffffffffffffffffffffffff021916908373ffffffffffffffffffffffffffffffffffffffff1602179055505062000248565b600033905090565b60008060009054906101000a900473ffffffffffffffffffffffffffffffffffffffff169050816000806101000a81548173ffffffffffffffffffffffffffffffffffffffff021916908373ffffffffffffffffffffffffffffffffffffffff1602179055508173ffffffffffffffffffffffffffffffffffffffff168173ffffffffffffffffffffffffffffffffffffffff167f8be0079c531659141344cd1fd0a4f28419497f9722a3daafe3b4186f6b6457e060405160405180910390a35050565b600080fd5b600073ffffffffffffffffffffffffffffffffffffffff82169050919050565b6000620001de82620001b1565b9050919050565b620001f081620001d1565b8114620001fc57600080fd5b50565b6000815190506200021081620001e5565b92915050565b6000602082840312156200022f576200022e620001ac565b5b60006200023f84828501620001ff565b91505092915050565b61162980620002586000396000f3fe6080604052600436106100865760003560e01c8063966c057411610059578063966c05741461010d578063e5afe3e61461014a578063efef39a114610187578063f2fde38b146101a3578063f8a8fd6d146101cc57610086565b806317fcfe221461008b578063694bf8a2146100b4578063715018a6146100cb5780638da5cb5b146100e2575b600080fd5b34801561009757600080fd5b506100b260048036038101906100ad9190610cc1565b6101f7565b005b3480156100c057600080fd5b506100c96104ab565b005b3480156100d757600080fd5b506100e061053d565b005b3480156100ee57600080fd5b506100f76105c5565b6040516101049190610d42565b60405180910390f35b34801561011957600080fd5b50610134600480360381019061012f9190610d89565b6105ee565b6040516101419190610e90565b60405180910390f35b34801561015657600080fd5b50610171600480360381019061016c9190610eb2565b6107ee565b60405161017e9190610eee565b60405180910390f35b6101a1600480360381019061019c9190610eb2565b610806565b005b3480156101af57600080fd5b506101ca60048036038101906101c59190610d89565b610aa8565b005b3480156101d857600080fd5b506101e1610b9f565b6040516101ee9190610d42565b60405180910390f35b6000600260009054906101000a900473ffffffffffffffffffffffffffffffffffffffff1673ffffffffffffffffffffffffffffffffffffffff16636352211e846040518263ffffffff1660e01b81526004016102549190610eee565b602060405180830381865afa158015610271573d6000803e3d6000fd5b505050506040513d601f19601f820116820180604052508101906102959190610f1e565b90503373ffffffffffffffffffffffffffffffffffffffff168173ffffffffffffffffffffffffffffffffffffffff1614610305576040517f08c379a00000000000000000000000000000000000000000000000000000000081526004016102fc90610fa8565b60405180910390fd5b60008211610348576040517f08c379a000000000000000000000000000000000000000000000000000000000815260040161033f9061103a565b60405180910390fd5b600060036000858152602001908152602001600020541461039e576040517f08c379a0000000000000000000000000000000000000000000000000000000008152600401610395906110a6565b60405180910390fd5b600260009054906101000a900473ffffffffffffffffffffffffffffffffffffffff1673ffffffffffffffffffffffffffffffffffffffff1663e985e9c582306040518363ffffffff1660e01b81526004016103fb9291906110c6565b602060405180830381865afa158015610418573d6000803e3d6000fd5b505050506040513d601f19601f8201168201806040525081019061043c9190611127565b61047b576040517f08c379a0000000000000000000000000000000000000000000000000000000008152600401610472906111a0565b60405180910390fd5b670de0b6b3a76400008261048f91906111ef565b6003600085815260200190815260200160002081905550505050565b600260009054906101000a900473ffffffffffffffffffffffffffffffffffffffff1673ffffffffffffffffffffffffffffffffffffffff1663a22cb4653060016040518363ffffffff1660e01b8152600401610509929190611240565b600060405180830381600087803b15801561052357600080fd5b505af1158015610537573d6000803e3d6000fd5b50505050565b610545610ba7565b73ffffffffffffffffffffffffffffffffffffffff166105636105c5565b73ffffffffffffffffffffffffffffffffffffffff16146105b9576040517f08c379a00000000000000000000000000000000000000000000000000000000081526004016105b0906112b5565b60405180910390fd5b6105c36000610baf565b565b60008060009054906101000a900473ffffffffffffffffffffffffffffffffffffffff16905090565b60606000600260009054906101000a900473ffffffffffffffffffffffffffffffffffffffff1673ffffffffffffffffffffffffffffffffffffffff166370a08231846040518263ffffffff1660e01b815260040161064d9190610d42565b602060405180830381865afa15801561066a573d6000803e3d6000fd5b505050506040513d601f19601f8201168201806040525081019061068e91906112ea565b90506000810361069d57600080fd5b60008167ffffffffffffffff8111156106b9576106b8611317565b5b6040519080825280602002602001820160405280156106f257816020015b6106df610c73565b8152602001906001900390816106d75790505b50905060005b828110156107e3576000600260009054906101000a900473ffffffffffffffffffffffffffffffffffffffff1673ffffffffffffffffffffffffffffffffffffffff16632f745c5987846040518363ffffffff1660e01b815260040161075f929190611346565b602060405180830381865afa15801561077c573d6000803e3d6000fd5b505050506040513d601f19601f820116820180604052508101906107a091906112ea565b90506040518060200160405280828152508383815181106107c4576107c361136f565b5b60200260200101819052505080806107db9061139e565b9150506106f8565b508092505050919050565b60036020528060005260406000206000915090505481565b6000600360008381526020019081526020016000205490506000600260009054906101000a900473ffffffffffffffffffffffffffffffffffffffff1673ffffffffffffffffffffffffffffffffffffffff16636352211e846040518263ffffffff1660e01b815260040161087b9190610eee565b602060405180830381865afa158015610898573d6000803e3d6000fd5b505050506040513d601f19601f820116820180604052508101906108bc9190610f1e565b905060008211610901576040517f08c379a00000000000000000000000000000000000000000000000000000000081526004016108f890611432565b60405180910390fd5b34821115610944576040517f08c379a000000000000000000000000000000000000000000000000000000000815260040161093b9061149e565b60405180910390fd5b3373ffffffffffffffffffffffffffffffffffffffff168173ffffffffffffffffffffffffffffffffffffffff16036109b2576040517f08c379a00000000000000000000000000000000000000000000000000000000081526004016109a99061150a565b60405180910390fd5b8073ffffffffffffffffffffffffffffffffffffffff166108fc349081150290604051600060405180830381858888f193505050501580156109f8573d6000803e3d6000fd5b50600260009054906101000a900473ffffffffffffffffffffffffffffffffffffffff1673ffffffffffffffffffffffffffffffffffffffff166342842e0e8233866040518463ffffffff1660e01b8152600401610a589392919061152a565b600060405180830381600087803b158015610a7257600080fd5b505af1158015610a86573d6000803e3d6000fd5b5050505060006003600085815260200190815260200160002081905550505050565b610ab0610ba7565b73ffffffffffffffffffffffffffffffffffffffff16610ace6105c5565b73ffffffffffffffffffffffffffffffffffffffff1614610b24576040517f08c379a0000000000000000000000000000000000000000000000000000000008152600401610b1b906112b5565b60405180910390fd5b600073ffffffffffffffffffffffffffffffffffffffff168173ffffffffffffffffffffffffffffffffffffffff1603610b93576040517f08c379a0000000000000000000000000000000000000000000000000000000008152600401610b8a906115d3565b60405180910390fd5b610b9c81610baf565b50565b600030905090565b600033905090565b60008060009054906101000a900473ffffffffffffffffffffffffffffffffffffffff169050816000806101000a81548173ffffffffffffffffffffffffffffffffffffffff021916908373ffffffffffffffffffffffffffffffffffffffff1602179055508173ffffffffffffffffffffffffffffffffffffffff168173ffffffffffffffffffffffffffffffffffffffff167f8be0079c531659141344cd1fd0a4f28419497f9722a3daafe3b4186f6b6457e060405160405180910390a35050565b6040518060200160405280600081525090565b600080fd5b6000819050919050565b610c9e81610c8b565b8114610ca957600080fd5b50565b600081359050610cbb81610c95565b92915050565b60008060408385031215610cd857610cd7610c86565b5b6000610ce685828601610cac565b9250506020610cf785828601610cac565b9150509250929050565b600073ffffffffffffffffffffffffffffffffffffffff82169050919050565b6000610d2c82610d01565b9050919050565b610d3c81610d21565b82525050565b6000602082019050610d576000830184610d33565b92915050565b610d6681610d21565b8114610d7157600080fd5b50565b600081359050610d8381610d5d565b92915050565b600060208284031215610d9f57610d9e610c86565b5b6000610dad84828501610d74565b91505092915050565b600081519050919050565b600082825260208201905092915050565b6000819050602082019050919050565b610deb81610c8b565b82525050565b602082016000820151610e076000850182610de2565b50505050565b6000610e198383610df1565b60208301905092915050565b6000602082019050919050565b6000610e3d82610db6565b610e478185610dc1565b9350610e5283610dd2565b8060005b83811015610e83578151610e6a8882610e0d565b9750610e7583610e25565b925050600181019050610e56565b5085935050505092915050565b60006020820190508181036000830152610eaa8184610e32565b905092915050565b600060208284031215610ec857610ec7610c86565b5b6000610ed684828501610cac565b91505092915050565b610ee881610c8b565b82525050565b6000602082019050610f036000830184610edf565b92915050565b600081519050610f1881610d5d565b92915050565b600060208284031215610f3457610f33610c86565b5b6000610f4284828501610f09565b91505092915050565b600082825260208201905092915050565b7f4e6f74206f776e65722e00000000000000000000000000000000000000000000600082015250565b6000610f92600a83610f4b565b9150610f9d82610f5c565b602082019050919050565b60006020820190508181036000830152610fc181610f85565b9050919050565b7f50726963652074797065206973206f6e6c792075696e7420776974686f75742060008201527f3000000000000000000000000000000000000000000000000000000000000000602082015250565b6000611024602183610f4b565b915061102f82610fc8565b604082019050919050565b6000602082019050818103600083015261105381611017565b9050919050565b7f616c72656164792073616c652e00000000000000000000000000000000000000600082015250565b6000611090600d83610f4b565b915061109b8261105a565b602082019050919050565b600060208201905081810360008301526110bf81611083565b9050919050565b60006040820190506110db6000830185610d33565b6110e86020830184610d33565b9392505050565b60008115159050919050565b611104816110ef565b811461110f57600080fd5b50565b600081519050611121816110fb565b92915050565b60006020828403121561113d5761113c610c86565b5b600061114b84828501611112565b91505092915050565b7f4e6f7420617070726f7665642e00000000000000000000000000000000000000600082015250565b600061118a600d83610f4b565b915061119582611154565b602082019050919050565b600060208201905081810360008301526111b98161117d565b9050919050565b7f4e487b7100000000000000000000000000000000000000000000000000000000600052601160045260246000fd5b60006111fa82610c8b565b915061120583610c8b565b925082820261121381610c8b565b9150828204841483151761122a576112296111c0565b5b5092915050565b61123a816110ef565b82525050565b60006040820190506112556000830185610d33565b6112626020830184611231565b9392505050565b7f4f776e61626c653a2063616c6c6572206973206e6f7420746865206f776e6572600082015250565b600061129f602083610f4b565b91506112aa82611269565b602082019050919050565b600060208201905081810360008301526112ce81611292565b9050919050565b6000815190506112e481610c95565b92915050565b600060208284031215611300576112ff610c86565b5b600061130e848285016112d5565b91505092915050565b7f4e487b7100000000000000000000000000000000000000000000000000000000600052604160045260246000fd5b600060408201905061135b6000830185610d33565b6113686020830184610edf565b9392505050565b7f4e487b7100000000000000000000000000000000000000000000000000000000600052603260045260246000fd5b60006113a982610c8b565b91507fffffffffffffffffffffffffffffffffffffffffffffffffffffffffffffffff82036113db576113da6111c0565b5b600182019050919050565b7f6e6f742073616c652e0000000000000000000000000000000000000000000000600082015250565b600061141c600983610f4b565b9150611427826113e6565b602082019050919050565b6000602082019050818103600083015261144b8161140f565b9050919050565b7f6d6f726520626e622e0000000000000000000000000000000000000000000000600082015250565b6000611488600983610f4b565b915061149382611452565b602082019050919050565b600060208201905081810360008301526114b78161147b565b9050919050565b7f6f776e6572206e6f74206275792e000000000000000000000000000000000000600082015250565b60006114f4600e83610f4b565b91506114ff826114be565b602082019050919050565b60006020820190508181036000830152611523816114e7565b9050919050565b600060608201905061153f6000830186610d33565b61154c6020830185610d33565b6115596040830184610edf565b949350505050565b7f4f776e61626c653a206e6577206f776e657220697320746865207a65726f206160008201527f6464726573730000000000000000000000000000000000000000000000000000602082015250565b60006115bd602683610f4b565b91506115c882611561565b604082019050919050565b600060208201905081810360008301526115ec816115b0565b905091905056fea2646970667358221220aa6cc874b5e4185a38f44bfc3c755a0d7d5ea566191a1298143c45f520af293064736f6c63430008110033",
  "immutableReferences": {},
  "source": "// SPDX-License-Identifier: MIT\r\n\r\npragma solidity ^0.8.17;\r\n\r\nimport \"../node_modules/openzeppelin-solidity/contracts/access/Ownable.sol\";\r\nimport \"./MintNFT.sol\";\r\n\r\nimport \"../node_modules/openzeppelin-solidity/contracts/utils/Strings.sol\";\r\n\r\n// operator address \r\ncontract Sale is Ownable {\r\n    address mintAddress;\r\n    \r\n    MintNFT mintContract; // import \r\n\r\n    //  property  => value \r\n    // tokenID : price\r\n    mapping(uint => uint) public tokenPrices; //      mapping \r\n    //    uint    uint ??\r\n\r\n    constructor(address _mintAddress) {\r\n        mintAddress = _mintAddress;\r\n        mintContract = MintNFT(_mintAddress); // mintNFT       \r\n        // mintNFT.       \r\n    }\r\n\r\n    // Token info \r\n    struct TokenInfo{\r\n        uint tokenId;\r\n    }\r\n\r\n    function setPermission() public {\r\n        mintContract.setApprovalForAll(address(this), true);\r\n    }\r\n\r\n    function setForSale(uint _tokenId, uint _price) public  {\r\n\r\n        address tokenOwner = mintContract.ownerOf(_tokenId); // ownerOf()  ,    \r\n        require(tokenOwner == msg.sender, \"Not owner.\");\r\n        require(_price > 0, \"Price type is only uint without 0\"); //  0      \r\n        require(tokenPrices[_tokenId] == 0, \"already sale.\");\r\n        require(mintContract.isApprovedForAll(tokenOwner, address(this)), \"Not approved.\"); //          \r\n\r\n        tokenPrices[_tokenId] = _price * 10 ** 18; //        \r\n    }\r\n\r\n    function test() public view returns(address) {\r\n        return address(this);\r\n    }\r\n\r\n\r\n    function purchase(uint _tokenId) public payable {\r\n        uint price = tokenPrices[_tokenId]; //   \r\n        address tokenOwner = mintContract.ownerOf(_tokenId); //   \r\n\r\n        require(price > 0, \"not sale.\"); //   \r\n        require(price <= msg.value, \"more bnb.\"); // msg.value :       ,  price   \r\n        require(tokenOwner != msg.sender, \"owner not buy.\"); //  !=   \r\n\r\n        // payable(owner()).tranfer(100);\r\n        payable(tokenOwner).transfer(msg.value); //   msg.value .\r\n        mintContract.safeTransferFrom(tokenOwner, msg.sender, _tokenId); //     nft \r\n\r\n        //        ,         \r\n        tokenPrices[_tokenId] = 0; //  0     \r\n\r\n    }\r\n\r\n    //  nft  \r\n        function getOwnerToken(address _tokenOwner) public view returns (TokenInfo[] memory){\r\n        uint balance = mintContract.balanceOf(_tokenOwner);\r\n        require(balance != 0);\r\n        // balance    list\r\n        TokenInfo[] memory list = new TokenInfo[](balance);\r\n\r\n        for (uint i = 0; i < balance; i++) {\r\n            //      \r\n            uint tokenId = mintContract.tokenOfOwnerByIndex(_tokenOwner, i);\r\n\r\n            list[i] = TokenInfo(tokenId);\r\n        }\r\n        return list;\r\n    }\r\n}\r\n",
  "sourcePath": "C:\\Users\\an\\Desktop\\E-SAKAI\\sol\\contracts\\Sale.sol",
  "compiler": {
    "name": "solc",
    "version": "0.8.17+commit.8df45f5f.Emscripten.clang"
  },
  "schemaVersion": "3.4.11",
  "updatedAt": "2022-12-28T07:40:23.697Z",
  "networkType": "ethereum",
  "devdoc": {
    "kind": "dev",
    "methods": {
      "owner()": {
        "details": "Returns the address of the current owner."
      },
      "renounceOwnership()": {
        "details": "Leaves the contract without owner. It will not be possible to call `onlyOwner` functions anymore. Can only be called by the current owner. NOTE: Renouncing ownership will leave the contract without an owner, thereby removing any functionality that is only available to the owner."
      },
      "transferOwnership(address)": {
        "details": "Transfers ownership of the contract to a new account (`newOwner`). Can only be called by the current owner."
      }
    },
    "version": 1
  },
  "userdoc": {
    "kind": "user",
    "methods": {},
    "version": 1
  }
}