{
  "contractName": "KaiToken",
  "abi": [
    {
      "inputs": [],
      "stateMutability": "nonpayable",
      "type": "constructor"
    },
    {
      "anonymous": false,
      "inputs": [
        {
          "indexed": true,
          "internalType": "address",
          "name": "owner",
          "type": "address"
        },
        {
          "indexed": true,
          "internalType": "address",
          "name": "spender",
          "type": "address"
        },
        {
          "indexed": false,
          "internalType": "uint256",
          "name": "value",
          "type": "uint256"
        }
      ],
      "name": "Approval",
      "type": "event"
    },
    {
      "anonymous": false,
      "inputs": [
        {
          "indexed": true,
          "internalType": "address",
          "name": "previousOwner",
          "type": "address"
        },
        {
          "indexed": true,
          "internalType": "address",
          "name": "newOwner",
          "type": "address"
        }
      ],
      "name": "OwnershipTransferred",
      "type": "event"
    },
    {
      "anonymous": false,
      "inputs": [
        {
          "indexed": true,
          "internalType": "address",
          "name": "from",
          "type": "address"
        },
        {
          "indexed": true,
          "internalType": "address",
          "name": "to",
          "type": "address"
        },
        {
          "indexed": false,
          "internalType": "uint256",
          "name": "value",
          "type": "uint256"
        }
      ],
      "name": "Transfer",
      "type": "event"
    },
    {
      "inputs": [],
      "name": "_name",
      "outputs": [
        {
          "internalType": "string",
          "name": "",
          "type": "string"
        }
      ],
      "stateMutability": "view",
      "type": "function",
      "constant": true
    },
    {
      "inputs": [],
      "name": "_symbol",
      "outputs": [
        {
          "internalType": "string",
          "name": "",
          "type": "string"
        }
      ],
      "stateMutability": "view",
      "type": "function",
      "constant": true
    },
    {
      "inputs": [],
      "name": "_totalSupply",
      "outputs": [
        {
          "internalType": "uint256",
          "name": "",
          "type": "uint256"
        }
      ],
      "stateMutability": "view",
      "type": "function",
      "constant": true
    },
    {
      "inputs": [
        {
          "internalType": "address",
          "name": "owner",
          "type": "address"
        },
        {
          "internalType": "address",
          "name": "spender",
          "type": "address"
        }
      ],
      "name": "allowance",
      "outputs": [
        {
          "internalType": "uint256",
          "name": "",
          "type": "uint256"
        }
      ],
      "stateMutability": "view",
      "type": "function",
      "constant": true
    },
    {
      "inputs": [
        {
          "internalType": "address",
          "name": "spender",
          "type": "address"
        },
        {
          "internalType": "uint256",
          "name": "amount",
          "type": "uint256"
        }
      ],
      "name": "approve",
      "outputs": [
        {
          "internalType": "bool",
          "name": "",
          "type": "bool"
        }
      ],
      "stateMutability": "nonpayable",
      "type": "function"
    },
    {
      "inputs": [
        {
          "internalType": "address",
          "name": "account",
          "type": "address"
        }
      ],
      "name": "balanceOf",
      "outputs": [
        {
          "internalType": "uint256",
          "name": "",
          "type": "uint256"
        }
      ],
      "stateMutability": "view",
      "type": "function",
      "constant": true
    },
    {
      "inputs": [],
      "name": "decimals",
      "outputs": [
        {
          "internalType": "uint8",
          "name": "",
          "type": "uint8"
        }
      ],
      "stateMutability": "view",
      "type": "function",
      "constant": true
    },
    {
      "inputs": [
        {
          "internalType": "address",
          "name": "spender",
          "type": "address"
        },
        {
          "internalType": "uint256",
          "name": "subtractedValue",
          "type": "uint256"
        }
      ],
      "name": "decreaseAllowance",
      "outputs": [
        {
          "internalType": "bool",
          "name": "",
          "type": "bool"
        }
      ],
      "stateMutability": "nonpayable",
      "type": "function"
    },
    {
      "inputs": [
        {
          "internalType": "address",
          "name": "spender",
          "type": "address"
        },
        {
          "internalType": "uint256",
          "name": "addedValue",
          "type": "uint256"
        }
      ],
      "name": "increaseAllowance",
      "outputs": [
        {
          "internalType": "bool",
          "name": "",
          "type": "bool"
        }
      ],
      "stateMutability": "nonpayable",
      "type": "function"
    },
    {
      "inputs": [
        {
          "internalType": "address",
          "name": "account",
          "type": "address"
        },
        {
          "internalType": "uint256",
          "name": "amount",
          "type": "uint256"
        }
      ],
      "name": "mint",
      "outputs": [],
      "stateMutability": "nonpayable",
      "type": "function"
    },
    {
      "inputs": [],
      "name": "name",
      "outputs": [
        {
          "internalType": "string",
          "name": "",
          "type": "string"
        }
      ],
      "stateMutability": "view",
      "type": "function",
      "constant": true
    },
    {
      "inputs": [],
      "name": "owner",
      "outputs": [
        {
          "internalType": "address",
          "name": "",
          "type": "address"
        }
      ],
      "stateMutability": "view",
      "type": "function",
      "constant": true
    },
    {
      "inputs": [],
      "name": "rate",
      "outputs": [
        {
          "internalType": "uint256",
          "name": "",
          "type": "uint256"
        }
      ],
      "stateMutability": "view",
      "type": "function",
      "constant": true
    },
    {
      "inputs": [],
      "name": "renounceOwnership",
      "outputs": [],
      "stateMutability": "nonpayable",
      "type": "function"
    },
    {
      "inputs": [],
      "name": "symbol",
      "outputs": [
        {
          "internalType": "string",
          "name": "",
          "type": "string"
        }
      ],
      "stateMutability": "view",
      "type": "function",
      "constant": true
    },
    {
      "inputs": [
        {
          "internalType": "address",
          "name": "owner",
          "type": "address"
        },
        {
          "internalType": "address",
          "name": "to",
          "type": "address"
        },
        {
          "internalType": "uint256",
          "name": "amount",
          "type": "uint256"
        }
      ],
      "name": "tokenTransferBuy",
      "outputs": [],
      "stateMutability": "nonpayable",
      "type": "function"
    },
    {
      "inputs": [
        {
          "internalType": "address",
          "name": "owner",
          "type": "address"
        },
        {
          "internalType": "address",
          "name": "to",
          "type": "address"
        },
        {
          "internalType": "uint256",
          "name": "amount",
          "type": "uint256"
        }
      ],
      "name": "tokenTransferSell",
      "outputs": [],
      "stateMutability": "nonpayable",
      "type": "function"
    },
    {
      "inputs": [],
      "name": "totalSupply",
      "outputs": [
        {
          "internalType": "uint256",
          "name": "",
          "type": "uint256"
        }
      ],
      "stateMutability": "view",
      "type": "function",
      "constant": true
    },
    {
      "inputs": [
        {
          "internalType": "address",
          "name": "to",
          "type": "address"
        },
        {
          "internalType": "uint256",
          "name": "amount",
          "type": "uint256"
        }
      ],
      "name": "transfer",
      "outputs": [
        {
          "internalType": "bool",
          "name": "",
          "type": "bool"
        }
      ],
      "stateMutability": "nonpayable",
      "type": "function"
    },
    {
      "inputs": [
        {
          "internalType": "address",
          "name": "from",
          "type": "address"
        },
        {
          "internalType": "address",
          "name": "to",
          "type": "address"
        },
        {
          "internalType": "uint256",
          "name": "amount",
          "type": "uint256"
        }
      ],
      "name": "transferFrom",
      "outputs": [
        {
          "internalType": "bool",
          "name": "",
          "type": "bool"
        }
      ],
      "stateMutability": "nonpayable",
      "type": "function"
    },
    {
      "inputs": [
        {
          "internalType": "address",
          "name": "newOwner",
          "type": "address"
        }
      ],
      "name": "transferOwnership",
      "outputs": [],
      "stateMutability": "nonpayable",
      "type": "function"
    },
    {
      "stateMutability": "payable",
      "type": "receive",
      "payable": true
    },
    {
      "inputs": [],
      "name": "getToken",
      "outputs": [
        {
          "internalType": "address",
          "name": "",
          "type": "address"
        }
      ],
      "stateMutability": "view",
      "type": "function",
      "constant": true
    },
    {
      "inputs": [],
      "name": "getBalance",
      "outputs": [
        {
          "internalType": "uint256",
          "name": "",
          "type": "uint256"
        }
      ],
      "stateMutability": "view",
      "type": "function",
      "constant": true
    },
    {
      "inputs": [],
      "name": "getMsgSender",
      "outputs": [
        {
          "internalType": "address",
          "name": "",
          "type": "address"
        }
      ],
      "stateMutability": "view",
      "type": "function",
      "constant": true
    },
    {
      "inputs": [
        {
          "internalType": "uint256",
          "name": "_amount",
          "type": "uint256"
        }
      ],
      "name": "sellToken",
      "outputs": [],
      "stateMutability": "payable",
      "type": "function",
      "payable": true
    },
    {
      "inputs": [
        {
          "internalType": "uint256",
          "name": "_amount",
          "type": "uint256"
        },
        {
          "internalType": "address",
          "name": "from",
          "type": "address"
        }
      ],
      "name": "buyNft",
      "outputs": [],
      "stateMutability": "payable",
      "type": "function",
      "payable": true
    }
  ],
  "bytecode": "0x60806040526040518060400160405280600881526020017f4b6169546f6b656e000000000000000000000000000000000000000000000000815250600690816200004a91906200079f565b506040518060400160405280600381526020017f4b41490000000000000000000000000000000000000000000000000000000000815250600790816200009191906200079f565b50620000a26200028c60201b60201c565b600a620000b0919062000a16565b612710620000bf919062000a67565b6008556064600955348015620000d457600080fd5b5060068054620000e4906200058e565b80601f016020809104026020016040519081016040528092919081815260200182805462000112906200058e565b8015620001635780601f10620001375761010080835404028352916020019162000163565b820191906000526020600020905b8154815290600101906020018083116200014557829003601f168201915b50505050506007805462000177906200058e565b80601f0160208091040260200160405190810160405280929190818152602001828054620001a5906200058e565b8015620001f65780601f10620001ca57610100808354040283529160200191620001f6565b820191906000526020600020905b815481529060010190602001808311620001d857829003601f168201915b505050505081600390816200020c91906200079f565b5080600490816200021e91906200079f565b50505062000241620002356200029560201b60201c565b6200029d60201b60201c565b6006808162000251919062000adf565b506007808162000262919062000adf565b5062000286620002776200036360201b60201c565b6008546200038d60201b60201c565b62000ccc565b60006012905090565b600033905090565b6000600560009054906101000a900473ffffffffffffffffffffffffffffffffffffffff16905081600560006101000a81548173ffffffffffffffffffffffffffffffffffffffff021916908373ffffffffffffffffffffffffffffffffffffffff1602179055508173ffffffffffffffffffffffffffffffffffffffff168173ffffffffffffffffffffffffffffffffffffffff167f8be0079c531659141344cd1fd0a4f28419497f9722a3daafe3b4186f6b6457e060405160405180910390a35050565b6000600560009054906101000a900473ffffffffffffffffffffffffffffffffffffffff16905090565b6200039f8282620003a360201b60201c565b5050565b600073ffffffffffffffffffffffffffffffffffffffff168273ffffffffffffffffffffffffffffffffffffffff160362000415576040517f08c379a00000000000000000000000000000000000000000000000000000000081526004016200040c9062000c41565b60405180910390fd5b62000429600083836200051b60201b60201c565b80600260008282546200043d919062000c63565b92505081905550806000808473ffffffffffffffffffffffffffffffffffffffff1673ffffffffffffffffffffffffffffffffffffffff168152602001908152602001600020600082825462000494919062000c63565b925050819055508173ffffffffffffffffffffffffffffffffffffffff16600073ffffffffffffffffffffffffffffffffffffffff167fddf252ad1be2c89b69c2b068fc378daa952ba7f163c4a11628f55a4df523b3ef83604051620004fb919062000caf565b60405180910390a362000517600083836200052060201b60201c565b5050565b505050565b505050565b600081519050919050565b7f4e487b7100000000000000000000000000000000000000000000000000000000600052604160045260246000fd5b7f4e487b7100000000000000000000000000000000000000000000000000000000600052602260045260246000fd5b60006002820490506001821680620005a757607f821691505b602082108103620005bd57620005bc6200055f565b5b50919050565b60008190508160005260206000209050919050565b60006020601f8301049050919050565b600082821b905092915050565b600060088302620006277fffffffffffffffffffffffffffffffffffffffffffffffffffffffffffffffff82620005e8565b620006338683620005e8565b95508019841693508086168417925050509392505050565b6000819050919050565b6000819050919050565b6000620006806200067a62000674846200064b565b62000655565b6200064b565b9050919050565b6000819050919050565b6200069c836200065f565b620006b4620006ab8262000687565b848454620005f5565b825550505050565b600090565b620006cb620006bc565b620006d881848462000691565b505050565b5b818110156200070057620006f4600082620006c1565b600181019050620006de565b5050565b601f8211156200074f576200071981620005c3565b6200072484620005d8565b8101602085101562000734578190505b6200074c6200074385620005d8565b830182620006dd565b50505b505050565b600082821c905092915050565b6000620007746000198460080262000754565b1980831691505092915050565b60006200078f838362000761565b9150826002028217905092915050565b620007aa8262000525565b67ffffffffffffffff811115620007c657620007c562000530565b5b620007d282546200058e565b620007df82828562000704565b600060209050601f83116001811462000817576000841562000802578287015190505b6200080e858262000781565b8655506200087e565b601f1984166200082786620005c3565b60005b8281101562000851578489015182556001820191506020850194506020810190506200082a565b868310156200087157848901516200086d601f89168262000761565b8355505b6001600288020188555050505b505050505050565b7f4e487b7100000000000000000000000000000000000000000000000000000000600052601160045260246000fd5b60008160011c9050919050565b6000808291508390505b60018511156200091457808604811115620008ec57620008eb62000886565b5b6001851615620008fc5780820291505b80810290506200090c85620008b5565b9450620008cc565b94509492505050565b6000826200092f576001905062000a02565b816200093f576000905062000a02565b8160018114620009585760028114620009635762000999565b600191505062000a02565b60ff84111562000978576200097762000886565b5b8360020a91508482111562000992576200099162000886565b5b5062000a02565b5060208310610133831016604e8410600b8410161715620009d35782820a905083811115620009cd57620009cc62000886565b5b62000a02565b620009e28484846001620008c2565b92509050818404811115620009fc57620009fb62000886565b5b81810290505b9392505050565b600060ff82169050919050565b600062000a23826200064b565b915062000a308362000a09565b925062000a5f7fffffffffffffffffffffffffffffffffffffffffffffffffffffffffffffffff84846200091d565b905092915050565b600062000a74826200064b565b915062000a81836200064b565b925082820262000a91816200064b565b9150828204841483151762000aab5762000aaa62000886565b5b5092915050565b60008154905062000ac3816200058e565b9050919050565b60008190508160005260206000209050919050565b81810362000aef57505062000bde565b62000afa8262000ab2565b67ffffffffffffffff81111562000b165762000b1562000530565b5b62000b2282546200058e565b62000b2f82828562000704565b6000601f83116001811462000b63576000841562000b4e578287015490505b62000b5a858262000781565b86555062000bd7565b601f19841662000b738762000aca565b965062000b8086620005c3565b60005b8281101562000baa5784890154825560018201915060018501945060208101905062000b83565b8683101562000bca578489015462000bc6601f89168262000761565b8355505b6001600288020188555050505b5050505050505b565b600082825260208201905092915050565b7f45524332303a206d696e7420746f20746865207a65726f206164647265737300600082015250565b600062000c29601f8362000be0565b915062000c368262000bf1565b602082019050919050565b6000602082019050818103600083015262000c5c8162000c1a565b9050919050565b600062000c70826200064b565b915062000c7d836200064b565b925082820190508082111562000c985762000c9762000886565b5b92915050565b62000ca9816200064b565b82525050565b600060208201905062000cc6600083018462000c9e565b92915050565b61237b8062000cdc6000396000f3fe6080604052600436106101855760003560e01c806370a08231116100d1578063a9059cbb1161008a578063d28d885211610064578063d28d88521461067e578063d3866f5a146106a9578063dd62ed3e146106d2578063f2fde38b1461070f57610291565b8063a9059cbb146105fa578063b09f126614610637578063bc3ad1451461066257610291565b806370a08231146104e8578063715018a6146105255780637a6ce2e11461053c5780638da5cb5b1461056757806395d89b4114610592578063a457c2d7146105bd57610291565b806323b872dd1161013e5780633950935111610118578063395093511461042e5780633eaaf86b1461046b57806340c10f19146104965780634bdfa913146104bf57610291565b806323b872dd1461039b5780632c4e722e146103d8578063313ce5671461040357610291565b806306fdde0314610296578063095ea7b3146102c157806312065fe0146102fe57806318160ddd1461032957806321df0da7146103545780632397e4d71461037f57610291565b3661029157600034036101cd576040517f08c379a00000000000000000000000000000000000000000000000000000000081526004016101c49061179e565b60405180910390fd5b6000600954346101dd91906117f7565b9050806101f06101eb610738565b610762565b1015610231576040517f08c379a000000000000000000000000000000000000000000000000000000000815260040161022890611885565b60405180910390fd5b61024361023c610738565b33836107aa565b61024b610738565b73ffffffffffffffffffffffffffffffffffffffff163373ffffffffffffffffffffffffffffffffffffffff160361028f5761028e610288610738565b82610859565b5b005b600080fd5b3480156102a257600080fd5b506102ab6109b8565b6040516102b89190611924565b60405180910390f35b3480156102cd57600080fd5b506102e860048036038101906102e391906119d5565b610a4a565b6040516102f59190611a30565b60405180910390f35b34801561030a57600080fd5b50610313610a6d565b6040516103209190611a5a565b60405180910390f35b34801561033557600080fd5b5061033e610a7d565b60405161034b9190611a5a565b60405180910390f35b34801561036057600080fd5b50610369610a87565b6040516103769190611a84565b60405180910390f35b61039960048036038101906103949190611a9f565b610a8f565b005b3480156103a757600080fd5b506103c260048036038101906103bd9190611acc565b610b8c565b6040516103cf9190611a30565b60405180910390f35b3480156103e457600080fd5b506103ed610bbb565b6040516103fa9190611a5a565b60405180910390f35b34801561040f57600080fd5b50610418610bc1565b6040516104259190611b3b565b60405180910390f35b34801561043a57600080fd5b50610455600480360381019061045091906119d5565b610bca565b6040516104629190611a30565b60405180910390f35b34801561047757600080fd5b50610480610c01565b60405161048d9190611a5a565b60405180910390f35b3480156104a257600080fd5b506104bd60048036038101906104b891906119d5565b610c07565b005b3480156104cb57600080fd5b506104e660048036038101906104e19190611acc565b610c15565b005b3480156104f457600080fd5b5061050f600480360381019061050a9190611b56565b610762565b60405161051c9190611a5a565b60405180910390f35b34801561053157600080fd5b5061053a610cc4565b005b34801561054857600080fd5b50610551610d4c565b60405161055e9190611a84565b60405180910390f35b34801561057357600080fd5b5061057c610738565b6040516105899190611a84565b60405180910390f35b34801561059e57600080fd5b506105a7610d54565b6040516105b49190611924565b60405180910390f35b3480156105c957600080fd5b506105e460048036038101906105df91906119d5565b610de6565b6040516105f19190611a30565b60405180910390f35b34801561060657600080fd5b50610621600480360381019061061c91906119d5565b610e5d565b60405161062e9190611a30565b60405180910390f35b34801561064357600080fd5b5061064c610e80565b6040516106599190611924565b60405180910390f35b61067c60048036038101906106779190611b83565b610f0e565b005b34801561068a57600080fd5b50610693610f89565b6040516106a09190611924565b60405180910390f35b3480156106b557600080fd5b506106d060048036038101906106cb9190611acc565b6107aa565b005b3480156106de57600080fd5b506106f960048036038101906106f49190611bc3565b611017565b6040516107069190611a5a565b60405180910390f35b34801561071b57600080fd5b5061073660048036038101906107319190611b56565b61109e565b005b6000600560009054906101000a900473ffffffffffffffffffffffffffffffffffffffff16905090565b60008060008373ffffffffffffffffffffffffffffffffffffffff1673ffffffffffffffffffffffffffffffffffffffff168152602001908152602001600020549050919050565b806000808573ffffffffffffffffffffffffffffffffffffffff1673ffffffffffffffffffffffffffffffffffffffff16815260200190815260200160002060008282546107f89190611c03565b92505081905550806000808473ffffffffffffffffffffffffffffffffffffffff1673ffffffffffffffffffffffffffffffffffffffff168152602001908152602001600020600082825461084d9190611c37565b92505081905550505050565b600073ffffffffffffffffffffffffffffffffffffffff168273ffffffffffffffffffffffffffffffffffffffff16036108c8576040517f08c379a00000000000000000000000000000000000000000000000000000000081526004016108bf90611cb7565b60405180910390fd5b6108d460008383611195565b80600260008282546108e69190611c37565b92505081905550806000808473ffffffffffffffffffffffffffffffffffffffff1673ffffffffffffffffffffffffffffffffffffffff168152602001908152602001600020600082825461093b9190611c37565b925050819055508173ffffffffffffffffffffffffffffffffffffffff16600073ffffffffffffffffffffffffffffffffffffffff167fddf252ad1be2c89b69c2b068fc378daa952ba7f163c4a11628f55a4df523b3ef836040516109a09190611a5a565b60405180910390a36109b46000838361119a565b5050565b6060600380546109c790611d06565b80601f01602080910402602001604051908101604052809291908181526020018280546109f390611d06565b8015610a405780601f10610a1557610100808354040283529160200191610a40565b820191906000526020600020905b815481529060010190602001808311610a2357829003601f168201915b5050505050905090565b600080610a5561119f565b9050610a628185856111a7565b600191505092915050565b6000610a7833610762565b905090565b6000600254905090565b600030905090565b80610a9933610762565b1015610ada576040517f08c379a0000000000000000000000000000000000000000000000000000000008152600401610ad190611d83565b60405180910390fd5b600060095482610aea9190611dd2565b905080471015610b2f576040517f08c379a0000000000000000000000000000000000000000000000000000000008152600401610b2690611e4f565b60405180910390fd5b610b41610b3a610738565b3384610c15565b3373ffffffffffffffffffffffffffffffffffffffff166108fc829081150290604051600060405180830381858888f19350505050158015610b87573d6000803e3d6000fd5b505050565b600080610b9761119f565b9050610ba4858285611370565b610baf8585856113fc565b60019150509392505050565b60095481565b60006012905090565b600080610bd561119f565b9050610bf6818585610be78589611017565b610bf19190611c37565b6111a7565b600191505092915050565b60085481565b610c118282610859565b5050565b806000808573ffffffffffffffffffffffffffffffffffffffff1673ffffffffffffffffffffffffffffffffffffffff1681526020019081526020016000206000828254610c639190611c37565b92505081905550806000808473ffffffffffffffffffffffffffffffffffffffff1673ffffffffffffffffffffffffffffffffffffffff1681526020019081526020016000206000828254610cb89190611c03565b92505081905550505050565b610ccc61119f565b73ffffffffffffffffffffffffffffffffffffffff16610cea610738565b73ffffffffffffffffffffffffffffffffffffffff1614610d40576040517f08c379a0000000000000000000000000000000000000000000000000000000008152600401610d3790611ebb565b60405180910390fd5b610d4a600061167b565b565b600033905090565b606060048054610d6390611d06565b80601f0160208091040260200160405190810160405280929190818152602001828054610d8f90611d06565b8015610ddc5780601f10610db157610100808354040283529160200191610ddc565b820191906000526020600020905b815481529060010190602001808311610dbf57829003601f168201915b5050505050905090565b600080610df161119f565b90506000610dff8286611017565b905083811015610e44576040517f08c379a0000000000000000000000000000000000000000000000000000000008152600401610e3b90611f4d565b60405180910390fd5b610e5182868684036111a7565b60019250505092915050565b600080610e6861119f565b9050610e758185856113fc565b600191505092915050565b60078054610e8d90611d06565b80601f0160208091040260200160405190810160405280929190818152602001828054610eb990611d06565b8015610f065780601f10610edb57610100808354040283529160200191610f06565b820191906000526020600020905b815481529060010190602001808311610ee957829003601f168201915b505050505081565b60095482610f1c91906117f7565b610f2582610762565b1015610f66576040517f08c379a0000000000000000000000000000000000000000000000000000000008152600401610f5d90611d83565b60405180910390fd5b610f85610f71610738565b8260095485610f8091906117f7565b610c15565b5050565b60068054610f9690611d06565b80601f0160208091040260200160405190810160405280929190818152602001828054610fc290611d06565b801561100f5780601f10610fe45761010080835404028352916020019161100f565b820191906000526020600020905b815481529060010190602001808311610ff257829003601f168201915b505050505081565b6000600160008473ffffffffffffffffffffffffffffffffffffffff1673ffffffffffffffffffffffffffffffffffffffff16815260200190815260200160002060008373ffffffffffffffffffffffffffffffffffffffff1673ffffffffffffffffffffffffffffffffffffffff16815260200190815260200160002054905092915050565b6110a661119f565b73ffffffffffffffffffffffffffffffffffffffff166110c4610738565b73ffffffffffffffffffffffffffffffffffffffff161461111a576040517f08c379a000000000000000000000000000000000000000000000000000000000815260040161111190611ebb565b60405180910390fd5b600073ffffffffffffffffffffffffffffffffffffffff168173ffffffffffffffffffffffffffffffffffffffff1603611189576040517f08c379a000000000000000000000000000000000000000000000000000000000815260040161118090611fdf565b60405180910390fd5b6111928161167b565b50565b505050565b505050565b600033905090565b600073ffffffffffffffffffffffffffffffffffffffff168373ffffffffffffffffffffffffffffffffffffffff1603611216576040517f08c379a000000000000000000000000000000000000000000000000000000000815260040161120d90612071565b60405180910390fd5b600073ffffffffffffffffffffffffffffffffffffffff168273ffffffffffffffffffffffffffffffffffffffff1603611285576040517f08c379a000000000000000000000000000000000000000000000000000000000815260040161127c90612103565b60405180910390fd5b80600160008573ffffffffffffffffffffffffffffffffffffffff1673ffffffffffffffffffffffffffffffffffffffff16815260200190815260200160002060008473ffffffffffffffffffffffffffffffffffffffff1673ffffffffffffffffffffffffffffffffffffffff168152602001908152602001600020819055508173ffffffffffffffffffffffffffffffffffffffff168373ffffffffffffffffffffffffffffffffffffffff167f8c5be1e5ebec7d5bd14f71427d1e84f3dd0314c0f7b2291e5b200ac8c7c3b925836040516113639190611a5a565b60405180910390a3505050565b600061137c8484611017565b90507fffffffffffffffffffffffffffffffffffffffffffffffffffffffffffffffff81146113f657818110156113e8576040517f08c379a00000000000000000000000000000000000000000000000000000000081526004016113df9061216f565b60405180910390fd5b6113f584848484036111a7565b5b50505050565b600073ffffffffffffffffffffffffffffffffffffffff168373ffffffffffffffffffffffffffffffffffffffff160361146b576040517f08c379a000000000000000000000000000000000000000000000000000000000815260040161146290612201565b60405180910390fd5b600073ffffffffffffffffffffffffffffffffffffffff168273ffffffffffffffffffffffffffffffffffffffff16036114da576040517f08c379a00000000000000000000000000000000000000000000000000000000081526004016114d190612293565b60405180910390fd5b6114e5838383611195565b60008060008573ffffffffffffffffffffffffffffffffffffffff1673ffffffffffffffffffffffffffffffffffffffff1681526020019081526020016000205490508181101561156b576040517f08c379a000000000000000000000000000000000000000000000000000000000815260040161156290612325565b60405180910390fd5b8181036000808673ffffffffffffffffffffffffffffffffffffffff1673ffffffffffffffffffffffffffffffffffffffff16815260200190815260200160002081905550816000808573ffffffffffffffffffffffffffffffffffffffff1673ffffffffffffffffffffffffffffffffffffffff16815260200190815260200160002060008282546115fe9190611c37565b925050819055508273ffffffffffffffffffffffffffffffffffffffff168473ffffffffffffffffffffffffffffffffffffffff167fddf252ad1be2c89b69c2b068fc378daa952ba7f163c4a11628f55a4df523b3ef846040516116629190611a5a565b60405180910390a361167584848461119a565b50505050565b6000600560009054906101000a900473ffffffffffffffffffffffffffffffffffffffff16905081600560006101000a81548173ffffffffffffffffffffffffffffffffffffffff021916908373ffffffffffffffffffffffffffffffffffffffff1602179055508173ffffffffffffffffffffffffffffffffffffffff168173ffffffffffffffffffffffffffffffffffffffff167f8be0079c531659141344cd1fd0a4f28419497f9722a3daafe3b4186f6b6457e060405160405180910390a35050565b600082825260208201905092915050565b7f456e7465722061206e6f6e7a65726f2076616c75650000000000000000000000600082015250565b6000611788601583611741565b915061179382611752565b602082019050919050565b600060208201905081810360008301526117b78161177b565b9050919050565b6000819050919050565b7f4e487b7100000000000000000000000000000000000000000000000000000000600052601160045260246000fd5b6000611802826117be565b915061180d836117be565b925082820261181b816117be565b91508282048414831517611832576118316117c8565b5b5092915050565b7f6f776e6572204b6169546f6b656e206973206e6f20616d6f756e740000000000600082015250565b600061186f601b83611741565b915061187a82611839565b602082019050919050565b6000602082019050818103600083015261189e81611862565b9050919050565b600081519050919050565b60005b838110156118ce5780820151818401526020810190506118b3565b60008484015250505050565b6000601f19601f8301169050919050565b60006118f6826118a5565b6119008185611741565b93506119108185602086016118b0565b611919816118da565b840191505092915050565b6000602082019050818103600083015261193e81846118eb565b905092915050565b600080fd5b600073ffffffffffffffffffffffffffffffffffffffff82169050919050565b60006119768261194b565b9050919050565b6119868161196b565b811461199157600080fd5b50565b6000813590506119a38161197d565b92915050565b6119b2816117be565b81146119bd57600080fd5b50565b6000813590506119cf816119a9565b92915050565b600080604083850312156119ec576119eb611946565b5b60006119fa85828601611994565b9250506020611a0b858286016119c0565b9150509250929050565b60008115159050919050565b611a2a81611a15565b82525050565b6000602082019050611a456000830184611a21565b92915050565b611a54816117be565b82525050565b6000602082019050611a6f6000830184611a4b565b92915050565b611a7e8161196b565b82525050565b6000602082019050611a996000830184611a75565b92915050565b600060208284031215611ab557611ab4611946565b5b6000611ac3848285016119c0565b91505092915050565b600080600060608486031215611ae557611ae4611946565b5b6000611af386828701611994565b9350506020611b0486828701611994565b9250506040611b15868287016119c0565b9150509250925092565b600060ff82169050919050565b611b3581611b1f565b82525050565b6000602082019050611b506000830184611b2c565b92915050565b600060208284031215611b6c57611b6b611946565b5b6000611b7a84828501611994565b91505092915050565b60008060408385031215611b9a57611b99611946565b5b6000611ba8858286016119c0565b9250506020611bb985828601611994565b9150509250929050565b60008060408385031215611bda57611bd9611946565b5b6000611be885828601611994565b9250506020611bf985828601611994565b9150509250929050565b6000611c0e826117be565b9150611c19836117be565b9250828203905081811115611c3157611c306117c8565b5b92915050565b6000611c42826117be565b9150611c4d836117be565b9250828201905080821115611c6557611c646117c8565b5b92915050565b7f45524332303a206d696e7420746f20746865207a65726f206164647265737300600082015250565b6000611ca1601f83611741565b9150611cac82611c6b565b602082019050919050565b60006020820190508181036000830152611cd081611c94565b9050919050565b7f4e487b7100000000000000000000000000000000000000000000000000000000600052602260045260246000fd5b60006002820490506001821680611d1e57607f821691505b602082108103611d3157611d30611cd7565b5b50919050565b7f796f75206675636b696e67206e6f20546f6b656e206f6b3f0000000000000000600082015250565b6000611d6d601883611741565b9150611d7882611d37565b602082019050919050565b60006020820190508181036000830152611d9c81611d60565b9050919050565b7f4e487b7100000000000000000000000000000000000000000000000000000000600052601260045260246000fd5b6000611ddd826117be565b9150611de8836117be565b925082611df857611df7611da3565b5b828204905092915050565b7f4341206e6f206574686572000000000000000000000000000000000000000000600082015250565b6000611e39600b83611741565b9150611e4482611e03565b602082019050919050565b60006020820190508181036000830152611e6881611e2c565b9050919050565b7f4f776e61626c653a2063616c6c6572206973206e6f7420746865206f776e6572600082015250565b6000611ea5602083611741565b9150611eb082611e6f565b602082019050919050565b60006020820190508181036000830152611ed481611e98565b9050919050565b7f45524332303a2064656372656173656420616c6c6f77616e63652062656c6f7760008201527f207a65726f000000000000000000000000000000000000000000000000000000602082015250565b6000611f37602583611741565b9150611f4282611edb565b604082019050919050565b60006020820190508181036000830152611f6681611f2a565b9050919050565b7f4f776e61626c653a206e6577206f776e657220697320746865207a65726f206160008201527f6464726573730000000000000000000000000000000000000000000000000000602082015250565b6000611fc9602683611741565b9150611fd482611f6d565b604082019050919050565b60006020820190508181036000830152611ff881611fbc565b9050919050565b7f45524332303a20617070726f76652066726f6d20746865207a65726f2061646460008201527f7265737300000000000000000000000000000000000000000000000000000000602082015250565b600061205b602483611741565b915061206682611fff565b604082019050919050565b6000602082019050818103600083015261208a8161204e565b9050919050565b7f45524332303a20617070726f766520746f20746865207a65726f20616464726560008201527f7373000000000000000000000000000000000000000000000000000000000000602082015250565b60006120ed602283611741565b91506120f882612091565b604082019050919050565b6000602082019050818103600083015261211c816120e0565b9050919050565b7f45524332303a20696e73756666696369656e7420616c6c6f77616e6365000000600082015250565b6000612159601d83611741565b915061216482612123565b602082019050919050565b600060208201905081810360008301526121888161214c565b9050919050565b7f45524332303a207472616e736665722066726f6d20746865207a65726f20616460008201527f6472657373000000000000000000000000000000000000000000000000000000602082015250565b60006121eb602583611741565b91506121f68261218f565b604082019050919050565b6000602082019050818103600083015261221a816121de565b9050919050565b7f45524332303a207472616e7366657220746f20746865207a65726f206164647260008201527f6573730000000000000000000000000000000000000000000000000000000000602082015250565b600061227d602383611741565b915061228882612221565b604082019050919050565b600060208201905081810360008301526122ac81612270565b9050919050565b7f45524332303a207472616e7366657220616d6f756e742065786365656473206260008201527f616c616e63650000000000000000000000000000000000000000000000000000602082015250565b600061230f602683611741565b915061231a826122b3565b604082019050919050565b6000602082019050818103600083015261233e81612302565b905091905056fea2646970667358221220076cecab5c78a2f2def56c6b0bc42127bf61c53b385f6f5202c0f272d101483864736f6c63430008110033",
  "immutableReferences": {},
  "source": "// SPDX-License-Identifier: MIT\npragma solidity ^0.8.17;\n\n// // import  nodeModules/openzeppelin/contracts/token/ERC20 \nimport \"../node_modules/openzeppelin-solidity/contracts/token/ERC20/ERC20.sol\";\nimport \"../node_modules/openzeppelin-solidity/contracts/access/Ownable.sol\";\n\n\n//   is SOONToken ERC20  \ncontract KaiToken is ERC20, Ownable {\n    string public _name = \"KaiToken\";\n    string public _symbol = \"KAI\";\n    uint256 public _totalSupply = 10000 * (10**decimals());\n\n    uint256 public rate = 100; // 1ETH  200\n\n    constructor() ERC20(_name, _symbol){\n        // ERC20    0\n        _name = _name;\n        _symbol = _symbol;\n        // mint   \n        mint(owner(), _totalSupply);\n    }\n    function getToken() public view returns(address){\n        // KaiToken CA\n        return address(this);\n    }\n\n    //       .\n    function getBalance() public view returns (uint){\n        return balanceOf(msg.sender);\n    }\n\n    //    EOA \n    function getMsgSender() public view returns (address){\n        return msg.sender;\n    }\n\n    //  \n    // receive :   CA     \n    // external       \n    //  \n    //    \n    //     KaiToken CA     .\n\n    receive() external payable{\n        // require true  false ..\n        // require true \n        require(msg.value != 0, \"Enter a nonzero value\");\n        uint amount = msg.value * rate;\n\n        require(balanceOf(owner()) >= amount, \"owner KaiToken is no amount\"); \n\n        tokenTransferBuy(owner(),msg.sender, amount);\n\n        if(msg.sender == owner()){\n            _mint(owner(),amount);\n        }\n    }\n\n    //   \n   function sellToken(uint256 _amount) public payable{\n        require(balanceOf(msg.sender) >= _amount, \"you fucking no Token ok?\");\n        uint256 etherAmount = _amount/rate;\n        require(address(this).balance >= etherAmount, \"CA no ether\");\n        tokenTransferSell(owner(),msg.sender, _amount);\n        payable(msg.sender).transfer(etherAmount);\n    }\n    // NFT     \n    function buyNft(uint256 _amount, address from) public payable{\n        require(balanceOf(from) >= _amount*rate, \"you fucking no Token ok?\");\n        tokenTransferSell(owner(),from, _amount*rate);\n    }\n    //ERC20     \n    // token \n    // function tokenTransferBuy(address owner, address to, uint256 amount) public virtual {\n    //     _balances[owner] -= amount;\n    //     _balances[to] += amount;\n    // }\n    // token \n    // function tokenTransferSell(address owner, address to, uint256 amount) public virtual {\n    //     _balances[owner] += amount;\n    //     _balances[to] -= amount;\n    // }\n}\n\n// (0) 0x40E802e691E9ECfE87f1A1809b04C26DaAAAbE54 (100 ETH)\n// (1) 0xa8AE7b65398faE340b4dB7048Abd8f67142B6f0C (100 ETH)\n// (2) 0x81D15Ec64CB9C9d0AD5faA2c513477e5664e53A3 (100 ETH)\n// (3) 0x66705Ef95315a8E2AcB7A616122ffbA27faF1E72 (100 ETH)\n// (4) 0xa16bc3E9a92448667F21aAE2576cC07D35E41CD4 (100 ETH)\n// (5) 0x8661c541d59D7607bCdBc11ed157835a945e374d (100 ETH)\n// (6) 0xF340D84e398770032De101b75519144Dc3309957 (100 ETH)\n// (7) 0x7eb6f9362cd5050E276539B97DA59d9B21Efcbfe (100 ETH)\n// (8) 0x4D70086E62e28EE33219C72f2b0Fbd883da30C92 (100 ETH)\n// (9) 0xA7761Ad23dca6283FECe36f5E84cF32Ec0A95A1b (100 ETH)\n\n// Private Keys\n// ==================\n// (0) 0xe468d051d34c27e5ae186f7ff9d0d96973eb124f60e31cbb735b2862488c88c0\n// (1) 0x4d38e70d0d82b60e0c47a90aff852bdcb9e6ab0a9a9260ddfd0fae2969d3bf09\n// (2) 0x109a9e1a94b4939d2ec0536c0a9d1291086a308e97296276dbe6d9ec9a06125d\n// (3) 0x117c56d80babfa6216314657305ae0e4a91c2a99cbea5b7b05927bdd9772ace8\n// (4) 0x54dc49fe084244a42bf9becd1580e81ca5153ac6b4b44c7641fce549b1a53ac2\n// (5) 0x3dc428ad41914dc002b4b1046e38925936013045284f12e92b961caaa63dafb7\n// (6) 0x00e368f01ff3080031eb202ce729c5d33815ca6ea0a4125d82403f2bd64ea5d3\n// (7) 0x3f3b70da6d438a8698b67f67ca433285ad023a250dd1028b4b85f27dd7d281c9\n// (8) 0x056148555c276e4e3ca5928531ffaecec1412b6249cfb9dc3d81437e416827d0\n// (9) 0xdfc206fe954f7a3a644fa3d0b4e2952a7a1ffb730f15b9f4a3cf67cb25f95763",
  "sourcePath": "C:\\Users\\an\\Desktop\\E-SAKAI\\sol\\contracts\\kaiToken.sol",
  "compiler": {
    "name": "solc",
    "version": "0.8.17+commit.8df45f5f.Emscripten.clang"
  },
  "schemaVersion": "3.4.11",
  "updatedAt": "2022-12-28T07:40:23.610Z",
  "networkType": "ethereum",
  "devdoc": {
    "kind": "dev",
    "methods": {
      "allowance(address,address)": {
        "details": "See {IERC20-allowance}."
      },
      "approve(address,uint256)": {
        "details": "See {IERC20-approve}. NOTE: If `amount` is the maximum `uint256`, the allowance is not updated on `transferFrom`. This is semantically equivalent to an infinite approval. Requirements: - `spender` cannot be the zero address."
      },
      "balanceOf(address)": {
        "details": "See {IERC20-balanceOf}."
      },
      "decimals()": {
        "details": "Returns the number of decimals used to get its user representation. For example, if `decimals` equals `2`, a balance of `505` tokens should be displayed to a user as `5.05` (`505 / 10 ** 2`). Tokens usually opt for a value of 18, imitating the relationship between Ether and Wei. This is the value {ERC20} uses, unless this function is overridden; NOTE: This information is only used for _display_ purposes: it in no way affects any of the arithmetic of the contract, including {IERC20-balanceOf} and {IERC20-transfer}."
      },
      "decreaseAllowance(address,uint256)": {
        "details": "Atomically decreases the allowance granted to `spender` by the caller. This is an alternative to {approve} that can be used as a mitigation for problems described in {IERC20-approve}. Emits an {Approval} event indicating the updated allowance. Requirements: - `spender` cannot be the zero address. - `spender` must have allowance for the caller of at least `subtractedValue`."
      },
      "increaseAllowance(address,uint256)": {
        "details": "Atomically increases the allowance granted to `spender` by the caller. This is an alternative to {approve} that can be used as a mitigation for problems described in {IERC20-approve}. Emits an {Approval} event indicating the updated allowance. Requirements: - `spender` cannot be the zero address."
      },
      "name()": {
        "details": "Returns the name of the token."
      },
      "owner()": {
        "details": "Returns the address of the current owner."
      },
      "renounceOwnership()": {
        "details": "Leaves the contract without owner. It will not be possible to call `onlyOwner` functions anymore. Can only be called by the current owner. NOTE: Renouncing ownership will leave the contract without an owner, thereby removing any functionality that is only available to the owner."
      },
      "symbol()": {
        "details": "Returns the symbol of the token, usually a shorter version of the name."
      },
      "totalSupply()": {
        "details": "See {IERC20-totalSupply}."
      },
      "transfer(address,uint256)": {
        "details": "See {IERC20-transfer}. Requirements: - `to` cannot be the zero address. - the caller must have a balance of at least `amount`."
      },
      "transferFrom(address,address,uint256)": {
        "details": "See {IERC20-transferFrom}. Emits an {Approval} event indicating the updated allowance. This is not required by the EIP. See the note at the beginning of {ERC20}. NOTE: Does not update the allowance if the current allowance is the maximum `uint256`. Requirements: - `from` and `to` cannot be the zero address. - `from` must have a balance of at least `amount`. - the caller must have allowance for ``from``'s tokens of at least `amount`."
      },
      "transferOwnership(address)": {
        "details": "Transfers ownership of the contract to a new account (`newOwner`). Can only be called by the current owner."
      }
    },
    "version": 1
  },
  "userdoc": {
    "kind": "user",
    "methods": {},
    "version": 1
  }
}