{
  "contractName": "KaiToken",
  "abi": [
    {
      "inputs": [],
      "stateMutability": "nonpayable",
      "type": "constructor"
    },
    {
      "anonymous": false,
      "inputs": [
        {
          "indexed": true,
          "internalType": "address",
          "name": "owner",
          "type": "address"
        },
        {
          "indexed": true,
          "internalType": "address",
          "name": "spender",
          "type": "address"
        },
        {
          "indexed": false,
          "internalType": "uint256",
          "name": "value",
          "type": "uint256"
        }
      ],
      "name": "Approval",
      "type": "event"
    },
    {
      "anonymous": false,
      "inputs": [
        {
          "indexed": true,
          "internalType": "address",
          "name": "previousOwner",
          "type": "address"
        },
        {
          "indexed": true,
          "internalType": "address",
          "name": "newOwner",
          "type": "address"
        }
      ],
      "name": "OwnershipTransferred",
      "type": "event"
    },
    {
      "anonymous": false,
      "inputs": [
        {
          "indexed": true,
          "internalType": "address",
          "name": "from",
          "type": "address"
        },
        {
          "indexed": true,
          "internalType": "address",
          "name": "to",
          "type": "address"
        },
        {
          "indexed": false,
          "internalType": "uint256",
          "name": "value",
          "type": "uint256"
        }
      ],
      "name": "Transfer",
      "type": "event"
    },
    {
      "inputs": [],
      "name": "_name",
      "outputs": [
        {
          "internalType": "string",
          "name": "",
          "type": "string"
        }
      ],
      "stateMutability": "view",
      "type": "function",
      "constant": true
    },
    {
      "inputs": [],
      "name": "_symbol",
      "outputs": [
        {
          "internalType": "string",
          "name": "",
          "type": "string"
        }
      ],
      "stateMutability": "view",
      "type": "function",
      "constant": true
    },
    {
      "inputs": [],
      "name": "_totalSupply",
      "outputs": [
        {
          "internalType": "uint256",
          "name": "",
          "type": "uint256"
        }
      ],
      "stateMutability": "view",
      "type": "function",
      "constant": true
    },
    {
      "inputs": [
        {
          "internalType": "address",
          "name": "owner",
          "type": "address"
        },
        {
          "internalType": "address",
          "name": "spender",
          "type": "address"
        }
      ],
      "name": "allowance",
      "outputs": [
        {
          "internalType": "uint256",
          "name": "",
          "type": "uint256"
        }
      ],
      "stateMutability": "view",
      "type": "function",
      "constant": true
    },
    {
      "inputs": [
        {
          "internalType": "address",
          "name": "spender",
          "type": "address"
        },
        {
          "internalType": "uint256",
          "name": "amount",
          "type": "uint256"
        }
      ],
      "name": "approve",
      "outputs": [
        {
          "internalType": "bool",
          "name": "",
          "type": "bool"
        }
      ],
      "stateMutability": "nonpayable",
      "type": "function"
    },
    {
      "inputs": [
        {
          "internalType": "address",
          "name": "account",
          "type": "address"
        }
      ],
      "name": "balanceOf",
      "outputs": [
        {
          "internalType": "uint256",
          "name": "",
          "type": "uint256"
        }
      ],
      "stateMutability": "view",
      "type": "function",
      "constant": true
    },
    {
      "inputs": [],
      "name": "decimals",
      "outputs": [
        {
          "internalType": "uint8",
          "name": "",
          "type": "uint8"
        }
      ],
      "stateMutability": "view",
      "type": "function",
      "constant": true
    },
    {
      "inputs": [
        {
          "internalType": "address",
          "name": "spender",
          "type": "address"
        },
        {
          "internalType": "uint256",
          "name": "subtractedValue",
          "type": "uint256"
        }
      ],
      "name": "decreaseAllowance",
      "outputs": [
        {
          "internalType": "bool",
          "name": "",
          "type": "bool"
        }
      ],
      "stateMutability": "nonpayable",
      "type": "function"
    },
    {
      "inputs": [
        {
          "internalType": "address",
          "name": "spender",
          "type": "address"
        },
        {
          "internalType": "uint256",
          "name": "addedValue",
          "type": "uint256"
        }
      ],
      "name": "increaseAllowance",
      "outputs": [
        {
          "internalType": "bool",
          "name": "",
          "type": "bool"
        }
      ],
      "stateMutability": "nonpayable",
      "type": "function"
    },
    {
      "inputs": [
        {
          "internalType": "address",
          "name": "account",
          "type": "address"
        },
        {
          "internalType": "uint256",
          "name": "amount",
          "type": "uint256"
        }
      ],
      "name": "mint",
      "outputs": [],
      "stateMutability": "nonpayable",
      "type": "function"
    },
    {
      "inputs": [],
      "name": "name",
      "outputs": [
        {
          "internalType": "string",
          "name": "",
          "type": "string"
        }
      ],
      "stateMutability": "view",
      "type": "function",
      "constant": true
    },
    {
      "inputs": [],
      "name": "owner",
      "outputs": [
        {
          "internalType": "address",
          "name": "",
          "type": "address"
        }
      ],
      "stateMutability": "view",
      "type": "function",
      "constant": true
    },
    {
      "inputs": [],
      "name": "rate",
      "outputs": [
        {
          "internalType": "uint256",
          "name": "",
          "type": "uint256"
        }
      ],
      "stateMutability": "view",
      "type": "function",
      "constant": true
    },
    {
      "inputs": [],
      "name": "renounceOwnership",
      "outputs": [],
      "stateMutability": "nonpayable",
      "type": "function"
    },
    {
      "inputs": [],
      "name": "symbol",
      "outputs": [
        {
          "internalType": "string",
          "name": "",
          "type": "string"
        }
      ],
      "stateMutability": "view",
      "type": "function",
      "constant": true
    },
    {
      "inputs": [
        {
          "internalType": "address",
          "name": "owner",
          "type": "address"
        },
        {
          "internalType": "address",
          "name": "to",
          "type": "address"
        },
        {
          "internalType": "uint256",
          "name": "amount",
          "type": "uint256"
        }
      ],
      "name": "tokenTransferBuy",
      "outputs": [],
      "stateMutability": "nonpayable",
      "type": "function"
    },
    {
      "inputs": [
        {
          "internalType": "address",
          "name": "owner",
          "type": "address"
        },
        {
          "internalType": "address",
          "name": "to",
          "type": "address"
        },
        {
          "internalType": "uint256",
          "name": "amount",
          "type": "uint256"
        }
      ],
      "name": "tokenTransferSell",
      "outputs": [],
      "stateMutability": "nonpayable",
      "type": "function"
    },
    {
      "inputs": [],
      "name": "totalSupply",
      "outputs": [
        {
          "internalType": "uint256",
          "name": "",
          "type": "uint256"
        }
      ],
      "stateMutability": "view",
      "type": "function",
      "constant": true
    },
    {
      "inputs": [
        {
          "internalType": "address",
          "name": "to",
          "type": "address"
        },
        {
          "internalType": "uint256",
          "name": "amount",
          "type": "uint256"
        }
      ],
      "name": "transfer",
      "outputs": [
        {
          "internalType": "bool",
          "name": "",
          "type": "bool"
        }
      ],
      "stateMutability": "nonpayable",
      "type": "function"
    },
    {
      "inputs": [
        {
          "internalType": "address",
          "name": "from",
          "type": "address"
        },
        {
          "internalType": "address",
          "name": "to",
          "type": "address"
        },
        {
          "internalType": "uint256",
          "name": "amount",
          "type": "uint256"
        }
      ],
      "name": "transferFrom",
      "outputs": [
        {
          "internalType": "bool",
          "name": "",
          "type": "bool"
        }
      ],
      "stateMutability": "nonpayable",
      "type": "function"
    },
    {
      "inputs": [
        {
          "internalType": "address",
          "name": "newOwner",
          "type": "address"
        }
      ],
      "name": "transferOwnership",
      "outputs": [],
      "stateMutability": "nonpayable",
      "type": "function"
    },
    {
      "stateMutability": "payable",
      "type": "receive",
      "payable": true
    },
    {
      "inputs": [],
      "name": "getToken",
      "outputs": [
        {
          "internalType": "address",
          "name": "",
          "type": "address"
        }
      ],
      "stateMutability": "view",
      "type": "function",
      "constant": true
    },
    {
      "inputs": [],
      "name": "getBalance",
      "outputs": [
        {
          "internalType": "uint256",
          "name": "",
          "type": "uint256"
        }
      ],
      "stateMutability": "view",
      "type": "function",
      "constant": true
    },
    {
      "inputs": [],
      "name": "getMsgSender",
      "outputs": [
        {
          "internalType": "address",
          "name": "",
          "type": "address"
        }
      ],
      "stateMutability": "view",
      "type": "function",
      "constant": true
    },
    {
      "inputs": [
        {
          "internalType": "uint256",
          "name": "_amount",
          "type": "uint256"
        }
      ],
      "name": "sellToken",
      "outputs": [],
      "stateMutability": "payable",
      "type": "function",
      "payable": true
    }
  ],
  "bytecode": "0x60806040526040518060400160405280600881526020017f4b6169546f6b656e000000000000000000000000000000000000000000000000815250600690816200004a91906200079f565b506040518060400160405280600381526020017f4b41490000000000000000000000000000000000000000000000000000000000815250600790816200009191906200079f565b50620000a26200028c60201b60201c565b600a620000b0919062000a16565b612710620000bf919062000a67565b6008556064600955348015620000d457600080fd5b5060068054620000e4906200058e565b80601f016020809104026020016040519081016040528092919081815260200182805462000112906200058e565b8015620001635780601f10620001375761010080835404028352916020019162000163565b820191906000526020600020905b8154815290600101906020018083116200014557829003601f168201915b50505050506007805462000177906200058e565b80601f0160208091040260200160405190810160405280929190818152602001828054620001a5906200058e565b8015620001f65780601f10620001ca57610100808354040283529160200191620001f6565b820191906000526020600020905b815481529060010190602001808311620001d857829003601f168201915b505050505081600390816200020c91906200079f565b5080600490816200021e91906200079f565b50505062000241620002356200029560201b60201c565b6200029d60201b60201c565b6006808162000251919062000adf565b506007808162000262919062000adf565b5062000286620002776200036360201b60201c565b6008546200038d60201b60201c565b62000ccc565b60006012905090565b600033905090565b6000600560009054906101000a900473ffffffffffffffffffffffffffffffffffffffff16905081600560006101000a81548173ffffffffffffffffffffffffffffffffffffffff021916908373ffffffffffffffffffffffffffffffffffffffff1602179055508173ffffffffffffffffffffffffffffffffffffffff168173ffffffffffffffffffffffffffffffffffffffff167f8be0079c531659141344cd1fd0a4f28419497f9722a3daafe3b4186f6b6457e060405160405180910390a35050565b6000600560009054906101000a900473ffffffffffffffffffffffffffffffffffffffff16905090565b6200039f8282620003a360201b60201c565b5050565b600073ffffffffffffffffffffffffffffffffffffffff168273ffffffffffffffffffffffffffffffffffffffff160362000415576040517f08c379a00000000000000000000000000000000000000000000000000000000081526004016200040c9062000c41565b60405180910390fd5b62000429600083836200051b60201b60201c565b80600260008282546200043d919062000c63565b92505081905550806000808473ffffffffffffffffffffffffffffffffffffffff1673ffffffffffffffffffffffffffffffffffffffff168152602001908152602001600020600082825462000494919062000c63565b925050819055508173ffffffffffffffffffffffffffffffffffffffff16600073ffffffffffffffffffffffffffffffffffffffff167fddf252ad1be2c89b69c2b068fc378daa952ba7f163c4a11628f55a4df523b3ef83604051620004fb919062000caf565b60405180910390a362000517600083836200052060201b60201c565b5050565b505050565b505050565b600081519050919050565b7f4e487b7100000000000000000000000000000000000000000000000000000000600052604160045260246000fd5b7f4e487b7100000000000000000000000000000000000000000000000000000000600052602260045260246000fd5b60006002820490506001821680620005a757607f821691505b602082108103620005bd57620005bc6200055f565b5b50919050565b60008190508160005260206000209050919050565b60006020601f8301049050919050565b600082821b905092915050565b600060088302620006277fffffffffffffffffffffffffffffffffffffffffffffffffffffffffffffffff82620005e8565b620006338683620005e8565b95508019841693508086168417925050509392505050565b6000819050919050565b6000819050919050565b6000620006806200067a62000674846200064b565b62000655565b6200064b565b9050919050565b6000819050919050565b6200069c836200065f565b620006b4620006ab8262000687565b848454620005f5565b825550505050565b600090565b620006cb620006bc565b620006d881848462000691565b505050565b5b818110156200070057620006f4600082620006c1565b600181019050620006de565b5050565b601f8211156200074f576200071981620005c3565b6200072484620005d8565b8101602085101562000734578190505b6200074c6200074385620005d8565b830182620006dd565b50505b505050565b600082821c905092915050565b6000620007746000198460080262000754565b1980831691505092915050565b60006200078f838362000761565b9150826002028217905092915050565b620007aa8262000525565b67ffffffffffffffff811115620007c657620007c562000530565b5b620007d282546200058e565b620007df82828562000704565b600060209050601f83116001811462000817576000841562000802578287015190505b6200080e858262000781565b8655506200087e565b601f1984166200082786620005c3565b60005b8281101562000851578489015182556001820191506020850194506020810190506200082a565b868310156200087157848901516200086d601f89168262000761565b8355505b6001600288020188555050505b505050505050565b7f4e487b7100000000000000000000000000000000000000000000000000000000600052601160045260246000fd5b60008160011c9050919050565b6000808291508390505b60018511156200091457808604811115620008ec57620008eb62000886565b5b6001851615620008fc5780820291505b80810290506200090c85620008b5565b9450620008cc565b94509492505050565b6000826200092f576001905062000a02565b816200093f576000905062000a02565b8160018114620009585760028114620009635762000999565b600191505062000a02565b60ff84111562000978576200097762000886565b5b8360020a91508482111562000992576200099162000886565b5b5062000a02565b5060208310610133831016604e8410600b8410161715620009d35782820a905083811115620009cd57620009cc62000886565b5b62000a02565b620009e28484846001620008c2565b92509050818404811115620009fc57620009fb62000886565b5b81810290505b9392505050565b600060ff82169050919050565b600062000a23826200064b565b915062000a308362000a09565b925062000a5f7fffffffffffffffffffffffffffffffffffffffffffffffffffffffffffffffff84846200091d565b905092915050565b600062000a74826200064b565b915062000a81836200064b565b925082820262000a91816200064b565b9150828204841483151762000aab5762000aaa62000886565b5b5092915050565b60008154905062000ac3816200058e565b9050919050565b60008190508160005260206000209050919050565b81810362000aef57505062000bde565b62000afa8262000ab2565b67ffffffffffffffff81111562000b165762000b1562000530565b5b62000b2282546200058e565b62000b2f82828562000704565b6000601f83116001811462000b63576000841562000b4e578287015490505b62000b5a858262000781565b86555062000bd7565b601f19841662000b738762000aca565b965062000b8086620005c3565b60005b8281101562000baa5784890154825560018201915060018501945060208101905062000b83565b8683101562000bca578489015462000bc6601f89168262000761565b8355505b6001600288020188555050505b5050505050505b565b600082825260208201905092915050565b7f45524332303a206d696e7420746f20746865207a65726f206164647265737300600082015250565b600062000c29601f8362000be0565b915062000c368262000bf1565b602082019050919050565b6000602082019050818103600083015262000c5c8162000c1a565b9050919050565b600062000c70826200064b565b915062000c7d836200064b565b925082820190508082111562000c985762000c9762000886565b5b92915050565b62000ca9816200064b565b82525050565b600060208201905062000cc6600083018462000c9e565b92915050565b6122898062000cdc6000396000f3fe60806040526004361061016a5760003560e01c80634bdfa913116100d1578063a457c2d71161008a578063d28d885211610064578063d28d885214610647578063d3866f5a14610672578063dd62ed3e1461069b578063f2fde38b146106d857610276565b8063a457c2d7146105a2578063a9059cbb146105df578063b09f12661461061c57610276565b80634bdfa913146104a457806370a08231146104cd578063715018a61461050a5780637a6ce2e1146105215780638da5cb5b1461054c57806395d89b411461057757610276565b806323b872dd1161012357806323b872dd146103805780632c4e722e146103bd578063313ce567146103e857806339509351146104135780633eaaf86b1461045057806340c10f191461047b57610276565b806306fdde031461027b578063095ea7b3146102a657806312065fe0146102e357806318160ddd1461030e57806321df0da7146103395780632397e4d71461036457610276565b3661027657600034036101b2576040517f08c379a00000000000000000000000000000000000000000000000000000000081526004016101a9906116ec565b60405180910390fd5b6000600954346101c29190611745565b9050806101d56101d0610701565b61072b565b1015610216576040517f08c379a000000000000000000000000000000000000000000000000000000000815260040161020d906117d3565b60405180910390fd5b610228610221610701565b3383610773565b610230610701565b73ffffffffffffffffffffffffffffffffffffffff163373ffffffffffffffffffffffffffffffffffffffff16036102745761027361026d610701565b82610822565b5b005b600080fd5b34801561028757600080fd5b50610290610981565b60405161029d9190611872565b60405180910390f35b3480156102b257600080fd5b506102cd60048036038101906102c89190611923565b610a13565b6040516102da919061197e565b60405180910390f35b3480156102ef57600080fd5b506102f8610a36565b60405161030591906119a8565b60405180910390f35b34801561031a57600080fd5b50610323610a46565b60405161033091906119a8565b60405180910390f35b34801561034557600080fd5b5061034e610a50565b60405161035b91906119d2565b60405180910390f35b61037e600480360381019061037991906119ed565b610a58565b005b34801561038c57600080fd5b506103a760048036038101906103a29190611a1a565b610b55565b6040516103b4919061197e565b60405180910390f35b3480156103c957600080fd5b506103d2610b84565b6040516103df91906119a8565b60405180910390f35b3480156103f457600080fd5b506103fd610b8a565b60405161040a9190611a89565b60405180910390f35b34801561041f57600080fd5b5061043a60048036038101906104359190611923565b610b93565b604051610447919061197e565b60405180910390f35b34801561045c57600080fd5b50610465610bca565b60405161047291906119a8565b60405180910390f35b34801561048757600080fd5b506104a2600480360381019061049d9190611923565b610bd0565b005b3480156104b057600080fd5b506104cb60048036038101906104c69190611a1a565b610bde565b005b3480156104d957600080fd5b506104f460048036038101906104ef9190611aa4565b61072b565b60405161050191906119a8565b60405180910390f35b34801561051657600080fd5b5061051f610c8d565b005b34801561052d57600080fd5b50610536610d15565b60405161054391906119d2565b60405180910390f35b34801561055857600080fd5b50610561610701565b60405161056e91906119d2565b60405180910390f35b34801561058357600080fd5b5061058c610d1d565b6040516105999190611872565b60405180910390f35b3480156105ae57600080fd5b506105c960048036038101906105c49190611923565b610daf565b6040516105d6919061197e565b60405180910390f35b3480156105eb57600080fd5b5061060660048036038101906106019190611923565b610e26565b604051610613919061197e565b60405180910390f35b34801561062857600080fd5b50610631610e49565b60405161063e9190611872565b60405180910390f35b34801561065357600080fd5b5061065c610ed7565b6040516106699190611872565b60405180910390f35b34801561067e57600080fd5b5061069960048036038101906106949190611a1a565b610773565b005b3480156106a757600080fd5b506106c260048036038101906106bd9190611ad1565b610f65565b6040516106cf91906119a8565b60405180910390f35b3480156106e457600080fd5b506106ff60048036038101906106fa9190611aa4565b610fec565b005b6000600560009054906101000a900473ffffffffffffffffffffffffffffffffffffffff16905090565b60008060008373ffffffffffffffffffffffffffffffffffffffff1673ffffffffffffffffffffffffffffffffffffffff168152602001908152602001600020549050919050565b806000808573ffffffffffffffffffffffffffffffffffffffff1673ffffffffffffffffffffffffffffffffffffffff16815260200190815260200160002060008282546107c19190611b11565b92505081905550806000808473ffffffffffffffffffffffffffffffffffffffff1673ffffffffffffffffffffffffffffffffffffffff16815260200190815260200160002060008282546108169190611b45565b92505081905550505050565b600073ffffffffffffffffffffffffffffffffffffffff168273ffffffffffffffffffffffffffffffffffffffff1603610891576040517f08c379a000000000000000000000000000000000000000000000000000000000815260040161088890611bc5565b60405180910390fd5b61089d600083836110e3565b80600260008282546108af9190611b45565b92505081905550806000808473ffffffffffffffffffffffffffffffffffffffff1673ffffffffffffffffffffffffffffffffffffffff16815260200190815260200160002060008282546109049190611b45565b925050819055508173ffffffffffffffffffffffffffffffffffffffff16600073ffffffffffffffffffffffffffffffffffffffff167fddf252ad1be2c89b69c2b068fc378daa952ba7f163c4a11628f55a4df523b3ef8360405161096991906119a8565b60405180910390a361097d600083836110e8565b5050565b60606003805461099090611c14565b80601f01602080910402602001604051908101604052809291908181526020018280546109bc90611c14565b8015610a095780601f106109de57610100808354040283529160200191610a09565b820191906000526020600020905b8154815290600101906020018083116109ec57829003601f168201915b5050505050905090565b600080610a1e6110ed565b9050610a2b8185856110f5565b600191505092915050565b6000610a413361072b565b905090565b6000600254905090565b600030905090565b80610a623361072b565b1015610aa3576040517f08c379a0000000000000000000000000000000000000000000000000000000008152600401610a9a90611c91565b60405180910390fd5b600060095482610ab39190611ce0565b905080471015610af8576040517f08c379a0000000000000000000000000000000000000000000000000000000008152600401610aef90611d5d565b60405180910390fd5b610b0a610b03610701565b3384610bde565b3373ffffffffffffffffffffffffffffffffffffffff166108fc829081150290604051600060405180830381858888f19350505050158015610b50573d6000803e3d6000fd5b505050565b600080610b606110ed565b9050610b6d8582856112be565b610b7885858561134a565b60019150509392505050565b60095481565b60006012905090565b600080610b9e6110ed565b9050610bbf818585610bb08589610f65565b610bba9190611b45565b6110f5565b600191505092915050565b60085481565b610bda8282610822565b5050565b806000808573ffffffffffffffffffffffffffffffffffffffff1673ffffffffffffffffffffffffffffffffffffffff1681526020019081526020016000206000828254610c2c9190611b45565b92505081905550806000808473ffffffffffffffffffffffffffffffffffffffff1673ffffffffffffffffffffffffffffffffffffffff1681526020019081526020016000206000828254610c819190611b11565b92505081905550505050565b610c956110ed565b73ffffffffffffffffffffffffffffffffffffffff16610cb3610701565b73ffffffffffffffffffffffffffffffffffffffff1614610d09576040517f08c379a0000000000000000000000000000000000000000000000000000000008152600401610d0090611dc9565b60405180910390fd5b610d1360006115c9565b565b600033905090565b606060048054610d2c90611c14565b80601f0160208091040260200160405190810160405280929190818152602001828054610d5890611c14565b8015610da55780601f10610d7a57610100808354040283529160200191610da5565b820191906000526020600020905b815481529060010190602001808311610d8857829003601f168201915b5050505050905090565b600080610dba6110ed565b90506000610dc88286610f65565b905083811015610e0d576040517f08c379a0000000000000000000000000000000000000000000000000000000008152600401610e0490611e5b565b60405180910390fd5b610e1a82868684036110f5565b60019250505092915050565b600080610e316110ed565b9050610e3e81858561134a565b600191505092915050565b60078054610e5690611c14565b80601f0160208091040260200160405190810160405280929190818152602001828054610e8290611c14565b8015610ecf5780601f10610ea457610100808354040283529160200191610ecf565b820191906000526020600020905b815481529060010190602001808311610eb257829003601f168201915b505050505081565b60068054610ee490611c14565b80601f0160208091040260200160405190810160405280929190818152602001828054610f1090611c14565b8015610f5d5780601f10610f3257610100808354040283529160200191610f5d565b820191906000526020600020905b815481529060010190602001808311610f4057829003601f168201915b505050505081565b6000600160008473ffffffffffffffffffffffffffffffffffffffff1673ffffffffffffffffffffffffffffffffffffffff16815260200190815260200160002060008373ffffffffffffffffffffffffffffffffffffffff1673ffffffffffffffffffffffffffffffffffffffff16815260200190815260200160002054905092915050565b610ff46110ed565b73ffffffffffffffffffffffffffffffffffffffff16611012610701565b73ffffffffffffffffffffffffffffffffffffffff1614611068576040517f08c379a000000000000000000000000000000000000000000000000000000000815260040161105f90611dc9565b60405180910390fd5b600073ffffffffffffffffffffffffffffffffffffffff168173ffffffffffffffffffffffffffffffffffffffff16036110d7576040517f08c379a00000000000000000000000000000000000000000000000000000000081526004016110ce90611eed565b60405180910390fd5b6110e0816115c9565b50565b505050565b505050565b600033905090565b600073ffffffffffffffffffffffffffffffffffffffff168373ffffffffffffffffffffffffffffffffffffffff1603611164576040517f08c379a000000000000000000000000000000000000000000000000000000000815260040161115b90611f7f565b60405180910390fd5b600073ffffffffffffffffffffffffffffffffffffffff168273ffffffffffffffffffffffffffffffffffffffff16036111d3576040517f08c379a00000000000000000000000000000000000000000000000000000000081526004016111ca90612011565b60405180910390fd5b80600160008573ffffffffffffffffffffffffffffffffffffffff1673ffffffffffffffffffffffffffffffffffffffff16815260200190815260200160002060008473ffffffffffffffffffffffffffffffffffffffff1673ffffffffffffffffffffffffffffffffffffffff168152602001908152602001600020819055508173ffffffffffffffffffffffffffffffffffffffff168373ffffffffffffffffffffffffffffffffffffffff167f8c5be1e5ebec7d5bd14f71427d1e84f3dd0314c0f7b2291e5b200ac8c7c3b925836040516112b191906119a8565b60405180910390a3505050565b60006112ca8484610f65565b90507fffffffffffffffffffffffffffffffffffffffffffffffffffffffffffffffff81146113445781811015611336576040517f08c379a000000000000000000000000000000000000000000000000000000000815260040161132d9061207d565b60405180910390fd5b61134384848484036110f5565b5b50505050565b600073ffffffffffffffffffffffffffffffffffffffff168373ffffffffffffffffffffffffffffffffffffffff16036113b9576040517f08c379a00000000000000000000000000000000000000000000000000000000081526004016113b09061210f565b60405180910390fd5b600073ffffffffffffffffffffffffffffffffffffffff168273ffffffffffffffffffffffffffffffffffffffff1603611428576040517f08c379a000000000000000000000000000000000000000000000000000000000815260040161141f906121a1565b60405180910390fd5b6114338383836110e3565b60008060008573ffffffffffffffffffffffffffffffffffffffff1673ffffffffffffffffffffffffffffffffffffffff168152602001908152602001600020549050818110156114b9576040517f08c379a00000000000000000000000000000000000000000000000000000000081526004016114b090612233565b60405180910390fd5b8181036000808673ffffffffffffffffffffffffffffffffffffffff1673ffffffffffffffffffffffffffffffffffffffff16815260200190815260200160002081905550816000808573ffffffffffffffffffffffffffffffffffffffff1673ffffffffffffffffffffffffffffffffffffffff168152602001908152602001600020600082825461154c9190611b45565b925050819055508273ffffffffffffffffffffffffffffffffffffffff168473ffffffffffffffffffffffffffffffffffffffff167fddf252ad1be2c89b69c2b068fc378daa952ba7f163c4a11628f55a4df523b3ef846040516115b091906119a8565b60405180910390a36115c38484846110e8565b50505050565b6000600560009054906101000a900473ffffffffffffffffffffffffffffffffffffffff16905081600560006101000a81548173ffffffffffffffffffffffffffffffffffffffff021916908373ffffffffffffffffffffffffffffffffffffffff1602179055508173ffffffffffffffffffffffffffffffffffffffff168173ffffffffffffffffffffffffffffffffffffffff167f8be0079c531659141344cd1fd0a4f28419497f9722a3daafe3b4186f6b6457e060405160405180910390a35050565b600082825260208201905092915050565b7f456e7465722061206e6f6e7a65726f2076616c75650000000000000000000000600082015250565b60006116d660158361168f565b91506116e1826116a0565b602082019050919050565b60006020820190508181036000830152611705816116c9565b9050919050565b6000819050919050565b7f4e487b7100000000000000000000000000000000000000000000000000000000600052601160045260246000fd5b60006117508261170c565b915061175b8361170c565b92508282026117698161170c565b915082820484148315176117805761177f611716565b5b5092915050565b7f6f776e6572204b6169546f6b656e206973206e6f20616d6f756e740000000000600082015250565b60006117bd601b8361168f565b91506117c882611787565b602082019050919050565b600060208201905081810360008301526117ec816117b0565b9050919050565b600081519050919050565b60005b8381101561181c578082015181840152602081019050611801565b60008484015250505050565b6000601f19601f8301169050919050565b6000611844826117f3565b61184e818561168f565b935061185e8185602086016117fe565b61186781611828565b840191505092915050565b6000602082019050818103600083015261188c8184611839565b905092915050565b600080fd5b600073ffffffffffffffffffffffffffffffffffffffff82169050919050565b60006118c482611899565b9050919050565b6118d4816118b9565b81146118df57600080fd5b50565b6000813590506118f1816118cb565b92915050565b6119008161170c565b811461190b57600080fd5b50565b60008135905061191d816118f7565b92915050565b6000806040838503121561193a57611939611894565b5b6000611948858286016118e2565b92505060206119598582860161190e565b9150509250929050565b60008115159050919050565b61197881611963565b82525050565b6000602082019050611993600083018461196f565b92915050565b6119a28161170c565b82525050565b60006020820190506119bd6000830184611999565b92915050565b6119cc816118b9565b82525050565b60006020820190506119e760008301846119c3565b92915050565b600060208284031215611a0357611a02611894565b5b6000611a118482850161190e565b91505092915050565b600080600060608486031215611a3357611a32611894565b5b6000611a41868287016118e2565b9350506020611a52868287016118e2565b9250506040611a638682870161190e565b9150509250925092565b600060ff82169050919050565b611a8381611a6d565b82525050565b6000602082019050611a9e6000830184611a7a565b92915050565b600060208284031215611aba57611ab9611894565b5b6000611ac8848285016118e2565b91505092915050565b60008060408385031215611ae857611ae7611894565b5b6000611af6858286016118e2565b9250506020611b07858286016118e2565b9150509250929050565b6000611b1c8261170c565b9150611b278361170c565b9250828203905081811115611b3f57611b3e611716565b5b92915050565b6000611b508261170c565b9150611b5b8361170c565b9250828201905080821115611b7357611b72611716565b5b92915050565b7f45524332303a206d696e7420746f20746865207a65726f206164647265737300600082015250565b6000611baf601f8361168f565b9150611bba82611b79565b602082019050919050565b60006020820190508181036000830152611bde81611ba2565b9050919050565b7f4e487b7100000000000000000000000000000000000000000000000000000000600052602260045260246000fd5b60006002820490506001821680611c2c57607f821691505b602082108103611c3f57611c3e611be5565b5b50919050565b7f796f75206675636b696e67206e6f20546f6b656e206f6b3f0000000000000000600082015250565b6000611c7b60188361168f565b9150611c8682611c45565b602082019050919050565b60006020820190508181036000830152611caa81611c6e565b9050919050565b7f4e487b7100000000000000000000000000000000000000000000000000000000600052601260045260246000fd5b6000611ceb8261170c565b9150611cf68361170c565b925082611d0657611d05611cb1565b5b828204905092915050565b7f4341206e6f206574686572000000000000000000000000000000000000000000600082015250565b6000611d47600b8361168f565b9150611d5282611d11565b602082019050919050565b60006020820190508181036000830152611d7681611d3a565b9050919050565b7f4f776e61626c653a2063616c6c6572206973206e6f7420746865206f776e6572600082015250565b6000611db360208361168f565b9150611dbe82611d7d565b602082019050919050565b60006020820190508181036000830152611de281611da6565b9050919050565b7f45524332303a2064656372656173656420616c6c6f77616e63652062656c6f7760008201527f207a65726f000000000000000000000000000000000000000000000000000000602082015250565b6000611e4560258361168f565b9150611e5082611de9565b604082019050919050565b60006020820190508181036000830152611e7481611e38565b9050919050565b7f4f776e61626c653a206e6577206f776e657220697320746865207a65726f206160008201527f6464726573730000000000000000000000000000000000000000000000000000602082015250565b6000611ed760268361168f565b9150611ee282611e7b565b604082019050919050565b60006020820190508181036000830152611f0681611eca565b9050919050565b7f45524332303a20617070726f76652066726f6d20746865207a65726f2061646460008201527f7265737300000000000000000000000000000000000000000000000000000000602082015250565b6000611f6960248361168f565b9150611f7482611f0d565b604082019050919050565b60006020820190508181036000830152611f9881611f5c565b9050919050565b7f45524332303a20617070726f766520746f20746865207a65726f20616464726560008201527f7373000000000000000000000000000000000000000000000000000000000000602082015250565b6000611ffb60228361168f565b915061200682611f9f565b604082019050919050565b6000602082019050818103600083015261202a81611fee565b9050919050565b7f45524332303a20696e73756666696369656e7420616c6c6f77616e6365000000600082015250565b6000612067601d8361168f565b915061207282612031565b602082019050919050565b600060208201905081810360008301526120968161205a565b9050919050565b7f45524332303a207472616e736665722066726f6d20746865207a65726f20616460008201527f6472657373000000000000000000000000000000000000000000000000000000602082015250565b60006120f960258361168f565b91506121048261209d565b604082019050919050565b60006020820190508181036000830152612128816120ec565b9050919050565b7f45524332303a207472616e7366657220746f20746865207a65726f206164647260008201527f6573730000000000000000000000000000000000000000000000000000000000602082015250565b600061218b60238361168f565b91506121968261212f565b604082019050919050565b600060208201905081810360008301526121ba8161217e565b9050919050565b7f45524332303a207472616e7366657220616d6f756e742065786365656473206260008201527f616c616e63650000000000000000000000000000000000000000000000000000602082015250565b600061221d60268361168f565b9150612228826121c1565b604082019050919050565b6000602082019050818103600083015261224c81612210565b905091905056fea264697066735822122032ae6ae1bb9f181b391923c66852c65d6170df918586e20e5bcf80c13c64e6ca64736f6c63430008110033",
  "immutableReferences": {},
  "source": "// SPDX-License-Identifier: MIT\n// pragma solidity ^0.8.17;\n\n// // import  nodeModules/openzeppelin/contracts/token/ERC20 \nimport \"../node_modules/openzeppelin-solidity/contracts/token/ERC20/ERC20.sol\";\nimport \"../node_modules/openzeppelin-solidity/contracts/access/Ownable.sol\";\n\n\npragma solidity ^0.8.17;\n\n//   is SOONToken ERC20  \ncontract KaiToken is ERC20, Ownable {\n    string public _name = \"KaiToken\";\n    string public _symbol = \"KAI\";\n    uint256 public _totalSupply = 10000 * (10**decimals());\n\n    uint256 public rate = 100; // 1ETH  200\n\n    constructor() ERC20(_name, _symbol){\n        // ERC20    0\n        _name = _name;\n        _symbol = _symbol;\n        // mint   \n        mint(owner(), _totalSupply);\n    }\n    function getToken() public view returns(address){\n        // KaiToken CA\n        return address(this);\n    }\n\n    //       .\n    function getBalance() public view returns (uint){\n        return balanceOf(msg.sender);\n    }\n\n    //    EOA \n    function getMsgSender() public view returns (address){\n        return msg.sender;\n    }\n\n    //  \n    // receive :   CA     \n    // external       \n    //  \n    //    \n    //     KaiToken CA     .\n    receive() external payable{\n        // require true  false ..\n        // require true \n        require(msg.value != 0, \"Enter a nonzero value\");\n        uint amount = msg.value * rate;\n\n        require(balanceOf(owner()) >= amount, \"owner KaiToken is no amount\"); \n\n        tokenTransferBuy(owner(),msg.sender, amount);\n\n        if(msg.sender == owner()){\n            _mint(owner(),amount);\n        }\n    }\n\n    //   \n   function sellToken(uint256 _amount) public payable{\n        require(balanceOf(msg.sender) >= _amount, \"you fucking no Token ok?\");\n        uint256 etherAmount = _amount/rate;\n        require(address(this).balance >= etherAmount, \"CA no ether\");\n        tokenTransferSell(owner(),msg.sender, _amount);\n        payable(msg.sender).transfer(etherAmount);\n    }\n    //ERC20     \n    // token \n    // function tokenTransferBuy(address owner, address to, uint256 amount) public virtual {\n    //     _balances[owner] -= amount;\n    //     _balances[to] += amount;\n    // }\n    // token \n    // function tokenTransferSell(address owner, address to, uint256 amount) public virtual {\n    //     _balances[owner] += amount;\n    //     _balances[to] -= amount;\n    // }\n}\n\n// Available Accounts\n// ==================\n// (0) 0x82ABeE21D78a30F8F84e5c8915f4CF01d381695a (100 ETH)\n// (1) 0x08D45388517Cd65b16915aAEb61Cd16ec9011c32 (100 ETH)\n// (2) 0xfF5C522B979F141C6A2E29F5cBD4cDE16Ae962F0 (100 ETH)\n// (3) 0x9139a13accBFBaee41c53192448EF93F6c7a3d4A (100 ETH)\n// (4) 0x64782bB8e206aD2595d2E43D5d8dE511213Dd721 (100 ETH)\n// (5) 0x2B60154Eb0DF7179E17751DcEBA8A73DeE5A0B44 (100 ETH)\n// (6) 0x21398217bF84aA8E3e420f84239c4e809C56D7b8 (100 ETH)\n// (7) 0x670ffA2367F2FAf9B7C02b6467d23552Ec4B0112 (100 ETH)\n// (8) 0xc36fB6223A0ab8781A34562A2037Cd526B53d8f4 (100 ETH)\n// (9) 0x35d04bD0bfb8d181dd8fc6D761B923BE55ecD459 (100 ETH)\n\n// Private Keys\n// ==================\n// (0) 0xd6f38efcc3c9f84bb31d548ceef0c20a74e8777231f144c5a14b5406896916eb\n// (1) 0xf30aeff82f82da0e6c6466ecf6fb7b9d1662edf97337ea3871c46a02d3254c0c\n// (2) 0xa16551e139189374b474382173cb7e78e5ea5dc1fc9ac1144edf9d1b7e6f65c9\n// (3) 0x55e26aad57a45a0d8f9d960b58bca3000e806e016319b97cac34ca91243d63c8\n// (4) 0x5134b48b56026ed26d5e56fae74673f1f57c7d8aa6f86de07f761828673ff2b2\n// (5) 0x1b86d79a75e31fd3974ce8c43e313544baf1f06818e87827e4e88831e9c0a516\n// (6) 0x7bf37d9e95ff141da6abdc3a80650ee573aeffb8039a72fb3ecaa5517273fd5d\n// (7) 0x7f244746d4dcfa5ecb47b592fe342414c27feedbecc4c2a474368a765b36b91a\n// (8) 0xd4ebb29ba4af2580f34edde82571a11ce33dbc649bdbf2890a6fedc3c2d92e2c\n// (9) 0x58b4fc30ec5156b84195fad3ca189d5ef4480bf94daa4c6465112e4e1a41fde4",
  "sourcePath": "C:\\Users\\an\\Desktop\\E-SAKAI\\sol\\contracts\\kaiToken.sol",
  "compiler": {
    "name": "solc",
    "version": "0.8.17+commit.8df45f5f.Emscripten.clang"
  },
  "schemaVersion": "3.4.11",
  "updatedAt": "2022-12-23T08:24:18.932Z",
  "networkType": "ethereum",
  "devdoc": {
    "kind": "dev",
    "methods": {
      "allowance(address,address)": {
        "details": "See {IERC20-allowance}."
      },
      "approve(address,uint256)": {
        "details": "See {IERC20-approve}. NOTE: If `amount` is the maximum `uint256`, the allowance is not updated on `transferFrom`. This is semantically equivalent to an infinite approval. Requirements: - `spender` cannot be the zero address."
      },
      "balanceOf(address)": {
        "details": "See {IERC20-balanceOf}."
      },
      "decimals()": {
        "details": "Returns the number of decimals used to get its user representation. For example, if `decimals` equals `2`, a balance of `505` tokens should be displayed to a user as `5.05` (`505 / 10 ** 2`). Tokens usually opt for a value of 18, imitating the relationship between Ether and Wei. This is the value {ERC20} uses, unless this function is overridden; NOTE: This information is only used for _display_ purposes: it in no way affects any of the arithmetic of the contract, including {IERC20-balanceOf} and {IERC20-transfer}."
      },
      "decreaseAllowance(address,uint256)": {
        "details": "Atomically decreases the allowance granted to `spender` by the caller. This is an alternative to {approve} that can be used as a mitigation for problems described in {IERC20-approve}. Emits an {Approval} event indicating the updated allowance. Requirements: - `spender` cannot be the zero address. - `spender` must have allowance for the caller of at least `subtractedValue`."
      },
      "increaseAllowance(address,uint256)": {
        "details": "Atomically increases the allowance granted to `spender` by the caller. This is an alternative to {approve} that can be used as a mitigation for problems described in {IERC20-approve}. Emits an {Approval} event indicating the updated allowance. Requirements: - `spender` cannot be the zero address."
      },
      "name()": {
        "details": "Returns the name of the token."
      },
      "owner()": {
        "details": "Returns the address of the current owner."
      },
      "renounceOwnership()": {
        "details": "Leaves the contract without owner. It will not be possible to call `onlyOwner` functions anymore. Can only be called by the current owner. NOTE: Renouncing ownership will leave the contract without an owner, thereby removing any functionality that is only available to the owner."
      },
      "symbol()": {
        "details": "Returns the symbol of the token, usually a shorter version of the name."
      },
      "totalSupply()": {
        "details": "See {IERC20-totalSupply}."
      },
      "transfer(address,uint256)": {
        "details": "See {IERC20-transfer}. Requirements: - `to` cannot be the zero address. - the caller must have a balance of at least `amount`."
      },
      "transferFrom(address,address,uint256)": {
        "details": "See {IERC20-transferFrom}. Emits an {Approval} event indicating the updated allowance. This is not required by the EIP. See the note at the beginning of {ERC20}. NOTE: Does not update the allowance if the current allowance is the maximum `uint256`. Requirements: - `from` and `to` cannot be the zero address. - `from` must have a balance of at least `amount`. - the caller must have allowance for ``from``'s tokens of at least `amount`."
      },
      "transferOwnership(address)": {
        "details": "Transfers ownership of the contract to a new account (`newOwner`). Can only be called by the current owner."
      }
    },
    "version": 1
  },
  "userdoc": {
    "kind": "user",
    "methods": {},
    "version": 1
  }
}